:020000040800F2
:1030000048B40020713E0108C93C0108CB3C0108CE
:10301000CD3C0108CF3C0108D13C01080000000074
:10302000000000000000000000000000D33C010888
:10303000D53C010800000000D73C0108D93C01083C
:10304000873E0108873E0108873E010871D80008C5
:10305000873E0108873E0108873E0108873E010838
:10306000873E0108873E0108873E0108873E010828
:10307000873E0108873E0108873E0108873E010818
:10308000873E0108873E0108873E0108873E010808
:10309000F73C0108873E0108873E0108873E01088A
:1030A000873E0108873E0108873E0108873E0108E8
:1030B0003D2E0108873E0108873E0108873E010832
:1030C000873E0108873E0108873E0108873E0108C8
:1030D000873E0108033001085B300108DB3001083E
:1030E000873E0108873E0108F93C0108873E010838
:1030F000873E0108873E0108873E0108873E010898
:10310000873E0108873E0108873E0108873E010887
:10311000A1310108873E0108873E0108873E01086A
:10312000873E0108873E0108873E0108873E010867
:10313000DFF80CD011F064FB0048004729B4000808
:1031400048B40020002100E0491C8142FCDB7047AC
:1031500010B56420FFF7F6FF4FF48041FA4811F0F4
:10316000A7FC4FF40071F94811F0A2FCBDE8104033
:103170004FF47A7004F031B970B5F34D4FF48044D8
:103180002146284611F096FC0120FFF7DBFF21467F
:10319000284611F08DFCBDE870400120D2E770B5E3
:1031A000EA4D4FF400742146284611F083FC0120BB
:1031B000FFF7C8FF2146284611F07AFCBDE87040B1
:1031C0000120BFE72DE9F041DF4F4FF400563146B3
:1031D000384611F05CFC0028F9D04FF480413846A5
:1031E00011F066FC00253146384611F050FC0028ED
:1031F000F9D100246D00FFF7BFFF3146384611F0CA
:1032000046FC3146384611F042FC012800D16D1CC5
:10321000641CE4B2182CEDD3FFF7AEFF2846BDE8DE
:10322000F08110B5CA4C05202060FFF7CBFF236862
:10323000B3B1C84A632102EB810454F8044C42F84C
:103240002140491E0029F6DC591E106003E052F8A7
:103250002140491E20440029F9DCB0FBF3F001E0D5
:10326000012121601921B0FBF1F010BD2DE9F041E1
:10327000B64F4FF480763146384611F008FC0028EE
:10328000F9D04FF48041B04811F012FC00253146CE
:10329000384611F0FCFB0028F9D100246D00FFF73F
:1032A0007EFF3146384611F0F2FB3146384611F0C8
:1032B000EEFB012800D16D1C641CE4B2182CEDD388
:1032C000FFF76DFF2846AAE710B5A14C0520206046
:1032D000FFF7CCFF2368B3B19F4A632102EB81045F
:1032E00054F8044C42F82140491E0029F6DC591ECE
:1032F000106003E052F82140491E20440029F9DC07
:10330000B0FBF3F001E0012121601921B0FBF1F0E5
:1033100010BD10B500208F4A014642F82010401C15
:10332000C828FAD38C4A002042F82010401CC82834
:10333000FAD30121894811F0BBFBBDE810400221FE
:10334000874811F0B5BB2DE9F047864F0025834E25
:103350002C463D700121304611F0AAFB4FF00109C7
:10336000DFF8048202E0641C44450DD80421304695
:1033700011F08DFB0028F6D0387801282CD00024DD
:1033800005E0641C444502D987F8009024E004213C
:10339000304611F07CFB0028F3D1387801281BD08F
:1033A00000240121304611F085FB502004F00AF87A
:1033B0006D000421304611F06AFB05440A2004F038
:1033C00001F80121304611F073FB502003F0FAFFA1
:1033D000641CE4B2182CE4D32846BDE8F08770B52D
:1033E0005E4E00250121304611F062FB042130467B
:1033F00011F04DFB0028F9D00421304611F047FBB5
:103400000028F9D10421304611F041FB0028F9D001
:103410000421304611F03BFB0028F9D100240121A2
:10342000304611F047FB962003F0CCFF6D000421DD
:10343000304611F02CFB05440121304611F038FBD9
:10344000322003F0BFFF641CE4B2182CE7D32846F7
:1034500070BD2DE9F047DFF80881002502214046C4
:1034600011F026FB3D4F4FF400542146384611F031
:103470000EFB0028F9D02146384611F008FB002841
:10348000F9D12146384611F002FB0028F9D0264632
:103490002146384611F0FBFA0028F8D10024B14645
:1034A00002214646404611F005FB962003F08AFFB4
:1034B0006D004946384611F0EAFA054402213046CB
:1034C00011F0F6FA322003F07DFF641CE4B2182CF0
:1034D000E6D3284681E782E7BBE710B5FFF77FFF19
:1034E0001B490B68B3B11B4AC72102EB810454F896
:1034F000044C42F82140491E0029F6DC591E106098
:1035000003E052F82140491E20440029F9DCB0FBB9
:10351000F3F001E001220A601421B0FBF1F010BDCC
:1035200010B5FFF796FF0A490B6843B30A4AC72153
:1035300002EB810454F8044C42F82140491E002952
:10354000F6DC591E106015E000180140001401401F
:1035500008390020A4390020C43C0020001001409C
:10356000000C014000000020A086010052F821401C
:10357000491E20440029F9DCB0FBF3F001E00122F0
:103580000A601421B0FBF1F010BD2DE9F04F99B0A5
:1035900000254FF0FF38FE4BDFF8F8B3DFF8F89363
:1035A0001A78DFF8F8A3012A0ED1FD49002008702F
:1035B0008BF8000089F800008AF80000F9490870CB
:1035C000F9490870F94908703032F9A10CA811F0D6
:1035D00097FD0CA810F03FF80027F74C01260120BA
:1035E00003F0F7FE2078E8B3012003F0F2FE207824
:1035F000C8B3F248002727700760F1485021F14A0C
:1036000001803C4602206FF02F03115CA1F1300CC9
:10361000BCF1090F04D9A1F1410CBCF1050F07D889
:1036200004EB840403EB4404401C0C440728ECDD49
:10363000082841DB0222E4A1E24810F0A9FC18B3FB
:103640000222E2A1DF4810F0A3FC18B30222E0A19D
:10365000DC4810F09DFC18B30222DEA1D94810F01E
:1036600097FC01E002E004E000B325E07F1C642F3A
:10367000B5DBD349B1F9000008B1401E0880C44849
:103680000278042A1BD047E0D34804608BF800601E
:10369000D24810E0D248046089F80060D1480AE0BE
:1036A000D14804608AF80060D04804E0D048046043
:1036B000BC480670CF48077010F04BF9DFE7C648EA
:1036C000C949CD4F0468C64809683F680068231897
:1036D0005D18C74B1B6805EB03080125E7B109AF6F
:1036E00008940BC7B1480378AF480178AD48047817
:1036F0009AF80000CDE90404CDE9061399F800100A
:103700009BF80030A648CDE90231CDE90085037869
:10371000BAA10CA811F0F4FC9D490878401CC0B275
:103720000870042800D90E702DB19D4806704046DF
:1037300019B0BDE8F08FC0480068F9E72DE9F04FF7
:10374000934B00256C1E1A78934E944FDFF85482E9
:10375000B5B0AA46012A11D1914981F800A08D493E
:1037600081F800A086F800A087F800A088F800A0E3
:103770008D4981F800A08D4981F800A030328CA1DC
:103780000EA811F0BDFC0EA80FF065FFDFF828B2FF
:103790004FF00009012003F01CFE9BF8000018B157
:1037A000012003F016FE04E009F10109B9F1640FEC
:1037B000F0DB77484B46A1A102780EA811F0A0FCDF
:1037C0000EA80FF09FFE58469BF800207C49DFF8BA
:1037D00020B2002A44D080F800A07848794B4FF0FE
:1037E0000009C0F800A05020088002206FF02F0CC4
:1037F000195CA1F13002092A02D9113A052A08D828
:1038000009EB89020CEB4202401C01EB020907287C
:10381000EEDD082858DB02226BA16A4810F0B8FBE5
:1038200020B3022269A1674810F0B2FB30B3022234
:1038300067A1644810F0ACFB38B3022265A161486F
:1038400010F0A6FB40B302227FA15E4810F0A0FB5F
:1038500048B302227DA15B4810F09AFB58B333E0D5
:10386000B1F9000090B3401E08802FE05A490120B2
:10387000C1F8009047490870584923E05849012091
:10388000C1F80090307057491CE05748C0F80090CC
:1038900001203870554915E00120CBF8009088F8D8
:1038A000000054490EE06A490120C1F800903E49E9
:1038B0000870684906E068490120C1F800903B495A
:1038C0000870664981F800A010F043F8DFF8C09056
:1038D000634899F800200068824255D16149062862
:1038E00008681AD068B12B48017800294ED0317889
:1038F0000029FBD039780029F8D098F80010002969
:10390000F4D03548016836480068014436480068FC
:103910000144DBF800000C180AE278B11D48017878
:10392000E9B13178D9B13978C9B198F80010B1B19D
:103930001D49097899B11D49097881B12648016866
:10394000274800680144284800680144DBF800006B
:1039500001443F48006801443F480068DBE70178C4
:1039600099B9317889B1397879B198F8001061B195
:103970000D49097849B10D49097831B118480068F5
:103980004100194800686FE02DE27AE022E1000072
:103990006538002068390020693900206A39002024
:1039A000743900206B3900206C3900206D390020FB
:1039B000402D2563520000003A3800206038002076
:1039C00054390020129500202D3100002D320000C6
:1039D0002D3300002D34000094380020663800207C
:1039E00098380020673800209C3800206838002074
:1039F000A038002069380020403900202028257593
:103A00003A25752920256C642C2025642E2E2564EA
:103A10002C25642C25642C25642C25642C25642CF1
:103A200020256C642C20256C642C20256C642C20B3
:103A3000256C64202000000070390020206C256473
:103A40003D25642E000000002D3500002D360000BD
:103A5000A43800206A380020A83800206B380020E5
:103A600004010020283900200144DBF80000014453
:103A7000EB4800680144EB480068BCE081F800A016
:103A800056E1017811B3317801BB3978F1B198F87A
:103A90000010D9B1E4490978C1B1E4490978A9B164
:103AA000E34800684100E34800680144DBF8000097
:103AB0000144DB4800680144DA480068AEE0087859
:103AC000401CC0B208700228D8D231E10178E1B1BF
:103AD0003178D1B13978C1B998F80010A9B1D2497B
:103AE000097891B1D149097879B1D1480168D248B2
:103AF00000680144DBF8000001440144C848006844
:103B00000144C84800680C1810E10178E1B131782F
:103B1000D1B13978C1B198F80010A9B9C249097872
:103B200091B1C249097879B1C1480168C2480068B9
:103B30000144C048006801440144B9480068014498
:103B4000B84800680C1893E00178E9B13178D9B130
:103B50003978C9B198F80010B1B1B349097899B969
:103B6000B249097881B1B2480168B348006801449C
:103B7000B04800680144DBF800000144A94800682F
:103B800001440C18AD499AE70078002872D03078CB
:103B90000028FBD038780028F8D098F800000028DA
:103BA00068D0A1480078002864D0A0480078002898
:103BB00060D19F480168A048006801449D480068A2
:103BC0000144DBF8000001449548006801440C18EA
:103BD0009B4974E7017881B9317871B1397861B165
:103BE00098F8001049B1934801689348006801EBC8
:103BF0004001DBF800000C1868E0017881B13178F1
:103C000071B9397861B198F8001049B189480168F3
:103C10008748006801EB4001DBF800000C1877E0F2
:103C2000017881B1317871B1397861B998F80010B3
:103C300049B17F480168804800680144DBF8000012
:103C400001EB400472E0017831B1317821B139786B
:103C500011B198F8001011B1017861B114E0744805
:103C600001687548006801447248006801EB40042F
:103C7000744924E789E0317831B9397821B198F86D
:103C8000001009B16B4809E0017859B9317849B1A0
:103C9000397839B998F8001021B167480168DBF824
:103CA000000011E0017831B9317821B1397811B1D2
:103CB00098F8001021B10178A1B1317841B111E03B
:103CC0005D4801685B480068084444005E49F6E6C8
:103CD000397839B998F8001021B155480168DBF8F6
:103CE000000013E0017831B1317821B9397811B190
:103CF00098F8001031B1017879B1317869B139782B
:103D000041B10AE04A4801684A4800680844440052
:103D10004E49D4E698F8001011B1017851B113E082
:103D20004348016844480068084444004849C6E6DE
:103D300001252AE0317839B9397829B998F8001085
:103D400011B1DBF8000066E0017831B9317821B1BA
:103D5000397811B998F8001011B1017811B108E063
:103D6000354857E0317821B9397811B198F8001009
:103D700021B1007848B1307810B106E02D4849E013
:103D8000387810B998F80000F0B33248006850B3A2
:103D90002448DBF800C00368214801682548006812
:103DA000CDE90A0C2448CDE90C13036820480168CA
:103DB0001E4890F800C01C480078CDE9060CCDE9FB
:103DC000081398F800103B7836782348007803965B
:103DD0000094CDE901502148CDE904310378204910
:103DE0000EA811F08DF999F800001E4A401CC0B2CF
:103DF00089F800001268904202DD012089F8000075
:103E00005DB10120154900E003E00870204635B09F
:103E10008FE40748006884008AE713480068F6E7E3
:103E2000A4380020A83800206C3900206D3900200B
:103E3000943800209C380020983800206A380020F0
:103E40006B38002069380020663800206738002071
:103E5000683800204039002068390020743900207B
:103E6000345A010804010020703900202DE9FF4177
:103E7000984841F27072016891427DD30024046039
:103E80000EF0C7FF94489549DFF8588282790A708E
:103E900093490379944E0B70C17888F800108578A7
:103EA000924F357046783E70914F0078387003908D
:103EB0008DE862008FA19A4811F022F998480FF01E
:103EC00011FB98480068002831D097A167200CF0BA
:103ED00085FE4FF4FA7003F07CFA954D95A1286E9B
:103EE0000090D5E916238E4811F00AF9984E012763
:103EF000307840B9A86D092808D109F015FC95A0C3
:103F00000FF0F0FA3770A86D092800D03470964E83
:103F1000307840B9A86D0F2808D109F005FC8DA0B4
:103F20000FF0E0FA3770A86D0F2800D034708F4E74
:103F300098F800104546306888421DD04FF49670BE
:103F400001F05AFC8AA00FF0CDFA287830608C4836
:103F500004708C4804708C4804708C4804708C4841
:103F60004169816101694161C16801618168C16024
:103F700041688160016800E0A9E04160854D2968E1
:103F8000016085484169816101694161C1680161E0
:103F90008168C16041688160016841607F4E31681D
:103FA00001607F490868401C08607E480168491C20
:103FB00001602C60346004F01EF87B487B49007877
:103FC000097808437A49097808433CD179487A4C02
:103FD000006801283BD02068784C794F01284CD0EC
:103FE00004F013FD23683A6876A14D4811F088F873
:103FF00000214B4A084604F0CAFE04F002FD75A1F8
:1040000047482A6811F07CF8454A0221002004F054
:10401000BEFE74A14248326811F072F8404A042191
:10402000002004F0B4FE04F0F0FC28683168421867
:1040300070A13B4811F064F8394A0621002004F0D1
:10404000A6FE04F0DEFCBDE8FF4109F06DBB04F004
:10405000DCFC20682A6801280DD06AA1304811F0E4
:104060004FF82F4A0621002004F091FE04F0C9FC0D
:1040700005F022F9E7E767A1F0E704F0C6FC236842
:104080003A6868A1264811F03BF80021244A084606
:1040900004F07DFE04F0B5FC66A121482A6811F009
:1040A0002FF81F4A0221002004F071FE65A11C4870
:1040B000326811F025F81A4A0421002004F067FE46
:1040C00004F0A3FC28683168421862A1B1E7BDE89A
:1040D000FF810000FC3700201838002070360020D7
:1040E00071360020723600207336002074360020AE
:1040F00075360020646174653A3230253032782D8F
:10410000253032582D25303258202074696D653A9B
:10411000253032782D253032582D25303258200068
:1041200044880020D000002054494D450000000084
:10413000E0AE00206B77616B776F6E686F3D253066
:1041400032643A253032643A25303264000000008F
:10415000F03600206D6F64656D2072657374617256
:104160007420212121000000F13600203439002084
:1041700044617465206973206368616E67656400DB
:104180005E3600205F360020603600206136002059
:1041900088AE00202C390020A4AE00203839002041
:1041A000303900203C390020D6360020DC36002093
:1041B000D7360020BC000020CC000020FC380020B6
:1041C000F438002053494C4F3A25356C642D253581
:1041D0006C64000046454544313A25356C64206BDB
:1041E0006700000046454544323A25356C64206B33
:1041F00067000000544F4441593A2025356C642033
:104200006B670000544F4441593A2025356C6420B7
:10421000206B6700BFC020B4C33A2025356C6420F2
:10422000206B6700B9ABB0D43A25356C642D2535C9
:104230006C640000B1DEC0CCB7AE313A25356C6499
:10424000206B6700B1DEC0CCB7AE323A25356C6466
:10425000206B6700BFC020B4C33A2025356C6420B2
:104260006B6700002DE9F05FDFF8B4830126DFF80B
:10427000B49398F800000024EB4F002850D005F0CC
:10428000A6FB04F0D0FFE9480168FA2948D9046088
:10429000E7A00FF027F9E9480470E9480078002802
:1042A0003ED1E8490B68E84A1068834238DA934601
:1042B0000A68801A642833DCE44DDFF894A3DFF841
:1042C00094C32A6802442A60DAF800200244CAF83B
:1042D0000020DCF800300344CCF80030DFF878C36D
:1042E000DCF800300344CCF80030DC4BD3F800C0DD
:1042F00060441860D1F800C0CBF800C00968D84B02
:104300001960D8490968814205D821B1DFF858B34E
:104310009BF8000028B13868012840D002284DD011
:1043200066E03868012801D101F03DFA032001F070
:104330003AFA8BF8006004F0A3FF04F0AAFECB4821
:10434000006801281AD00021C9A2084604F01FFD08
:10435000CBA20221002004F01AFDCCA204210020EF
:1043600004F015FDCDA20621002004F010FD04F09C
:104370004CFFCD4888F800400470B3E00021CBA288
:10438000084604F004FDCDA20221002004F0FFFC49
:10439000CEA20421002004F0FAFCD0A2E3E704F04E
:1043A00034FBD2A1D448DAF8002010F0A9FED24A9A
:1043B0000221062004F0EBFC2A680EE0CFA1CE48D3
:1043C00010F09EFECC4A0221082004F0E0FC04F02C
:1043D0001CFB2968D9F800000A18CAA1C64810F0C9
:1043E0008FFEC54A0621002004F0D1FC04F009FB31
:1043F000C848C94D0068F8B1DFF820A39AF800104A
:1044000069B9944A1168884209DC081A2C60106066
:104410008AF80060386801281FD001F087F9286801
:10442000322804D3386801281BD001F092F928689B
:10443000642801D38AF8004098F80010B848C346B1
:1044400039B1DFF864A29AF8001011B10178804602
:1044500059B10078012859D05AE0042001F096F9AA
:10446000DDE7042001F09FF9E1E7386801284FD12A
:10447000AC4800683C3803284AD8AB48016871480A
:104480000068091AA9480068814241DA00283FD033
:10449000012001F088F9032001F085F988F8006017
:1044A00004F0DFFE04F0F5FD7048006801281CD020
:1044B00000219FA2084604F06AFC71A2022100209C
:1044C00004F065FC71A20421002004F060FC73A2DA
:1044D0000621002004F05BFC04F097FE8BF80040FE
:1044E0008AF800400120BDE8F09F002194A2084610
:1044F00004F04DFC71A20221002004F048FC73A2DC
:104500000421002004F043FC74A2E1E704F0A9FEBA
:1045100055480078012801D104F0B2FE8C4800789B
:10452000002873D03868022870D105F050FA04F0E2
:1045300089FE8849DFF824A20878401C0870864864
:104540000168FA293ED9864A04601168DFF81482AE
:10455000854BD8F80000814218DA1168401A6428A7
:1045600014DCD9F800100144C9F80010DAF8001082
:104570000144CAF800101968084418601068C8F8A7
:1045800000001068794908602C4804705BA15A4803
:104590001A6810F0B5FD584A0421082004F0F7FB12
:1045A00004F033FA29480168D9F800000A1855A127
:1045B000514810F0A5FD504A0621002004F0E7FB09
:1045C00004F01FFA5348006800B3DFF8A48198F89C
:1045D000001071B9DAF8001088420ADC081A2C6061
:1045E000CAF8000088F800603868012810D001F08F
:1045F000A2F82868322809D3386801280CD001F0C5
:10460000ADF82868642801D388F8004000206AE7E4
:10461000042001F0BBF8ECE7042001F0C4F8F0E757
:104620009038002038390020BC000020F4370020EA
:10463000696E74657276616C20210000BC360020C2
:104640006C360020F4380020783600202C39002009
:10465000F0000020CC360020E03600209436002008
:10466000B836002018390020D7360020CC000020B2
:1046700020484947482052454C45415345000000D9
:104680004552524F5220212100000000434845432B
:104690004B20202052454C45415345004D4F544F2F
:1046A000522021210000000066360020BBF3C7D154
:1046B000B9E8C3E220BFA1B7AF210000BBE7B7E173
:1046C0002CB9E8C3E2B8F0C5CD000000C1A1B0CB61
:1046D000C8C420C0FCBFF8C0BB000000B4D9BDC333
:1046E00020C4D1C1D6BCBCBFE42100002025356C5C
:1046F00064206B67200000004488002025356C642E
:1047000000000000BFC020B4C33A2025356C6420EF
:104710006B67200010390020EC370020D4360020D1
:10472000D636002090360020843600201439002030
:10473000204C4F572052454C454153450000000046
:10474000C7CFC7D1B9E8C3E220BFA1B7AF210000EE
:1047500091380020C4360020F8370020D0360020E1
:10476000FC3800207C360020F4000020C0360020F9
:10477000D53600202DE9F047934F0024934E38782A
:10478000934DDFF850924FF0010A002879D09248FB
:10479000047004F03AFD91483C700470904C286815
:1047A000206090480068904FDFF840823860D8F869
:1047B0000010081A8E490028086007DD31680422BD
:1047C00001440020316003F068F83060894E042213
:1047D0009C20316803F061F83060642002F0FDFD38
:1047E000854E0422C420316803F057F830606420FD
:1047F00002F0F3FD206843F6982188423DDA7FA05D
:104800000EF070FE04224420216803F046F8286070
:10481000642002F0E2FD86480068012802D00228E8
:1048200017D027E083482A68006801280FD082A1AA
:10483000854810F065FC04F0E8F8834A0621002062
:1048400004F0A5FA40F6B83002F0C7FD10E07FA1F1
:10485000EEE704F0DAF82968D9F800000A187FA119
:10486000794810F04DFC784A0621002004F08FFAB8
:1048700004F0C7F87DA00EF035FE894981F800A04C
:1048800000E034E087A17048226810F039FC6E48DF
:104890000EF028FE88A16C483A6810F031FC6A4896
:1048A0000EF020FE89A16848D8F8002010F028FCFE
:1048B00065480EF017FE8A4802688AA1624810F027
:1048C0001FFC61480EF00EFE8B488CA102685E480A
:1048D00010F016FC5C480EF005FE8DA15A482A68BF
:1048E00010F00EFCBDE8F04757480EF0FBBD8D4FB1
:1048F0003878002866D08C48047004F081FC8B481E
:104900003C7004708A4800688A4F8B493860096897
:10491000081A8A490028086007DD3168042201442A
:104920000020316002F0B9FF3060854ED9F80010E8
:1049300042F228304C463160814217D20422E820EE
:1049400002F0ABFF2060C82002F047FD04F05DF8E4
:1049500028682168421841A13B4810F0D1FB3A4A2F
:104960000621002004F013FA04F04BF84DA136485C
:10497000326810F0C5FB34480EF0B4FD714932487E
:1049800081F800A070A13A6810F0BAFB2E480EF032
:10499000A9FD6DA12C48226810F0B2FB2A480EF048
:1049A000A1FD642002F019FD04F02AFCC82002F0E9
:1049B00014FD04F002FCC82002F00FFDBDE8F04732
:1049C00004F01EBCBDE8F08768360020D800002047
:1049D0002C3900203839002090380020643600201F
:1049E00000370020F4380020FC36002098360020E4
:1049F000E8360020F0000020F400002073696C6F9E
:104A0000312063757272656E742066656564696EC7
:104A100067207175616E7469747920656570726F55
:104A20006D207361766520737461727420210000BB
:104A3000BC000020CC000020544F4441593A2025AE
:104A4000356C64206B67000044880020BFC020B430
:104A5000C33A2025356C64206B672000BFC020B4AA
:104A6000C33A2025356C64206B67000073696C6F56
:104A7000312063757272656E742066656564696E57
:104A800067207175616E7469747920656570726FE5
:104A90006D207361766520656E6420210000000042
:104AA000B4360020546F646179546F74616C726520
:104AB000663D25366C75200053746F705F576569CD
:104AC000676874203A202564000000005374617206
:104AD000745F576569676874203A20256400000098
:104AE000F838002067786C47726F73735765696791
:104AF0006874203A202564009C360020546F64615D
:104B000079546F74616C726566203A2025640000E8
:104B1000676E6C4461696C79546F74616C203A20E3
:104B2000256400006B360020913800206536002097
:104B3000FC38002004370020A0360020EC3600208E
:104B400008370020B5360020256C64002DE9F047B9
:104B5000DFF8CC90802148460FF099FF334F0124B5
:104B600000250028DFF8BC802F49314E387804D06A
:104B700050B3086801281CD01DE028BB2D482E4AE0
:104B80000078127810431FD12C4802782C480AB1C3
:104B9000047000E005703C7088F800500868012837
:104BA00001D100F0C3FD27A00EF09CFC0120BDE860
:104BB000F08700F0CEFD2949307808703D7088F804
:104BC000004027A00EF08EFC4FF4807148460FF095
:104BD0005EFF29490028274A08780AD038B1274BB8
:104BE000307818700D70147025A00EF07BFC00203A
:104BF000DDE70028FBD12848284B00781B781843B4
:104C0000F5D12748037827480BB1047000E0057000
:104C10000C70157024A00EF065FC0220C7E70000A0
:104C20000010014068360020BC00002066360020DD
:104C30000C390020D6360020D73600206C360020F4
:104C4000E4360020464952535420444952454354C7
:104C50002053544152540D0A0000000067360020D2
:104C60004649525354204449524543542053544FCB
:104C7000500D0A006B360020693600206A3600208D
:104C80005345434F4E4420444952454354205354C6
:104C90004F500D0A00000000DC360020DD360020F9
:104CA0006D360020E53600205345434F4E442044E6
:104CB00049524543542053544152540D0A000000B8
:104CC000F8B536480068002867D0354E354D0EF0EF
:104CD000F5FD0446401C0ED0E0B20EF0F1FB286852
:104CE0003454401C28600A2CF1D1002434542C4840
:104CF0000EF0FAFD2C6008F006FD411C45D02A4A52
:104D00000121116029492A4B096861B3294F022109
:104D10007C253970284A7D700024111991F83810CB
:104D200009B13E19B170641C0B2CF6DB3919E41C77
:104D30008D70002503EB002603E0705D29196D1CC2
:104D4000785430460FF014F9A842F6D81B48009664
:104D50001CA103681A480268274810F0D1F92648B8
:104D60000EF0C0FB06E003EB0022921C23A11148C9
:104D700010F0C6F90F480FF0FBF82549086025A090
:104D80000EF0B0FB0B480EF0ADFB26480078002873
:104D900003D0BDE8F84007F0C9BFF8BDD00000203F
:104DA000E0890020C836002078000020503900201B
:104DB0001641002016400020E0AE002088000020B0
:104DC0008400002043646D6153656E6451756575A0
:104DD000655F71686561643D25642C2043646D6185
:104DE00053656E6451756575655F717461696C3D7D
:104DF00025642C2025730000B788002041542B55D2
:104E00004E49434153543D303030302C257300001F
:104E1000740000203A3A3A3A3A3A3A3A3A3A3A3A46
:104E200000000000D43800202DE9F04F9BB000288E
:104E30007FD0014619A80FF0A2F8A248A249A44BBE
:104E40000468A248012CA34A8C6994FBF0F572D047
:104E500000FB154404944C6994FBF0F500FB1547E6
:104E60000C6994FBF0F500FB1546CC6894FBF0F55B
:104E700000FB154400948C6894FBF0F500FB15448E
:104E800001944C6894FBF0F500FB154E0C681B6810
:104E900094FBF0F500FB154593FBF0F400FB143494
:104EA00003949469D1F818C0644494FBF0FC00FBAF
:104EB0001C4402945469D1F814C0644494FBF0FC7F
:104EC00000FB1C4B1469D1F810C0644494FBF0FC47
:104ED00000FB1C4AD468D1F80CC0644494FBF0FC7D
:104EE00000FB1C499468D1F808C0644494FBF0FCB2
:104EF00000FB1C4C5468D1F804801268444494FBB5
:104F0000F0F800FB18440968114491FBF0F200FB33
:104F10001211714A12681A4492FBF0F300FB13223B
:104F20006E4803230078002871D057208CE000E001
:104F300001E06BA17EE700FB15464C6994FBF0F5A0
:104F400000FB15450C6994FBF0F700FB1744009437
:104F5000CC6894FBF0F700FB174401948C6894FB39
:104F6000F0F700FB17444F6897FBF0FC00FB1C7741
:104F70000297096891FBF0F700FB1719196891FB7C
:104F8000F0F300FB131B916991FBF0F300FB13138B
:104F9000516991FBF0F700FB1711176997FBF0FCC3
:104FA00000FB1C770397D76897FBF0FC00FB1C7A8B
:104FB000976897FBF0FC00FB1C7E5768126897FB14
:104FC000F0FC00FB1C7792FBF0FC00FB1C2C424A1F
:104FD000126892FBF0F800FB182240484FF00308DB
:104FE000007808B1572000E04E20CDE91660CDF8DA
:104FF000608015959DE86100CDE913503A48CDE9F0
:10500000116406683948007810B1572001E01AE0B1
:105010004E200DACCDF84090A4E8410803980AACAE
:10502000CDF824A00BC4CDE9052C3148CDE9077E8D
:1050300002683048016830A319A8CDE90103CDE921
:1050400003122E4831E04E20DDF81080CDE9170321
:10505000CDE91578DDE90003CDE912302248CDF81D
:1050600044E01496039B06682048007808B1572056
:1050700000E04E20CDE90D06CDE90F3502980592EE
:10508000CDE90BB006AF1A48A7E81210CDE9099A8E
:1050900000681B490968084416490A68CDE90320DD
:1050A00015A319A9CDE90113144802221649006875
:1050B000009014480368154810F022F81BB0BDE8B2
:1050C000F08F0000BC000020A4AE0020A0860100EC
:1050D0003839002088AE00202C390020913800207B
:1050E00042432D4E0000000000390020903800207F
:1050F000F4380020AC380020342E3000483900202D
:10510000FC38002044390020785A0108B788002074
:1051100070B52D4E2D4C0025307848B12CA00EF0E6
:105120009AFA35702FA101200CF038F82DA011E06B
:105130002E480078B8B12E4E3068002827D12DA017
:105140000EF089FA4EF66020306030A101200CF09C
:1051500025F82EA0FFF768FE206800282FDD2D48D7
:105160000EF079FA13E02C4E307880B12BA00EF0BF
:1051700072FA35702DA0FFF757FE2068002802DD77
:1051800024480EF068FA29A101200CF007F82068E5
:10519000002814DD274C40F2771148432168B1EB19
:1051A000001F0CD324A0FFF73FFE23A101200BF02A
:1051B000F5FF0CF0EEFA17480EF04DFA2560BDE849
:1051C00070400CF0E6BA000064360020D4000020E5
:1051D0004261696368756C20737461727420212167
:1051E0000000000042432D420000000090380020E3
:1051F000A40000204261696368756C206A756E675F
:105200002073656E64696E672021210042432D4A38
:1052100000000000B7880020B436002042616963B6
:1052200068756C20656E64202121000042432D4585
:10523000000000000438002042432D4E0000000012
:105240002DE9F0416C486D490078097808436C49B4
:10525000097808437DD16B486B4F6C4D00686C4CEE
:105260006C4E012852D0022873D104F0B0FB05F037
:10527000E0F804F0ACFB05F05FF804F0A8FB03F0E5
:10528000C4FB65492A78654D097842F2AC60002A72
:1052900073D00029216871D0814200DD2060296827
:1052A000814200DD28602B6822685DA15F480FF015
:1052B00027FF5E4A0021052003F069FD03F0A1FBF2
:1052C0002068B04202DC2868B04242DD03F0E1FE13
:1052D000386801287DD0002155A2084603F057FD0B
:1052E00058A20221002003F052FD59A204210020FF
:1052F00003F04DFD58A20621002003F048FD0320D5
:1053000000F044FA0A2002F068F8FBE704F05FFBC3
:1053100005F08FF82878226808B152A100E054A166
:1053200042480FF0EDFE414A0021052003F02FFD19
:105330002068B04234DD03F0ACFE386801281ED08E
:1053400000213BA2084603F022FD02213DA20020DD
:1053500000E04FE003F01BFD3DA20421002003F01C
:1053600016FD3DA20621002003F011FD032000F0F0
:105370000DFA0A2002F031F8FBE71DE014E00021ED
:105380003EA2084603F003FD40A20221002003F0E4
:10539000FEFC43A20421002003F0F9FC43A2E1E754
:1053A000BDE8F04104F013BB814200DD20602B68B2
:1053B000226842A17AE70CE039B12968814200DD18
:1053C00028602B68226840A170E72B68226841A101
:1053D0006CE7002129A2084603F0D9FC2BA2022188
:1053E000002003F0D4FC2EA20421002003F0CFFC07
:1053F0002EA280E7BDE8F081D6360020DC36002002
:10540000D7360020BC000020CC0000206C360020E5
:10541000F43800209F8601006D360020FC38002003
:105420002D25346C642F2D25346C640044880020B5
:105430004C4F41442043454C4C204552524F522141
:1054400000000000504F574552204F464620210093
:10545000434845434B0000004C4F41442043454CDA
:105460004C2021003A2D25356C64206B672000000C
:105470003A2025356C64206B67200000B9ABB0D4AE
:10548000BCBEBCAD20BFA1B7AF212100C0E5BAF1C1
:1054900020C0FCBFF8C0BB20B2F4B0ED000000009B
:1054A000B9ABB0D4BCBEBCADB8A60000C1A1B0CBF6
:1054B000C7D820C1D6BCBCBFE42100002D25346C68
:1054C000642F25356C64000025356C642F2D253440
:1054D0006C64000025356C642F25356C6400000079
:1054E000F0B51948174C1A4D0378184827681B4E19
:1054F00002781848642F01781748007815D30027E0
:105500002760174C27687F1C2760164C27687F1C74
:10551000276023B11AB12C780CB1641E2C7021B114
:1055200018B134780CB1641E347013B10AB12A7802
:105530002AB111B108B1307808B10020F0BD0120C6
:10554000F0BD0000003800209038002068360020B0
:1055500067360020913800206B3600206A36002024
:1055600090360020D83600202DE9FF41354E3068B6
:1055700000284BD00DF04DFC3348344A354C81792E
:105580001170334A0179374D1170C378324A237054
:1055900081781170314A4178117031490078087072
:1055A00031A13A482A680FF0ABFD38480DF09AFF58
:1055B0003748DFF8E0800027006848B3364901200B
:1055C000376008603549086035480068A8B135483B
:1055D000066835480368354802683548416D8DE8EE
:1055E0004E00D0E9132333A13C480FF089FD3B481E
:1055F0000EF09DF839480DF075FFD8F8000000282E
:1056000004D0401EC8F8000020782860BDE8FF8163
:1056100004F0DDF932A037600DF064FFD8F8000027
:105620000028F3D0401EC8F80000227831A11346AC
:1056300016482A600FF064FD04B01448BDE8F0413C
:105640000DF050BFBC380020183800207036002004
:105650007136002072360020733600207436002028
:105660007536002034390020203A206769546F6471
:1056700061793D25303278202020313338315F4444
:105680004154413D2530325800000000448800203C
:10569000D0000020F4360020D0380020B0380020A0
:1056A000503900208C3900208839002084390020AE
:1056B000E0AE002041542B42433D24444154453D3B
:1056C000253034642530326425303264253032642C
:1056D000253032642530326440000000B788002055
:1056E0004F6E65206D696E75746520726F746169A7
:1056F0006F6E00004F6E655F6D696E757465732027
:10570000726F746174696F6E203A206769546F64B8
:1057100061793D25303278202020313338315F44A3
:105720004154413D25303258000000004FF40061E3
:1057300066480FF0BFB94FF4805164480FF0BAB912
:105740004FF4005161480FF0B5B9102160480FF0D7
:10575000B1B94FF400615D480FF0AAB94FF4805120
:105760005A480FF0A5B94FF4005158480FF0A0B9AE
:10577000102157480FF09CB910B5FFF7EAFFFFF76B
:10578000EDFFFFF7F0FFBDE81040F1E7012806D07C
:10579000022805D0032804D0042803D1D5E7C5E7A3
:1057A000C9E7CDE77047012806D0022805D00328B5
:1057B00004D0042803D1DBE7CBE7CFE7D3E770477A
:1057C0004FF4805143480FF073B908B54FF480503F
:1057D000ADF8000003208DF8020010208DF80300C2
:1057E00069463C480FF0DCF8FFF7EAFF08BD4FF4CC
:1057F000805138480FF05EB910B50446FFF7F7FF47
:10580000204601F0EAFDBDE81040D9E710B50024BC
:105810001420FFF7F1FF052001F0DFFD641C072CC9
:10582000F6DB10BD20212A480FF044B9FAE7022127
:1058300026480FF03FB9022124480FF039B9202142
:1058400023480FF035B910B5202121480FF030F969
:10585000BDE81040F3E74FF400711D480FF02AB97E
:10586000F9E74FF400711A480FF022B9F9E77047D1
:105870007047042115480FF01BB9042113480FF09D
:1058800019B9082111480FF013B908210F480FF07A
:1058900011B9E6E7DFE74FF480710D480FF00AB960
:1058A0004FF480710A480FF003B9042107480FF044
:1058B000FFB8042105480FF0FDB8082103480FF098
:1058C000F7B8082101480FF0F5B8000000140140B6
:1058D000000C0140001001402DE9F04F002489B078
:1058E000A04603F0D6FBDFF8FC93D9F800000128AE
:1058F00015D00021FCA2084603F049FA03F085F810
:10590000FDA20621002003F042FA03F07AF8FD4FD1
:10591000FD4E4FF000053878012809D014E0002131
:10592000FAA2084603F033FA03F06FF8FBA2E8E7A7
:10593000FDF777FC0EF000FD0EF014FD6D1CEDB2CE
:1059400030600A2DF4D30AE0FDF7C7FD0EF0F4FC39
:105950000EF008FD6D1CEDB23060642DF4D3F24DF5
:10596000686928640EF0E8FC696C0EF085FB0EF0A7
:10597000F9FCA863EDA1684632680FF0C1FB6846E8
:105980000DF0B0FDEDA168462A6C0FF0B9FB68463A
:105990000DF0A8FDEDA16846AA6B0FF0B1FB6846BB
:1059A0000DF0A0FD686C0EF00AFD02460B46EBA15F
:1059B00068460FF0A5FB68460DF094FDDFF8ACB328
:1059C000BA4602F042FE08B3BBF800005F46012869
:1059D00008D1286C0EF0B0FC696C0EF04DFB0EF097
:1059E000C1FCA8633888022803D0388805280AD06B
:1059F0000CE068690EF0A0FC696C0EF03DFB0EF047
:105A0000B1FCA86302E001246FF064089AF800007A
:105A1000012827D0FDF761FD30600EF084FC696C31
:105A20000EF02AFB0EF09EFCD1490860A96B401ACB
:105A3000296900EB5100B0FBF1F2A8684243D9F8A4
:105A40000000012811D0CBA168460FF059FB6A462F
:105A50000221002003F09BF9002CB2D009B040468F
:105A6000BDE8F08FFDF7DDFBD6E7C6A1ECE72DE939
:105A7000F04788B003F00DFBAB4C206B0EF05CFCE4
:105A80000546E06A0EF058FC29460EF02BFB8046D6
:105A90006169E069401A2062BEA00DF023FDC0A13B
:105AA000684662690FF02CFB68460DF01BFDBFA134
:105AB0006846E2690FF024FB68460DF013FDBEA1B5
:105AC0006846226A0FF01CFB68460DF00BFD40464D
:105AD0000EF075FC8946064632464B46B9A168462B
:105AE0000FF00EFB68460DF0FDFCA06A0EF024FCE2
:105AF00041460EF0F7FA0EF04EFC05460246B4A100
:105B000068460FF0FDFA68460DF0ECFC60690EF097
:105B100013FC0746206A0EF00FFC41460EF0ACFA6B
:105B200039460EF051FA0EF036FC0246ACA168463A
:105B30000FF0E6FA68460DF0D5FC4146AC480EF091
:105B4000D1FA82460EF03BFC02460B46A9A16846FC
:105B50000FF0D6FA68460DF0C5FCA94AA9A168461F
:105B60000FF0CEFA68460DF0BDFC206A6FF0C10759
:105B7000A84209D2A7A20121002003F008F940F6AB
:105B8000B83001F02AFC0BE00EF0D6FB014650467F
:105B90000EF044FC08D2A3A20221002003F0F7F883
:105BA000384608B0BDE8F08783A16846226A0FF046
:105BB000A7FA68460DF096FCA0A16846A26A0FF00D
:105BC0009FFA68460DF08EFC32464B467DA1684632
:105BD0000FF096FA68460DF085FC206A0EF0ACFBDB
:105BE00041460EF049FA0546A06A0EF0A5FB29468B
:105BF0000EF078FA60640EF0E2FB02460B4657A105
:105C000068460FF07DFA68460DF06CFC60690EF096
:105C100093FB616C0EF030FA0EF0A4FBA0633148E8
:105C20000068022802D0012802D006E088A200E025
:105C30008BA20221002003F0AAF84FF4FA64204658
:105C400001F0CBFB204601F0C8FB6FF06400A8E731
:105C50002DE9F04F0446874899B00026D0F800900F
:105C600003F017FADFF810821E4F2F4DD8F800000E
:105C7000012818D002F0C5FE386801282ED06879B6
:105C8000002C2CD001282BD07CA20021084603F048
:105C90007EF802F0B6FE7DA168462A6B0FF030FA5E
:105CA0006A46022146E13868012803D0002C18D04A
:105CB0007AA2EAE78CB102F0A8FE00217AA2084697
:105CC00003F065F802F09DFE7AA168462A6B0FF09A
:105CD00017FA02216A460020F4E0FBE006E125E124
:105CE0003DE101E1CC00002043555252454E542085
:105CF0005745494748540000454E5445523A4E4591
:105D000058540000000000205C390020C7F6C0E7AE
:105D1000B9ABB0D4C8AEC0CE00000000C8AEC0CE93
:105D2000C5B03AB4D9C0BD00040000207261775FED
:105D300064617461203A202566000000765F61642A
:105D400063315F6F7267203A20256400765F61647B
:105D5000635F6F7267203A2025640000676E6646B5
:105D60006163746F72203A202566000010010020E4
:105D7000583900205745494748543A25366C642025
:105D80006B670000B9ABB0D43A25366C64206B6702
:105D900000000000313233343536373839300000F6
:105DA000565F5A45524F3D256C640000565F46557C
:105DB0004C4C3D256C640000565F5350414E3D25D0
:105DC0006C640000726174696F3D2566000000001C
:105DD0006C6F775F6C696D6974203A2025640000F0
:105DE000686967685F6C696D6974203A2025640092
:105DF0000024744B6572723235203A20256600000B
:105E00000024F40046554C4C5F4C494D4954203A0F
:105E1000202564004552524F522032342021212146
:105E2000000000004552524F52203235203A205394
:105E300050414E204849474800000000765F695FA6
:105E40007265736F6C7574696F6E203A20256400FB
:105E50002020535543434553532021212000000067
:105E600020B9ABB0D4C1B6C1A420BCBAB0F82121CE
:105E70000000000008390020BC00002020535041E1
:105E80004E2043414C283229000000002055504C40
:105E90004F41442025356C64206B670020535041EE
:105EA0004E2043414C0000002020BDBAC6C7C1B6F9
:105EB000C1A4000025356C64206B67BFC3B8AEBCBD
:105EC000BCBFE40002F063FF02F09FFD02F09DFD05
:105ED000F5A235E002F099FD0021F6A2084602F095
:105EE00056FF02F08EFDF1E7F5A2CEE668798CB19F
:105EF000012819D0F5A20021084602F048FF02F05F
:105F000080FDAFF2500168462A6B0FF0F9F86A463F
:105F1000022103E0012805D0EFA20021002002F0B9
:105F200036FFD3E7F0A2F8E7F3A2E4E7012814D0A4
:105F3000F4A20021002002F02AFF02F066FDF5A283
:105F40000621002002F023FF02F05BFDD8F80000DC
:105F5000DFF8D0A3012804D016E0F3A2E9E7F6A207
:105F600093E69AF800004FF00004012806D1FDF7EF
:105F700058F9641CE4B2142CF9D305E0FDF7ADFA2E
:105F8000641CE4B2142CF9D3B846AB4657469BF8D0
:105F900005005D460128387823D0012832D0FDF76E
:105FA000BFFA0446D8F80000224601282DD0E6A109
:105FB00068460FF0A5F86A460421002002F0E7FECB
:105FC00002F043FB28B1E348008805281FD0FFF703
:105FD0001DFC002EDBD0E0492046C1F8009019B02E
:105FE0003EE5012809D0FDF778FA0446D8F800000C
:105FF0002246012804D0D9A1DAE7FDF712F9F4E727
:10600000D9A1D5E7FDF760F9CBE7DBA1D0E7687947
:10601000012600240128387803D00128254612D013
:1060200018E001284FF0000506D1FDF7FAF86D1CC5
:106030000444322DF9DB13E0FDF74FFA6D1C0444E4
:10604000322DF9DB0CE0FDF73FF96D1C0444322DD5
:10605000F9DB05E0FDF764FA6D1C0444322DF9DB31
:10606000322094FBF0F4B4E72DE9F04F4FF0000933
:106070008BB04D464C4602F041FC03F00AF8DFF8C5
:10608000088398F8050001287ED0D8F83460BF480E
:106090004FF00A0A96FBF0F100FB116142F210701A
:1060A00091FBF0F1ADF8201096FBF0F100FB1161CF
:1060B0004FF47A7091FBF0F1ADF8221096FBF0F1FD
:1060C00000FB1161642091FBF0F1ADF8241096FB08
:1060D000F0F100FB1161504691FBF0F1ADF8261094
:1060E00096FBFAF10AFB1160ADF8280002F08DFC76
:1060F000A748A84F00680128386856D0012898F8AA
:1061000005005ED0012872D0A3A20021084602F04B
:106110003EFE3246A4A168460EF0F2FF6A46042114
:10612000002002F034FEAFF230420621002002F0DF
:106130002EFE02F066FC40F6C41B08AEBDF920102E
:1061400042F210704143BDF922006D1C00EB400289
:10615000C2EBC01001EBC001BDF924005D4500EBAE
:10616000C00202EB001001EB8001BDF9260000EB3C
:10617000800001EB4000BDF9281000EB01083AD186
:1061800038684246012800E00CE032D086A168461B
:106190000EF0B6FF6A460421002002F0F8FD02F07E
:1061A00034FC3CE0D8F82C6071E7012801D083A2D0
:1061B000ABE7002185A2084602F0E9FD324687A13F
:1061C00008E0012811D08AA20021084602F0DFFD74
:1061D00032468BA168460EF093FF6A4604210020E8
:1061E00002F0D5FD8BA2A0E701E08EA2ECE791A220
:1061F0008BE77AA1CBE741F2883085421DDD00258F
:1062000002F0FFFB38684246012824D066A16846A8
:106210000EF076FF6A460421002002F0B8FDC4F1BA
:10622000040088A136F9102068460EF069FFC4F119
:106230000C006A46042102F0AAFD02F006FA18B327
:1062400044480088012808D0022813D004281CD014
:10625000052821D124E061A1D9E7C4F1040036F872
:106260001010491C09B291FBFAF326F810100AFB32
:10627000131107E0C4F1040036F9101009B1491EEA
:1062800000E0092126F8101006E0641CA0B20521E8
:10629000B0FBF1F201FB1204B9F1000F3FF44EAF75
:1062A0000BB04046BDE8F08F20C8AEC0CE203ABD4E
:1062B000C3C0DB002020BFB5C1A1C1B6C1A400008E
:1062C000205A45524F2043414C000000BDBAC6C77A
:1062D000C1B6C1A42832290020BFB5C1A1C1B6C131
:1062E000A42832290000000020BFB5C1A1C1B6C159
:1062F000A428312900000000BDBAC6C7C1B6C1A498
:1063000028312900205A45524F2043414C28322938
:106310000000000020454E5445523A535441525417
:106320000000000000000020205A45524F20434149
:106330004C28312900000000205350414E20434199
:106340004C283129000000004144432832293A25D5
:10635000376C640010010020083900204144433AA2
:1063600025376C640000000020C3E2B7C2B0AA3A2F
:1063700025376C6400000000C3E2B7C22832293A16
:1063800025376C640000000004000020A086010096
:10639000BC000020CC000020204C4F414420574539
:1063A0004947485428322900574549474854203A1C
:1063B0002530356C64206B6700000000204C4F4195
:1063C00044205745494748540000000020BFC3B847
:1063D000B1B9ABB0D420BCB3C1A4000020B9ABB0FC
:1063E000D4B0AA3A2530356C64206B6700000000F9
:1063F00020BFC3B8B1B9ABB0D42832290000000027
:1064000020B9ABB0D4B0AA203A2530356C64206BEB
:106410006700000020C8AEC0CEC5B03AB4D9C0BD38
:106420000000000020BFC3B8B1B9ABB0D4283129F7
:1064300000000000204C4F41442057454947485434
:1064400028312900253164002DE9F047002792B05A
:1064500006463C4602F01DFE02F0D7FAF9480068F5
:10646000012867D0F8A20021084602F090FC02F053
:10647000C8FAFA484FF00A0896FBF0F100FB1161E8
:1064800042F2107091FBF0F1ADF8341096FBF0F190
:1064900000FB11614FF47A7091FBF0F1ADF836100A
:1064A00096FBF0F100FB1161642091FBF0F1ADF877
:1064B000381096FBF0F100FB1161404691FBF0F1C2
:1064C000ADF83A1096FBF8F108FB1160ADF83C000E
:1064D00040F6B83A0DAEBDF9341042F210704143A7
:1064E000BDF936006D1C00EB4002C2EBC01001EBA1
:1064F000C001BDF93800554500EBC00202EB0010A9
:1065000001EB8001BDF93A0000EB800001EB400097
:10651000BDF93C1000EB01090ED14A46D0A16846F6
:106520000EF0EEFD6A460421002002F030FC02F07D
:106530006CFA12E0CFA296E741F2707085421BDD43
:10654000002502F05EFA4A46C5A168460EF0D8FD65
:106550006A460421002002F01AFCC4F1040036F956
:106560001020AFF2201168460EF0CAFDC4F10C00F5
:106570006A46042102F00BFC02F067F808B3C24837
:106580000088012806D0022811D004281AD0052836
:106590001FD121E0C4F1040036F81010491C09B2E3
:1065A00091FBF8F326F8101008FB131107E0C4F173
:1065B000040036F9101009B1491E00E0092126F83F
:1065C000101006E0641CA0B20521B0FBF1F201FB43
:1065D0001204002F3FF47FAF12B04846BDE8F087A9
:1065E0002DE9F041A0B000261822A84919A80DF005
:1065F0008FFC002702F009FADFF84882A448A54C76
:10660000D8F800100068012904D001280CD0022815
:1066100009D00EE0012802D0022802D009E09EA293
:1066200003E06079FBE760799FA20021084602F051
:10663000AEFB02F0E6F9607919AD01284FF00000D9
:1066400005D0E16855F820208A420AD00DE0A16803
:1066500055F820208A4204D0401CC0B20628F7D347
:1066600007E0062805D244B204E0401CC0B2062868
:10667000E8D30024D8F8000055F82420012822D0BF
:106680008DA168460EF03CFD6A460221002002F012
:106690007EFB8CA20421002002F079FB02F0B5F908
:1066A0008CA20621002002F072FB02F0AAF901F090
:1066B000CCFFE0B374480088012816D002281CD013
:1066C000052825D121E087A168460EF019FD6A460C
:1066D0000221002002F05BFB85A20421002002F0D1
:1066E00056FB02F092F986A2DBE7641C64B2052C2B
:1066F0000EDD0524FFF78AF80AE0641E64B2002C60
:1067000006DAFFF783F8002402E055F8247001262A
:10671000D8F8000055F8242001280ED066A168465C
:106720000EF0EEFC6A460221002002F030FB002E43
:10673000BDD020B03846BDE8F0816AA1EFE710B5C2
:106740008EB002F0DBF802F0A4FC3E48006801289D
:1067500046D06FA20021084602F019FB4FF47A7070
:1067600000F03BFEFFF73CFF4A4CA060E06AFFF7F9
:106770006BFE0A222261E06269A168460EF0C0FC4D
:1067800068460CF0AFFEA168E06AB0FBF1F26BA1C5
:10679000684662620EF0B4FC68460CF0A3FE626AC2
:1067A00020694243AFF66C116846A2620EF0A8FC65
:1067B00068460CF097FE0020FFF74AFA6061FFF789
:1067C00053FC206302F01DF90120FFF741FAE0615C
:1067D000FFF74DF9FFF780F801F030FB0EB010BD68
:1067E0005BA2B7E72DE9F04F002489B0A04602F084
:1067F00050FC14480068012817D0AFF6143200216D
:10680000084602F0C4FA02F000F9AFF6143206218D
:10681000002002F0BCFA02F0F4F8514F514E4FF054
:106820000005387801280BD0AAE0AFF6203200210D
:10683000084602F0ACFA02F0E8F8AFF62032E6E7DC
:1068400092E00000CC000020202043415041434909
:10685000545920202020202000000000A0860100A4
:1068600056414C5545203A202530356C6420202077
:106870000000000020C3D6B4EBB9ABB0D420BCB349
:10688000C1A420200000000010010020FC5A0108D3
:10689000BC0000200400002020C7D1B4ABC0C7B0AA
:1068A000AA20BCB3C1A40000202044495649494F46
:1068B0004E20534554200000204449563A25326466
:1068C000206B67002055502D444F574E3A53454C8E
:1068D0004543540020454E5445523A204E455854A5
:1068E0000000000020B0AA3A253264206B67000047
:1068F000C0A72CBEC6B7A1C5B03A20BCB1C5C30065
:1069000020C8AEC0CEC5B03A2020B4D9C0BD00006A
:1069100020202043414C20204D4F444520200000A2
:10692000765F65695F6D756C7469706C795F6661BF
:1069300063746F72203A202564000000765F655F03
:106940007265736F6C7574696F6E203A20256400F0
:106950002020B9ABB0D4C1B6C1A4202000000000F3
:10696000000000205C390020FCF7AEFC0DF0E4FCD8
:106970000DF0F8FC6D1CEDB23060642DF4D30AE02C
:10698000FCF7CEFD0DF0D8FC0DF0ECFC6D1CEDB26B
:106990003060642DF4D3FB4DA86928640DF0CCFC65
:1069A000A96C0DF069FB0DF0DDFCA863AFF6844126
:1069B000684632680EF0A4FB68460CF093FDAFF613
:1069C000844168462A6C0EF09BFB68460CF08AFDF9
:1069D000AFF688416846AA6B0EF092FB68460CF051
:1069E00081FDA86C0DF0EBFC02460B46E6A1684663
:1069F0000EF086FB68460CF075FDDFF8A0A3B946E3
:106A0000DFF89CB301F021FE08B3BAF80000574646
:106A1000012808D1286C0DF08FFCA96C0DF02CFB1F
:106A20000DF0A0FCA8633888022803D03888052818
:106A30000AD00CE0A8690DF07FFCA96C0DF01CFBDE
:106A40000DF090FCA86302E001246FF0640899F84F
:106A50000000012822D0FCF763FD30600DF063FCDC
:106A6000A96C0DF009FB0DF07DFCCBF80000A96BC3
:106A7000401A296900EB5100B0FBF1F2E868C9A1A6
:106A8000424368460EF03CFB6A460221002002F0B9
:106A90007EF9002CB6D0404609B003E4FCF714FCA4
:106AA000DBE72DE9F04788B002F0F3FAB54C206B34
:106AB0000DF042FC0546606B0DF03EFC29460DF0E2
:106AC00011FB8046D4E90610401A2062AFF63C5014
:106AD0000CF008FDAFF638516846A2690EF010FBC5
:106AE00068460CF0FFFCAFF63C516846E2690EF0D8
:106AF00007FB68460CF0F6FCAFF644516846226A84
:106B00000EF0FEFA68460CF0EDFC40460DF057FC26
:106B10008946064632464B46AFF6585168460EF057
:106B2000EFFA68460CF0DEFCA06A0DF005FC414669
:106B30000DF0D8FA0DF02FFC05460246AFF6705165
:106B400068460EF0DDFA68460CF0CCFCA0690DF04A
:106B5000F3FB0746206A0DF0EFFB41460DF08CFA7F
:106B600039460DF031FA0DF016FC0246AFF69051A1
:106B700068460EF0C5FA68460CF0B4FC41468C48F5
:106B80000DF0B0FA82460DF01AFC02460B46AFF645
:106B90009C5168460EF0B4FA68460CF0A3FC854A96
:106BA000AFF6A05168460EF0ABFA68460CF09AFCBE
:106BB000206A6FF0C107A84202D27FA2012109E03A
:106BC0000DF0BAFB014650460DF028FC08D2AFF696
:106BD000AC520221002002F0DAF8384608B0FDE499
:106BE000AFF62C616846226A0EF08AFA68460CF00D
:106BF00079FCAFF6B8516846A26A0EF081FA684691
:106C00000CF070FC32464B46AFF6486168460EF019
:106C100077FA68460CF066FC206A0DF08DFB414661
:106C20000DF02AFA0546A06A0DF086FB29460DF004
:106C300059FAA0640DF0C3FB02460B4652A1684608
:106C40000EF05EFA68460CF04DFCA0690DF074FB86
:106C5000A16C0DF011FA0DF085FBE0635CA202213E
:106C6000002002F094F84FF4FA64204600F0B5FBDF
:106C7000204600F0B2FB6FF06400AFE710B58EB0B5
:106C800002F007FA002156A2084602F080F84FF4FD
:106C90007A7000F0A2FB574909200860FFF7A0FCBA
:106CA000384CE060E06AFFF7CFFB0A22AFF2903188
:106CB0002261606368460EF023FA68460CF012FC0D
:106CC000E168606BB0FBF1F2AFF29031684662624E
:106CD0000EF016FA68460CF005FC626A2069424321
:106CE000AFF6A8616846A2620EF00AFA68460CF098
:106CF000F9FB0020FEF7ACFFA061FFF7B5F92063B8
:106D00000120FEF7A5FFE061FFF7CBFEFFF76AFD6C
:106D100001F094F862E52DE9F041AAB00026402286
:106D2000354919A80DF0F4F8002701F0E7FD02F04D
:106D3000B0F901F06AFEDFF8C480D8F8000001283D
:106D400013D02FA20021084602F021F801F059FECD
:106D50000C4919AD487901284FF0000007D0496B64
:106D600055F820208A425BD05EE029A2EAE7C96A92
:106D700055F820208A4253D0401CC0B20E28F7D3C9
:106D800056E0000004000020676E66466163746F81
:106D9000725F32203A2025660000000010010020BA
:106DA0005839002053494C4F5F323A25376C640004
:106DB0000024744B0024F4004552524F52203234C8
:106DC000203A205350414E204C4F572000000000E5
:106DD000202053554343455353202020202020009A
:106DE0002020202043414C20204D4F44452020208E
:106DF0000000000008390020145B0108CC000020CE
:106E00005345542043415041434954590000000028
:106E1000C3D6B4EBB9ABB0D420BCB3C1A40000005E
:106E20000E2805D244B204E0401CC0B20E2897D30D
:106E30000024D8F8000055F82420012825D0D2A13C
:106E400068460EF05DF96A460221002001F09FFFBE
:106E500001F0DBFDAFF294520421002001F097FF16
:106E6000AFF290520621002001F091FF01F0C9FD20
:106E700001F0EBFB00283ED0C6480088012818D05E
:106E800002281ED0052827D123E0C3A168460EF0B2
:106E900037F96A460221002001F079FFAFF2B052C3
:106EA0000421002001F073FF01F0AFFDAFF2B052FA
:106EB000D8E7641C64B20F2C0EDD0F24FEF7A6FC8D
:106EC0000AE0641E64B2002C06DAFEF79FFC002480
:106ED00002E055F824700126D8F8000055F8242067
:106EE00001280DD0A8A168460EF00AF96A460221D1
:106EF000002001F04CFF002EBAD038462AB01AE428
:106F0000A5A1F0E72DE9FE4FDFF898B2DFF89892DF
:106F1000A64EA74C804601254FF0000AA54F402100
:106F200038460CF0CBFA2D2138460CF0C7FA2179FF
:106F3000384630310CF0C2FA522138460CF0BEFA15
:106F40000D2138460CF0BAFA0A2138460CF0B6FA90
:106F50002079401CC0B22071042800D92571C820B6
:106F600000F03BFA9BF8001000297DD092488BF886
:106F700000A05746C0F800A099F801004946312802
:106F800006D0322828D033284AD0342823D16CE0C8
:106F900088788A4A30385043CA7840F271235A437D
:106FA00000EB0212087900EB4003C3EBC01002EBC8
:106FB000C002487900EBC00303EB001002EB800233
:106FC000887999F8071000EB800002EB4000084434
:106FD0003044E06425706BE08878784A303850435C
:106FE000CA7840F271235A4300EB0212087900EB91
:106FF0004003C3EBC01002EBC002487900EBC003B2
:1070000003EB001002EB8002887999F8071000EB7F
:10701000800002EB4000084430442065657047E082
:107020008878664A30385043CA7840F271235A4310
:1070300000EB0212087900EB4003C3EBC01002EB37
:10704000C002487900EBC00303EB001002EB8002A2
:10705000887999F8071000EB800002EB40000844A3
:1070600030446065A57023E04EE08878534A30389C
:107070005043CA7840F271235A4300EB0212087958
:1070800000EB4003C3EBC01002EBC002487900EBF9
:10709000C00303EB001002EB8002887999F8071017
:1070A00000EB800002EB400008443044A065E5702E
:1070B000D4E9132C636D02EB0C00C118A06DB8F17C
:1070C000000F0144E16512D0CDF800C0CDE90130D8
:1070D00013460A463AA146480EF012F8D4E91501C3
:1070E000CDE90001D4E9132342A1414804E0CDE9F0
:1070F000003063463FA13E480EF002F827706770EB
:10710000A770E7700CF025FC01F039FA00283FF475
:1071100005AF3E48008814287FF400AFE06DBDE85D
:10712000FE8F2DE9F041224C00252E4638A1304833
:10713000226B0DF0E5FF246B3C4FDFF8D08001F0AF
:107140001EFAD0B1B8F80000385C0C2810D2DFE885
:1071500000F0060606060606060606060C0E04EBFA
:107160008401012600EB410402E0002400E0012537
:1071700022462FA11E480DF0C3FF002DDFD0002EA8
:1071800000D02046BDE8F081204341503A253564C7
:10719000206B67001001002020B0AA3A253564203A
:1071A0006B6700003A38002012950020B0DCF7FF32
:1071B000040000200044004060380020A086010048
:1071C0005350414E2053554D3D25366C752C203182
:1071D0003D25366C752C20323D25366C752C2033C0
:1071E0003D25366C752C20343D25366C750000002D
:1071F000E43F00202825366C752C25366C752C252F
:10720000366C752C25366C75290000000E010020A7
:1072100034202D2053657474696E675F5765696704
:107220006874203D2025366C752000001801002070
:1072300034202D2053657474696E745F57656967D7
:107240006874203D2025366C7520000010B54FF481
:10725000803420460DF044FD0DF09EFD6349012869
:1072600008701CD100200DF031FD00200DF062FDF2
:10727000A0110DF055FD4FF4E01120460DF06AFD10
:1072800001200DF061FD39200DF000FD0028FAD03D
:1072900002200DF077FD0DF011FD0828FBD1012132
:1072A00004200DF091FC012108200DF08DFC01213E
:1072B00010200DF089FC012120200DF085FC01211A
:1072C00040200DF081FC012180200DF07DFC01218A
:1072D00008020DF079FC012108460DF075FC012132
:1072E00008460DF059FC012102200DF055FC01214A
:1072F00048030DF069FC012188030DF065FC0121B4
:1073000048040DF049FC012188040DF045FC0121E1
:10731000C8040DF041FC012103200DF031FC0121D6
:107320004FF402400DF050FC012148050DF034FCF3
:107330000121BDE8104048070DF02EBC08B5C02063
:10734000ADF8000003208DF802001C208DF803002A
:10735000694627480DF024FB08BD38B54FF440516D
:107360004FF000600DF0FCFB4FF4C0600DF0EEFB41
:1073700014208DF8000000248DF801408DF80240A3
:1073800001258DF8035068460DF0A6FB03208DF80B
:1073900000008DF801408DF802408DF803506846DA
:1073A0000DF09AFB38BD41061248826942F0010295
:1073B00082611148426822F0E062426042680A43FA
:1073C0004260704702E00A21491EFDD2401EFAD2F7
:1073D00070474FF47A714843F4E742F2107302E0C9
:1073E0001946491EFDD2401EFAD27047AC0000205B
:1073F000000C01400010024000000140024611B99B
:10740000012070475043491E11F0FF01FAD1704727
:107410001FB50020ADF804004BF6FF70ADF8060074
:10742000A020ADF808004FF48060ADF80A0000011C
:10743000ADF80C00FD48FE4C0090694620460CF06B
:10744000BBFA012120460CF01DFB1FBD10B5FFF754
:10745000DFFFF849A220088010BD38B50020ADF844
:107460000000F34CF34D012120460CF029FB1421C0
:1074700020460CF074FBADF800002978002220466D
:107480000CF065FB142120460CF069FB8007EAD55F
:10749000E94920460CF0DAFB2046BDE838400121DE
:1074A0000CF018BB2DE9F041E14E88460546144624
:1074B000012130460CF004FBE04F304639460CF019
:1074C000ADFB0028F9D0DB480022017830460CF0F3
:1074D0003EFBDB4F304639460CF0A0FB0028F9D0CC
:1074E000414630460CF02EFBD54FBF1C3946304686
:1074F0000CF094FB0028F9D00AE0297830460CF013
:1075000021FB6D1C394630460CF088FB0028F9D071
:107510002000A4F10104E4B2EFD13046BDE8F0410F
:1075200001210CF0D7BA2DE9F041054611F00F000A
:107530000C4602F00F01C0F11007C2F3071688468F
:1075400011D08EB1D01BC0F3071600F00F088FB317
:107550003A4621462846FFF7A5FFFFF77EFFE019D0
:10756000C4B23D4426E05EB90A4612E0102221462C
:107570002846FFF797FFFFF770FF1034E4B210358D
:107580003000A6F10106F6B2F0D15FEA080017D08C
:10759000024621462846FFF785FFBDE8F0415CE73B
:1075A000102221462846FFF77DFFFFF756FF1034D3
:1075B000E4B210353000A6F10106F6B2F0D1E4E7EE
:1075C000BDE8F0812DE9F041994E0F46054614467D
:1075D000012130460CF074FADFF8608230464146F3
:1075E0000CF01CFB0028F9D09248002201783046AC
:1075F0000CF0ADFADFF84882304641460CF00EFB45
:107600000028F9D0F9B230460CF09CFA8C4FBF1C20
:10761000394630460CF002FB0028F9D00AE0297800
:1076200030460CF08FFAAD1C394630460CF0F6FAB5
:107630000028F9D02000A4F10104A4B2EFD1304613
:10764000BDE8F04101210CF045BA2DE9F0410546B5
:1076500011F00F000C4602F00F01C0F11007C2F349
:107660000716884612D096B1D01BC0F3071600F05B
:107670000F0897B33A4621462846FFF7A3FFFFF7C6
:10768000ECFEE01984B205EB470526E05EB90A4638
:1076900012E0102221462846FFF794FFFFF7DDFE97
:1076A0001034A4B220353000A6F10106F6B2F0D1B4
:1076B0005FEA080084D0024621462846FFF782FF91
:1076C000BDE8F041C9E6102221462846FFF77AFFBF
:1076D000FFF7C3FE1034A4B220353000A6F1010636
:1076E000F6B2F0D1E4E76BE72DE9F041504C0F46DC
:1076F0000546012120460CF0E3F9504E2046314664
:107700000CF08CFA0028F9D04A4800220178204673
:107710000CF01DFA4A4E204631460CF07FFA002844
:10772000F9D0394620460CF00DFA2646444CA41CEC
:10773000214630460CF072FA0028F9D029783046FC
:107740000CF000FA214630460CF068FA0028F9D017
:107750003046BDE8F04101210CF0BCB92DE9F047FD
:10776000334F8A4605461446012138460CF0A8F9E5
:10777000324E384631460CF051FA0028F9D0DFF885
:10778000B4800022384698F800100CF0E0F9DFF8D9
:10779000B090384649460CF041FA0028F9D0012152
:1077A00038460CF06FF9514638460CF0CBF9DFF84B
:1077B000909009F10209494638460CF02FFA00284A
:1077C000F9D0012138460CF07BF9314638460CF0EF
:1077D00025FA0028F9D098F8001001223E463846D4
:1077E0000CF0B5F9154F7F1C394630460CF016FAEF
:1077F0000028F9D0114F3F37BCB1012C07D100212F
:1078000030460CF071F9012130460CF063F939462D
:1078100030460CF003FA0028EED030460CF094F914
:10782000641E05F8010BA4B2E6E70BE0A086010098
:1078300000540040B00000200004001001000300CC
:10784000820007003046BDE8F04701210CF04CB93A
:10785000F8B50C4606464FF48075002128460DF019
:107860008FF90120FFF7B9FDF1B204226846FFF756
:1078700075FF012C0BD0022C0CD0009C0120FFF7CF
:10788000ACFD012128460DF07BF92046F8BD9DF89E
:107890000040F3E7BDF80040F0E7F8B50C460746B6
:1078A0004FF480761546002130460DF069F9012D20
:1078B00010D0022D11D00094F9B204226846FFF7CF
:1078C00032FE0120FFF789FD012130460DF058F905
:1078D0002046F8BD8DF80040EEE7ADF80040EBE73C
:1078E0002DE9F04704218420FFF7B2FFFE4908602C
:1078F00004211820FFF7ACFFFC4908600421102088
:10790000FFF7A6FFFA4FFB4C43F698253860A042DC
:1079100000D33D6004210C20FFF79AFFF649086070
:1079200004218820FFF794FF804609210A20FFF7F1
:1079300065FD0CF0F8FC064640460CF0FDFC3146B7
:107940000CF0D0FBED4908600421B020FFF780FF68
:10795000EB4908600421C020FFF77AFFE94908607D
:107960000421BC20FFF774FFE749A042086000D360
:107970000D600421B820FFF76BFFE4490860042183
:10798000AC20FFF765FF054609210A20FFF736FD09
:107990000CF0C9FC044628460CF0CEFC21460CF045
:1079A000A1FBDB49086004211C20FFF751FFD949E6
:1079B00001260228086000D30E6004212020FFF772
:1079C00047FFD5490860401E322801D314200860C3
:1079D00004212C20FFF73CFFD049B0F5FA7F086066
:1079E00001D9322008600421F020FFF731FFCC4C90
:1079F000E060401E022800D3E66004217C20FFF7EF
:107A000027FFC84900250028086002DB3A68824247
:107A100000D20D6004218020FFF71AFFC249002820
:107A2000086002DB3A68824200D20D6004218C209B
:107A3000FFF70EFF6060A0F5D850583841F2717121
:107A400042F21077884200D3676004217420FFF768
:107A5000FFFE41F65831A060884204DB606843F2C3
:107A6000C821884200DDA7600421A420FFF7F0FEB2
:107A7000AE490860401E3C2801D33C200860042128
:107A8000F820FFF7E5FE20610A38B0F5F57F00D950
:107A900025610421FC20FFF7DBFE6061643842F2BF
:107AA000AD61884200D3656104218801FFF7D0FEF3
:107AB000A061401E4FF00A08322801D3C4F8188094
:107AC00004217820FFF7C4FEE061022800D3E661BC
:107AD0000421EC20FFF7BCFE2062022800D32662BE
:107AE00004213820FFF7B4FE91496428086001D3CF
:107AF000C1F8008004213C20FFF7AAFE8D494FF415
:107B00007A794845086000D90D6004214020FFF7CC
:107B10009FFE8949894A0860904200D90D6004217E
:107B20009020FFF795FE86490228086000D30E607A
:107B300004219420FFF78CFE824E834930608842F6
:107B400000D3356004219820FFF782FE7F49484525
:107B5000086000D30D600421A020FFF779FE7C4966
:107B60000228086000D30D6004212820FFF770FE72
:107B700060620B2801D3C4F8248004219420FFF70D
:107B800067FE30600A20FFF728FC7249306808441D
:107B90007149884201D37148306004214420FFF7C5
:107BA00057FE6F4908600A20FFF717FC04214820A0
:107BB000FFF74EFE6B4E30600A20FFF70EFC0421EB
:107BC0004C20FFF745FE70600A20FFF706FC0421F9
:107BD0005020FFF73DFEB0600A20FFF7FEFB0421B6
:107BE0005420FFF735FEF0600A20FFF7F6FB042172
:107BF0005820FFF72DFE30610A20FFF7EEFB04212D
:107C00005C20FFF725FE70610A20FFF7E6FB0421E8
:107C10006020FFF71DFEB0610A20FFF7DEFB0421A4
:107C20006420FFF715FE504908600A20FFF7D5FBD6
:107C30000421E820FFF70CFE4C4908600A20FFF7FA
:107C4000CCFB0421C820FFF703FE494E30600A2018
:107C5000FFF7C3FB0421CC20FFF7FAFD70600A2078
:107C6000FFF7BBFB0421D020FFF7F2FDB0600A2034
:107C7000FFF7B3FB0421D420FFF7EAFDF0600A20F0
:107C8000FFF7ABFB0421D820FFF7E2FD30610A20AB
:107C9000FFF7A3FB0421DC20FFF7DAFD70610A2067
:107CA000FFF79BFB0421E020FFF7D2FDB0610A2023
:107CB000FFF793FB0421E420FFF7CAFD2D4908607C
:107CC0000A20FFF78AFB04210020FFF7C1FD2A49A3
:107CD000A062884200D3A56204210846FFF7B8FDE0
:107CE0000421E062142049E0180000202400002054
:107CF0003000002040420F000C000020480000200F
:107D00001C0000206400002038000020100000202B
:107D10004C00002004390020083900200C390020D4
:107D2000B00000201C390020203900202439002018
:107D30001039002014390020183900208038010043
:107D400040390020443900208096980048390020AE
:107D500050390020600FE6FF21D6130068881E000E
:107D60002C39002088AE002030390020383900201E
:107D7000A4AE00203C39002001E1F505FFF768FDC5
:107D8000206304216820FFF763FD606304216C20F9
:107D9000FFF75EFDA06304217020FFF759FDE0634B
:107DA000E06A64389C2836D37021D920C4E90B10CE
:107DB000D4206063FA20A06342F2C7000422E0638B
:107DC0001046FFF76AFDE0621E20FFF706FB042263
:107DD0001420216BFFF761FD20631E20FFF7FDFAE1
:107DE00004226820616BFFF758FD60631E20FFF7D7
:107DF000F4FA04226C20A16BFFF74FFDA0631E2054
:107E0000FFF7EBFA04227020E16BFFF746FDE06319
:107E10001E20FFF7E2FA04219C20FFF719FD2064E1
:107E2000B84200D325640421C420FFF711FD60642B
:107E3000B84200D36564BDE8F087704738B50021CB
:107E40004FF480700CF09CFEC0480422842100682E
:107E500000906846FFF767FB0A20FFF7BEFABC48B0
:107E600004220C21006800906846FFF75CFB0A20A2
:107E7000FFF7B3FAB7480422102100680090684663
:107E8000FFF751FB0A20FFF7A8FA09210A20FFF7A4
:107E9000B5FA0CF048FAB04909680CF0EDF80CF0AE
:107EA0007AFA0090042288216846FFF73CFB0A20FA
:107EB000FFF793FAA9480422182100680090684649
:107EC000FFF731FB0A20FFF788FAA5480422B0210A
:107ED000006800906846FFF726FB0A20FFF77DFA4E
:107EE000A0480422B821006800906846FFF71BFBF9
:107EF0000A20FFF772FA9C480422BC210068009017
:107F00006846FFF710FB0A20FFF767FA09210A20ED
:107F1000FFF774FA0CF007FA944909680CF0ACF812
:107F20000CF039FA00900422AC216846FFF7FBFA06
:107F30000A20FFF752FA8E480422C0210068009000
:107F40006846FFF7F0FA0A20FFF747FA8948002150
:107F50000078012807D0884C042280202160FFF798
:107F60009CFC206038BD854C04227C202160F6E713
:107F70007B4808B5006800900422B0216846FFF7EE
:107F8000D2FA0A20FFF729FA76480422B8210068BD
:107F900000906846FFF7C7FA0A20FFF71EFA7248FA
:107FA0000422BC21006800906846FFF7BCFA0A2052
:107FB000FFF713FA09210A20FFF720FA0CF0B3F9B2
:107FC0006A4909680CF058F80CF0E5F900900422B1
:107FD000AC216846FFF7A7FA0A20FFF7FEF96448CC
:107FE0000422C021006800906846FFF79CFA0A202E
:107FF000FFF7F3F908BD10B5614C04226420216835
:10800000FFF74BFC20600A20FFF7E7F95D4C0422E4
:1080100044202168FFF741FC20600A20FFF7DDF9CA
:10802000594C216804224820FFF737FC20601E20AD
:10803000FFF7D3F9616804224C20FFF72EFC606043
:108040001E20FFF7CAF9A16804225020FFF725FC83
:10805000A0601E20FFF7C1F9E16804225420FFF759
:108060001CFCE0601E20FFF7B8F9216904225820AB
:10807000FFF713FC20611E20FFF7AFF961690422AE
:108080005C20FFF70AFC60611E20FFF7A6F9A169DA
:1080900004226020FFF701FCA0611E20FFF79DF97C
:1080A0003A4C0422E4202168FFF7F7FB20600A2005
:1080B000FFF793F9364C0422E8202168FFF7EDFB27
:1080C00020600A20FFF789F9324C21680422C82079
:1080D000FFF7E3FB20601E20FFF77FF961680422B1
:1080E000CC20FFF7DAFB60601E20FFF776F9A1686D
:1080F0000422D020FFF7D1FBA0601E20FFF76DF90E
:10810000E1680422D420FFF7C8FBE0601E20FFF7DF
:1081100064F921690422D820FFF7BFFB20611E20EB
:10812000FFF75BF961690422DC20FFF7B6FB6061B1
:108130001E20FFF752F9A1690422E020FFF7ADFBF2
:10814000A061BDE810401E20FFF747B918000020CD
:108150000C000020300000204800002024000020F7
:108160001C00002010000020380000204C000020DF
:108170006400002009000020203900201C39002064
:10818000303900202C39002088AE00203C390020F6
:1081900038390020A4AE00202DE9F84F4FF6BF106B
:1081A000ADF8000010258DF8035003248DF802402F
:1081B0006946F8480CF0F4FB2F01ADF800708DF81B
:1081C00003508DF802406946F3480CF0E9FBC020EB
:1081D000ADF800008DF802401C208DF803006946C0
:1081E000EE480CF0DDFB42F20400ADF8000004267E
:1081F0008DF803606946EA480CF0D2FBADF8004008
:108200008DF803508DF802406946E5480CF0C8FB34
:108210004FF00209ADF800908DF803508DF8024040
:108220006946DE480CF0BCFB6802ADF80000DFF8E0
:1082300074A38DF802408DF80360694650460CF037
:10824000AFFBA802ADF800008DF802404FF0140813
:108250008DF80380694650460CF0A2FBADF8007023
:10826000DFF844B38DF802408DF803606946584644
:108270000CF096FB6801ADF800008DF802408DF817
:108280000380694658460CF08BFB4FF4F060ADF864
:1082900000008DF803508DF802406946C3480CF089
:1082A0007FFB4FF47870ADF8000048208DF8030094
:1082B000694650460CF074FB2802ADF800008DF8BA
:1082C00003508DF802406946B5480CF069FB082759
:1082D000ADF800708DF803508DF80240694658469D
:1082E0000CF05EFBADF800608DF803508DF8024095
:1082F000694658460CF054FBADF800908DF80350D9
:108300008DF80240694658460CF04AFB0120ADF852
:1083100000008DF80360694658460CF041FB4FF4AD
:108320006070ADF800008DF8036069469C480CF061
:1083300037FBADF800708DF80360694697480CF084
:108340002FFB4FF46050ADF800008DF803508DF80E
:108350000240694658460CF023FBADF800508DF8FA
:1083600003508DF8024069468C480CF019FB01213E
:108370008F480CF065FB01218E480CF061FBBDE8D5
:10838000F88F08B54FF48070ADF8000010208DF81C
:10839000030003208DF80200694680480CF000FBC2
:1083A00008BD08B54FF48070ADF8000048208DF886
:1083B000030003208DF80200694678480CF0F0FABB
:1083C00008BD10B5734C4FF4806120460CF070FB73
:1083D000E11420460CF06CFBA11420460CF068FB65
:1083E000611420460CF064FB2046BDE810404FF4B9
:1083F00080410CF05FBB10B5664C4FF480612046A5
:108400000CF056FBE11420460CF052FBA114204660
:108410000CF04EFB611420460CF04CFB2046BDE8EE
:1084200010404FF480410CF043BB10B5594C4FF451
:10843000806120460CF03CFBE11420460CF038FB38
:10844000A11420460CF036FB611420460CF030FBE2
:108450002046BDE810404FF480410CF029BB10B518
:108460004C4C4FF4806120460CF022FBE114204676
:108470000CF020FBA11420460CF01AFB61142046DE
:108480000CF016FB2046BDE810404FF480410CF084
:108490000FBB10B53F4C4FF4806120460CF00AFB37
:1084A000E11420460CF004FBA11420460CF000FB64
:1084B000611420460CF0FCFA2046BDE810404FF451
:1084C00080410CF0F5BA70B5FFF7E3FF374D284651
:1084D0000CF0DAFA1F2414EA901101D0012028E0F0
:1084E000FFF7BDFF28460CF0CFFA14EA901101D037
:1084F00002201EE0FFF799FF28460CF0C5FA14EAA7
:10850000901101D0032014E0FFF775FF28460CF00E
:10851000BBFA14EA901101D004200AE0FFF751FFE2
:1085200028460CF0B1FA14EA901101D0102000E0B6
:1085300000200023102420251F4A102918D008DC11
:1085400001290DD002290DD004290DD0082910D100
:108550000CE0202904D0402904D0802909D103E06F
:10856000D38007E0D48005E0D58003E0302100E02F
:108570004021D180D188084480B2D08070BD10B530
:10858000FFF7A1FF0C49C888CA68824216D10020B3
:1085900010BD00000020014000080140000C014017
:1085A000001001400018014000140140001C01406F
:1085B000000430000002300008010020C8600028DC
:1085C000E6D0FDF714F99620FEF707FFFDF7F8F85F
:1085D0000120DDE710B5FFF776FF3548C088002899
:1085E000D6D00120D4E73EB5314C00252570314866
:1085F0000CF04AFA00F4F870208120894FF6FF71E0
:1086000001EA4000208122892BA168460CF078FD08
:1086100021890120B1F5787F08D06070617841B17F
:1086200021896289914203D1257002E06570F5E7E6
:108630002070208960813EBD1D48002141708170FD
:108640000181418103218180704710B5FFF7CBFF85
:1086500017484178C9B10178B9B10189B1F5387FBE
:1086600015D00189B1F5687F13D00189B1F5F07F8C
:1086700011D00189B1F5587F0FD00189B1F5707F14
:108680000DD00189E0290CD00DE0002080E7012108
:1086900008E0022106E0052104E0032102E00421B4
:1086A00000E0062101810A20FDF7A6F801206FE70E
:1086B000080100200018014020255800C0F30721C0
:1086C000C2B2A0F53040A13841F65D0398420FD800
:1086D000B039C1EB011000EB411002EB4000FF4A42
:1086E000A13812F8101002EB4000407840EA012057
:1086F00070472DE9F041FA4D0F4604464FF40076DD
:10870000314628460CF0D4F9394628460CF0D4F905
:10871000EF147F2C3946284626D00CF0CBF94FF4C5
:108720008064214628460CF0C3F90120FEF74AFE7A
:10873000314628460CF0BEF90120FEF743FE3146D3
:1087400028460CF0B5F90120FEF73CFE21462846EC
:108750000CF0B0F9394628460CF0AAF93146284603
:10876000BDE8F0410CF0A6B90CF0A2F9D7E76420FF
:10877000FEF728BEDB4910B501200870D84CC102B5
:1087800020460CF095F90320FEF71CFEA1142046AC
:10879000BDE810400CF08EB9D24910B50020087029
:1087A000CF4C4FF4805120460CF082F90320FEF7A5
:1087B00009FEE1142046BDE810400CF07BB970B50D
:1087C0004FF6FF7101EA4001C64E01F4C07400F09B
:1087D0003F000443307810B3FFF7CCFFC04D4FF497
:1087E000004128460CF064F94FF4804128460CF013
:1087F0005FF93078B0B144F4805128460CF05CF950
:108800004FF40054214628460CF054F90120FEF79D
:10881000D9FD21462846BDE870400CF049B9FFF764
:10882000BBFFDBE744F40061E7E7AF4910B5087030
:108830000878B830FFF7C3FFBDE810406420FEF7AA
:10884000C1BD00F01F01A94810B501700278A5490B
:108850000B2A08D200220A700078402100EB400069
:1088600001EB400005E001220A70007800EB4000B7
:108870004000FFF7A4FFBDE810406420FEF7A2BD52
:1088800010B50C46FFF7DDFF2046BDE81040CCE7F1
:1088900070B54FF6FF7101EA4001924E01F4C074C9
:1088A00000F03F000443307810B3FFF763FF8C4DB6
:1088B0004FF4004128460CF0FDF84FF48041284663
:1088C0000CF0F6F83078B0B144F4104128460CF0C2
:1088D000F3F84FF40054214628460CF0EBF8012041
:1088E000FEF770FD21462846BDE870400CF0E0B868
:1088F000FFF752FFDBE744F40841E7E72DE9F047D3
:108900000025784F2E464FF001083E70FFF744FFD8
:108910004020FFF754FF05F1B8008146FFF74FFFF5
:1089200000240020FFF7B4FF0320FEF74BFD641C7A
:10893000E4B2402CF5D387F80080FFF71BFF4020FE
:10894000FFF73DFF4846FFF73AFF00240020FFF7FE
:108950009FFF0320FEF736FD641CE4B2402CF5D3E4
:108960006D1CEDB2082DD0D33E70604806705E4994
:108970000E7009780078FFF783FF5D4806805D4838
:1089800006805D4806805D4806805D4806805D483B
:1089900006805D4806805D4806805D4806805D482B
:1089A00006805D4806805D480680BDE8F0870F219F
:1089B0007F209EE60C217F209BE670B50D000446CB
:1089C00006D0012D07D0022D10D0032D09D110E0C3
:1089D00004F1800001E004F1C000C1B27F20FFF784
:1089E00088FE4F4804604F48056070BD04F1940054
:1089F000F3E704F1D400F0E710B50A20FEF7E2FC3B
:108A000010BD49490020087070474749FF20087091
:108A10007047354910B508700878B830FFF7CFFEB9
:108A2000BDE810406420FEF7CDBC10B52F4C20707F
:108A30002078402804D2FFF7AFFE2078403002E0D3
:108A4000FFF798FE2078FFF7BAFEBDE810406420DB
:108A5000FEF7B8BC10B50C46FFF7E7FF2046BDE8AF
:108A60001040D6E71F4910B5012008701E48007855
:108A7000FFF7DBFE4020FFF7A2FEBDE810406420B8
:108A8000FEF7A0BC70B51546FFF7FAFE0024284695
:108A9000FFF7FEFE641CE4B2062CF8D370BD70B57F
:108AA0000D460446402802D2FFF776FE03E0FFF7AA
:108AB00061FE403CE4B2B82000EBD500C6B23046BF
:108AC000FFF77DFE04F140000446FFF778FE3046D4
:108AD000FFF775FE2046FFF772FE27E0545B0108A2
