:020000040800F2
:1030000060780020E5B90008CDB90008CFB9000804
:10301000D1B90008D3B90008D5B9000800000000F4
:10302000000000000000000000000000D7B9000808
:10303000D9B9000800000000DBB90008DDB90008BC
:10304000FBB90008FBB90008FBB90008398000088B
:10305000FBB90008FBB90008FBB90008FBB9000880
:10306000FBB90008FBB90008FBB90008FBB9000870
:10307000FBB90008FBB90008FBB90008FBB9000860
:10308000FBB90008FBB90008FBB90008FBB9000850
:10309000DFB90008FBB90008FBB90008FBB900085C
:1030A000FBB90008FBB90008FBB90008FBB9000830
:1030B0009BAB0008FBB90008FBB90008FBB900088E
:1030C000FBB90008FBB90008FBB90008FBB9000810
:1030D000FBB9000823AD00087BAD000809AE00086D
:1030E000FBB90008FBB90008E1B90008FBB900080A
:1030F000FBB90008FBB90008FBB90008FBB90008E0
:10310000FBB90008FBB90008FBB90008FBB90008CF
:10311000CDAE0008FBB90008FBB90008FBB90008F8
:10312000FBB90008FBB90008FBB90008FBB90008AF
:10313000DFF80CD009F0C2F800480047AB6B00087C
:10314000607800202DE9F04FFE4C91B0FEA122786E
:1031500003A8303209F0ACFD03A808F013F9207879
:103160000125401CC0B22070042801D920460570FA
:103170000027F74EDFF8DCB3DFF8DCA3DFF8DC93E1
:10318000DFF8DC833C46F748007848B9012001F0BD
:1031900012F97F1C782FF6DBF248007800287CD0EB
:1031A000F1485021F14A0180EE48F1490470346041
:1031B0005078312806D032282AD0332858D03428E5
:1031C0004CD17DE09078EB4B30385843D37840F2C7
:1031D00071277B4300EB0313107900EB4007C7EB2B
:1031E000C01003EBC003507900EBC00707EB0010E1
:1031F00003EB8003907900EB800003EB4000D37970
:1032000018440144DC480160DC480570DC4824E0D7
:103210009078D84B30385843D37840F271277B43AD
:1032200000EB0313107900EB4007C7EBC01003EB72
:10323000C003507900EBC00707EB001003EB8003DD
:10324000907900EB800003EB4000D37918440144EF
:10325000CC480160CC480570CC4804700020CC4BB1
:103260009472FF2111541954401C0F28FADB53E0CB
:103270009078C04B30385843D37840F271277B4365
:1032800000EB0313107900EB4007C7EBC01003EB12
:10329000C003507900EBC00700E037E007EB0010F7
:1032A00003EB8003907900EB800003EB4000D379BF
:1032B00018440144CBF8001089F80050B548CCE719
:1032C0009078AC4B30385843D37840F271277B4329
:1032D00000EB0313107900EB4007C7EBC01003EBC2
:1032E000C003507900EBC00707EB001003EB80032D
:1032F000907900EB800003EB4000D379184401443F
:10330000CAF8001088F80050A348A6E79649B1F91A
:10331000000008B1401E08808A48007801287CD14E
:1033200096489E4F9E4902785FEA020E964A4ED01A
:103330001378002B72D099F800C04B46BCF1000FF7
:103340006DD0DFF81CC29CF800C0BCF1000F67D044
:10335000DFF824C2DFF82C82DCF800C0CDF840C0D2
:10336000D8F800E0DBF800900CEB0E08DAF800C0AB
:10337000C844E044C1F800800470794814701C709F
:10338000047088488A46006888B1CDF80090CDE97D
:1033900001C8734684A103A8109A09F089FC14237C
:1033A00003AA4FF4C8710A20009402F066F80020C6
:1033B0006E4A774BFF2111541954401C0F28FADB39
:1033C0003D703460DAF8000011B0BDE8F08F12787B
:1033D000002A76D099F80030002B72D098F800C0FF
:1033E0004346BCF1000F6CD0DFF894C19CF800009C
:1033F000401CC0B28CF8000002280BD36148DBF8F7
:103400000080006808EB4008DAF8000040440860DB
:103410008CF800405C48047003E015E110E03CE0EB
:1034200067E089F800401C700020504BDFF860C155
:10343000FF221A540CF80020401C0F28F9DB27E16A
:1034400099F80020EAB398F800204346CAB3DFF8A1
:103450003CC19CF80020521CD2B28CF80020022AF9
:103460000BD3454ADBF80080126808EB4208DAF813
:10347000002042440A608CF80040047089F8004043
:103480001C700020394BDFF808C1FF221A540CF8D9
:103490000020401C0F28F9DBFAE0314B1B7883B188
:1034A000DFF8F0C09CF800305B1CDBB28CF8003019
:1034B000022B0ED3304BD3F80080324B1B6898445C
:1034C00000E083E0DAF8003008EB43030B608CF88F
:1034D0000040047022481470244B04700020DFF870
:1034E000B0C0FF221A540CF80020401C0F28F9DB52
:1034F000CEE0DFF8A49099F800C00CF1010C0CF0BC
:10350000FF0C89F800C0BCF1020F10D3DFF868C0CF
:10351000DCF80080DFF86CC0DCF800C0E044DBF8C9
:1035200000C008EB4C0CC1F800C089F800400470E2
:1035300014701C7000200D4BDFF854C0FF221A5489
:103540003EE000008D020020402D25635200000067
:1035500088020020A0020020A40200209002002087
:103560009102002062020020200300201859002050
:10357000B0DCF7FFA0860100980200208E02002038
:10358000920200209C0200208F0200209302002063
:10359000505800209402002095020020960200203E
:1035A000000000200C030020256C642C20256C6496
:1035B0002C20256C642C20256C6420256C642E0046
:1035C0000CF80020401C0F28B9DB61E0324A10786B
:1035D0005EEA00032DD199F8003053B398F800C08B
:1035E0004346BCF1000F24D0DFF8B0C09CF80000C7
:1035F000401CC0B28CF80000022808D3DBF8008021
:10360000DAF800004044400008608CF8004024488C
:10361000DFF890C00470147089F800401C7000201E
:10362000214BFF220CF800201A54401C0F28F9DB14
:103630002EE01B4BBEF1000F06D028B199F8000018
:1036400010B998F8000010B14FF0FF30BCE6DFF879
:103650005CC09CF80000401CC0B28CF8000002283E
:1036600009D31348D0F80080124800684044400055
:1036700008608CF800401C7014700020094BDFF8C3
:1036800028C0FF221A540CF80020401C0F28F9DB38
:103690003D703460086897E68F0200209202002097
:1036A0008E0200201859002050580020940200205B
:1036B000980200209C0200200121364808F0BABF81
:1036C00008B50120ADF8000003208DF8020010209D
:1036D0008DF8030069462F4808F02EFFFFF7ECFF36
:1036E00008BD01212B4808F0A7BF10B50446FFF71D
:1036F000F8FF204600F05FFEBDE81040DCE710B5A3
:1037000000241420FFF7F1FF052000F054FE641C94
:10371000072CF6DB10BD20211F4808F08DBFFAE70B
:1037200020211D4808F086BF10B520211A4808F056
:1037300081FFBDE81040F3E74FF48071164808F0B0
:103740007BBFF9E74FF48071134808F073BFF9E7C6
:103750004FF40071104808F06DBFF9E74FF40071A5
:103760000D4808F069BFF9E704210C4808F062BF72
:10377000FAE70421094808F05FBFFAE70821074883
:1037800008F058BFFAE70821044808F055BFFAE7E7
:10379000E4E7DDE700100140000C014000140140A7
:1037A0002DE9F05FDFF8FCA30125DFF8FC83FF4E75
:1037B000DFF8FCB30027FF4C4021204607F013FD43
:1037C0002D21204607F00FFD31792046303107F0DA
:1037D0000AFD5221204607F006FD0D21204607F084
:1037E00002FD0A21204607F0FEFC3079401CC0B2E1
:1037F0003071042800D93571C82000F0D8FD9AF83E
:10380000001000297BD0EC488AF800705C46076005
:103810009BF80100312806D0322828D033284AD01E
:10382000342847D16CE0A078E44930384843E17847
:1038300040F27122514300EB0111207900EB40026C
:10384000C2EBC01001EBC001607900EBC00202EBDB
:10385000001001EB8001A07900EB800001EB40003B
:10386000E179014401EB0800B06335706DE0A078A8
:10387000D24930384843E17840F27122514300EB9D
:103880000111207900EB4002C2EBC01001EBC00136
:10389000607900EBC00202EB001001EB8001A0791F
:1038A00000EB800001EB4000E179014401EB0800EE
:1038B000F063757047E0A078C04930384843E1783C
:1038C00040F27122514300EB0111207900EB4002DC
:1038D000C2EBC01001EBC001607900EBC00202EB4B
:1038E000001001EB8001A07900EB800001EB4000AB
:1038F000E179014401EB08003064B57023E05FE03A
:10390000A078AE4930384843E17840F27122514303
:1039100000EB0111207900EB4002C2EBC01001EB7B
:10392000C001607900EBC00202EB001001EB8001E6
:10393000A07900EB800001EB4000E179014401EB4C
:1039400008007064F570307880B3707870B3B07828
:1039500060B3F07850B3D6E90E010844316C0844E6
:10396000716C084408F05BFA316B08F001F908F05B
:1039700075FAF16A401A8146024691A1944809F00D
:1039800097F9F168B9FBF1F0B16848438146024606
:1039900090A18F4809F08CF94A4640F24511462023
:1039A00002F047F837707770B770F7708D4AFF21D3
:1039B0007763706B21541154401C70630F28F8DB3F
:1039C00001F075FA00283FF4F6AE87480088142805
:1039D0007FF4F1AEBDE8F09F2DE9FE4F0127DFF83F
:1039E000C891724DDFF8C8B180464FF4967A002630
:1039F000704C4021204607F0F6FB2D21204607F0B1
:103A0000F2FB29792046303107F0EDFB52212046A8
:103A100007F0E9FB0D21204607F0E5FB0A212046CF
:103A200007F0E1FB2879401CC0B22871042800D9B6
:103A30002F71C82000F0BFFC5A48017800297AD0C5
:103A400006705D485C4606609BF80100312806D090
:103A5000322828D033284AD0342823D16CE0A078EB
:103A6000564930384843E17840F27122514300EB27
:103A70000111207900EB4002C2EBC01001EBC00144
:103A8000607900EBC00202EB001001EB8001A0792D
:103A900000EB800001EB4000E179014401EB0900FB
:103AA000A8632F706BE0A078444930384843E17830
:103AB00040F27122514300EB0111207900EB4002EA
:103AC000C2EBC01001EBC001607900EBC00202EB59
:103AD000001001EB8001A07900EB800001EB4000B9
:103AE000E179014401EB0900E8636F7047E0A078D9
:103AF000324930384843E17840F27122514300EBBB
:103B00000111207900EB4002C2EBC01001EBC001B3
:103B1000607900EBC00202EB001001EB8001A0799C
:103B200000EB800001EB4000E179014401EB09006A
:103B30002864AF7023E092E0A078204930384843F1
:103B4000E17840F27122514300EB0111207900EB42
:103B50004002C2EBC01001EBC001607900EBC00273
:103B600002EB001001EB8001A07900EB800001EB7B
:103B70004000E179014401EB09006864EF70D5E988
:103B80000E23296CD01800EB010C686CB8F1000F03
:103B90008444C5F848C042D0CDE9003113460290B4
:103BA000624623E062020020B0DCF7FF0400002040
:103BB000185900200044004088020020A08601001F
:103BC00041445F434F554E543D25366C75200000EF
:103BD000640300205765696768743D25366C75205D
:103BE000206B6700505800200C010020F2A1FE4815
:103BF00009F05EF8D5E91001CDE90001D5E90E2301
:103C0000FAA1F94809F054F81023F74A50465146F2
:103C1000009602F056F84FF48771AA6C0EE0CDE9D9
:103C20000010F2A1F04809F043F81023EE4AC82131
:103C30005046009602F045F8AA6CA021462001F0FB
:103C4000F8FE2E706E70AE70EE70EE4AFF216E635D
:103C5000686B21541154401C68630F28F8DB01F095
:103C600026F900283FF4C4AEE748008814287FF402
:103C7000BFAEA86CBDE8FE8F2DE9F041E34C0025F6
:103C80002E46E3A1D848A26A09F012F8D7214620AF
:103C9000A26A01F0CEFEA46AE44FDFF86C8301F063
:103CA00006F9F8B1B8F80000385C0C2810D2DFE84B
:103CB00000F0060606060606060606060C0E04EBCF
:103CC0008401012600EB410402E0002400E001250C
:103CD0002246D7A1C44808F0EBFF2246D721462050
:103CE00001F0A7FE002DDAD0002E00D02046BDE85E
:103CF000F081F0B585B01422D449684607F084FEFF
:103D0000C24801240026406A052812D00A2812D091
:103D10000F2812D0142812D0192812D01E2812D021
:103D2000232812D0282812D02D2812D0322812D0C1
:103D300012E0002410E001240EE002240CE0032431
:103D40000AE0042408E0052406E0062404E0072431
:103D500002E0082400E009246F463DF814206921A0
:103D6000462001F066FEA84D01F0A1F880B1288838
:103D700042280AD1641CE4B2092C00D9002469212C
:103D800037F81420462001F054FE2888142801D06A
:103D9000002EE9D037F8140005B0F0BDFEB5AB48F1
:103DA00004240C380026D0E9001280680091CDE987
:103DB00001209648806801280AD002280AD00528E8
:103DC0000AD00A280AD014280AD032280AD00AE0D9
:103DD000002408E0012406E0022404E0032402E0B9
:103DE000042400E005246F463DF8142032214620CB
:103DF00001F01FFE844D01F05AF880B12888422856
:103E00000AD1641CE4B2052C00D90024322137F811
:103E10001420462001F00DFE2888142801D0002E21
:103E2000E9D037F81400FEBDF8B5784C0A20E06000
:103E30004FF6FF7001F00BFA0025102384A2142125
:103E40002846009501F03DFF4FF47A7000F0B3FA78
:103E5000012232210A2001F079F83A223221282069
:103E600001F074F84FF4967610237EA2502130466C
:103E7000009501F026FFFFF791FFA0600222692163
:103E80000A2001F063F83A226921282001F05EF847
:103E900010237AA28C213046009501F012FFFFF723
:103EA00028FF6062A168B0FBF1F27AA14E48E2619E
:103EB00008F0FEFEE269E0687EA142434A482262C1
:103EC00008F0F6FE0322A0210A2001F03FF83A2272
:103ED000A021282001F03AF80020FFF77DFD2061A5
:103EE000606AA0620422D7210A2001F02FF83A224A
:103EF000D721282001F02AF8102376A2FA21304693
:103F0000009501F0DEFEFFF7B7FE4FF48777A06261
:103F1000052239460A2001F019F83A2239462820AC
:103F200001F014F80120FFF757FD60612169421A82
:103F300071A12D48A26108F0BBFEA06A07F078FFCE
:103F40000746606A07F074FF394607F047FE0746E8
:103F5000A06907F06DFF394607F00AFE0746206AA0
:103F600007F066FF394607F039FE074620632069EF
:103F700007F05EFF394607F0FBFD07F06FFF40F2E8
:103F80004517E062062239460A2000F0DFFF3A2298
:103F90003946282000F0DAFF102362A24FF4B471F2
:103FA0003046009501F08DFEFFF7FAFB0422104623
:103FB000216900F087FDBFE05350414E2053554D1D
:103FC0003D25366C752C20313D25366C752C203204
:103FD0003D25366C752C20333D25366C752C2034F0
:103FE0003D25366C75000000640300202825366CE2
:103FF000752C25366C752C25366C752C25366C7514
:1040000029000000505800200C010020040000206E
:1040100034202D2053657474696E675F5765696736
:104020006874203D2025366C75200000C0000020FB
:1040300034202D2053657474696E745F5765696709
:104040006874203D2025366C7520000058DA000881
:1040500043414C494252415449494F4E204D4F44EF
:1040600045000000284449564953494F4E2D5052AF
:10407000455353204B45595F312900002843415097
:1040800041434954592D5052455353204B45595F94
:104090003129000033202D2045787465726E616CE3
:1040A0005F5265736F6C7574696F6E203D202536A5
:1040B0006C75200020202020496E7465726E616C42
:1040C0005F5265736F6C7574696F6E203D20253685
:1040D0006C752000284C4F4144494E4720574549B4
:1040E0004748542D5052455353204E554D4245524A
:1040F000204B45592900000035202D20765F737034
:10410000616E203D2025366C752020202020202047
:10411000202020202020202020202020202020209F
:10412000202020002843555252454E5420574549DF
:104130004748542900000000206104221820A1698A
:1041400000F0C0FCA06104221020616A00F0BAFCFB
:10415000606204220C20A16800F0B4FCA060092178
:104160000A2000F03DF907F05AFE216B07F000FD30
:1041700007F074FE01460422002000F0A3FC102387
:104180000DA24FF4D7710020009501F09AFD102385
:104190000FA24FF4E1710020009501F092FD40F66E
:1041A000B83000F008F90D4C00F081FE0028FBD07B
:1041B00020881428F8D1F8BD434C414C4942524163
:1041C00054494F4E2046494E495348454421210009
:1041D0005245504F57455220212100000C0100202C
:1041E00010B54FF48034204608F046FB08F0A0FBE1
:1041F0007549012808701CD1002008F033FB00200D
:1042000008F064FBA01108F057FB4FF4E0112046C2
:1042100008F06CFB012008F063FB392008F002FB7A
:104220000028FAD0022008F079FB08F013FB0828D8
:10423000FBD10121042008F093FA0121082008F0A5
:104240008FFA0121102008F08BFA0121202008F0BC
:1042500087FA0121402008F083FA0121802008F02C
:104260007FFA0121080208F07BFA0121084608F0D4
:1042700077FA0121084608F05BFA0121022008F0D4
:1042800057FA0121480308F06BFA0121880308F06E
:1042900067FA0121480408F04BFA0121880408F06C
:1042A00047FA0121C80408F043FA0121032008F06D
:1042B00033FA01214FF4024008F052FA0121480577
:1042C00008F036FA0121BDE81040480708F030BA7E
:1042D00008B5C020ADF8000003208DF802001C20B6
:1042E0008DF803006946394808F026F908BD38B54D
:1042F0004FF440514FF0006008F0FEF94FF4C060F9
:1043000008F0F0F914208DF8000000248DF8014029
:104310008DF8024001258DF80350684608F0A8F991
:1043200003208DF800008DF801408DF802408DF8D3
:104330000350684608F09CF938BD4106244882695C
:1043400042F0010282612348426822F0E06242604A
:1043500042680A434260704710B5044686B00420A4
:1043600008F074FB684608F013FA1B4A01994FF0F5
:10437000E020B1FBF2F16143B1F1807F0ED221F078
:104380007F41A1F101014161144A4FF0F001117028
:104390004FF0000181614FF007010161016921F0D7
:1043A000020101610169C903FCD506B010BD4FF4DB
:1043B0007A714843D0E742F2107302E01946491E71
:1043C000FDD2401EFAD2704794000020000C01403C
:1043D000001002400000014040420F0023ED00E0C9
:1043E000024611B9012070475043491E11F0FF01E8
:1043F000FAD170471FB50020ADF804004BF6FF70EE
:10440000ADF80600A020ADF808004FF48060ADF8CC
:104410000A000001ADF80C00FD48FE4C0090694612
:10442000204607F04BF90121204607F0ADF91FBDEA
:1044300010B5FFF7DFFFF849A220088010BD38B59E
:104440000020ADF80000F34CF34D0121204607F0A9
:10445000B9F91421204607F004FAADF800002978D4
:104460000022204607F0F5F91421204607F0F9F95B
:104470008007EAD5E949204607F06AFA2046BDE8F8
:104480003840012107F0A8B92DE9F041E14E8846F6
:10449000054614460121304607F094F9E04F3046B6
:1044A000394607F03DFA0028F9D0DB4800220178B0
:1044B000304607F0CEF9DB4F3046394607F030FA88
:1044C0000028F9D04146304607F0BEF9D54FBF1C51
:1044D0003946304607F024FA0028F9D00AE0297856
:1044E000304607F0B1F96D1C3946304607F018FA2E
:1044F0000028F9D02000A4F10104E4B2EFD1304645
:10450000BDE8F041012107F067B92DE9F04105460A
:1045100011F00F000C4602F00F01C0F11007C2F3BA
:104520000716884611D08EB1D01BC0F3071600F0D5
:104530000F088FB33A4621462846FFF7A5FFFFF73D
:104540007EFFE019C4B23D4426E05EB90A4612E09F
:10455000102221462846FFF797FFFFF770FF10341F
:10456000E4B210353000A6F10106F6B2F0D15FEAF0
:10457000080017D0024621462846FFF785FFBDE810
:10458000F0415CE7102221462846FFF77DFFFFF748
:1045900056FF1034E4B210353000A6F10106F6B231
:1045A000F0D1E4E7BDE8F0812DE9F041994E0F46E6
:1045B000054614460121304607F004F9DFF8608211
:1045C0003046414607F0ACF90028F9D09248002265
:1045D0000178304607F03DF9DFF848823046414621
:1045E00007F09EF90028F9D0F9B2304607F02CF90F
:1045F0008C4FBF1C3946304607F092F90028F9D09D
:104600000AE02978304607F01FF9AD1C39463046DC
:1046100007F086F90028F9D02000A4F10104A4B223
:10462000EFD13046BDE8F041012107F0D5B82DE9C2
:10463000F041054611F00F000C4602F00F01C0F1E9
:104640001007C2F30716884612D096B1D01BC0F3EC
:10465000071600F00F0897B33A4621462846FFF7A1
:10466000A3FFFFF7ECFEE01984B205EB470526E057
:104670005EB90A4612E0102221462846FFF794FF51
:10468000FFF7DDFE1034A4B220353000A6F101069C
:10469000F6B2F0D15FEA080084D0024621462846EF
:1046A000FFF782FFBDE8F041C9E610222146284607
:1046B000FFF77AFFFFF7C3FE1034A4B220353000B5
:1046C000A6F10106F6B2F0D1E4E76BE72DE9F0417F
:1046D000504C0F4605460121204607F073F8504E16
:1046E0002046314607F01CF90028F9D04A4800223C
:1046F0000178204607F0ADF84A4E2046314607F0D3
:104700000FF90028F9D03946204607F09DF82646D3
:10471000444CA41C2146304607F002F90028F9D089
:104720002978304607F090F82146304607F0F8F82F
:104730000028F9D03046BDE8F041012107F04CB81F
:104740002DE9F047334F8A46054614460121384685
:1047500007F038F8324E3846314607F0E1F80028C5
:10476000F9D0DFF8B4800022384698F8001007F03E
:1047700070F8DFF8B0903846494607F0D1F80028C5
:10478000F9D00121384606F0FFFF5146384607F0C0
:104790005BF8DFF8909009F102094946384607F0C6
:1047A000BFF80028F9D00121384607F00BF8314650
:1047B000384607F0B5F80028F9D098F80010012223
:1047C0003E46384607F045F8154F7F1C39463046BF
:1047D00007F0A6F80028F9D0114F3F37BCB1012CE3
:1047E00007D10021304607F001F80121304606F0DC
:1047F000F3FF3946304607F093F80028EED03046F4
:1048000007F024F8641E05F8010BA4B2E6E70BE0FC
:10481000A086010000540040980000200004001011
:1048200001000300820007003046BDE8F047012187
:1048300006F0DCBFF8B50C4606464FF48075002143
:10484000284607F069FF0120FFF7B5FDF1B2042209
:104850006846FFF775FF012C0BD0022C0CD0009C92
:104860000120FFF7A8FD0121284607F055FF20464B
:10487000F8BD9DF80040F3E7BDF80040F0E72DE9F2
:10488000F04104210846FFF7D5FFBD490860042127
:104890001820FFF7CFFFBB49086004211020FFF765
:1048A000C9FFB94C042120600C20FFF7C3FFB749B2
:1048B000086004210020FFF7BDFF064609210A20F9
:1048C000FFF78EFD07F0ABFA0546304607F0B0FA69
:1048D000294607F083F9AE49086004211C20FFF740
:1048E000A9FFAC4901270228086000D30F6004210A
:1048F0002C20FFF79FFFA849B0F5FA7F086001D987
:104900003220086004214420FFF794FFA3490026C9
:104910000028086002DB2268824200D20E60042177
:104920004820FFF787FF9E49086004215020FFF7C9
:1049300081FF9C4C206004215420FFF77BFF6060C6
:1049400004215820FFF776FFA06004215C20FFF7C8
:1049500071FFE06004216020FFF76CFF20610421FB
:104960006420FFF767FF606104216820FFF762FFA2
:10497000A06104216C20FFF75DFF8B4908600421D2
:104980006C20FFF757FF894D894C010A6860207041
:104990006170000CA07004217020FFF74BFFA8602D
:1049A000E070010A2171010C6171000EA0710421F7
:1049B0007420FFF73FFFE860E071010A2172010CEB
:1049C0006172000EA072E67204217820FFF732FFB8
:1049D00078492861020A08704A70020C8A70000E39
:1049E000C87004217C20FFF725FF73496861020A23
:1049F00008704A70020C8A70000EC8700421802072
:104A0000FFF718FF6D49A861020A08704A70020C8E
:104A10008A70000EC87004218420FFF70BFF6849DC
:104A2000E861020A08704A70020C8A70000EC870B1
:104A300004218820FFF7FEFE2862001F032801D30F
:104A40000420286204218C20FFF7F4FE6862A0F5A0
:104A5000D850583841F27171884202D342F2107036
:104A6000686204219020FFF7E5FE5649022808609D
:104A700000D30F6004219420FFF7DCFE5249534A13
:104A80000860904200D30E6004219820FFF7D2FE08
:104A90004F49B0F57A7F086000D30E6004219C2056
:104AA000FFF7C8FE4B496428086000D30E6004215C
:104AB000A020FFF7BFFE48490228086000D30E601F
:104AC00070E57047F8B50C4606464FF480771546FA
:104AD0000021384607F020FE012D10D0022D11D004
:104AE0000094F1B204226846FFF70FFD0120FFF7A2
:104AF00062FC0121384607F00FFE2046F8BD8DF814
:104B00000040EEE7ADF80040EBE710B5264C04227C
:104B10006C202168FFF7D6FF2060214C042248203A
:104B20002168FFF7CFFF20601E4C2168042250202F
:104B3000FFF7C8FF2060616804225420FFF7C2FF1E
:104B40006060A16804225820FFF7BCFFA060E16804
:104B500004225C20FFF7B6FFE06021690422602098
:104B6000FFF7B0FF2061616904226420FFF7AAFF0C
:104B70006061A16904226820FFF7A4FFA06110BD55
:104B8000140000201C000020280000200C00002041
:104B900034000020E4020020E8020020EC020020A3
:104BA000F4020020B8720020F802002098000020D3
:104BB000D4720020E87200200003002004030020CB
:104BC000080300200C0300201003002080969800AA
:104BD00014030020180300201C0300202DE9F843D3
:104BE0004FF4F840ADF8000010258DF80350032471
:104BF0008DF802406946CC4807F09EFC4FF4F860FF
:104C0000ADF8000028208DF803006946C74807F07A
:104C100093FC4FF44870ADF80000DFF814838DF872
:104C200003508DF802406946404607F085FC042693
:104C3000ADF80060BF4F8DF803508DF80240694613
:104C4000384607F079FC0820ADF800008DF80350D5
:104C50008DF802406946384607F06EFC4FF470400C
:104C6000ADF800008DF803508DF8024069464046CB
:104C700007F062FC41F20100ADF800008DF803502E
:104C80008DF802406946AC4807F056FC4020ADF86C
:104C90000000AA4F8DF803508DF80240694638464F
:104CA00007F04AFC2801ADF800008DF803508DF89C
:104CB00002406946A24807F03FFCC020ADF8000062
:104CC0008DF802401C208DF803006946404607F02D
:104CD00033FC4FF48C50ADF800008DF8036069464A
:104CE000384607F029FC0121964807F075FCBDE81D
:104CF000F88310B58C4C4FF48061204607F09AFC85
:104D0000E114204607F096FCA114204607F092FC1F
:104D10006114204607F08EFC2046BDE810404FF499
:104D2000804107F089BC10B57F4C4FF4806120466C
:104D300007F080FCE114204607F07CFCA11420461B
:104D400007F078FC6114204607F076FC2046BDE8A9
:104D500010404FF4804107F06DBC10B5724C4FF419
:104D60008061204607F066FCE114204607F062FCF3
:104D7000A114204607F060FC6114204607F05AFC9D
:104D80002046BDE810404FF4804107F053BC10B5F9
:104D9000654C4FF48061204607F04CFCE11420463E
:104DA00007F04AFCA114204607F044FC6114204699
:104DB00007F040FC2046BDE810404FF4804107F06A
:104DC00039BC10B5584C4FF48061204607F034FCD4
:104DD000E114204607F02EFCA114204607F02AFC1F
:104DE0006114204607F026FC2046BDE810404FF431
:104DF000804107F01FBC70B5FFF7E3FF4B4D28461D
:104E000007F00EFC1F2414EA901101D0012028E0C5
:104E1000FFF7BDFF284607F003FC14EA901101D00C
:104E200002201EE0FFF799FF284607F0F9FB14EA7D
:104E3000901101D0032014E0FFF775FF284607F01A
:104E4000EFFB14EA901101D004200AE0FFF751FFB4
:104E5000284607F0E5FB14EA901101D0102000E08D
:104E60000020002310242025374A102918D008DC00
:104E700001290DD002290DD004290DD0082910D107
:104E80000CE0202904D0402904D0802909D103E076
:104E9000938007E0948005E0958003E0302100E0F6
:104EA000402191809188084480B2908070BD10B5F7
:104EB000FFF7A1FF244988888A68824201D1002037
:104EC00010BD88600028FBD0FEF70BFC9620FFF792
:104ED00072FAFEF7F1FB012010BD70B5134E30469B
:104EE00007F09EFB1F2505EA90140A20FFF763FADE
:104EF000304607F095FB05EA9010844201D000206F
:104F000070BD01221048002134B18378012B07D0F5
:104F100041700170204670BD827002704170F9E7E7
:104F200081704270F5E7000000200140001C014044
:104F3000000C014000140140001801400010014025
:104F40000008014000040080080100202DE9F05F06
:104F5000064614460D462A2000F0B9FF300A00F03C
:104F6000C7FFF0B200F0C4FF1D36300A00F0C0FFEA
:104F7000F0B200F0BDFF2B2000F0A9FF280A00F0DE
:104F8000B7FFE8B200F0B4FF3B35280A00F0B0FFED
:104F9000E8B200F0ADFF2C2000F099FF3A2C0AD0C7
:104FA0002E2C0AD0432C0AD0C4EB041707F10F0BA8
:104FB0004FF6FF7A23E09627F8E7A527F6E7B42710
:104FC000F4E7FE48002500EB07194FF0000419F83C
:104FD00005606FEA0508300601D5002000E0504664
:104FE00000F086FF76005FEA887001D1052C02D0C0
:104FF000641C082CEFD36D1C102DE6D37F1C5F457D
:10500000DFD3BDE8F09F70B500F0F2FEEC4D8021DB
:10501000284607F011FB4CF20301284607F00CFB71
:10502000E84C4FF4F061204607F006FB02212046D1
:1050300007F000FB1021284607F0FEFA2021284641
:1050400007F0FAFA0A20FFF7B2F900F09BFE0A20F7
:10505000FFF7ADF900F020FFE22000F038FF232039
:1050600000F046FF022000F043FF542000F040FF14
:10507000E02000F02CFF012000F03AFF0A20FFF7AB
:1050800096F9E02000F023FF032000F031FF01201B
:1050900000F01DFF1420FFF78AF9E62000F017FF4B
:1050A000042000F025FF932000F022FFE02000F014
:1050B0001FFFB02000F00BFF102000F019FF802030
:1050C00000F016FFC04C2089401EC0F3072000F0FE
:1050D0000FFF207A401EC0B200F00AFFA089401ED8
:1050E000C0F3072000F004FF207B401EC0B200F098
:1050F000FFFE002000F0FCFEB42000F0E8FE208956
:1051000021780844FE30C0F3072000F0F1FE207A39
:1051100021780844801EC0B200F0EAFE2078D13029
:10512000000A00F0E5FE2078D130C0B200F0E0FEC9
:105130002078401E00F0DCFE002000F0D9FE0020A8
:1051400000F0D6FE002000F0D3FEB62000F0BFFE37
:105150006078A18908442B30C0F3072000F0C8FE16
:105160006078217B08442B30C0B200F0C1FE60782B
:105170002130000A00F0BCFE60782130C0B200F09F
:10518000B7FE6078401E00F0B3FE002000F0B0FED5
:10519000002000F0ADFEF02000F099FE032000F0AA
:1051A000A7FE212000F093FEBC2000F090FEA07826
:1051B00000F09EFEE07800F09BFE207900F098FE63
:1051C000012000F095FE292000F081FE6914284698
:1051D000BDE8704007F030BA2DE9F04104461D46A5
:1051E00016460F462A2000F072FE200A00F080FECC
:1051F000204600F07DFE300A00F07AFE304600F0D6
:1052000077FE2B2000F063FE380A00F071FE38466E
:1052100000F06EFE280A00F06BFE2846BDE8F04163
:1052200000F066BE70B505460021C72340F22B1280
:105230000846FFF7D1FF2C2000F049FE4EF660240F
:1052400002E0284600F054FE641EFAD270BD70B52C
:105250000546002140F2DF1340F21F320846FFF7F7
:10526000BBFF2C2000F033FE584C02E0284600F033
:105270003FFE641EFAD270BD10B514460B460246BE
:10528000FFF7AAFF2C2000F022FE2046BDE81040C8
:1052900000F02EBE2DE9F05F10279B4616460C4607
:1052A0000546B0F5437F4AD8B4F5E67F47D82A20B3
:1052B00000F00DFE280A00F01BFEE8B200F018FE18
:1052C000ED1D281200F014FEE8B200F011FE2B20B4
:1052D00000F0FDFD200A00F00BFEE0B200F008FE39
:1052E0000F34201200F004FEE0B200F001FE2C208A
:1052F00000F0EDFD203EF0B2354A00EB400102EB3C
:1053000081093449002501EB00184FF6FF7A0C2F74
:1053100003D018F8054000260BE019F80540FAE71D
:10532000E00701D0584600E0504600F0E1FD640877
:10533000761CB6EB570FF3D36D1CBD42E7D360E686
:105340002DE9F05F1E46DDF82880154689460746A0
:10535000B0F5437F69D8B9F5E67F66D82A2000F01A
:10536000B6FD380A00F0C4FDF8B200F0C1FD07EB4D
:105370005604641E200A00F0BBFDE0B200F0B8FD48
:105380002B2000F0A4FD4FEA192000F0B1FD09F038
:10539000FF0000F0ADFD09EB0604641E200A00F0DA
:1053A000A7FDE0B200F0A4FD2C2000F090FDA5F1D7
:1053B000200AB8F1000F0FD000255BE0D0E4000810
:1053C00000140140001801401401002000DC050019
:1053D0006CDA0008E0DE0008002424E00C2E06D081
:1053E000F84800EB0A10002510F8048017E0F64892
:1053F0000AEB4A0100EB8100F5E75FEAC87001D0D3
:10540000F24800E0F248008882B209EB040081B261
:10541000781980B2FFF730FF4FEA58086D1CB5EBE2
:10542000560FEAD3641CB442D8D3EAE50C2E08D058
:10543000E44800EB0A10002410F8058009EB050B86
:1054400014E0E1480AEB4A0100EB8100F3E75FEA70
:10545000C87008D0DD481FFA8BF1008882B2381975
:1054600080B2FFF709FF4FEA5808641CB4EB560FEF
:10547000EDD36D1CB542D9D3C3E52DE9F84F1F001C
:10548000DDF8288016460D46044600D110274FF45B
:1054900043794FF4E67A4FF6FF7B3078002816D038
:1054A0004C4501D900243D44554504D900242546E6
:1054B0005846FFF7CCFECDF8008032783B462946AF
:1054C0002046FFF73DFF04EB5704761CE5E7BDE8F7
:1054D000F88F2DE9F0411D4614460E4607469BB253
:1054E00092B2DDF81880FFF777FE2C2000F0EFFC79
:1054F000E41BA81B444302E0404600F0F9FC641E94
:10550000FAD2BDE8F0812DE9F05F9B4616460D46C4
:10551000044610274FF443784FF4E6794FF6FF7AAC
:1055200015E0444502D90024E81985B24D4504D957
:10553000002425465046FFF78AFE32785B4629460E
:105540002046FFF7A7FE04EB570084B2761C3078A4
:105550000028E6D155E52DE9F04117460E460546EF
:10556000FFF78AFE6C1CA0B23A463146FFF784FE74
:10557000761CB1B23A462846FFF77EFEB1B2A0B221
:105580003A46BDE8F04177E62DE9F05F00249A46FF
:1055900016468B46804615004FF00A0707D1302289
:1055A000FFF778FE03E0B5FBF7F5641CE4B2002DCD
:1055B000F9D12546B94616E0671EF9B20A2000F077
:1055C0009DFCB6FBF0F1B1FBF9F209FB1212281BAE
:1055D00000EB400108EB4100303280B2534659469F
:1055E000FFF758FEFCB2002CE6D1032D08D108F1DC
:1055F000120053465946BDE8F05F80B2202249E6CA
:10560000FFE42DE9FE4F0026A2EB000882465F1A58
:10561000701E35468946B8F1000F02DD4FF00101DA
:1056200002E003D14FF00001019102E0C8F100084F
:105630000190002F02DD4FF0010002E003D14FF096
:105640000000009002E0C7F1000700904046B84516
:1056500001DD044600E03C46601C4FF0000B029068
:1056600016E01FFA89F11FFA8AF00C9AFFF704FE80
:1056700046443D44A64202DD0199361B8A44A542B8
:1056800002DD00992D1B89440BF101001FFA80FBFC
:1056900002998B45E5DDBDE8FE8F2DE9F8431D46F7
:1056A000089C16460F4680460B460094FFF7A9FF5C
:1056B00042462B46394610460094FFF7A2FF324679
:1056C0002B46394610460094FFF79BFF2B46324687
:1056D000194640460094FFF794FFBDE8F8832DE992
:1056E000FF4F804600241546032083B00F46A0EBF1
:1056F000450661E0A7EB0409A8EB050A1FFA89F14A
:105700001FFA8AF0069AFFF7B7FD08EB0500019033
:105710001FFA89F180B2069AFFF7AEFD781981B2BF
:10572000A8EB040B00901FFA8BF0069AFFF7A4FD7C
:105730001FFA89F11FFA8AF0069AFFF79DFDA7EB81
:1057400005091FFA89F11FFA8BF0069AFFF794FDFD
:10575000019807EB040B1FFA8BF180B2069AFFF752
:105760008BFD1FFA89F108EB04091FFA89F0069AEC
:10577000FFF782FD0098069A81B21FFA89F0FFF7C1
:105780007BFD1FFA8BF11FFA8AF0069AFFF774FD72
:10579000641C002E03DA06EB8406B61D04E0601BD1
:1057A00006EB80060A366D1E781981B208EB0400FC
:1057B00080B2069AFFF760FDAC429BDD07B0BDE802
:1057C000F08F0000E0DE00086CDA0008B402002070
:1057D000B802002070B505460E462A2000F077FB7F
:1057E0002C0A204600F084FB284600F081FB20466E
:1057F00000F07EFB284600F07BFB2B2000F067FBCF
:10580000340A204600F074FB304600F071FB20465D
:1058100000F06EFB3046BDE8704000F069BB2C2004
:1058200000F055BB2DE9F0470546984616460F4651
:105830002A20DDF8209000F04AFB380A00F058FBDF
:10584000F8B200F055FBA8F10104200A00F050FB6B
:10585000E0B200F04DFB2B2000F039FB300A00F0E5
:1058600047FBF0B200F044FBA9F10104200A00F06C
:105870003FFBE0B200F03CFB2C2000F028FBA8EB43
:105880000700A9EB060100244843460007E0291958
:10589000285D497800EB012000F02AFBA41CB442EB
:1058A000F5D3BDE8F0872DE9F04107461D461446C3
:1058B0000E462A2000F00BFB380A00F019FBF8B264
:1058C00000F016FB641E200A00F012FBE0B200F0AC
:1058D0000FFB2B2000F0FBFA300A00F009FBF0B2BE
:1058E00000F006FB6D1E280A00F002FBE8B200F093
:1058F000FFFABDE8F0412C2000F0E9BA2DE9F84F9D
:10590000804693460C460A25282000F0E0FADFF88E
:105910001094DFF810A400264FF6FF77B8F1000FBF
:1059200056D1052C01D34FF09905BBF1000F05D0DE
:105930001F21C9F80070CAF8001003E0C9F8006020
:10594000CAF800700520B4FBF0F100FB114000EB39
:10595000C00101EB00100A2101EB80000D3084B181
:10596000012C12D0022C14D0032C16D0042C18D0E9
:10597000052C1AD0062C1CD0072C1ED0082C20D0A9
:1059800026E01023E8A200961EE01023E8A200966D
:105990001AE01023E8A2009616E01023E8A2009671
:1059A00012E01023E8A200960EE01023E8A2009671
:1059B0000AE01023E8A2009606E01023E8A2009671
:1059C00002E01023E8A2009605F14A01FFF755FD19
:1059D000292000F07CFAC9F80060CAF8007076E56A
:1059E000F8B54FF6FF70FFF732FC0A2500242E466B
:1059F0000527B4FBF7F007FB104000EBC00101EBFB
:105A0000001006EB8000052C01D34FF0990505F13D
:105A10003C0300F13B0229460094FFF744FF0022BB
:105A200021461046FFF76AFF641CE4B2092CE0D35C
:105A3000F8BD30B585B00D460446CCA1684607F0E8
:105A400037F99DF80020202A01D0303A00E04322A7
:105A500029462046FFF77AFA9DF8012004F11E003E
:105A6000202A01D0303A00E043222946FFF76EFA9F
:105A70009DF8022004F13C00202A01D0303A00E0D9
:105A800043222946FFF762FA9DF8032004F15A00E9
:105A9000202A01D0303A00E043222946FFF756FA87
:105AA0009DF8042004F17800202A01D0303A00E06B
:105AB00043222946FFF74AFA9DF8052004F1960093
:105AC000202A01D0303A00E043222946FFF73EFA6F
:105AD00005B030BD2DE9FF5F98460E9F164604467F
:105AE000B0F5437F7DD80198B0F5E67F79D82A20BC
:105AF00000F0EDF9200A00F0FBF9E0B200F0F8F94F
:105B000004EB58056D1E280A00F0F2F9E8B200F027
:105B1000EFF92B2000F0DBF90198000A00F0E8F91A
:105B20000198C0B200F0E4F9019800EB08056D1E81
:105B3000280A00F0DDF9E8B200F0DAF92C2000F0D4
:105B4000C6F9203E02960FB10026B7E0002088E09B
:105B5000B8F1100F03D0B8F1180F33D07FE00298DE
:105B60004FF000064FEA401101EB490081490D5CFE
:105B70000844019990F801A001EB0907280601D516
:105B8000674800E06748B9B2008882B2A01980B2C5
:105B9000FFF772FB6D00761C072EEFD307255FEA37
:105BA0000A6001D55E4800E05E48B9B2008882B262
:105BB000601980B2FFF760FB6D1C4FEA4A0A0E2D98
:105BC000EDD34CE0029809EB490100EBC0006A4AB2
:105BD00001EBC000115C104490F801A090F802B0F5
:105BE00000E042E04FEAC10501994FF0000701EBE8
:105BF0000906280601D54A4800E04A48B1B20088A3
:105C000082B2E01980B2FFF737FB6D007F1C052FD1
:105C1000EFD305255FEA0A6001D5414800E041481D
:105C2000B1B2008882B2601980B2FFF725FB6D1C0B
:105C30004FEA4A0A0D2DEDD30D255FEA0B6001D521
:105C4000374800E03748B1B2008882B2601980B2AC
:105C5000FFF712FB6D1C4FEA4B0B122DEDD309F130
:105C6000010081464045FFF473AFBDE8FF9FB8F1E6
:105C70000C0F0BD04149029801EB00100025875D05
:105C80000198DFF89CA000EB060913E002983C495C
:105C900000EB400001EB8000F0E7F80708D0BAF80D
:105CA00000001FFA89F182B2601980B2FFF7E4FAAE
:105CB0007F086D1CB5EB580FEFD3761C4645D6D345
:105CC000D3E72DE9F8431D00DDF8208017460E4686
:105CD00004461DD110251BE0B4F5437F01D90024F3
:105CE0002E44B6F5E67F05D9002426464FF6FF7010
:105CF000FFF7ADFACDF800803A782B4631462046C2
:105D0000FFF7E8FE102D07D0182D07D02C447F1C7C
:105D100038780028E0D1E0E40E34F8E71234F6E7F2
:105D2000B4020020B80200205069637475726500E7
:105D30005468696C7300000047616D6500000000E5
:105D400045617274680000004D757369630000005E
:105D5000436C6F636B0000004170706C6500000065
:105D6000526164696F000000534D530025366C6426
:105D70000000000000F10008C0030108E0DE000898
:105D80006CDA000800B597B00220109000200521C1
:105D9000CDE9110113904FF080511490CDE9150118
:105DA0000821CDE902011021CDE9041001900790EE
:105DB00009020890CDE909010B900C900D9010A8F4
:105DC0000E900F9001A806F057FB6420FEF7EFFA43
:105DD0000121002006F040FB6420FEF7E8FA0121D3
:105DE000080206F099FC6420FEF7E1FA17B000BD46
:105DF000F8B54FF40050ADF8000010248DF80340C2
:105E000003204D4D8DF802006946284606F094FBAC
:105E100002204A4EADF800006946304606F08CFB81
:105E20000120ADF800006946304606F085FBADF86C
:105E3000004018248DF803406946284606F07CFB94
:105E40002020ADF800008DF803406946284606F092
:105E500073FB4CF20370ADF800008DF80340694607
:105E6000284606F069FB4FF68070ADF800008DF80B
:105E700003406946304606F05FFB8020ADF8000025
:105E80006946284606F058FBE814ADF8000069465C
:105E9000284606F051FBF8BD10B5284C02212046DB
:105EA00006F0C8FB0A20FEF782FA0A20FEF77FFA06
:105EB0000A20FEF77CFA0A20FEF779FA0A20FEF79C
:105EC00076FA2046BDE81040022106F0B5BB4FF03F
:105ED000C041088070474FF0C041088070474FF0C4
:105EE000C0421080164801807047154800887047EE
:105EF0001349088070471249088070470346012003
:105F000000E058430A00A1F10101C9B2F9D170477C
:105F10000346012000E058430A00A1F10101C9B283
:105F2000F9D1704700F0F800000201F0FC0140EAEE
:105F3000C10040EAD200704700140140001801403F
:105F400000000260F1A005F0EAB910B5F64C208817
:105F5000002809D1FDF71CFC4FF47A70FEF72BFAEC
:105F6000FDF717FC5020208010BD10B50B21EFA0CD
:105F700002F0B9FE4FF47A742046FEF71CFAFDF7E2
:105F8000FCFB2046FEF717FABDE81040FDF7F0BB1A
:105F900010B50446E8489AB041680091E748E849DE
:105FA00003680A68E7A101A806F082FE01A920465D
:105FB00002F04EFE4FF47A70FEF7FDF91AB010BDF4
:105FC00005F042BA704770B504468EB00522E9A1CB
:105FD000401C05F059FD00254FF49676A0B108222B
:105FE000E6A1601C05F050FD18B30522E6A1601C77
:105FF00005F04AFD002805D1207D402802D1A01DD2
:1060000002F0FDF80EB070BD1423E1A2322130463B
:106010000095FFF732FAE572A01D05F044FD014638
:1060200004228C20FEF74EFDDF4902460860DFA106
:1060300016E01423E1A2322130460095FFF71DFA45
:10604000A57304F1090005F02EFD02F044FB0146A2
:1060500004228C20FEF736FDDC4902460860DCA1F4
:1060600001A806F025FE142301AA50213046009510
:10607000FFF703FADBA1022003F0B6FDC2E72DE92A
:10608000F043DA4FD84E00253868A3B030444FF4BF
:10609000967910F81C1C522908D0492918D0522989
:1060A0001FD044297CD0412979D08EE010F81B1CE8
:1060B0004529FAD110F81A1C532916D11423CCA261
:1060C000322148460095FFF7D8F90B2197A019E136
:1060D00010F81B1C412978D110F81A0C50287DD0DB
:1060E00073E010F81B1C45296FD110F81A0C4728D3
:1060F0006BD11423C2A2322148460095FFF7BDF9A7
:106100003868C54C3044042210F80F1D21704178C6
:1061100061708078414660F30701A07088466C206A
:10612000FEF7D0FC38684146304410F80C2DE27080
:1061300062F307014278227162F30F218278627163
:1061400062F31741C078A07160F31F618846042292
:106150007020FEF7B7FC38684146304410F8082D2F
:10616000E27162F307014278227262F30F218278B2
:106170006272C07862F31741A07260F31F61E5722A
:1061800004227420FEF79EFC2246A4A104A806F077
:106190008FFD142304AA5021009566E000E00CE076
:1061A00010F81B1C452910D110F81A0C4C280CD1E2
:1061B00014239CA20095322157E010F81B1C55298E
:1061C00003D110F81A0C54281DD006229BA1864832
:1061D00005F05AFC00284CD0082200E04DE099A1BF
:1061E000814805F051FC002843D0052298A17E4843
:1061F00005F04AFC002840D03868304410F81C1CD8
:106200004D293ED045E0142393A232214846009503
:10621000FFF733F93868964C3044424610F8081DB1
:10622000217061F307024178617061F30F22817878
:10623000A170C07861F3174260F31F629046E0706E
:10624000042241467820FEF73DFC2078E378A278CE
:1062500061788DE80F002346424686A104A806F027
:1062600027FD142304AA194600954846FFF705F9AF
:1062700043E15D48FFF7A7FE3FE1142384A20095A8
:1062800099E710F81B1C412903D110F81A0C4E286D
:1062900006D0082284A1544805F0F6FBA8B32CE1EF
:1062A000142384A2322148460095FFF7E6F83868A7
:1062B000304410F80F1D8DF8741041788DF875106A
:1062C00081788DF87610C1788DF8771001798DF886
:1062D000781041798DF8791081798DF87A10C1792B
:1062E0008DF87B10017A8DF87C10417A8DF87D1045
:1062F000807A8DF87E008DF87F501DA8FFF748FE4C
:10630000092173A002F0EFFCF7E0E7E048656C6C50
:106310006F2C20576F726C6421204750492D383301
:1063200031300D0A00000000200300204154244CAD
:106330004754524553455400B8720020F4020020DF
:106340003403002030372D312DB9ABB0D43A253588
:106350006C75206B6720BFC0B4C33A25356C7520BF
:106360006B6720BEEEC1A63A25356C75206B6720A1
:1063700000000000524641433D000000525745498D
:106380004748543D00000000444154453D00000092
:106390005245414C5F5745494748545F4641435435
:1063A0004F52202021212100BC00002046414354AF
:1063B0004F523D256C642020000000005245414CA6
:1063C0005F5745494748542021212100EC02002015
:1063D0005245414C5F5745494748543D256C642020
:1063E00020000000736574005C73002050030020DF
:1063F0004D4F44454D205245534554202121210005
:1064000054454C4550484F4E455F524547495354BB
:10641000524154494F4E0000D472002054454C3D27
:106420002573000054454C4550484F4E455F444548
:106430004C4554494F4E2021212100002352464112
:10644000433D000023525745494748543D00000052
:10645000234941503D000000444154415F53454EA3
:1064600044494E475F54494D4520202121210000D9
:10647000E8720020534D532054494D453D256C751D
:106480002E256C752E25632563256325630000008A
:106490004649524D5741524520444F574E4C4F416B
:1064A0004420202121210000235A49474245453DEF
:1064B000000000004D414E55414C204441544120C4
:1064C00053454E44494E4720202121210000000021
:1064D0004154244C475441434B0000001423FDA277
:1064E000322148460095FEF7C8FFFD4AFDA104A8E9
:1064F00006F0DEFB04A804F0A7FF00203554401C82
:10650000FF28FBDDFA4CFBA104A8227806F0D0FBA3
:10651000102304AA142100200095FEF7AEFF257079
:106520004FF47A703D60FDF746FF2278F1A104A890
:1065300006F0BEFB102304AA14214C4648460095E1
:10654000FEF79BFF1023F3A2322120460095FEF7B1
:1065500094FF23B0BDE8F083F548F64A016810685F
:10656000814202D14FF0FF307047401C0A2190FB5E
:10657000F1F301FB13001060704770B5EC4C064658
:106580000A2120684FF0FF35401C90FBF1F201FB1F
:1065900012002060304605F067FA421CE648216888
:1065A00000EB0120314605F053FA284670BD1FB5B7
:1065B000E548E24BE24AE34900681B681268096853
:1065C0008DE80F00E148E3A10368E1480268ED4867
:1065D00006F06EFB002000901423EA4A4FF4E671A7
:1065E000AA20FEF74AFF04B010BD70B58EB000249B
:1065F0003422E549684605F007FAE4480168B9B372
:106600000021641E016006F0C5F9E14D40F26D11F4
:10661000B0FBF5F2B2FBF1F1CD4B1E2619606FF421
:10662000B67303FB0123B3FBF6F3C84E336040F2AD
:106630006D164E4306EB91015DF82330511AC91ACD
:10664000C14B491E196005FB12014FF46162B1FB99
:10665000F2F0BC4B02FB101218603C20B2FBF0F2CF
:10666000B74B1A60B1FBF0F200FB1210B34908609F
:106670002046C7E42DE9F84F4FF0000ADFF814B3C5
:10668000C54CDFF81883DFF8189387E0FCF75AFD54
:10669000C449086005F0C3FBC349096805F068FAFE
:1066A00005F0DCFBC149C24DC24A08602968411AA5
:1066B000116004D5494211600121E17201E084F8C2
:1066C0000BA0E16A401ABC490860BC481268BC498A
:1066D0000068B2FBF0F0096848432063B9480068DD
:1066E00038B3B9A1A74806F0E3FA56461023A54AE5
:1066F0004FF496716420CDF800A0FEF7BEFEB6A15F
:10670000A0482A6806F0D4FA10239E4A4FF4A571D7
:1067100064200096FEF7B1FEB4A19A48226B06F001
:10672000C7FA1023974A4FF4B47164200096FEF71D
:10673000A4FEE07A216B0028DBF8000001D0411AAA
:1067400000E00144AE48C8F800100768A7F51C50E7
:10675000103817D0D8F8000005F06FFB05460E463C
:10676000384605F06AFB0022A64B05F0E9FA2A46F6
:10677000334605F073FA05F09DFBE06405F06EFB0F
:10678000C8F80000A048D8F80020006800F5FA60BA
:10679000824203D296216420FFF74BF999F800005A
:1067A00000283FF473AFBDE8F88F2DE9F84F4FF69E
:1067B000FF70FEF74CFD0024102394A20A216420F0
:1067C0000094FEF75AFE102394A22821642000941E
:1067D000FEF753FEDFF8589296A16A48D9F80020D8
:1067E00006F066FA1023674A6E2164200094FEF7D3
:1067F00044FE0027944E8C2556F827303A4693A144
:10680000604806F055FAC7EB071005EB400110236E
:106810005C4A64200094FEF730FE7F1C072FEBDB00
:106820008F4F90A157483A6806F042FA4FF4AF7A7A
:106830001023544A514664200094FEF71EFE502156
:10684000642002F07EF9A0F57061E63941D13C6028
:10685000B846C9F800404F4634607460B460F460D4
:1068600034617461B461FEF750F9C820FDF7A3FDEF
:106870000121080205F050FF6EA142483A6806F077
:1068800017FA10233F4A6E2164200094FEF7F5FDAD
:10689000002756F827303A466CA13A4806F008FA25
:1068A000C7EB071005EB40011023364A6420009423
:1068B000FEF7E3FD7F1C072FEBDB6AA13148D8F818
:1068C000002006F0F5F910232E4A5146642000946A
:1068D000CEE0CFE05A494742454520212121000022
:1068E0006473002041542B55433D25730000000084
:1068F000E00200205573617274335F736D735F72D1
:10690000656365697665645F666C61673D25642CC7
:1069100020000000202020202020202020202020D7
:1069200020202020202020202020202020000000C7
:106930006C00002070000020960400204C03002012
:106940004803002044030020400300203C030020B3
:1069500038030020446174653A32302530326C755A
:106960002D2530326C752D2530326C752C205469F4
:106970006D653A253032643A253032643A2530323A
:10698000642E0000C24B0020706B010884010020BF
:1069900080510100EC02002024010020340300207B
:1069A0009602002028030020340000202403002049
:1069B000300000202C0300203003002010000020B5
:1069C0000C0000200C03002064696666315F313DD5
:1069D00025366C7520000000765F6164635F6F721E
:1069E000675F313D25366C752000000067786C5775
:1069F00065696768745F313D25366C75200000005D
:106A0000BC0000200088C3402800002020444154DE
:106A100041205F434C4541522000000020494E5028
:106A200055542050415353574F52442121212000A7
:106A3000F4020020676E6C4461696C79546F746174
:106A40006C3D25366C752000B8720020256420202E
:106A5000676E6C5072653D25366C75200000000035
:106A6000F80200206461793D25366C752000000035
:106A7000FEF703FD97E6F8B500244FF6FF70FEF72A
:106A8000E6FB00251023F5A26421C8200095FFF73E
:106A900018F91023F7A28221C8200095FFF711F9F9
:106AA0001023FAA2A021C8200095FFF70AF91023AD
:106AB000FCA2BE21C8200095FFF703F94FF4FA604D
:106AC000FDF779FCFD4DFE4EFEF7F1F9F0B130888F
:106AD000285C0A281CD006DC01280CD0032807D02B
:106AE000072813D10DE00F2808D010280ED10BE095
:106AF000FDF79AF90AE004F004F807E0FFF755FE05
:106B000004E001F0D3FE01E001F02BFD002CDBD00E
:106B1000F8BD10B5FEF7CBF9002820D0E849E748CA
:106B20000988405C0B2813D007DC01280CD003280F
:106B300015D1BDE81040FDF777B90F280CD010280B
:106B40000DD1BDE8104096E7BDE8104003F0D9BF75
:106B5000BDE8104001F0AABEBDE8104025E610BD1A
:106B600010B5D84886B00024D74904604FF6FF70AE
:106B700008601023D5A29621C8200094FFF7A1F841
:106B8000D6A2D8A101A806F093F8C821102301AA23
:106B900008460094FFF795F81023D5A2FA21C820E3
:106BA0000094FFF78EF806B010BDD0B064200490BA
:106BB0000420479000204C9072B6FDF711FBFDF7C2
:106BC00096FB62B6FEF70AF8FCF77AFD04F0DBFAF2
:106BD000FCF7CEFD6420FDF7EEFB0B21AFF6B40011
:106BE00002F081F86420FDF7E6FBFCF7C6FD4FF4E8
:106BF0007A70FDF7E0FBFDF71BFCFDF740FE04F0AB
:106C000005F801F0E5F945F2555005F02BFD062099
:106C100005F01CFD4FF6FF75284605F01DFD05F03B
:106C20000DFDFFF78FF9FCF7A3FD1021B74805F024
:106C300003FDFEF7E8F92846FEF709FB2820FFF7D9
:106C400046F91E20FDF7B7FBFFF78AFF2920FFF763
:106C50003EF94FF4FA60FDF7AEFBAD4950200880D5
:106C6000AC48006805F0E4F8AB49096804F080FF1F
:106C700005F0F4F8A94900240860A9490A20086031
:106C8000A8480470FFF745FF2820FFF720F92846A1
:106C9000FEF7DDFAA4484FF4C87240F2262140689E
:106CA00000F5C8704B9000909F4803680C3003F2C9
:106CB0002623CDE94903FEF7B5FD1F25E6234FF452
:106CC0002F7282214FF4E1700095FEF7E6FC10234D
:106CD00096A287214FF4FA700094FEF7CEFBEB23C7
:106CE00040F2C1227D2140F2BD100095FEF7D5FC97
:106CF0009248962102684FF4FA70FEF79AFEE62356
:106D00004FF4AF7282215F200095FEF7C6FCE802C7
:106D10000090EB2340F263127D215A20FEF7BDFC68
:106D2000102387A2872196200094FEF7A6FB292036
:106D3000FFF7CDF840F6B830FDF73DFB844D2868ED
:106D400058B184A107A805F0B3FF142307AA4FF494
:106D50008C710A200094FEF790FB83A004F057FA90
:106D600010216A4805F068FCFFF784FC4FF47A763E
:106D70003046FDF720FBFFF77DFC3046FDF71BFB9F
:106D8000FFF778FC3046FDF716FB7B48C47270486D
:106D90000068B0B1784AAFF67C1107A805F088FF0B
:106DA0004FF49675142307AA4FF4A5712846009452
:106DB000FEF763FB2946102370A208460094FEF7F5
:106DC0005CFB75480021046074480460744A00202C
:106DD00002EB01221454401CFF28FBDD491C0A2948
:106DE000F4DB7048048070480480704900204FF440
:106DF000FA520C54401C9042FBDB6D4804806D48F5
:106E000004806D4804606D4804606D4804606D48FE
:106E100004606DA004F018FBFCF793FC6CA004F078
:106E2000F6F96F48DFF8BCA101680AF13800489014
:106E3000002911D000250D216BA001F054FF642022
:106E4000FDF7B5FA6D1C032DF5DB6BA004F0DFF93F
:106E500000254FF4D777E1E035E10000204B45599C
:106E6000312020202020203A205445535420202037
:106E700020000000204B4559332020202020203ABC
:106E80002043414C2020202020000000204B455969
:106E90005F454E544552203A20534554202020202F
:106EA00020000000204B45595F434C454152203A99
:106EB0002052455455524E2020000000C0000020B2
:106EC0000C010020B4020020B80200204D4F4445C0
:106ED0004C3A4750492D383331300000312E35625D
:106EE0003000000056455253494F4E3A257300007A
:106EF000472D5445434820494E5445524E4154492C
:106F00004F4E414C20434F2E2C20000000080140E2
:106F10002003002014000020340000203000002056
:106F2000100000208C02002018450108544F4441F5
:106F300059204F555450555400000000F4020020D1
:106F400043555252454E5420574549474854000036
:106F50000C0300204765745F5765696768742829CA
:106F6000206265666F7265004765745F5765696783
:106F70006874282900000000D47200204461746104
:106F80002073656E64696720746F20757365725F26
:106F90004669727374212100700000206C0000208B
:106FA000960400207600002074000020961800202F
:106FB0007A000020780000208C000020640000206F
:106FC000900000206800002041544530000000007F
:106FD000646F20204D41494E204C4F4F500000001F
:106FE0001C030020F47200204154244C47544445B3
:106FF0004C524D3D2A0000006765745F63646D610B
:107000005F696E666F5F574149542843444D415F45
:107010004745545F54454C4E4F2900004FF4E678E5
:107020005646C5F1640296216420FEF702FD6420F5
:10703000FDF7BDF9FEA1662002F081F9FEA16720EF
:1070400002F07DF9FEA1682002F079F9B06C0090A1
:107050002A46FDA107A8489B05F02AFE142307AA8B
:1070600039460A200094FEF708FA06F154000FC8CA
:107070008DE80F00D6E91323F8A107A805F018FE44
:10708000142307AA41460A200094FEF7F6F96D1C66
:10709000642DC6DBFB480068A8B9FBA107A805F072
:1070A00007FE142307AA39460A200094FEF7E5F9E3
:1070B000F5A107A805F0FCFD142307AA41460A2004
:1070C0000094FEF7DAF9C821022003F0D7F8C821AE
:1070D000022003F0D3F8F8490A200860F7494FF47A
:1070E000FA600860F6484FF0FF31DFF8E49304607F
:1070F000F448DFF8E0B34FF001080460F2480160A3
:10710000F248416801F5C8714F9150F80C1B01F22B
:107110002621CDE94D01DB4E306800B3EE48F0A1E9
:1071200000680090E8480368EC48026807A805F08A
:10713000BFFD142307AA50214FF496700094FEF768
:107140009CF9F1480268F1A107A805F0B1FD1423EC
:1071500007AA4FF48C710A200094FEF78EF905F00F
:107160006DFADAF85800049988421ED0E9498A6A13
:10717000DAB155468C62D5E91732DAF85410CDE908
:107180000310CDE905320AF1480207CA8DE807006D
:10719000DD48489B0268E0A107A805F089FD07A922
:1071A000EAA001F055FDA86D0490FFF71EFAB5485E
:1071B0000068E0B1FFF7FBF9C14844F25061DAF82A
:1071C0005C200368C048006803918DE80D00E24828
:1071D00099F80030E149026807A805F069FD142319
:1071E00007AA4FF48C710A200094FEF746F9DC4F91
:1071F000C84D04F0E0F90646401C2AD0304603F0A2
:10720000F4FF286A3E54401C28620A2EF1D13C54F7
:10721000D448006870B10222D3A1D14804F034FCF4
:1072200020B9CF4804F020FC052811D3CC48FFF743
:10723000A4F90DE0002606E0B85D242802D1B819B3
:10724000FEF7C1FE761CC64804F00EFCB042F3D82F
:107250002C62C64E04F0C0F90746401C0DD03846DB
:1072600003F0C3FF686A3754401C68620A2FF1D1EB
:107270003454BE4804F0C6F96C62BD4E3068002834
:107280004FD1FFF769F9411C4BD0C6F80080B549D2
:10729000096891B3B74F02217C2639707E700021B6
:1072A00053465A1892F838201AB107EB010C8CF8A3
:1072B0000220491C0B29F4DB7A18C91C9670009136
:1072C000AD49002601EB002705E00098B95D3218B2
:1072D000A848761C8154384604F0C6FBB042F4D866
:1072E000A6480097A7A10368A548026807A805F06B
:1072F000DFFC07A803F08BFF08E0FFE79E4901EBE6
:107300000022921CACA19B4805F0D2FC994804F0E5
:10731000ABFBAE490860AEA003F079FF954803F0DF
:1073200076FFAF48007808B1FEF7A9FE8021AD488E
:1073300005F079F920B3287A3221401CB0FBF1F234
:1073400001FB12002872EC71022809D9FCF7ECF954
:10735000A87928B1A44800786872AC7185F80A80D1
:1073600058480168642922D3046099F8000030B3BA
:10737000A87A20B3687A002856D0401E68721BE0B5
:10738000E9793220491CB1FBF0F200FB1210E871E0
:107390002C720228E4D9464685F80680FCF7BFF92E
:1073A000AC7299F800004F4600283ED0D6E299F81A
:1073B000000020B1A87A10B1687A0028DCD02879C2
:1073C00010B12C7189A10EE099F8000038B18948FC
:1073D000016859B94EF66021016087A103E0687920
:1073E00020B16C7186A1012002F0FEFB25480068E7
:1073F00068B13148026845A107A805F059FC14237B
:1074000007AA4FF48C710A200094FEF736F802F0B8
:107410008DFE2B4844F2506102688A4206D3046014
:10742000504800680028EFE0E2E38AE387E10000CB
:1074300054454C4E4F00000054494D45000000009B
:10744000525353490000000025642C2074656C3DA4
:1074500025732C727373693D202564004461746543
:107460003D253034642D253032642D2530326420A2
:1074700054696D653D253032643A253032643A25D1
:10748000303264000C030020202020202020202007
:1074900020202020202020202020202020202020EC
:1074A00020202020202020202020202020202020DC
:1074B00020202020200000008000002084000020E8
:1074C000480200204C020020FC020020C01E0108DF
:1074D000970200203403002040030020BC0000205D
:1074E000464143544F523D256C642C206769546FCC
:1074F0006461793D25642C207274635F64617465F6
:107500003D25642020000000B00200202530386CAA
:107510006400000024010020256C753A74656C3D00
:1075200025732C727373693D25642C253034642DCA
:10753000253032642D2530326420253032643A25DE
:107540003032643A25303264000000003031303986
:107550003139353430373200F8020020A46B01088D
:10756000264C00201C0300204F4B0000264D00201D
:107570006000002096030020960400207000002088
:107580006C00002043646D6153656E6451756575D0
:10759000655F71686561643D25642C2043646D619D
:1075A00053656E6451756575655F717461696C3D95
:1075B00025642C202573000041542B554E4943412E
:1075C00053543D303030302C257300005C000020D7
:1075D0003A3A3A3A3A3A3A3A3A3A3A3A00000000F3
:1075E000E002002000100140E802002042432D424A
:1075F000000000008C00002042432D4A00000000E3
:1076000042432D45000000006FD00A26F748DAF803
:1076100058105746037891FBF6F2B3FBF6F0904210
:107620001BD106FB103006FB1211884215D1687879
:1076300098B91023AFF2BC626421C8200094FDF712
:107640001CFFEB48FEF7A4FC4FF47A70FCF7B3FE86
:10765000E848FEF79DFC85F80180E748BB6D02789D
:1076600093FBF6F0B2FBF6F181421AD106FB112131
:1076700006FB1030814214D1A87890B91023DFA204
:107680006421C8200094FDF7F8FED948FEF780FC7D
:107690004FF47A70FCF78FFED648FEF779FC85F838
:1076A0000280DE480278B86DB2FBF6F190FBF6F38B
:1076B00099421AD106FB112106FB1300814214D115
:1076C000E87890B91023D6A26421C8200094FDF771
:1076D000D4FEC748FEF75CFC4FF47A70FCF76BFEF3
:1076E000C448FEF755FC85F80380D44AD448116895
:1076F0000068814223D099F8001001BB10602C7003
:107700006C70AC70CF49EC70062001EB800252F82F
:10771000042C41F82020401EF7D1CB4E3068086081
:10772000CA480168491C01603460FDF7EEF9FEF7B4
:107730001CFC96214FF4FA703268FEF77AF94C98E7
:1077400040B9FBF7FFFCC24E3060FBF7FBFC30603A
:1077500001204C90FBF7F6FCBD49BE4E0860317825
:1077600000297DD004F05BFBBB49096804F000FAF6
:1077700004F074FBB949BB4F0860B9490968401A65
:10778000386004D54042386085F80B8000E0EC7228
:10779000B5480068D0B1B5A1B7483A6805F088FA95
:1077A0001023B54A4FF496710A200094FDF765FE48
:1077B000AB48B2A10268B04805F07AFA1023AE4A8D
:1077C0004FF4A5710A200094FDF757FEA348E96A1B
:1077D0000068401AAD490860AD4938680968B0FBD7
:1077E000F1F2AC48006842439F482A63006858B1F0
:1077F000A9A1A14805F05CFA10239F4A4FF4B47187
:107800000A200094FDF739FEE87A296B0028A64883
:10781000006801D0411A00E00144A448CBF80010F0
:107820000068A0F51C5110392BD004F0F8FA019033
:10783000DBF8000004F001FB07460091019804F01A
:1078400026FB00229A4B04F07BFA3A46009B04F098
:1078500005FA04F02FFB074604F000FB8D4900E019
:107860001CE0096890FBF1F201FB120004F0D7FA6A
:107870000146384604F076F9E86404F0EFFACBF8F4
:1078800000008C48DBF80020006800F5FA608242B6
:1078900003D296216420FEF7CCF8347099F80000EA
:1078A000C8B1287B401CC0B228730A2813D92C7396
:1078B000DBF80000296988420DDA091A64290ADC1C
:1078C000614B1A680A441A602861A86196214FF436
:1078D000FA70FEF7AEF8FDF7EAFA00283ED07749D5
:1078E00075480988405C012806D00C2837D00D283F
:1078F0007AD00E2832D1EAE171486B4F71A102684B
:107900003B6807A805F0D4F9142307AA1E21C82054
:107910000094FDF7B2FD4E4D02E0FBF713FC28602A
:1079200030780028F9D02868054604F078FA4A49EA
:10793000096804F01DF904F091FA4949604E0422E7
:1079400008603C60294610463560FDF7BBF83060A2
:10795000042244203968FDF7B5F8386085E14FF618
:10796000FF70FDF774FC1F25E6234FF42F72822170
:107970004FF4E1700095FDF790FE1023AFF654220E
:1079800087214FF4FA700094FDF777FDEB2340F266
:10799000C1227D2140F2BD100095FDF77EFEE62359
:1079A0004FF4AF7282215F200095FDF776FEE8026A
:1079B0000090EB2340F263127D215A20FDF76DFE0B
:1079C0001023AFF68422872196200094FDF755FD01
:1079D00099F8000048B14F980090DDE94D034FF44D
:1079E000C87240F2262181E083E077E000030020A6
:1079F000D4720020740100200403002044617461EB
:107A00002073656E64696720746F20757365725F9B
:107A10005365636F6E64212100000000080300209D
:107A2000446174612073656E64696720746F2075AA
:107A30007365725F5468697264212100FC02002042
:107A400040030020B8720020F4020020F802002059
:107A50002803002096020020340000202403002088
:107A6000300000202C0300200C03002064696666AF
:107A7000313D25366C752000C24B0020765F616475
:107A8000635F6F72673D25366C7520003003002000
:107A9000100000200C00002067786C57656967684B
:107AA000743D25366C752000EC020020BC000020DF
:107AB0000088C34028000020C00000200C010020E6
:107AC00014000020765F7A65726F3D25366C752054
:107AD00020636F6D703D25366C7500004B980090EB
:107AE000DDE949034FF4C87240F22621FDF79AFE02
:107AF000BBE04FF6FF70FDF7AAFBBF48BF4F006821
:107B000038600025C5EB0511282000EB81062A46C8
:107B10003146FA20FDF71AFA31463A224FF48C70BA
:107B2000FDF714FA57F8252031464FF49670FDF70B
:107B300080FF6D1C072DE5DB41F28830FCF73BFC34
:107B40000DE7687AF0BB2E71DBF800202A61EA614C
:107B5000A9486A616A630068E863A948006888B355
:107B6000A8A1AC4805F0A4F84FF496711023A94AD7
:107B700008460094FDF781FCA7A1A6482A6905F0F4
:107B800097F81023A34A4FF4A5714FF49670009410
:107B9000FDF773FCA5A19F48EA6905F089F8102359
:107BA0009C4A4FF4B4714FF496700094FDF765FC55
:107BB000A3A198486A6B05F07BF81023954A4FF40F
:107BC000C37100E004E04FF496700094FDF755FC9B
:107BD0004F980090DDE94D034FF4C87240F2262122
:107BE000FDF720FE9B493E704EF6602008603CE0A9
:107BF00089F8004085F80A802C71696BDBF8000079
:107C00004646081AA863E96B042201444820296407
:107C1000FCF758FF784F0246962138604FF4FA700F
:107C2000FDF707FF76480068A0B13A684FF4FA778D
:107C30004FF496713846FDF7FCFE87A175482A6C13
:107C400005F036F81023734A4FF4B97138460094A2
:107C5000FDF713FC4B980090DDE949034FF4C8721F
:107C600040F22621FDF7DEFD6E71FEF76EF97F48CA
:107C7000016800293FF44FAA7D4904607E48C1F89D
:107C800000807C49C1F800800068A8B17B48DAF820
:107C9000541005687A4803687A4802688DE82E0017
:107CA000DAE9132378A107A805F002F807A803F082
:107CB000CBFB07A803F0ABFA47980028DAD0401EA8
:107CC00047907B4801687B480160FFF724BA4FF674
:107CD000FF752846FDF7BBFA2846FDF7B8FA3221B2
:107CE0001F254FF42F76CF00642332463846009587
:107CF000FDF7D3FCB4233246822138460095FDF7C8
:107D0000CCFC4FF482733246D22138460095FDF701
:107D1000C4FC4FF4AA7332464FF491713846009573
:107D2000FDF7BBFC4FF4D27332464FF4B9713846BD
:107D30000095FDF7B2FC60A107A8489A04F0B8FFCF
:107D40004FF4EB75102307AA462128460094FDF74F
:107D500094FB10235CA2962128460094FDF78DFB2E
:107D60005D485E490246C47207A804F0A1FF1423CF
:107D700007AAE62128460094FDF77FFB5848C27801
:107D80008178CDE900124378027856A107A804F063
:107D90008FFF142307AA4FF49B7128460094FDF728
:107DA0006CFB102354A24FF4C37128460094FDF7D6
:107DB00064FB41F27070C1E610B58CB001F0E3FADB
:107DC000524800F154011EC98DE81E00D0E913236A
:107DD0004FA104A804F06CFF04A803F045FE03467D
:107DE0000020009004AA0A214FF4FA70FDF745FB29
:107DF0000CB0002010BD0000F4020020B87200207A
:107E00000C03002067786C47726F73733D25366CE6
:107E100075200000C24B002070756C73655F77653C
:107E2000696768743D25366C752000007265665F71
:107E30007765696768743D25366C75200000000021
:107E400073746172745F7765696768743D25366C19
:107E5000752000008C000020546F646179546F74A9
:107E6000616C7265663D25366C752000C802002085
:107E7000DC020020BC0200201C0300204C03002078
:107E8000480300204403002041542B42433D244436
:107E90004154453D25303464253032642530326408
:107EA00025303264253032642530326440000000D1
:107EB00040030020FC0200204445564943455F54DE
:107EC000454C3A2573000000414E4E54454E4E41FC
:107ED0003D474F4F44000000D47200201C6400084E
:107EE000E8720020534D535F54494D453D256325AD
:107EF000632563256300000055534552333A303102
:107F0000302D323030342D3035383000F4720020CE
:107F1000253034642D253032642D253032642025FF
:107F20003032643A253032643A2530326400000041
:107F3000002141600160704702684A6000220A60C7
:107F400002680AB1116000E0416001608189491C4A
:107F50008181704702684A6000220A6002680AB1A3
:107F6000116000E0416001608189491C8181704796
:107F7000D1E900230BB11A6000E04260D1E9002191
:107F80000AB1516000E001608189491E818170471A
:107F900010B5046824B12146FFF7EAFF204610BD62
:107FA000002010BD10B5446824B12146FFF7E0FF62
:107FB000204610BD002010BD10B504462046FFF736
:107FC000E7FF0028FAD110BDB0F90C00704700009F
:107FD00008B503208DF8000000208DF80100012075
:107FE0008DF802008DF80300684604F041FB012182
:107FF0004FF0C05004F09CFB012004F087FB0120EF
:1080000004F054FC612004F00DFC0028FAD04FF479
:10801000007004F07BFC012004F072FC04F006FD0B
:1080200049F6404004F0E8FC04F0F6FC0121084663
:1080300004F0C6FC08BD704710B5012004F0B2FC86
:10804000002823D0012004F08DFCB9490122B94B4E
:108050000A604868401C48601A603C2816DB002310
:108060004B608868B44C401C886022603C280DDB63
:108070008B60C868B14C401CC8602260182805DCC1
:10808000CB600869401C0861AD48026010BD2DE955
:10809000FC410024AB4E074600946D46019420211C
:1080A000304604F06BFD0028F9D0304604F0E8FDBE
:1080B00045F82400641C05EB840050F8040C3038AB
:1080C0000A2803D3A0A004F0E3FD641E022CE6D32B
:1080D000DDE90001A74A00EB800002EB4000084404
:1080E000B84206D93946A4A004F0D2FDFF20BDE86D
:1080F000FC81C0B2FBE770B5FF263546AAA004F0AC
:10810000C7FD1720FFF7C3FF0446FF28F9D001463B
:10811000A8A004F0BDFDA9A004F0BAFD03E03B2037
:10812000FFF7B5FF0646FF2EF9D03146A1A004F0B7
:10813000AFFDA5A004F0ACFD03E03B20FFF7A7FFD7
:108140000546FF2DF9D029469AA004F0A1FD4FF471
:1081500061604443C6EB061004EB8000284470BD08
:1081600010B504F059FCFFF7C6FF04F037FCBDE87A
:10817000104004F051BC704770B516460C460546D9
:1081800004F04AFC4FF461604543C4EB041005EB76
:108190008000304404F022FCBDE8704004F03CBC98
:1081A00010B5044604F038FC204604F017FCBDE886
:1081B000104004F031BC00275D4C8AB04FF461657B
:1081C0003C2620680028FCD0276004F0E3FBB0FBCD
:1081D000F5F205FB1200B0FBF6F306FB130000906E
:1081E0007CA101A804F064FD01A803F010F8E8E701
:1081F0007FA003F00CF8FFF7EBFEFFF7DCFF2DE9A3
:10820000F0479EB0044634227B4904A803F0FCFBEF
:108210002078E178303800EB4002C2EBC01001EB6F
:10822000C002617864204143A0784FF0000A00EB5F
:10823000800001EB4000151820796179303800EB9F
:1082400080026FF02F0000EB42028E18A179E279D4
:10825000303901EB810100EB41015718217A627A34
:10826000303901EB810100EB410102EB0109A17AF8
:10827000E27A303901EB810100EB410102EB0108A8
:10828000217B627B303901EB8101A5F5A05500EB24
:108290004100D03D1418A5F5FC60532844D8701E49
:1082A0000B2841D8781E1E283ED8B9F1170F3BD8AD
:1082B000B8F13B0F38D83B2C36D8504840F26D11FE
:1082C0004FF4C85AC0E917844C30A0E8E002A5F585
:1082D000FA60414301EB900004A9401C51F82610BC
:1082E000022E084402DDA90700D1401CC1194448F0
:1082F000491E4143C9EB4912C2EB092001EB0011B1
:10830000C8EB081001EB80002044FFF749FFCDE9DE
:108310000284CDE9007933462A463AA111A804F037
:10832000C7FC11A802F073FF1EB05046BDE8F087ED
:1083300084010020C4020020C8020020CC020020DA
:10834000D0020020003801405B4552524F525D2060
:10835000656E7465722076616C6964206E756D62FD
:108360006572206265747765656E203020616E6489
:1083700020390A00F0FDFFFF5B4552524F525D204D
:10838000656E7465722076616C6964206E756D62CD
:108390006572206265747765656E203020616E6459
:1083A0002025640A0000000053657420486F757230
:1083B000732020003A202025640A000053657420B1
:1083C0004D696E7574657300536574205365636FF2
:1083D0006E64730054696D653A2025302E32643A1C
:1083E00025302E32643A25302E32640D0000000014
:1083F0003132333435360000FC6B0108F472002052
:108400008051010053594E433A3A25642D253032AC
:10841000642D2530326420253032643A25303264B0
:108420003A253032640000002DE9FF4F8FB000265E
:10843000F94A8046A0F10109DDF878B01C463546BE
:1084400002EB8807B9F10C0F05D857F8041C424617
:1084500001A804F02DFCDDE910014FF0000A102303
:1084600001AACDF800A0FDF72CFCFCF720FD98B385
:10847000EB49EA480988405C0C281AD2DFE800F092
:10848000060606060606060606061217BBF1010FCB
:108490004FF0010501DC04460CE004EB840100EB25
:1084A000410407E04FF001054FF0000402E04FF0F7
:1084B00001068DB1B9F10C0F06D857F8041C2346FC
:1084C000424601A804F0F4FBDDE91001102301AAE3
:1084D000CDF800A0FDF7F5FB002EC6D0002D0CD086
:1084E000B8F1080F09D2DFE808F00804060B3436AB
:1084F000383ACC4800E0CC48046013B0BDE8F08FB7
:10850000CA4DCC4E2C60CA4C02E0FAF71BFE20602C
:1085100030780028F9D0206803F081FCC64909684A
:1085200003F026FB03F09AFCC4490860C4490968BB
:10853000401AC4490860C4490A300968B0FBF1F028
:10854000C24909684843C24908602968081A286076
:10855000D3E7C048D0E7C048CEE7C048CCE7C04822
:10856000CAE72DE9FE4F4FF6FF70FCF770FE4FF0A3
:10857000000B5C461023BBA21E219620CDF800B054
:10858000FDF79FFB4FF47A70FBF715FF0120009475
:10859000A44DCDE90100462296212B68FFF744FF48
:1085A0004FF4FA70CDE900409F4E029069220220FC
:1085B00096213368FFF738FFAD489C4F8C22006846
:1085C0000290CDE90040032096213B68FFF72CFF85
:1085D00043F2C82041F65831CDE90010DFF874A20B
:1085E0000290AF2204209621DAF80030FFF71CFF3A
:1085F00001200094CDE90100DFF85C92D222052031
:108600009621D9F80030FFF70FFF6320CDE9004035
:10861000DFF848820290F52206209621D8F8003033
:10862000FFF702FF00940120CDE901008C4C4FF4CC
:108630008C72072096212368FFF7F6FEFCF741FABB
:1086400000214FF4807004F067F804221C20296890
:10865000FCF738FA286004222C203168FCF732FA43
:108660003060042244203968FCF72CFA3860DAF8CC
:10867000001041F27072A1F5D8505838904205D8D8
:10868000042255468C20FCF71DFA286004224D4632
:108690009020D9F80010FCF715FA2860042245460E
:1086A0009C20D8F80010FCF70DFA28600422A020C6
:1086B0002168FCF707FA01212060080204F02CF879
:1086C00040F23B1110236BA29620CDF800B0FDF7CD
:1086D000F8FABDE8FE8F70B50546564C01E0FAF792
:1086E00031FD21780029FAD003F099FB524909683D
:1086F00003F03EFA03F0B2FB51490968401A5249AF
:108700000A300968B0FBF1F05049096800FB1150CC
:1087100070BD2DE9FF4F8FB03F4A0026343A8246A4
:10872000A0F1010BDDF87890DDF870801C4635462D
:1087300002EB8A07BBF10C0F05D857F8041C524610
:1087400001A804F0B5FA00200090DDE91001102323
:1087500001AAFDF7B6FAFCF7AAFBE8B330492F48A7
:108760000988405C0C2827D2DFE800F006060606E0
:108770000606060606062225B9F1010F01DC0146B0
:1087800003E004EB840100EB4101414502DB1D9A4B
:108790008A4202DAFAF7B3FF0EE00125B9F1010FC0
:1087A00001DC044609E004EB840100EB410404E031
:1087B0000125444601E0012675B1BBF10C0F06D836
:1087C00057F8041C2346524601A804F071FA002011
:1087D000102301AA009000E003E0DDE91001FDF79D
:1087E00070FA002EB7D0002D0FD0BAF10E0F0CD2B8
:1087F000DFE80AF00B07090C484A4C4E5052545619
:10880000585A084800E00848046076E62046FFF71A
:1088100062FF0649086070E6CC010020C00000201D
:108820000C010020E4020020E8020020EC020020FD
:10883000F0020020960200203400002024030020D3
:10884000300000202C030020100000200C0000202D
:1088500034030020BC0000200C030020180300207B
:108860001C030020534554204D4F44450000000098
:1088700028000020534554204D4F444520454E4488
:10888000494E4700D248BFE7D248BDE7D248BBE7D0
:10889000D248B9E7D248B7E7D248B5E7D248B3E7FC
:1088A000D248B1E7D248AFE7D248ADE72DE9FE4F55
:1088B0004FF6FF70FCF7CBFC00241023AFF25C02F4
:1088C0001E2196200094FDF7FCF94FF47A70FBF717
:1088D00072FD0127CDE90047C74802974622036889
:1088E00096213846FFF715FF4FF4FA700094CDE952
:1088F0000100C249642202200B689621FFF709FF9C
:10890000BF48C049822200680290CDE900400B6850
:1089100003209621FFF7FDFE1726CDE90046AC495E
:108920000296A0220B6804209621FFF7F2FECDE903
:108930000046A84D0296BE22052096212B68FFF71F
:10894000E8FECDE900460296A34EDC2206209621E1
:108950003368FFF7DEFE06200421CDE90010DFF8C2
:108960007C820297FA2207209621D8F80030FFF780
:10897000D0FE43F2C822114641F658308DE8070078
:10898000DFF85CB208204FF48C729621DBF80030DF
:10899000FFF7BFFECDE900479249029709200B6817
:1089A0004FF49B729621FFF7B4FE97480094CDE9EF
:1089B00001008D490A204FF4AA720B689621FFF737
:1089C000A8FE40F2E7300094CDE90100DFF81CA2D8
:1089D0000B204FF4B9729621DAF80030FFF799FEB8
:1089E00063200094CDE90100DFF804920C204FF4DD
:1089F000C8729621D9F80030FFF78BFECDE9004709
:108A000002977C4F0D204FF4D77296213B68FFF7F9
:108A100080FEFCF756F800214FF4807003F07CFED6
:108A20007548042201681C20FCF74CF872490422A6
:108A30000860724801682C20FCF744F86F49042252
:108A40000860704801684420FCF73CF86D49042236
:108A500008605F4804687C202146FCF733F85C49D5
:108A6000042208606948210A04704170210C817059
:108A7000210EC1702C6880202146FCF723F8286065
:108A80006348210A042204704170210C8170210E78
:108A9000C170346884202146FCF714F830605D48CA
:108AA000210A042204704170210C8170210EC170D2
:108AB0008820D8F80010FCF705F8C8F80000DBF8AB
:108AC000001041F27072A1F5D8505838904205D884
:108AD00004225C468C20FBF7F5FF2060414C042209
