:020000040800F2
:1030000018AC002045310008FD620008B15C0008E2
:10301000F9620008893A0008B58200080000000043
:10302000000000000000000000000000DD6F00084C
:10303000CD45000800000000C96300087178000851
:103040005B3100085B3100085B3100084167000814
:103050005B3100085B3100085B3100085B31000820
:103060005B3100085B3100085B3100085B31000810
:103070005B3100085B3100085B3100085B31000800
:103080005B3100085B3100085B3100085B310008F0
:10309000B38200085B3100085B3100085B31000837
:1030A0005B3100085B3100085B3100085B310008D0
:1030B000757800085B3100085B3100085B3100085F
:1030C0005B3100085B3100085B3100085B310008B0
:1030D0005B310008E17A0008C17B00081D7D000813
:1030E0005B3100085B310008B18200085B310008E9
:1030F0005B3100085B3100085B3100085B31000880
:103100005B3100085B3100085B3100085B3100086F
:10311000C57900085B3100085B3100085B310008AD
:103120005B3100085B3100085B3100085B3100084F
:10313000DFF80CD000F0AEFB0048004799BA000859
:1031400018AC002005480047FEE7FEE7FEE7FEE773
:10315000FEE7FEE7FEE7FEE7FEE7FEE731310008A7
:1031600030BF704720BF704740BF7047BFF36F8FBD
:103170007047BFF34F8F7047BFF35F8F704701DF1A
:103180007047EFF31480704780F31488BFF36F8F9C
:103190007047EFF30980704780F309887047EFF3B9
:1031A0000880704780F30888704762B6704772B62F
:1031B0007047EFF31080704771B6704761B6704783
:1031C000EFF31380704780F311887047EFF312809C
:1031D000704740BA704700BA704740EA01039B0746
:1031E00003D009E008C9121F08C0042AFAD203E07C
:1031F00011F8013B00F8013B521EF9D27047D2B2E0
:1032000001E000F8012B491EFBD270470022F6E7CF
:1032100010B504460846114602462046FFF7EFFF68
:10322000204610BD034600E0401C0278002AFBD176
:1032300011F8012B00F8012B002AF9D1184670472C
:1032400010B5044604E00B7800F8013B03B1491CBB
:10325000521EF8D2204610BD0146002000E0401C5E
:103260000A5C002AFBD17047034611F8012B00F8D5
:10327000012B002AF9D11846704780EA010210B5E7
:1032800002F00042400026D04B0023D04FEA1061EC
:1032900001EB1361C0F35600C3F3560340F4000082
:1032A00043F40003A0FB0330A1F17F014FEA00408B
:1032B0001C0401D000F1010050EA134001D4400089
:1032C000491EC3B20C0604EBD010401C4008802BF2
:1032D00002D003E0002010BD20F00100002900DA38
:1032E0000020104310BD80EA010202F0004330B418
:1032F00030F0004221F0004015D0A0B1C0F3C75516
:10330000C2F3C754C2F31601C0F31600651B41F4A3
:10331000000140F400007D35814201D36D1C00E0C6
:103320004900002D02DA30BC002070474FF4000243
:103330000024814201D3091A144352084FEA410183
:10334000F7D151B1814202D14FF0004105E002D2E4
:103350004FF0010101E06FF0010104EBC55030BCFA
:10336000184400F0AEB8C10F80EAE0700844CA0704
:103370009623002100F0AEB896230022114600F0FB
:10338000A9B800F0004220F00040C10DC0F31600C3
:1033900040F400007F2901DA00207047962903DC01
:1033A000C1F19601C84001E096398840002AF4D066
:1033B0004042704720F00040C10DC0F3160040F4B9
:1033C00000007F2901DA00207047962903DCC1F153
:1033D0009601C840704796398840704700F0004217
:1033E00030F000400DD0C10D01F5607142EA01518D
:1033F0000022C0F31600520742EAD00240071143F0
:103400007047002001467047002801DBC0F10040F2
:10341000002901DBC1F1004181427047002801DB36
:10342000C0F10040002901DBC1F100418842704732
:1034300030B50B46014600202022012409E021FA84
:1034400002F59D4205D303FA02F5491B04FA02F581
:103450002844151EA2F10102F1DC30BD2DE9F05F18
:103460000546002092469B468846064681464024F3
:103470001DE0284641464746224600F02CFAB0EBB4
:103480000A0052465B4671EB0B0110D310461946F9
:10349000224600F011FA2D1A67EB01084F4622462A
:1034A0000120002100F008FA17EB00094E41201E10
:1034B000A4F10104DDDC484631462A464346BDE816
:1034C000F09F0029A8BF7047401C490008BF20F0AA
:1034D0000100704710B4B0FA80FC00FA0CF050EA1A
:1034E000010404BF10BC704749B1CCF1200421FA9B
:1034F00004F411FA0CF118BF012121430843A3EB96
:103500000C01CB1D4FEA00614FEA102048BF00209C
:10351000BCBF10BC704700EBC35010440029A4BFCF
:1035200010BC7047401C490008BF20F0010010BCCF
:1035300070472DE9FE4F074681EA0300C00F0E4693
:10354000019021F0004123F00044B81AA14105D2B6
:103550003846314617461E460B46024623F00040C9
:10356000104304D13846314603B0BDE8F08F350D25
:10357000C5F30A00C3F30A510290401A0090402894
:1035800067DAC3F3130040F4801B0198924620B120
:103590000023D2EB030A63EB0B0B00985946C0F1F2
:1035A0004002504600F088F980460C465046594685
:1035B000009A00F0A0F9C0197141EF1785EA115384
:1035C0003B433FD0019A4AB3009A012A11DC002202
:1035D000801A61EB05514FF0004303EA0555CDE930
:1035E0000025801841F580114246234600F0A2F9DB
:1035F000BAE72E050025401B61EB0601401941F595
:103600008012001852412818A6F5001343EB02015E
:1036100040EAD47018EB0808644113E064084FEAEC
:1036200038084FF0000244EAC0744FEA0553801A8C
:1036300061EB0301801841F5801149084FEA300021
:10364000801859414246234603B0BDE8F04F00F0D0
:1036500064B90198012240000023D0EB020263EB21
:10366000E07301984FEAE074381A66EB0401EBE767
:1036700083F000435DE781F000415AE72DE9FE4FFA
:1036800081EA030421F0004504F0004423F00041E6
:103690004FF0000A009450EA050302D052EA0103F9
:1036A00004D10020014603B0BDE8F08FC1F30A53F6
:1036B000C5F30A542344A3F2F3330193A0FB02B3EE
:1036C000C5F3130545F4801CC1F3130141F48018C0
:1036D0000CFB023300FB083E810A930A41EA8C513D
:1036E00043EA8853A1FB03474FEA9C2505FB03737C
:1036F0004FEA982601FB06373D05260545EA1435B5
:10370000BBEB06016EEB0503850E920E45EA8C15A8
:1037100042EA8812A5FB0206261E67EB00070C0D85
:1037200044EA0334A61947EB1350C1F313044FF0D6
:1037300000031946E5FB02014FEA033545EA14553B
:10374000019B4FEA0432009CA3F10C03CDE900A4D5
:1037500045EA060502932B4600F0ECF8A3E72DE9B5
:10376000F04D81EA030404F0004B21F000471446B9
:103770004FF0000A23F0004150EA070220D054EA3B
:1037800001021DD0C1F30A550246C1F31300C7F36D
:103790000A56C7F3130340F4801143F48013A6EBD9
:1037A0000508101BD64608F2FD3873EB010002D362
:1037B00008F1010801E092185B41B8F1000F03DA4B
:1037C00000200146BDE8F08D00204FF4801506462C
:1037D00007460EE0B2EB040C73EB010C04D3121B92
:1037E000064363EB01032F436D084FEA3000921844
:1037F0005B4150EA050CEDD152EA030012D082EA97
:10380000040083EA0105284303D100224FF000435E
:1038100008E0101B8B4102D20122002302E06FF06E
:10382000010253101AEB060047EB085110EB0A0097
:1038300041EB0B01BDE8F04D00F06FB8C1F30A5247
:10384000C1F3130140F2FF3341F480119A4202DACE
:1038500000200146704740F233439A42A2F23342BD
:1038600002DC524200F037B800F026B830B500292B
:1038700004DB4FF00044404264EB0101002B04DB09
:103880004FF00044524264EB0303994208BF904258
:1038900030BD0000064C074D06E0E06840F0010333
:1038A00094E8070098471034AC42F6D3FFF744FC85
:1038B0005C9A01087C9A0108202A04DB203A00FA6D
:1038C00002F1002070479140C2F1200320FA03F377
:1038D000194390407047202A04DB203A21FA02F075
:1038E0000021704721FA02F3D040C2F1200291403A
:1038F000084319467047202A06DBCB17203A41FAC5
:1039000002F043EAE07306E041FA02F3D040C2F16C
:103910002002914008431946704710B5002B08DA81
:10392000401C41F1000192185B411A4301D120F083
:10393000010010BD2DE9FF4D934611B1B1FA81F29E
:1039400002E0B0FA80F220329246FFF7B5FF039A08
:103950000746884640EA0B0011435B46084304D102
:103960003846414604B0BDE8F08D114653EA0200E6
:1039700016D0CAF140025846FFF7ADFF04460D4687
:103980004FF00106584652460399FFF795FF08434A
:1039900000D10026344345EAE675274345EA080886
:1039A0000E984FF00005A0EB0A014FEAD7200A312C
:1039B0004FEA47532A4640EA48504FEAD82402D5F6
:1039C00000200146CEE7281844EB0151DDE90C4503
:1039D000001904B06941BDE8F04D9EE770B501EBF8
:1039E000020410F8015B15F0070301D110F8013B48
:1039F0002A1106D110F8012B03E010F8016B01F831
:103A0000016B5B1EF9D12B0705D40023521E0FD486
:103A100001F8013BFAE710F8013B02F10202A1EBC9
:103A2000030303E013F8015B01F8015B521EF9D5B3
:103A3000A142D6D3002070BD10B54FF400710248EA
:103A400000F064FF10BD0000000C014010B50848F4
:103A5000B0F9000002280ADAFFF7EEFF4FF47A709F
:103A600000F0B5FD00F006F850200149088010BDB7
:103A70000A02002010B54FF40071024800F044FF24
:103A800010BD0000000C014000BFFEE710B5012191
:103A9000014800F039FF10BD001001400B480068DC
:103AA0000B490968884202D14FF0FF30704708483F
:103AB0000068401C064908600A2190FBF1F201FBF6
:103AC00012000349086008460068EFE77C00002008
:103AD0008000002070B504464FF0FF350D480068A7
:103AE000401C0C4908600A2190FBF1F201FB120016
:103AF000084908602046FFF7AFFB461C0649054A07
:103B0000126801EB022032462146FFF799FB284656
:103B100070BD00007C000020BC050020F0B589B01D
:103B20008FA004F02DF80026032590A105A8FFF72B
:103B30009BFB00BF00208E49088001208D49087042
:103B40004FF4FA518C48FFF761FB05A8FFF784FB9F
:103B50000746014605A805F0D5FF002300930A2378
:103B60000D2286A101A804F0ADFB0A2006F0B9F8E9
:103B7000002436E0012006F0B4F801A8FFF76CFB42
:103B8000074603467A48028801A97B4806F02EF8CA
:103B900020B101267CA003F0F3FF25E001A8FFF788
:103BA0005BFB07460346724802887EA1724806F016
:103BB0001DF820B101267DA003F0E2FF14E001A86A
:103BC000FFF74AFB07460346694802887FA16A4817
:103BD00006F00CF820B101267EA003F0D1FF03E02F
:103BE000641CB4F5967FC5DB00BF681EC0B205003B
:103BF00001D0002E9ED07EA003F0C2FF0026032538
:103C00007EA105A8FFF730FB00BF002058490880BF
:103C10000120584908704FF4FA515748FFF7F6FA57
:103C200005A8FFF719FB0746014605A805F05AFF4E
:103C3000002300930A230D2250A101A804F042FBA7
:103C40000A2006F04EF8002425E0012006F049F88D
:103C500001A8FFF701FB074603464548028801A972
:103C6000454805F0C3FF20B1012667A003F088FF97
:103C700013E001A8FFF7F0FA074603463C48028824
:103C800052A13D4805F0B2FF20B1012665A003F026
:103C900077FF02E0641C642CD7DB00BF681EC0B253
:103CA000050001D0002EB0D065A003F069FF00260A
:103CB000032566A105A8FFF7D7FA00BF00202C490D
:103CC000088001202B4908704FF4FA512A48FFF769
:103CD0009DFA05A8FFF7C0FA0746014605A805F0BA
:103CE00001FF00225CA101A804F0ECFA0A2005F013
:103CF000F8FF002425E0012005F0F3FF01A8FFF7FD
:103D0000ABFA074603461A48028801A91A4805F08B
:103D10006DFF20B1012653A003F032FF13E001A88C
:103D2000FFF79AFA074603461148028827A112486E
:103D300005F05CFF20B1012652A003F021FF02E054
:103D4000641C642CD7DB00BF681EC0B2050001D024
:103D5000002EB3D000200749087009B0F0BD000064
:103D600043414C4C315F6865616400002B2B2B0094
:103D70008403002088030020EE4500204F4B25637C
:103D8000256325630000000043414C4C5F464F52C1
:103D900043455F53544F505F315F7265735F6F6B84
:103DA00000000000434C4F534544000043414C4C3D
:103DB0005F464F5243455F53544F505F315F5265EA
:103DC000735F636C6F736564000000004552524F6F
:103DD0005200000043414C4C5F464F5243455F53F5
:103DE000544F505F315F5265735F6572726F72003E
:103DF00043414C4C325F6865616400004154244C7F
:103E00004754544350434C0043414C4C5F464F523F
:103E100043455F53544F505F325F7265735F6F6B02
:103E20000000000043414C4C5F464F5243455F53F6
:103E3000544F505F325F5265735F6572726F7200EC
:103E400043414C4C335F6865616400004154244C2D
:103E500047545052454C0000434152524945522567
:103E60006300000043414C4C5F464F5243455F5353
:103E7000544F505F46494E414C5F7265735F6F6BA4
:103E80000000000043414C4C5F464F5243455F5396
:103E9000544F505F46494E414C5F5265735F6572A7
:103EA000726F7200F0B589B004460F46002514B950
:103EB0000A20C6490860C548006816287CD008DC7E
:103EC0000A280FD00C281FD00E2849D014280ED154
:103ED00096E0182871D01E2870D020286FD0222894
:103EE00005D130E1BA48006810B94FF0FF3566E1FE
:103EF0000C20B64908600320B6490860B34805683D
:103F0000B5A003F03DFE00BFB248006810B94FF005
:103F1000FF3524E0B3A003F033FE0E20AB49086068
:103F20000120B54908602120B44908600020B44947
:103F300008800120B34908704FF4FA51B248FFF7E6
:103F400065F9B2A105A8FFF78FF905A8FFF784F975
:103F50000646014605A805F0D5FD9C4805682EE1FA
:103F6000A648006870B99B48006858B19948006835
:103F7000401E984908600846006880BB0C209349A1
:103F800008603CE0002300930A230D22A0A101A8B1
:103F900004F098F901A8FFF75FF906460346984830
:103FA000028801A9984805F021FE48B114208749EC
:103FB00008604FF4C85502E12EE056E08EE099E02B
:103FC00001A8FFF749F9064603468D48028893A1E8
:103FD0008D4805F00BFE18B14FF4C855EFE00EE028
:103FE00001A8FFF739F906460346854802888DA1E6
:103FF000854805F0FBFD10B14FF0FF35DFE0DEE056
:104000001620724908600320724908606F480568ED
:1040100086A003F0B5FD00BF6E48006810B94FF0F0
:10402000FF3521E0182069490860012072490860C5
:104030000A207249086000207149088001207149F6
:1040400008704FF4FA517048FFF7E0F87AA105A81C
:10405000FFF70AF905A8FFF7FFF80646014605A88D
:1040600005F050FD59480568A9E06448006870B93A
:104070005848006858B157480068401E55490860C4
:104080000846006848BB16205049086025E0002219
:104090006CA101A804F016F901A8FFF7DDF80646A7
:1040A00003465748028801A9574805F09FFD28B1EB
:1040B0001E20464908604FF4C85580E001A8FFF76C
:1040C000CBF8064603464E48028856A14E4805F0F6
:1040D0008DFD10B14FF0FF3571E070E020203B49BD
:1040E000086003203B4908603848056858A003F081
:1040F00047FD00BF3748006810B94FF0FF3521E099
:1041000022203249086001203B4908600A203B49CF
:10411000086000203A49088001203A4908704FF4AD
:10412000FA513948FFF772F84CA105A8FFF79CF83F
:1041300005A8FFF791F80646014605A805F0E2FC40
:10414000224805683BE02D48006870B921480068A6
:1041500058B120480068401E1E49086008460068A3
:1041600060BB20201949086028E0002300930A233F
:104170000D2227A101A804F0A5F801A8FFF76CF80B
:10418000064603461E48028801A91F4805F02EFD79
:1041900028B14FF4C8550A200C4908600FE001A867
:1041A000FFF75AF806460346154802881DA116482F
:1041B00005F01CFD10B14FF0FF3500E000BF00BF5F
:1041C000002010490870284609B0F0BD48030020BF
:1041D000780000204403002043414C4C315F686567
:1041E0006164000043414C4C315F686561645F313C
:1041F000325F2B2B2B00000074000020A000002059
:104200008403002088030020EE4500202B2B2B0088
:104210004F4B25632563256300000000434C4F533B
:10422000454400004552524F5200000043414C4C5F
:10423000325F6865616400004154244C4754544324
:1042400050434C00434152524945522563000000FF
:1042500043414C4C335F6865616400004154244C19
:1042600047545052454C000010B50421014800F05D
:104270004DFB10BD0014014010B50421014800F0B1
:1042800043FB10BD001401407CB54FF6FF7006F0F3
:1042900089FD00230093102397A20A21642007F0D0
:1042A0008FF800230093102397A22821642007F0A1
:1042B00087F89A489AA102689E4804F003F8002300
:1042C000009310239B4A6E21642007F079F80024A4
:1042D00014E0994850F82430224698A1954803F0FC
:1042E000F1FF0023C4EB04108C2202EB4001009389
:1042F0001023904A642007F063F8641C072CE8DB65
:104300009348027893A18B4803F0DCFF00230093CD
:104310001023884A4FF4AF71642007F051F8502100
:10432000642000F0F5FA0546A5F57060E6387DD109
:1043300000214FF4807002F05DF8C82000F047F9CA
:1043400001F046FF00214FF4807002F053F8002086
:10435000724908600846006801900422482101A8BB
:1043600001F07EFD0422482101A801F00BFD002090
:10437000714908600846006801900422502101A894
:1043800001F06EFD0422502101A801F0FBFC002089
:10439000694948600846406801900422542101A8F8
:1043A00001F05EFD0422542101A801F0EBFC002085
:1043B000614988600846806801900422582101A85C
:1043C00001F04EFD0422582101A801F0DBFC002081
:1043D0005949C8600846C068019004225C2101A8C0
:1043E00001F03EFD04225C2101A801F0CBFC00207D
:1043F000514908610846006901900422602101A822
:1044000001F02EFD0422602101A801F0BBFC002078
:10441000494948610846406901900422642101A885
:1044200001F01EFD0422642101A800E062E001F019
:10443000A9FC002040498861084680690190042257
:10444000682101A801F00CFD0422682101A801F0F7
:1044500099FC00203E49087008460078019004222B
:104460006C2101A801F0FCFC04226C2101A801F0E0
:1044700089FC0121080201F0BDFFC82000F0A7F867
:104480000121080201F0B6FF244825A1026829484D
:1044900003F018FF002300931023264A6E216420A6
:1044A00006F08EFF002414E0234850F82430224602
:1044B00022A1204803F006FF0023C4EB04108C2245
:1044C00002EB4001009310231A4A642006F078FFA3
:1044D000641C072CE8DB1E4802781EA1154803F077
:1044E000F1FE002300931023124A4FF4AF716420B1
:1044F00006F066FF7CBD00002044415441205F432C
:104500004C4541522000000020494E505554205047
:10451000415353574F52442121212000DC020020F7
:10452000676E6C4461696C79546F74616C3D2536BB
:104530006C752000EC420020B4450020256420204A
:10454000676E6C5072653D25366C7520000000006A
:10455000E00200206461793D25366C752000000082
:1045600038B5044609484368094800930368094878
:1045700009A10268144803F0A5FE1349204608F07B
:10458000CDFE4FF47A7000F022F838BDB44500201B
:10459000DC0200200402002030372D312DB9ABB0F1
:1045A000D43A25356C75206B6720BFC0B4C33A255B
:1045B000356C75206B6720BEEEC1A63A25356C754B
:1045C000206B67200000000050430020704710B5AA
:1045D000014606E042F2107200BF1300A2F1010290
:1045E000FBD10B00A1F10101F4D110BDF8B50646D5
:1045F0000D460422F1B2684601F0C4FB012D02D140
:104600009DF8004005E0022D02D1BDF8004000E019
:10461000009C2046F8BDF8B507460D461446012C0F
:1046200003D1E8B28DF8000006E0022C03D1A8B255
:10463000ADF8000000E000950422F9B2684601F0F0
:104640000FFC0422F9B2684601F09CFB012C02D158
:104650009DF8006005E0022C02D1BDF8006000E08A
:10466000009E3046F8BD000010B54FF4807102483E
:1046700000F04AF910BD0000000C014010B54FF4E5
:104680008071024800F042F910BD0000000C0140AA
:1046900004490A6822F010020A600A6802430A60AC
:1046A000704700000020024004490A6802F0380206
:1046B0000A600A6802430A60704700000020024056
:1046C0004FF0204202EB80000029016802D041F047
:1046D000010101E0014A114001607047FEFF0F0037
:1046E000F0B5D0E9023241681943D0E904432243CE
:1046F00011431943D0E9062311431943D0E9082394
:1047000011431943D0E90A2311431943026B03688B
:1047100011434FF0204242F823108168082906D146
:10472000016802EB81010B6843F040030B60416BB1
:10473000D1E90134D1E903560F68240247EA031393
:1047400044EA05442343D1E9057443EA065343EAA6
:1047500007610368214302EB83035960816AB1F565
:10476000804F14D1816B0068D1E90134D1E903563F
:104770000F68240247EA031344EA05442343D1E9BE
:10478000057443EA065343EA0761214302E00068E7
:104790006FF0704102EB8000C0F80411F0BD000022
:1047A00010B54FF480610C4800F0B0F84FF4006190
:1047B000094800F0A9F84FF48051074800F0A4F828
:1047C0004FF40051044800F09FF84FF48041024834
:1047D00000F09AF810BD00000020014010B54FF421
:1047E00080610C4800F090F84FF40061094800F037
:1047F0008BF84FF48051074800F086F84FF40051D1
:10480000044800F081F84FF48041024800F07EF83F
:1048100010BD00000020014010B54FF480610C482D
:1048200000F072F84FF40061094800F06DF84FF4A1
:104830008051074800F068F84FF40051044800F038
:1048400065F84FF48041024800F05EF810BD0000AA
:1048500000200140F0B5CB780022DC0603F00F0306
:1048600001D58C7823430C880F2714F0FF0F4FF0ED
:10487000010C1CD0D0F800500E880CFA02F426402F
:10488000A64210D1960007FA06FE25EA0E0E03FA9C
:1048900006F5CE7845EA0E05282E00D14461CE7883
:1048A000482E00D10461521C082AE5D305600A880D
:1048B000FF2A1ED94568002202F108060CFA06F408
:1048C0000E882640A64210D1960007FA06FE25EA79
:1048D0000E0E03FA06F5CE7845EA0E05282E00D115
:1048E0004461CE78482E00D10461521C082AE3D3DB
:1048F0004560F0BD806880B2704702469268002033
:104900000A4200D001207047416170470161704741
:104910002DE9F04F8FB0074688464FF0000900267A
:10492000B2460024A3465A4629A102A803F0CAFCB5
:1049300000230093102302AA4146384606F040FDAA
:1049400000BF06F0A5F9C8B3244825490988455C8D
:104950000C2D23D2DFE805F0060708090A0B0C0D21
:104960000E0F1B1F00BF00BF00BF00BF00BF00BF76
:1049700000BF00BF00BF012604EB840005EB400030
:1049800004461CB10AF10100C0B2824607E00024CF
:104990000020824603E00120814600E000BF00BF06
:1049A00066B122460AA102A803F08CFC0023009302
:1049B000102302AA4146384606F002FDB9F1000F65
:1049C000BFD01EB120460FB0BDE8F08F00BFFAE7A0
:1049D00056414C55453D25366C752000D0000020D1
:1049E0001601002038B5ADE000F0F8F8584908602D
:1049F00008460068FEF7B7FC054656480168284699
:104A0000FEF73BFC0446FEF7BCFC53490860084631
:104A1000006852490968401A514908600846006810
:104A2000002807DA084600684042086001204D4926
:104A3000087002E000204B4908704B480068E8B15C
:104A400047484AA102684D4803F03CFC002300930C
:104A500010234A4A4FF49671642006F0B1FC3F4897
:104A600047A10268454803F02DFC00230093102362
:104A7000424A4FF4A571642006F0A2FC3648006853
:104A800044490968401A4449086035480068434968
:104A90000968B0FBF1F042490968484341490860A0
:104AA0003148006870B108463FA10268334803F0FE
:104AB00009FC002300931023304A4FF4B4716420A2
:104AC00006F07EFC2748007838B13C48006835493C
:104AD0000968401A3A49086006E0384800683149D8
:104AE0000968084436490860364937480068FEF7C7
:104AF0008BFC15D032480068FEF735FC044631497E
:104B000031480068FEF7EFFB05462146FEF7B5FB8E
:104B10002E49086008460068FEF733FC2849086003
:104B2000274800682A490860254801682948006824
:104B300000F5FA60814205D221489621026864207E
:104B400006F09AFC2448007800283FF44DAF38BDA9
:104B50001402002044000020100200203800002031
:104B600018020020E4010020F0020020646966665B
:104B7000315F313D25366C7520000000EC4200208D
:104B8000765F6164635F6F72675F313D25366C7578
:104B900020000000200200201C0200200C00002049
:104BA000080000202402002067786C576569676858
:104BB000745F313D25366C7520000000D402002062
:104BC0000402002000401C46CC000020700200209F
:104BD000FC010020280000207B01002030B591B0AE
:104BE000F84802783032F8A104A803F06BFB04A85F
:104BF00003F082F8F3480078401CF2490870084638
:104C00000078042801DD01200870002507E0F04845
:104C1000007800B105E00120FFF7D9FC6D1C642D80
:104C2000F5DB00BFEA480078F0B35020E94908807E
:104C30000020E7490870E8490860E84840783128D2
:104C400006D0322839D033286AD034287DD19CE070
:104C5000E24880783038E2494143E048C078303853
:104C600040F27122504301EB0011DC4800793038EA
:104C700000EB4002C2EBC01001EBC001D748407905
:104C8000303800EBC00202EB001001EB8001D3488A
:104C90008079303800EB800001EB4001CF48C079CB
:104CA00030380844CF4900E0B3E008600120CE4925
:104CB00008700020CD4908709BE0C84880783038E3
:104CC000C7494143C548C078303840F2712250434B
:104CD00001EB0011C1480079303800EB4002C2EB13
:104CE000C01001EBC001BD484079303800EBC00274
:104CF00002EB001001EB8001B8488079303800EBFE
:104D0000800001EB4001B548C07930380844B8490B
:104D100008600120B74908700020B749087068E0B2
:104D2000AE4880783038AE494143AC48C07830381E
:104D300040F27122504301EB0011A848007930384D
:104D400000EB4002C2EBC01000E051E001EBC001FB
:104D5000A2484079303800EBC00202EB001001EBB2
:104D600080019E488079303800EB800001EB4001E3
:104D70009A48C07930380844A04908600120A04909
:104D8000087000209F49087033E0944880783038DC
:104D9000934941439148C078303840F271225043E2
:104DA00001EB00118D480079303800EB4002C2EB76
:104DB000C01001EBC00189484079303800EBC002D7
:104DC00002EB001001EB800184488079303800EB61
:104DD000800001EB40018148C079303808448A499D
:104DE000086001208949087000208949087000E0A6
:104DF00000BF00BF002079498872002406E0FF2030
:104E00007649085583490855601CC4B20F2CF6DB5F
:104E100005E070480088401E00B26E49088069486D
:104E2000007801287ED170480078C8B371480078B6
:104E3000B0B37348007898B37448007880B3694879
:104E400000686B49096808446C49096808446E4960
:104E50000968084470490860002063490870654982
:104E6000087067490870694908706B4803686648AC
:104E70000268624801685E488DE80E000368594880
:104E800066A1026804A803F01DFA0023009314230E
:104E900004AA4FF4C8710A2006F092FA002407E031
:104EA00012E0FF204D4908555A490855601CC4B20C
:104EB0000F2CF6DB01205F4908700020464908608E
:104EC0005548006811B030BD4748007840B14948A6
:104ED000007828B14A48007810B14C48007808BBE7
:104EE00041480078F0BB43480078D8B34448007884
:104EF000C0B346480078A8B33C480078401C3B4902
:104F000008700846007802280FDB394800683B49E2
:104F1000096801EB40003C49096808443E490860C3
:104F2000002000E097E13149087000202E49087008
:104F3000304908703249087034490870002406E08E
:104F4000FF202649085533490855601CC4B20F2C70
:104F5000F6DB01203749087000201F4908602E4801
:104F60000068AFE7FFE72048007850B32148007899
:104F700038BB2348007820B32448007808B31E4883
:104F80000078401C1C4908700846007802280DDB98
:104F9000144800681949096801EB40001A4909687A
:104FA00008441D49086000201349087000200E497C
:104FB00008701049087012490870144908700024DC
:104FC00041E04BE07A010020402D256352000000B3
:104FD000020400200A02002004040020D8880020D7
:104FE000A086010050010020680100206E01002011
:104FF00054010020690100206F01002058010020A9
:105000006A010020700100205C0100206B0100207B
:10501000710100201088002000020020256C642C03
:1050200020256C642C20256C642C20256C642025A4
:105030006C642E007B010020FF20894908558949B6
:105040000855601CC4B20F2CF6DB0120864908709D
:105050000020864908608648006833E78548007864
:10506000E0B385480078C8B384480078B0BB844872
:10507000007898B383480078401C8249087008463D
:10508000007802280DDB80480068804909680144E7
:105090007F48006801EB40007549086000207949AD
:1050A00008700020734908707349087073490870CC
:1050B00073490870002406E0FF20694908556949D2
:1050C0000855601CC4B20F2CF6DB0120664908703D
:1050D00000206649086066480068F3E6FFE7654817
:1050E0000078E0B364480078C8B364480078B0B38F
:1050F0006348007898BB67480078401C6549087091
:105100000846007802280DDB5F4800685F4909689F
:1051100001446148006801EB4000554908600020E7
:105120005C4908700020534908705349087053497E
:10513000087053490870002406E0FF2048490855CC
:1051400048490855601CC4B20F2CF6DB01204649C3
:10515000087000204549086045480068B2E6FFE74E
:1051600044480078C8BB44480078B0BB4348007846
:1051700098B34348007880B348480078401C4749BA
:1051800008700846007802280ADB43480068404956
:105190000968084440003649086000203F4908700B
:1051A0000020344908703449087034490870344983
:1051B0000870002406E0FF202949085529490855B0
:1051C000601CC4B20F2CF6DB0120274908700020B8
:1051D000264908602648006874E6FFE725480078FD
:1051E000C8B325480078B0B32448007898BB244859
:1051F000007880BB23480078401C2249087008468C
:10520000007802280ADB2048006820490968084421
:1052100040001749086000201A490870002015490D
:105220000870154908701549087015490870002460
:1052300006E0FF200A4908550A490855601CC4B217
:105240000F2CF6DB01200849087000200749086090
:105250000748006836E6FFE74FF0FF3032E600000F
:10526000D8880020108800207B0100200404002042
:105270000002002068010020690100206A0100206E
:105280006B0100207001002050010020540100201B
:105290005C01002071010020580100206E010020F7
:1052A00038B504462546E0E14021F04808F081FD8C
:1052B0002D21EE4808F07DFDED48007800F1300129
:1052C000EA4808F076FD5221E84808F072FD0D2109
:1052D000E64808F06EFD0A21E44808F06AFDE4485B
:1052E0000078401CE249087008460078042801DD77
:1052F00001200870C820FFF76AF9DE480078F0B393
:105300000020DC490870DC490860DC48407831281E
:1053100006D0322836D0332864D034287ED193E0AA
:10532000D64880783038D6494143D448C0783038A0
:1053300040F27122504301EB0011D048007930381F
:1053400000EB4002C2EBC01001EBC001CB4840793A
:10535000303800EBC00202EB001001EB8001C748BF
:105360008079303800EB800001EB4001C348C07900
:1053700030380844C34908600120C34900E069E1AE
:10538000087092E0BD4880783038BD494143BB4841
:10539000C078303840F27122504301EB0011B74819
:1053A0000079303800EB4002C2EBC01001EBC001C5
:1053B000B2484079303800EBC00202EB001001EB3C
:1053C0008001AE488079303800EB800001EB40016D
:1053D000AA48C07930380844AC4908600120AC497B
:1053E000087062E0A54880783038A5494143A34859
:1053F000C078303840F27122504301EB00119F48D1
:105400000079303800EB4002C2EBC01001EBC00164
:105410009A484079303800EBC00200E044E002EBEB
:10542000001001EB800195488079303800EB800056
:1054300001EB40019148C079303808449549086033
:1054400001209549087030E08C48807830388C49CC
:1054500041438A48C078303840F27122504301EB12
:10546000001186480079303800EB4002C2EBC010D2
:1054700001EBC00181484079303800EBC00202EBFB
:10548000001001EB80017D488079303800EB80000E
:1054900001EB40017948C079303808447F49086001
:1054A00001207F49087000E000BF00BFC5BB754800
:1054B0007CA10268804802F005FF002300931023BE
:1054C0007D4ABE21002005F07BFF70487BA1026869
:1054D000794802F0F7FE002300931023764AD22188
:1054E000002005F06DFF6B4879A10268724802F058
:1054F000E9FE0023009310236F4AE621002005F007
:105500005FFF664877A102686B4802F0DBFE00236C
:1055100000931023684AFA21002005F051FF3CE077
:10552000FFE7584874A10268634802F0CBFE0023ED
:1055300000931023604A4FF4AF71002005F040FF44
:10554000524872A102685C4802F0BCFE002300933E
:105550001023594A4FF4B971002005F031FF4D482E
:105560006FA10268544802F0ADFE0023009310239F
:10557000514A4FF4C371002005F022FF47486DA146
:1055800002684D4802F09EFE0023009310234A4A11
:105590004FF4CD71002005F013FF3A4800683B49F5
:1055A000096808443B49096808443C4909680844BB
:1055B000654908600DB3084664A102683E4802F0E0
:1055C00081FE0023009310233B4A4FF4D771002043
:1055D00005F0F6FE5C48006860490968421A60A15F
:1055E000354802F06FFE002300931023324A4FF437
:1055F000E171002005F0E4FE0EE053485CA1026872
:105600002D4802F05FFE0023009310232A4A4FF436
:105610008771002005F0D4FE00201B4908701C494A
:1056200008701D4908701E490870554908600DE052
:10563000FF201249524A126888545249504A12684F
:1056400088544F480068401C4D4908604C48006829
:105650000F28EDDB05F01CFB38B14B4800881428FF
:1056600002D13948006838BD00BF1DE60044004043
:10567000040000200204002004040020D888002038
:10568000A08601004C0000200000002050000020F7
:1056900001000020540000200200002058000020DB
:1056A000030000205A45524F5F4144435F313D257E
:1056B000366C7520000000008A0400205A45524FC5
:1056C0005F4144435F323D25366C75200000000089
:1056D0005A45524F5F4144435F333D25366C752038
:1056E000000000005A45524F5F4144435F343D255E
:1056F000366C7520000000005350414E5F4144431A
:105700005F313D25366C7520000000005350414E3E
:105710005F4144435F323D25366C75200000000038
:105720005350414E5F4144435F333D25366C7520F5
:10573000000000005350414E5F4144435F343D251B
:10574000366C7520000000005C00002066756C6CF3
:105750005F73756D3D25366C7520000014000020C8
:105760007370616E5F73756D3D25366C752000003A
:105770007A65726F5F73756D3D25366C752000001C
:105780004800002010880020160100202DE9F04F6D
:1057900093B04FF0000B00200490039002904FF064
:1057A000010966E14021B54808F003FB2D21B3480B
:1057B00008F0FFFA09F13001B04808F0FAFA522176
:1057C000AE4808F0F6FA0D21AC4808F0F2FA0A21CA
:1057D000AA4808F0EEFA09F1010000F0FF09B9F15A
:1057E000040F01DD4FF00109C82004F07AFAA44843
:1057F0000078E0B30020A2490870A2490860A248DE
:105800004078312806D0322832D033285DD0342871
:105810007ED189E09C48807830389C4941439A4841
:10582000C078303840F27122504301EB00119648A5
:105830000079303800EB4002C2EBC01001EBC00130
:1058400091484079303800EBC00202EB001001EBC8
:1058500080018D488079303800EB800001EB4001F9
:105860008948C07930380D184FF0010B8BE0F4E017
:10587000854880783038854941438348C07830383E
:1058800040F27122504301EB00117F48007930381B
:1058900000EB4002C2EBC01001EBC0017A48407936
:1058A000303800EBC00202EB001001EB80017648BB
:1058B0008079303800EB800001EB40017248C079FC
:1058C00030380E18012004905DE06F488078303841
:1058D0006E4941436C48C078303840F271225043E1
:1058E00001EB001168480079303800EB4002C2EB50
:1058F000C01001EBC00164484079303800EBC002B1
:1059000002EB001001EB80015F488079303800E045
:1059100038E000EB800001EB40015B48C079303893
:105920000F18012003902EE05748807830385749EF
:1059300041435548C078303840F27122504301EB62
:10594000001151480079303800EB4002C2EBC01022
:1059500001EBC0014C484079303800EBC00202EB4B
:10596000001001EB800148488079303800EB80005E
:1059700001EB40014448C079303801EB00080120B8
:10598000029000E000BF00BFBBF1000F5BD00498A5
:10599000E8B30398D8B30298C8B32A463CA106A836
:1059A00002F090FC00230093102306AAFA214FF482
:1059B000967005F005FD324639A106A802F082FC7A
:1059C00000230093102306AA4FF487714FF49670BA
:1059D00005F0F6FC3A4636A106A802F073FC002357
:1059E0000093102306AA4FF491714FF4967005F0BE
:1059F000E7FC424632A106A802F064FC00230093B3
:105A0000102306AA4FF49B714FF4967000E01AE041
:105A100005F0D6FCA8193844404405902CA106A8EE
:105A2000059A02F04FFC00230093102306AA4FF4BE
:105A3000AF714FF4967005F0C3FC4FF0000B0020DF
:105A4000049003900290002405E0FF200E490855C1
:105A500023490855641C0F2CF7DB05F019F940B1F8
:105A600020482149098810F801A0BAF10B0F00D194
:105A700000E097E600BF13B0BDE8F08F004400409F
:105A80000204002004040020D8880020A086010021
:105A90004C2F435F31204144433D25366C75200037
:105AA0004C2F435F32204144433D25366C75200026
:105AB0004C2F435F33204144433D25366C75200015
:105AC0004C2F435F34204144433D25366C75200004
:105AD00053554D2056414C55453D25366C7520009B
:105AE00010880020D00000201601002030B593B0AF
:105AF0001422374901A8FDF770FB002535480068DE
:105B0000052800D10024334800680A2800D1012468
:105B1000304800680F2800D102242E48006814285D
:105B200000D103242B480068192800D104242948F7
:105B300000681E2800D1052426480068232800D1CB
:105B4000062424480068282800D10724214800683A
:105B50002D2800D108241F480068322800D10924CC
:105B600001A830F814201CA106A802F0ABFB00230A
:105B70000093102306AA5A21002005F021FC00BF43
:105B800005F086F8E0B119480088422813D1601C5E
:105B9000C4B2092C00DD002401A830F814200EA1A5
:105BA00006A802F08FFB00230093102306AA5A21B7
:105BB000002005F005FC0D480088142800D10125BF
:105BC000002DDDD001A830F8140013B030BD000066
:105BD000B0DF000828000020636170616369747998
:105BE0003D25326420746F6E000000001601002015
:105BF00030B591B0274903C9CDE9020100252648F7
:105C00000068012800D1002423480068022800D140
:105C1000012421480068052800D102241E4800689C
:105C20000A2800D1032402A830F814201BA104A8DC
:105C300002F048FB00230093102304AA4621002011
:105C400005F0BEFB00BF05F023F8E0B1174800885F
:105C5000422813D1601CC4B2032C00DD002402A82A
:105C600030F814200DA104A802F02CFB00230093AF
:105C7000102304AA4621002005F0A2FB0B4800884F
:105C8000142800D10125002DDDD002A830F8140021
:105C900011B030BDA8DF00080800002064697669F3
:105CA00073696F6E3D25326400000000160100200C
:105CB00000BFFEE721B1028842F48062028004E066
:105CC00002884FF6FF331A400280704770B50246D3
:105CD0000024002500230020958A138B1B0445EA2D
:105CE000030626F07F448C4201D1012000E0002011
:105CF00070BD10B50023002221F07F430A0F012A56
:105D000002D1DC4384820DE0022A01D1848A09E0B9
:105D1000062A05D1848A048844F00104048001E045
:105D2000848A048B10BD21B1028842F001020280F6
:105D300004E002884FF6FE731A40028070470000AC
:105D40001FB50020ADF804004BF6FF70ADF806005B
:105D5000A020ADF808004FF48060ADF80A00000103
:105D6000ADF80C000548009001210548FFF7DBFF66
:105D70006946034800F09CF91FBD0000801A060028
:105D80000054004070B505460E46144601213048C7
:105D900000F076F900BF2F492D48FFF797FF002844
:105DA000F9D000222C480088C1B2294800F0FDF942
:105DB00000BF2A492648FFF789FF0028F9D00121B2
:105DC0002348FFF7B0FF3146214800F0F7F900BF44
:105DD0002249891C1E48FFF779FF0028F8D00121CD
:105DE0001B4800F04DF900BF1A491948FFF76EFF34
:105DF0000028F9D0012218480088C1B2144800F0E8
:105E0000D4F900BF1349491C1148FFF75FFF002870
:105E1000F8D016E0012C07D100210D48FFF74AFF0A
:105E200001210B4800F038F90A493F310848FFF7D3
:105E30004DFF30B1064800F0B4F928706D1C601EAB
:105E400084B2002CE6D101210148FFF733FF70BD79
:105E50000054004001000300A80000208200070059
:105E60002DE9F04707460D4614464FF00008C1469D
:105E7000C24600262846E91705EB11710911A5EB6A
:105E8000011101F0FF0ACAF11000C6B22046E11765
:105E900004EB1171C1F30718E11704EB117109113B
:105EA000A4EB011101F0FF09BAF1000F28D1B8F1FC
:105EB000000F07D14A462946384600F071F800F035
:105EC000B9F860E00AE010222946384600F068F888
:105ED00000F0B0F805F11000C5B210375FEA080015
:105EE000A8F1010101F0FF08EDD1B9F1000F4AD08E
:105EF0004A462946384600F053F800F09BF842E045
:105F0000B8F1000F07D14A462946384600F048F854
:105F100000F090F837E0A01B84B22046E11704EBB4
:105F20001171C1F30718E11704EB11710911A4EB0A
:105F3000011101F0FF094EB132462946384600F002
:105F40002FF800F077F8A819C5B237440AE01022FC
:105F50002946384600F024F800F06CF805F11000EE
:105F6000C5B210375FEA0800A8F1010101F0FF088F
:105F7000EDD1B9F1000F06D04A462946384600F067
:105F80000FF800F057F8BDE8F087000010B5FFF7F4
:105F9000D7FEA2200149088010BD0000A800002003
:105FA00070B504460E46154601211E4800F068F8FB
:105FB00000BF1D491B48FFF789FE0028F9D00022C9
:105FC0001A480088C1B2174800F0EFF800BF18491E
:105FD0001448FFF77BFE0028F9D03146114800F045
:105FE000EDF800BF1249891C0E48FFF76FFE00282C
:105FF000F8D00CE021780B4800F0E0F8641C00BFFA
:106000000B49891C0748FFF761FE0028F8D02800DB
:10601000A5F10101CDB2EDD10121024800F03CF81B
:1060200070BD00000054004001000300A8000020E3
:106030008200070010B5002400BF01210D4800F0C8
:106040001FF814210B4800F0A9F8044600220A4862
:106050000088C1B2074800F0A8F81421054800F0F4
:106060009DF810F0020FE8D004490248FFF741FE06
:1060700010BD000000540040A800002000040010E3
:1060800021B1028842F48072028004E002884FF657
:10609000FF631A400280704721B1028842F4007207
:1060A000028004E002884FF6FF531A4002807047D6
:1060B0002DE9F04385B004460D460026B14604277D
:1060C000DFF8CC80A6884FF6C0710E40684600F01D
:1060D000EBF9DDF808802F48B8FBF0F01FFA80F9E3
:1060E00046EA0906A68020884FF6FE710840208007
:1060F00000262949286888420CD828684000B8FB47
:10610000F0F087B2042F00DA04273E4309F10100C2
:10611000208427E0E888A0F53F41FF3906D12868B0
:1061200000EB4000B8FBF0F087B209E0286800EB14
:10613000C00101EB0010B8FBF0F087B247F48047D4
:106140003805000D01D147F0010747F40040064330
:106150004FF4967009FB00F04FF47A7190FBF1F068
:10616000401C2084A683208840F0010020802688DF
:106170004FF6F5310E40A88869890843064326800A
:10618000A88929890843208105B0BDE8F083000073
:1061900000127A0040420F00A08601000246505AC9
:1061A00070470146088AC0B2704712B141F0010140
:1061B00002E04FF6FE73194001827047018270477A
:1061C00002494AF6AA2008607047000000300040EB
:1061D0007047000010B508210148FEF797FB10BD7D
:1061E0000014014010B508210148FEF78DFB10BDD9
:1061F0000014014070B5FEF7D3FA3D48FEF77AFB74
:10620000044604F4F864A4110CB1012531E000F057
:10621000E7FE3748FEF76EFB044604F4F864A41169
:106220000CB1022525E001F0AFFB3148FEF762FB1F
:10623000044604F4F864A4110CB1032519E0FEF738
:10624000EBFA2B48FEF756FB044604F4F864A4115D
:106250000CB104250DE0FEF7C1FA2548FEF74AFB14
:10626000044604F4F864A4110CB1102501E00025E3
:106270002C46102C20D008DC012C0DD0022C0FD085
:10628000042C11D0082C27D112E0202C18D0402C3F
:106290001AD0802C20D11BE00020164908801EE077
:1062A0001020144908801AE020201249088016E0C6
:1062B00030201049088012E040200E4908800EE08E
:1062C00000200C4908800AE010200A49088006E0F6
:1062D00020200849088002E00648048000BF00BF73
:1062E000044800882844034908800846008870BD97
:1062F000001C01401601002000BFFEE77047F0B50A
:106300000F23C27801784FF0E024012742B3D4F87C
:106310000C2D467802F4E062C2F5E062120AC2F186
:106320000405D3408278AE401A40324315018A07F3
:10633000D20E954021F003010B19D3F80064FF2120
:1063400091408E430D402E43C3F80064007841090C
:1063500000F01F0004EB81018740C1F80071F0BD1F
:1063600001F01F008740480904EB8000C0F88071ED
:10637000F0BD000002490843024908607047000070
:106380000000FA050CED00E0024A1140014302480A
:106390000160704780FFFF1F08ED00E010B520216D
:1063A0000148FEF7B1FA10BD000C014010B52021E4
:1063B0000148FEF7ABFA10BD000C0140014908622C
:1063C0007047000000000E427047000010B54FF407
:1063D00000710248FEF798FA10BD0000000C014061
:1063E00010B54FF400710248FEF790FA10BD00009E
:1063F000000C0140044A0029516901D0014300E02A
:10640000814351617047000000100240044A002996
:10641000D16901D0014300E08143D16170470000A0
:1064200000100240044A0029116901D0014300E034
:10643000814311617047000000100240044A0029A6
:10644000916901D0014300E08143916170470000F0
:1064500000100240044A0029D16801D0014300E045
:106460008143D16070470000001002400B48016872
:1064700041F0010101604168094A11404160016831
:10648000084A11400160016821F4802101604268DE
:10649000002122F4FE024260816070470010024039
:1064A0000000FFF8FFFFF6FE30B5204A5168204B90
:1064B00011F00C0103D0042901D0082901D0036098
:1064C00011E05168022401F4701104EB9141546809
:1064D000184D14F4803F02D05468A40301D56943D9
:1064E00000E0594301605168134B01F0F0010909C4
:1064F0005C5C0168E1404160546804F4E064240A93
:106500001C5D21FA04F48460546804F46054E40AC5
:106510001B5DD940C1605268074B02F44042920BA8
:106520001B1F9A5CB1FBF2F1016130BD001002400B
:1065300000127A0000093D009A98010803460020E5
:106540005909094A012901D1116804E0022901D140
:10655000116A00E0516A03F01F02012393400B42CD
:1065600000D001207047000000100240024840683F
:1065700000F00C007047000000100240034A516810
:1065800021F0F0010143516070470000001002400B
:106590000B490A6822F480320A600A68B0F5803F2D
:1065A00022F480220A6007D0B0F5802F03D108685A
:1065B00040F4A02008607047086840F48030F9E794
:1065C0000010024001490860704700008004424208
:1065D000034A516821F4E0610143516070470000B3
:1065E00000100240034A516821F4605141EAC000A2
:1065F0005060704700100240014908667047000073
:1066000000004242034B5A68084322F47C121043B4
:106610005860704700100240014908607047000050
:106620003C04424202490A6A02430A62704700007F
:1066300000100240034A516821F0030101435160F8
:10664000704700000010024030B50B4C40F2FF15BF
:106650003120FFF773FF20706068401C6060207875
:1066600010B96068A842F3D13120FFF767FF002816
:1066700000D0012030BD000010040020024A118823
:1066800081431180704700000428004008B50320B2
:106690008DF8000000208DF8010001208DF8020027
:1066A0008DF803006846FFF72AFE01214FF0C05025
:1066B000FFF7ACFE0120FFF781FE0120FFF782FF0C
:1066C00000BF6120FFF73AFF0028FAD04FF40070B6
:1066D000FFF7A8FF0120FFF79FFF00F075F849F6CC
:1066E000404000F057F800F065F80121084600F03E
:1066F00035F808BD0248018841F01001018070475B
:10670000042800400248018821F0100101807047F0
:106710000428004002498888098840EA01407047FF
:1067200018280040054A918812880140C9B20242E7
:1067300002D009B1012070470020704700280040B6
:1067400010B50120FFF7EEFF28B10120FFF796FFFB
:1067500001200149086010BD74020020054A00298B
:10676000B2F8001801D0014300E08143A2F80018FC
:10677000704700000020004000B50246FFF7BAFF56
:106780000348110C018082805DF804EBFFF7BABF6B
:106790001828004000B50246FFF7ACFF0448C2F3DA
:1067A0000341018082805DF804EBFFF7ABBF00007E
:1067B00008280040034800BFB0F804188906FBD53C
:1067C00070470000002000400648B0F8041821F08F
:1067D0000801A0F8041800BFB0F804180907FBD599
:1067E00070470000002000402DE9F8434FF00008FA
:1067F0001948006868B34FF0FF3800201649086058
:10680000FFF788FF04464FF46160B4FBF0F5B4FB7A
:10681000F0F100FB11403C21B0FBF1F64FF4616058
:10682000B4FBF0F100FB11403C21B0FBF1F201FBA5
:10683000120733462A4609A10D48009701F042FD90
:106840000023009314230A4A4FF4E671AA2004F0AF
:10685000B7FD4046BDE8F8837402002054696D65B9
:106860003A253032643A253032643A2530326400B9
:10687000EC42002010B520210148FEF745F810BD7C
:10688000000C014010B520210148FEF73FF810BD73
:10689000000C01400C4800880C490988884202D14C
:1068A0004FF0FF30704709480088401C80B207490C
:1068B00008804FF4FA5190FBF1F201FB12000349FA
:1068C000088008460088EDE784000020860000204C
:1068D00001460A480088401C80B2084A10804FF4E4
:1068E000FA5290FBF2F302FB1300044A1080044AB0
:1068F000024B1B88D1540148008870478400002057
:10690000BC0F002070B504464FF0FF350F480088DB
:10691000401C80B20D490880322190FBF1F201FB4E
:1069200012000A4908802046FCF796FC461C0749DD
:10693000098801EBC10202EB0111054A02EB81005B
:1069400032462146FCF77CFC284670BD88000020BA
:10695000FC2E002000B58FB0FF4800881C38FF498E
:10696000085C522818D1FC4800881B38085C452870
:1069700012D1F94800881A38085C53280CD100233A
:1069800000931423F6A232214FF4967004F018FD00
:106990000B21F7A003F0A6F8EF4800881C38EF4958
:1069A000085C492819D1EC4800881B38085C41284C
:1069B00013D1E94800881A38085C50280DD100230B
:1069C00000931423EDA232214FF4967004F0F8FCEA
:1069D00042F2CD01EFA003F067FFDF4800881C38CA
:1069E000DE49085C52287ED1DB4800881B38085CF1
:1069F000452878D1D84800881A38085C472872D1D1
:106A0000002300931423E7A232214FF4967004F080
:106A1000D7FCFFF7DDFB00214FF48070FFF7EAFCA5
:106A20004FF47A70FDF7D3FDCB4800880F38CB497F
:106A3000085C8DF82400C84800880E38085C8DF882
:106A40002500C54800880D38085C8DF82600042212
:106A50006C2109A8FFF704FA04226C2109A8FFF7AA
:106A600091F99DF82400D54908709DF825004870DB
:106A70009DF826008870B84800880C38B749085C33
:106A80008DF82400B44800880B38085C8DF8250088
:106A9000B14800880A38085C8DF82600AE480088A6
:106AA0000938085C8DF827000422702109A8FFF737
:106AB000D7F90422702109A8FFF764F99DF8240092
:106AC000BE49C8709DF8250008719DF826004871E0
:106AD0009DF827008871A048008808389F49085C05
:106AE0008DF8240000E052E09B480088C01F085C3D
:106AF0008DF8250098480088801F085C8DF82600D6
:106B000095480088401F085C8DF8270004227421F6
:106B100009A8FFF7A5F90422742109A8FFF732F9A3
:106B20009DF82400A549C8719DF8250008729DF8BC
:106B3000260048729DF8270088720020C872012143
:106B40000802FFF757FC9D48837A427A017AC079A0
:106B5000CDE90723CDE90501984883794279017988
:106B6000C078CDE90323CDE90101944883780093EF
:106B70004378027892A1994801F0A4FB0023009386
:106B80001423964A50214FF4967004F019FC724871
:106B900000881C387149085C442814D16E4800886C
:106BA0001B38085C45280ED16B4800881A38085CF1
:106BB0004C2808D100230093142389A232214FF4DA
:106BC000967004F0FDFB644800881C386349085C3B
:106BD00041285ED1604800881B38085C552858D190
:106BE0005D4800881A38085C542852D1002300936D
:106BF000142381A232214FF4967004F0E1FBFFF7D9
:106C0000E7FA00214FF48070FFF7F4FB5248008848
:106C100008385249085C8DF824004F480088C01F8E
:106C2000085C8DF825004C480088801F085C8DF8B2
:106C3000260049480088401F085C8DF827004FF463
:106C40007A70FDF7C4FC0422782109A8FFF708F93F
:106C50000422782109A8FFF795F801210802FFF71F
:106C6000C9FB9DF824006A4908709DF8250048700A
:106C70009DF8260088709DF82700C8700846C378E4
:106C80008278CDE900234378027862A1534801F06D
:106C900019FB314800881C383049085C46285AD115
:106CA0002D4800881B38085C412854D12A480088A8
:106CB0001A38085C43284ED10023009314235AA2AB
:106CC00032214FF4967004F07BFBFFF781FA00212C
:106CD0004FF48070FFF78EFB1F49098809391F4A5E
:106CE000515C303942F2107251431B4A1288083A03
:106CF0001A4B9A5C303A02EB4203C3EBC21201EB2F
:106D0000C20215490988C91F144B595C303901EB7F
:106D1000C10303EB011102EB81020F490988891FAE
:106D20000E4B595C303901EB810102EB41020A49FB
:106D30000988491F595C30395018FCF714FB404949
:106D4000086008460068FCF735FB09904FF47A703C
:106D5000FDF73DFC76E08CE008040020D4A600207E
:106D60004D4F44454D20524553455420212121008B
:106D70004154244C47545245534554004649524DC2
:106D80005741524520444F574E4C4F4144202021FB
:106D9000212100003131322E3231372E3231322E64
:106DA0003235300054454C4550484F4E455F5245B2
:106DB00047495354524154494F4E0000D04500209A
:106DC00054454C3D25632563256325632563256371
:106DD0002563256325632563256300005043002058
:106DE00054454C4550484F4E455F44454C455449E9
:106DF0004F4E202121210000444154415F53454E14
:106E000044494E475F54494D45202021212100002F
:106E1000E4450020534D532054494D453D256325FD
:106E200063256325630000005245414C5F57454987
:106E30004748545F464143544F52202021212100AE
:106E4000CC00002004228C2109A8FFF709F80422B5
:106E50008C2109A8FEF796FF01210802FFF7CAFA64
:106E6000002300931423484A50214FF4967004F0F5
:106E7000A7FA464800881C384549085C4D2861D16E
:106E8000424800881B38085C41285BD13F48008895
:106E90001A38085C4E2855D10023009314233DA2D4
:106EA00032214FF4967004F08BFA384800880F387E
:106EB0003749085C8DF82800344800880E38085C93
:106EC0008DF82900314800880D38085C8DF82A00BB
:106ED0002E4800880C38085C8DF82B002B48008861
:106EE0000B38085C8DF82C00284800880A38085CAC
:106EF0008DF82D00254800880938085C8DF82E0093
:106F0000224800880838085C8DF82F001F48008848
:106F1000C01F085C8DF830001C480088801F085C8A
:106F20008DF8310019480088401F085C8DF8320048
:106F300000208DF833000AA8FDF712FB09211CA0E0
:106F400002F0D0FDFF21114800881C38104A11546E
:106F50000E4800881B3811540C4800881A38115408
:106F6000002016490870094908804FF47A70FDF72F
:106F70002EFB00230093102311A232214FF49670B0
:106F800004F01EFA0FB000BD50430020080400209A
:106F9000D4A600204D414E55414C2044415441203F
:106FA00053454E44494E4720202121210000000036
:106FB0004154244C475441434B000000DE03002061
:106FC00020202020202020202020202020202020C1
:106FD00020202020202020202000000070470000DA
:106FE00010B54FF480610C48FDF78EFC4FF4006142
:106FF0000948FDF78BFC4FF480510748FDF784FCEE
:107000004FF400510448FDF77FFC4FF480410248E3
:10701000FDF77AFC10BD00000020014030B5BDB086
:107020001C48007808B1572300E04E231A488269B3
:107030004169006906AC0FC41748C368826841689B
:10704000006802AC0FC4154803681548026815486B
:10705000CDE900230368144814A1026824A801F0B4
:1070600031F924A8FCF7F8F8054624A802F02EFE12
:1070700004460323E2B224A98DE80E002B46022227
:107080001AA10BA801F01EF90BA8FCF723FD3DB0D7
:1070900030BD000083010020B4450020DC02002048
:1070A00004020020F8020020F40200204D253037B1
:1070B0006C647C4D2530336C647C42432D424547E3
:1070C000494E7C256C647C256C647C256C647C2535
:1070D0006C647C256C647C256C647C256C647C25EC
:1070E0006C647C256C647C256300000025637C2532
:1070F000647C25737C253032587C256300000000B9
:1071000030B5BDB01C48007808B1572300E04E23CD
:107110001A4882694169006906AC0FC41748C36800
:1071200082684168006802AC0FC4154803681548BE
:1071300002681548CDE900230368144814A10268C9
:1071400024A801F0BFF824A8FCF786F8054624A877
:1071500002F0BCFD04460323E2B224A98DE80E0030
:107160002B46022219A10BA801F0ACF80BA8FCF7E2
:10717000B1FC3DB030BD000083010020B4450020CB
:10718000DC02002004020020F8020020F4020020AB
:107190004D2530376C647C4D2530336C647C424324
:1071A0002D454E447C256C647C256C647C256C6488
:1071B0007C256C647C256C647C256C647C256C640B
:1071C0007C256C647C256C647C25630025637C25B0
:1071D000647C25737C253032587C256300000000D8
:1071E00030B5BDB01C48007808B1572300E04E23ED
:1071F0001A4882694169006906AC0FC41748C36820
:1072000082684168006802AC0FC4154803681548DD
:1072100002681548CDE900230368144814A10268E8
:1072200024A801F04FF824A8FCF716F8054624A876
:1072300002F04CFD04460323E2B224A98DE80E00BF
:107240002B4602221AA10BA801F03CF80BA8FCF770
:1072500041FC3DB030BD000083010020B44500205A
:10726000DC02002004020020F8020020F4020020CA
:107270004D2530376C647C4D2530336C647C424145
:10728000494348554C7C256C647C256C647C256C9A
:10729000647C256C647C256C647C256C647C256C2A
:1072A000647C256C647C256C647C25630000000094
:1072B00025637C25647C25737C253032587C2563CE
:1072C0000000000030B5BFB02A48006808B147236D
:1072D00000E04E232848006808B1472200E04E2213
:1072E0002648006808B1472100E04E212448006884
:1072F00008B1472000E04E2008AC0FC421480068C8
:1073000008B1472300E04E231F48007808B1472208
:1073100000E04E22174801681748006804AC0FC40B
:10732000164803681648026816480168174800683E
:107330008DE80F0016480368164817A1026826A8B2
:1073400000F0C0FF26A8FBF787FF054626A802F03D
:10735000BDFC04460323E2B226A98DE80E002B46AD
:1073600002221CA10DA800F0ADFF0DA8FCF7B2FB96
:107370003FB030BD64010020600100205C010020AE
:107380005801002054010020680100205001002015
:10739000F8020020F40200204D2530376C647C4D4B
:1073A0002530336C647C5354415455537C256C64B4
:1073B0007C256C647C256C647C256C647C256C6409
:1073C0007C256C647C256325632563256325632503
:1073D0006300000025637C25647C25737C253032A6
:1073E000587C25630000000070B504460D4600205F
:1073F000074908800120074908704FF4FA510648F0
:10740000FBF704FF2946204602F07CFB70BD00001C
:107410008403002088030020EE4500202DE9FF4171
:1074200004460D460027FEF7CBFE002614B90020C7
:107430001A49086000221AA1684600F043FF684616
:10744000FBF70AFF80460346184802886946184839
:1074500002F0CCFB20B1012616A000F091FB18E051
:1074600002231248028817A1114802F0BFFB20B185
:10747000012610A000F084FB0BE008480068401CC7
:1074800006490860A84204DD4FF0FF360EA000F068
:1074900077FB304604B0BDE8F081000020030020F7
:1074A000434C4F53454425630000000084030020F3
:1074B000EE450020474F4F442050524F4345535311
:1074C000212100004F4B00004241442050524F43C5
:1074D000455353212100000070B504460D46FEF7C8
:1074E0006FFE00260CB9044805600348006800B927
:1074F0000126304670BD0000980000201FB50CA189
:107500006846FBF7B1FE00200B49088001200B49BB
:1075100008704FF4FA510A48FBF778FE6846FBF70B
:107520009BFE04460146684602F0DCFA1FBD0000DF
:107530004154445430313900840300208803002032
:10754000EE4500202DE9FF4104460D4624B90020F8
:107550001A4908601A490860002619480068401C4A
:1075600017490860A84200DD761E002215A1684672
:1075700000F0A8FE6846FBF76FFE07460346134877
:1075800002886946124802F031FB00B10126002250
:1075900010A1684600F096FE6846FBF75DFE0746C0
:1075A00003460A4802886946094802F01FFB08B1F1
:1075B0006FF00106304604B0BDE8F08110030020F2
:1075C0001C0300204F50454E25630000840300201B
:1075D000EE450020434152524945522563000000C8
:1075E000F0B593B0064603F037F8642002F079FB5B
:1075F00003F032F87AA000F0C3FA00207B4908605B
:107600000A257BA106A8FBF72FFE00BFFEF7D8FDD9
:1076100000207A4908800120794908704FF4FA5116
:107620007848FBF7F3FD06A8FBF716FE0746014670
:1076300006A802F057FA002300930A230D2272A134
:1076400002A800F03FFE0A2002F04BFB002413E0EA
:10765000012002F046FB02A8FBF7FEFD07460346A9
:107660006648028802A9674802F0C0FA18B10120F2
:107670005E49086002E0641C642CE9DB00BF681E00
:10768000050003D0594800680028BFD0574800685B
:10769000F0B360A000F074FA0020544908600A2595
:1076A0005FA106A8FBF7E0FD00BF0020534908805A
:1076B0000120534908704FF4FA515248FBF7A6FDD8
:1076C00006A8FBF7C9FD0746014606A802F00AFA1C
:1076D000002300930A230D224BA102A800F0F2FD23
:1076E0000A2002F0FEFA002414E0012002F0F9FA68
:1076F00002A8FBF7B1FD074603464048028802A9ED
:10770000404802F073FA20B101203849086003E0D4
:107710000AE0641CC82CE8DB00BF681E050003D02B
:10772000324800680028C0D03048006878B340A0D4
:1077300000F026FA00202D4908600A253FA106A87E
:10774000FBF792FD314606A8FBF76CFD00BF002059
:107750002A49088001202A4908704FF4FA51294823
:10776000FBF754FD06A8FBF777FD0746014606A880
:1077700002F0B8F9002300930A230D2222A102A8E7
:1077800000F0A0FD0A2002F0ACFA002414E01DE095
:10779000012002F0A6FA02A8FBF75EFD07460346A9
:1077A0001648028802A9174802F020FA18B10120F1
:1077B0000E49086002E0641CC82CE9DB00BF681EAB
:1077C000050003D0094800680028C0D000200C49FB
:1077D00008701EA000F0D4F90448006813B0F0BD92
:1077E00073746167655F74776F5F31008C0300208D
:1077F00041542B43524D3D3133300000840300206F
:1078000088030020EE4500204F4B25632563256348
:107810000000000073746167655F74776F5F32000A
:107820004154244C4754504449414C3D30000000E1
:1078300073746167655F74776F5F33004154244CE4
:1078400047545443504F503D00000000737461672B
:10785000655F74776F5F34004FF0E021042808699A
:1078600002D140F0040001E020F0040008617047FC
:107870007047000010B50121880700F04EF8012183
:10788000880700F04DF81848C06810B11649C8685C
:10789000804716480068401C144908601448006876
:1078A000401C134908601348006820B11148006863
:1078B000401E104908601048006820B10E4800685A
:1078C000401E0D4908600D48006820B10B48006853
:1078D000401E0A4908600A48006820B1084800684C
:1078E000401E0749086010BD98030020A80300202F
:1078F000AC03002094000020980000209C00002091
:10790000A00000200029018802D041F0800102E09F
:1079100040F27F32114001807047C94301827047B5
:10792000C943018270470029018802D041F001015A
:1079300002E040F2FE32114001807047002A828945
:1079400001D00A4300E08A438281704710B5028863
:1079500002F08F020280CA884B8804881A432243AF
:1079600002808A88064C012382850A88A04202850B
:10797000838202D0034A904201D1097A018610BD68
:10798000002C01400034014010B54FF480610C48D8
:10799000FCF7BAFF4FF400610948FCF7B5FF4FF45C
:1079A00080510748FCF7B2FF4FF400510448FCF740
:1079B000ABFF4FF480410248FCF7A6FF10BD00006A
:1079C0000020014010B540F22551284800F079FA16
:1079D000F0B3264800F0F0FA0446A4F58070FF38B2
:1079E00035D0E0B200F00EFA214802680068401C71
:1079F0001F4B18601F4884540A2C28D104201E49AC
:107A0000087000201D4908600CE01A481B490968ED
:107A1000405C1B49194A1268885418480068401C89
:107A20001649086015480068114909688842ECD376
:107A3000124802680068401C104B186010488454BB
:107A400000200F491A46126888540949086000E06E
:107A50000BE007480068642802D900200449086048
:107A600040F22551014800F0DEF910BD004C004005
:107A7000D00300206E890020CC030020D403002016
:107A80000A89002010B5044603E014F8010B00F049
:107A900005F820780028F8D110BD000070B5044624
:107AA0004FF4615500BF4021064800F003FA10B9B9
:107AB000681E0500F7D12146024800F081FA03F064
:107AC00087FD70BD004C004010B504462046FFF70E
:107AD000D9FF0D20FFF7E2FF0A20FFF7DFFF10BDFF
:107AE00038B540F22551124800F0EBF9F8B1012504
:107AF000104805F0F6F9002814DD0E4805F00AFAE2
:107B000004000FD00A4800F057FA40B200902A460D
:107B10006946E068FBF761FB28B2208121460648F0
:107B200005F0CFF940F22551014800F07CF938BD4D
:107B30000038014044A2002034A2002010B50446C1
:107B400003E014F8010B00F005F820780028F8D1C4
:107B500010BD000070B504464FF4615500BF4021D0
:107B6000064800F0A7F910B9681E0500F7D12146B4
:107B7000024800F025FA03F02BFD70BD00380140EB
:107B800010B5044603E014F8010BFFF7E3FF20787B
:107B90000028F8D10D20FFF7DDFF0A20FFF7DAFFFC
:107BA00010BD000010B510210348FCF7AFFE062001
:107BB0000249088010BD00000008014000040020B8
:107BC00010B540F22551364800F07BF9F0B3344847
:107BD00000F0F2F9C4B2402C05D13248006810B967
:107BE0000020304908602F4801680068401C2D4A79
:107BF00010602D48445410460068322802D90020F5
:107C0000114608600A2C4AD10120284908702548ED
:107C100000680A382449085C254908702148006832
:107C200009382149085C224948701E480068083814
:107C30001D49085C1E4988701A480068C01F1A490F
:107C4000085C1B49C8701748006800E027E0801FE7
:107C50001549085C1649087112480068401F12490E
:107C6000085C134948710F480068001F0E49085C02
:107C70000F4988710B480068C01E0B49085C0C490D
:107C8000C87108480068801E0749085C08490872E6
:107C900004480068401E0449085C0549487210BD4C
:107CA000004400400404002010880020020400204A
:107CB000D888002000B50249024800F0C4F900BD90
:107CC000B8030020B403002070B504464FF461559A
:107CD000FFF768FF00BF4021064800F0EBF810B93D
:107CE000681E0500F7D12146024800F069F903F04B
:107CF0006FFC70BD0044004010B5044603E014F86A
:107D0000010BFFF7E1FF20780028F8D10D20FFF7E5
:107D1000DBFF0A20FFF7D8FF10BD000010B540F2CE
:107D20002551164800F0CDF830B3144800F044F95E
:107D300004462046FEF7CCFDA4F58070FF3806D03F
:107D40000F490888411C0E4B19800E490C540A2C0F
:107D50000AD00D480088801E0C49085C0D2803D00D
:107D600009480088FA2802DD01200949087040F21C
:107D70002551024800F057F810BD000000480040AF
:107D800084030020EE45002008040020D4A6002033
:107D9000DE03002000B50249024800F054F900BD9E
:107DA000C0030020BC03002070B504464FF46155A9
:107DB00000BF4021064800F07DF810B9681E05009C
:107DC000F7D12146024800F0FBF803F001FC70BD3A
:107DD0000048004000B5C823024A0349034800F0A8
:107DE0001BF900BDC8030020C40300204887002001
:107DF00000B50249024800F026F900BDC803002082
:107E0000C403002010B50446C82322460249034893
:107E100000F01DF910BD0000C403002048870020B9
:107E2000C943018070470A0A01219140C94301807A
:107E300070470029818902D041F4005101E021F40A
:107E40000051818170470000184A10B5811A13153E
:107E500090421BD007DC1649401814D0984223D119
:107E600001218C0417E0994213D0B1F56C4F1BD15E
:107E700001218C032046FEF7EDFA2046BDE81040B4
:107E80000021FEF7E7BA01214C0404E00121CC04F3
:107E900001E001210C052046FEF7C4FA2046BDE8AA
:107EA00010400021FEF7BEBA10BD0000004C00409B
:107EB00000BCFFBF0246128800200A4200D0012009
:107EC000704770B501F01F0501260024C1F342136D
:107ED00006FA05F2012B01D1838904E0022B01D1BE
:107EE000038A00E0838A4FEA11210088134206FAD0
:107EF00001F600EA060001D000B10124204670BD61
:107F000010B5C1F3421301F01F040121A140012B60
:107F100001D10C3004E0022B01D1103000E014300C
:107F2000002A026801D00A4300E08A43026010BDC3
:107F300030B50446008A85B00D464CF6FF71084006
:107F4000E98801432182A0894EF6F3110840A988EF
:107F50002A8911436A8902431143A181A08A4FF6FD
:107F6000FF410840A9890143A1826846FEF79CFAB7
:107F70001048844201D1039800E002981921484337
:107F8000296864228900B0FBF1F0B0FBF2F109012D
:107F90000B096FF018056B43322500EB830005EBEE
:107FA0000010B0FBF2F000F00F000843208105B094
:107FB00030BD0000003801408088C0F308007047E1
:107FC000C1F308018180704710B5FFF773FEFFF71A
:107FD000E1FEFFF70DFF00224FF4E1310A4800F007
:107FE00059F800224FF4E131084800F053F800221C
:107FF0004FF4E131064800F04DF800224FF4E13132
:10800000044800F047F810BD00380140004400402B
:1080100000480040004C0040F0B505460E461446AE
:108020001F462146304602F0B9FD012801D1801ECD
:10803000F0BD2068401C90FBF7F107FB11002060A9
:108040002068285CF4E700220A600260704730B5BF
:1080500004460868401C90FBF3F503FB150008601C
:1080600008682254012030BD70B504460D464FF417
:10807000615600BF40212046FFF71CFF10B9701E5B
:108080000600F7D129462046FFF79AFF03F0A0FA31
:1080900070BD000070B586B004460E4615467D489A
:1080A000844229D125208DF8140000208DF8150078
:1080B0008DF8160001208DF8170005A8FEF71FF9AE
:1080C00001218803FEF7BAF92015ADF8100003204E
:1080D0008DF8120004208DF8130004A96E48FCF7F7
:1080E000B9FB6015ADF8100018208DF8130004A935
:1080F0006948FCF7AFFB95E06848844236D12620FA
:108100008DF8140000208DF815008DF81600012060
:108110008DF8170005A8FEF7F2F801214804FEF7D4
:1081200075F90820ADF8100003208DF81200042026
:108130008DF8130004A95848FCF78CFB0420ADF817
:10814000100018208DF8130004A95348FCF782FB97
:108150001020ADF8100003208DF8120010208DF8CB
:10816000130004A94C48FCF775FB5BE04C488442C3
:1081700029D101218804FEF749F927208DF8140040
:1081800000208DF815008DF8160001208DF81700DD
:1081900005A8FEF7B4F8E014ADF8100003208DF840
:1081A000120004208DF8130004A93E48FCF752FB8E
:1081B0002015ADF8100018208DF8130004A93948D7
:1081C000FCF748FB2EE03848844229D10121C8043D
:1081D000FEF71CF934208DF8140000208DF81500EE
:1081E0008DF8160001208DF8170005A8FEF787F816
:1081F000E014ADF8100003208DF8120004208DF873
:10820000130004A92948FCF725FB2015ADF8100040
:1082100018208DF8130004A92448FCF71BFB01E08B
:1082200006B070BD2046FFF70FFE00960020ADF8A7
:108230000400012D04D14FF4C060ADF8080008E03F
:10824000022D03D16802ADF8080002E00020ADF86D
:1082500008000020ADF80600ADF80C000C20ADF8C9
:108260000A0069462046FFF763FE40212046FFF7DB
:10827000D7FD40F225512046FFF7D2FD012240F202
:1082800025512046FFF73CFE01212046FFF7D1FD96
:1082900000BFC5E70038014000080140004400402D
:1082A00000480040000C0140004C0040001001401C
:1082B0007047704700BFFEE710B504462046FFF741
:1082C00003FC10BD0FB4084B10B504A902AA039813
:1082D00000F0C6F8044602A9002000F055FC204634
:1082E00010BC5DF814FB0000898B000802E008C890
:1082F000121F08C1002AFAD170477047002001E020
:1083000001C1121F002AFBD1704700002DE9FF5F59
:10831000DDE90210020DDDF838B001430FD10F98EE
:1083200001244AA3012807D000980F9AC0E9003120
:10833000C0E90242BDE8FF9F6FEA0B01F4E7A2F239
:10834000FF3244F61050424315140F9801280FD005
:10835000A5EB0B00401C4FF000043D4EDFF8F490FD
:10836000B0F1000AA046C0F1000717DB074615E090
:10837000CBF10000EFE7F80707D02246334640462E
:108380004946FBF77BF9804689462246334620461C
:108390003146FBF773F904460E467F10002FEAD1F1
:1083A000DDE90201BAF1000F42464B4602DAFBF763
:1083B00065F901E0FBF7D3F904460E460022264B8F
:1083C000FBF754FA03D84FF0FF30014607E00022D4
:1083D000224B20463146FBF7ACF8FBF72FFA10246E
:1083E00009E0002C0ADB0A220023FBF737F8019B87
:1083F00030321A55641E50EA0102F2D1641C019A0F
:10840000C4F1110314440F9A012A07D00122084332
:1084100001D15B450DDD00226D1C0DE0084303D149
:10842000A3EB0B056D1E09E000204FF0110B0F9020
:108430008BE701DA00226D1E002A86D000980F9982
:10844000C0E90231C0E9004574E7000030000000D7
:10845000000024400000F03F0000F0430000E03F37
:108460002DE9FF4F95B006469A460F460025F2E1EA
:10847000252878D10024761CFB4AA04601210694C9
:108480003378203B01FA03F0104202D00443761CFB
:10849000F6E730782A2811D06FF02F023078A0F15B
:1084A0003001092915D8069944F0020401EB810135
:1084B00002EB41010844761C0690EFE701CF0690DD
:1084C000002803DA404244F40054069044F00204C9
:1084D000761C30782E2817D116F8010F44F00404CA
:1084E0002A280ED06FF02F023078A0F13001092930
:1084F0000AD808EB880102EB410100EB0108761C69
:10850000F2E757F8048B761C30786C280FD006DC25
:108510004C2817D068280DD06A2814D104E074289C
:1085200010D07A280FD10DE044F400140AE044F48E
:10853000801401E044F440147178814202D1761C29
:1085400004F58014761C3078864666280AD012DC42
:10855000582872D008DC80B3452803D0462801D0C3
:1085600047281AD196E118E0632832D0642875D0E4
:10857000652812D18EE170286ED008DC67286CD097
:1085800069286BD06E280DD06F2806D1A9E073281A
:1085900028D075286FD078286ED05246179990470A
:1085A0006D1C56E1C4F30250022807D003280BD0FB
:1085B000042801CF0BD005604BE150E101CF4FEA19
:1085C000E571C0E9005144E101CF058041E105704A
:1085D0003FE101CF8DF8000000208DF80100EB464F
:1085E000012003E057F804BB4FF0FF3061074FF064
:1085F000000102D40DE009F10101894641450FDA7D
:108600008145F8DB1BF809100029F4D108E009F1D5
:10861000010189468142FADB1BF809100029F6D1D5
:1086200006985346A0EB090080462146179A00F0B1
:1086300094FA284400EB090505E047E01BF8010B1C
:10864000524617999047B9F10109F7D2534621468E
:108650004046179AFAE001E03AE01BE10A21C4F330
:1086600002524FF0000B0091022A06D001CFC11731
:10867000032A08D009E022E023E0FF1D27F00707C6
:10868000F7E8020105E000B2C117042A01D140B2A7
:10869000C117002906DA0A460021404261EB0201B7
:1086A0002D2202E0220504D52B228DF80420012280
:1086B00003E0E20701D02022F7E7914653E00A21C8
:1086C00010E010204FF0000B00900EE0102109E0A8
:1086D00010204FF0000B44F004044FF00808009005
:1086E00003E008214FF0000B0091C4F30252022A6C
:1086F00004D001CF0021032A06D007E0FF1D27F098
:108700000707F7E8020105E080B20021042A01D141
:10871000C0B200214FF00009220724D5BEF1700F2E
:108720002AD0009B83F0100353EA0B0309D150EACF
:10873000010206D030228DF804208DF805E00222D7
:108740009146009B83F0080353EA0B030BD150EAD8
:10875000010201D1620706D530228DF804204FF0C6
:108760000109A8F1010841A2BEF1580F00D044A2AE
:1087700003920FAA02920FE040228DF804200122FA
:10878000DEE75B46009AFAF769FE039B9B5C029A60
:10879000A2F101020292137050EA0102F1D1029893
:1087A00007A9A1EB000000F1200B600702D524F41B
:1087B000803401E04FF00108002041465A46D84578
:1087C00001DDA1EB020000EB0B010090069849448B
:1087D000A0EB01000690E00306D453462146179A09
:1087E000069800F0BAF90544002008E001A85246B6
:1087F00010F80800179990476D1C08F10100804699
:108800004845F3DBE0030CD553462146179A0698FA
:1088100000F0A3F9054404E0302052461799904730
:108820006D1C0099481E00900029F5DC08E00298B4
:10883000029952460078491C0291179990476D1C85
:10884000BBF10001ABF1010BF1DC67E100F072F963
:10885000054406F10106307800287FF409AE19B00E
:108860002846BDE8F08F000009280100303132337E
:10887000343536373839414243444546000000001C
:108880003031323334353637383961626364656686
:1088900000000000600701D44FF0060807F1070749
:1088A00027F00707A0A1F7E8020C0CF000431A001C
:1088B00007D19EA1220504D49DA1E20701D1AFF208
:1088C000440112912CF0004C7146BEF1650F0ED0A0
:1088D00007DC45290BD0462920D0BEF1470F3DD1FA
:1088E0003DE066291AD0BEF1670F37D137E000238B
:1088F00011224146B8F1110F00DA4A1CCDE90023DC
:108900000246634607A902A8FFF700FD0120009078
:108910004FF0000B08F10109039868E04FF00041A7
:108920000F910123CDE900830246634607A902A8FF
:10893000FFF7ECFCDDE904904FF0000B20B9039940
:1089400008F1010001EB0009B8EB090003D4C0F104
:10895000FF3B08F10109A9EB0800009048E04146FF
:10896000B8F1010F01DA0121884600231122B8F184
:10897000110F00DC0A46CDE900230246634607A931
:1089800002A8FFF7C3FC4FF0000BC14620070FD42D
:108990000499414503DA894601E0A9F10109B9F1D9
:1089A000010F05DD0299A9F10100085C3028F4D01F
:1089B0000399414502DA11F1040F03DA01200F9106
:1089C000009015E0002903DC8B44A9EB010005E0D1
:1089D000481C484503DD039800F1010081460399D6
:1089E000A1EB0B0000F1010000904FF000400F9050
:1089F000200705D40098484502DB4FF0FF30009077
:108A000000210F980DF147088DF84710B0F1004F85
:108A100026D0022001902B2013900F9800280CDA0A
:108A200040420F902D20139007E00A210F98FAF78B
:108A3000FFFC30310F9008F8011D0199481E01908C
:108A40000029F2DC0F980028EFD1A8F10102139958
:108A50001170317801F0200141F0450108F8021D44
:108A600010A9A1EB080000F107000190129800780E
:108A700000B1012000EB0901009801EBE0710198C1
:108A800001440698A0EB0100A0F101000690E0036C
:108A900006D453462146179A069800F05EF805441E
:108AA0001298007820B152461799904705F10105B8
:108AB000E00322D553462146179A069800F04DF858
:108AC00005441AE0BBF1000F07DB0499594504DDAA
:108AD000029911F80B00179901E0179930205246BE
