:020000040800F2
:1030000048B4002061430108B9410108BB410108EF
:10301000BD410108BF410108C14101080000000095
:10302000000000000000000000000000C341010893
:10303000C541010800000000C7410108C94101085D
:1030400077430108774301087743010861DD0008F1
:103050007743010877430108774301087743010864
:103060007743010877430108774301087743010854
:103070007743010877430108774301087743010844
:103080007743010877430108774301087743010834
:10309000E7410108774301087743010877430108B6
:1030A0007743010877430108774301087743010814
:1030B0002D3301087743010877430108774301085E
:1030C00077430108774301087743010877430108F4
:1030D00077430108F33401084B350108CB3501086B
:1030E0007743010877430108E94101087743010864
:1030F00077430108774301087743010877430108C4
:1031000077430108774301087743010877430108B3
:103110009136010877430108774301087743010896
:103120007743010877430108774301087743010893
:10313000DFF80CD011F0DCFD0048004729B400088E
:1031400048B40020002100E0491C8142FCDB7047AC
:1031500010B56420FFF7F6FF4FF48041FA4811F0F4
:103160001FFF4FF40071F94811F01AFFBDE810403D
:103170004FF47A7004F031B970B5F34D4FF48044D8
:103180002146284611F00EFF0120FFF7DBFF214604
:10319000284611F005FFBDE870400120D2E770B568
:1031A000EA4D4FF400742146284611F0FBFE012041
:1031B000FFF7C8FF2146284611F0F2FEBDE8704037
:1031C0000120BFE72DE9F041DF4F4FF400563146B3
:1031D000384611F0D4FE0028F9D04FF4804138462B
:1031E00011F0DEFE00253146384611F0C8FE0028F9
:1031F000F9D100246D00FFF7BFFF3146384611F0CA
:10320000BEFE3146384611F0BAFE012800D16D1CD1
:10321000641CE4B2182CEDD3FFF7AEFF2846BDE8DE
:10322000F08110B5CA4C05202060FFF7CBFF236862
:10323000B3B1C84A632102EB810454F8044C42F84C
:103240002140491E0029F6DC591E106003E052F8A7
:103250002140491E20440029F9DCB0FBF3F001E0D5
:10326000012121601921B0FBF1F010BD2DE9F041E1
:10327000B64F4FF480763146384611F080FE002874
:10328000F9D04FF48041B04811F08AFE0025314654
:10329000384611F074FE0028F9D100246D00FFF7C4
:1032A0007EFF3146384611F06AFE3146384611F04D
:1032B00066FE012800D16D1C641CE4B2182CEDD30D
:1032C000FFF76DFF2846AAE710B5A14C0520206046
:1032D000FFF7CCFF2368B3B19F4A632102EB81045F
:1032E00054F8044C42F82140491E0029F6DC591ECE
:1032F000106003E052F82140491E20440029F9DC07
:10330000B0FBF3F001E0012121601921B0FBF1F0E5
:1033100010BD10B500208F4A014642F82010401C15
:10332000C828FAD38C4A002042F82010401CC82834
:10333000FAD30121894811F033FEBDE81040022183
:10334000874811F02DBE2DE9F047864F0025834EAA
:103350002C463D700121304611F022FE4FF001094C
:10336000DFF8048202E0641C44450DD80421304695
:1033700011F005FE0028F6D0387801282CD0002462
:1033800005E0641C444502D987F8009024E004213C
:10339000304611F0F4FD0028F3D1387801281BD015
:1033A00000240121304611F0FDFD502004F00AF800
:1033B0006D000421304611F0E2FD05440A2004F0BE
:1033C00001F80121304611F0EBFD502003F0FAFF27
:1033D000641CE4B2182CE4D32846BDE8F08770B52D
:1033E0005E4E00250121304611F0DAFD0421304601
:1033F00011F0C5FD0028F9D00421304611F0BFFDC1
:103400000028F9D10421304611F0B9FD0028F9D087
:103410000421304611F0B3FD0028F9D10024012128
:10342000304611F0BFFD962003F0CCFF6D00042163
:10343000304611F0A4FD05440121304611F0B0FDE5
:10344000322003F0BFFF641CE4B2182CE7D32846F7
:1034500070BD2DE9F047DFF80881002502214046C4
:1034600011F09EFD3D4F4FF400542146384611F0B7
:1034700086FD0028F9D02146384611F080FD00284D
:10348000F9D12146384611F07AFD0028F9D02646B8
:103490002146384611F073FD0028F8D10024B146CA
:1034A00002214646404611F07DFD962003F08AFF3A
:1034B0006D004946384611F062FD05440221304650
:1034C00011F06EFD322003F07DFF641CE4B2182C75
:1034D000E6D3284681E782E7BBE710B5FFF77FFF19
:1034E0001B490B68B3B11B4AC72102EB810454F896
:1034F000044C42F82140491E0029F6DC591E106098
:1035000003E052F82140491E20440029F9DCB0FBB9
:10351000F3F001E001220A601421B0FBF1F010BDCC
:1035200010B5FFF796FF0A490B6843B30A4AC72153
:1035300002EB810454F8044C42F82140491E002952
:10354000F6DC591E106015E000180140001401401F
:1035500008390020A4390020C43C0020001001409C
:10356000000C014000000020A086010052F821401C
:10357000491E20440029F9DCB0FBF3F001E00122F0
:103580000A601421B0FBF1F010BD2DE9F04F99B0A5
:1035900000254FF0FF38FE4BDFF8F8B3DFF8F89363
:1035A0001A78DFF8F8A3012A0ED1FD49002008702F
:1035B0008BF8000089F800008AF80000F9490870CB
:1035C000F9490870F94908703032F9A10CA812F0D5
:1035D0000FF80CA810F0B7FA0027F74C01260120CD
:1035E00003F0F7FE2078E8B3012003F0F2FE207824
:1035F000C8B3F248002727700760F1485021F14A0C
:1036000001803C4602206FF02F03115CA1F1300CC9
:10361000BCF1090F04D9A1F1410CBCF1050F07D889
:1036200004EB840403EB4404401C0C440728ECDD49
:10363000082841DB0222E4A1E24810F021FF18B380
:103640000222E2A1DF4810F01BFF18B30222E0A122
:10365000DC4810F015FF18B30222DEA1D94810F0A3
:103660000FFF01E002E004E000B325E07F1C642FBF
:10367000B5DBD349B1F9000008B1401E0880C44849
:103680000278042A1BD047E0D34804608BF800601E
:10369000D24810E0D248046089F80060D1480AE0BE
:1036A000D14804608AF80060D04804E0D048046043
:1036B000BC480670CF48077010F0C3FBDFE7C64870
:1036C000C949CD4F0468C64809683F680068231897
:1036D0005D18C74B1B6805EB03080125E7B109AF6F
:1036E00008940BC7B1480378AF480178AD48047817
:1036F0009AF80000CDE90404CDE9061399F800100A
:103700009BF80030A648CDE90231CDE90085037869
:10371000BAA10CA811F06CFF9D490878401CC0B2FA
:103720000870042800D90E702DB19D4806704046DF
:1037300019B0BDE8F08FC0480068F9E72DE9F04FF7
:10374000934B00256C1E1A78934E944FDFF85482E9
:10375000B5B0AA46012A11D1914981F800A08D493E
:1037600081F800A086F800A087F800A088F800A0E3
:103770008D4981F800A08D4981F800A030328CA1DC
:103780000EA811F035FF0EA810F0DDF9DFF828B211
:103790004FF00009012003F01CFE9BF8000018B157
:1037A000012003F016FE04E009F10109B9F1640FEC
:1037B000F0DB77484B46A1A102780EA811F018FF64
:1037C0000EA810F017F958469BF800207C49DFF846
:1037D00020B2002A44D080F800A07848794B4FF0FE
:1037E0000009C0F800A05020088002206FF02F0CC4
:1037F000195CA1F13002092A02D9113A052A08D828
:1038000009EB89020CEB4202401C01EB020907287C
:10381000EEDD082858DB02226BA16A4810F030FE6A
:1038200020B3022269A1674810F02AFE30B30222B9
:1038300067A1644810F024FE38B3022265A16148F4
:1038400010F01EFE40B302227FA15E4810F018FE69
:1038500048B302227DA15B4810F012FE58B333E05A
:10386000B1F9000090B3401E08802FE05A490120B2
:10387000C1F8009047490870584923E05849012091
:10388000C1F80090307057491CE05748C0F80090CC
:1038900001203870554915E00120CBF8009088F8D8
:1038A000000054490EE06A490120C1F800903E49E9
:1038B0000870684906E068490120C1F800903B495A
:1038C0000870664981F800A010F0BBFADFF8C090DC
:1038D000634899F800200068824255D16149062862
:1038E00008681AD068B12B48017800294ED0317889
:1038F0000029FBD039780029F8D098F80010002969
:10390000F4D03548016836480068014436480068FC
:103910000144DBF800000C180AE278B11D48017878
:10392000E9B13178D9B13978C9B198F80010B1B19D
:103930001D49097899B11D49097881B12648016866
:10394000274800680144284800680144DBF800006B
:1039500001443F48006801443F480068DBE70178C4
:1039600099B9317889B1397879B198F8001061B195
:103970000D49097849B10D49097831B118480068F5
:103980004100194800686FE02DE27AE022E1000072
:103990006538002068390020693900206A39002024
:1039A000743900206B3900206C3900206D390020FB
:1039B000402D2563520000003A3800206038002076
:1039C00054390020129500202D3100002D320000C6
:1039D0002D3300002D34000094380020663800207C
:1039E00098380020673800209C3800206838002074
:1039F000A038002069380020403900202028257593
:103A00003A25752920256C642C2025642E2E2564EA
:103A10002C25642C25642C25642C25642C25642CF1
:103A200020256C642C20256C642C20256C642C20B3
:103A3000256C64202000000070390020206C256473
:103A40003D25642E000000002D3500002D360000BD
:103A5000A43800206A380020A83800206B380020E5
:103A600004010020283900200144DBF80000014453
:103A7000EB4800680144EB480068BCE081F800A016
:103A800056E1017811B3317801BB3978F1B198F87A
:103A90000010D9B1E4490978C1B1E4490978A9B164
:103AA000E34800684100E34800680144DBF8000097
:103AB0000144DB4800680144DA480068AEE0087859
:103AC000401CC0B208700228D8D231E10178E1B1BF
:103AD0003178D1B13978C1B998F80010A9B1D2497B
:103AE000097891B1D149097879B1D1480168D248B2
:103AF00000680144DBF8000001440144C848006844
:103B00000144C84800680C1810E10178E1B131782F
:103B1000D1B13978C1B198F80010A9B9C249097872
:103B200091B1C249097879B1C1480168C2480068B9
:103B30000144C048006801440144B9480068014498
:103B4000B84800680C1893E00178E9B13178D9B130
:103B50003978C9B198F80010B1B1B349097899B969
:103B6000B249097881B1B2480168B348006801449C
:103B7000B04800680144DBF800000144A94800682F
:103B800001440C18AD499AE70078002872D03078CB
:103B90000028FBD038780028F8D098F800000028DA
:103BA00068D0A1480078002864D0A0480078002898
:103BB00060D19F480168A048006801449D480068A2
:103BC0000144DBF8000001449548006801440C18EA
:103BD0009B4974E7017881B9317871B1397861B165
:103BE00098F8001049B1934801689348006801EBC8
:103BF0004001DBF800000C1868E0017881B13178F1
:103C000071B9397861B198F8001049B189480168F3
:103C10008748006801EB4001DBF800000C1877E0F2
:103C2000017881B1317871B1397861B998F80010B3
:103C300049B17F480168804800680144DBF8000012
:103C400001EB400472E0017831B1317821B139786B
:103C500011B198F8001011B1017861B114E0744805
:103C600001687548006801447248006801EB40042F
:103C7000744924E789E0317831B9397821B198F86D
:103C8000001009B16B4809E0017859B9317849B1A0
:103C9000397839B998F8001021B167480168DBF824
:103CA000000011E0017831B9317821B1397811B1D2
:103CB00098F8001021B10178A1B1317841B111E03B
:103CC0005D4801685B480068084444005E49F6E6C8
:103CD000397839B998F8001021B155480168DBF8F6
:103CE000000013E0017831B1317821B9397811B190
:103CF00098F8001031B1017879B1317869B139782B
:103D000041B10AE04A4801684A4800680844440052
:103D10004E49D4E698F8001011B1017851B113E082
:103D20004348016844480068084444004849C6E6DE
:103D300001252AE0317839B9397829B998F8001085
:103D400011B1DBF8000066E0017831B9317821B1BA
:103D5000397811B998F8001011B1017811B108E063
:103D6000354857E0317821B9397811B198F8001009
:103D700021B1007848B1307810B106E02D4849E013
:103D8000387810B998F80000F0B33248006850B3A2
:103D90002448DBF800C00368214801682548006812
:103DA000CDE90A0C2448CDE90C13036820480168CA
:103DB0001E4890F800C01C480078CDE9060CCDE9FB
:103DC000081398F800103B7836782348007803965B
:103DD0000094CDE901502148CDE904310378204910
:103DE0000EA811F005FC99F800001E4A401CC0B254
:103DF00089F800001268904202DD012089F8000075
:103E00005DB10120154900E003E00870204635B09F
:103E10008FE40748006884008AE713480068F6E7E3
:103E2000A4380020A83800206C3900206D3900200B
:103E3000943800209C380020983800206A380020F0
:103E40006B38002069380020663800206738002071
:103E5000683800204039002068390020743900207B
:103E6000245F010804010020703900202DE9FF4182
:103E7000984841F27072016891427DD30024046039
:103E80000FF03FFA94489549DFF8588282790A701A
:103E900093490379944E0B70C17888F800108578A7
:103EA000924F357046783E70914F0078387003908D
:103EB0008DE862008FA19A4811F09AFB98480FF0A4
:103EC00089FD98480068002831D097A167200DF03F
:103ED000FDF84FF4FA7003F07CFA954D95A1286E29
:103EE0000090D5E916238E4811F082FB984E0127E9
:103EF000307840B9A86D092808D109F05BF995A080
:103F00000FF068FD3770A86D092800D03470964E08
:103F1000307840B9A86D0F2808D109F04BF98DA071
:103F20000FF058FD3770A86D0F2800D034708F4EF9
:103F300098F800104546306888421DD04FF49670BE
:103F400001F05AFC8AA00FF045FD287830608C48BB
:103F500004708C4804708C4804708C4804708C4841
:103F60004169816101694161C16801618168C16024
:103F700041688160016800E0A9E04160854D2968E1
:103F8000016085484169816101694161C1680161E0
:103F90008168C16041688160016841607F4E31681D
:103FA00001607F490868401C08607E480168491C20
:103FB00001602C60346004F01EF87B487B49007877
:103FC000097808437A49097808433CD179487A4C02
:103FD000006801283BD02068784C794F01284CD0EC
:103FE00004F013FD23683A6876A14D4811F000FBF8
:103FF00000214B4A084604F0CAFE04F002FD75A1F8
:1040000047482A6811F0F4FA454A0221002004F0DA
:10401000BEFE74A14248326811F0EAFA404A042117
:10402000002004F0B4FE04F0F0FC28683168421867
:1040300070A13B4811F0DCFA394A0621002004F057
:10404000A6FE04F0DEFCBDE8FF4109F0B3B804F0C1
:10405000DCFC20682A6801280DD06AA1304811F0E4
:10406000C7FA2F4A0621002004F091FE04F0C9FC93
:1040700005F022F9E7E767A1F0E704F0C6FC236842
:104080003A6868A1264811F0B3FA0021244A08468C
:1040900004F07DFE04F0B5FC66A121482A6811F009
:1040A000A7FA1F4A0221002004F071FE65A11C48F6
:1040B000326811F09DFA1A4A0421002004F067FECC
:1040C00004F0A3FC28683168421862A1B1E7BDE89A
:1040D000FF810000FC3700201838002070360020D7
:1040E00071360020723600207336002074360020AE
:1040F00075360020646174653A3230253032782D8F
:10410000253032582D25303258202074696D653A9B
:10411000253032782D253032582D25303258200068
:1041200044880020D000002054494D450000000084
:10413000E0AE00206B77616B776F6E686F3D253066
:1041400032643A253032643A25303264000000008F
:10415000F03600206D6F64656D2072657374617256
:104160007420212121000000F13600203439002084
:1041700044617465206973206368616E67656400DB
:104180005E3600205F360020603600206136002059
:1041900088AE00202C390020A4AE00203839002041
:1041A000303900203C390020D6360020DC36002093
:1041B000D7360020BC000020CC000020FC380020B6
:1041C000F438002053494C4F3A25356C642D253581
:1041D0006C64000046454544313A25356C64206BDB
:1041E0006700000046454544323A25356C64206B33
:1041F00067000000544F4441593A2025356C642033
:104200006B670000544F4441593A2025356C6420B7
:10421000206B6700BFC020B4C33A2025356C6420F2
:10422000206B6700B9ABB0D43A25356C642D2535C9
:104230006C640000B1DEC0CCB7AE313A25356C6499
:10424000206B6700B1DEC0CCB7AE323A25356C6466
:10425000206B6700BFC020B4C33A2025356C6420B2
:104260006B6700002DE9F05FDFF8B4830126DFF80B
:10427000B49398F800000024EB4F002850D005F0CC
:10428000A6FB04F0D0FFE9480168FA2948D9046088
:10429000E7A00FF09FFBE9480470E9480078002888
:1042A0003ED1E8490B68E84A1068834238DA934601
:1042B0000A68801A642833DCE44DDFF894A3DFF841
:1042C00094C32A6802442A60DAF800200244CAF83B
:1042D0000020DCF800300344CCF80030DFF878C36D
:1042E000DCF800300344CCF80030DC4BD3F800C0DD
:1042F00060441860D1F800C0CBF800C00968D84B02
:104300001960D8490968814205D821B1DFF858B34E
:104310009BF8000028B13868012840D002284DD011
:1043200066E03868012801D101F03DFA032001F070
:104330003AFA8BF8006004F0A3FF04F0AAFECB4821
:10434000006801281AD00021C9A2084604F01FFD08
:10435000CBA20221002004F01AFDCCA204210020EF
:1043600004F015FDCDA20621002004F010FD04F09C
:104370004CFFCD4888F800400470B3E00021CBA288
:10438000084604F004FDCDA20221002004F0FFFC49
:10439000CEA20421002004F0FAFCD0A2E3E704F04E
:1043A00034FBD2A1D448DAF8002011F021F9D24A26
:1043B0000221062004F0EBFC2A680EE0CFA1CE48D3
:1043C00011F016F9CC4A0221082004F0E0FC04F0B8
:1043D0001CFB2968D9F800000A18CAA1C64811F0C8
:1043E00007F9C54A0621002004F0D1FC04F009FBBE
:1043F000C848C94D0068F8B1DFF820A39AF800104A
:1044000069B9944A1168884209DC081A2C60106066
:104410008AF80060386801281FD001F087F9286801
:10442000322804D3386801281BD001F092F928689B
:10443000642801D38AF8004098F80010B848C346B1
:1044400039B1DFF864A29AF8001011B10178804602
:1044500059B10078012859D05AE0042001F096F9AA
:10446000DDE7042001F09FF9E1E7386801284FD12A
:10447000AC4800683C3803284AD8AB48016871480A
:104480000068091AA9480068814241DA00283FD033
:10449000012001F088F9032001F085F988F8006017
:1044A00004F0DFFE04F0F5FD7048006801281CD020
:1044B00000219FA2084604F06AFC71A2022100209C
:1044C00004F065FC71A20421002004F060FC73A2DA
:1044D0000621002004F05BFC04F097FE8BF80040FE
:1044E0008AF800400120BDE8F09F002194A2084610
:1044F00004F04DFC71A20221002004F048FC73A2DC
:104500000421002004F043FC74A2E1E704F0A9FEBA
:1045100055480078012801D104F0B2FE8C4800789B
:10452000002873D03868022870D105F050FA04F0E2
:1045300089FE8849DFF824A20878401C0870864864
:104540000168FA293ED9864A04601168DFF81482AE
:10455000854BD8F80000814218DA1168401A6428A7
:1045600014DCD9F800100144C9F80010DAF8001082
:104570000144CAF800101968084418601068C8F8A7
:1045800000001068794908602C4804705BA15A4803
:104590001A6811F02DF8584A0421082004F0F7FB9E
:1045A00004F033FA29480168D9F800000A1855A127
:1045B000514811F01DF8504A0621002004F0E7FB95
:1045C00004F01FFA5348006800B3DFF8A48198F89C
:1045D000001071B9DAF8001088420ADC081A2C6061
:1045E000CAF8000088F800603868012810D001F08F
:1045F000A2F82868322809D3386801280CD001F0C5
:10460000ADF82868642801D388F8004000206AE7E4
:10461000042001F0BBF8ECE7042001F0C4F8F0E757
:104620009038002038390020BC000020F4370020EA
:10463000696E74657276616C20210000BC360020C2
:104640006C360020F4380020783600202C39002009
:10465000F0000020CC360020E03600209436002008
:10466000B836002018390020D7360020CC000020B2
:1046700020484947482052454C45415345000000D9
:104680004552524F5220212100000000434845432B
:104690004B20202052454C45415345004D4F544F2F
:1046A000522021210000000066360020BBF3C7D154
:1046B000B9E8C3E220BFA1B7AF210000BBE7B7E173
:1046C0002CB9E8C3E2B8F0C5CD000000C1A1B0CB61
:1046D000C8C420C0FCBFF8C0BB000000B4D9BDC333
:1046E00020C4D1C1D6BCBCBFE42100002025356C5C
:1046F00064206B67200000004488002025356C642E
:1047000000000000BFC020B4C33A2025356C6420EF
:104710006B67200010390020EC370020D4360020D1
:10472000D636002090360020843600201439002030
:10473000204C4F572052454C454153450000000046
:10474000C7CFC7D1B9E8C3E220BFA1B7AF210000EE
:1047500091380020C4360020F8370020D0360020E1
:10476000FC3800207C360020F4000020C0360020F9
:10477000D53600202DE9F047934F0024934E38782A
:10478000934DDFF850924FF0010A002879D09248FB
:10479000047004F03AFD91483C700470904C286815
:1047A000206090480068904FDFF840823860D8F869
:1047B0000010081A8E490028086007DD31680422BD
:1047C00001440020316003F068F83060894E042213
:1047D0009C20316803F061F83060642002F0FDFD38
:1047E000854E0422C420316803F057F830606420FD
:1047F00002F0F3FD206843F6982188423DDA7FA05D
:104800000FF0E8F804224420216803F046F82860FD
:10481000642002F0E2FD86480068012802D00228E8
:1048200017D027E083482A68006801280FD082A1AA
:10483000854810F0DDFE04F0E8F8834A06210020E8
:1048400004F0A5FA40F6B83002F0C7FD10E07FA1F1
:10485000EEE704F0DAF82968D9F800000A187FA119
:10486000794810F0C5FE784A0621002004F08FFA3E
:1048700004F0C7F87DA00FF0ADF8894981F800A0D9
:1048800000E034E087A17048226810F0B1FE6E4865
:104890000FF0A0F888A16C483A6810F0A9FE6A48A9
:1048A0000FF098F889A16848D8F8002010F0A0FE11
:1048B00065480FF08FF88A4802688AA1624810F0B4
:1048C00097FE61480FF086F88B488CA102685E481D
:1048D00010F08EFE5C480FF07DF88DA15A482A68D2
:1048E00010F086FEBDE8F04757480FF073B88D4FC3
:1048F0003878002866D08C48047004F081FC8B481E
:104900003C7004708A4800688A4F8B493860096897
:10491000081A8A490028086007DD3168042201442A
:104920000020316002F0B9FF3060854ED9F80010E8
:1049300042F228304C463160814217D20422E820EE
:1049400002F0ABFF2060C82002F047FD04F05DF8E4
:1049500028682168421841A13B4810F049FE3A4AB4
:104960000621002004F013FA04F04BF84DA136485C
:10497000326810F03DFE34480FF02CF8714932488F
:1049800081F800A070A13A6810F032FE2E480FF0B6
:1049900021F86DA12C48226810F02AFE2A480FF059
:1049A00019F8642002F019FD04F02AFCC82002F076
:1049B00014FD04F002FCC82002F00FFDBDE8F04732
:1049C00004F01EBCBDE8F08768360020D800002047
:1049D0002C3900203839002090380020643600201F
:1049E00000370020F4380020FC36002098360020E4
:1049F000E8360020F0000020F400002073696C6F9E
:104A0000312063757272656E742066656564696EC7
:104A100067207175616E7469747920656570726F55
:104A20006D207361766520737461727420210000BB
:104A3000BC000020CC000020544F4441593A2025AE
:104A4000356C64206B67000044880020BFC020B430
:104A5000C33A2025356C64206B672000BFC020B4AA
:104A6000C33A2025356C64206B67000073696C6F56
:104A7000312063757272656E742066656564696E57
:104A800067207175616E7469747920656570726FE5
:104A90006D207361766520656E6420210000000042
:104AA000B4360020546F646179546F74616C726520
:104AB000663D25366C75200053746F705F576569CD
:104AC000676874203A202564000000005374617206
:104AD000745F576569676874203A20256400000098
:104AE000F838002067786C47726F73735765696791
:104AF0006874203A202564009C360020546F64615D
:104B000079546F74616C726566203A2025640000E8
:104B1000676E6C4461696C79546F74616C203A20E3
:104B2000256400006B360020913800206536002097
:104B3000FC38002004370020A0360020EC3600208E
:104B400008370020B5360020256C64002DE9F047B9
:104B5000DFF8CC908021484610F011FA334F012441
:104B600000250028DFF8BC802F49314E387804D06A
:104B700050B3086801281CD01DE028BB2D482E4AE0
:104B80000078127810431FD12C4802782C480AB1C3
:104B9000047000E005703C7088F800500868012837
:104BA00001D100F0C3FD27A00EF014FF0120BDE8E5
:104BB000F08700F0CEFD2949307808703D7088F804
:104BC000004027A00EF006FF4FF48071484610F019
:104BD000D6F929490028274A08780AD038B1274B46
:104BE000307818700D70147025A00EF0F3FE0020C0
:104BF000DDE70028FBD12848284B00781B781843B4
:104C0000F5D12748037827480BB1047000E0057000
:104C10000C70157024A00EF0DDFE0220C7E7000026
:104C20000010014068360020BC00002066360020DD
:104C30000C390020D6360020D73600206C360020F4
:104C4000E4360020464952535420444952454354C7
:104C50002053544152540D0A0000000067360020D2
:104C60004649525354204449524543542053544FCB
:104C7000500D0A006B360020693600206A3600208D
:104C80005345434F4E4420444952454354205354C6
:104C90004F500D0A00000000DC360020DD360020F9
:104CA0006D360020E53600205345434F4E442044E6
:104CB00049524543542053544152540D0A000000B8
:104CC000F8B536480068002867D0354E354D0FF0EE
:104CD0006DF80446401C0ED0E0B20EF069FE286864
:104CE0003454401C28600A2CF1D1002434542C4840
:104CF0000FF072F82C6008F04CFA411C45D02A4A9B
:104D00000121116029492A4B096861B3294F022109
:104D10007C253970284A7D700024111991F83810CB
:104D200009B13E19B170641C0B2CF6DB3919E41C77
:104D30008D70002503EB002603E0705D29196D1CC2
:104D4000785430460FF08CFBA842F6D81B480096EA
:104D50001CA103681A480268274810F049FC26483D
:104D60000EF038FE06E003EB0022921C23A111484E
:104D700010F03EFC0F480FF073FB2549086025A09A
:104D80000EF028FE0B480EF025FE2648007800287D
:104D900003D0BDE8F84007F0CBBFF8BDD00000203D
:104DA000E0890020C836002078000020503900201B
:104DB0001641002016400020E0AE002088000020B0
:104DC0008400002043646D6153656E6451756575A0
:104DD000655F71686561643D25642C2043646D6185
:104DE00053656E6451756575655F717461696C3D7D
:104DF00025642C2025730000B788002041542B55D2
:104E00004E49434153543D303030302C257300001F
:104E1000740000203A3A3A3A3A3A3A3A3A3A3A3A46
:104E200000000000D43800202DE9F04F9BB000288E
:104E30007FD0014619A80FF01AFBA248A249A44B43
:104E40000468A248012CA34A8C6994FBF0F572D047
:104E500000FB154404944C6994FBF0F500FB1547E6
:104E60000C6994FBF0F500FB1546CC6894FBF0F55B
:104E700000FB154400948C6894FBF0F500FB15448E
:104E800001944C6894FBF0F500FB154E0C681B6810
:104E900094FBF0F500FB154593FBF0F400FB143494
:104EA00003949469D1F818C0644494FBF0FC00FBAF
:104EB0001C4402945469D1F814C0644494FBF0FC7F
:104EC00000FB1C4B1469D1F810C0644494FBF0FC47
:104ED00000FB1C4AD468D1F80CC0644494FBF0FC7D
:104EE00000FB1C499468D1F808C0644494FBF0FCB2
:104EF00000FB1C4C5468D1F804801268444494FBB5
:104F0000F0F800FB18440968114491FBF0F200FB33
:104F10001211714A12681A4492FBF0F300FB13223B
:104F20006E4803230078002871D057208CE000E001
:104F300001E06BA17EE700FB15464C6994FBF0F5A0
:104F400000FB15450C6994FBF0F700FB1744009437
:104F5000CC6894FBF0F700FB174401948C6894FB39
:104F6000F0F700FB17444F6897FBF0FC00FB1C7741
:104F70000297096891FBF0F700FB1719196891FB7C
:104F8000F0F300FB131B916991FBF0F300FB13138B
:104F9000516991FBF0F700FB1711176997FBF0FCC3
:104FA00000FB1C770397D76897FBF0FC00FB1C7A8B
:104FB000976897FBF0FC00FB1C7E5768126897FB14
:104FC000F0FC00FB1C7792FBF0FC00FB1C2C424A1F
:104FD000126892FBF0F800FB182240484FF00308DB
:104FE000007808B1572000E04E20CDE91660CDF8DA
:104FF000608015959DE86100CDE913503A48CDE9F0
:10500000116406683948007810B1572001E01AE0B1
:105010004E200DACCDF84090A4E8410803980AACAE
:10502000CDF824A00BC4CDE9052C3148CDE9077E8D
:1050300002683048016830A319A8CDE90103CDE921
:1050400003122E4831E04E20DDF81080CDE9170321
:10505000CDE91578DDE90003CDE912302248CDF81D
:1050600044E01496039B06682048007808B1572056
:1050700000E04E20CDE90D06CDE90F3502980592EE
:10508000CDE90BB006AF1A48A7E81210CDE9099A8E
:1050900000681B490968084416490A68CDE90320DD
:1050A00015A319A9CDE90113144802221649006875
:1050B000009014480368154810F09AFA1BB0BDE838
:1050C000F08F0000BC000020A4AE0020A0860100EC
:1050D0003839002088AE00202C390020913800207B
:1050E00042432D4E0000000000390020903800207F
:1050F000F4380020AC380020342E3000483900202D
:10510000FC38002044390020685F0108B78800207F
:1051100070B52D4E2D4C0025307848B12CA00EF0E6
:1051200012FD35702FA101200CF0B0FA2DA011E076
:105130002E480078B8B12E4E3068002827D12DA017
:105140000EF001FD4EF66020306030A101200CF021
:105150009DFA2EA0FFF768FE206800282FDD2D485D
:105160000EF0F1FC13E02C4E307880B12BA00EF045
:10517000EAFC35702DA0FFF757FE2068002802DDFD
:1051800024480EF0E0FC29A101200CF07FFA2068F1
:10519000002814DD274C40F2771148432168B1EB19
:1051A000001F0CD324A0FFF73FFE23A101200CF029
:1051B0006DFA0CF066FD17480EF0C5FC2560BDE8E1
:1051C00070400CF05EBD000064360020D40000206A
:1051D0004261696368756C20737461727420212167
:1051E0000000000042432D420000000090380020E3
:1051F000A40000204261696368756C206A756E675F
:105200002073656E64696E672021210042432D4A38
:1052100000000000B7880020B436002042616963B6
:1052200068756C20656E64202121000042432D4585
:10523000000000000438002042432D4E0000000012
:105240002DE9F0416C486D490078097808436C49B4
:10525000097808437DD16B486B4F6C4D00686C4CEE
:105260006C4E012852D0022873D104F0B0FB05F037
:10527000E0F804F0ACFB05F05FF804F0A8FB03F0E5
:10528000C4FB65492A78654D097842F2AC60002A72
:1052900073D00029216871D0814200DD2060296827
:1052A000814200DD28602B6822685DA15F4810F014
:1052B0009FF95E4A0021052003F069FD03F0A1FB80
:1052C0002068B04202DC2868B04242DD03F0E1FE13
:1052D000386801287DD0002155A2084603F057FD0B
:1052E00058A20221002003F052FD59A204210020FF
:1052F00003F04DFD58A20621002003F048FD0320D5
:1053000000F044FA0A2002F068F8FBE704F05FFBC3
:1053100005F08FF82878226808B152A100E054A166
:10532000424810F065F9414A0021052003F02FFDA5
:105330002068B04234DD03F0ACFE386801281ED08E
:1053400000213BA2084603F022FD02213DA20020DD
:1053500000E04FE003F01BFD3DA20421002003F01C
:1053600016FD3DA20621002003F011FD032000F0F0
:105370000DFA0A2002F031F8FBE71DE014E00021ED
:105380003EA2084603F003FD40A20221002003F0E4
:10539000FEFC43A20421002003F0F9FC43A2E1E754
:1053A000BDE8F04104F013BB814200DD20602B68B2
:1053B000226842A17AE70CE039B12968814200DD18
:1053C00028602B68226840A170E72B68226841A101
:1053D0006CE7002129A2084603F0D9FC2BA2022188
:1053E000002003F0D4FC2EA20421002003F0CFFC07
:1053F0002EA280E7BDE8F081D6360020DC36002002
:10540000D7360020BC000020CC0000206C360020E5
:10541000F43800209F8601006D360020FC38002003
:105420002D25346C642F2D25346C640044880020B5
:105430004C4F41442043454C4C204552524F522141
:1054400000000000504F574552204F464620210093
:10545000434845434B0000004C4F41442043454CDA
:105460004C2021003A2D25356C64206B672000000C
:105470003A2025356C64206B67200000B9ABB0D4AE
:10548000BCBEBCAD20BFA1B7AF212100C0E5BAF1C1
:1054900020C0FCBFF8C0BB20B2F4B0ED000000009B
:1054A000B9ABB0D4BCBEBCADB8A60000C1A1B0CBF6
:1054B000C7D820C1D6BCBCBFE42100002D25346C68
:1054C000642F25356C64000025356C642F2D253440
:1054D0006C64000025356C642F25356C6400000079
:1054E000F0B51948174C1A4D0378184827681B4E19
:1054F00002781848642F01781748007815D30027E0
:105500002760174C27687F1C2760164C27687F1C74
:10551000276023B11AB12C780CB1641E2C7021B114
:1055200018B134780CB1641E347013B10AB12A7802
:105530002AB111B108B1307808B10020F0BD0120C6
:10554000F0BD0000003800209038002068360020B0
:1055500067360020913800206B3600206A36002024
:1055600090360020D83600202DE9FF41354E3068B6
:1055700000284BD00DF0C5FE3348344A354C8179B4
:105580001170334A0179374D1170C378324A237054
:1055900081781170314A4178117031490078087072
:1055A00031A13A482A6810F023F838480EF012FA70
:1055B0003748DFF8E0800027006848B3364901200B
:1055C000376008603549086035480068A8B135483B
:1055D000066835480368354802683548416D8DE8EE
:1055E0004E00D0E9132333A13C4810F001F83B48AA
:1055F0000EF015FB39480EF0EDF9D8F80000002840
:1056000004D0401EC8F8000020782860BDE8FF8163
:1056100004F0DDF932A037600EF0DCF9D8F80000B4
:105620000028F3D0401EC8F80000227831A11346AC
:1056300016482A600FF0DCFF04B01448BDE8F041C2
:105640000EF0C8B9BC380020183800207036002091
:105650007136002072360020733600207436002028
:105660007536002034390020203A206769546F6471
:1056700061793D25303278202020313338315F4444
:105680004154413D2530325800000000448800203C
:10569000D0000020F4360020D0380020B0380020A0
:1056A000503900208C3900208839002084390020AE
:1056B000E0AE002041542B42433D24444154453D3B
:1056C000253034642530326425303264253032642C
:1056D000253032642530326440000000B788002055
:1056E0004F6E65206D696E75746520726F746169A7
:1056F0006F6E00004F6E655F6D696E757465732027
:10570000726F746174696F6E203A206769546F64B8
:1057100061793D25303278202020313338315F44A3
:105720004154413D25303258000000004FF40061E3
:1057300066480FF037BC4FF4805164480FF032BC1C
:105740004FF4005161480FF02DBC102160480FF05C
:1057500029BC4FF400615D480FF022BC4FF480512A
:105760005A480FF01DBC4FF4005158480FF018BCB8
:10577000102157480FF014BC10B5FFF7EAFFFFF7F0
:10578000EDFFFFF7F0FFBDE81040F1E7012806D07C
:10579000022805D0032804D0042803D1D5E7C5E7A3
:1057A000C9E7CDE77047012806D0022805D00328B5
:1057B00004D0042803D1DBE7CBE7CFE7D3E770477A
:1057C0004FF4805143480FF0EBBB08B54FF48050C5
:1057D000ADF8000003208DF8020010208DF80300C2
:1057E00069463C480FF054FBFFF7EAFF08BD4FF451
:1057F000805138480FF0D6BB10B50446FFF7F7FFCD
:10580000204601F0EAFDBDE81040D9E710B50024BC
:105810001420FFF7F1FF052001F0DFFD641C072CC9
:10582000F6DB10BD20212A480FF0BCBBFAE70221AD
:1058300026480FF0B7BB022124480FF0B1BB20214E
:1058400023480FF0ADBB10B5202121480FF0A8FB75
:10585000BDE81040F3E74FF400711D480FF0A2BB04
:10586000F9E74FF400711A480FF09ABBF9E7704757
:105870007047042115480FF093BB042113480FF023
:1058800091BB082111480FF08BBB08210F480FF086
:1058900089BBE6E7DFE74FF480710D480FF082BB6C
:1058A0004FF480710A480FF07BBB042107480FF0CA
:1058B00077BB042105480FF075BB082103480FF0A2
:1058C0006FBB082101480FF06DBB000000140140C0
:1058D000000C0140001001402DE9F04F002489B078
:1058E000A04603F0D6FBDFF8FC93D9F800000128AE
:1058F00015D00021FCA2084603F049FA03F085F810
:10590000FDA20621002003F042FA03F07AF8FD4FD1
:10591000FD4E4FF000053878012809D014E0002131
:10592000FAA2084603F033FA03F06FF8FBA2E8E7A7
:10593000FDF777FC0EF078FF0EF08CFF6D1CEDB2DA
:1059400030600A2DF4D30AE0FDF7C7FD0EF06CFFBE
:105950000EF080FF6D1CEDB23060642DF4D3F24D7B
:10596000686928640EF060FF696C0EF0FDFD0EF0B2
:1059700071FFA863EDA1684632680FF039FE6846F2
:105980000EF028F8EDA168462A6C0FF031FE68464B
:105990000EF020F8EDA16846AA6B0FF029FE6846CC
:1059A0000EF018F8686C0EF082FF02460B46EBA171
:1059B00068460FF01DFE68460EF00CF8DFF8ACB339
:1059C000BA4602F042FE08B3BBF800005F46012869
:1059D00008D1286C0EF028FF696C0EF0C5FD0EF0A2
:1059E00039FFA8633888022803D0388805280AD0F0
:1059F0000CE068690EF018FF696C0EF0B5FD0EF052
:105A000029FFA86302E001246FF064089AF80000FF
:105A1000012827D0FDF761FD30600EF0FCFE696CB7
:105A20000EF0A2FD0EF016FFD1490860A96B401AD6
:105A3000296900EB5100B0FBF1F2A8684243D9F8A4
:105A40000000012811D0CBA168460FF0D1FD6A46B5
:105A50000221002003F09BF9002CB2D009B040468F
:105A6000BDE8F08FFDF7DDFBD6E7C6A1ECE72DE939
:105A7000F04788B003F00DFBAB4C206B0EF0D4FE6A
:105A80000546E06A0EF0D0FE29460EF0A3FD8046E2
:105A90006169E069401A2062BEA00DF09BFFC0A1C1
:105AA000684662690FF0A4FD68460DF093FFBFA140
:105AB0006846E2690FF09CFD68460DF08BFFBEA1C1
:105AC0006846226A0FF094FD68460DF083FF404659
:105AD0000EF0EDFE8946064632464B46B9A16846B1
:105AE0000FF086FD68460DF075FFA06A0EF09CFE73
:105AF00041460EF06FFD0EF0C6FE05460246B4A10B
:105B000068460FF075FD68460DF064FF60690EF0A1
:105B10008BFE0746206A0EF087FE41460EF024FDFC
:105B200039460EF0C9FC0EF0AEFE0246ACA1684646
:105B30000FF05EFD68460DF04DFF4146AC480EF09B
:105B400049FD82460EF0B3FE02460B46A9A1684607
:105B50000FF04EFD68460DF03DFFA94AA9A1684629
:105B60000FF046FD68460DF035FF206A6FF0C10763
:105B7000A84209D2A7A20121002003F008F940F6AB
:105B8000B83001F02AFC0BE00EF04EFE0146504604
:105B90000EF0BCFE08D2A3A20221002003F0F7F809
:105BA000384608B0BDE8F08783A16846226A0FF046
:105BB0001FFD68460DF00EFFA0A16846A26A0FF017
:105BC00017FD68460DF006FF32464B467DA168463C
:105BD0000FF00EFD68460DF0FDFE206A0EF024FE6B
:105BE00041460EF0C1FC0546A06A0EF01DFE294696
:105BF0000EF0F0FC60640EF05AFE02460B4657A110
:105C000068460FF0F5FC68460DF0E4FE60690EF0A2
:105C10000BFE616C0EF0A8FC0EF01CFEA063314878
:105C20000068022802D0012802D006E088A200E025
:105C30008BA20221002003F0AAF84FF4FA64204658
:105C400001F0CBFB204601F0C8FB6FF06400A8E731
:105C50002DE9F04F0446874899B00026D0F800900F
:105C600003F017FADFF810821E4F2F4DD8F800000E
:105C7000012818D002F0C5FE386801282ED06879B6
:105C8000002C2CD001282BD07CA20021084603F048
:105C90007EF802F0B6FE7DA168462A6B0FF0A8FCE4
:105CA0006A46022146E13868012803D0002C18D04A
:105CB0007AA2EAE78CB102F0A8FE00217AA2084697
:105CC00003F065F802F09DFE7AA168462A6B0FF09A
:105CD0008FFC02216A460020F4E0FBE006E125E1AA
:105CE0003DE101E1CC00002043555252454E542085
:105CF0005745494748540000454E5445523A4E4591
:105D000058540000000000205C390020C7F6C0E7AE
:105D1000B9ABB0D4C8AEC0CE00000000C8AEC0CE93
:105D2000C5B03AB4D9C0BD00040000207261775FED
:105D300064617461203A202566000000765F61642A
:105D400063315F6F7267203A20256400765F61647B
:105D5000635F6F7267203A2025640000676E6646B5
:105D60006163746F72203A202566000010010020E4
:105D7000583900205745494748543A25366C642025
:105D80006B670000B9ABB0D43A25366C64206B6702
:105D900000000000313233343536373839300000F6
:105DA000565F5A45524F3D256C640000565F46557C
:105DB0004C4C3D256C640000565F5350414E3D25D0
:105DC0006C640000726174696F3D2566000000001C
:105DD0006C6F775F6C696D6974203A2025640000F0
:105DE000686967685F6C696D6974203A2025640092
:105DF0000024744B6572723235203A20256600000B
:105E00000024F40046554C4C5F4C494D4954203A0F
:105E1000202564004552524F522032342021212146
:105E2000000000004552524F52203235203A205394
:105E300050414E204849474800000000765F695FA6
:105E40007265736F6C7574696F6E203A20256400FB
:105E50002020535543434553532021212000000067
:105E600020B9ABB0D4C1B6C1A420BCBAB0F82121CE
:105E70000000000008390020BC00002020535041E1
:105E80004E2043414C283229000000002055504C40
:105E90004F41442025356C64206B670020535041EE
:105EA0004E2043414C0000002020BDBAC6C7C1B6F9
:105EB000C1A4000025356C64206B67BFC3B8AEBCBD
:105EC000BCBFE40002F063FF02F09FFD02F09DFD05
:105ED000F5A235E002F099FD0021F6A2084602F095
:105EE00056FF02F08EFDF1E7F5A2CEE668798CB19F
:105EF000012819D0F5A20021084602F048FF02F05F
:105F000080FDAFF2500168462A6B0FF071FB6A46C4
:105F1000022103E0012805D0EFA20021002002F0B9
:105F200036FFD3E7F0A2F8E7F3A2E4E7012814D0A4
:105F3000F4A20021002002F02AFF02F066FDF5A283
:105F40000621002002F023FF02F05BFDD8F80000DC
:105F5000DFF8D0A3012804D016E0F3A2E9E7F6A207
:105F600093E69AF800004FF00004012806D1FDF7EF
:105F700058F9641CE4B2142CF9D305E0FDF7ADFA2E
:105F8000641CE4B2142CF9D3B846AB4657469BF8D0
:105F900005005D460128387823D0012832D0FDF76E
:105FA000BFFA0446D8F80000224601282DD0E6A109
:105FB00068460FF01DFB6A460421002002F0E7FE50
:105FC00002F043FB28B1E348008805281FD0FFF703
:105FD0001DFC002EDBD0E0492046C1F8009019B02E
:105FE0003EE5012809D0FDF778FA0446D8F800000C
:105FF0002246012804D0D9A1DAE7FDF712F9F4E727
:10600000D9A1D5E7FDF760F9CBE7DBA1D0E7687947
:10601000012600240128387803D00128254612D013
:1060200018E001284FF0000506D1FDF7FAF86D1CC5
:106030000444322DF9DB13E0FDF74FFA6D1C0444E4
:10604000322DF9DB0CE0FDF73FF96D1C0444322DD5
:10605000F9DB05E0FDF764FA6D1C0444322DF9DB31
:10606000322094FBF0F4B4E72DE9F04F4FF0000933
:106070008BB04D464C4602F041FC03F00AF8DFF8C5
:10608000088398F8050001287ED0D8F83460BF480E
:106090004FF00A0A96FBF0F100FB116142F210701A
:1060A00091FBF0F1ADF8201096FBF0F100FB1161CF
:1060B0004FF47A7091FBF0F1ADF8221096FBF0F1FD
:1060C00000FB1161642091FBF0F1ADF8241096FB08
:1060D000F0F100FB1161504691FBF0F1ADF8261094
:1060E00096FBFAF10AFB1160ADF8280002F08DFC76
:1060F000A748A84F00680128386856D0012898F8AA
:1061000005005ED0012872D0A3A20021084602F04B
:106110003EFE3246A4A168460FF06AFA6A460421A0
:10612000002002F034FEAFF230420621002002F0DF
:106130002EFE02F066FC40F6C41B08AEBDF920102E
:1061400042F210704143BDF922006D1C00EB400289
:10615000C2EBC01001EBC001BDF924005D4500EBAE
:10616000C00202EB001001EB8001BDF9260000EB3C
:10617000800001EB4000BDF9281000EB01083AD186
:1061800038684246012800E00CE032D086A168461B
:106190000FF02EFA6A460421002002F0F8FD02F00A
:1061A00034FC3CE0D8F82C6071E7012801D083A2D0
:1061B000ABE7002185A2084602F0E9FD324687A13F
:1061C00008E0012811D08AA20021084602F0DFFD74
:1061D00032468BA168460FF00BFA6A460421002074
:1061E00002F0D5FD8BA2A0E701E08EA2ECE791A220
:1061F0008BE77AA1CBE741F2883085421DDD00258F
:1062000002F0FFFB38684246012824D066A16846A8
:106210000FF0EEF96A460421002002F0B8FDC4F147
:10622000040088A136F9102068460FF0E1F9C4F1A6
:106230000C006A46042102F0AAFD02F006FA18B327
:1062400044480088012808D0022813D004281CD014
:10625000052821D124E061A1D9E7C4F1040036F872
:106260001010491C09B291FBFAF326F810100AFB32
:10627000131107E0C4F1040036F9101009B1491EEA
:1062800000E0092126F8101006E0641CA0B20521E8
:10629000B0FBF1F201FB1204B9F1000F3FF44EAF75
:1062A0000BB04046BDE8F08F20C8AEC0CE203ABD4E
:1062B000C3C0DB002020BFB5C1A1C1B6C1A400008E
:1062C000205A45524F2043414C000000BDBAC6C77A
:1062D000C1B6C1A42832290020BFB5C1A1C1B6C131
:1062E000A42832290000000020BFB5C1A1C1B6C159
:1062F000A428312900000000BDBAC6C7C1B6C1A498
:1063000028312900205A45524F2043414C28322938
:106310000000000020454E5445523A535441525417
:106320000000000000000020205A45524F20434149
:106330004C28312900000000205350414E20434199
:106340004C283129000000004144432832293A25D5
:10635000376C640010010020083900204144433AA2
:1063600025376C640000000020C3E2B7C2B0AA3A2F
:1063700025376C6400000000C3E2B7C22832293A16
:1063800025376C640000000004000020A086010096
:10639000BC000020CC000020204C4F414420574539
:1063A0004947485428322900574549474854203A1C
:1063B0002530356C64206B6700000000204C4F4195
:1063C00044205745494748540000000020BFC3B847
:1063D000B1B9ABB0D420BCB3C1A4000020B9ABB0FC
:1063E000D4B0AA3A2530356C64206B6700000000F9
:1063F00020BFC3B8B1B9ABB0D42832290000000027
:1064000020B9ABB0D4B0AA203A2530356C64206BEB
:106410006700000020C8AEC0CEC5B03AB4D9C0BD38
:106420000000000020BFC3B8B1B9ABB0D4283129F7
:1064300000000000204C4F41442057454947485434
:1064400028312900253164002DE9F047002792B05A
:1064500006463C4602F01DFE02F0D7FAF9480068F5
:10646000012867D0F8A20021084602F090FC02F053
:10647000C8FAFA484FF00A0896FBF0F100FB1161E8
:1064800042F2107091FBF0F1ADF8341096FBF0F190
:1064900000FB11614FF47A7091FBF0F1ADF836100A
:1064A00096FBF0F100FB1161642091FBF0F1ADF877
:1064B000381096FBF0F100FB1161404691FBF0F1C2
:1064C000ADF83A1096FBF8F108FB1160ADF83C000E
:1064D00040F6B83A0DAEBDF9341042F210704143A7
:1064E000BDF936006D1C00EB4002C2EBC01001EBA1
:1064F000C001BDF93800554500EBC00202EB0010A9
:1065000001EB8001BDF93A0000EB800001EB400097
:10651000BDF93C1000EB01090ED14A46D0A16846F6
:106520000FF066F86A460421002002F030FC02F009
:106530006CFA12E0CFA296E741F2707085421BDD43
:10654000002502F05EFA4A46C5A168460FF050F8F1
:106550006A460421002002F01AFCC4F1040036F956
:106560001020AFF2201168460FF042F8C4F10C0081
:106570006A46042102F00BFC02F067F808B3C24837
:106580000088012806D0022811D004281AD0052836
:106590001FD121E0C4F1040036F81010491C09B2E3
:1065A00091FBF8F326F8101008FB131107E0C4F173
:1065B000040036F9101009B1491E00E0092126F83F
:1065C000101006E0641CA0B20521B0FBF1F201FB43
:1065D0001204002F3FF47FAF12B04846BDE8F087A9
:1065E0002DE9F041A0B000261822A84919A80DF005
:1065F00007FF002702F009FADFF84882A448A54CFB
:10660000D8F800100068012904D001280CD0022815
:1066100009D00EE0012802D0022802D009E09EA293
:1066200003E06079FBE760799FA20021084602F051
:10663000AEFB02F0E6F9607919AD01284FF00000D9
:1066400005D0E16855F820208A420AD00DE0A16803
:1066500055F820208A4204D0401CC0B20628F7D347
:1066600007E0062805D244B204E0401CC0B2062868
:10667000E8D30024D8F8000055F82420012822D0BF
:106680008DA168460EF0B4FF6A460221002002F098
:106690007EFB8CA20421002002F079FB02F0B5F908
:1066A0008CA20621002002F072FB02F0AAF901F090
:1066B000CCFFE0B374480088012816D002281CD013
:1066C000052825D121E087A168460EF091FF6A4692
:1066D0000221002002F05BFB85A20421002002F0D1
:1066E00056FB02F092F986A2DBE7641C64B2052C2B
:1066F0000EDD0524FFF78AF80AE0641E64B2002C60
:1067000006DAFFF783F8002402E055F8247001262A
:10671000D8F8000055F8242001280ED066A168465C
:106720000EF066FF6A460221002002F030FB002EC8
:10673000BDD020B03846BDE8F0816AA1EFE710B5C2
:106740008EB002F0DBF802F0A4FC3E48006801289D
:1067500046D06FA20021084602F019FB4FF47A7070
:1067600000F03BFEFFF73CFF4A4CA060E06AFFF7F9
:106770006BFE0A222261E06269A168460EF038FFD2
:1067800068460DF027F9A168E06AB0FBF1F26BA151
:10679000684662620EF02CFF68460DF01BF9626AD3
:1067A00020694243AFF66C116846A2620EF020FFEA
:1067B00068460DF00FF90020FFF74AFA6061FFF715
:1067C00053FC206302F01DF90120FFF741FAE0615C
:1067D000FFF74DF9FFF780F801F030FB0EB010BD68
:1067E0005BA2B7E72DE9F04F002489B0A04602F084
:1067F00050FC14480068012817D0AFF6143200216D
:10680000084602F0C4FA02F000F9AFF6143206218D
:10681000002002F0BCFA02F0F4F8514F514E4FF054
:106820000005387801280BD0AAE0AFF6203200210D
:10683000084602F0ACFA02F0E8F8AFF62032E6E7DC
:1068400092E00000CC000020202043415041434909
:10685000545920202020202000000000A0860100A4
:1068600056414C5545203A202530356C6420202077
:106870000000000020C3D6B4EBB9ABB0D420BCB349
:10688000C1A420200000000010010020EC5F0108DE
:10689000BC0000200400002020C7D1B4ABC0C7B0AA
:1068A000AA20BCB3C1A40000202044495649494F46
:1068B0004E20534554200000204449563A25326466
:1068C000206B67002055502D444F574E3A53454C8E
:1068D0004543540020454E5445523A204E455854A5
:1068E0000000000020B0AA3A253264206B67000047
:1068F000C0A72CBEC6B7A1C5B03A20BCB1C5C30065
:1069000020C8AEC0CEC5B03A2020B4D9C0BD00006A
:1069100020202043414C20204D4F444520200000A2
:10692000765F65695F6D756C7469706C795F6661BF
:1069300063746F72203A202564000000765F655F03
:106940007265736F6C7574696F6E203A20256400F0
:106950002020B9ABB0D4C1B6C1A4202000000000F3
:10696000000000205C390020FCF7AEFC0DF05CFF5D
:106970000DF070FF6D1CEDB23060642DF4D30AE0B1
:10698000FCF7CEFD0DF050FF0DF064FF6D1CEDB275
:106990003060642DF4D3FB4DA86928640DF044FFEA
:1069A000A96C0DF0E1FD0DF055FFA863AFF6844131
:1069B000684632680EF01CFE68460DF00BF8AFF624
:1069C000844168462A6C0EF013FE68460DF002F80A
:1069D000AFF688416846AA6B0EF00AFE68460CF0D6
:1069E000F9FFA86C0DF063FF02460B46E6A168466E
:1069F0000EF0FEFD68460CF0EDFFDFF8A0A3B946EF
:106A0000DFF89CB301F021FE08B3BAF80000574646
:106A1000012808D1286C0DF007FFA96C0DF0A4FD2A
:106A20000DF018FFA8633888022803D0388805289D
:106A30000AD00CE0A8690DF0F7FEA96C0DF094FDEA
:106A40000DF008FFA86302E001246FF0640899F8D4
:106A50000000012822D0FCF763FD30600DF0DBFE62
:106A6000A96C0DF081FD0DF0F5FECBF80000A96BCF
:106A7000401A296900EB5100B0FBF1F2E868C9A1A6
:106A8000424368460EF0B4FD6A460221002002F03F
:106A90007EF9002CB6D0404609B003E4FCF714FCA4
:106AA000DBE72DE9F04788B002F0F3FAB54C206B34
:106AB0000DF0BAFE0546606B0DF0B6FE29460DF0EE
:106AC00089FD8046D4E90610401A2062AFF63C509A
:106AD0000CF080FFAFF638516846A2690EF088FDD1
:106AE00068460CF077FFAFF63C516846E2690EF05D
:106AF0007FFD68460CF06EFFAFF644516846226A8F
:106B00000EF076FD68460CF065FF40460DF0CFFEB6
:106B10008946064632464B46AFF6585168460EF057
:106B200067FD68460CF056FFA06A0DF07DFE4146F9
:106B30000DF050FD0DF0A7FE05460246AFF6705170
:106B400068460EF055FD68460CF044FFA0690DF054
:106B50006BFE0746206A0DF067FE41460DF004FD0E
:106B600039460DF0A9FC0DF08EFE0246AFF69051AD
:106B700068460EF03DFD68460CF02CFF41468C48FF
:106B80000DF028FD82460DF092FE02460B46AFF650
:106B90009C5168460EF02CFD68460CF01BFF854AA0
:106BA000AFF6A05168460EF023FD68460CF012FFC8
:106BB000206A6FF0C107A84202D27FA2012109E03A
:106BC0000DF032FE014650460DF0A0FE08D2AFF6A1
:106BD000AC520221002002F0DAF8384608B0FDE499
:106BE000AFF62C616846226A0EF002FD68460CF092
:106BF000F1FEAFF6B8516846A26A0EF0F9FC68469D
:106C00000CF0E8FE32464B46AFF6486168460EF09F
:106C1000EFFC68460CF0DEFE206A0DF005FE4146F2
:106C20000DF0A2FC0546A06A0DF0FEFD29460DF010
:106C3000D1FCA0640DF03BFE02460B4652A1684613
:106C40000EF0D6FC68460CF0C5FEA0690DF0ECFD18
:106C5000A16C0DF089FC0DF0FDFDE0635CA202214A
:106C6000002002F094F84FF4FA64204600F0B5FBDF
:106C7000204600F0B2FB6FF06400AFE710B58EB0B5
:106C800002F007FA002156A2084602F080F84FF4FD
:106C90007A7000F0A2FB574909200860FFF7A0FCBA
:106CA000384CE060E06AFFF7CFFB0A22AFF2903188
:106CB0002261606368460EF09BFC68460CF08AFE19
:106CC000E168606BB0FBF1F2AFF29031684662624E
:106CD0000EF08EFC68460CF07DFE626A206942432D
:106CE000AFF6A8616846A2620EF082FC68460CF01E
:106CF00071FE0020FEF7ACFFA061FFF7B5F920633D
:106D00000120FEF7A5FFE061FFF7CBFEFFF76AFD6C
:106D100001F094F862E52DE9F041AAB00026402286
:106D2000354919A80DF06CFB002701F0E7FD02F0D2
:106D3000B0F901F06AFEDFF8C480D8F8000001283D
:106D400013D02FA20021084602F021F801F059FECD
:106D50000C4919AD487901284FF0000007D0496B64
:106D600055F820208A425BD05EE029A2EAE7C96A92
:106D700055F820208A4253D0401CC0B20E28F7D3C9
:106D800056E0000004000020676E66466163746F81
:106D9000725F32203A2025660000000010010020BA
:106DA0005839002053494C4F5F323A25376C640004
:106DB0000024744B0024F4004552524F52203234C8
:106DC000203A205350414E204C4F572000000000E5
:106DD000202053554343455353202020202020009A
:106DE0002020202043414C20204D4F44452020208E
:106DF000000000000839002004600108CC000020D9
:106E00005345542043415041434954590000000028
:106E1000C3D6B4EBB9ABB0D420BCB3C1A40000005E
:106E20000E2805D244B204E0401CC0B20E2897D30D
:106E30000024D8F8000055F82420012825D0D2A13C
:106E400068460EF0D5FB6A460221002001F09FFF44
:106E500001F0DBFDAFF294520421002001F097FF16
:106E6000AFF290520621002001F091FF01F0C9FD20
:106E700001F0EBFB00283ED0C6480088012818D05E
:106E800002281ED0052827D123E0C3A168460EF0B2
:106E9000AFFB6A460221002001F079FFAFF2B05249
:106EA0000421002001F073FF01F0AFFDAFF2B052FA
:106EB000D8E7641C64B20F2C0EDD0F24FEF7A6FC8D
:106EC0000AE0641E64B2002C06DAFEF79FFC002480
:106ED00002E055F824700126D8F8000055F8242067
:106EE00001280DD0A8A168460EF082FB6A46022157
:106EF000002001F04CFF002EBAD038462AB01AE428
:106F0000A5A1F0E72DE9FE4FDFF898B2DFF89892DF
:106F1000A64EA74C804601254FF0000AA54F402100
:106F200038460CF043FD2D2138460CF03FFD217909
:106F3000384630310CF03AFD522138460CF036FD1F
:106F40000D2138460CF032FD0A2138460CF02EFD9A
:106F50002079401CC0B22071042800D92571C820B6
:106F600000F03BFA9BF8001000297DD092488BF886
:106F700000A05746C0F800A099F801004946312802
:106F800006D0322828D033284AD0342823D16CE0C8
:106F900088788A4A30385043CA7840F271235A437D
:106FA00000EB0212087900EB4003C3EBC01002EBC8
:106FB000C002487900EBC00303EB001002EB800233
:106FC000887999F8071000EB800002EB4000084434
:106FD0003044E06425706BE08878784A303850435C
:106FE000CA7840F271235A4300EB0212087900EB91
:106FF0004003C3EBC01002EBC002487900EBC003B2
:1070000003EB001002EB8002887999F8071000EB7F
:10701000800002EB4000084430442065657047E082
:107020008878664A30385043CA7840F271235A4310
:1070300000EB0212087900EB4003C3EBC01002EB37
:10704000C002487900EBC00303EB001002EB8002A2
:10705000887999F8071000EB800002EB40000844A3
:1070600030446065A57023E04EE08878534A30389C
:107070005043CA7840F271235A4300EB0212087958
:1070800000EB4003C3EBC01002EBC002487900EBF9
:10709000C00303EB001002EB8002887999F8071017
:1070A00000EB800002EB400008443044A065E5702E
:1070B000D4E9132C636D02EB0C00C118A06DB8F17C
:1070C000000F0144E16512D0CDF800C0CDE90130D8
:1070D00013460A463AA146480EF08AFAD4E9150149
:1070E000CDE90001D4E9132342A1414804E0CDE9F0
:1070F000003063463FA13E480EF07AFA2770677071
:10710000A770E7700CF09DFE01F039FA00283FF4FB
:1071100005AF3E48008814287FF400AFE06DBDE85D
:10712000FE8F2DE9F041224C00252E4638A1304833
:10713000226B0EF05DFA246B3C4FDFF8D08001F03B
:107140001EFAD0B1B8F80000385C0C2810D2DFE885
:1071500000F0060606060606060606060C0E04EBFA
:107160008401012600EB410402E0002400E0012537
:1071700022462FA11E480EF03BFA002DDFD0002E34
:1071800000D02046BDE8F081204341503A253564C7
:10719000206B67001001002020B0AA3A253564203A
:1071A0006B6700003A38002012950020B0DCF7FF32
:1071B000040000200044004060380020A086010048
:1071C0005350414E2053554D3D25366C752C203182
:1071D0003D25366C752C20323D25366C752C2033C0
:1071E0003D25366C752C20343D25366C750000002D
:1071F000E43F00202825366C752C25366C752C252F
:10720000366C752C25366C75290000000E010020A7
:1072100034202D2053657474696E675F5765696704
:107220006874203D2025366C752000001801002070
:1072300034202D2053657474696E745F57656967D7
:107240006874203D2025366C7520000010B54FF481
:10725000803420460DF0BCFF0EF016F8634901287B
:1072600008701CD100200DF0A9FF00200DF0DAFFFE
:10727000A0110DF0CDFF4FF4E01120460DF0E2FF1C
:1072800001200DF0D9FF39200DF078FF0028FAD049
:1072900002200DF0EFFF0DF089FF0828FBD101213E
:1072A00004200DF009FF012108200DF005FF012148
:1072B00010200DF001FF012120200DF0FDFE012125
:1072C00040200DF0F9FE012180200DF0F5FE012196
:1072D00008020DF0F1FE012108460DF0EDFE01213E
:1072E00008460DF0D1FE012102200DF0CDFE012156
:1072F00048030DF0E1FE012188030DF0DDFE0121C0
:1073000048040DF0C1FE012188040DF0BDFE0121ED
:10731000C8040DF0B9FE012103200DF0A9FE0121E2
:107320004FF402400DF0C8FE012148050DF0ACFEFF
:107330000121BDE8104048070DF0A6BE08B5C020E9
:10734000ADF8000003208DF802001C208DF803002A
:10735000694627480DF09CFD08BD38B54FF44051F3
:107360004FF000600DF074FE4FF4C0600DF066FE4B
:1073700014208DF8000000248DF801408DF80240A3
:1073800001258DF8035068460DF01EFE03208DF890
:1073900000008DF801408DF802408DF803506846DA
:1073A0000DF012FE38BD41061248826942F001021A
:1073B00082611148426822F0E062426042680A43FA
:1073C0004260704702E00A21491EFDD2401EFAD2F7
:1073D00070474FF47A714843F4E742F2107302E0C9
:1073E0001946491EFDD2401EFAD27047AC0000205B
:1073F000000C01400010024000000140024611B99B
:10740000012070475043491E11F0FF01FAD1704727
:107410001FB50020ADF804004BF6FF70ADF8060074
:10742000A020ADF808004FF48060ADF80A0000011C
:10743000ADF80C00FD48FE4C0090694620460CF06B
:1074400033FD012120460CF095FD1FBD10B5FFF75F
:10745000DFFFF849A220088010BD38B50020ADF844
:107460000000F34CF34D012120460CF0A1FD142146
:1074700020460CF0ECFDADF80000297800222046F3
:107480000CF0DDFD142120460CF0E1FD8007EAD56B
:10749000E94920460CF052FE2046BDE83840012163
:1074A0000CF090BD2DE9F041E14E884605461446AA
:1074B000012130460CF07CFDE04F304639460CF09F
:1074C00025FE0028F9D0DB480022017830460CF078
:1074D000B6FDDB4F304639460CF018FE0028F9D0D7
:1074E000414630460CF0A6FDD54FBF1C394630460C
:1074F0000CF00CFE0028F9D00AE0297830460CF098
:1075000099FD6D1C394630460CF000FE0028F9D07C
:107510002000A4F10104E4B2EFD13046BDE8F0410F
:1075200001210CF04FBD2DE9F041054611F00F008F
:107530000C4602F00F01C0F11007C2F3071688468F
:1075400011D08EB1D01BC0F3071600F00F088FB317
:107550003A4621462846FFF7A5FFFFF77EFFE019D0
:10756000C4B23D4426E05EB90A4612E0102221462C
:107570002846FFF797FFFFF770FF1034E4B210358D
:107580003000A6F10106F6B2F0D15FEA080017D08C
:10759000024621462846FFF785FFBDE8F0415CE73B
:1075A000102221462846FFF77DFFFFF756FF1034D3
:1075B000E4B210353000A6F10106F6B2F0D1E4E7EE
:1075C000BDE8F0812DE9F041994E0F46054614467D
:1075D000012130460CF0ECFCDFF860823046414679
:1075E0000CF094FD0028F9D0924800220178304632
:1075F0000CF025FDDFF84882304641460CF086FD50
:107600000028F9D0F9B230460CF014FD8C4FBF1CA5
:10761000394630460CF07AFD0028F9D00AE0297886
:1076200030460CF007FDAD1C394630460CF06EFDBF
:107630000028F9D02000A4F10104A4B2EFD1304613
:10764000BDE8F04101210CF0BDBC2DE9F04105463B
:1076500011F00F000C4602F00F01C0F11007C2F349
:107660000716884612D096B1D01BC0F3071600F05B
:107670000F0897B33A4621462846FFF7A3FFFFF7C6
:10768000ECFEE01984B205EB470526E05EB90A4638
:1076900012E0102221462846FFF794FFFFF7DDFE97
:1076A0001034A4B220353000A6F10106F6B2F0D1B4
:1076B0005FEA080084D0024621462846FFF782FF91
:1076C000BDE8F041C9E6102221462846FFF77AFFBF
:1076D000FFF7C3FE1034A4B220353000A6F1010636
:1076E000F6B2F0D1E4E76BE72DE9F041504C0F46DC
:1076F0000546012120460CF05BFC504E20463146E9
:107700000CF004FD0028F9D04A48002201782046F8
:107710000CF095FC4A4E204631460CF0F7FC002850
:10772000F9D0394620460CF085FC2646444CA41C72
:10773000214630460CF0EAFC0028F9D02978304682
:107740000CF078FC214630460CF0E0FC0028F9D023
:107750003046BDE8F04101210CF034BC2DE9F04782
:10776000334F8A4605461446012138460CF020FC6A
:10777000324E384631460CF0C9FC0028F9D0DFF80B
:10778000B4800022384698F800100CF058FCDFF85E
:10779000B090384649460CF0B9FC0028F9D00121D8
:1077A00038460CF0E7FB514638460CF043FCDFF856
:1077B000909009F10209494638460CF0A7FC0028D0
:1077C000F9D0012138460CF0F3FB314638460CF075
:1077D0009DFC0028F9D098F8001001223E4638465A
:1077E0000CF02DFC154F7F1C394630460CF08EFCFA
:1077F0000028F9D0114F3F37BCB1012C07D100212F
:1078000030460CF0E9FB012130460CF0DBFB394639
:1078100030460CF07BFC0028EED030460CF00CFC1F
:10782000641E05F8010BA4B2E6E70BE0A086010098
:1078300000540040B00000200004001001000300CC
:10784000820007003046BDE8F04701210CF0C4BBC0
:10785000F8B50C4606464FF48075002128460DF019
:1078600007FC0120FFF7B9FDF1B204226846FFF7DB
:1078700075FF012C0BD0022C0CD0009C0120FFF7CF
:10788000ACFD012128460DF0F3FB2046F8BD9DF824
:107890000040F3E7BDF80040F0E7F8B50C460746B6
:1078A0004FF480761546002130460DF0E1FB012DA6
:1078B00010D0022D11D00094F9B204226846FFF7CF
:1078C00032FE0120FFF789FD012130460DF0D0FB8B
:1078D0002046F8BD8DF80040EEE7ADF80040EBE73C
:1078E0002DE9F04704218420FFF7B2FFFE4908602C
:1078F00004211820FFF7ACFFFC4908600421102088
:10790000FFF7A6FFFA4FFB4C43F698253860A042DC
:1079100000D33D6004210C20FFF79AFFF649086070
:1079200004218820FFF794FF804609210A20FFF7F1
:1079300065FD0CF070FF064640460CF075FF3146C1
:107940000CF048FEED4908600421B020FFF780FFED
:10795000EB4908600421C020FFF77AFFE94908607D
:107960000421BC20FFF774FFE749A042086000D360
:107970000D600421B820FFF76BFFE4490860042183
:10798000AC20FFF765FF054609210A20FFF736FD09
:107990000CF041FF044628460CF046FF21460CF04F
:1079A00019FEDB49086004211C20FFF751FFD9496B
:1079B00001260228086000D30E6004212020FFF772
:1079C00047FFD5490860401E322801D314200860C3
:1079D00004212C20FFF73CFFD049B0F5FA7F086066
:1079E00001D9322008600421F020FFF731FFCC4C90
:1079F000E060401E022800D3E66004217C20FFF7EF
:107A000027FFC84900250028086002DB3A68824247
:107A100000D20D6004218020FFF71AFFC249002820
:107A2000086002DB3A68824200D20D6004218C209B
:107A3000FFF70EFF6060A0F5D850583841F2717121
:107A400042F21077884200D3676004217420FFF768
:107A5000FFFE41F65831A060884204DB606843F2C3
:107A6000C821884200DDA7600421A420FFF7F0FEB2
:107A7000AE490860401E3C2801D33C200860042128
:107A8000F820FFF7E5FE20610A38B0F5F57F00D950
:107A900025610421FC20FFF7DBFE6061643842F2BF
:107AA000AD61884200D3656104218801FFF7D0FEF3
:107AB000A061401E4FF00A08322801D3C4F8188094
:107AC00004217820FFF7C4FEE061022800D3E661BC
:107AD0000421EC20FFF7BCFE2062022800D32662BE
:107AE00004213820FFF7B4FE91496428086001D3CF
:107AF000C1F8008004213C20FFF7AAFE8D494FF415
:107B00007A794845086000D90D6004214020FFF7CC
:107B10009FFE8949894A0860904200D90D6004217E
:107B20009020FFF795FE86490228086000D30E607A
:107B300004219420FFF78CFE824E834930608842F6
:107B400000D3356004219820FFF782FE7F49484525
:107B5000086000D30D600421A020FFF779FE7C4966
:107B60000228086000D30D6004212820FFF770FE72
:107B700060620B2801D3C4F8248004219420FFF70D
:107B800067FE30600A20FFF728FC7249306808441D
:107B90007149884201D37148306004214420FFF7C5
:107BA00057FE6F4908600A20FFF717FC04214820A0
:107BB000FFF74EFE6B4E30600A20FFF70EFC0421EB
:107BC0004C20FFF745FE70600A20FFF706FC0421F9
:107BD0005020FFF73DFEB0600A20FFF7FEFB0421B6
:107BE0005420FFF735FEF0600A20FFF7F6FB042172
:107BF0005820FFF72DFE30610A20FFF7EEFB04212D
:107C00005C20FFF725FE70610A20FFF7E6FB0421E8
:107C10006020FFF71DFEB0610A20FFF7DEFB0421A4
:107C20006420FFF715FE504908600A20FFF7D5FBD6
:107C30000421E820FFF70CFE4C4908600A20FFF7FA
:107C4000CCFB0421C820FFF703FE494E30600A2018
:107C5000FFF7C3FB0421CC20FFF7FAFD70600A2078
:107C6000FFF7BBFB0421D020FFF7F2FDB0600A2034
:107C7000FFF7B3FB0421D420FFF7EAFDF0600A20F0
:107C8000FFF7ABFB0421D820FFF7E2FD30610A20AB
:107C9000FFF7A3FB0421DC20FFF7DAFD70610A2067
:107CA000FFF79BFB0421E020FFF7D2FDB0610A2023
:107CB000FFF793FB0421E420FFF7CAFD2D4908607C
:107CC0000A20FFF78AFB04210020FFF7C1FD2A49A3
:107CD000A062884200D3A56204210846FFF7B8FDE0
:107CE0000421E062142049E0180000202400002054
:107CF0003000002040420F000C000020480000200F
:107D00001C0000206400002038000020100000202B
:107D10004C00002004390020083900200C390020D4
:107D2000B00000201C390020203900202439002018
:107D30001039002014390020183900208038010043
:107D400040390020443900208096980048390020AE
:107D500050390020600FE6FF21D6130068881E000E
:107D60002C39002088AE002030390020383900201E
:107D7000A4AE00203C39002001E1F505FFF768FDC5
:107D8000206304216820FFF763FD606304216C20F9
:107D9000FFF75EFDA06304217020FFF759FDE0634B
:107DA000E06A64389C2836D37021D920C4E90B10CE
:107DB000D4206063FA20A06342F2C7000422E0638B
:107DC0001046FFF76AFDE0621E20FFF706FB042263
:107DD0001420216BFFF761FD20631E20FFF7FDFAE1
:107DE00004226820616BFFF758FD60631E20FFF7D7
:107DF000F4FA04226C20A16BFFF74FFDA0631E2054
:107E0000FFF7EBFA04227020E16BFFF746FDE06319
:107E10001E20FFF7E2FA04219C20FFF719FD2064E1
:107E2000B84200D325640421C420FFF711FD60642B
:107E3000B84200D36564BDE8F087704738B50021CB
:107E40004FF480700DF014F9C048042284210068BA
:107E500000906846FFF767FB0A20FFF7BEFABC48B0
:107E600004220C21006800906846FFF75CFB0A20A2
:107E7000FFF7B3FAB7480422102100680090684663
:107E8000FFF751FB0A20FFF7A8FA09210A20FFF7A4
:107E9000B5FA0CF0C0FCB04909680CF065FB0CF0B9
:107EA000F2FC0090042288216846FFF73CFB0A2080
:107EB000FFF793FAA9480422182100680090684649
:107EC000FFF731FB0A20FFF788FAA5480422B0210A
:107ED000006800906846FFF726FB0A20FFF77DFA4E
:107EE000A0480422B821006800906846FFF71BFBF9
:107EF0000A20FFF772FA9C480422BC210068009017
:107F00006846FFF710FB0A20FFF767FA09210A20ED
:107F1000FFF774FA0CF07FFC944909680CF024FB1D
:107F20000CF0B1FC00900422AC216846FFF7FBFA8C
:107F30000A20FFF752FA8E480422C0210068009000
:107F40006846FFF7F0FA0A20FFF747FA8948002150
:107F50000078012807D0884C042280202160FFF798
:107F60009CFC206038BD854C04227C202160F6E713
:107F70007B4808B5006800900422B0216846FFF7EE
:107F8000D2FA0A20FFF729FA76480422B8210068BD
:107F900000906846FFF7C7FA0A20FFF71EFA7248FA
:107FA0000422BC21006800906846FFF7BCFA0A2052
:107FB000FFF713FA09210A20FFF720FA0CF02BFC37
:107FC0006A4909680CF0D0FA0CF05DFC00900422BC
:107FD000AC216846FFF7A7FA0A20FFF7FEF96448CC
:107FE0000422C021006800906846FFF79CFA0A202E
:107FF000FFF7F3F908BD10B5614C04226420216835
:10800000FFF74BFC20600A20FFF7E7F95D4C0422E4
:1080100044202168FFF741FC20600A20FFF7DDF9CA
:10802000594C216804224820FFF737FC20601E20AD
:10803000FFF7D3F9616804224C20FFF72EFC606043
:108040001E20FFF7CAF9A16804225020FFF725FC83
:10805000A0601E20FFF7C1F9E16804225420FFF759
:108060001CFCE0601E20FFF7B8F9216904225820AB
:10807000FFF713FC20611E20FFF7AFF961690422AE
:108080005C20FFF70AFC60611E20FFF7A6F9A169DA
:1080900004226020FFF701FCA0611E20FFF79DF97C
:1080A0003A4C0422E4202168FFF7F7FB20600A2005
:1080B000FFF793F9364C0422E8202168FFF7EDFB27
:1080C00020600A20FFF789F9324C21680422C82079
:1080D000FFF7E3FB20601E20FFF77FF961680422B1
:1080E000CC20FFF7DAFB60601E20FFF776F9A1686D
:1080F0000422D020FFF7D1FBA0601E20FFF76DF90E
:10810000E1680422D420FFF7C8FBE0601E20FFF7DF
:1081100064F921690422D820FFF7BFFB20611E20EB
:10812000FFF75BF961690422DC20FFF7B6FB6061B1
:108130001E20FFF752F9A1690422E020FFF7ADFBF2
:10814000A061BDE810401E20FFF747B918000020CD
:108150000C000020300000204800002024000020F7
:108160001C00002010000020380000204C000020DF
:108170006400002009000020203900201C39002064
:10818000303900202C39002088AE00203C390020F6
:1081900038390020A4AE00202DE9F84F4FF6BF106B
:1081A000ADF8000010258DF8035003248DF802402F
:1081B0006946F8480CF06CFE2F01ADF800708DF8A0
:1081C00003508DF802406946F3480CF061FEC02070
:1081D000ADF800008DF802401C208DF803006946C0
:1081E000EE480CF055FE42F20400ADF80000042603
:1081F0008DF803606946EA480CF04AFEADF800408D
:108200008DF803508DF802406946E5480CF040FEB9
:108210004FF00209ADF800908DF803508DF8024040
:108220006946DE480CF034FE6802ADF80000DFF865
:1082300074A38DF802408DF80360694650460CF037
:1082400027FEA802ADF800008DF802404FF0140898
:108250008DF80380694650460CF01AFEADF80070A8
:10826000DFF844B38DF802408DF803606946584644
:108270000CF00EFE6801ADF800008DF802408DF89C
:108280000380694658460CF003FE4FF4F060ADF8E9
:1082900000008DF803508DF802406946C3480CF089
:1082A000F7FD4FF47870ADF8000048208DF803001A
:1082B000694650460CF0ECFD2802ADF800008DF840
:1082C00003508DF802406946B5480CF0E1FD0827DF
:1082D000ADF800708DF803508DF80240694658469D
:1082E0000CF0D6FDADF800608DF803508DF802401B
:1082F000694658460CF0CCFDADF800908DF803505F
:108300008DF80240694658460CF0C2FD0120ADF8D8
:1083100000008DF80360694658460CF0B9FD4FF433
:108320006070ADF800008DF8036069469C480CF061
:10833000AFFDADF800708DF80360694697480CF00A
:10834000A7FD4FF46050ADF800008DF803508DF894
:108350000240694658460CF09BFDADF800508DF880
:1083600003508DF8024069468C480CF091FD0121C4
:108370008F480CF0DDFD01218E480CF0D9FDBDE8E1
:10838000F88F08B54FF48070ADF8000010208DF81C
:10839000030003208DF80200694680480CF078FD48
:1083A00008BD08B54FF48070ADF8000048208DF886
:1083B000030003208DF80200694678480CF068FD40
:1083C00008BD10B5734C4FF4806120460CF0E8FDF9
:1083D000E11420460CF0E4FDA11420460CF0E0FD71
:1083E000611420460CF0DCFD2046BDE810404FF43F
:1083F00080410CF0D7BD10B5664C4FF4806120462B
:108400000CF0CEFDE11420460CF0CAFDA11420466C
:108410000CF0C6FD611420460CF0C4FD2046BDE8FA
:1084200010404FF480410CF0BBBD10B5594C4FF4D7
:10843000806120460CF0B4FDE11420460CF0B0FD44
:10844000A11420460CF0AEFD611420460CF0A8FDEE
:108450002046BDE810404FF480410CF0A1BD10B59E
:108460004C4C4FF4806120460CF09AFDE1142046FC
:108470000CF098FDA11420460CF092FD61142046EA
:108480000CF08EFD2046BDE810404FF480410CF00A
:1084900087BD10B53F4C4FF4806120460CF082FD43
:1084A000E11420460CF07CFDA11420460CF078FD70
:1084B000611420460CF074FD2046BDE810404FF4D6
:1084C00080410CF06DBD70B5FFF7E3FF374D2846D6
:1084D0000CF052FD1F2414EA901101D0012028E075
:1084E000FFF7BDFF28460CF047FD14EA901101D0BC
:1084F00002201EE0FFF799FF28460CF03DFD14EA2C
:10850000901101D0032014E0FFF775FF28460CF00E
:1085100033FD14EA901101D004200AE0FFF751FF67
:1085200028460CF029FD14EA901101D0102000E03B
:1085300000200023102420251F4A102918D008DC11
:1085400001290DD002290DD004290DD0082910D100
:108550000CE0202904D0402904D0802909D103E06F
:10856000D38007E0D48005E0D58003E0302100E02F
:108570004021D180D188084480B2D08070BD10B530
:10858000FFF7A1FF0C49C888CA68824216D10020B3
:1085900010BD00000020014000080140000C014017
:1085A000001001400018014000140140001C01406F
:1085B000000430000002300008010020C8600028DC
:1085C000E6D0FDF714F99620FEF707FFFDF7F8F85F
:1085D0000120DDE710B5FFF776FF3548C088002899
:1085E000D6D00120D4E73EB5314C00252570314866
:1085F0000CF0C2FC00F4F870208120894FF6FF7166
:1086000001EA4000208122892BA168460CF0F0FF8E
:1086100021890120B1F5787F08D06070617841B17F
:1086200021896289914203D1257002E06570F5E7E6
:108630002070208960813EBD1D48002141708170FD
:108640000181418103218180704710B5FFF7CBFF85
:1086500017484178C9B10178B9B10189B1F5387FBE
:1086600015D00189B1F5687F13D00189B1F5F07F8C
:1086700011D00189B1F5587F0FD00189B1F5707F14
:108680000DD00189E0290CD00DE0002080E7012108
:1086900008E0022106E0052104E0032102E00421B4
:1086A00000E0062101810A20FDF7A6F801206FE70E
:1086B000080100200018014020255800C0F30721C0
:1086C000C2B2A0F53040A13841F65D0398420FD800
:1086D000B039C1EB011000EB411002EB4000FF4A42
:1086E000A13812F8101002EB4000407840EA012057
:1086F00070472DE9F041FA4D0F4604464FF40076DD
:10870000314628460CF04CFC394628460CF04CFC0F
:10871000EF147F2C3946284626D00CF043FC4FF44A
:108720008064214628460CF03BFC0120FEF74AFEFF
:10873000314628460CF036FC0120FEF743FE314658
:1087400028460CF02DFC0120FEF73CFE2146284671
:108750000CF028FC394628460CF022FC314628460D
:10876000BDE8F0410CF01EBC0CF01AFCD7E7642009
:10877000FEF728BEDB4910B501200870D84CC102B5
:1087800020460CF00DFC0320FEF71CFEA114204631
:10879000BDE810400CF006BCD24910B500200870AE
:1087A000CF4C4FF4805120460CF0FAFB0320FEF72B
:1087B00009FEE1142046BDE810400CF0F3BB70B593
:1087C0004FF6FF7101EA4001C64E01F4C07400F09B
:1087D0003F000443307810B3FFF7CCFFC04D4FF497
:1087E000004128460CF0DCFB4FF4804128460CF099
:1087F000D7FB3078B0B144F4805128460CF0D4FB5C
:108800004FF40054214628460CF0CCFB0120FEF723
:10881000D9FD21462846BDE870400CF0C1BBFFF7EA
:10882000BBFFDBE744F40061E7E7AF4910B5087030
:108830000878B830FFF7C3FFBDE810406420FEF7AA
:10884000C1BD00F01F01A94810B501700278A5490B
:108850000B2A08D200220A700078402100EB400069
:1088600001EB400005E001220A70007800EB4000B7
:108870004000FFF7A4FFBDE810406420FEF7A2BD52
:1088800010B50C46FFF7DDFF2046BDE81040CCE7F1
:1088900070B54FF6FF7101EA4001924E01F4C074C9
:1088A00000F03F000443307810B3FFF763FF8C4DB6
:1088B0004FF4004128460CF075FB4FF480412846E8
:1088C0000CF06EFB3078B0B144F4104128460CF047
:1088D0006BFB4FF40054214628460CF063FB01204B
:1088E000FEF770FD21462846BDE870400CF058BBED
:1088F000FFF752FFDBE744F40841E7E72DE9F047D3
:108900000025784F2E464FF001083E70FFF744FFD8
:108910004020FFF754FF05F1B8008146FFF74FFFF5
:1089200000240020FFF7B4FF0320FEF74BFD641C7A
:10893000E4B2402CF5D387F80080FFF71BFF4020FE
:10894000FFF73DFF4846FFF73AFF00240020FFF7FE
:108950009FFF0320FEF736FD641CE4B2402CF5D3E4
:108960006D1CEDB2082DD0D33E70604806705E4994
:108970000E7009780078FFF783FF5D4806805D4838
:1089800006805D4806805D4806805D4806805D483B
:1089900006805D4806805D4806805D4806805D482B
:1089A00006805D4806805D480680BDE8F0870F219F
:1089B0007F209EE60C217F209BE670B50D000446CB
:1089C00006D0012D07D0022D10D0032D09D110E0C3
:1089D00004F1800001E004F1C000C1B27F20FFF784
:1089E00088FE4F4804604F48056070BD04F1940054
:1089F000F3E704F1D400F0E710B50A20FEF7E2FC3B
:108A000010BD49490020087070474749FF20087091
:108A10007047354910B508700878B830FFF7CFFEB9
:108A2000BDE810406420FEF7CDBC10B52F4C20707F
:108A30002078402804D2FFF7AFFE2078403002E0D3
:108A4000FFF798FE2078FFF7BAFEBDE810406420DB
:108A5000FEF7B8BC10B50C46FFF7E7FF2046BDE8AF
:108A60001040D6E71F4910B5012008701E48007855
:108A7000FFF7DBFE4020FFF7A2FEBDE810406420B8
:108A8000FEF7A0BC70B51546FFF7FAFE0024284695
:108A9000FFF7FEFE641CE4B2062CF8D370BD70B57F
:108AA0000D460446402802D2FFF776FE03E0FFF7AA
:108AB00061FE403CE4B2B82000EBD500C6B23046BF
:108AC000FFF77DFE04F140000446FFF778FE3046D4
:108AD000FFF775FE2046FFF772FE27E044600108AD
