:020000040800F2
:1030000070780020E9B80008D1B80008D3B80008EB
:10301000D5B80008D7B80008D9B8000800000000EB
:10302000000000000000000000000000DBB8000805
:10303000DDB8000800000000DFB80008E1B80008B3
:10304000FFB80008FFB80008FFB80008997E000824
:10305000FFB80008FFB80008FFB80008FFB8000874
:10306000FFB80008FFB80008FFB80008FFB8000864
:10307000FFB80008FFB80008FFB80008FFB8000854
:10308000FFB80008FFB80008FFB80008FFB8000844
:10309000E3B80008FFB80008FFB80008FFB8000850
:1030A000FFB80008FFB80008FFB80008FFB8000824
:1030B000AFAA0008FFB80008FFB80008FFB8000872
:1030C000FFB80008FFB80008FFB80008FFB8000804
:1030D000FFB800082BAC000883AC000811AD000855
:1030E000FFB80008FFB80008E5B80008FFB80008FE
:1030F000FFB80008FFB80008FFB80008FFB80008D4
:10310000FFB80008FFB80008FFB80008FFB80008C3
:10311000D5AD0008FFB80008FFB80008FFB80008E8
:10312000FFB80008FFB80008FFB80008FFB80008A3
:10313000DFF80CD008F0D8FF00480047B36B000858
:10314000707800202DE9F04FDD4F0024651E3A789D
:10315000DFF870A3DFF870B3DFF87093DC4E99B03E
:10316000A046012A1CD1DB49DC4B404681F8008097
:10317000D9491960DA4BCBF800101960D94BCAF85D
:1031800000101960D84B1960D84981F80080D849DF
:103190000870D84989F8000030700870D649087066
:1031A0003032D6A10CA809F099FC0CA808F06CF8F4
:1031B0000027012001F05DF8D2480078002841D0B6
:1031C000012001F056F8CF490878D0B381F800808B
:1031D000CD49CE480027C1F800805021018002204F
:1031E0006FF02F02CA49095CA1F1300CBCF1090F44
:1031F00004D9A1F1410CBCF1050F07D807EB8707F3
:1032000002EB4707401C0F440728EBDD082843DB8F
:103210000222C0A1BE4808F0B9FB08B30222BEA139
:10322000BB4808F0B3FB10B30222BCA1B84808F0B9
:10323000ADFB18B30222BAA1B54808F0A7FB20B332
:103240002AE002E07F1C642FB3DBB049B1F9000033
:1032500008B1401E08809A480278042A26D014E15A
:103260009E48A249076001200870AE4912E0A048BC
:103270000121CBF800700170AB490BE09848AB49D5
:103280000760012089F8000004E00120CAF80070FE
:10329000A749307081F8008000209D4AA54BFF218E
:1032A00011541954401C0F28FADBD4E78F48904979
:1032B00000780978A0B1002999F8001023D00029DE
:1032C000317834D0002985490B68DBF800100B44B5
:1032D0008349096837D00B44DAF800105D1882E0A2
:1032E00081B399F8001069B3317859B37C490B6800
:1032F000DBF8001003EB4103DAF800105D184DE035
:1033000083F800806FE0E9B13178D9B174490B6876
:103310007249096803EB4103DAF800105D1850E0C8
:103320001978491CC9B219700229E9D25BE049B188
:103330006A490B68DBF800100B44DAF8001003EB65
:1033400041054EE003E003EB4105794BE8E76849AE
:10335000097850EA010707D199F8003023B1337892
:1033600013B15F490B6810E020B199F80030B9B192
:103370004BB32AE049B399F80030002B337801D0E1
:1033800033B122E00BB3DBF80030DAF8001003E0D1
:103390005349DBF80030096819444D00614BBFE721
:1033A000002B337801D033B10FE073B14B490B6878
:1033B000DAF8001003E049490B68494909681944E3
:1033C0004D00594BACE733782BB199F8003057EAF0
:1033D000030C0AD011E041490B68DBF800101944D6
:1033E0004D00524B9CE701241FE096F800C0BCF151
:1033F000000F02D0DAF800105CE030B929B123B92F
:1034000096F800C0BCF1000F01D01FB105E0DBF859
:1034100000104FE00BB1377817B130B111B104E0B3
:103420002F4946E00BB93178F1B34349096861B3DC
:103430002B49DBF800C0DAF800700B6827490968EF
:10344000CDE9081C2C49CDE90A370B782949367893
:103450000DF1100C0F7899F800100793ACE8C2003A
:1034600023490978CDE90054CDE90201194833A177
:1034700003780CA809F032FB14230CAA4FF4C8718E
:103480000A20CDF8008001F06CFF0D490878401C3F
:10349000C0B20870042801D90120087064B10D4938
:1034A00001200870284600E002E019B0BDE8F08F66
:1034B0000A4909688D0096E72F480068F3E7000085
:1034C0006D020020AC020020A40200207002002047
:1034D000710200209C0200209F860100A0020020B3
:1034E000A8020020B0020020B40200206E020020DA
:1034F0006F0200207202002073020020402D25631D
:103500005200000042020020680200202C0300202C
:10351000285900202D3100002D3200002D330000ED
:103520002D34000074020020750200207602002075
:1035300077020020605800201803002020282575FD
:103540003A25752920256C642C2025642E2E2564AF
:103550002C25642C25642C25642C25642C25642CB6
:1035600020256C642C20256C642C20256C642C2078
:10357000256C642020000000400300200121364813
:1035800008F06EBF08B50120ADF8000003208DF8EB
:10359000020010208DF8030069462F4808F0E2FE73
:1035A000FFF7ECFF08BD01212B4808F05BBF10B509
:1035B0000446FFF7F8FF204600F05FFEBDE810402C
:1035C000DCE710B500241420FFF7F1FF052000F020
:1035D00054FE641C072CF6DB10BD20211F4808F0A8
:1035E00041BFFAE720211D4808F03ABF10B520215D
:1035F0001A4808F035FFBDE81040F3E74FF480713A
:10360000164808F02FBFF9E74FF48071134808F00F
:1036100027BFF9E74FF40071104808F021BFF9E720
:103620004FF400710D4808F01DBFF9E704210C4864
:1036300008F016BFFAE70421094808F013BFFAE7BB
:103640000821074808F00CBFFAE70821044808F0F1
:1036500009BFFAE7E4E7DDE700100140000C014094
:10366000001401402DE9F05FDFF8FCA30125DFF82D
:10367000FC83FF4EDFF8FCB30027FF4C40212046BF
:1036800007F035FD2D21204607F031FD3179204628
:10369000303107F02CFD5221204607F028FD0D2186
:1036A000204607F024FD0A21204607F020FD30794E
:1036B000401CC0B23071042800D93571C82000F018
:1036C000D8FD9AF8001000297BD0EC488AF80070E9
:1036D0005C4607609BF80100312806D0322828D0CC
:1036E00033284AD0342847D16CE0A078E4493038F8
:1036F0004843E17840F27122514300EB01112079F7
:1037000000EB4002C2EBC01001EBC001607900EB9E
:10371000C00202EB001001EB8001A07900EB8000F9
:1037200001EB4000E179014401EB0800B063357022
:103730006DE0A078D24930384843E17840F27122F8
:10374000514300EB0111207900EB4002C2EBC010A5
:1037500001EBC001607900EBC00202EB001001EB4D
:103760008001A07900EB800001EB4000E179014489
:1037700001EB0800F063757047E0A078C04930386D
:103780004843E17840F27122514300EB0111207966
:1037900000EB4002C2EBC01001EBC001607900EB0E
:1037A000C00202EB001001EB8001A07900EB800069
:1037B00001EB4000E179014401EB08003064B57091
:1037C00023E05FE0A078AE4930384843E17840F22A
:1037D0007122514300EB0111207900EB4002C2EB52
:1037E000C01001EBC001607900EBC00202EB0010D9
:1037F00001EB8001A07900EB800001EB4000E17952
:10380000014401EB08007064F570307880B3707883
:1038100070B3B07860B3F07850B3D6E90E010844C5
:10382000316C0844716C084408F023FA316B08F0DD
:10383000C9F808F03DFAF16A401A8146024691A1A2
:10384000944809F04BF9F168B9FBF1F0B1684843CD
:103850008146024690A18F4809F040F94A4640F25D
:103860004511462002F059F837707770B770F7703D
:103870008D4AFF217763706B21541154401C706393
:103880000F28F8DB01F083FA00283FF4F6AE8748F2
:10389000008814287FF4F1AEBDE8F09F2DE9FE4FBB
:1038A0000127DFF8C891724DDFF8C8B180464FF4A8
:1038B000967A0026704C4021204607F018FC2D21F6
:1038C000204607F014FC29792046303107F00FFC20
:1038D0005221204607F00BFC0D21204607F007FC83
:1038E0000A21204607F003FC2879401CC0B2287149
:1038F000042800D92F71C82000F0BFFC5A48017875
:1039000000297AD006705D485C4606609BF801008D
:10391000312806D0322828D033284AD0342823D161
:103920006CE0A078564930384843E17840F2712283
:10393000514300EB0111207900EB4002C2EBC010B3
:1039400001EBC001607900EBC00202EB001001EB5B
:103950008001A07900EB800001EB4000E179014497
:1039600001EB0900A8632F706BE0A0784449303860
:103970004843E17840F27122514300EB0111207974
:1039800000EB4002C2EBC01001EBC001607900EB1C
:10399000C00202EB001001EB8001A07900EB800077
:1039A00001EB4000E179014401EB0900E8636F702D
:1039B00047E0A078324930384843E17840F271223C
:1039C000514300EB0111207900EB4002C2EBC01023
:1039D00001EBC001607900EBC00202EB001001EBCB
:1039E0008001A07900EB800001EB4000E179014407
:1039F00001EB09002864AF7023E092E0A078204931
:103A000030384843E17840F27122514300EB011114
:103A1000207900EB4002C2EBC01001EBC0016079DD
:103A200000EBC00202EB001001EB8001A07900EB7B
:103A3000800001EB4000E179014401EB090068647A
:103A4000EF70D5E90E23296CD01800EB010C686CDF
:103A5000B8F1000F8444C5F848C042D0CDE9003128
:103A600013460290624623E042020020B0DCF7FFDA
:103A70000000002028590020004400406802002077
:103A8000A086010041445F434F554E543D25366C9E
:103A900075200000740300205765696768743D2530
:103AA000366C7520206B67006058002008010020EC
:103AB000F2A1FE4809F012F8D5E91001CDE90001A4
:103AC000D5E90E23FAA1F94809F008F81023F74ABE
:103AD00050465146009602F03CF84FF48771AA6CAC
:103AE0000EE0CDE90010F2A1F04808F0F7FF102336
:103AF000EE4AC8215046009602F02BF8AA6CA0218D
:103B0000462001F00AFF2E706E70AE70EE70EE4A25
:103B1000FF216E63686B21541154401C68630F28A9
:103B2000F8DB01F034F900283FF4C4AEE748008820
:103B300014287FF4BFAEA86CBDE8FE8F2DE9F041DC
:103B4000E34C00252E46E3A1D848A26A08F0C6FF40
:103B5000D7214620A26A01F0E0FEA46AE44FDFF814
:103B60006C8301F014F9F8B1B8F80000385C0C2847
:103B700010D2DFE800F00606060606060606060670
:103B80000C0E04EB8401012600EB410402E000244A
:103B900000E001252246D7A1C44808F09FFF224635
:103BA000D721462001F0B9FE002DDAD0002E00D03A
:103BB0002046BDE8F081F0B585B01422D4496846AE
:103BC00007F0A4FEC24801240026406A052812D04E
:103BD0000A2812D00F2812D0142812D0192812D077
:103BE0001E2812D0232812D0282812D02D2812D017
:103BF000322812D012E0002410E001240EE002244A
:103C00000CE003240AE0042408E0052406E006246E
:103C100004E0072402E0082400E009246F463DF890
:103C200014206921462001F078FEA84D01F0AFF87C
:103C300080B1288842280AD1641CE4B2092C00D93A
:103C40000024692137F81420462001F066FE2888F8
:103C5000142801D0002EE9D037F8140005B0F0BDCB
:103C6000FEB5AB4804240C380026D0E90012806869
:103C70000091CDE901209648806801280AD00228E9
:103C80000AD005280AD00A280AD014280AD03228D7
:103C90000AD00AE0002408E0012406E0022404E03F
:103CA000032402E0042400E005246F463DF81420BC
:103CB0003221462001F031FE844D01F068F880B1D8
:103CC000288842280AD1641CE4B2052C00D90024BB
:103CD000322137F81420462001F01FFE28881428CE
:103CE00001D0002EE9D037F81400FEBDF8B5784CAD
:103CF0000A20E0604FF6FF7001F01DFA0025102346
:103D000084A214212846009501F023FF4FF47A7015
:103D100000F0B3FA012232210A2001F087F83A229A
:103D20003221282001F082F84FF4967610237EA2EB
:103D300050213046009501F00CFFFFF791FFA06085
:103D4000022269210A2001F071F83A226921282013
:103D500001F06CF810237AA28C213046009501F016
:103D6000F8FEFFF728FF6062A168B0FBF1F27AA1CC
:103D70004E48E26108F0B2FEE269E0687EA142438B
:103D80004A48226208F0AAFE0322A0210A2001F07C
:103D90004DF83A22A021282001F048F80020FFF732
:103DA0007DFD2061606AA0620422D7210A2001F013
:103DB0003DF83A22D721282001F038F8102376A2C6
:103DC000FA213046009501F0C4FEFFF7B7FE4FF42C
:103DD0008777A062052239460A2001F027F83A22A7
:103DE0003946282001F022F80120FFF757FD6061D5
:103DF0002169421A71A12D48A26108F06FFEA06AE4
:103E000007F040FF0746606A07F03CFF394607F0BD
:103E10000FFE0746A06907F035FF394607F0D2FDCF
:103E20000746206A07F02EFF394607F001FE0746D5
:103E30002063206907F026FF394607F0C3FD07F02D
:103E400037FF40F24517E062062239460A2000F0AB
:103E5000EDFF3A223946282000F0E8FF102362A245
:103E60004FF4B4713046009501F073FEFFF7FAFB92
:103E700004221046216900F092FDBFE05350414EEC
:103E80002053554D3D25366C752C20313D25366C23
:103E9000752C20323D25366C752C20333D25366C33
:103EA000752C20343D25366C75000000740300200D
:103EB0002825366C752C25366C752C25366C752CA2
:103EC00025366C752900000060580020080100208C
:103ED0000000002034202D2053657474696E675FE4
:103EE000576569676874203D2025366C7520000091
:103EF000BC00002034202D2053657474696E745FFB
:103F0000576569676874203D2025366C7520000070
:103F100084D8000843414C494252415449494F4ECC
:103F2000204D4F4445000000284449564953494F0D
:103F30004E2D5052455353204B45595F31290000B7
:103F40002843415041434954592D50524553532021
:103F50004B45595F3129000033202D204578746589
:103F6000726E616C5F5265736F6C7574696F6E20F1
:103F70003D2025366C75200020202020496E746578
:103F8000726E616C5F5265736F6C7574696F6E20D1
:103F90003D2025366C752000284C4F4144494E4742
:103FA000205745494748542D5052455353204E55AC
:103FB0004D424552204B45592900000035202D2007
:103FC000765F7370616E203D2025366C7520202051
:103FD00020202020202020202020202020202020E1
:103FE00020202020202020002843555252454E54A6
:103FF0002057454947485429000000002061042209
:104000001820A16900F0CBFCA06104221020616A95
:1040100000F0C5FC606204220C20A16800F0BFFC27
:10402000A06009210A2000F03DF907F022FE216B73
:1040300007F0C8FC07F03CFE01460422002000F017
:10404000AEFC10230DA24FF4D7710020009501F0B3
:1040500080FD10230FA24FF4E1710020009501F0C4
:1040600078FD40F6B83000F008F90D4C00F08FFEF6
:104070000028FBD020881428F8D1F8BD434C414CCF
:104080004942524154494F4E2046494E49534845B2
:10409000442121005245504F574552202121000014
:1040A0000801002010B54FF48034204608F0FAFAD9
:1040B00008F054FB7549012808701CD1002008F055
:1040C000E7FA002008F018FBA01108F00BFB4FF4F2
:1040D000E011204608F020FB012008F017FB3920F2
:1040E00008F0B6FA0028FAD0022008F02DFB08F0FC
:1040F000C7FA0828FBD10121042008F047FA012162
:10410000082008F043FA0121102008F03FFA0121AD
:10411000202008F03BFA0121402008F037FA012165
:10412000802008F033FA0121080208F02FFA01215B
:10413000084608F02BFA0121084608F00FFA012181
:10414000022008F00BFA0121480308F01FFA0121B0
:10415000880308F01BFA0121480408F0FFF9012147
:10416000880408F0FBF90121C80408F0F7F90121DF
:10417000032008F0E7F901214FF4024008F006FAA5
:104180000121480508F0EAF90121BDE8104048077F
:1041900008F0E4B908B5C020ADF8000003208DF8A0
:1041A00002001C208DF803006946394808F0DAF84F
:1041B00008BD38B54FF440514FF0006008F0B2F937
:1041C0004FF4C06008F0A4F914208DF8000000241A
:1041D0008DF801408DF8024001258DF803506846A6
:1041E00008F05CF903208DF800008DF801408DF88F
:1041F00002408DF80350684608F050F938BD41067A
:104200002448826942F0010282612348426822F018
:10421000E062426042680A434260704710B504465B
:1042200086B0042008F028FB684608F0C7F91B4A4E
:1042300001994FF0E020B1FBF2F16143B1F1807FD1
:104240000ED221F07F41A1F101014161144A4FF0EA
:10425000F00111704FF0000181614FF00701016121
:10426000016921F0020101610169C903FCD506B0B1
:1042700010BD4FF47A714843D0E742F2107302E068
:104280001946491EFDD2401EFAD270479000002008
:10429000000C0140001002400000014040420F00AD
:1042A00023ED00E0024611B9012070475043491E3A
:1042B00011F0FF01FAD170471FB50020ADF80400DE
:1042C0004BF6FF70ADF80600A020ADF808004FF4E3
:1042D0008060ADF80A000001ADF80C00FD48FE4C0E
:1042E00000906946204607F06BF90121204607F04F
:1042F000CDF91FBD10B5FFF7DFFFF849A2200880F8
:1043000010BD38B50020ADF80000F34CF34D01218D
:10431000204607F0D9F91421204607F024FAADF819
:10432000000029780022204607F015FA14212046C3
:1043300007F019FA8007EAD5E949204607F08AFA1A
:104340002046BDE83840012107F0C8B92DE9F04109
:10435000E14E8846054614460121304607F0B4F97F
:10436000E04F3046394607F05DFA0028F9D0DB48C7
:1043700000220178304607F0EEF9DB4F304639462F
:1043800007F050FA0028F9D04146304607F0DEF930
:10439000D54FBF1C3946304607F044FA0028F9D003
:1043A0000AE02978304607F0D1F96D1C39463046CD
:1043B00007F038FA0028F9D02000A4F10104E4B293
:1043C000EFD13046BDE8F041012107F087B92DE972
:1043D000F041054611F00F000C4602F00F01C0F14C
:1043E0001007C2F30716884611D08EB1D01BC0F358
:1043F000071600F00F088FB33A4621462846FFF70C
:10440000A5FFFFF77EFFE019C4B23D4426E05EB988
:104410000A4612E0102221462846FFF797FFFFF7D1
:1044200070FF1034E4B210353000A6F10106F6B288
:10443000F0D15FEA080017D0024621462846FFF770
:1044400085FFBDE8F0415CE7102221462846FFF7D2
:104450007DFFFFF756FF1034E4B210353000A6F1AF
:104460000106F6B2F0D1E4E7BDE8F0812DE9F041B4
:10447000994E0F46054614460121304607F024F9AF
:10448000DFF860823046414607F0CCF90028F9D0C9
:10449000924800220178304607F05DF9DFF8488243
:1044A0003046414607F0BEF90028F9D0F9B230464F
:1044B00007F04CF98C4FBF1C3946304607F0B2F973
:1044C0000028F9D00AE02978304607F03FF9AD1C02
:1044D0003946304607F0A6F90028F9D02000A4F1AB
:1044E0000104A4B2EFD13046BDE8F041012107F04C
:1044F000F5B82DE9F041054611F00F000C4602F029
:104500000F01C0F11007C2F30716884612D096B10A
:10451000D01BC0F3071600F00F0897B33A462146A8
:104520002846FFF7A3FFFFF7ECFEE01984B205EB86
:10453000470526E05EB90A4612E0102221462846C9
:10454000FFF794FFFFF7DDFE1034A4B220353000F2
:10455000A6F10106F6B2F0D15FEA080084D0024667
:1045600021462846FFF782FFBDE8F041C9E6102248
:1045700021462846FFF77AFFFFF7C3FE1034A4B2A6
:1045800020353000A6F10106F6B2F0D1E4E76BE782
:104590002DE9F041504C0F4605460121204607F019
:1045A00093F8504E2046314607F03CF90028F9D0E8
:1045B0004A4800220178204607F0CDF84A4E2046AE
:1045C000314607F02FF90028F9D03946204607F088
:1045D000BDF82646444CA41C2146304607F022F97B
:1045E0000028F9D02978304607F0B0F82146304647
:1045F00007F018F90028F9D03046BDE8F041012154
:1046000007F06CB82DE9F047334F8A46054614464B
:104610000121384607F058F8324E3846314607F047
:1046200001F90028F9D0DFF8B4800022384698F864
:10463000001007F090F8DFF8B0903846494607F0D0
:10464000F1F80028F9D00121384607F01FF851464B
:10465000384607F07BF8DFF8909009F102094946E7
:10466000384607F0DFF80028F9D00121384607F076
:104670002BF83146384607F0D5F80028F9D098F8DD
:10468000001001223E46384607F065F8154F7F1CA2
:104690003946304607F0C6F80028F9D0114F3F37A9
:1046A000BCB1012C07D10021304607F021F80121CF
:1046B000304607F013F83946304607F0B3F80028C3
:1046C000EED0304607F044F8641E05F8010BA4B2A2
:1046D000E6E70BE0A08601000054004094000020B3
:1046E0000004001001000300820007003046BDE80E
:1046F000F047012106F0FCBFF8B50C4606464FF422
:1047000080750021284607F01DFF0120FFF7B5FD49
:10471000F1B204226846FFF775FF012C0BD0022C82
:104720000CD0009C0120FFF7A8FD0121284607F0CE
:1047300009FF2046F8BD9DF80040F3E7BDF80040B2
:10474000F0E72DE9F04104210846FFF7D5FFC34902
:10475000086004211820FFF7CFFFC1490860042139
:104760001020FFF7C9FFBF4C042120600C20FFF789
:10477000C3FFBD49086004210020FFF7BDFF0646C6
:1047800009210A20FFF78EFD07F073FA054630462F
:1047900007F078FA294607F04BF9B449086004217C
:1047A0001C20FFF7A9FFB24901270228086000D3A7
:1047B0000F6004212C20FFF79FFFAE49B0F5FA7F70
:1047C000086001D93220086004214420FFF794FFDB
:1047D000A94900260028086002DB2268824200D234
:1047E0000E600421A420FFF787FFA4490860401E43
:1047F0003C2801D33C20086004214820FFF77CFFBF
:104800009F49086004215020FFF776FF9D4C2060EF
:1048100004215420FFF770FF606004215820FFF747
:104820006BFFA06004215C20FFF766FFE0600421BD
:104830006020FFF761FF206104216420FFF75CFF27
:10484000606104216820FFF757FFA06104216C20FC
:10485000FFF752FF8C49086004216C20FFF74CFFE2
:104860008A4D8B4C010A686020706170000CA0704A
:1048700004217020FFF740FFA860E070010A217159
:10488000010C6171000EA07104217420FFF734FF48
:10489000E860E071010A2172010C6172000EA072E1
:1048A000E67204217820FFF727FF7A492861020A7F
:1048B00008704A70020C8A70000EC87004217C20B7
:1048C000FFF71AFF74496861020A08704A70020C07
:1048D0008A70000EC87004218020FFF70DFF6F4919
:1048E000A861020A08704A70020C8A70000EC87033
:1048F00004218420FFF700FF6949E861020A08707B
:104900004A70020C8A70000EC87004218820FFF7DC
:10491000F3FE2862001F032801D30420286204212B
:104920008C20FFF7E9FE6862A0F5D850583841F2B4
:104930007171884202D342F21070686204219020A3
:10494000FFF7DAFE57490228086000D30F60042100
:104950009420FFF7D1FE5449544A0860904200D396
:104960000E6004219820FFF7C7FE5149B0F57A7F09
:10497000086000D30E6004219C20FFF7BDFE4D4966
:104980006428086000D30E600421A020FFF7B4FE65
:1049900049490228086000D30E6065E57047F8B504
:1049A0000C4606464FF4807715460021384607F03E
:1049B000C9FD012D10D0022D11D00094F1B20422B6
:1049C0006846FFF704FD0120FFF757FC0121384638
:1049D00007F0B8FD2046F8BD8DF80040EEE7ADF8D1
:1049E0000040EBE710B5284C04226C202168FFF74B
:1049F000D6FF2060224C042248202168FFF7CFFF19
:104A00002060204C216804225020FFF7C8FF20605E
:104A1000616804225420FFF7C2FF6060A16804228D
:104A20005820FFF7BCFFA060E16804225C20FFF77C
:104A3000B6FFE060216904226020FFF7B0FF20612B
:104A4000616904226420FFF7AAFF6061A169042262
:104A50006820FFF7A4FFA06110BD00001000002037
:104A60001800002024000020080000203000002052
:104A7000EC020020F0020020F4020020F8020020E6
:104A800000030020C87200200403002094000020CE
:104A9000E4720020F87200200C03002010030020B4
:104AA00014030020180300201C03002080969800A7
:104AB0002003002024030020280300202DE9F843D0
:104AC0004FF4F840ADF8000010258DF80350032492
:104AD0008DF802406946CC4807F044FC4FF4F8607A
:104AE000ADF8000028208DF803006946C74807F09C
:104AF00039FC4FF44870ADF80000DFF814838DF8EE
:104B000003508DF802406946404607F02BFC04260E
:104B1000ADF80060BF4F8DF803508DF80240694634
:104B2000384607F01FFC0820ADF800008DF8035050
:104B30008DF802406946384607F014FC4FF4704087
:104B4000ADF800008DF803508DF8024069464046EC
:104B500007F008FC41F20100ADF800008DF80350A9
:104B60008DF802406946AC4807F0FCFB4020ADF8E8
:104B70000000AA4F8DF803508DF802406946384670
:104B800007F0F0FB2801ADF800008DF803508DF818
:104B900002406946A24807F0E5FBC020ADF80000DE
:104BA0008DF802401C208DF803006946404607F04E
:104BB000D9FB4FF48C50ADF800008DF803606946C6
:104BC000384607F0CFFB0121964807F01BFCBDE8F3
:104BD000F88310B58C4C4FF48061204607F040FC00
:104BE000E114204607F03CFCA114204607F038FCF5
:104BF0006114204607F034FC2046BDE810404FF415
:104C0000804107F02FBC10B57F4C4FF480612046E7
:104C100007F026FCE114204607F022FCA1142046F0
:104C200007F01EFC6114204607F01CFC2046BDE87E
:104C300010404FF4804107F013BC10B5724C4FF494
:104C40008061204607F00CFCE114204607F008FCC8
:104C5000A114204607F006FC6114204607F000FC72
:104C60002046BDE810404FF4804107F0F9BB10B575
:104C7000654C4FF48061204607F0F2FBE1142046BA
:104C800007F0F0FBA114204607F0EAFB6114204670
:104C900007F0E6FB2046BDE810404FF4804107F0E6
:104CA000DFBB10B5584C4FF48061204607F0DAFBAB
:104CB000E114204607F0D4FBA114204607F0D0FBF6
:104CC0006114204607F0CCFB2046BDE810404FF4AD
:104CD000804107F0C5BB70B5FFF7E3FF4B4D284699
:104CE00007F0B4FB1F2414EA901101D0012028E042
:104CF000FFF7BDFF284607F0A9FB14EA901101D089
:104D000002201EE0FFF799FF284607F09FFB14EAF8
:104D1000901101D0032014E0FFF775FF284607F03B
:104D200095FB14EA901101D004200AE0FFF751FF2F
:104D3000284607F08BFB14EA901101D0102000E008
:104D40000020002310242025374A102918D008DC21
:104D500001290DD002290DD004290DD0082910D128
:104D60000CE0202904D0402904D0802909D103E097
:104D7000938007E0948005E0958003E0302100E017
:104D8000402191809188084480B2908070BD10B518
:104D9000FFF7A1FF244988888A68824201D1002058
:104DA00010BD88600028FBD0FEF7FDFB9620FFF7C2
:104DB00064FAFEF7E3FB012010BD70B5134E3046D8
:104DC00007F044FB1F2505EA90140A20FFF755FA67
:104DD000304607F03BFB05EA9010844201D00020EA
:104DE00070BD01221048002134B18378012B07D017
:104DF00041700170204670BD827002704170F9E709
:104E000081704270F5E7000000200140001C014065
:104E1000000C014000140140001801400010014046
:104E20000008014000040080040100202DE9F05F2B
:104E3000064614460D462A2000F091FF300A00F085
:104E40009FFFF0B200F09CFF1D36300A00F098FF83
:104E5000F0B200F095FF2B2000F081FF280A00F04F
:104E60008FFFE8B200F08CFF3B35280A00F088FF86
:104E7000E8B200F085FF2C2000F071FF3A2C0CD036
:104E80002E2C0CD02D2C0CD0432C0CD0C4EB0417A2
:104E900007F10F0B4FF6FF7A25E09627F8E7A527D5
:104EA000F6E7B427F4E7C327F2E7FE48002500EB56
:104EB00007194FF0000419F805606FEA050830067D
:104EC00001D5002000E0504600F05AFF76005FEA6E
:104ED000887001D1052C02D0641C082CEFD36D1C06
:104EE000102DE6D37F1C5F45DFD3BDE8F09F70B582
:104EF00000F0C6FEEC4D8021284607F0B3FA4CF2D4
:104F00000301284607F0AEFAE84C4FF4F061204662
:104F100007F0A8FA0221204607F0A2FA102128463D
:104F200007F0A0FA2021284607F09CFA0A20FFF794
:104F3000A0F900F06FFE0A20FFF79BF900F0F4FEE5
:104F4000E22000F00CFF232000F01AFF022000F006
:104F500017FF542000F014FFE02000F000FF0120B4
:104F600000F00EFF0A20FFF784F9E02000F0F7FEC2
:104F7000032000F005FF012000F0F1FE1420FFF7F0
:104F800078F9E62000F0EBFE042000F0F9FE932013
:104F900000F0F6FEE02000F0F3FEB02000F0DFFEAF
:104FA000102000F0EDFE802000F0EAFEC04C2089C9
:104FB000401EC0F3072000F0E3FE207A401EC0B27E
:104FC00000F0DEFEA089401EC0F3072000F0D8FEEE
:104FD000207B401EC0B200F0D3FE002000F0D0FEC7
:104FE000B42000F0BCFE208921780844FE30C0F3D4
:104FF000072000F0C5FE207A21780844801EC0B248
:1050000000F0BEFE2078D130000A00F0B9FE207812
:10501000D130C0B200F0B4FE2078401E00F0B0FEE7
:10502000002000F0ADFE002000F0AAFE002000F0FD
:10503000A7FEB62000F093FE6078A18908442B30CB
:10504000C0F3072000F09CFE6078217B08442B30E1
:10505000C0B200F095FE60782130000A00F090FEAA
:1050600060782130C0B200F08BFE6078401E00F006
:1050700087FE002000F084FE002000F081FEF0207A
:1050800000F06DFE032000F07BFE212000F067FEA3
:10509000BC2000F064FEA07800F072FEE07800F022
:1050A0006FFE207900F06CFE012000F069FE2920DF
:1050B00000F055FE69142846BDE8704007F0D2B9EB
:1050C0002DE9F04104461D4616460F462A2000F001
:1050D00046FE200A00F054FE204600F051FE300A41
:1050E00000F04EFE304600F04BFE2B2000F037FE65
:1050F000380A00F045FE384600F042FE280A00F06B
:105100003FFE2846BDE8F04100F03ABE70B50546C6
:105110000021C72340F22B120846FFF7D1FF2C20B5
:1051200000F01DFE4EF6602402E0284600F028FE46
:10513000641EFAD270BD70B50546002140F2DF133F
:1051400040F21F320846FFF7BBFF2C2000F007FE9D
:10515000584C02E0284600F013FE641EFAD270BDDF
:1051600010B514460B460246FFF7AAFF2C2000F0AC
:10517000F6FD2046BDE8104000F002BE2DE9F05FCC
:1051800010279B4616460C460546B0F5437F4AD885
:10519000B4F5E67F47D82A2000F0E1FD280A00F0A8
:1051A000EFFDE8B200F0ECFDED1D281200F0E8FD87
:1051B000E8B200F0E5FD2B2000F0D1FD200A00F060
:1051C000DFFDE0B200F0DCFD0F34201200F0D8FD6E
:1051D000E0B200F0D5FD2C2000F0C1FD203EF0B281
:1051E000354A00EB400102EB81093449002501EB0F
:1051F00000184FF6FF7A0C2F03D018F80540002650
:105200000BE019F80540FAE7E00701D0584600E046
:10521000504600F0B5FD6408761CB6EB570FF3D38B
:105220006D1CBD42E7D360E62DE9F05F1E46DDF858
:105230002880154689460746B0F5437F69D8B9F5F9
:10524000E67F66D82A2000F08AFD380A00F098FD33
:10525000F8B200F095FD07EB5604641E200A00F03A
:105260008FFDE0B200F08CFD2B2000F078FD4FEABE
:10527000192000F085FD09F0FF0000F081FD09EB29
:105280000604641E200A00F07BFDE0B200F078FD09
:105290002C2000F064FDA5F1200AB8F1000F0FD01A
:1052A00000255BE0FCE2000800140140001801400A
:1052B0001001002000DC050098D800080CDD000873
:1052C000002424E00C2E06D0F84800EB0A1000253C
:1052D00010F8048017E0F6480AEB4A0100EB810061
:1052E000F5E75FEAC87001D0F24800E0F2480088B4
:1052F00082B209EB040081B2781980B2FFF730FF67
:105300004FEA58086D1CB5EB560FEAD3641CB44243
:10531000D8D3EAE50C2E08D0E44800EB0A100024AC
:1053200010F8058009EB050B14E0E1480AEB4A018F
:1053300000EB8100F3E75FEAC87008D0DD481FFA90
:105340008BF1008882B2381980B2FFF709FF4FEA6B
:105350005808641CB4EB560FEDD36D1CB542D9D37D
:10536000C3E52DE9F84F1F00DDF8288016460D46ED
:10537000044600D110274FF443794FF4E67A4FF6F4
:10538000FF7B3078002816D04C4501D900243D44DD
:10539000554504D9002425465846FFF7CCFECDF8E4
:1053A000008032783B4629462046FFF73DFF04EB5C
:1053B0005704761CE5E7BDE8F88F2DE9F0411D465E
:1053C00014460E4607469BB292B2DDF81880FFF7EE
:1053D00077FE2C2000F0C3FCE41BA81B444302E032
:1053E000404600F0CDFC641EFAD2BDE8F0812DE904
:1053F000F05F9B4616460D46044610274FF443784F
:105400004FF4E6794FF6FF7A15E0444502D90024BF
:10541000E81985B24D4504D9002425465046FFF7CA
:105420008AFE32785B4629462046FFF7A7FE04EB4A
:10543000570084B2761C30780028E6D155E52DE976
:10544000F04117460E460546FFF78AFE6C1CA0B2D7
:105450003A463146FFF784FE761CB1B23A462846FA
:10546000FFF77EFEB1B2A0B23A46BDE8F04177E662
:105470002DE9F05F00249A4616468B4680461500BB
:105480004FF00A0707D13022FFF778FE03E0B5FBA3
:10549000F7F5641CE4B2002DF9D12546B94616E0B3
:1054A000671EF9B20A2000F071FCB6FBF0F1B1FB07
:1054B000F9F209FB1212281B00EB400108EB410036
:1054C000303280B253465946FFF758FEFCB2002CEA
:1054D000E6D1032D08D108F1120053465946BDE824
:1054E000F05F80B2202249E6FFE42DE9FE4F00265E
:1054F000A2EB000882465F1A701E35468946B8F155
:10550000000F02DD4FF0010102E003D14FF0000176
:10551000019102E0C8F100080190002F02DD4FF078
:10552000010002E003D14FF00000009002E0C7F15B
:10553000000700904046B84501DD044600E03C46C7
:10554000601C4FF0000B029016E01FFA89F11FFA61
:105550008AF00C9AFFF704FE46443D44A64202DD61
:105560000199361B8A44A54202DD00992D1B89440E
:105570000BF101001FFA80FB02998B45E5DDBDE8C8
:10558000FE8F2DE9F8431D46089C16460F468046BF
:105590000B460094FFF7A9FF42462B4639461046BA
:1055A0000094FFF7A2FF32462B463946104600947E
:1055B000FFF79BFF2B463246194640460094FFF703
:1055C00094FFBDE8F8832DE9FF4F8046002415467F
:1055D000032083B00F46A0EB450661E0A7EB04096A
:1055E000A8EB050A1FFA89F11FFA8AF0069AFFF75D
:1055F000B7FD08EB050001901FFA89F180B2069A09
:10560000FFF7AEFD781981B2A8EB040B00901FFAEA
:105610008BF0069AFFF7A4FD1FFA89F11FFA8AF0B2
:10562000069AFFF79DFDA7EB05091FFA89F11FFAFE
:105630008BF0069AFFF794FD019807EB040B1FFA15
:105640008BF180B2069AFFF78BFD1FFA89F108EB08
:1056500004091FFA89F0069AFFF782FD0098069A5E
:1056600081B21FFA89F0FFF77BFD1FFA8BF11FFA59
:105670008AF0069AFFF774FD641C002E03DA06EB2D
:105680008406B61D04E0601B06EB80060A366D1E1C
:10569000781981B208EB040080B2069AFFF760FD2A
:1056A000AC429BDD07B0BDE8F08F00000CDD0008C8
:1056B00098D80008BC020020C002002070B5054642
:1056C0000E462A2000F04BFB2C0A204600F058FB27
:1056D000284600F055FB204600F052FB284600F01B
:1056E0004FFB2B2000F03BFB340A204600F048FB28
:1056F000304600F045FB204600F042FB3046BDE856
:10570000704000F03DBB2C2000F029BB2DE9F04794
:105710000546984616460F462A20DDF8209000F0F0
:105720001EFB380A00F02CFBF8B200F029FBA8F1B0
:105730000104200A00F024FBE0B200F021FB2B2042
:1057400000F00DFB300A00F01BFBF0B200F018FB7C
:10575000A9F10104200A00F013FBE0B200F010FBF5
:105760002C2000F0FCFAA8EB0700A9EB06010024AE
:105770004843460007E02919285D497800EB0120DD
:1057800000F0FEFAA41CB442F5D3BDE8F0872DE981
:10579000F04107461D4614460E462A2000F0DFFA67
:1057A000380A00F0EDFAF8B200F0EAFA641E200AB6
:1057B00000F0E6FAE0B200F0E3FA2B2000F0CFFAB6
:1057C000300A00F0DDFAF0B200F0DAFA6D1E280AB5
:1057D00000F0D6FAE8B200F0D3FABDE8F0412C2090
:1057E00000F0BDBA2DE9F84F804693460C460A25D5
:1057F000282000F0B4FADFF8B893DFF8B8A3002649
:105800004FF6FF77B8F1000F56D1052C01D34FF0BA
:105810009905BBF1000F05D01F21C9F80070CAF827
:10582000001003E0C9F80060CAF800700520B4FB5E
:10583000F0F100FB114000EBC00101EB00100A2168
:1058400001EB80000D3084B1012C12D0022C14D059
:10585000032C16D0042C18D0052C1AD0062C1CD0E2
:10586000072C1ED0082C20D026E01023D2A20096B0
:105870001EE01023D2A200961AE01023D2A20096B6
:1058800016E01023D2A2009612E01023D2A20096B6
:105890000EE01023D2A200960AE01023D2A20096B6
:1058A00006E01023D2A2009602E01023D2A20096B6
:1058B00005F14A01FFF755FD292000F050FAC9F81B
:1058C0000060CAF8007076E5F8B54FF6FF70FFF794
:1058D00032FC0A2500242E460527B4FBF7F007FB0F
:1058E000104000EBC00101EB001006EB8000052C1E
:1058F00001D34FF0990505F13C0300F13B02294625
:105900000094FFF744FF002221461046FFF76AFF8C
:10591000641CE4B2092CE0D3F8BD2DE9FF410F4629
:105920000546B6A1684607F0D9F800246E46325DF8
:105930001046303A092A04D8C4EB041005EB4000A5
:1059400006E02D28C4EB041005EB400008D04322EC
:105950003946FFF76BFA641C062CE8DBBDE8FF81D3
:105960002D22F5E72DE9FF5F98460E9F1646044667
:10597000B0F5437F7DD80198B0F5E67F79D82A202D
:1059800000F0EDF9200A00F0FBF9E0B200F0F8F9C0
:1059900004EB58056D1E280A00F0F2F9E8B200F099
:1059A000EFF92B2000F0DBF90198000A00F0E8F98C
:1059B0000198C0B200F0E4F9019800EB08056D1EF3
:1059C000280A00F0DDF9E8B200F0DAF92C2000F046
:1059D000C6F9203E02960FB10026B7E0002088E00D
:1059E000B8F1100F03D0B8F1180F33D07FE0029850
:1059F0004FF000064FEA401101EB490081490D5C70
:105A00000844019990F801A001EB0907280601D587
:105A1000674800E06748B9B2008882B2A01980B236
:105A2000FFF79EFB6D00761C072EEFD307255FEA7C
:105A30000A6001D55E4800E05E48B9B2008882B2D3
:105A4000601980B2FFF78CFB6D1C4FEA4A0A0E2DDD
:105A5000EDD34CE0029809EB490100EBC0006A4A23
:105A600001EBC000115C104490F801A090F802B066
:105A700000E042E04FEAC10501994FF0000701EB59
:105A80000906280601D54A4800E04A48B1B2008814
:105A900082B2E01980B2FFF763FB6D007F1C052F17
:105AA000EFD305255FEA0A6001D5414800E041488F
:105AB000B1B2008882B2601980B2FFF751FB6D1C51
:105AC0004FEA4A0A0D2DEDD30D255FEA0B6001D593
:105AD000374800E03748B1B2008882B2601980B21E
:105AE000FFF73EFB6D1C4FEA4B0B122DEDD309F176
:105AF000010081464045FFF473AFBDE8FF9FB8F158
:105B00000C0F0BD04149029801EB00100025875D76
:105B10000198DFF89CA000EB060913E002983C49CD
:105B200000EB400001EB8000F0E7F80708D0BAF87E
:105B300000001FFA89F182B2601980B2FFF710FBF2
:105B40007F086D1CB5EB580FEFD3761C4645D6D3B6
:105B5000D3E72DE9F8431D00DDF8208017460E46F7
:105B600004461DD110251BE0B4F5437F01D9002464
:105B70002E44B6F5E67F05D9002426464FF6FF7081
:105B8000FFF7D9FACDF800803A782B463146204607
:105B9000FFF7E8FE102D07D0182D07D02C447F1CEE
:105BA00038780028E0D10CE50E34F8E71234F6E737
:105BB000BC020020C0020020506963747572650049
:105BC0005468696C7300000047616D650000000057
:105BD00045617274680000004D75736963000000D0
:105BE000436C6F636B0000004170706C65000000D7
:105BF000526164696F000000534D530025366C6498
:105C0000000000001CF00008DC0201080CDD0008A8
:105C100098D8000800B597B0022010900020052108
:105C2000CDE9110113904FF080511490CDE9150189
:105C30000821CDE902011021CDE90410019007905F
:105C400009020890CDE909010B900C900D9010A865
:105C50000E900F9001A806F025FB6420FEF709FBCB
:105C60000121002006F00EFB6420FEF702FB01215B
:105C7000080206F067FC6420FEF7FBFA17B000BDCF
:105C8000F8B54FF40050ADF8000010248DF8034033
:105C900003204D4D8DF802006946284606F062FB50
:105CA00002204A4EADF800006946304606F05AFB25
:105CB0000120ADF800006946304606F053FBADF810
:105CC000004018248DF803406946284606F04AFB38
:105CD0002020ADF800008DF803406946284606F004
:105CE00041FB4CF20370ADF800008DF803406946AB
:105CF000284606F037FB4FF68070ADF800008DF8AF
:105D000003406946304606F02DFB8020ADF80000C8
:105D10006946284606F026FBE814ADF800006946FF
:105D2000284606F01FFBF8BD10B5284C022120467E
:105D300006F096FB0A20FEF79CFA0A20FEF799FA75
:105D40000A20FEF796FA0A20FEF793FA0A20FEF7D9
:105D500090FA2046BDE81040022106F083BB4FF0C8
:105D6000C041088070474FF0C041088070474FF035
:105D7000C04210801648018070471548008870475F
:105D80001349088070471249088070470346012074
:105D900000E058430A00A1F10101C9B2F9D17047EE
:105DA0000346012000E058430A00A1F10101C9B2F5
:105DB000F9D1704700F0F800000201F0FC0140EA60
:105DC000C10040EAD20070470014014000180140B1
:105DD00000000260F9A005F026BA10B5FE4C20883C
:105DE000002809D1FDF736FC4FF47A70FEF745FA2A
:105DF000FDF731FC5020208010BD2DE9F84F824680
:105E0000FDF7A0F98046F5480178002974D00024F8
:105E10000470404605F02DFFF149096805F0D2FDF8
:105E200005F046FFEF49DFF8C093F04F0860D9F85E
:105E30000010EF4E411A3960B26AF04D801AED4AF7
:105E40001060ED480068B1FBF0F228684243EC486E
:105E5000F262006830B3EBA1EE4806F03FFE10237B
:105E6000EC4A4FF4B4710A200094FFF77AFAEAA1E1
:105E7000E8483A6806F032FE1023E64A4FF496717D
:105E80000A200094FFF76DFAE6A1E248D9F8002055
:105E900006F024FE1023DF4A4FF4A5710A20009477
:105EA000FFF75FFAE349F06AE34C09680844E34905
:105EB0002060D1F80090A9F51C52103A13D005F0DB
:105EC000E6FE06460F46484605F0E1FE0022DC4BA2
:105ED00005F060FE32463B4605F0EAFD05F001FFA5
:105EE00005F0E6FE2060002807DA2A684142B1FB8F
:105EF000F2F302FB131105E04BE02968B0FBF1F26D
:105F000001FB1201401A2060BAF1000F0BD0CD48FE
:105F10002268006800F5FA60824200DBCA4A9621D6
:105F20006420FFF7FAFCC949C1F80080C84920681D
:105F30000860C848C84900680860C848C84900687F
:105F40000860C848C84900680860C848C84900686F
:105F50000860C848C84900680860C848C84900685F
:105F60000860C848C84900780870C848C84900781F
:105F70000870C848C84900780870C848C8490078FF
:105F80000870C848C84900780870C848C8490078EF
:105F90000870BDE8F88F10B50B21C6A002F011FE05
:105FA0004FF47A742046FEF768F9FDF748FB204667
:105FB000FEF763F9BDE81040FDF73CBB10B50446A1
:105FC000BF489AB041680091BE489B4903680A687F
:105FD000BDA101A806F082FD01A9204602F0A6FDA0
:105FE0004FF47A70FEF749F91AB010BD05F0AEB95A
:105FF0007047F0B504468FB00522BFA1401C05F0E4
:10600000C5FC00254FF49677E0B10822BCA1601CC6
:1060100005F0BCFC002838D00622BCA1BD4805F024
:10602000B5FC002870D00922BBA1BA4805F0AEFC2F
:10603000002854D00522BBA1601C05F0A7FC002855
:106040005CD061E01423B9A2322138460095FFF7F5
:1060500088F9E572A01D05F0A8FC014604228C20F9
:10606000FEF79DFC754902460860B6A101A806F03E
:1060700035FD142301AA502138460095FFF771F928
:10608000B4A1022003F01EFD3EE01423B2A232218F
:1060900038460095FFF765F9A57304F1090005F08E
:1060A00084FC02F04EFA634E0146042230608C20DC
:1060B000FEF775FC02463060ABA101A806F00EFDAC
:1060C000142301AA502138460095FFF74AF9A1A1EF
:1060D000022003F0F7FC01A805F01DF814E004F11C
:1060E0000A0005F062FCA54D2968481E3B280BD824
:1060F0000422A420FEF753FC286005E0207D402800
:1061000002D1A01D01F0AFFF204605F004F80FB04A
:10611000F0BD2DE9F0439A4F7E4E00253868A3B0BC
:1061200030444FF4967910F81C1C522908D04929A4
:1061300018D052291FD044293CD041293BD08BE1B3
:1061400010F81B1C4529FAD110F81A1C532916D136
:1061500014238CA2322148460095FFF702F90B2147
:1061600054A024E210F81B1C412903D110F81A0C8A
:10617000502821D070E110F81B1C45291DD110F8C2
:106180001A0C472819D1142382A2322148460095BF
:10619000FFF7E7F83868854C3044042210F80F1DEB
:1061A0002170417861708078414660F3070188462C
:1061B000A070FDE03BE147E1AFE14DE148656C6C6B
:1061C0006F2C20576F726C6421204750492D383353
:1061D00031300D0A000000002C0300209C0200203A
:1061E00030000020300300202C0000203803002065
:1061F000200100203C0300200C00002008000020AB
:106200001803002067786C5765696768743D253608
:106210006C642000D24B002064696666313D2536EF
:106220006C642000765F6164635F6F72673D253642
:106230006C642000F402002044030020B800002019
:106240000088C340240000209F86010040030020F6
:1062500080020020A002002084020020A40200206E
:1062600088020020A80200208C020020AC0200203E
:1062700090020020B002002094020020B40200200E
:10628000980200206E020020780200206F02002099
:1062900079020020700200207A02002071020020A2
:1062A0007B020020720200207C020020730200208A
:1062B0007D0200204154244C47545245534554001C
:1062C000C87200200003002030372D312DB9ABB04B
:1062D000D43A25356C75206B6720BFC0B4C33A250E
:1062E000356C75206B6720BEEEC1A63A25356C75FE
:1062F000206B672000000000524641433D00000033
:10630000525745494748543D0000000023525A4522
:10631000524F3D006C7300202352535454494D4555
:106320003D000000444154453D0000005245414CB1
:106330005F5745494748545F464143544F522020D8
:1063400021212100464143544F523D256C642020B9
:1063500000000000736574005245414C5F57454989
:1063600047485420212121005245414C5F5745495F
:106370004748543D256C642020000000F8020020AE
:10638000600300204D4F44454D2052455345542055
:106390002121210054454C4550484F4E455F524500
:1063A00047495354524154494F4E0000E472002073
:1063B0006C20FEF7F4FA38684146304410F80C2D92
:1063C000E27062F307014278227162F30F21827852
:1063D000627162F31741C078A07160F31F61884653
:1063E00004227020FEF7DBFA38684146304410F88A
:1063F000082DE27162F307014278227262F30F21E5
:1064000082786272C07862F31741A07260F31F61F4
:10641000E57204227420FEF7C2FA2246FEA104A807
:1064200006F05CFB142304AA5021009571E010F8DB
:106430001B1C452910D110F81A0C4C280CD1142320
:10644000F7A20095322164E010F81B1C552903D1F6
:1064500010F81A0C54282AD00622F7A1F84805F0A3
:1064600095FA00285AD00822F6A1F54805F08EFAD0
:10647000002853D00622AFF26C11F14805F086FADD
:1064800000284BD00922AFF27011ED4805F07EFADA
:10649000002843D00522EEA1E94805F077FAE0B3E1
:1064A0003868304410F81C1C4D293FD046E01423B6
:1064B000E9A2322148460095FEF753FF3868EC4CBC
:1064C0003044424610F8081D217061F307024178FC
:1064D000617061F30F228178A170C07861F3174277
:1064E00060F31F629046E070042241467820FEF778
:1064F00056FA2078E378A27861788DE80F00234679
:106500004246DCA104A806F0E9FA142304AA1946BD
:1065100000954846FEF725FF5DE003E0C848FFF719
:1065200068FD58E01423DAA200958BE710F81B1CD5
:10653000412903D110F81A0C4E2806D00822DAA1FE
:10654000BF4805F023FAA8B345E01423D9A23221AD
:1065500048460095FEF705FF3868304410F80F1DD7
:106560008DF8741041788DF8751081788DF876105B
:10657000C1788DF8771001798DF8781041798DF810
:10658000791081798DF87A10C1798DF87B10017AB4
:106590008DF87C10417A8DF87D10807A8DF87E0020
:1065A0008DF87F501DA8FFF709FD0921C8A002F052
:1065B00008FB10E0FFE71423C8A2322148460095EB
:1065C000FEF7CFFE9E4AC8A1083204A806F086FA5C
:1065D00004A804F0BBFE00203554401CFF28FBDD5E
:1065E000C44CC5A104A8227806F078FA102304AAA6
:1065F000142100200095FEF7B4FE25704FF47A7048
:106600003D60FDF73AFE2278BBA104A806F066FAC9
:10661000102304AA14214C4648460095FEF7A1FE1B
:106620001023BDA2322120460095FEF79AFE23B02A
:10663000BDE8F083BF48C04A01681068814202D1BA
:106640004FF0FF307047401C0A2190FBF1F301FB33
:106650001300106070472DE9F041B64C06460A2140
:1066600020684FF0FF35401C90FBF1F201FB120057
:106670002060304605F07AF9421CB04F2068314660
:1066800007EB002005F066F9206807EB002004F016
:1066900042FD2846BDE8F0811FB5AC48A84BA94A89
:1066A000A94900681B68126809688DE80F00A848AE
:1066B000A9A10368A7480268B34806F00FFA0020B2
:1066C00000901423B04A4FF4E671AA20FEF749FE69
:1066D00004B010BD70B58EB000243422AB496846BA
:1066E00005F014F9AA480168B9B30021641E0160DD
:1066F00006F066F8A74D40F26D11B0FBF5F2B2FB63
:10670000F1F1944B1E2619606FF4B67303FB01235D
:10671000B3FBF6F38E4E336040F26D164E4306EB3C
:1067200091015DF82330511AC91A884B491E19602E
:1067300005FB12014FF46162B1FBF2F0824B02FBE8
:10674000101218603C20B2FBF0F27E4B1A60B1FBD5
:10675000F0F200FB12107A4908600EB0204670BDBE
:106760002DE9F84F4FF6FF70FEF7E5FC00241023EB
:1067700089A20A2164200094FEF7F3FD10238AA267
:10678000282164200094FEF7ECFDDFF830928CA104
:106790007D48D9F8002006F0A1F910237A4A6E212D
:1067A00064200094FEF7DDFD00278A4E8C2556F804
:1067B00027303A4688A1744806F090F9C7EB0710D5
:1067C00005EB40011023704A64200094FEF7C9FDD8
:1067D0007F1C072FEBDB854F85A16B483A6806F0DD
:1067E0007DF94FF4AF7A1023674A51466420009434
:1067F000FEF7B7FD5021642002F00EF9A0F570619C
:10680000E63907D13C60B846C9F800404F463460CD
:106810007460F3E031E1000054454C3D2573000005
:1068200054454C4550484F4E455F44454C455449AE
:106830004F4E20212121000023524641433D0000BC
:106840006C73002023525745494748543D000000CF
:10685000234941503D000000444154415F53454E9F
:1068600044494E475F54494D4520202121210000D5
:10687000F8720020534D532054494D453D256C7509
:106880002E256C752E256325632563256300000086
:106890004649524D5741524520444F574E4C4F4167
:1068A0004420202121210000235A49474245453DEB
:1068B000000000004D414E55414C204441544120C0
:1068C00053454E44494E472020212121000000001D
:1068D0004154244C475441434B0000005A4947421D
:1068E000454520212121000041542B55433D25736E
:1068F00000000000E80200205573617274335F737A
:106900006D735F72656365697665645F666C616708
:106910003D25642C20000000202020202020202065
:106920002020202020202020202020202020202067
:1069300020000000680000206C000020A604002059
:106940005C03002058030020540300205003002063
:106950004C03002048030020446174653A3230251E
:1069600030326C752D2530326C752D2530326C75BA
:106970002C2054696D653A253032643A25303264F2
:106980003A253032642E0000D24B00208C6A010878
:1069900078010020805101002044415441205F4390
:1069A0004C4541522000000020494E505554205083
:1069B000415353574F52442121212000000300200E
:1069C000676E6C4461696C79546F74616C3D2536F7
:1069D0006C752000C872002025642020676E6C5002
:1069E00072653D25366C7520000000000403002010
:1069F0006461793D25366C7520000000B460F46058
:106A000034617461B461FDF7EDFFC820FDF735FC1A
:106A10000121080205F096FDAFF25C01FE483A68DC
:106A200006F05CF81023FC4A6E2164200094FEF707
:106A300098FC002756F827303A46AFF26401F64832
:106A400006F04CF8C7EB071005EB40011023F24AA3
:106A500064200094FEF785FC7F1C072FEADBAFF271
:106A60007001ED48D8F8002006F038F81023EA4A03
:106A7000514664200094FEF774FCBDE8F88FF8B529
:106A800000244FF6FF70FEF756FB00251023E3A20B
:106A90006421C8200095FFF75CF81023E5A282214D
:106AA000C8200095FFF755F81023E8A2A021C820C0
:106AB0000095FFF74EF81023EAA2BE21C8200095EA
:106AC000FFF747F84FF4FA60FDF7D7FBEB4DEC4EBC
:106AD000FEF75DF9F0B13088285C0A281CD006DC8E
:106AE00001280CD0032807D0072813D10DE00F2868
:106AF00008D010280ED10BE0FDF7F8F80AE003F0FB
:106B00008AFF07E0FFF72CFE04E001F026FE01E01B
:106B100001F05DFC002CDBD0F8BD10B5FEF737F9B5
:106B2000002820D0D649D5480988405C0B2813D0CE
:106B300007DC01280CD0032815D1BDE81040FDF773
:106B4000D5B80F280CD010280DD1BDE8104096E71D
:106B5000BDE8104003F05FBFBDE8104001F0FDBD8F
:106B6000BDE81040FCE510BD10B5C64886B0002455
:106B7000C54904604FF6FF7008601023C3A2962138
:106B8000C8200094FEF7E5FFC4A2C5A101A805F046
:106B9000A5FFC821102301AA08460094FEF7D9FFDB
:106BA0001023C2A2FA21C8200094FEF7D2FF06B03B
:106BB00010BDCEB064204FF0040B049072B6FDF708
:106BC00071FAFDF7F6FA62B6FDF778FFFCF7DAFC2A
:106BD00004F05DFAFCF72EFD6420FDF74EFB0B215F
:106BE000AFF6301001F0EDFF6420FDF746FBFCF737
:106BF00026FD4FF47A70FDF740FBFDF77BFBFDF7B8
:106C0000A0FD03F089FF01F013F945F2555005F09E
:106C10003FFC062005F030FC4FF6FF75284605F0D6
:106C200031FC05F021FCFFF7D5F8FCF703FD10213E
:106C3000A54805F017FCFEF75AF92846FEF77BFA3F
:106C40002820FFF78CF81E20FDF717FBFFF78CFFBD
:106C50002920FFF784F84FF4FA60FDF70EFB9B49FB
:106C6000502008809A48006805F00CF89949096896
:106C700004F0A8FE05F01CF8974900240860974925
:106C80000A20086096480470FFF747FF2820FFF7A6
:106C900066F82846FEF74FFA92484FF4C87240F261
:106CA0002621406800F5C8704A9000908D4803681E
:106CB0000C3003F22623CDE94803FEF727FD1F25FC
:106CC000E6234FF42F7282214FF4E1700095FEF716
:106CD00058FC102384A287214FF4FA700094FEF729
:106CE00040FBEB2340F2C1227D2140F2BD10009514
:106CF000FEF747FC8048962102684FF4FA70FEF7D1
:106D00000CFEE6234FF4AF7282215F200095FEF760
:106D100038FCE8020090EB2340F263127D215A20F8
:106D2000FEF72FFC102375A2872196200094FEF712
:106D300018FB2920FFF713F840F6B830FDF79DFA4D
:106D4000724F386858B172A107A805F0C7FE142326
:106D500007AA4FF48C710A200094FEF702FB71A081
:106D600004F0D9F91021584805F07CFB7148C47231
:106D70003868B0B16F4AAFF2605107A805F0AEFEB7
:106D80004FF49675142307AA4FF4A5712846009472
:106D9000FEF7E7FA2946102367A208460094FEF79B
:106DA000E0FA6C48002104606B4804606B4A0020E4
:106DB00002EB01221454401CFF28FBDD491C0A2968
:106DC000F4DB6748048067480480674900204FF47B
:106DD000FA520C54401C9042FBDB64480480644827
:106DE0000480644804606448046064480460644843
:106DF000046064A004F0AAFAFCF705FC63A004F0A8
:106E00008AF96648664E016806F138004790002905
:106E100000D0C7E02AE10000D24B0020204B4559AA
:106E2000312020202020203A205445535420202077
:106E300020000000204B4559332020202020203AFC
:106E40002043414C2020202020000000204B4559A9
:106E50005F454E544552203A20534554202020206F
:106E600020000000204B45595F434C454152203AD9
:106E70002052455455524E2020000000BC000020F6
:106E800008010020BC020020C00200204D4F4445F4
:106E90004C3A4750492D383331300000312E3700FD
:106EA00056455253494F4E3A25730000472D5445DD
:106EB000434820494E5445524E4154494F4E414C4F
:106EC00020434F2E2C200000000801402C030020FE
:106ED00010000020300000202C0000200C000020BA
:106EE0006C02002034440108544F444159204F554E
:106EF00054505554000000000003002043555252E6
:106F0000454E542057454947485400001803002077
:106F10004765745F576569676874282920626566EC
:106F20006F7265004765745F5765696768742829E3
:106F300000000000E4720020446174612073656EFB
:106F400064696720746F20757365725F4669727338
:106F5000742121006C00002068000020A60400209D
:106F60007200002070000020A6180020760000208B
:106F70007400002088000020600000208C000020A9
:106F8000640000204154453000000000646F202060
:106F90004D41494E204C4F4F500000002803002027
:106FA0000473002000250D21F9A001F00AFE6420E1
:106FB000FDF75FF96D1C032DF5DBF9A004F0ABF8CC
:106FC00000254FF4D7784FF4E679C5F16402962195
:106FD0006420FEF7A2FC6420FDF74BF9F9A16620BE
:106FE00002F01BF9F9A1672002F017F9F9A1682056
:106FF00002F013F9B06C00902A46F8A107A8479B4D
:1070000005F06CFD142307AA41460A200094FEF700
:10701000A8F906F154000FC88DE80F00D6E9132334
:10702000F3A107A805F05AFD142307AA49460A2030
:107030000094FEF796F96D1C642DC6DB3868A8B97C
:10704000F5A107A805F04AFD142307AA41460A2026
:107050000094FEF786F9F0A107A805F03FFD142380
:1070600007AA49460A200094FEF77BF9C8210220AE
:1070700003F08EF8C821022003F08AF8F2490A20B2
:107080000860F2494FF4FA600860F1484FF0FF31B0
:10709000DFF8CC930460EF4800254FF0010804604E
:1070A000ED480160ED48416801F5C8714D9150F817
:1070B0000C1B01F22621CDE94B010020FEF79DFEBD
:1070C0006D1C142DF9DBB246E64E306800B3E6487D
:1070D000E7A100680090E0480368E448026807A858
:1070E00005F0FCFC142307AA50214FF4967000947D
:1070F000FEF737F9E8480268E8A107A805F0EEFCBA
:10710000142307AA4FF48C710A200094FEF729F982
:1071100005F0AAF9DAF85800049988421ED0E1492E
:107120004A6ADAB155464C62D5E91721DAF854308B
:10713000CDE904020AF148020393069107CA8DE8DB
:107140000700D548479B0268D7A107A805F0C6FCF1
:1071500007A9E2A001F0EAFCA86D0490FFF7BAFAD3
:10716000C0480068E8B1FFF797FAB949DAF85C203F
:1071700044F250600B68B8490968CDE90230CDE9A6
:107180000012D94899F80030D849026807A805F0DC
:10719000A5FC142307AA4FF48C710A200094FEF773
:1071A000E0F8D34FBF4E04F088F90546401C2FD0BD
:1071B000284603F09EFFF0693D54401CF0610A2D03
:1071C000F1D13C54CB48006898B10222CAA1C8480A
:1071D00004F0DCFB10B9C64804F0C8FB0522AFF68A
:1071E000BC61781C04F0D2FB88B1C148FFF733FAC8
:1071F0000DE0002506E0785D242802D17819FEF71D
:10720000F8FE6D1CBA4804F0B1FBA842F3D8F46153
:10721000BA4D04F063F90746401C0DD0384603F020
:1072200068FF306A2F54401C30620A2FF1D12C5471
:10723000B24804F069F93462B14D2868002850D191
:10724000FFF7F8F9411C4CD0C5F80080A94909683E
:1072500051B3AC4F02217C2539707D70002153461B
:107260005A1892F838201AB107EB010C8CF802205A
:10727000491C0B29F4DB7A18C91C95700091A249AE
:10728000002501EB002705E00098795D2A189D484C
:107290006D1C8154384604F069FBA842F4D89B4821
:1072A000009703689A4800E008E0026899A107A8DF
:1072B00005F014FC07A803F02EFF07E0924901EB4C
:1072C0000022921CA0A18F4805F008FC8D4804F014
:1072D0004DFBA2490860A2A003F01DFF894803F0FE
:1072E0001AFFA348007808B1FEF713FF8021A148D8
:1072F00005F0AFF820B3307A3221401CB0FBF1F238
:1073000001FB12003072F471022809D9FCF76EF902
:10731000B07928B1984800787072B47186F80A8004
:107320004C480168642922D3046099F8000030B306
:10733000B07A20B3707A002827D0401E70721BE00C
:10734000F0793221401CB0FBF1F201FB1200F07128
:1073500034720228E4D9454686F80680FCF741F9E4
:10736000B47299F800004F4600280FD0D4E399F882
:10737000000020B1B07A10B1707A0028DCD03079EA
:1073800010B134717DA10CE1FCE088E3A5E20000BE
:107390004154244C475444454C524D3D2A00000072
:1073A0006765745F63646D615F696E666F5F5741A7
:1073B00049542843444D415F4745545F54454C4E22
:1073C0004F29000054454C4E4F00000054494D4594
:1073D00000000000525353490000000025642C2097
:1073E00074656C3D25732C727373693D20256400B0
:1073F000446174653D253034642D253032642D257B
:107400003032642054696D653D253032643A253050
:1074100032643A25303264002020202020202020B1
:10742000202020202020202020202020202020205C
:10743000202020202020202020202020202020204C
:1074400020202020200000007C0000208000002060
:10745000280200202C02002008030020DC1D010867
:107460009D0200201803002050030020B8000020D7
:10747000464143544F523D256C642C206769546F3C
:107480006461793D25642C207274635F6461746566
:107490003D25642020000000B80200202530386C13
:1074A0006400000020010020256C753A74656C3D75
:1074B00025732C727373693D25642C253034642D3B
:1074C000253032642D2530326420253032643A254F
:1074D0003032643A253032640000000030313039F7
:1074E000313935343037320004030020C06A0108D6
:1074F000364C0020280300204F4B0000364D002062
:107500005C000020A6030020A60400206C000020E0
:107510006800002043646D6153656E645175657544
:10752000655F71686561643D25642C2043646D610D
:1075300053656E6451756575655F717461696C3D05
:1075400025642C202573000041542B554E4943419E
:1075500053543D303030302C25730000580000204B
:107560003A3A3A3A3A3A3A3A3A3A3A3A0000000063
:10757000E802002000100140F002002042432D42AA
:107580000000000099F8000038B1FE48016859B9C0
:107590004EF660210160FCA103E0707920B17471A6
:1075A000FBA1012002F08EFAFB48006870B1FB4895
:1075B0000268AFF2181107A805F090FA142307AA81
:1075C0004FF48C710A200094FDF7CBFE02F034FDDD
:1075D000F34844F2506102688A427DD30460F14866
:1075E000006800286FD0F0480A25DAF858200378A0
:1075F00092FBF5F0B3FBF5F1574681421BD105FB39
:10760000113105FB1020814215D1707898B91023F3
:10761000AFF2DC626421C8200094FDF7A2FEE348CB
:10762000FEF7CCFC4FF47A70FCF727FEE048FEF73B
:10763000C5FC86F80180DF48BB6D027893FBF5F14D
:10764000B2FBF5F088421AD105FB102005FB113181
:10765000884214D1B07890B91023D7A26421C820F1
:107660000094FDF77EFED148FEF7A8FC4FF47A7037
:10767000FCF703FECE48FEF7A1FC86F80280D64850
:107680000278B86DB2FBF5F190FBF5F399421AD18F
:1076900005FB112105FB1300814214D1F07890B94C
:1076A0001023CEA26421C8200094FDF75AFEBF48E3
:1076B000FEF784FC4FF47A70FCF7DFFDBC48FEF760
:1076C0007DFC86F80380CC49CC480A680068824279
:1076D00025D099F8002000E021E002BB086034705A
:1076E0007470B470C649F470062001EB800252F841
:1076F000042C41F82020401EF7D1C24D28680860B4
:10770000C1480168491C01602C60FDF76BF9FEF768
:1077100042FC96214FF4FA702A68FEF7FEF8012029
:10772000FEF76BFB99F80000C8B1F07A401CC0B2BC
:10773000F0720A2813D9B548F472F16800688842DB
:107740000DDA091A64290ADCAE4B1A680A441A6079
:10775000F060706196214FF4FA70FEF7DEF8FDF7E5
:1077600016FB00283FD0AB49A9480988405C012896
:1077700006D00C2838D00D287BD00E2833D1FDE15F
:10778000A548A64EA6A1036807A8326805F0A6F989
:10779000142307AA1E21C8200094FDF7E2FDA64F7E
:1077A000A64D02E0FBF7CEFC286038780028F9D01F
:1077B0002868054604F05DFAA149096804F002F959
:1077C00004F076FA9F49944F042208603C602946F1
:1077D00010463560FDF7E3F8306004224420396834
:1077E000FDF7DDF8386097E14FF6FF70FDF7A3FC79
:1077F0001F25E6234FF42F7282214FF4E17000958C
:10780000FDF7BFFE1023AFF6201287214FF4FA7068
:107810000094FDF7A6FDEB2340F2C1227D2140F24A
:10782000BD100095FDF7ADFEE6234FF4AF72822147
:107830005F200095FDF7A5FEE8020090EB2340F2E3
:1078400063127D215A20FDF79CFE1023AFF65412DF
:10785000872196200094FDF784FD99F8000048B137
:107860004D980090DDE94B034FF4C87240F2262199
:1078700008E00AE04A980090DDE948034FF4C87236
:1078800040F22621FDF742FF46E14FF6FF70FDF77B
:1078900052FC5C485A4F006838600025C5EB051162
:1078A000282000EB81062A463146FA20FDF7BEFA71
:1078B00031463A224FF48C70FDF7B8FA57F825207C
:1078C00031464FF49670FEF728F86D1C072DE5DB66
:1078D00041F28830FCF7D1FC86E7707AF0BB4B4868
:1078E00035710268F260B261464832613263006805
:1078F000B0632948006888B353A1574805F0EEF8F3
:107900004FF496711023544A08460094FDF729FD60
:1079100052A15148F26805F0E1F810234E4A4FF4A5
:10792000A5714FF496700094FDF71BFD50A14A48D5
:10793000B26905F0D3F81023474A4FF4B4714FF4FD
:1079400096700094FDF70DFD4EA14348326B05F093
:10795000C5F81023404A4FF4C37100E004E04FF42F
:1079600096700094FDF7FDFC4D980090DDE94B0307
:107970004FF4C87240F22621FDF7C8FE3D704EF666
:10798000602089E08800002042432D4A000000006A
:1079900042432D4500000000180300207C00002019
:1079A00028020020280300200C030020E47200209D
:1079B0006801002010030020446174612073656E2B
:1079C00064696720746F20757365725F5365636FB8
:1079D0006E642121000000001403002044617461E2
:1079E0002073656E64696720746F20757365725FBC
:1079F00054686972642121000803002050030020AC
:107A0000C87200200003002004030020440300206B
:107A1000BC00002008010020F4020020100000201B
:107A2000765F7A65726F3D25366C752020636F6DC9
:107A3000703D25366C7500009C0200203403002048
:107A4000300000202C00002067786C47726F737341
:107A50003D25366C75200000D24B002070756C738C
:107A6000655F7765696768743D25366C7520000031
:107A70007265665F7765696768743D25366C752049
:107A80000000000073746172745F776569676874E1
:107A90003D25366C75200000824908603CE089F87D
:107AA000004086F80A8080483471316B0068454692
:107AB000081A7063B16B042201444820F163FCF79B
:107AC0006EFF7A4F0246962138604FF4FA70FDF748
:107AD00024FF77480068A0B13A684FF4FA774FF472
:107AE00096713846FDF719FF72A17748F26B04F0E2
:107AF000F5FF1023744A4FF4B97138460094FDF72E
:107B000030FC4A980090DDE948034FF4C87240F217
:107B10002621FDF7FBFD7571FEF75FF96B480168E3
:107B200000293FF4D1AA6A4904606B48C1F800807B
:107B30006849C1F800800068A8B16848DAF85410B4
:107B4000056867480368674802688DE82E00DAE92F
:107B5000132365A107A804F0C1FF07A803F0F6FBF3
:107B600007A803F0D8FABBF1000FDAD06848ABF1F0
:107B7000010B016867480160FFF7A6BA4FF6FF7571
:107B80002846FDF7D8FA2846FDF7D5FA32211F25F9
:107B90004FF42F76CF006423324638460095FDF728
:107BA000F0FCB4233246822138460095FDF7E9FC0B
:107BB0004FF482733246D22138460095FDF7E1FC3E
:107BC0004FF4AA7332464FF4917138460095FDF791
:107BD000D8FC4FF4D27332464FF4B9713846009551
:107BE000FDF7CFFC4CA107A8479A04F077FF4FF4AC
:107BF000EB75102307AA462128460094FDF7B1FB38
:107C0000102349A2962128460094FDF7AAFB4A4872
:107C10004A490246C47207A804F060FF142307AA69
:107C2000E62128460094FDF79CFB4548C278817800
:107C3000CDE900124378027842A107A804F04EFF74
:107C4000142307AA4FF49B7128460094FDF789FB83
:107C5000102341A24FF4C37128460094FDF781FB25
:107C600041F2707036E610B58CB001F0FAFA3F4878
:107C700000F154011EC98DE81E00D0E913233CA178
:107C800004A804F02BFF04A803F070FE03460020B4
:107C9000009004AA0A214FF4FA70FDF762FB0CB0C1
:107CA000002010BD880000204403002000030020B5
:107CB00018030020546F646179546F74616C7265AD
:107CC000663D25366C752000D24B0020D002002086
:107CD000E4020020C4020020280300205C030020EE
:107CE000580300205403002041542B42433D2444B8
:107CF0004154453D253034642530326425303264AA
:107D00002530326425303264253032644000000072
:107D100050030020080300204445564943455F5462
:107D2000454C3A2573000000414E4E54454E4E419D
:107D30003D474F4F44000000E472002018680008DF
:107D4000F8720020534D535F54494D453D2563253E
:107D5000632563256300000055534552333A3031A3
:107D6000302D323030342D3035383000047300205F
:107D7000253034642D253032642D253032642025A1
:107D80003032643A253032643A25303264000000E3
:107D9000002141600160704702684A6000220A6069
:107DA00002680AB1116000E0416001608189491CEC
:107DB0008181704702684A6000220A6002680AB145
:107DC000116000E0416001608189491C8181704738
:107DD000D1E900230BB11A6000E04260D1E9002133
:107DE0000AB1516000E001608189491E81817047BC
:107DF00010B5046824B12146FFF7EAFF204610BD04
:107E0000002010BD10B5446824B12146FFF7E0FF03
:107E1000204610BD002010BD10B504462046FFF7D7
:107E2000E7FF0028FAD110BDB0F90C007047000040
:107E300008B503208DF8000000208DF80100012016
:107E40008DF802008DF80300684604F027FB01213D
:107E50004FF0C05004F082FB012004F06DFB0120C4
:107E600004F03AFC612004F0F3FB0028FAD04FF450
:107E7000007004F061FC012004F058FC04F0ECFCFC
:107E800049F6404004F0CEFC04F0DCFC0121084639
:107E900004F0ACFC08BD704710B5012004F098FC5C
:107EA000002827D0012004F073FCBB49BB48012205
:107EB0000A6003685B1C03604868B94B401C48605B
:107EC0001A603C2816DB00234B608868B54C401CC8
:107ED000886022603C280DDB8B60C868B24C401C77
:107EE000C8602260182805DCCB600869401C086166
:107EF000AE48026010BD2DE9FC410024AC4E07469F
:107F000000946D4601942021304604F04DFD002878
:107F1000F9D0304604F0CAFD45F82400641C05EB96
:107F2000840050F8040C30380A2803D3A1A004F0D0
:107F3000C5FD641E022CE6D3DDE90001A84A00EB72
:107F4000800002EB40000844B84206D93946A5A09B
:107F500004F0B4FDFF20BDE8FC81C0B2FBE770B5C2
:107F6000FF263546ABA004F0A9FD1720FFF7C3FF9D
:107F70000446FF28F9D00146A9A004F09FFDAAA05D
:107F800004F09CFD03E03B20FFF7B5FF0646FF2E03
:107F9000F9D03146A2A004F091FDA6A004F08EFD18
:107FA00003E03B20FFF7A7FF0546FF2DF9D0294648
:107FB0009BA004F083FD4FF461604443C6EB0610C0
:107FC00004EB8000284470BD10B504F03BFCFFF7C3
:107FD000C6FF04F019FCBDE8104004F033BC704744
:107FE00070B516460C46054604F02CFC4FF4616053
:107FF0004543C4EB041005EB8000304404F004FC5E
:10800000BDE8704004F01EBC10B5044604F01AFC34
:10801000204604F0F9FBBDE8104004F013BC002733
:108020005D4C8AB04FF461653C2620680028FCD086
:10803000276004F0C5FBB0FBF5F205FB1200B0FBB6
:10804000F6F306FB130000907DA101A804F046FDA5
:1080500001A803F060F8E8E780A003F05CF8FFF700
:10806000E7FEFFF7DCFF2DE9F0479EB0044634221F
:108070007C4904A803F04AFC2078E178303800EB12
:108080004002C2EBC01001EBC002617864204143A2
:10809000A0784FF0000A00EB800001EB40001518BB
:1080A00020796179303800EB80026FF02F0000EB0F
:1080B00042028E18A179E279303901EB810100EB9F
:1080C00041015718217A627A303901EB810100EBC6
:1080D000410102EB0109A17AE27A303901EB810119
:1080E00000EB410102EB0108217B627B303901EB9F
:1080F0008101A5F5A05500EB4100D03D1418A5F570
:10810000FC60532844D8701E0B2841D8781E1E28C6
:108110003ED8B9F1170F3BD8B8F13B0F38D83B2CFC
:1081200036D8514840F26D114FF4C85AC0E917844F
:108130004C30A0E8E002A5F5FA60414301EB900065
:1081400004A9401C51F82610022E084402DDA9079C
:1081500000D1401CC1194548491E4143C9EB491291
:10816000C2EB092001EB0011C8EB081001EB800005
:108170002044FFF749FFCDE90284CDE90079334679
:108180002A463BA111A804F0A9FC11A802F0C3FFE4
:108190001EB05046BDE8F08778010020B8020020EC
:1081A000CC020020D0020020D4020020D8020020FF
:1081B000003801405B4552524F525D20656E746538
:1081C000722076616C6964206E756D6265722062E2
:1081D00065747765656E203020616E6420390A0011
:1081E000F0FDFFFF5B4552524F525D20656E746596
:1081F000722076616C6964206E756D6265722062B2
:1082000065747765656E203020616E642025640A90
:108210000000000053657420486F757273202000C1
:108220003A202025640A0000536574204D696E755C
:1082300074657300536574205365636F6E647300D7
:1082400054696D653A2025302E32643A25302E323D
:10825000643A25302E32640D000000003132333490
:1082600035360000186B01080473002080510100AE
:1082700053594E433A3A25642D253032642D25302A
:10828000326420253032643A253032643A25303267
:10829000640000002DE9FF4F8FB00026FD4A8046A4
:1082A000A0F10109DDF878B01C46354602EB8807DD
:1082B000B9F10C0F05D857F8041C424601A804F088
:1082C0000DFCDDE910014FF0000A102301AACDF8E2
:1082D00000A0FDF73EFCFCF75AFD98B3EF49EE48CD
:1082E0000988405C0C281AD2DFE800F00606060672
:1082F0000606060606061217BBF1010F4FF0010530
:1083000001DC04460CE004EB840100EB410407E0CF
:108310004FF001054FF0000402E04FF001068DB16F
:10832000B9F10C0F06D857F8041C2346424601A8A1
:1083300004F0D4FBDDE91001102301AACDF800A060
:10834000FDF707FC002EC6D0002D0CD0B8F1080FA9
:1083500009D2DFE808F00804060B3436383AD04872
:1083600000E0D048046013B0BDE8F08FCE4DD04E91
:108370002C60CE4C02E0FAF7E5FE20603078002851
:10838000F9D0206803F075FCCA49096803F01AFBAC
:1083900003F08EFCC8490860C8490968401AC849FA
:1083A0000860C8490A300968B0FBF1F0C64909689D
:1083B0004843C64908602968081A2860D3E7C448BA
:1083C000D0E7C448CEE7C448CCE7C448CAE72DE9A3
:1083D000FE4F4FF6FF70FCF7AEFE4FF0000B5C4611
:1083E0001023BFA21E219620CDF800B0FDF7B1FBEF
:1083F0004FF47A70FBF741FF01200094A84DCDE9BE
:108400000100462296212B68FFF744FF4FF4FA70D3
:10841000CDE90040A34E02906922022096213368E4
:10842000FFF738FFB148A04F8C2200680290CDE9D9
:108430000040032096213B68FFF72CFF43F2C82041
:1084400041F65831CDE90010DFF884A20290AF2246
:1084500004209621DAF80030FFF71CFF0120009479
:10846000CDE90100DFF86C92D22205209621D9F8DF
:108470000030FFF70FFF6320CDE90040DFF858829E
:108480000290F52206209621D8F80030FFF702FF6F
:1084900000940120CDE90100904C4FF48C7207202C
:1084A00096212368FFF7F6FEFCF778FA00214FF4D7
:1084B000807004F047F804221C202968FCF76FFA4A
:1084C000286004222C203168FCF769FA306004220D
:1084D00044203968FCF763FA3860DAF8001041F29A
:1084E0007072A1F5D8505838904205D804225546EC
:1084F0008C20FCF754FA286004224D469020D9F8CD
:108500000010FCF74CFA2860042245469C20D8F85D
:108510000010FCF744FA28600422A0202168FCF730
:108520003EFA01212060080204F00CF840F23B11F1
:1085300010236FA29620CDF800B0FDF70AFBBDE82E
:10854000FE8F2DE9F0415A4C6D4E00272770012512
:1085500080463570FAF7F6FD20780028FAD02770AB
:108560003570FAF7EFFD20780028FAD027703570C3
:10857000FAF7E8FD20780028FAD027703570FAF76E
:10858000E1FD21780029FAD003F073FB494909681D
:1085900003F018FA03F08CFB48490968401A49496E
:1085A0000A300968B0FBF1F04749096800FB118007
:1085B000BDE8F0812DE9FF4F8FB0364ADDE91D9807
:1085C0000026383A8246A0F1010B1C46354602EBE4
:1085D0008A07BBF10D0F05D857F8041C524601A8B5
:1085E00004F07CFA00200090DDE91001102301AABC
:1085F000FDF7AFFAFCF7CBFBF0B328492648098812
:10860000405C0C2829D2DFE800F0060606060606C4
:10861000060606061C1FB8F1010F01DC014603E047
:1086200004EB840100EB4101894512DB0125B8F11F
:10863000010F01DC044611E004EB840100EB41046E
:108640000CE00125002409E01C98844201DBA145CF
:1086500002DAFAF7B6FF00E001266DB1BBF10D0FAB
:1086600006D857F8041C2346524601A804F036FAEF
:108670000020102301AA00E004E00090DDE91001D1
:10868000FDF767FA002EB5D0002D49D0BAF10F0FD3
:1086900046D237E0C4010020BC00002008010020C1
:1086A000EC020020F0020020F4020020FC02002076
:1086B0009C02002030000020300300202C0000200D
:1086C000380300200C000020080000204403002094
:1086D000B8000020180300202403002028030020F5
:1086E000534554204D4F4445000000002400002015
:1086F000534554204D4F444520454E44494E470074
:108700006D020020DFE80AF00C080A0D1315171996
:108710001B1D1F2123252700E34800E0E3480460D8
:1087200021E62046FFF70DFFE14908601BE6E1481E
:10873000F5E7E148F3E7E148F1E7E148EFE7E14831
:10874000EDE7E148EBE7E148E9E7E148E7E7E14841
:10875000E5E7E148E3E7E148E1E72DE9FE4F4FF6C1
:10876000FF70FCF7E8FC00241023AFF28C021E21FE
:1087700096200094FDF7EDF94FF47A70FBF77DFD3C
:108780000127CDE90047C848029746220368962191
:108790003846FFF70FFF4FF4FA700094CDE901005F
:1087A000C249612202200B689621FFF703FFCC48E3
:1087B000BF497C2200680290CDE900400B6803208D
:1087C0009621FFF7F7FE1725BA49CDE90045029536
:1087D0000B68972204209621FFF7ECFEB649CDE9FD
:1087E000004502950B68B22205209621FFF7E2FEB4
:1087F000CDE900450295B14DCD22062096212B688A
:10880000FFF7D8FE06200421CDE90010AC4E0297F8
:10881000E822072096213368FFF7CCFE43F2C822F6
:10882000114641F658308DE80700DFF898B208206D
:1088300040F203129621DBF80030FFF7BBFECDE9D2
:108840000047A149029709200B684FF48F729621C7
:10885000FFF7B0FEA3480094CDE901009B490A2030
:1088600040F239120B689621FFF7A4FE40F2E73080
:108870000094CDE90100DFF858A20B204FF4AA7252
:108880009621DAF80030FFF795FE63200094CDE9D9
:108890000100DFF840920C2040F26F129621D9F8C7
:1088A0000030FFF787FECDE90047DFF82C82029702
:1088B0000D204FF4C5729621D8F80030FFF77AFEEC
:1088C00000973C21CDE90111844F0E2040F2A51202
:1088D00096213B68FFF76EFEFCF760F800214FF42D
:1088E000807003F02FFE7048042201681C20FCF702
:1088F00056F86D49042208606C4801682C20FCF78A
:108900004EF86A4904220860694801684420FCF76F
:1089100046F8674904220860664804687C202146BE
:10892000FCF73DF86349042208606F48210A04708F
:108930004170210C8170210EC1705F480468802055
:108940002146FCF72CF85C49042208606748210A9C
:1089500004704170210C8170210EC1702C6884203C
:108960002146FCF71CF828606148210A04220470A3
:108970004170210C8170210EC17088203168FCF794
:108980000EF83060DBF8001041F27072A1F5D8509B
:108990005838904205D804225C468C20FBF7FFFF34
:1089A0002060494C042290202168FBF7F8FF2060EA
:1089B000464C042294202168FBF7F1FF206004223A
:1089C00054469820DAF80010FBF7E9FF20600422F3
:1089D0004C469C20D9F80010FBF7E1FF20600422F0
:1089E0004446A020D8F80010FBF7D9FF20600422ED
:1089F000A4203968FBF7D3FF01213860080203F097
:108A0000A1FD00204FF4E0711023AFF21C32009062
:108A10008C20FDF79EF892E52DE9F04F00268FB0EF
:108A20008A46834635463446324632A101A804F0D0
:108A300055F80027102301AA514658460097FCF725
:108A400090FCDFF8BC80DFF8BC90FCF7A0F918B30D
:108A5000B9F8001018F801000C2810D2DFE800F077
:108A6000060606060606060606060C0E04EB84013C
:108A7000012500EB410403E0002400E001265DB184
:108A800022461CA101A804F029F8102301AA51468E
:108A900058460097FCF765FC002ED6D0002D00D07C
:108AA00020460FB060E40000EC020020F00200203D
:108AB000F4020020A8000020AC000020B00000203C
:108AC000B4000020B8000020180300201C03002080
:108AD000200300202403002028030020F8020020A7
