:020000040800F2
:10000000788F002059260008B90E0008BB0E0008A2
:10001000BD0E0008BF0E0008C10E00080000000061
:10002000000000000000000000000000C50E0008F5
:10003000C30E000800000000C70E0008C90E00082B
:100040005D0F00085F0F0008610F0008630F0008D4
:10005000650F0008670F0008690F00086B0F0008A4
:100060006D0F00086F0F0008710F0008730F000874
:10007000750F0008770F0008790F00087B0F000844
:100080007D0F00087F0F0008810F0008830F000814
:10009000850F0008870F0008890F00088B0F0008E4
:1000A0008D0F00088F0F0008910F0008930F0008B4
:1000B000950F0008970F0008990F00089B0F000884
:1000C0009D0F00089F0F0008A10F0008A30F000854
:1000D000A50F0008A70F0008A90F0008D10F0008FE
:1000E000031000080510000807100008DFF80CD006
:1000F00002F016FB00480047150C0008788F00201E
:10010000F0B50022F84B144615464FF00A0CB1FB2F
:10011000F3F603FB161106F130078754521CB3FBAC
:10012000FCF3861816F8016C302E00D124B1641C43
:100130006D1C0A2DEBD3F0BD0022F9E770B500234A
:1001400002781C46302A04D14278782A0AD0582AEC
:1001500008D06FF02F05C25CAAB16B2A2AD04B2AB7
:1001600028D02CE0827802B30223C25C5AB1A2F1FB
:100170004105052D09D9A2F16106052E05D91135D4
:10018000092D06D930E00C6017E0A2F13006092EE7
:1001900001D8303A04E0052D01D8373A00E0573A4B
:1001A0005B1C02EB04140B2BDFD301E00B2B00D301
:1001B000002070BD1BB1A00207E00120F6E76D2A08
:1001C00001D04D2A03D113B120050860F5E7A2F153
:1001D0003006092E08D804EB840405EB44045B1CAC
:1001E00014440B2BB7D3E3E70020DFE710B5BF4C77
:1001F0000146204602F076F98021204602F0BFF940
:100200000028F9D010BD10B5044602E0FFF7EEFF5C
:10021000641C20780028F9D110BD10B504462021B7
:10022000B24802F0ACF9002804D0B048001D0088A4
:100230002070012010BD08B500208DF80000684630
:10024000FFF7EBFF0028FAD09DF8000008BD70B55D
:1002500005460024FFF7EFFF0D2817D0082805D02A
:10026000802C0AD3A2A0FFF7CEFFF2E7002CF1D03A
:10027000A7A0FFF7C8FF641EECE7A0F120015E29EC
:10028000E8D82855641CFFF7B1FFE3E7A1A0FFF70A
:10029000BAFF0020285570BD1FB504466846FFF719
:1002A000D6FF9DF80020002AF8D0612A01D0412A0B
:1002B00002D19DF8010038B121466846FFF73EFFA4
:1002C00038B1012004B010BD93A0FFF79CFF0020BF
:1002D000F8E796A0FFF797FFE0E710B5044601F0B6
:1002E00081F908B1002010BD01F070F920700120E3
:1002F00010BD10B5934C0146204602F0F3F8802162
:10030000204602F03CF90028F9D010BD10B58E4C03
:100310000146204602F0E6F88021204602F02FF93F
:100320000028F9D010BD01B5884800990288B1FBBA
:10033000F2F002FB1011002900D0401C08BD2DE98D
:10034000F0474FF001094FF00208042701F060FD6B
:100350007F4E0546B068A84336D001F055FD0446EF
:10036000B0682843B06001F01EFC0546B068411C2F
:1003700003D0C04301F09EFC0546E04340070ED089
:10038000E00700D18146A00701D44FF000086007C4
:1003900000D400273A464146484601F011FD042D9D
:1003A00003D06CA0BDE8F0472DE775A0FFF72BFF49
:1003B0007B48FFF728FF0121C80201F076FFBDE866
:1003C000F0474F2001F052BB76A0EBE770B54FF439
:1003D000FA74204600F0BCFA2B20FFF797FF2B2081
:1003E000FFF794FF2B20FFF791FF204600F0B0FAB3
:1003F0004120FFF78BFF5420FFF788FF5A20FFF7BB
:1004000085FF0D20FFF782FF0A20FFF77FFF72B6FE
:1004100002F098F9354C40F225560022314620462C
:1004200002F014F8474D00223146284602F00EF83B
:100430003146454E0022304602F008F800212046A1
:1004400001F0FAFF0021284601F0F6FF00213046B6
:1004500001F0F2FF4FF440514FF0006002F0B4F9A8
:10046000594948683A4C2061E060086802F01AF97E
:10047000E068BDE8704000475448354C01250068ED
:10048000A0F10060000B606005FA00F0401EC04360
:10049000A06001F0BDFCA168814300D0257000F090
:1004A000DDF8FFF793FF4FF00065FFF7C4FE31283A
:1004B00004D0322807D033280ED010E000F0CEF858
:1004C000FFF784FFF1E768682061E060286802F0C8
:1004D000E9F8E0688047E8E7207801287CD02078B8
:1004E00000B175E07BE077E000CA9A3B003801403C
:1004F000436F6D6D616E6420737472696E672073F3
:10050000697A65206F766572666C6F770D0A0000F8
:10051000082008000A0D0000557365722043616EC3
:1005200063656C6C6564200D0A0000004572726F93
:10053000722C20496E70757420616761696E3A2073
:100540000D0A000000440040004800402A0000203E
:10055000000000204572726F723A20466C61736829
:1005600020777269746520756E70726F746563743C
:10057000696F6E206661696C65642E2E2E0D0A000F
:1005800057726974652050726F74656374696F6E19
:100590002064697361626C65642E2E2E0D0A000062
:1005A000BC2B0008466C617368206D656D6F7279B5
:1005B000206E6F742077726974652070726F746535
:1005C000637465640D0A00000030000834000020E8
:1005D00004A0FFF718FE68E7FFF7B1FE65E710A07B
:1005E000F7E70000496E76616C6964204E756D62B4
:1005F00065722021203D3D3E20546865206E756D5A
:100600006265722073686F756C642062652065692D
:100610007468657220312C2032206F7220330D00F7
:10062000496E76616C6964204E756D626572202139
:10063000203D3D3E20546865206E756D62657220D8
:1006400073686F756C642062652065697468657293
:100650002031206F7220320D000000002DE9FE4F86
:1006600046A04FF40069D0E9001280680091CDE9FE
:100670000120032701F029FA43A0FFF7C4FD5148E8
:1006800000F099FD061E5DDD4F48FFF7BCFD4F48A9
:10069000FFF7B9FD31466846FFF732FD4CA0FFF782
:1006A000B2FD6846FFF7AFFD4CA0FFF7ACFD4EA0D2
:1006B000FFF7A9FDDFF858B1564801F03AFA0546B0
:1006C00054485549001D01F09FFA3046FFF72BFEB4
:1006D000824652A0FFF797FD0024D84605E009FBAB
:1006E000048001F026FA0546641C544501D2042D0D
:1006F000F5D04FA0FFF787FD514D0024C2460CE016
:1007000004EB0A008046296801F07EFAD8F8000060
:100710002968884203D12D1D241DB442F0D3A6427E
:1007200009D848A0FFF76FFD4B493A4801F06CFA31
:1007300037B14AA00DE051A0FFF765FD7F1EBBD188
:1007400056A006E0701C13D0B01C13D0F61C13D0BA
:100750005AA0FFF758FD01F0BEF92B20FFF7D6FD98
:100760002B20FFF7D3FD2B20FFF7D0FDBDE8FE8F38
:100770005AA0EEE769A0ECE76FA0EAE7202020206E
:10078000202020202020000057616974696E6720B6
:10079000666F72207468652066696C6520746F20CE
:1007A00062652073656E74202E2E2E20287072656F
:1007B00073732027612720746F2061626F72742920
:1007C0000A0D00007C000020082C00087C0400209A
:1007D0000A0D2053697A653A20000000204279749E
:1007E00065730D0A000000002D2D2D2D2D2D2D2DB2
:1007F0002D2D2D2D2D2D2D2D2D2D2D2D2D2D2D2D29
:100800002D2D2D2D2D2D2D2D2D2D2D2D2D0D0A0088
:1008100000300008002800082222020020626C6FCD
:10082000636B20312065726173650D0A0000000062
:1008300020626C6F636B203120636F70790D0A004A
:100840000000040820626C6F636B20312073656CBC
:100850006563740D0A0000001111010020656E64CB
:10086000207375636365737320202E2E2E2E2E2E1B
:100870002E2E2E2E2E2E2E2E2E0D0A0020626C6F66
:10088000636B203220746F20626C6F636B203120A9
:10089000636F7079206661696C0D0A0020656E6473
:1008A000206661696C20202E2E2E2E2E2E2E2E2EAE
:1008B0002E2E2E2E2E2E2E2E0D0A00000A0D4661F3
:1008C000696C656420746F20726563656976652064
:1008D0007468652066696C65210A0D000A0A0D546A
:1008E000686520696D6167652073697A6520697341
:1008F00020686967686572207468616E2074686535
:1009000020616C6C6F776564207370616365206D26
:10091000656D6F7279210A0D000000000A0A0D56FC
:100920006572696669636174696F6E206661696C7E
:100930006564210A0D0000000D0A0A41626F72749D
:10094000656420627920757365722E0A0D000000BF
:1009500010B50446012001F041FFFB494C60486896
:100960000028FCD110BD2DE9F04389B001F084FBD3
:100970004FF48035284601F09DFB01F0C8FBF24999
:10098000AC110128087022D1102001F095F8022046
:1009900001F080F8002001F0F1FB002001F0FCFBE9
:1009A000204601F0F2FB4FF4E011284601F0CFFBA6
:1009B000012001F0D4FB392001F094FB0028FAD08B
:1009C000022001F0CFFB01F0D4FB0828FBD101216C
:1009D00044F2140001F060FC0121880401F065FC80
:1009E00018278DF81B704FF40076DFF86093ADF890
:1009F000186003258DF81A5006A9484601F07FFAC1
:100A00004FF004088DF81B80ADF818408DF81A508F
:100A100006A9484601F073FAADF81840CC4C8DF8A1
:100A20001B708DF81A5006A9204601F068FAE014F0
:100A3000ADF818008DF81B808DF81A5006A92046D5
:100A400001F05DFA0024ADF81040ADF812604FF4EB
:100A5000E1370C25BF4E0097ADF80440ADF80840D3
:100A6000ADF80C50ADF80640ADF80A40ADF80E40B8
:100A7000ADF814406946304601F084FCADF80C50E6
:100A8000B54DADF80440ADF808400097ADF806400C
:100A9000ADF80A406946284601F074FC40F225573B
:100AA00001223946304601F0D1FC0121304601F0E7
:100AB000C3FC27208DF81C008DF81E4001208DF806
:100AC0001F0007A801F046FE01223946284601F022
:100AD000BDFC0121284601F0AFFC09B0BDE8F08360
:100AE0002DE9F047984C4FF4007008341827208007
:100AF000DFF85892E7700325A5702146484601F0BB
:100B0000FEF94FF48068A4F800800426E670A57012
:100B10002146484601F0F3F92680E770A57021468A
:100B2000484601F0ECF908202080E670A5702146C7
:100B3000484601F0E4F9A4F80080E770844FA570FE
:100B40002146384601F0DBF970022080E670A5707E
:100B500021463846BDE8F04701F0D1B900214FF0F9
:100B6000006001F031BE10B501F086FA4FF4803418
:100B7000204601F09FFA01F0CAFA73490128087073
:100B800022D1102000F098FF022000F083FF002007
:100B900001F0F4FA002001F0FFFAA01101F0F5FADB
:100BA0004FF4E011204601F0D2FA012001F0D7FA0B
:100BB000392001F097FA0028FAD0022001F0D2FA89
:100BC00001F0D7FA0828FBD10121084601F06DFB9E
:100BD0000121042001F060FB0121082001F05CFBF1
:100BE0000121102001F058FB0121084601F054FBBF
:100BF0000121880301F050FB0121880401F055FB1D
:100C00000121480501F051FB0121BDE81040880594
:100C100001F04BBB9AB00326504F4FF40069FFF729
:100C2000A2FFFFF79BFFFFF75BFF4D4801F0F4FDCC
:100C3000012001F0E5FD012001F0D0FD454C083414
:100C40002088A0F5405139390CD1FFF78CFE22885D
:100C500044A1684601F0E4FD6846FFF7D4FAFFF7C7
:100C60000BFC6DE0FFF77FFE228846A1684601F08D
:100C7000D7FD6846FFF7C7FA484A4949141F10686C
:100C80002368DFF820B18B425BD04D00A84258D1D9
:100C900000F01BFF4148001F00F04BFF0546424992
:100CA0003E4800F0B1FF3846FFF73DFB82463FA0CB
:100CB000FFF7A9FA0024D84605E009FB048000F0FC
:100CC00038FF0546641C544501D2042DF5D03CA0E4
:100CD000FFF799FA3E4D0024C2460CE004EB0A00EF
:100CE0008046296800F090FFD8F800002968884203
:100CF00003D12D1D241DBC42F0D3A74208D835A036
:100D0000FFF781FA25482649001F00F07DFF04E027
:100D100035A0FFF778FA761EBCD100F0DCFE8EB16C
:100D200039A0FFF770FADBF804003E4A10603E4A33
:100D30001060DBF8000001F0B5FC3B48006880471C
:100D4000FEE77FE072E00000140000200008014090
:100D5000000C01400038014000480040FFCF010076
:100D60004019010049462831323334352920555382
:100D7000415254312D3E425252203D2025640A0DED
:100D800000000000454C5345205553415254312D2D
:100D90003E425252203D2025640A0D0004280008DE
:100DA00011110100003000082222020020626C6F45
:100DB000636B20312065726173650D0A00000000CD
:100DC00020626C6F636B203120636F70790D0A00B5
:100DD0000000040820626C6F636B20312073656C27
:100DE0006563740D0A00000020626C6F636B203233
:100DF00020746F20626C6F636B203120636F707999
:100E0000206661696C0D0A0020656E64202E2E2E0E
:100E10002E2E2E2E2E2E2E2E2E2E2E2E2E2E0D0A37
:100E200000000000100000200C0000200CA0FFF7C4
:100E3000EAF940F6B83412A0FFF7E5F92046FFF7CB
:100E400087FDF8E700F047FE16A06AE719484168F9
:100E5000002902D04168491E416070477047000078
:100E600020656E64206661696C2E2E2E2E2E2E2E2D
:100E70002E2E2E2E2E2E2E2E2E2E0D0A000000008F
:100E8000206669726D776172652075706461746542
:100E9000206661696C202E2E2E2E2E2E2E2E2E0DCB
:100EA0000A00000020626C6F636B2031206578655A
:100EB000630D0A00140000207047FEE7FEE7FEE71E
:100EC000FEE770477047704710B5FFF7BFFF4E4908
:100ED000087840F001020A704888401C80B20A235A
:100EE000B0FBF3F403FB1403488013B942F0020291
:100EF0000A701422B0FBF2F302FB13021AB90A784B
:100F000042F004020A703222B0FBF2F302FB130239
:100F10001AB90A7842F008020A706422B0FBF2F3B0
:100F200002FB13021AB90A7842F010020A70FA2280
:100F3000B0FBF2F302FB13021AB90A7842F0200266
:100F40000A70B0F57A7F08D1087840F08000087008
:100F5000002048808888401C888010BD70477047FA
:100F600070477047704770477047704770477047C9
:100F700070477047704770477047704770477047B9
:100F800070477047704770477047704770477047A9
:100F90007047704770477047704770477047704799
:100FA000704770477047704770B5184D40F2255430
:100FB0002146284601F0EEFA18B12146284601F0F4
:100FC00008FB2846BDE8704040F2277101F0E2BA04
:100FD00070B50F4C40F225552946204601F0DAFA4B
:100FE00040B12946204601F0F4FA204601F07EFA8D
:100FF00000F077FB2046BDE8704040F2277101F019
:10100000C9BA704770477047200000200044004074
:101010000048004070B50346002041F221044FF61D
:10102000FF750FE013F8012B80EA0220002206046E
:1010300003D584EA400080B201E005EA4000521C7A
:10104000082AF4DB491EEDD270BD2DE9F74F0446A6
:101050008EB08946F2A0FFF7D6F84FF00008C9F825
:1010600000800DA8109900F088FA4FF0FF3B00288F
:101070007CD1F5A0FFF7C7F89DF83400FE4F182883
:1010800024D00CDC4FF001014FF480624FF00203DA
:10109000012809D002280AD0042867D113E041288A
:1010A00022D0612862D11FE0F980802601E0FB8018
:1010B000164620709DF8340001281BD0FA800125C7
:1010C00006F1050847E00420F88072E01820F88057
:1010D0000DA8109900F051FAA0BB9DF83400182813
:1010E00044D1C9F800B064E04120F880012011B07B
:1010F000BDE8F08FC246F980012506F1050814E02D
:101100007D816019109900F038FA10B1B888C8B123
:101110000DE0012D07D1607828B1B98819B9A07008
:1011200084F801A002256D1CADB24545E8D3B8880E
:101130002544401CB8802846109900F01EFA00286B
:10114000F9D00DE012E07D816019109900F015FAD8
:1011500060B96D1CADB24545F5D3B888401CB88068
:10116000A178607881F0FF01884201D05846BEE73F
:101170003146E01CFFF74EFF0546A0190179C07803
:1011800001EB002084B26846FFF73DF8A5420ED07F
:101190003889401C38814E20FFF728F8387A3030E3
:1011A000C0B2FFF723F8152000F0FAF9DEE7C9F81E
:1011B000006000209BE72DE9F04FADF2244D824600
:1011C00000244FF00109ADA0CDF81844FFF71BF83B
:1011D0005920FFF70BF85220FFF708F8A648002720
:1011E0003D4684803C46CDF820740026B34600F08E
:1011F00068FA00F0BAFA00F0EDFA4FF480020DF24E
:101200001C416846FFF721FF80462020FEF7EEFFD5
:101210005220FEF7EBFF08F16300C0B2FEF7E6FFD5
:101220002020FEF7E3FFB8F1000F22D0B8F1010F44
:1012300078D0002D08DD641C6520FEF7D7FF04F18F
:101240003000C0B2FEF7D2FF052C01DC0A2F6ADDA8
:101250007820FEF7CBFF182000F0A2F94FF4FA70C7
:10126000FFF776FB182000F09BF900200DF2244DCB
:101270003EE7DDF81C040024B0F1FF3F0CD068B15C
:101280009DF80120F0B2824216D04E20FEF7AEFF4C
:10129000152000F085F964E10620E4E7062000F05F
:1012A0007FF94FF4FA70FFF753FB432000F078F911
:1012B0002020FEF79BFF58E1CEB1DFF8BC81B8F8E3
:1012C0000600012813D077A10DF5816001F0A8FA7E
:1012D0000DF58160FEF797FF0DF103015046DDF833
:1012E0001C2401F0F4F90025C8F818A00DE19DF8C0
:1012F000030000B11AB1062000F052F93AE10020D3
:101300000DF103016A4D02E02A54491C401C0A7881
:101310000AB1FF28F8DD00232B541846491C0DF5AF
:10132000816504E004E110E12A54491C401C0A785C
:10133000202A01D01028F7DB2B5498460DF5836145
:101340002846FEF7FBFE5BA0FEF75DFF5848FEF760
:101350005AFF5BA0FEF757FF0DF58160FEF753FFC4
:1013600052A0FEF750FF58A10DF58160DDF818245A
:1013700001F056FA0DF58160FEF745FFDDF818041F
:10138000B0F5002F0AD353490020401C8842FCD3FB
:10139000182000F005F94FF0FF3067E7FEF7C3FFB4
:1013A000354D68614CA0FEF72EFF47A10DF5816019
:1013B0006A6901F035FA0DF58160FEF724FF4046B9
:1013C00008E06A88E96802FB001000F0B2FB2870B0
:1013D0002869401C28616969884202D22978042959
:1013E000EFD0062000F0DCF84FF4FA70FFF7B0FA07
:1013F000432000F0D5F84FF0000996E0D8F8181017
:10140000096800F001FCD8F80C00D8F81810026840
:101410000B689A4272D0182000F0C2F864E06DE0C8
:10142000323031362E342E3235205265636569767E
:10143000655F5061636B657420287538202A62757A
:1014400066290A0D00000000323031362E342E326B
:101450003520526563656976655F5061636B6574BD
:1014600020287538202A62756629202D20303031D9
:1014700030200A0D000000002800002032303136F4
:101480002E342E323520596D6F64656D5F52656361
:101490006569766520287538202A627566290A0DE7
:1014A000000000002020423D253033642C00000065
:1014B0007C0400200A0D204E616D653A000000009A
:1014C0002C2053697A653A0073697A653A25642E4F
:1014D00000000000809698000A0D204E62724F6650
:1014E00050616765000000004FF4FA70FFF730FAB2
:1014F000182000F055F86FF00100B7E6091D001D37
:10150000C8F818102D1DC8F80C00DDF81C04854221
:1015100008DA284ADDF81834D8F80C001A4490424A
:10152000FFF46CAF062000F03BF8761C012518E0B4
:10153000182000F035F84FF4FA70FFF709FA182078
:1015400000F02EF86FF0020090E6B9F1000F08D01D
:1015500007F13000C0B2FEF749FE432000F020F84A
:101560007F1CBBF1000F3FF442AEDDF820040028E1
:101570003FF43BAEDDF8180478E670B50C4605463E
:1015800007E02E20FEF732FE2846FEF7A6FE0128D1
:1015900004D0641EF5D24FF0FF3070BD002070BD46
:1015A00010B50446FEF7B2FE2046FEF71FFE0020EF
:1015B00010BD0000000004080168491CA1F580521C
:1015C00001600A3A01D1002101607047FF4900B56E
:1015D000FD48496A30F81130FC482430FFF7ECFF31
:1015E000184600BDF948D0E90810814201D1012018
:1015F000704700207047F64D04462146284600F00B
:1016000071FF8021284600F0BAFF0028F9D0641C41
:10161000E4B2802C00D10024FFF7E4FF0028ECD1D5
:10162000FFF7D4FFC4B2E8E70168491C01606429F0
:1016300001D1002101607047E44AE649126821F8AF
:101640001200E248F0E7E14900B5E248496810F8C5
:101650001120DE48001DFFF7E7FF104600BDDB4804
:10166000D0E90010814201D101207047002070476D
:10167000D64AD8499268C83121F81200D3480830B8
:10168000D2E7D24900B5D348C968C83030F8112034
:10169000CE480C30FFF7C8FF104600BDCB48D0E95C
:1016A0000210814201D10120704700207047C749D4
:1016B0000020486008607047C4490020C860886006
:1016C000704700B5FFF7F3FF5DF804EBF4E701683E
:1016D000491CA1F5805201600A3A01D10021016044
:1016E0007047BA4ABC49126921F81200B748103055
:1016F000EDE7B64900B5B848496930F81130B3484C
:101700001430FFF7E4FF184600BDB048D0E90410DC
:10171000814201D10120704700207047AB4AAF4998
:10172000926921F81200A9481830D0E7A74900B5FE
:10173000AA48C96930F81130A4481C30FFF7C7FF28
:10174000184600BDA148D0E90610814201D1012010
:101750007047002070479D4900204861086170472C
:101760009A490020C8618861704700B5FFF7F3FF10
:101770005DF804EBF4E7954A9349126A21F81200E8
:101780009248203018E7914A9549926A21F8120050
:101790008E48283010E78D4900B59148C96A30F865
:1017A00011308A482C30FFF707FF184600BD8748E4
:1017B000D0E90A10814201D1012070470020704712
:1017C0008249002048620860704780490020C86252
:1017D0008860704700B5FFF7F3FF5DF804EBF4E7AE
:1017E000704730B50023C3F10104A50022FA05F4C7
:1017F000CD1804F00F0430345B1CDBB24455022BCF
:10180000F1D330BD30B50023C3F10304A50022FAA3
:1018100005F4CD1804F00F0430345B1CDBB24455E2
:10182000042BF1D330BD30B50023C3F10704A5006C
:1018300022FA05F4CD1804F00F0430345B1CDBB23F
:101840004455082BF1D330BD30B504460020024684
:101850008B18C2F10105E35C303BAD00AB40521C7C
:101860001844D2B2C0B2022AF2D330BD30B5044619
:10187000002002468B18C2F10305E35C303BAD004B
:10188000AB40521C1844D2B280B2042AF2D330BD0D
:1018900030B50446002002468B18C2F10705E35C10
:1018A000303BAD00AB40521CD2B21844082AF3D3EF
:1018B00030BD10B50023012203E0845C6340521C5C
:1018C000D2B28A42F9D303F07F0010BD10B5454C67
:1018D0008021204600F053FE01280BD1FFF7DEFEE9
:1018E000002807D1FFF7CDFE01462046BDE8104095
:1018F00000F0F8BD10BD10B53B4C8021204600F033
:101900003EFE01280BD1FFF71DFF002807D1FFF78E
:101910000DFF01462046BDE8104000F0E3BD10BDBC
:1019200010B52B4C8021204600F029FE01280BD158
:10193000FFF73DFF002807D1FFF72DFF01462046A6
:10194000BDE8104000F0CEBD10BD70B5254D064677
:1019500000248021284600F012FE28B10120FEF765
:10196000F7FF641C022CF4DB31462846BDE87040CA
:1019700000F0B8BD70B51B4D0646002480212846F6
:1019800000F0FDFD28B10120FEF7E2FF641C022CEF
:10199000F4DB31462846BDE8704000F0A3BD70B5C9
:1019A000114D064600248021284600F0E8FD28B1AC
:1019B0000120FEF7CDFF641C022CF4DB31462846E3
:1019C000BDE8704012E000003447002044000020D1
:1019D000004800407C0500200C0700202027002044
:1019E00048670020003801400044004000F07ABD04
:1019F00070B50A4D064600248021284600F0BFFD40
:101A000028B10120FEF7A4FF641C022CF4DB314650
:101A10002846BDE8704000F065BD00000048004069
:101A200010B50121CC02204600F051FC2046BDE853
:101A30001040002100F04BBC144A116821F4C07121
:101A4000014311607047114A116800F07F0021F0D6
:101A50007F010843106070470D49012008607047FE
:101A60000A4900F07F00091F08607047074940F0ED
:101A70008000091F0860704705485C300068C0B2EC
:101A8000704702490020091D08607047042C00407F
:101A9000A4800542F4490A6802F038020A600A6824
:101AA00002430A607047F0490A6822F008020A609F
:101AB0000A6802430A607047EB490A6822F0100284
:101AC0000A600A6802430A607047E748E7494160D4
:101AD000E74941607047E448016941F080010161D4
:101AE0007047E1490420CA68D20701D0012070473D
:101AF000CA68520701D502207047C968C906FBD5DC
:101B00000320704718B50346FFF7EBFFFF2407E0FB
:101B100000940098401E0090FBD1FFF7E2FF5B1E8F
:101B2000012803D0002B00D1052018BD002BEFD1D8
:101B3000FAE770B5054640F6FF763046FFF7E2FF5C
:101B4000042813D1C84C206940F00200206165616F
:101B5000206940F0400020613046FFF7D3FF0128A4
:101B600004D0216941F6FD721140216170BD30B58C
:101B700040F6FF752846FFF7C5FF042812D1BA4C7E
:101B8000206940F004002061206940F0400020619D
:101B90002846FFF7B7FF012804D0216941F6FB7200
:101BA0001140216130BD30B540F6FF752846FFF782
:101BB000A9FF042827D1AC4CAC48A060AC48A06079
:101BC000206940F020002061206940F04000206141
:101BD0002846FFF797FF41F6EF7504280ED12069DC
:101BE00041F6DF7108402061206940F0100020615B
:101BF000A049A52008800F20FFF784FF012802D00C
:101C000021692940216130BDF0B506460D460F20FF
:101C1000FFF778FF042816D1934C206940F00100AB
:101C2000206135800F20FFF76DFF41F6FE77042815
:101C300004D1280C70800F20FFF764FF012802D028
:101C4000216939402161F0BD70B506460D460F206F
:101C5000FFF758FF04280FD1834C206940F00100A2
:101C6000206135800F20FFF74DFF012804D0216946
:101C700041F6FE721140216170BD70B506460D46F9
:101C80000F20FFF73FFF042813D1774C7748A0605F
:101C90007748A060206940F01000206135800F2057
:101CA000FFF730FF012804D0216941F6EF7211409F
:101CB000216170BDF0B5C043C7B2C0F30726C0F3C1
:101CC0000745040E0F20FFF71DFF04283CD1DFF865
:101CD00098C16649CCF808106549CCF80810DCF8C2
:101CE000101041F01001CCF81010FF2F07D0614800
:101CF000083007800F20FFF705FF04281BD1FF2EB7
:101D000007D05C480A3006800F20FFF7FBFE04284E
:101D100011D1FF2D07D057480C3005800F20FFF759
:101D2000F1FE042807D1FF2C07D052480E30048062
:101D30000F20FFF7E7FE012806D0DCF8101041F66F
:101D4000EF721140CCF81010F0BD70B5054640F6AA
:101D5000FF763046FFF7D6FE042818D1424C4348A0
:101D6000A0604348A060206940F020002061206905
:101D700040F0400020613046FFF7C4FE41F6DF71BD
:101D8000042805D0012802D022690A40226170BDD2
:101D9000206908402061206940F01000206135482A
:101DA0000DB1002100E0A52101803046FFF7AAFE19
:101DB0000128ECD0216941F6EF721140216170BD1C
:101DC000F0B5294C0546294816460F46A06028481C
:101DD000A0600F20FFF796FE042814D1206940F080
:101DE000100020613D4323493543891C45F0F8002C
:101DF00008800F20FFF786FE012804D0216941F6F4
:101E0000EF7211402161F0BD1748C069800870472A
:101E10001548006A704714490020C969890700D530
:101E200001207047104900200968890600D501206B
:101E300070470D4A0029116901D0014300E0814338
:101E40001161704701460020074A012903D0D2687A
:101E50000A4203D17047D169C907FBD001207047FE
:101E60000149C86070470000002002402301674517
:101E7000AB89EFCD00F8FF1F7B4A10B5811A13150F
:101E8000904222D00BDC7949401817D098422AD1D1
:101E90000121082000F012FA002108200AE09942EE
:101EA0001AD0B1F5006F1ED10121402000F006FAD2
:101EB00000214020BDE8104000F000BA01210420BC
:101EC00000F0FCF900210420F4E70121102000F0CB
:101ED000F5F900211020EDE70121202000F0EEF9B6
:101EE00000212020E6E710BD10B50121084600F0D2
:101EF000E5F90021BDE81040012000F0DFB9F0B5A0
:101F0000CC78002204F00F03E40601D58C7823433B
:101F10000C784FF00F0C4FF0010ED4B105680E880D
:101F20000EFA02F42640A6420FD196000CFA06F7EC
:101F300025EA070703FA06F5CE783D43282E00D19F
:101F40004461CE78482E00D10461521C082AE6D3A1
:101F500005600A88FF2A1CD94468002202F108069D
:101F60000EFA06F50E882E40AE420ED196000CFAFF
:101F700006F7BC4303FA06F7CE783C43282E00D17F
:101F80004561CE78482E00D10561521C082AE5D360
:101F90004460F0BD4FF6FF71018002218170042181
:101FA000C17070470246002092680A4200D00120AA
:101FB0007047806880B2704702460020D2680A42AB
:101FC00000D001207047C06880B27047016170473F
:101FD000416170470AB10161704741617047C1605A
:101FE000704741F4803282618161826181698069D8
:101FF00070471F4B10B51A684FF68074224042EAB2
:1020000000100843186010BD1A49C861704770B5C8
:10201000174E7268C0F3034583B2840202D522F0E2
:10202000E06207E0C40204D5032404FA05F4A243E5
:1020300000E09A4329B1800202D542EA034200E05F
:102040001A43726070BD10B58A0721F00304084975
:10205000120F21440F238C6893409C438C608B6843
:10206000904003438B6010BD0010014000F8FEBF9C
:102070000000014000002042A7480021C16001612A
:10208000142242618161C161026842F00102026072
:102090004268A24B1A4042600268A14B1A4002609B
:1020A000026822F480220260426822F4FE0242604A
:1020B0008160704798490A6822F480320A600A6891
:1020C00022F480220A60B0F5803F07D0B0F5802F5F
:1020D00003D1086840F4A02008607047086840F405
:1020E0008030F9E70346002059098B4A01290AD0BC
:1020F00002290AD0516A03F01F02012393400B42C8
:1021000000D0012070471168F5E7116AF3E710B5B8
:10211000844C3120FFF7E6FF20706068401C60604F
:10212000207810B96068FF28F3D13120FFF7DAFF7B
:10213000002800D0012010BD774A116821F0F80175
:1021400041EAC00010607047774908607047724BE1
:102150005A68084322F47C12104358607047724951
:10216000086670476C4A516821F0030101435160D1
:1021700070476948406800F00C007047664A516833
:1021800021F0F001014351607047634A516821F426
:10219000E0610143516070475F4A516821F460512A
:1021A00041EAC000506070475B4A0029517A01D073
:1021B000014300E08143517270475B49D8310860A8
:1021C0007047554A516821F44041014351607047BE
:1021D0005149002281F8202081F82020012802D0D6
:1021E000042802D1052081F8200070474F4908607B
:1021F000704749490A6A02430A6270474B494439A9
:102200000860704730B5444A5168494B11F00C01E1
:1022100003D0042901D0082901D0036011E05168DE
:10222000022301F4701103EB9141536813F4803FD2
:1022300002D053689B0301D53E4B00E03C4B594311
:10224000016051680F2303EA11113B4B5C5C01688C
:10225000E14041605468072505EA14241C5D21FA19
:1022600004F48460546805EAD4241B5DD940C1603D
:102270005268032303EA92322F4B1B1F9A5CB1FB77
:10228000F2F1016130BD244A0029516901D00143B6
:1022900000E08143516170471F4A0029916901D0D4
:1022A000014300E08143916170471B4A0029D169D5
:1022B00001D0014300E08143D1617047164A0029F3
:1022C000D16801D0014300E08143D1607047124AD8
:1022D0000029116901D0014300E081431161704779
:1022E00012494039086070470F49C86470470A496D
:1022F000C87170470848416A41F080714162704777
:10230000054A0146002092680A4200D00120704729
:102310000149887270470000001002400000FFF879
:10232000FFFFF6FE7400002000004242800442429B
:1023300000127A0000093D00642C0008C24910B563
:10234000401810D0B0F5806F10D0B0F5744F18D190
:1023500001218C032046FFF7B1FF2046BDE8104065
:102360000021FFF7ABBF01214C0401E001218C04E7
:102370002046FFF7ACFF2046BDE810400021FFF7E4
:10238000A6BF10BD30B50C46018A85B005464CF29B
:10239000FF000140E088E289638A1043228A1A43E1
:1023A0001043A28A104308432882A9894EF6F310ED
:1023B0000140A08822891043A2890A431043A881C2
:1023C000A88A4FF6FF41084061890143A982684607
:1023D000FFF718FF9D48854201D1039800E002985D
:1023E000642200EBC00101EB001021686FF01804BB
:1023F0008900B0FBF1F0B0FBF2F109010B09634376
:1024000000EB8300322303EB0010B0FBF2F000F08E
:102410000F000843288105B030BD4FF4165101600C
:1024200000218180C180018141810C228281C18192
:1024300001824182818270470029818902D041F462
:10244000005101E021F400518181704710B5C1F3C2
:10245000421301F01F040121A140012B07D0022BE0
:1024600007D01430002A026805D00A4304E00C307B
:10247000F8E71030F6E78A43026010BD002A828A2E
:1024800001D00A4300E08A4382827047028A22F028
:102490000F020282028A0A4302827047828922F472
:1024A0000062828182890A43828170470029818982
:1024B00002D041F0020101E021F002018181704768
:1024C000028A22F020020282028A0A4302827047B4
:1024D0000029018A02D041F4804101E021F48041C9
:1024E00001827047C1F30801818070478088C0F382
:1024F00008007047818941F0010181817047028B9A
:10250000D2B20283028B42EA012101837047028B1F
:1025100002F47F420283028B0A4302837047002940
:10252000818A02D041F0200101E021F02001818266
:1025300070470029818A02D041F0100101E021F0AA
:102540001001818270470029818A02D041F0080180
:1025500001E021F0080181827047828A22F00402A2
:102560008282828A0A43828270470029818A02D04D
:1025700041F0020101E021F0020181827047024630
:10258000002012880A4200D00120704702888A4346
:102590000280704770B501F01F0501260024C1F3C9
:1025A000421306FA05F2012B0FD0022B0FD0838ABB
:1025B0004FEA11210088134206FA01F600EA0600EC
:1025C00001D000B10124204670BD8389F0E7038A61
:1025D000EEE7090A01228A40018891430180704791
:1025E0002DE9F0471A4C4FF4E13700252760A5800C
:1025F000E5802581DFF8548065810C26A68121467F
:102600004046FFF7BFFE40F22559012249464046A9
:10261000FFF71CFF01214046FFF70EFF2760A58052
:10262000E58025816581A68121460A4C2046FFF779
:10263000A9FE012249462046FFF708FF2046BDE8D3
:10264000F0470121F8E6000000BCFFBF0038014060
:102650005C8700200048004000480047ED0000086B
:1026600030BF704720BF704740BF7047BFF36F8FC8
:102670007047BFF34F8F7047BFF35F8F704701DF25
:102680007047EFF31480704780F31488BFF36F8FA7
:102690007047EFF30980704780F309887047EFF3C4
:1026A0000880704780F30888704772B6704762B63A
:1026B000704771B6704761B6704780F311887047F4
:1026C000EFF31280704740BA704700BA704740EA93
:1026D00001039B0703D009E008C9121F08C0042AA0
:1026E000FAD203E011F8013B00F8013B521EF9D287
:1026F000704730B50B46014600202022012409E036
:1027000021FA02F59D4205D303FA02F5491B04FAAA
:1027100002F52844151EA2F10102F1DC30BD0000D3
:10272000064C074D06E0E06840F0010394E807001E
:1027300098471034AC42F6D3FDF7DCFC742C00084B
:10274000942C000802490148086070470400FA050B
:102750000CED00E0F0B50F23C27801784FF0E024D3
:10276000012742B3D4F80C2D467802F4E062C2F59A
:10277000E062120AC2F10405D3408278AE401A40EA
:10278000324315018A07D20E954021F003010B193F
:10279000D3F80064FF2191408E430D402E43C3F8CF
:1027A00000640078410900F01F0004EB81018740BC
:1027B000C1F80071F0BD01F01F008740480904EB2B
:1027C0008000C0F88071F0BD024A11400143024808
:1027D0000160704780FFFF1F08ED00E04FF0E0212F
:1027E000012803D1086940F0010004E0801C04D1F5
:1027F000086920F001000861704700208861704777
:102800004FF0E0210028086902D040F0020001E00A
:1028100020F00200086170474FF0E02148617047E6
:102820000FB4084B10B504A902AA039800F01CF8D5
:10283000044602A9002000F0BCF9204610BC5DF857
:1028400014FB0000B32B000802E008C8121F08C1E7
:10285000002AFAD170477047002001E001C1121F21
:10286000002AFBD1704700002DE9FF4F8BB088464E
:102870000546002667E125287AD100246D1CB6495B
:10288000A146A24601222B78203B02FA03F008421F
:1028900002D004436D1CF6E728782A2810D06FF088
:1028A0002F022878A0F13001092915D809EB8901F8
:1028B00002EB410144F0020400EB01096D1CF0E75A
:1028C00058F8049BB9F1000F03DA44F40054C9F13D
:1028D000000944F002046D1C28782E2817D115F841
:1028E000010F44F004042A280ED06FF02F0228783C
:1028F000A0F1300109290AD80AEB8A0102EB410153
:1029000000EB010A6D1CF2E758F804AB6D1C287847
:102910006C280FD006DC4C2817D068280DD06A2808
:1029200014D104E0742810D07A280FD10DE044F4BB
:1029300000140AE044F4801401E044F4401469787F
:10294000814202D16D1C04F580146D1C2878692821
:1029500066D007DC002876D0632828D0642807D109
:102960005EE005E06E2808D073282AD075287AD05A
:10297000DDE90D129047761CE4E0C4F30250022812
:1029800009D003280DD0D8F8001004280DD00E600F
:1029900008F10408D6E0D8F80010F217C1E9006287
:1029A000F6E7D8F800100E80F2E70E70F0E718F89E
:1029B000041B8DF8001000208DF80100EB4601206B
:1029C00003E058F804BB4FF0FF3061074FF00007F9
:1029D00001D40AE07F1C57450DDA8742FADB1BF869
:1029E00007100029F6D106E07F1C8742FCDB1BF8AC
:1029F00007100029F8D1DDE90D23A9EB0700814676
:102A0000214600F0BEF83044C61904E0DDE90D129D
:102A10001BF8010B90477F1EF8D2214648468CE0F8
:102A200058F8040BC4F302514FF00A0B032900D1EC
:102A300000B2042900D140B2002806DAC0F100003B
:102A40004FF02D0104E082E00DE0210504D52B219B
:102A50008DF82410012103E0E10710D02021F7E7D1
:102A600008AF089114E058F8040BC4F302514FF07A
:102A70000A0B032900D180B2042900D1C0B2002181
:102A8000EEE75946FFF735FE01F1300107F8011D69
:102A90000028F6D1ADEB070000F1200B600702D54E
:102AA00024F4803401E04FF0010ADA4502DDAAEB9C
:102AB0000B0000E00020824600EB0B010898014467
:102AC000A9EB01000A90E00306D4DDE90D232146BD
:102AD0000A9800F056F80644002008E009A911F809
:102AE0000900DDE90D129047761C09F101000899F3
:102AF00081468842F2DBE0030CD5DDE90D23214657
:102B00000A9800F03EF8064404E0DDE90D1230209A
:102B10009047761CBAF10001AAF1010AF5DC05E044
:102B2000DDE90D1217F8010B9047761CBBF100018F
:102B3000ABF1010BF4DC0A982146DDE90D2300F02E
:102B40000DF806446D1C287800287FF494AE0FB071
:102B50003046BDE8F08F0000092801002DE9F04162
:102B6000044600251E461746880405D406E039466B
:102B70002020B04705F10105641EF8D52846BDE8C0
:102B8000F0812DE9F041044600251E469046C80319
:102B900001D5302700E02027880405D506E041460E
:102BA0003846B04705F10105641EF8D52846BDE852
:102BB000F0810A68531C0B60107070472E2E2E6136
:102BC0006E6420612053797374656D20526573655E
:102BD000742077696C6C2062652067656E65726130
:102BE00074656420746F2072652D6C6F616420744D
:102BF0006865206E6577206F7074696F6E206279EA
:102C00007465730D0A0000000A0A0D2050726F6788
:102C100072616D6D696E6720436F6D706C65746570
:102C200064205375636365737366756C6C79210AF0
:102C30000D2D2D2D2D2D2D2D2D2D2D2D2D2D2D2DE4
:102C40002D2D2D2D2D2D2D2D2D2D2D2D2D2D2D2DB4
:102C50002D2D2D2D2D2D0D0A204E616D653A200054
:102C6000020406080000000001020304010203043C
:102C700006070809942C0008000000207C000000D2
:102C800048280008102D00087C000020FC8E000061
:102C900058280008000000000000000000000000AC
:102CA0000000000000000000000000000000000024
:102CB0000000000000000000000000000400000808
:102CC00000000000000000000000040800000000F8
:102CD00000000000000000000000000000000000F4
:102CE00000000000000000000000000000000000E4
:102CF00000000000000000000000000000000000D4
:102D000000000000000000000000000000000000C3
:04000005080000ED02
:00000001FF
:020000040800F2
:10300000787800204DBF000835BF000837BF0008A2
:1030100039BF00083BBF00083DBF000800000000AA
:103020000000000000000000000000003FBF00089A
:1030300041BF00080000000043BF000845BF000872
:1030400063BF000863BF000863BF00084D84000829
:1030500063BF000863BF000863BF000863BF0008C8
:1030600063BF000863BF000863BF000863BF0008B8
:1030700063BF000863BF000863BF000863BF0008A8
:1030800063BF000863BF000863BF000863BF000898
:1030900047BF000863BF000863BF000863BF0008A4
:1030A00063BF000863BF000863BF000863BF000878
:1030B00013B1000863BF000863BF000863BF0008C6
:1030C00063BF000863BF000863BF000863BF000858
:1030D00063BF00088FB20008E7B2000875B30008AC
:1030E00063BF000863BF000849BF000863BF000852
:1030F00063BF000863BF000863BF000863BF000828
:1031000063BF000863BF000863BF000863BF000817
:1031100039B4000863BF000863BF000863BF00083C
:1031200063BF000863BF000863BF000863BF0008F7
:10313000DFF80CD009F00AFB004800479F70000838
:10314000787800202DE9F04FFF4B0024DFF8FCA336
:103150001A78DFF8FCB399B04FF0FF39A046012A86
:1031600012D1FC4981F80080FB498AF8008081F87F
:103170000080FA4981F80080F9498BF8008081F8D5
:103180000080F84981F800803032F7A10CA809F0DE
:10319000D7FF0CA808F0AAFB0026F54F0125012057
:1031A00001F075FA3878E0B3012001F070FA387850
:1031B000C0B3F04987F80080EF48C1F80080502183
:1031C00001800027ED4E02206FF02F02315CA1F14B
:1031D0003003092B02D9113B052B07D807EB8703D6
:1031E00002EB4303CF18401C0728EFDD082841DB22
:1031F0000222E3A1E14808F0FBFE10B30222E1A1A4
:10320000DE4808F0F5FE10B30222DFA1DB4808F02B
:10321000EFFE10B30222DDA1D84808F0E9FE10B39A
:1032200028E000E002E0761C642EB8DBD249B1F958
:10323000000008B1401E0880C3480278042A22D04A
:1032400058E0D348D34907608AF8005010E0D248CC
:10325000D2490760C04805700AE0D148D1490760EB
:10326000BE48057004E0D048D04907608BF8005094
:1032700081F800800020CE4AFF2131541154401CB7
:103280000F28FADBD8E7C248C54BCA4F0168C248CD
:103290001E68C54B00683F680C181B68344404EB7B
:1032A0000309012437B3CDE90810AE48CDE90A631C
:1032B0000378AB489BF800600178A8480078CDE916
:1032C0000406CDE90613A4489AF800300178A14815
:1032D000CDE90231CDE900940378B7A10CA809F03B
:1032E0002FFF14230CAA4FF4C8710A20CDF80080D8
:1032F00002F04FFA94490878401CC0B208700428C4
:1033000000D90D702CB193480570484619B0BDE83E
:10331000F08FB8480068F9E72DE9F04F8A4B002498
:10332000651E1A788A4F9BB0A046012A13D189499D
:1033300081F80080854981F80080874981F8008004
:10334000864981F80080864987F8008081F80080EE
:10335000844981F80080303283A10EA809F0F0FE84
:103360000EA808F0C3FADFF84092DFF82CB2DFF8BD
:1033700030A20026012001F08AF97D48007800285B
:103380004FD0012001F083F97949087800284BD00B
:1033900081F80080774978480026C1F800805021E4
:1033A000018002206FF02F027449095CA1F1300CFA
:1033B000BCF1090F04D9A1F1410CBCF1050F07D8EC
:1033C00006EB860602EB4606401C0E440728EBDDA2
:1033D000082825DB02226AA1684808F009FE0028B7
:1033E0004ED0022267A1654808F002FE00284ED0A8
:1033F000022265A1614808F0FBFDE8B3022263A147
:103400005E4808F0F5FDC0B302227BA15B4808F0DE
:10341000EFFD98B3022279A1584808F0E9FD70B396
:1034200059E0761C642EA5DB5349B1F9000008B1C0
:10343000401E08804448027871480068824279D171
:1034400070490628086850D078B34048424900784F
:10345000097800286FD00029404909786CD00029EC
:1034600039786AD0002969D03D490978002902D00D
:103470003C490978C9B9A5E110E017E01CE022E059
:1034800043483249066001200870424921E0324930
:103490000120CBF80060087040491AE02F49012054
:1034A000CAF8006008703F4913E036E00120C9F80F
:1034B000006038703D490CE05348294906600120FE
:1034C0000870524905E052482649066001200870FC
:1034D000504981F800800020284A354BFF211154C3
:1034E0001954401C0F28FADBA4E7B0B11748007844
:1034F00000281948007822D00028184800781FD0EA
:10350000002838781DD00028154800781AD00028E7
:103510001448007817D000287ED01D480168DBF8D9
:1035200000000144DAF800000144D9F80000014429
:10353000354872E0EDE111E120E12CE136E172E085
:1035400094E0B6E0CFE0E5E07102002072020020D6
:1035500075020020A00200207302002074020020E7
:103560007602002077020020402D256352000000E3
:10357000460200206C020020340300203059002055
:103580002D3100002D3200002D3300002D340000BD
:10359000A402002078020020A80200207902002066
:1035A000AC0200207A020020B00200207B02002042
:1035B0006858002020030020202825753A25752909
:1035C00020256C642C2025642E2E25642C25642C4B
:1035D00025642C25642C25642C25642C20256C6402
:1035E0002C20256C642C20256C642C20256C6420F8
:1035F00020000000480300202D3500002D3600007B
:10360000B400002000030020B40200207C0200204F
:10361000B80200207D0200208FE000680144CA4803
:1036200000680D181BE1002873D0C84800780028F6
:10363000FAD038780028F7D0C54800780028F3D0B1
:10364000C44800780028EFD0DBF800004100DAF829
:1036500000000144D9F800000144BF48006801445B
:10366000B948006888E081F80080F8E00028DBD0E5
:1036700038780028D8D0B64800780028D4D0B5488B
:1036800000780028D0D0B54800684100DAF8000082
:103690000144D9F800000144AF4800680144AA4839
:1036A000006876E00878401CC0B208700228DAD2C0
:1036B000D5E000282DD0A6480078002829D0A548BC
:1036C0000078002825D0A5480168DBF800000144F7
:1036D000D9F80000014401449F48006801449A4819
:1036E00000680D18B9E0002813D09A480078002827
:1036F0000FD09A480168DBF800000144DAF80000B6
:10370000014401449448006801448F4800680D1842
:1037100055E072E0002870D090480168DBF80000A6
:103720000144DAF800000144D9F800000144864859
:10373000006801440D188A49B4E788480168DBF83D
:1037400000000144DAF800000144D9F80000014407
:103750008148006801440D188249A3E789B37B4979
:10376000097871B3397861B3DAF80010DBF800003A
:1037700001EB4001D9F800000D184BE009B339788E
:10378000F9B17648DAF80010006801EB4001D9F889
:1037900000000D1851E0A1B170480168DBF800008D
:1037A0000144D9F8000001EB400556E06B48016880
:1037B000DBF800000144DAF8000001EB40056A493B
:1037C00070E7FFE76949097850EA010607D15F4BC6
:1037D0001B7823B13B7813B1DAF8001011E020B167
:1037E0005A4B1B78C1B153B32BE051B3574B1B78E5
:1037F000002B3B7802D03BB123E053E00BB3DBF866
:103800000010D9F8000003E0DBF80010DAF800003F
:1038100008444500564945E7002B3B7801D033B1B9
:103820000FE073B14D480168D9F8000003E04B4840
:103830000168DAF80000084445004E4932E73B7859
:103840002BB1424B1B7856EA030C0AD011E04348D7
:103850000168DBF8000008444500474922E70124DD
:1038600020E097F800C0BCF1000F02D0D9F80000AA
:1038700065E030B929B123B997F800C0BCF1000F59
:1038800001D01EB105E0DBF8000058E00BB13E7836
:1038900016B138B119B105E0DAF800004FE00BB904
:1038A0003878E8B33548006898B32748D9F80060FD
:1038B000036829480168DAF80000CDE90A06CDE975
:1038C0000C132648DBF800100368224806782048CD
:1038D0000078CDE90606CDE908311C483B7801782F
:1038E000224806782648007803960095CDE90140E5
:1038F000CDE904132348244903780EA809F020FCDD
:1039000014230EAA4FF4C8710A20CDF8008001F0EC
:1039100040FF1E491E4A0878401CC0B2087000E0F3
:103920000BE01268904201DD012008704CB115498E
:103930000120087028461BB0E9E4084800688500AB
:103940008DE714480068F6E7B802002074020020F2
:103950007602002077020020B4020020A40200209A
:103960007C0200207D0200207B02002073020020E8
:1039700078020020790200207A0200202003002033
:1039800072020020A0020020DCDE0008710200208C
:10399000B4000020480300200121364809F092B805
:1039A00008B50120ADF8000003208DF802001020BA
:1039B0008DF8030069462F4809F006F8FFF7ECFF81
:1039C00008BD01212B4809F07FB810B50446FFF768
:1039D000F8FF204600F05FFEBDE81040DCE710B5C0
:1039E00000241420FFF7F1FF052000F054FE641CB2
:1039F000072CF6DB10BD20211F4809F065B8FAE757
:103A000020211D4809F05EB810B520211A4809F0A0
:103A100059F8BDE81040F3E74FF40071164809F07B
:103A200053B8F9E74FF40071134809F04BB8F9E7C0
:103A3000704770470421114809F044B8FAE704219F
:103A40000E4809F041B8FAE708210C4809F03AB8E5
:103A5000FAE70821094809F037B8FAE7E2E7DBE7B7
:103A60004FF48071044809F02FB84FF48071024878
:103A700009F028B800100140000C0140001401407A
:103A80002DE9F05FDFF8FCA30125DFF8FC83FF4E92
:103A9000DFF8FCB30027FF4C4021204607F059FE19
:103AA0002D21204607F055FE31792046303107F0B0
:103AB00050FE5221204607F04CFE0D21204607F013
:103AC00048FE0A21204607F044FE3079401CC0B26F
:103AD0003071042800D93571C82000F0D8FD9AF85B
:103AE000001000297BD0EC488AF800705C46076023
:103AF0009BF80100312806D0322828D033284AD03C
:103B0000342847D16CE0A078E44930384843E17864
:103B100040F27122514300EB0111207900EB400289
:103B2000C2EBC01001EBC001607900EBC00202EBF8
:103B3000001001EB8001A07900EB800001EB400058
:103B4000E179014401EB0800B06335706DE0A078C5
:103B5000D24930384843E17840F27122514300EBBA
:103B60000111207900EB4002C2EBC01001EBC00153
:103B7000607900EBC00202EB001001EB8001A0793C
:103B800000EB800001EB4000E179014401EB08000B
:103B9000F063757047E0A078C04930384843E17859
:103BA00040F27122514300EB0111207900EB4002F9
:103BB000C2EBC01001EBC001607900EBC00202EB68
:103BC000001001EB8001A07900EB800001EB4000C8
:103BD000E179014401EB08003064B57023E05FE057
:103BE000A078AE4930384843E17840F27122514321
:103BF00000EB0111207900EB4002C2EBC01001EB99
:103C0000C001607900EBC00202EB001001EB800103
:103C1000A07900EB800001EB4000E179014401EB69
:103C200008007064F570307880B3707870B3B07845
:103C300060B3F07850B3D6E90E010844316C084403
:103C4000716C084408F047FB316B08F0EDF908F09F
:103C500061FBF16A401A8146024691A1944809F03D
:103C60006FFAF168B9FBF1F0B1684843814602464A
:103C700090A18F4809F064FA4A4640F24511462067
:103C800002F063F837707770B770F7708D4AFF21D4
:103C90007763706B21541154401C70630F28F8DB5C
:103CA00001F08DFA00283FF4F6AE8748008814280A
:103CB0007FF4F1AEBDE8F09F2DE9FE4F0127DFF85C
:103CC000C891724DDFF8C8B180464FF4967A00264D
:103CD000704C4021204607F03CFD2D21204607F086
:103CE00038FD29792046303107F033FD5221204636
:103CF00007F02FFD0D21204607F02BFD0A2120465D
:103D000007F027FD2879401CC0B22871042800D98B
:103D10002F71C82000F0BFFC5A48017800297AD0E2
:103D200006705D485C4606609BF80100312806D0AD
:103D3000322828D033284AD0342823D16CE0A07808
:103D4000564930384843E17840F27122514300EB44
:103D50000111207900EB4002C2EBC01001EBC00161
:103D6000607900EBC00202EB001001EB8001A0794A
:103D700000EB800001EB4000E179014401EB090018
:103D8000A8632F706BE0A078444930384843E1784D
:103D900040F27122514300EB0111207900EB400207
:103DA000C2EBC01001EBC001607900EBC00202EB76
:103DB000001001EB8001A07900EB800001EB4000D6
:103DC000E179014401EB0900E8636F7047E0A078F6
:103DD000324930384843E17840F27122514300EBD8
:103DE0000111207900EB4002C2EBC01001EBC001D1
:103DF000607900EBC00202EB001001EB8001A079BA
:103E000000EB800001EB4000E179014401EB090087
:103E10002864AF7023E092E0A0782049303848430E
:103E2000E17840F27122514300EB0111207900EB5F
:103E30004002C2EBC01001EBC001607900EBC00290
:103E400002EB001001EB8001A07900EB800001EB98
:103E50004000E179014401EB09006864EF70D5E9A5
:103E60000E23296CD01800EB010C686CB8F1000F20
:103E70008444C5F848C042D0CDE9003113460290D1
:103E8000624623E046020020B0DCF7FF000000207D
:103E900030590020004400406C020020A086010040
:103EA00041445F434F554E543D25366C752000000C
:103EB0007C0300205765696768743D25366C752062
:103EC000206B67006858002008010020F2A1FE481E
:103ED00009F036F9D5E91001CDE90001D5E90E2345
:103EE000FAA1F94809F02CF91023F74A5046514637
:103EF000009602F046F84FF48771AA6C0EE0CDE907
:103F00000010F2A1F04809F01BF91023EE4AC82175
:103F10005046009602F035F8AA6CA021462001F028
:103F200014FF2E706E70AE70EE70EE4AFF216E635D
:103F3000686B21541154401C68630F28F8DB01F0B2
:103F40003EF900283FF4C4AEE748008814287FF407
:103F5000BFAEA86CBDE8FE8F2DE9F041E34C002513
:103F60002E46E3A1D848A26A09F0EAF8D7214620F4
:103F7000A26A01F0EAFEA46AE44FDFF86C8301F064
:103F80001EF9F8B1B8F80000385C0C2810D2DFE850
:103F900000F0060606060606060606060C0E04EBEC
:103FA0008401012600EB410402E0002400E0012529
:103FB0002246D7A1C44809F0C3F82246D72146209B
:103FC00001F0C3FE002DDAD0002E00D02046BDE85F
:103FD000F081F0B585B01422D449684607F0C8FFD7
:103FE000C24801240026406A052812D00A2812D0AF
:103FF0000F2812D0142812D0192812D01E2812D03F
:10400000232812D0282812D02D2812D0322812D0DE
:1040100012E0002410E001240EE002240CE003244E
:104020000AE0042408E0052406E0062404E007244E
:1040300002E0082400E009246F463DF814206921BD
:10404000462001F082FEA84D01F0B9F880B1288821
:1040500042280AD1641CE4B2092C00D90024692149
:1040600037F81420462001F070FE2888142801D06B
:10407000002EE9D037F8140005B0F0BDFEB5AB480E
:1040800004240C380026D0E9001280680091CDE9A4
:1040900001209648806801280AD002280AD0052805
:1040A0000AD00A280AD014280AD032280AD00AE0F6
:1040B000002408E0012406E0022404E0032402E0D6
:1040C000042400E005246F463DF8142032214620E8
:1040D00001F03BFE844D01F072F880B1288842283F
:1040E0000AD1641CE4B2052C00D90024322137F82F
:1040F0001420462001F029FE2888142801D0002E23
:10410000E9D037F81400FEBDF8B5784C0A20E0601D
:104110004FF6FF7001F027FA0025102384A2142126
:104120002846009501F02DFF4FF47A7000F0B3FAA5
:10413000012232210A2001F091F83A22322128206E
:1041400001F08CF84FF4967610237EA25021304671
:10415000009501F016FFFFF791FFA0600222692190
:104160000A2001F07BF83A226921282001F076F834
:1041700010237AA28C213046009501F002FFFFF750
:1041800028FF6062A168B0FBF1F27AA14E48E261BB
:1041900008F0D6FFE269E0687EA142434A48226205
:1041A00008F0CEFF0322A0210A2001F057F83A229E
:1041B000A021282001F052F80020FFF77DFD2061AA
:1041C000606AA0620422D7210A2001F047F83A224F
:1041D000D721282001F042F8102376A2FA21304698
:1041E000009501F0CEFEFFF7B7FE4FF48777A0628F
:1041F000052239460A2001F031F83A2239462820B2
:1042000001F02CF80120FFF757FD60612169421A87
:1042100071A12D48A26108F093FFA06A08F064F82C
:104220000746606A08F060F8394607F033FF074632
:10423000A06908F059F8394607F0F6FE0746206AEB
:1042400008F052F8394607F025FF07462063206939
:1042500008F04AF8394607F0E7FE08F05BF840F24C
:104260004517E062062239460A2000F0F7FF3A229D
:104270003946282000F0F2FF102362A24FF4B471F7
:104280003046009501F07DFEFFF7FAFB0422104650
:10429000216900F09BFDBFE05350414E2053554D26
:1042A0003D25366C752C20313D25366C752C203221
:1042B0003D25366C752C20333D25366C752C20340D
:1042C0003D25366C750000007C0300202825366CE7
:1042D000752C25366C752C25366C752C25366C7531
:1042E000290000006858002008010020000000207C
:1042F00034202D2053657474696E675F5765696754
:104300006874203D2025366C75200000BC0000201C
:1043100034202D2053657474696E745F5765696726
:104320006874203D2025366C752000002CDF0008C5
:1043300043414C494252415449494F4E204D4F440C
:1043400045000000284449564953494F4E2D5052CC
:10435000455353204B45595F3129000028434150B4
:1043600041434954592D5052455353204B45595FB1
:104370003129000033202D2045787465726E616C00
:104380005F5265736F6C7574696F6E203D202536C2
:104390006C75200020202020496E7465726E616C5F
:1043A0005F5265736F6C7574696F6E203D202536A2
:1043B0006C752000284C4F4144494E4720574549D1
:1043C0004748542D5052455353204E554D42455267
:1043D000204B45592900000035202D20765F737051
:1043E000616E203D2025366C752020202020202065
:1043F00020202020202020202020202020202020BD
:10440000202020002843555252454E5420574549FC
:104410004748542900000000206104221820A169A7
:1044200000F0D4FCA06104221020616A00F0CEFCF0
:10443000606204220C20A16800F0C8FCA060092181
:104440000A2000F03DF907F046FF216B07F0ECFD74
:1044500007F060FF01460422002000F0B7FC1023A3
:104460000DA24FF4D7710020009501F08AFD1023B2
:104470000FA24FF4E1710020009501F082FD40F69B
:10448000B83000F008F90D4C00F099FE0028FBD080
:1044900020881428F8D1F8BD434C414C4942524180
:1044A00054494F4E2046494E495348454421210026
:1044B0005245504F5745522021210000080100204D
:1044C00010B54FF48034204608F01EFC08F078FC4C
:1044D0007549012808701CD1002008F00BFC002051
:1044E00008F03CFCA01108F02FFC4FF4E01120462E
:1044F00008F044FC012008F03BFC392008F0DAFB0E
:104500000028FAD0022008F051FC08F0EBFB082844
:10451000FBD10121042008F06BFB0121082008F0E9
:1045200067FB0121102008F063FB0121202008F027
:104530005FFB0121402008F05BFB0121802008F097
:1045400057FB0121080208F053FB0121084608F03F
:104550004FFB0121084608F033FB0121022008F03F
:104560002FFB0121480308F043FB0121880308F0D9
:104570003FFB0121480408F023FB0121880408F0D7
:104580001FFB0121C80408F01BFB0121032008F0D8
:104590000BFB01214FF4024008F02AFB01214805E2
:1045A00008F00EFB0121BDE81040480708F008BBE9
:1045B00008B5C020ADF8000003208DF802001C20D3
:1045C0008DF803006946394808F0FEF908BD38B592
:1045D0004FF440514FF0006008F0D6FA4FF4C0603D
:1045E00008F0C8FA14208DF8000000248DF801406E
:1045F0008DF8024001258DF80350684608F080FAD6
:1046000003208DF800008DF801408DF802408DF8F0
:104610000350684608F074FA38BD410624488269A0
:1046200042F0010282612348426822F0E062426067
:1046300042680A434260704710B5044686B00420C1
:1046400008F04CFC684608F0EBFA1B4A01994FF061
:10465000E020B1FBF2F16143B1F1807F0ED221F095
:104660007F41A1F101014161144A4FF0F001117045
:104670004FF0000181614FF007010161016921F0F4
:10468000020101610169C903FCD506B010BD4FF4F8
:104690007A714843D0E742F2107302E01946491E8E
:1046A000FDD2401EFAD2704790000020000C01405D
:1046B000001002400000014040420F0023ED00E0E6
:1046C000024611B9012070475043491E11F0FF0105
:1046D000FAD170471FB50020ADF804004BF6FF700B
:1046E000ADF80600A020ADF808004FF48060ADF8EA
:1046F0000A000001ADF80C00FD48FE4C0090694630
:10470000204607F08FFA0121204607F0F1FA1FBD7D
:1047100010B5FFF7DFFFF849A220088010BD38B5BB
:104720000020ADF80000F34CF34D0121204607F0C6
:10473000FDFA1421204607F048FBADF80000297867
:104740000022204607F039FB1421204607F03DFBEC
:104750008007EAD5E949204607F0AEFB2046BDE8D0
:104760003840012107F0ECBA2DE9F041E14E8846CE
:10477000054614460121304607F0D8FAE04F30468E
:10478000394607F081FB0028F9D0DB480022017888
:10479000304607F012FBDB4F3046394607F074FB1A
:1047A0000028F9D04146304607F002FBD54FBF1C28
:1047B0003946304607F068FB0028F9D00AE029782E
:1047C000304607F0F5FA6D1C3946304607F05CFBC1
:1047D0000028F9D02000A4F10104E4B2EFD1304662
:1047E000BDE8F041012107F0ABBA2DE9F0410546E3
:1047F00011F00F000C4602F00F01C0F11007C2F3D8
:104800000716884611D08EB1D01BC0F3071600F0F2
:104810000F088FB33A4621462846FFF7A5FFFFF75A
:104820007EFFE019C4B23D4426E05EB90A4612E0BC
:10483000102221462846FFF797FFFFF770FF10343C
:10484000E4B210353000A6F10106F6B2F0D15FEA0D
:10485000080017D0024621462846FFF785FFBDE82D
:10486000F0415CE7102221462846FFF77DFFFFF765
:1048700056FF1034E4B210353000A6F10106F6B24E
:10488000F0D1E4E7BDE8F0812DE9F041994E0F4603
:10489000054614460121304607F048FADFF86082E9
:1048A0003046414607F0F0FA0028F9D0924800223D
:1048B0000178304607F081FADFF8488230464146F9
:1048C00007F0E2FA0028F9D0F9B2304607F070FAA2
:1048D0008C4FBF1C3946304607F0D6FA0028F9D075
:1048E0000AE02978304607F063FAAD1C39463046B5
:1048F00007F0CAFA0028F9D02000A4F10104A4B2FC
:10490000EFD13046BDE8F041012107F019BA2DE999
:10491000F041054611F00F000C4602F00F01C0F106
:104920001007C2F30716884612D096B1D01BC0F309
:10493000071600F00F0897B33A4621462846FFF7BE
:10494000A3FFFFF7ECFEE01984B205EB470526E074
:104950005EB90A4612E0102221462846FFF794FF6E
:10496000FFF7DDFE1034A4B220353000A6F10106B9
:10497000F6B2F0D15FEA080084D00246214628460C
:10498000FFF782FFBDE8F041C9E610222146284624
:10499000FFF77AFFFFF7C3FE1034A4B220353000D2
:1049A000A6F10106F6B2F0D1E4E76BE72DE9F0419C
:1049B000504C0F4605460121204607F0B7F9504EEE
:1049C0002046314607F060FA0028F9D04A48002214
:1049D0000178204607F0F1F94A4E2046314607F0AB
:1049E00053FA0028F9D03946204607F0E1F9264667
:1049F000444CA41C2146304607F046FA0028F9D062
:104A00002978304607F0D4F92146304607F03CFAC1
:104A10000028F9D03046BDE8F041012107F090B9F7
:104A20002DE9F047334F8A460546144601213846A2
:104A300007F07CF9324E3846314607F025FA002857
:104A4000F9D0DFF8B4800022384698F8001007F05B
:104A5000B4F9DFF8B0903846494607F015FA002857
:104A6000F9D00121384607F043F95146384607F09E
:104A70009FF9DFF8909009F102094946384607F09E
:104A800003FA0028F9D00121384607F04FF93146E2
:104A9000384607F0F9F90028F9D098F800100122FB
:104AA0003E46384607F089F9154F7F1C3946304697
:104AB00007F0EAF90028F9D0114F3F37BCB1012CBB
:104AC00007D10021304607F045F90121304607F0B3
:104AD00037F93946304607F0D7F90028EED030468E
:104AE00007F068F9641E05F8010BA4B2E6E70BE0D5
:104AF000A086010000540040940000200004001033
:104B000001000300820007003046BDE8F0470121A4
:104B100007F020B9F8B50C4606464FF48075002121
:104B2000284608F041F80120FFF7B5FDF1B2042254
:104B30006846FFF775FF012C0BD0022C0CD0009CAF
:104B40000120FFF7A8FD0121284608F02DF8204696
:104B5000F8BD9DF80040F3E7BDF80040F0E72DE90F
:104B6000F04104210846FFF7D5FFC749086004213A
:104B70001820FFF7CFFFC549086004211020FFF778
:104B8000C9FFC34C042120600C20FFF7C3FFC149BB
:104B9000086004210020FFF7BDFF064609210A2016
:104BA000FFF78EFD07F097FB0546304607F09CFBAC
:104BB000294607F06FFAB849086004211C20FFF766
:104BC000A9FFB64901270228086000D30F6004211D
:104BD0002C20FFF79FFFB249B0F5FA7F086001D99A
:104BE000322008600421A820FFF794FFAD49002679
:104BF0000028086002DB2268824200D20E60042195
:104C0000A420FFF787FFA8490860401E3C2801D375
:104C10003C2008600421A820FFF77CFFA34902285C
:104C2000086000D30E6004214820FFF773FFA049FD
:104C3000086004215020FFF76DFF9E4C2060042186
:104C40005420FFF767FF606004215820FFF762FFE0
:104C5000A06004215C20FFF75DFFE060042160207C
:104C6000FFF758FF206104216420FFF753FF6061C4
:104C700004216820FFF74EFFA06104216C20FFF79C
:104C800049FF8D49086004216C20FFF743FF8B4DDD
:104C90008B4C010A686020706170000CA0700421C8
:104CA0007020FFF737FFA860E070010A2171010C46
:104CB0006171000EA07104217420FFF72BFFE860E2
:104CC000E071010A2172010C6172000EA072E6729D
:104CD00004217820FFF71EFF7A492861020A087034
:104CE0004A70020C8A70000EC87004217C20FFF705
:104CF00011FF75496861020A08704A70020C8A70D7
:104D0000000EC87004218020FFF704FF6F49A861DE
:104D1000020A08704A70020C8A70000EC8700421E2
:104D20008420FFF7F7FE6A49E861020A08704A70BA
:104D3000020C8A70000EC87004218820FFF7EAFE7A
:104D40002862001F032801D30420286204218C203C
:104D5000FFF7E0FE6862A0F5D850583841F2717153
:104D6000884202D342F21070686204219020FFF75B
:104D7000D1FE58490228086000D30F600421942016
:104D8000FFF7C8FE5449554A0860904200D30E60B0
:104D900004219820FFF7BEFE5149B0F57A7F0860E4
:104DA00000D30E6004219C20FFF7B4FE4D49642817
:104DB000086000D30E600421A020FFF7ABFE4A4933
:104DC0000228086000D30E605CE57047F8B50C4619
:104DD00007464FF4807615460021304607F0E4FE82
:104DE000012D10D0022D11D00094F9B20422684692
:104DF000FFF7FBFC0120FFF74EFC0121304607F0D6
:104E0000D3FE2046F8BD8DF80040EEE7ADF8004037
:104E1000EBE710B5284C04226C202168FFF7D6FF81
:104E20002060234C042248202168FFF7CFFF206038
:104E3000204C216804225020FFF7C8FF20606168E1
:104E400004225420FFF7C2FF6060A16804225820AA
:104E5000FFF7BCFFA060E16804225C20FFF7B6FF0B
:104E6000E060216904226020FFF7B0FF20616169E2
:104E700004226420FFF7AAFF6061A1690422682070
:104E8000FFF7A4FFA06110BD100000201800002053
:104E9000240000200800002030000020F002002044
:104EA000F4020020F8020020FC0200200003002091
:104EB00008030020D07200200C0300209400002082
:104EC000EC7200200073002014030020180300205F
:104ED0001C0300202003002024030020809698005B
:104EE000280300202C030020300300202DE9F84384
:104EF0004FF4F840ADF8000010258DF8035003245E
:104F00008DF802406946CC4807F05EFD4FF4F8602A
:104F1000ADF8000028208DF803006946C74807F067
:104F200053FD4FF44870ADF80000DFF814838DF89E
:104F300003508DF802406946404607F045FD0426BF
:104F4000ADF80060BF4F8DF803508DF80240694600
:104F5000384607F039FD0820ADF800008DF8035001
:104F60008DF802406946384607F02EFD4FF4704038
:104F7000ADF800008DF803508DF8024069464046B8
:104F800007F022FD41F20100ADF800008DF803505A
:104F90008DF802406946AC4807F016FD4020ADF898
:104FA0000000AA4F8DF803508DF80240694638463C
:104FB00007F00AFD2801ADF800008DF803508DF8C8
:104FC00002406946A24807F0FFFCC020ADF800008F
:104FD0008DF802401C208DF803006946404607F01A
:104FE000F3FC4FF48C50ADF800008DF80360694677
:104FF000384607F0E9FC0121964807F035FDBDE889
:10500000F88310B58C4C4FF48061204607F05AFDB0
:10501000E114204607F056FDA114204607F052FD8A
:105020006114204607F04EFD2046BDE810404FF4C5
:10503000804107F049BD10B57F4C4FF48061204698
:1050400007F040FDE114204607F03CFDA114204686
:1050500007F038FD6114204607F036FD2046BDE814
:1050600010404FF4804107F02DBD10B5724C4FF445
:105070008061204607F026FDE114204607F022FD5E
:10508000A114204607F020FD6114204607F01AFD08
:105090002046BDE810404FF4804107F013BD10B525
:1050A000654C4FF48061204607F00CFDE11420466A
:1050B00007F00AFDA114204607F004FD6114204604
:1050C00007F000FD2046BDE810404FF4804107F096
:1050D000F9BC10B5584C4FF48061204607F0F4FC41
:1050E000E114204607F0EEFCA114204607F0EAFC8C
:1050F0006114204607F0E6FC2046BDE810404FF45E
:10510000804107F0DFBC70B5FFF7E3FF4B4D284649
:1051100007F0CEFC1F2414EA901101D0012028E0F2
:10512000FFF7BDFF284607F0C3FC14EA901101D039
:1051300002201EE0FFF799FF284607F0B9FC14EAA9
:10514000901101D0032014E0FFF775FF284607F007
:10515000AFFC14EA901101D004200AE0FFF751FFE0
:10516000284607F0A5FC14EA901101D0102000E0B9
:105170000020002310242025374A102918D008DCED
:1051800001290DD002290DD004290DD0082910D1F4
:105190000CE0202904D0402904D0802909D103E063
:1051A000938007E0948005E0958003E0302100E0E3
:1051B000402191809188084480B2908070BD10B5E4
:1051C000FFF7A1FF244988888A68824201D1002024
:1051D00010BD88600028FBD0FEF7F3FB9620FFF798
:1051E0005AFAFEF7D9FB012010BD70B5134E3046B8
:1051F00007F05EFC1F2505EA90140A20FFF74BFA22
:10520000304607F055FC05EA9010844201D000209A
:1052100070BD01221048002134B18378012B07D0E2
:1052200041700170204670BD827002704170F9E7D4
:1052300081704270F5E7000000200140001C014031
:10524000000C014000140140001801400010014012
:105250000008014000040080040100202DE9F05FF7
:10526000064614460D462A2000F091FF300A00F051
:105270009FFFF0B200F09CFF1D36300A00F098FF4F
:10528000F0B200F095FF2B2000F081FF280A00F01B
:105290008FFFE8B200F08CFF3B35280A00F088FF52
:1052A000E8B200F085FF2C2000F071FF3A2C0CD002
:1052B0002E2C0CD02D2C0CD0432C0CD0C4EB04176E
:1052C00007F10F0B4FF6FF7A25E09627F8E7A527A1
:1052D000F6E7B427F4E7C327F2E7FE48002500EB22
:1052E00007194FF0000419F805606FEA0508300649
:1052F00001D5002000E0504600F05AFF76005FEA3A
:10530000887001D1052C02D0641C082CEFD36D1CD1
:10531000102DE6D37F1C5F45DFD3BDE8F09F70B54D
:1053200000F0C6FEEC4D8021284607F0CDFB4CF284
:105330000301284607F0C8FBE84C4FF4F061204613
:1053400007F0C2FB0221204607F0BCFB10212846D3
:1053500007F0BAFB2021284607F0B6FB0A20FFF72A
:1053600096F900F06FFE0A20FFF791F900F0F4FEC5
:10537000E22000F00CFF232000F01AFF022000F0D2
:1053800017FF542000F014FFE02000F000FF012080
:1053900000F00EFF0A20FFF77AF9E02000F0F7FE98
:1053A000032000F005FF012000F0F1FE1420FFF7BC
:1053B0006EF9E62000F0EBFE042000F0F9FE9320E9
:1053C00000F0F6FEE02000F0F3FEB02000F0DFFE7B
:1053D000102000F0EDFE802000F0EAFEC04C208995
:1053E000401EC0F3072000F0E3FE207A401EC0B24A
:1053F00000F0DEFEA089401EC0F3072000F0D8FEBA
:10540000207B401EC0B200F0D3FE002000F0D0FE92
:10541000B42000F0BCFE208921780844FE30C0F39F
:10542000072000F0C5FE207A21780844801EC0B213
:1054300000F0BEFE2078D130000A00F0B9FE2078DE
:10544000D130C0B200F0B4FE2078401E00F0B0FEB3
:10545000002000F0ADFE002000F0AAFE002000F0C9
:10546000A7FEB62000F093FE6078A18908442B3097
:10547000C0F3072000F09CFE6078217B08442B30AD
:10548000C0B200F095FE60782130000A00F090FE76
:1054900060782130C0B200F08BFE6078401E00F0D2
:1054A00087FE002000F084FE002000F081FEF02046
:1054B00000F06DFE032000F07BFE212000F067FE6F
:1054C000BC2000F064FEA07800F072FEE07800F0EE
:1054D0006FFE207900F06CFE012000F069FE2920AB
:1054E00000F055FE69142846BDE8704007F0ECBA9C
:1054F0002DE9F04104461D4616460F462A2000F0CD
:1055000046FE200A00F054FE204600F051FE300A0C
:1055100000F04EFE304600F04BFE2B2000F037FE30
:10552000380A00F045FE384600F042FE280A00F036
:105530003FFE2846BDE8F04100F03ABE70B5054692
:105540000021C72340F22B120846FFF7D1FF2C2081
:1055500000F01DFE4EF6602402E0284600F028FE12
:10556000641EFAD270BD70B50546002140F2DF130B
:1055700040F21F320846FFF7BBFF2C2000F007FE69
:10558000584C02E0284600F013FE641EFAD270BDAB
:1055900010B514460B460246FFF7AAFF2C2000F078
:1055A000F6FD2046BDE8104000F002BE2DE9F05F98
:1055B00010279B4616460C460546B0F5437F4AD851
:1055C000B4F5E67F47D82A2000F0E1FD280A00F074
:1055D000EFFDE8B200F0ECFDED1D281200F0E8FD53
:1055E000E8B200F0E5FD2B2000F0D1FD200A00F02C
:1055F000DFFDE0B200F0DCFD0F34201200F0D8FD3A
:10560000E0B200F0D5FD2C2000F0C1FD203EF0B24C
:10561000354A00EB400102EB81093449002501EBDA
:1056200000184FF6FF7A0C2F03D018F8054000261B
:105630000BE019F80540FAE7E00701D0584600E012
:10564000504600F0B5FD6408761CB6EB570FF3D357
:105650006D1CBD42E7D360E62DE9F05F1E46DDF824
:105660002880154689460746B0F5437F69D8B9F5C5
:10567000E67F66D82A2000F08AFD380A00F098FDFF
:10568000F8B200F095FD07EB5604641E200A00F006
:105690008FFDE0B200F08CFD2B2000F078FD4FEA8A
:1056A000192000F085FD09F0FF0000F081FD09EBF5
:1056B0000604641E200A00F07BFDE0B200F078FDD5
:1056C0002C2000F064FDA5F1200AB8F1000F0FD0E6
:1056D00000255BE0A4E90008001401400018014027
:1056E0001001002000DC050040DF0008B4E30008E2
:1056F000002424E00C2E06D0F84800EB0A10002508
:1057000010F8048017E0F6480AEB4A0100EB81002C
:10571000F5E75FEAC87001D0F24800E0F24800887F
:1057200082B209EB040081B2781980B2FFF730FF32
:105730004FEA58086D1CB5EB560FEAD3641CB4420F
:10574000D8D3EAE50C2E08D0E44800EB0A10002478
:1057500010F8058009EB050B14E0E1480AEB4A015B
:1057600000EB8100F3E75FEAC87008D0DD481FFA5C
:105770008BF1008882B2381980B2FFF709FF4FEA37
:105780005808641CB4EB560FEDD36D1CB542D9D349
:10579000C3E52DE9F84F1F00DDF8288016460D46B9
:1057A000044600D110274FF443794FF4E67A4FF6C0
:1057B000FF7B3078002816D04C4501D900243D44A9
:1057C000554504D9002425465846FFF7CCFECDF8B0
:1057D000008032783B4629462046FFF73DFF04EB28
:1057E0005704761CE5E7BDE8F88F2DE9F0411D462A
:1057F00014460E4607469BB292B2DDF81880FFF7BA
:1058000077FE2C2000F0C3FCE41BA81B444302E0FD
:10581000404600F0CDFC641EFAD2BDE8F0812DE9CF
:10582000F05F9B4616460D46044610274FF443781A
:105830004FF4E6794FF6FF7A15E0444502D900248B
:10584000E81985B24D4504D9002425465046FFF796
:105850008AFE32785B4629462046FFF7A7FE04EB16
:10586000570084B2761C30780028E6D155E52DE942
:10587000F04117460E460546FFF78AFE6C1CA0B2A3
:105880003A463146FFF784FE761CB1B23A462846C6
:10589000FFF77EFEB1B2A0B23A46BDE8F04177E62E
:1058A0002DE9F05F00249A4616468B468046150087
:1058B0004FF00A0707D13022FFF778FE03E0B5FB6F
:1058C000F7F5641CE4B2002DF9D12546B94616E07F
:1058D000671EF9B20A2000F071FCB6FBF0F1B1FBD3
:1058E000F9F209FB1212281B00EB400108EB410002
:1058F000303280B253465946FFF758FEFCB2002CB6
:10590000E6D1032D08D108F1120053465946BDE8EF
:10591000F05F80B2202249E6FFE42DE9FE4F002629
:10592000A2EB000882465F1A701E35468946B8F120
:10593000000F02DD4FF0010102E003D14FF0000142
:10594000019102E0C8F100080190002F02DD4FF044
:10595000010002E003D14FF00000009002E0C7F127
:10596000000700904046B84501DD044600E03C4693
:10597000601C4FF0000B029016E01FFA89F11FFA2D
:105980008AF00C9AFFF704FE46443D44A64202DD2D
:105990000199361B8A44A54202DD00992D1B8944DA
:1059A0000BF101001FFA80FB02998B45E5DDBDE894
:1059B000FE8F2DE9F8431D46089C16460F4680468B
:1059C0000B460094FFF7A9FF42462B463946104686
:1059D0000094FFF7A2FF32462B463946104600944A
:1059E000FFF79BFF2B463246194640460094FFF7CF
:1059F00094FFBDE8F8832DE9FF4F8046002415464B
:105A0000032083B00F46A0EB450661E0A7EB040935
:105A1000A8EB050A1FFA89F11FFA8AF0069AFFF728
:105A2000B7FD08EB050001901FFA89F180B2069AD4
:105A3000FFF7AEFD781981B2A8EB040B00901FFAB6
:105A40008BF0069AFFF7A4FD1FFA89F11FFA8AF07E
:105A5000069AFFF79DFDA7EB05091FFA89F11FFACA
:105A60008BF0069AFFF794FD019807EB040B1FFAE1
:105A70008BF180B2069AFFF78BFD1FFA89F108EBD4
:105A800004091FFA89F0069AFFF782FD0098069A2A
:105A900081B21FFA89F0FFF77BFD1FFA8BF11FFA25
:105AA0008AF0069AFFF774FD641C002E03DA06EBF9
:105AB0008406B61D04E0601B06EB80060A366D1EE8
:105AC000781981B208EB040080B2069AFFF760FDF6
:105AD000AC429BDD07B0BDE8F08F0000B4E30008E6
:105AE00040DF0008C0020020C402002070B5054657
:105AF0000E462A2000F04BFB2C0A204600F058FBF3
:105B0000284600F055FB204600F052FB284600F0E6
:105B10004FFB2B2000F03BFB340A204600F048FBF3
:105B2000304600F045FB204600F042FB3046BDE821
:105B3000704000F03DBB2C2000F029BB2DE9F04760
:105B40000546984616460F462A20DDF8209000F0BC
:105B50001EFB380A00F02CFBF8B200F029FBA8F17C
:105B60000104200A00F024FBE0B200F021FB2B200E
:105B700000F00DFB300A00F01BFBF0B200F018FB48
:105B8000A9F10104200A00F013FBE0B200F010FBC1
:105B90002C2000F0FCFAA8EB0700A9EB060100247A
:105BA0004843460007E02919285D497800EB0120A9
:105BB00000F0FEFAA41CB442F5D3BDE8F0872DE94D
:105BC000F04107461D4614460E462A2000F0DFFA33
:105BD000380A00F0EDFAF8B200F0EAFA641E200A82
:105BE00000F0E6FAE0B200F0E3FA2B2000F0CFFA82
:105BF000300A00F0DDFAF0B200F0DAFA6D1E280A81
:105C000000F0D6FAE8B200F0D3FABDE8F0412C205B
:105C100000F0BDBA2DE9F84F804693460C460A25A0
:105C2000282000F0B4FADFF8B893DFF8B8A3002614
:105C30004FF6FF77B8F1000F56D1052C01D34FF086
:105C40009905BBF1000F05D01F21C9F80070CAF8F3
:105C5000001003E0C9F80060CAF800700520B4FB2A
:105C6000F0F100FB114000EBC00101EB00100A2134
:105C700001EB80000D3084B1012C12D0022C14D025
:105C8000032C16D0042C18D0052C1AD0062C1CD0AE
:105C9000072C1ED0082C20D026E01023D2A200967C
:105CA0001EE01023D2A200961AE01023D2A2009682
:105CB00016E01023D2A2009612E01023D2A2009682
:105CC0000EE01023D2A200960AE01023D2A2009682
:105CD00006E01023D2A2009602E01023D2A2009682
:105CE00005F14A01FFF755FD292000F050FAC9F8E7
:105CF0000060CAF8007076E5F8B54FF6FF70FFF760
:105D000032FC0A2500242E460527B4FBF7F007FBDA
:105D1000104000EBC00101EB001006EB8000052CE9
:105D200001D34FF0990505F13C0300F13B022946F0
:105D30000094FFF744FF002221461046FFF76AFF58
:105D4000641CE4B2092CE0D3F8BD2DE9FF410F46F5
:105D50000546B6A1684607F0F3F900246E46325DA9
:105D60001046303A092A04D8C4EB041005EB400071
:105D700006E02D28C4EB041005EB400008D04322B8
:105D80003946FFF76BFA641C062CE8DBBDE8FF819F
:105D90002D22F5E72DE9FF5F98460E9F1646044633
:105DA000B0F5437F7DD80198B0F5E67F79D82A20F9
:105DB00000F0EDF9200A00F0FBF9E0B200F0F8F98C
