:020000040800F2
:1030000008B40020E94201082D4201082F420108BE
:103010003142010833420108354201080000000036
:10302000000000000000000000000000374201081E
:1030300039420108000000003B4201083D420108FE
:10304000FF420108FF420108FF4201080DDE0008AF
:10305000FF420108FF420108FF420108FF42010848
:10306000FF420108FF420108FF420108FF42010838
:10307000FF420108FF420108FF420108FF42010828
:10308000FF420108FF420108FF420108FF42010818
:103090005B420108FF420108FF420108FF420108AC
:1030A000FF420108FF420108FF420108FF420108F8
:1030B000A1330108FF420108FF420108FF42010855
:1030C000FF420108FF420108FF420108FF420108D8
:1030D000FF42010867350108BF3501083F36010886
:1030E000FF420108FF4201085D420108FF4201085A
:1030F000FF420108FF420108FF420108FF420108A8
:10310000FF420108FF420108FF420108FF42010897
:1031100005370108FF420108FF420108FF4201088C
:10312000FF420108FF420108FF420108FF42010877
:10313000DFF80CD011F0A0FD0048004785A0000882
:1031400008B40020002100E0491C8142FCDB7047EC
:1031500010B56420FFF7F6FF4FF48041FA4811F0F4
:10316000E3FE4FF40071F94811F0DEFEBDE81040B7
:103170004FF47A7002F0D1BC70B5F34D4FF4804437
:103180002146284611F0D2FE0120FFF7DBFF214641
:10319000284611F0C9FEBDE870400120D2E770B5A5
:1031A000EA4D4FF400742146284611F0BFFE01207D
:1031B000FFF7C8FF2146284611F0B6FEBDE8704073
:1031C0000120BFE72DE9F041DF4F4FF400563146B3
:1031D000384611F098FE0028F9D04FF48041384667
:1031E00011F0A2FE00253146384611F08CFE002871
:1031F000F9D100246D00FFF7BFFF3146384611F0CA
:1032000082FE3146384611F07EFE012800D16D1C49
:10321000641CE4B2182CEDD3FFF7AEFF2846BDE8DE
:10322000F08110B5CA4C05202060FFF7CBFF236862
:10323000B3B1C84A632102EB810454F8044C42F84C
:103240002140491E0029F6DC591E106003E052F8A7
:103250002140491E20440029F9DCB0FBF3F001E0D5
:10326000012121601921B0FBF1F010BD2DE9F041E1
:10327000B64F4FF480763146384611F044FE0028B0
:10328000F9D04FF48041B04811F04EFE0025314690
:10329000384611F038FE0028F9D100246D00FFF700
:1032A0007EFF3146384611F02EFE3146384611F089
:1032B0002AFE012800D16D1C641CE4B2182CEDD349
:1032C000FFF76DFF2846AAE710B5A14C0520206046
:1032D000FFF7CCFF2368B3B19F4A632102EB81045F
:1032E00054F8044C42F82140491E0029F6DC591ECE
:1032F000106003E052F82140491E20440029F9DC07
:10330000B0FBF3F001E0012121601921B0FBF1F0E5
:1033100010BD10B500208F4A014642F82010401C15
:10332000C828FAD38C4A002042F82010401CC82834
:10333000FAD30121894811F0F7FDBDE810400221C0
:10334000874811F0F1BD2DE9F047864F0025834EE7
:103350002C463D700121304611F0E6FD4FF0010989
:10336000DFF8048202E0641C44450DD80421304695
:1033700011F0C9FD0028F6D0387801282CD000249F
:1033800005E0641C444502D987F8009024E004213C
:10339000304611F0B8FD0028F3D1387801281BD051
:1033A00000240121304611F0C1FD502002F0AAFB9B
:1033B0006D000421304611F0A6FD05440A2002F0FC
:1033C000A1FB0121304611F0AFFD502002F09AFB25
:1033D000641CE4B2182CE4D32846BDE8F08770B52D
:1033E0005E4E00250121304611F09EFD042130463D
:1033F00011F089FD0028F9D00421304611F083FD39
:103400000028F9D10421304611F07DFD0028F9D0C3
:103410000421304611F077FD0028F9D10024012164
:10342000304611F083FD962002F06CFB6D00042104
:10343000304611F068FD05440121304611F074FD5D
:10344000322002F05FFB641CE4B2182CE7D328465C
:1034500070BD2DE9F047DFF80881002502214046C4
:1034600011F062FD3D4F4FF400542146384611F0F3
:103470004AFD0028F9D02146384611F044FD0028C5
:10348000F9D12146384611F03EFD0028F9D02646F4
:103490002146384611F037FD0028F8D10024B14606
:1034A00002214646404611F041FD962002F02AFBDB
:1034B0006D004946384611F026FD0544022130468C
:1034C00011F032FD322002F01DFB641CE4B2182C16
:1034D000E6D3284681E782E7BBE710B5FFF77FFF19
:1034E0001B490B68B3B11B4AC72102EB810454F896
:1034F000044C42F82140491E0029F6DC591E106098
:1035000003E052F82140491E20440029F9DCB0FBB9
:10351000F3F001E001220A601421B0FBF1F010BDCC
:1035200010B5FFF796FF0A490B6843B30A4AC72153
:1035300002EB810454F8044C42F82140491E002952
:10354000F6DC591E106015E000180140001401401F
:10355000F03800208C390020AC3C002000100140E5
:10356000000C014000000020A086010052F821401C
:10357000491E20440029F9DCB0FBF3F001E00122F0
:103580000A601421B0FBF1F010BD2DE9F04F99B0A5
:1035900000254FF0FF38FE4BDFF8F8B3DFF8F89363
:1035A0001A78DFF8F8A3012A0ED1FD49002008702F
:1035B0008BF8000089F800008AF80000F9490870CB
:1035C000F9490870F94908703032F9A10CA811F0D6
:1035D000D3FF0CA810F0F1FA0027F74C01260120C8
:1035E00002F097FA2078E8B3012002F092FA2078EE
:1035F000C8B3F248002727700760F1485021F14A0C
:1036000001803C4602206FF02F03115CA1F1300CC9
:10361000BCF1090F04D9A1F1410CBCF1050F07D889
:1036200004EB840403EB4404401C0C440728ECDD49
:10363000082841DB0222E4A1E24810F0E5FE18B3BD
:103640000222E2A1DF4810F0DFFE18B30222E0A15F
:10365000DC4810F0D9FE18B30222DEA1D94810F0E0
:10366000D3FE01E002E004E000B325E07F1C642FFC
:10367000B5DBD349B1F9000008B1401E0880C44849
:103680000278042A1BD047E0D34804608BF800601E
:10369000D24810E0D248046089F80060D1480AE0BE
:1036A000D14804608AF80060D04804E0D048046043
:1036B000BC480670CF48077010F0FDFBDFE7C64836
:1036C000C949CD4F0468C64809683F680068231897
:1036D0005D18C74B1B6805EB03080125E7B109AF6F
:1036E00008940BC7B1480378AF480178AD48047817
:1036F0009AF80000CDE90404CDE9061399F800100A
:103700009BF80030A648CDE90231CDE90085037869
:10371000BAA10CA811F030FF9D490878401CC0B236
:103720000870042800D90E702DB19D4806704046DF
:1037300019B0BDE8F08FC0480068F9E72DE9F04FF7
:10374000934B00256C1E1A78934E944FDFF85482E9
:10375000B5B0AA46012A11D1914981F800A08D493E
:1037600081F800A086F800A087F800A088F800A0E3
:103770008D4981F800A08D4981F800A030328CA1DC
:103780000EA811F0F9FE0EA810F017FADFF828B213
:103790004FF00009012002F0BCF99BF8000018B1BD
:1037A000012002F0B6F904E009F10109B9F1640F52
:1037B000F0DB77484B46A1A102780EA811F0DCFEA1
:1037C0000EA810F051F958469BF800207C49DFF80C
:1037D00020B2002A44D080F800A07848794B4FF0FE
:1037E0000009C0F800A05020088002206FF02F0CC4
:1037F000195CA1F13002092A02D9113A052A08D828
:1038000009EB89020CEB4202401C01EB020907287C
:10381000EEDD082858DB02226BA16A4810F0F4FDA7
:1038200020B3022269A1674810F0EEFD30B30222F6
:1038300067A1644810F0E8FD38B3022265A1614831
:1038400010F0E2FD40B302227FA15E4810F0DCFDE3
:1038500048B302227DA15B4810F0D6FD58B333E097
:10386000B1F9000090B3401E08802FE05A490120B2
:10387000C1F8009047490870584923E05849012091
:10388000C1F80090307057491CE05748C0F80090CC
:1038900001203870554915E00120CBF8009088F8D8
:1038A000000054490EE06A490120C1F800903E49E9
:1038B0000870684906E068490120C1F800903B495A
:1038C0000870664981F800A010F0F5FADFF8C090A2
:1038D000634899F800200068824255D16149062862
:1038E00008681AD068B12B48017800294ED0317889
:1038F0000029FBD039780029F8D098F80010002969
:10390000F4D03548016836480068014436480068FC
:103910000144DBF800000C180AE278B11D48017878
:10392000E9B13178D9B13978C9B198F80010B1B19D
:103930001D49097899B11D49097881B12648016866
:10394000274800680144284800680144DBF800006B
:1039500001443F48006801443F480068DBE70178C4
:1039600099B9317889B1397879B198F8001061B195
:103970000D49097849B10D49097831B118480068F5
:103980004100194800686FE02DE27AE022E1000072
:103990004D38002050390020513900205239002084
:1039A0005C3900205339002054390020553900205B
:1039B000402D2563520000002238002048380020A6
:1039C0003C390020D29400202D3100002D3200001F
:1039D0002D3300002D3400007C3800204E380020AC
:1039E000803800204F3800208438002050380020D4
:1039F00088380020513800202839002020282575DB
:103A00003A25752920256C642C2025642E2E2564EA
:103A10002C25642C25642C25642C25642C25642CF1
:103A200020256C642C20256C642C20256C642C20B3
:103A3000256C64202000000058390020206C25648B
:103A40003D25642E000000002D3500002D360000BD
:103A50008C38002052380020903800205338002045
:103A6000FC000020103900200144DBF80000014474
:103A7000EB4800680144EB480068BCE081F800A016
:103A800056E1017811B3317801BB3978F1B198F87A
:103A90000010D9B1E4490978C1B1E4490978A9B164
:103AA000E34800684100E34800680144DBF8000097
:103AB0000144DB4800680144DA480068AEE0087859
:103AC000401CC0B208700228D8D231E10178E1B1BF
:103AD0003178D1B13978C1B998F80010A9B1D2497B
:103AE000097891B1D149097879B1D1480168D248B2
:103AF00000680144DBF8000001440144C848006844
:103B00000144C84800680C1810E10178E1B131782F
:103B1000D1B13978C1B198F80010A9B9C249097872
:103B200091B1C249097879B1C1480168C2480068B9
:103B30000144C048006801440144B9480068014498
:103B4000B84800680C1893E00178E9B13178D9B130
:103B50003978C9B198F80010B1B1B349097899B969
:103B6000B249097881B1B2480168B348006801449C
:103B7000B04800680144DBF800000144A94800682F
:103B800001440C18AD499AE70078002872D03078CB
:103B90000028FBD038780028F8D098F800000028DA
:103BA00068D0A1480078002864D0A0480078002898
:103BB00060D19F480168A048006801449D480068A2
:103BC0000144DBF8000001449548006801440C18EA
:103BD0009B4974E7017881B9317871B1397861B165
:103BE00098F8001049B1934801689348006801EBC8
:103BF0004001DBF800000C1868E0017881B13178F1
:103C000071B9397861B198F8001049B189480168F3
:103C10008748006801EB4001DBF800000C1877E0F2
:103C2000017881B1317871B1397861B998F80010B3
:103C300049B17F480168804800680144DBF8000012
:103C400001EB400472E0017831B1317821B139786B
:103C500011B198F8001011B1017861B114E0744805
:103C600001687548006801447248006801EB40042F
:103C7000744924E789E0317831B9397821B198F86D
:103C8000001009B16B4809E0017859B9317849B1A0
:103C9000397839B998F8001021B167480168DBF824
:103CA000000011E0017831B9317821B1397811B1D2
:103CB00098F8001021B10178A1B1317841B111E03B
:103CC0005D4801685B480068084444005E49F6E6C8
:103CD000397839B998F8001021B155480168DBF8F6
:103CE000000013E0017831B1317821B9397811B190
:103CF00098F8001031B1017879B1317869B139782B
:103D000041B10AE04A4801684A4800680844440052
:103D10004E49D4E698F8001011B1017851B113E082
:103D20004348016844480068084444004849C6E6DE
:103D300001252AE0317839B9397829B998F8001085
:103D400011B1DBF8000066E0017831B9317821B1BA
:103D5000397811B998F8001011B1017811B108E063
:103D6000354857E0317821B9397811B198F8001009
:103D700021B1007848B1307810B106E02D4849E013
:103D8000387810B998F80000F0B33248006850B3A2
:103D90002448DBF800C00368214801682548006812
:103DA000CDE90A0C2448CDE90C13036820480168CA
:103DB0001E4890F800C01C480078CDE9060CCDE9FB
:103DC000081398F800103B7836782348007803965B
:103DD0000094CDE901502148CDE904310378204910
:103DE0000EA811F0C9FB99F800001E4A401CC0B291
:103DF00089F800001268904202DD012089F8000075
:103E00005DB10120154900E003E00870204635B09F
:103E10008FE40748006884008AE713480068F6E7E3
:103E20008C3800209038002054390020553900206B
:103E30007C38002084380020803800205238002050
:103E400053380020513800204E3800204F380020D1
:103E50005038002028390020503900205C390020DB
:103E6000AC5E0108FC000020583900204FF40061CE
:103E7000664811F05BB84FF48051644811F056B8B1
:103E80004FF40051614811F051B81021604811F011
:103E90004DB84FF400615D4811F046B84FF48051C1
:103EA0005A4811F041B84FF40051584811F03CB84D
:103EB0001021574811F038B810B5FFF7EAFFFFF7A7
:103EC000EDFFFFF7F0FFBDE81040F1E7012806D055
:103ED000022805D0032804D0042803D1D5E7C5E77C
:103EE000C9E7CDE77047012806D0022805D003288E
:103EF00004D0042803D1DBE7CBE7CFE7D3E7704753
:103F00004FF48051434811F00FB808B54FF480507A
:103F1000ADF8000003208DF8020010208DF803009A
:103F200069463C4810F078FFFFF7EAFF08BD4FF400
:103F30008051384810F0FABF10B50446FFF7F7FF7C
:103F4000204601F0EAFDBDE81040D9E710B5002495
:103F50001420FFF7F1FF052001F0DFFD641C072CA2
:103F6000F6DB10BD20212A4810F0E0BFFAE702215D
:103F7000264810F0DBBF0221244810F0D5BF2021D5
:103F8000234810F0D1BF10B52021214810F0CCFFFC
:103F9000BDE81040F3E74FF400711D4810F0C6BFB4
:103FA000F9E74FF400711A4810F0BEBFF9E7704707
:103FB00070470421154810F0B7BF0421134810F0D2
:103FC000B5BF0821114810F0AFBF08210F4810F00D
:103FD000ADBFE6E7DFE74FF480710D4810F0A6BFF4
:103FE0004FF480710A4810F09FBF0421074810F079
:103FF0009BBF0421054810F099BF0821034810F029
:1040000093BF0821014810F091BF00000014014047
:10401000000C0140001001402DE9F04F002489B050
:10402000A04603F0CEFBDFF8FC93D9F8000001288E
:1040300015D00021FCA2084603F041FA03F07DF8F8
:10404000FDA20621002003F03AFA03F072F8FD4FBA
:10405000FD4E4FF000053878012809D014E000210A
:10406000FAA2084603F02BFA03F067F8FBA2E8E790
:10407000FFF7D7F810F09CFB10F0B0FB6D1CEDB211
:1040800030600A2DF4D30AE0FFF727FA10F090FB16
:1040900010F0A4FB6D1CEDB23060642DF4D3F24D32
:1040A0006869286410F084FB696C10F021FA10F044
:1040B00095FBA863EDA16846326811F05DFA684689
:1040C0000FF0C2FCEDA168462A6C11F055FA684663
:1040D0000FF0BAFCEDA16846AA6B11F04DFA6846E4
:1040E0000FF0B2FC686C10F0A6FB02460B46EBA189
:1040F000684611F041FA68460FF0A6FCDFF8ACB351
:10410000BA4602F03AFE08B3BBF800005F46012849
:1041100008D1286C10F04CFB696C10F0E9F910F034
:104120005DFBA8633888022803D0388805280AD0A8
:104130000CE0686910F03CFB696C10F0D9F910F0E4
:104140004DFBA86302E001246FF064089AF80000B8
:10415000012827D0FFF7C1F9306010F020FB696C0F
:1041600010F0C6F910F03AFBD1490860A96B401A6B
:10417000296900EB5100B0FBF1F2A8684243D9F87D
:104180000000012811D0CBA1684611F0F5F96A466C
:104190000221002003F093F9002CB2D009B0404670
:1041A000BDE8F08FFFF73DF8D6E7C6A1ECE72DE9B3
:1041B000F04788B003F005FBAB4C206B10F0F8FA29
:1041C0000546E06A10F0F4FA294610F0C7F9804677
:1041D0006169E069401A2062BEA00FF035FCC0A101
:1041E0006846626911F0C8F968460FF02DFCBFA15E
:1041F0006846E26911F0C0F968460FF025FCBEA1DF
:104200006846226A11F0B8F968460FF01DFC404676
:1042100010F011FB8946064632464B46B9A1684666
:1042200011F0AAF968460FF00FFCA06A10F0C0FA6E
:10423000414610F093F910F0EAFA05460246B4A19F
:10424000684611F099F968460FF0FEFB606910F0BE
:10425000AFFA0746206A10F0ABFA414610F048F971
:10426000394610F0EDF810F0D2FA0246ACA16846DB
:1042700011F082F968460FF0E7FB4146AC4810F0B8
:104280006DF9824610F0D7FA02460B46A9A168469E
:1042900011F072F968460FF0D7FBA94AA9A1684648
:1042A00011F06AF968460FF0CFFB206A6FF0C10782
:1042B000A84209D2A7A20121002003F000F940F68C
:1042C000B83001F02AFC0BE010F072FA01465046BB
:1042D00010F0E0FA08D2A3A20221002003F0EFF8C8
:1042E000384608B0BDE8F08783A16846226A11F01D
:1042F00043F968460FF0A8FBA0A16846A26A11F036
:104300003BF968460FF0A0FB32464B467DA168465C
:1043100011F032F968460FF097FB206A10F048FA66
:10432000414610F0E5F80546A06A10F041FA29462A
:1043300010F014F9606410F07EFA02460B4657A1A3
:10434000684611F019F968460FF07EFB606910F0BD
:104350002FFA616C10F0CCF810F040FAA0633148ED
:104360000068022802D0012802D006E088A200E0FE
:104370008BA20221002003F0A2F84FF4FA64204639
:1043800001F0CBFB204601F0C8FB6FF06400A8E70A
:104390002DE9F04F0446874899B00026D0F80090E8
:1043A00003F00FFADFF810821E4F2F4DD8F80000EF
:1043B000012818D002F0BDFE386801282ED0687997
:1043C000002C2CD001282BD07CA20021084603F021
:1043D00076F802F0AEFE7DA168462A6B11F0CCF8AB
:1043E0006A46022146E13868012803D0002C18D023
:1043F0007AA2EAE78CB102F0A0FE00217AA2084678
:1044000003F05DF802F095FE7AA168462A6B11F080
:10441000B3F802216A460020F4E0FBE006E125E162
:104420003DE101E1CC00002043555252454E54205D
:104430005745494748540000454E5445523A4E4569
:10444000585400000000002044390020C7F6C0E79F
:10445000B9ABB0D4C8AEC0CE00000000C8AEC0CE6C
:10446000C5B03AB4D9C0BD00040000207261775FC6
:1044700064617461203A202566000000765F616403
:1044800063315F6F7267203A20256400765F616454
:10449000635F6F7267203A2025640000676E66468E
:1044A0006163746F72203A202566000008010020C5
:1044B000403900205745494748543A25366C642016
:1044C0006B670000B9ABB0D43A25366C64206B67DB
:1044D00000000000313233343536373839300000CF
:1044E000565F5A45524F3D256C640000565F465555
:1044F0004C4C3D256C640000565F5350414E3D25A9
:104500006C640000726174696F3D256600000000F4
:104510006C6F775F6C696D6974203A2025640000C8
:10452000686967685F6C696D6974203A202564006A
:104530000024744B6572723235203A2025660000E3
:104540000024F40046554C4C5F4C494D4954203AE8
:10455000202564004552524F52203234202121211F
:10456000000000004552524F52203235203A20536D
:1045700050414E204849474800000000765F695F7F
:104580007265736F6C7574696F6E203A20256400D4
:104590002020535543434553532021212000000040
:1045A00020B9ABB0D4C1B6C1A420BCBAB0F82121A7
:1045B00000000000F0380020BC00002020535041D3
:1045C0004E2043414C283229000000002055504C19
:1045D0004F41442025356C64206B670020535041C7
:1045E0004E2043414C0000002020BDBAC6C7C1B6D2
:1045F000C1A4000025356C64206B67BFC3B8AEBC96
:10460000BCBFE40002F05BFF02F097FD02F095FDF5
:10461000F5A235E002F091FD0021F6A2084602F075
:104620004EFF02F086FDF1E7F5A2CEE668798CB187
:10463000012819D0F5A20021084602F040FF02F03F
:1046400078FDAFF2500168462A6B10F095FF6A467C
:10465000022103E0012805D0EFA20021002002F092
:104660002EFFD3E7F0A2F8E7F3A2E4E7012814D085
:10467000F4A20021002002F022FF02F05EFDF5A26C
:104680000621002002F01BFF02F053FDD8F80000C5
:10469000DFF8D0A3012804D016E0F3A2E9E7F6A2E0
:1046A00093E69AF800004FF00004012806D1FEF7C7
:1046B000B8FD641CE4B2142CF9D305E0FEF70DFF3D
:1046C000641CE4B2142CF9D3B846AB4657469BF8A9
:1046D00005005D460128387823D0012832D0FEF746
:1046E0001FFF0446D8F80000224601282DD0E6A17D
:1046F000684610F041FF6A460421002002F0DFFE08
:1047000002F03BFB28B1E348008805281FD0FFF7E3
:104710001DFC002EDBD0E0492046C1F8009019B006
:104720003EE5012809D0FEF7D8FE0446D8F800007F
:104730002246012804D0D9A1DAE7FEF772FDF4E79A
:10474000D9A1D5E7FEF7C0FDCBE7DBA1D0E76879BB
:10475000012600240128387803D00128254612D0EC
:1047600018E001284FF0000506D1FEF75AFD6D1C38
:104770000444322DF9DB13E0FEF7AFFE6D1C044458
:10478000322DF9DB0CE0FEF79FFD6D1C0444322D49
:10479000F9DB05E0FEF7C4FE6D1C0444322DF9DBA5
:1047A000322094FBF0F4B4E72DE9F04F4FF000090C
:1047B0008BB04D464C4602F039FC03F002F8DFF8AE
:1047C000088398F8050001287ED0D8F83460BF48E7
:1047D0004FF00A0A96FBF0F100FB116142F21070F3
:1047E00091FBF0F1ADF8201096FBF0F100FB1161A8
:1047F0004FF47A7091FBF0F1ADF8221096FBF0F1D6
:1048000000FB1161642091FBF0F1ADF8241096FBE0
:10481000F0F100FB1161504691FBF0F1ADF826106C
:1048200096FBFAF10AFB1160ADF8280002F085FC56
:10483000A748A84F00680128386856D0012898F882
:1048400005005ED0012872D0A3A20021084602F024
:1048500036FE3246A4A1684610F08EFE6A46042158
:10486000002002F02CFEAFF230420621002002F0C0
:1048700026FE02F05EFC40F6C41B08AEBDF9201017
:1048800042F210704143BDF922006D1C00EB400262
:10489000C2EBC01001EBC001BDF924005D4500EB87
:1048A000C00202EB001001EB8001BDF9260000EB15
:1048B000800001EB4000BDF9281000EB01083AD15F
:1048C00038684246012800E00CE032D086A16846F4
:1048D00010F052FE6A460421002002F0F0FD02F0C2
:1048E0002CFC3CE0D8F82C6071E7012801D083A2B1
:1048F000ABE7002185A2084602F0E1FD324687A120
:1049000008E0012811D08AA20021084602F0D7FD54
:1049100032468BA1684610F02FFE6A460421002023
:1049200002F0CDFD8BA2A0E701E08EA2ECE791A200
:104930008BE77AA1CBE741F2883085421DDD002567
:1049400002F0F7FB38684246012824D066A1684689
:1049500010F012FE6A460421002002F0B0FDC4F1FE
:10496000040088A136F91020684610F005FEC4F155
:104970000C006A46042102F0A2FD02F0FEF918B311
:1049800044480088012808D0022813D004281CD0ED
:10499000052821D124E061A1D9E7C4F1040036F84B
:1049A0001010491C09B291FBFAF326F810100AFB0B
:1049B000131107E0C4F1040036F9101009B1491EC3
:1049C00000E0092126F8101006E0641CA0B20521C1
:1049D000B0FBF1F201FB1204B9F1000F3FF44EAF4E
:1049E0000BB04046BDE8F08F20C8AEC0CE203ABD27
:1049F000C3C0DB002020BFB5C1A1C1B6C1A4000067
:104A0000205A45524F2043414C000000BDBAC6C752
:104A1000C1B6C1A42832290020BFB5C1A1C1B6C109
:104A2000A42832290000000020BFB5C1A1C1B6C131
:104A3000A428312900000000BDBAC6C7C1B6C1A470
:104A400028312900205A45524F2043414C28322911
:104A50000000000020454E5445523A5354415254F0
:104A60000000000000000020205A45524F20434122
:104A70004C28312900000000205350414E20434172
:104A80004C283129000000004144432832293A25AE
:104A9000376C640008010020F03800204144433A9C
:104AA00025376C640000000020C3E2B7C2B0AA3A08
:104AB00025376C6400000000C3E2B7C22832293AEF
:104AC00025376C640000000004000020A08601006F
:104AD000BC000020CC000020204C4F414420574512
:104AE0004947485428322900574549474854203AF5
:104AF0002530356C64206B6700000000204C4F416E
:104B000044205745494748540000000020BFC3B81F
:104B1000B1B9ABB0D420BCB3C1A4000020B9ABB0D4
:104B2000D4B0AA3A2530356C64206B6700000000D1
:104B300020BFC3B8B1B9ABB0D428322900000000FF
:104B400020B9ABB0D4B0AA203A2530356C64206BC4
:104B50006700000020C8AEC0CEC5B03AB4D9C0BD11
:104B60000000000020BFC3B8B1B9ABB0D4283129D0
:104B700000000000204C4F4144205745494748540D
:104B800028312900253164002DE9F047002792B033
:104B900006463C4602F015FE02F0CFFAF9480068DE
:104BA000012867D0F8A20021084602F088FC02F034
:104BB000C0FAFA484FF00A0896FBF0F100FB1161C9
:104BC00042F2107091FBF0F1ADF8341096FBF0F169
:104BD00000FB11614FF47A7091FBF0F1ADF83610E3
:104BE00096FBF0F100FB1161642091FBF0F1ADF850
:104BF000381096FBF0F100FB1161404691FBF0F19B
:104C0000ADF83A1096FBF8F108FB1160ADF83C00E6
:104C100040F6B83A0DAEBDF9341042F2107041437F
:104C2000BDF936006D1C00EB4002C2EBC01001EB79
:104C3000C001BDF93800554500EBC00202EB001081
:104C400001EB8001BDF93A0000EB800001EB400070
:104C5000BDF93C1000EB01090ED14A46D0A16846CF
:104C600010F08AFC6A460421002002F028FC02F0C1
:104C700064FA12E0CFA296E741F2707085421BDD24
:104C8000002502F056FA4A46C5A1684610F074FCA9
:104C90006A460421002002F012FCC4F1040036F937
:104CA0001020AFF22011684610F066FCC4F10C0031
:104CB0006A46042102F003FC02F05FF808B3C24820
:104CC0000088012806D0022811D004281AD005280F
:104CD0001FD121E0C4F1040036F81010491C09B2BC
:104CE00091FBF8F326F8101008FB131107E0C4F14C
:104CF000040036F9101009B1491E00E0092126F818
:104D0000101006E0641CA0B20521B0FBF1F201FB1B
:104D10001204002F3FF47FAF12B04846BDE8F08781
:104D20002DE9F041A0B000261822A84919A80FF0DB
:104D30002BFB002702F001FADFF84882A448A54CBB
:104D4000D8F800100068012904D001280CD00228EE
:104D500009D00EE0012802D0022802D009E09EA26C
:104D600003E06079FBE760799FA20021084602F02A
:104D7000A6FB02F0DEF9607919AD01284FF00000C2
:104D800005D0E16855F820208A420AD00DE0A168DC
:104D900055F820208A4204D0401CC0B20628F7D320
:104DA00007E0062805D244B204E0401CC0B2062841
:104DB000E8D30024D8F8000055F82420012822D098
:104DC0008DA1684610F0D8FB6A460221002002F04F
:104DD00076FB8CA20421002002F071FB02F0ADF9F9
:104DE0008CA20621002002F06AFB02F0A2F901F079
:104DF000C4FFE0B374480088012816D002281CD0F4
:104E0000052825D121E087A1684610F0B5FB6A4648
:104E10000221002002F053FB85A20421002002F0B1
:104E20004EFB02F08AF986A2DBE7641C64B2052C13
:104E30000EDD0524FFF78AF80AE0641E64B2002C38
:104E400006DAFFF783F8002402E055F82470012603
:104E5000D8F8000055F8242001280ED066A1684635
:104E600010F08AFB6A460221002002F028FB002E87
:104E7000BDD020B03846BDE8F0816AA1EFE710B59B
:104E80008EB002F0D3F802F09CFC3E480068012886
:104E900046D06FA20021084602F011FB4FF47A7051
:104EA00000F03BFEFFF73CFF4A4CA060E06AFFF7D2
:104EB0006BFE0A222261E06269A1684610F05CFB89
:104EC00068460EF0C1FDA168E06AB0FBF1F26BA18B
:104ED0006846626210F050FB68460EF0B5FD626AEB
:104EE00020694243AFF66C116846A26210F044FBA1
:104EF00068460EF0A9FD0020FFF74AFA6061FFF74F
:104F000053FC206302F015F90120FFF741FAE0613C
:104F1000FFF74DF9FFF780F801F028FB0EB010BD48
:104F20005BA2B7E72DE9F04F002489B0A04602F05C
:104F300048FC14480068012817D0AFF6143200214D
:104F4000084602F0BCFA02F0F8F8AFF61432062177
:104F5000002002F0B4FA02F0ECF8514F514E4FF03D
:104F60000005387801280BD0AAE0AFF620320021E6
:104F7000084602F0A4FA02F0E0F8AFF62032E6E7C5
:104F800092E00000CC0000202020434150414349E2
:104F9000545920202020202000000000A08601007D
:104FA00056414C5545203A202530356C6420202050
:104FB0000000000020C3D6B4EBB9ABB0D420BCB322
:104FC000C1A420200000000008010020F05E0108BC
:104FD000BC0000200400002020C7D1B4ABC0C7B083
:104FE000AA20BCB3C1A40000202044495649494F1F
:104FF0004E20534554200000204449563A2532643F
:10500000206B67002055502D444F574E3A53454C66
:105010004543540020454E5445523A204E4558547D
:105020000000000020B0AA3A253264206B6700001F
:10503000C0A72CBEC6B7A1C5B03A20BCB1C5C3003D
:1050400020C8AEC0CEC5B03A2020B4D9C0BD000043
:1050500020202043414C20204D4F4445202000007B
:10506000765F65695F6D756C7469706C795F666198
:1050700063746F72203A202564000000765F655FDC
:105080007265736F6C7574696F6E203A20256400C9
:105090002020B9ABB0D4C1B6C1A4202000000000CC
:1050A0000000002044390020FEF70EF90FF080FBCD
:1050B0000FF094FB6D1CEDB23060642DF4D30AE068
:1050C000FEF72EFA0FF074FB0FF088FB6D1CEDB2AB
:1050D0003060642DF4D3FB4DA86928640FF068FBA1
:1050E000A96C0FF005FA0FF079FBA863AFF68441C5
:1050F0006846326810F040FA68460EF0A5FCAFF63C
:10510000844168462A6C10F037FA68460EF09CFC21
:10511000AFF688416846AA6B10F02EFA68460EF08A
:1051200093FCA86C0FF087FB02460B46E6A168468D
:1051300010F022FA68460EF087FCDFF8A0A3B9460B
:10514000DFF89CB301F019FE08B3BAF80000574627
:10515000012808D1286C0FF02BFBA96C0FF0C8F9BF
:105160000FF03CFBA8633888022803D03888052854
:105170000AD00CE0A8690FF01BFBA96C0FF0B8F97E
:105180000FF02CFBA86302E001246FF0640899F88B
:105190000000012822D0FEF7C3F930600FF0FFFABB
:1051A000A96C0FF0A5F90FF019FBCBF80000A96B63
:1051B000401A296900EB5100B0FBF1F2E868C9A17F
:1051C0004243684610F0D8F96A460221002002F0F6
:1051D00076F9002CB6D0404609B003E4FEF774F827
:1051E000DBE72DE9F04788B002F0EBFAB54C206B15
:1051F0000FF0DEFA0546606B0FF0DAFA29460FF081
:10520000ADF98046D4E90610401A2062AFF63C5052
:105210000EF01AFCAFF638516846A26910F0ACF9EE
:1052200068460EF011FCAFF63C516846E26910F09A
:10523000A3F968460EF008FCAFF644516846226AAE
:1052400010F09AF968460EF0FFFB40460FF0F3FAB3
:105250008946064632464B46AFF65851684610F02E
:105260008BF968460EF0F0FBA06A0FF0A1FA4146F8
:105270000FF074F90FF0CBFA05460246AFF6705105
:10528000684610F079F968460EF0DEFBA0690FF071
:105290008FFA0746206A0FF08BFA41460FF028F983
:1052A00039460FF0CDF80FF0B2FA0246AFF6905142
:1052B000684610F061F968460EF0C6FB41468C481E
:1052C0000FF04CF982460FF0B6FA02460B46AFF6E5
:1052D0009C51684610F050F968460EF0B5FB854ABF
:1052E000AFF6A051684610F047F968460EF0ACFBE7
:1052F000206A6FF0C107A84202D27FA2012109E013
:105300000FF056FA014650460FF0C4FA08D2AFF635
:10531000AC520221002002F0D2F8384608B0FDE479
:10532000AFF62C616846226A10F026F968460EF046
:105330008BFBAFF6B8516846A26A10F01DF96846BB
:105340000EF082FB32464B46AFF64861684610F0DD
:1053500013F968460EF078FB206A0FF029FA4146EF
:105360000FF0C6F80546A06A0FF022FA29460FF0A2
:10537000F5F8A0640FF05FFA02460B4652A16846AA
:1053800010F0FAF868460EF05FFBA0690FF010FA13
:10539000A16C0FF0ADF80FF021FAE0635CA20221DE
:1053A000002002F08CF84FF4FA64204600F0B5FBC0
:1053B000204600F0B2FB6FF06400AFE710B58EB08E
:1053C00002F0FFF9002156A2084602F078F84FF4E7
:1053D0007A7000F0A2FB574909200860FFF7A0FC93
:1053E000384CE060E06AFFF7CFFB0A22AFF2903161
:1053F00022616063684610F0BFF868460EF024FB37
:10540000E168606BB0FBF1F2AFF290316846626226
:1054100010F0B2F868460EF017FB626A206942434A
:10542000AFF6A8616846A26210F0A6F868460EF0D2
:105430000BFB0020FEF7ACFFA061FFF7B5F920637E
:105440000120FEF7A5FFE061FFF7CBFEFFF76AFD45
:1054500001F08CF862E52DE9F041AAB00026402267
:10546000354919A80EF090FF002701F0DFFD02F08A
:10547000A8F901F062FEDFF8C480D8F80000012826
:1054800013D02FA20021084602F019F801F051FEB6
:105490000C4919AD487901284FF0000007D0496B3D
:1054A00055F820208A425BD05EE029A2EAE7C96A6B
:1054B00055F820208A4253D0401CC0B20E28F7D3A2
:1054C00056E0000004000020676E66466163746F5A
:1054D000725F32203A20256600000000080100209B
:1054E0004039002053494C4F5F323A25376C6400F5
:1054F0000024744B0024F4004552524F52203234A1
:10550000203A205350414E204C4F572000000000BD
:105510002020535543434553532020202020200072
:105520002020202043414C20204D4F444520202066
:1055300000000000F0380020085F0108CC000020C7
:105540005345542043415041434954590000000001
:10555000C3D6B4EBB9ABB0D420BCB3C1A400000037
:105560000E2805D244B204E0401CC0B20E2897D3E6
:105570000024D8F8000055F82420012825D0D2A115
:1055800068460FF0F9FF6A460221002001F097FFFC
:1055900001F0D3FDAFF294520421002001F08FFFFF
:1055A000AFF290520621002001F089FF01F0C1FD09
:1055B00001F0E3FB00283ED0C6480088012818D03F
:1055C00002281ED0052827D123E0C3A168460FF08A
:1055D000D3FF6A460221002001F071FFAFF2B05202
:1055E0000421002001F06BFF01F0A7FDAFF2B052E3
:1055F000D8E7641C64B20F2C0EDD0F24FEF7A6FC66
:105600000AE0641E64B2002C06DAFEF79FFC002458
:1056100002E055F824700126D8F8000055F824203F
:1056200001280DD0A8A168460FF0A6FF6A46022106
:10563000002001F044FF002EBAD038462AB01AE408
:10564000A5A1F0E72DE9FE4FDFF898B2DFF89892B8
:10565000A64EA74C804601254FF0000AA54F4021D9
:1056600038460EF0DDF92D2138460EF0D9F92179B2
:10567000384630310EF0D4F9522138460EF0D0F9C8
:105680000D2138460EF0CCF90A2138460EF0C8F943
:105690002079401CC0B22071042800D92571C8208F
:1056A00000F03BFA9BF8001000297DD092488BF85F
:1056B00000A05746C0F800A099F8010049463128DB
:1056C00006D0322828D033284AD0342823D16CE0A1
:1056D00088788A4A30385043CA7840F271235A4356
:1056E00000EB0212087900EB4003C3EBC01002EBA1
:1056F000C002487900EBC00303EB001002EB80020C
:10570000887999F8071000EB800002EB400008440C
:105710003044E06425706BE08878784A3038504334
:10572000CA7840F271235A4300EB0212087900EB69
:105730004003C3EBC01002EBC002487900EBC0038A
:1057400003EB001002EB8002887999F8071000EB58
:10575000800002EB4000084430442065657047E05B
:105760008878664A30385043CA7840F271235A43E9
:1057700000EB0212087900EB4003C3EBC01002EB10
:10578000C002487900EBC00303EB001002EB80027B
:10579000887999F8071000EB800002EB400008447C
:1057A00030446065A57023E04EE08878534A303875
:1057B0005043CA7840F271235A4300EB0212087931
:1057C00000EB4003C3EBC01002EBC002487900EBD2
:1057D000C00303EB001002EB8002887999F80710F0
:1057E00000EB800002EB400008443044A065E57007
:1057F000D4E9132C636D02EB0C00C118A06DB8F155
:10580000000F0144E16512D0CDF800C0CDE90130B0
:1058100013460A463AA146480FF0AEFED4E91501F8
:10582000CDE90001D4E9132342A1414804E0CDE9C8
:10583000003063463FA13E480FF09EFE2770677020
:10584000A770E7700EF037FB01F031FA00283FF443
:1058500005AF3E48008814287FF400AFE06DBDE836
:10586000FE8F2DE9F041224C00252E4638A130480C
:10587000226B0FF081FE246B3C4FDFF8D08001F0EB
:1058800016FAD0B1B8F80000385C0C2810D2DFE866
:1058900000F0060606060606060606060C0E04EBD3
:1058A0008401012600EB410402E0002400E0012510
:1058B00022462FA11E480FF05FFE002DDFD0002EE4
:1058C00000D02046BDE8F081204341503A253564A0
:1058D000206B67000801002020B0AA3A253564201B
:1058E0006B67000022380020D2940020B0DCF7FF64
:1058F000040000200044004048380020A086010039
:105900005350414E2053554D3D25366C752C20315A
:105910003D25366C752C20323D25366C752C203398
:105920003D25366C752C20343D25366C7500000005
:10593000CC3F00202825366C752C25366C752C251F
:10594000366C752C25366C75290000000601002088
:1059500034202D2053657474696E675F57656967DD
:105960006874203D2025366C752000001001002051
:1059700034202D2053657474696E745F57656967B0
:105980006874203D2025366C7520000010B54FF45A
:10599000803420460FF0E0FB0FF03AFC6349012809
:1059A00008701CD100200FF0CDFB00200FF0FEFB93
:1059B000A0110FF0F1FB4FF4E01120460FF006FCB0
:1059C00001200FF0FDFB39200FF09CFB0028FAD0DE
:1059D00002200FF013FC0FF0ADFB0828FBD10121D2
:1059E00004200FF02DFB012108200FF029FB0121DD
:1059F00010200FF025FB012120200FF021FB0121B9
:105A000040200FF01DFB012180200FF019FB012128
:105A100008020FF015FB012108460FF011FB0121D0
:105A200008460FF0F5FA012102200FF0F1FA0121EA
:105A300048030FF005FB012188030FF001FB012152
:105A400048040FF0E5FA012188040FF0E1FA012182
:105A5000C8040FF0DDFA012103200FF0CDFA012177
:105A60004FF402400FF0ECFA012148050FF0D0FA94
:105A70000121BDE8104048070FF0CABA08B5C020A0
:105A8000ADF8000003208DF802001C208DF8030003
:105A9000694627480FF0C0F908BD38B54FF44051AA
:105AA0004FF000600FF098FA4FF4C0600FF08AFAE0
:105AB00014208DF8000000248DF801408DF802407C
:105AC00001258DF8035068460FF042FA03208DF847
:105AD00000008DF801408DF802408DF803506846B3
:105AE0000FF036FA38BD41061248826942F00102D1
:105AF00082611148426822F0E062426042680A43D3
:105B00004260704702E00A21491EFDD2401EFAD2CF
:105B100070474FF47A714843F4E742F2107302E0A1
:105B20001946491EFDD2401EFAD27047AC00002033
:105B3000000C01400010024000000140024611B973
:105B4000012070475043491E11F0FF01FAD1704700
:105B50001FB50020ADF804004BF6FF70ADF806004D
:105B6000A020ADF808004FF48060ADF80A000001F5
:105B7000ADF80C00FD48FE4C0090694620460EF042
:105B8000CDF9012120460EF02FFA1FBD10B5FFF709
:105B9000DFFFF849A220088010BD38B50020ADF81D
:105BA0000000F34CF34D012120460EF03BFA142186
:105BB00020460EF086FAADF8000029780022204633
:105BC0000EF077FA142120460EF07BFA8007EAD512
:105BD000E94920460EF0ECFA2046BDE838400121A4
:105BE0000EF02ABA2DE9F041E14E884605461446EA
:105BF000012130460EF016FAE04F304639460EF0DD
:105C0000BFFA0028F9D0DB480022017830460EF0B8
:105C100050FADB4F304639460EF0B2FA0028F9D080
:105C2000414630460EF040FAD54FBF1C394630464B
:105C30000EF0A6FA0028F9D00AE0297830460EF0D6
:105C400033FA6D1C394630460EF09AFA0028F9D026
:105C50002000A4F10104E4B2EFD13046BDE8F041E8
:105C600001210EF0E9B92DE9F041054611F00F00D0
:105C70000C4602F00F01C0F11007C2F30716884668
:105C800011D08EB1D01BC0F3071600F00F088FB3F0
:105C90003A4621462846FFF7A5FFFFF77EFFE019A9
:105CA000C4B23D4426E05EB90A4612E01022214605
:105CB0002846FFF797FFFFF770FF1034E4B2103566
:105CC0003000A6F10106F6B2F0D15FEA080017D065
:105CD000024621462846FFF785FFBDE8F0415CE714
:105CE000102221462846FFF77DFFFFF756FF1034AC
:105CF000E4B210353000A6F10106F6B2F0D1E4E7C7
:105D0000BDE8F0812DE9F041994E0F460546144655
:105D1000012130460EF086F9DFF8608230464146B8
:105D20000EF02EFA0028F9D0924800220178304671
:105D30000EF0BFF9DFF84882304641460EF020FAF7
:105D40000028F9D0F9B230460EF0AEF98C4FBF1CE6
:105D5000394630460EF014FA0028F9D00AE02978C6
:105D600030460EF0A1F9AD1C394630460EF008FA67
:105D70000028F9D02000A4F10104A4B2EFD13046EC
:105D8000BDE8F04101210EF057B92DE9F04105467B
:105D900011F00F000C4602F00F01C0F11007C2F322
:105DA0000716884612D096B1D01BC0F3071600F034
:105DB0000F0897B33A4621462846FFF7A3FFFFF79F
:105DC000ECFEE01984B205EB470526E05EB90A4611
:105DD00012E0102221462846FFF794FFFFF7DDFE70
:105DE0001034A4B220353000A6F10106F6B2F0D18D
:105DF0005FEA080084D0024621462846FFF782FF6A
:105E0000BDE8F041C9E6102221462846FFF77AFF97
:105E1000FFF7C3FE1034A4B220353000A6F101060E
:105E2000F6B2F0D1E4E76BE72DE9F041504C0F46B4
:105E30000546012120460EF0F5F8504E2046314629
:105E40000EF09EF90028F9D04A4800220178204639
:105E50000EF02FF94A4E204631460EF091F90028F7
:105E6000F9D0394620460EF01FF92646444CA41CB2
:105E7000214630460EF084F90028F9D029783046C2
:105E80000EF012F9214630460EF07AF90028F9D0CA
:105E90003046BDE8F04101210EF0CEB82DE9F047C3
:105EA000334F8A4605461446012138460EF0BAF8AB
:105EB000324E384631460EF063F90028F9D0DFF84B
:105EC000B4800022384698F800100EF0F2F8DFF89F
:105ED000B090384649460EF053F90028F9D0012118
:105EE00038460EF081F8514638460EF0DDF8DFF8FE
:105EF000909009F10209494638460EF041F9002810
:105F0000F9D0012138460EF08DF8314638460EF0B2
:105F100037F90028F9D098F8001001223E4638469B
:105F20000EF0C7F8154F7F1C394630460EF028F9A1
:105F30000028F9D0114F3F37BCB1012C07D1002107
:105F400030460EF083F8012130460EF075F83946E0
:105F500030460EF015F90028EED030460EF0A6F8C7
:105F6000641E05F8010BA4B2E6E70BE0A086010071
:105F700000540040B00000200004001001000300A5
:105F8000820007003046BDE8F04701210EF05EB800
:105F9000F8B50C4607464FF480761546002130468A
:105FA0000FF02AF8012D10D0022D11D00094F9B273
:105FB00004226846FFF757FE0120FFF7AEFD0121DE
:105FC00030460FF019F82046F8BD8DF80040EEE796
:105FD000ADF80040EBE7F8B50C4606464FF4807587
:105FE000002128460FF008F80120FFF796FDF1B2D6
:105FF00004226846FFF752FF012C0BD0022C0CD074
:10600000009C0120FFF789FD012128460EF0F4FFD6
:106010002046F8BD9DF80040F3E7BDF80040F0E7EA
:106020002DE9F04104218420FFF7D5FFFE490860E7
:1060300004211820FFF7CFFFFC490860042110203D
:10604000FFF7C9FFFA4FFB4C43F698253860A04292
:1060500000D33D6004210C20FFF7BDFFF649086026
:1060600004218820FFF7B7FF804609210A20FFF7A7
:1060700065FD0EF094FB064640460EF099FB314656
:106080000EF06CFAED4908600421B020FFF7A3FF81
:10609000EB4908600421C020FFF79DFFE949086033
:1060A0000421BC20FFF797FFE749A042086000D316
:1060B0000D600421B820FFF78EFFE4490860042139
:1060C000AC20FFF788FF054609210A20FFF736FDBF
:1060D0000EF065FB044628460EF06AFB21460EF0E2
:1060E0003DFADB49086004211C20FFF774FFD94901
:1060F00001260228086000D30E6004212020FFF74B
:106100006AFFD5490860401E322801D31420086078
:1061100004212C20FFF75FFFD049B0F5FA7F08601B
:1061200001D9322008600421F020FFF754FFCC4C45
:10613000E060401E022800D3E66004217C20FFF7C7
:106140004AFFC84900250028086002DB3A688242FD
:1061500000D20D6004218020FFF73DFFC2490028D6
:10616000086002DB3A68824200D20D6004218C2074
:10617000FFF731FF6060A0F5D850583841F27171D7
:1061800042F21077884200D3676004217420FFF741
:1061900022FF41F65831A060884204DB606843F278
:1061A000C821884200DDA7600421A420FFF713FF67
:1061B000AE490860401E3C2801D33C200860042101
:1061C000F820FFF708FF20610A38B0F5F57F00D905
:1061D00025610421FC20FFF7FEFE6061643842F275
:1061E000AD61884200D3656104218801FFF7F3FEA9
:1061F000A061401E0A27322800D3A761042178201D
:10620000FFF7E9FEE061022800D3E6610421EC20FB
:10621000FFF7E1FE2062022800D326620421382025
:10622000FFF7D9FE92496428086000D30F6004216B
:106230003C20FFF7D0FE8F494FF47A784045086044
:1062400000D90D6004214020FFF7C5FE8A498B4A22
:106250000860904200D90D6004219020FFF7BBFE3A
:1062600087490228086000D30E6004219420FFF7BC
:10627000B2FE844E84493060884200D335600421E8
:106280009820FFF7A8FE81494045086000D30D60C3
:1062900004219C20FFF79FFE7D496428086000D3FD
:1062A0000D600421A020FFF796FE7A4902280860BD
:1062B00000D30D6004212820FFF78DFE60620B28BB
:1062C00000D3676204219420FFF785FE30600A2026
:1062D000FFF723FC7049306808447049884201D3B5
:1062E0006F48306004214420FFF775FE6D49086057
:1062F0000A20FFF712FC04214820FFF76CFE6A4ECB
:1063000030600A20FFF709FC04214C20FFF763FEF0
:1063100070600A20FFF701FC04215020FFF75BFEAC
:10632000B0600A20FFF7F9FB04215420FFF753FE69
:10633000F0600A20FFF7F1FB04215820FFF74BFE25
:1063400030610A20FFF7E9FB04215C20FFF743FEE0
:1063500070610A20FFF7E1FB04216020FFF73BFE9C
:10636000B0610A20FFF7D9FB04216420FFF733FE58
:106370004E4908600A20FFF7D0FB0421E820FFF710
:106380002AFE4B4908600A20FFF7C7FB0421C820FA
:10639000FFF721FE474E30600A20FFF7BEFB0421C5
:1063A000CC20FFF718FE70600A20FFF7B6FB04212F
:1063B000D020FFF710FEB0600A20FFF7AEFB0421EB
:1063C000D420FFF708FEF0600A20FFF7A6FB0421A7
:1063D000D820FFF700FE30610A20FFF79EFB042162
:1063E000DC20FFF7F8FD70610A20FFF796FB04211F
:1063F000E020FFF7F0FDB0610A20FFF78EFB0421DB
:10640000E420FFF7E8FD2C4908600A20FFF785FB30
:1064100004210020FFF7DFFD2849A062884200D355
:10642000A562042108464BE018000020240000204B
:106430003000002040420F000C00002048000020E7
:106440001C00002064000020380000201000002004
:106450004C000020EC380020F0380020F4380020F8
:10646000B000002004390020083900200C39002039
:10647000F8380020FC380020003900208038010066
:10648000283900202C3900208096980030390020CF
:106490003439002038390020600FE6FF21D6130080
:1064A00068881E001439002048AE002018390020EA
:1064B0002039002064AE00202439002001E1F505D8
:1064C000FFF789FDE06204211420FFF784FD2063BB
:1064D00004216820FFF77FFD606304216C20FFF733
:1064E0007AFDA06304217020FFF775FDE063E06A88
:1064F00064389C2838D37021D920C4E90B10D420EB
:106500006063FA20A06342F2C7000422E0631046F1
:10651000FFF73EFDE0621E20FFF7FFFA0422142081
:10652000216BFFF735FD20631E20FFF7F6FA0422EA
:106530006820616BFFF72CFD60631E20FFF7EDFA0A
:1065400004226C20A16BFFF723FDA0631E20FFF740
:10655000E4FA04227020E16BFFF71AFDE063BDE866
:10656000F0411E20FFF7D9BA5DE4704738B500212D
:106570004FF480700EF040FDC04804228421006872
:1065800000906846FFF76FFB0A20FFF7C6FABC4889
:1065900004220C21006800906846FFF764FB0A2083
:1065A000FFF7BBFAB7480422102100680090684644
:1065B000FFF759FB0A20FFF7B0FA09210A20FFF77D
:1065C000BDFA0EF0ECF8B04909680DF091FF0EF03D
:1065D0001EF90090042288216846FFF744FB0A2038
:1065E000FFF79BFAA948042218210068009068462A
:1065F000FFF739FB0A20FFF790FAA5480422B021E3
:10660000006800906846FFF72EFB0A20FFF785FA26
:10661000A0480422B821006800906846FFF723FBD9
:106620000A20FFF77AFA9C480422BC2100680090F7
:106630006846FFF718FB0A20FFF76FFA09210A20C6
:10664000FFF77CFA0EF0ABF8944909680DF050FFA3
:106650000EF0DDF800900422AC216846FFF703FB42
:106660000A20FFF75AFA8E480422C02100680090E1
:106670006846FFF7F8FA0A20FFF74FFA8948002129
:106680000078012807D0884C042280202160FFF781
:106690007FFC206038BD854C04227C202160F6E719
:1066A0007B4808B5006800900422B0216846FFF7D7
:1066B000DAFA0A20FFF731FA76480422B821006896
:1066C00000906846FFF7CFFA0A20FFF726FA7248D3
:1066D0000422BC21006800906846FFF7C4FA0A2033
:1066E000FFF71BFA09210A20FFF728FA0EF057F8E6
:1066F0006A4909680DF0FCFE0EF089F8009004224A
:10670000AC216846FFF7AFFA0A20FFF706FA6448A3
:106710000422C021006800906846FFF7A4FA0A200E
:10672000FFF7FBF908BD10B5614C04226420216815
:10673000FFF72EFC20600A20FFF7EFF95D4C0422E2
:1067400044202168FFF724FC20600A20FFF7E5F9C8
:10675000594C216804224820FFF71AFC20601E20B3
:10676000FFF7DBF9616804224C20FFF711FC606041
:106770001E20FFF7D2F9A16804225020FFF708FC81
:10678000A0601E20FFF7C9F9E16804225420FFF73A
:10679000FFFBE0601E20FFF7C0F9216904225820AA
:1067A000FFF7F6FB20611E20FFF7B7F961690422AD
:1067B0005C20FFF7EDFB60611E20FFF7AEF9A169D9
:1067C00004226020FFF7E4FBA0611E20FFF7A5F97B
:1067D0003A4C0422E4202168FFF7DAFB20600A200B
:1067E000FFF79BF9364C0422E8202168FFF7D0FB25
:1067F00020600A20FFF791F9324C21680422C8205A
:10680000FFF7C6FB20601E20FFF787F961680422AE
:10681000CC20FFF7BDFB60601E20FFF77EF9A1686A
:106820000422D020FFF7B4FBA0601E20FFF775F90B
:10683000E1680422D420FFF7ABFBE0601E20FFF7E5
:106840006CF921690422D820FFF7A2FB20611E20E9
:10685000FFF763F961690422DC20FFF799FB6061AF
:106860001E20FFF75AF9A1690422E020FFF790FBF0
:10687000A061BDE810401E20FFF74FB918000020AE
:106880000C000020300000204800002024000020E0
:106890001C00002010000020380000204C000020C8
:1068A000640000200900002008390020043900207D
:1068B000183900201439002048AE00202439002067
:1068C0002039002064AE00202DE9F84F4FF6BF10AC
:1068D000ADF8000010258DF8035003248DF8024018
:1068E0006946F8480EF098FA2F01ADF800708DF85F
:1068F00003508DF802406946F3480EF08DFAC0202F
:10690000ADF800008DF802401C208DF803006946A8
:10691000EE480EF081FA42F20400ADF800000426C1
:106920008DF803606946EA480EF076FAADF800404B
:106930008DF803508DF802406946E5480EF06CFA78
:106940004FF00209ADF800908DF803508DF8024029
:106950006946DE480EF060FA6802ADF80000DFF824
:1069600074A38DF802408DF80360694650460EF01E
:1069700053FAA802ADF800008DF802404FF0140859
:106980008DF80380694650460EF046FAADF8007067
:10699000DFF844B38DF802408DF80360694658462D
:1069A0000EF03AFA6801ADF800008DF802408DF85B
:1069B0000380694658460EF02FFA4FF4F060ADF8A8
:1069C00000008DF803508DF802406946C3480EF070
:1069D00023FA4FF47870ADF8000048208DF80300DA
:1069E000694650460EF018FA2802ADF800008DF8FE
:1069F00003508DF802406946B5480EF00DFA08279D
:106A0000ADF800708DF803508DF802406946584685
:106A10000EF002FAADF800608DF803508DF80240D8
:106A2000694658460EF0F8F9ADF800908DF803501D
:106A30008DF80240694658460EF0EEF90120ADF897
:106A400000008DF80360694658460EF0E5F94FF4F2
:106A50006070ADF800008DF8036069469C480EF048
:106A6000DBF9ADF800708DF80360694697480EF0C9
:106A7000D3F94FF46050ADF800008DF803508DF855
:106A80000240694658460EF0C7F9ADF800508DF83F
:106A900003508DF8024069468C480EF0BDF9012183
:106AA0008F480EF009FA01218E480EF005FABDE874
:106AB000F88F08B54FF48070ADF8000010208DF805
:106AC000030003208DF80200694680480EF0A4F907
:106AD00008BD08B54FF48070ADF8000048208DF86F
:106AE000030003208DF80200694678480EF094F9FF
:106AF00008BD10B5734C4FF4806120460EF014FAB7
:106B0000E11420460EF010FAA11420460EF00CFA03
:106B1000611420460EF008FA2046BDE810404FF4FC
:106B200080410EF003BA10B5664C4FF480612046E8
:106B30000EF0FAF9E11420460EF0F6F9A114204601
:106B40000EF0F2F9611420460EF0F0F92046BDE88F
:106B500010404FF480410EF0E7B910B5594C4FF496
:106B6000806120460EF0E0F9E11420460EF0DCF9D9
:106B7000A11420460EF0DAF9611420460EF0D4F983
:106B80002046BDE810404FF480410EF0CDB910B55D
:106B90004C4C4FF4806120460EF0C6F9E1142046BB
:106BA0000EF0C4F9A11420460EF0BEF9611420467F
:106BB0000EF0BAF92046BDE810404FF480410EF0C7
:106BC000B3B910B53F4C4FF4806120460EF0AEF9DA
:106BD000E11420460EF0A8F9A11420460EF0A4F905
:106BE000611420460EF0A0F92046BDE810404FF495
:106BF00080410EF099B970B5FFF7E3FF374D284695
:106C00000EF07EF91F2414EA901101D0012028E033
:106C1000FFF7BDFF28460EF073F914EA901101D07A
:106C200002201EE0FFF799FF28460EF069F914EAEA
:106C3000901101D0032014E0FFF775FF28460EF0F5
:106C40005FF914EA901101D004200AE0FFF751FF28
:106C500028460EF055F914EA901101D0102000E0FA
:106C600000200023102420251F4A102918D008DCFA
:106C700001290DD002290DD004290DD0082910D1E9
:106C80000CE0202904D0402904D0802909D103E058
:106C9000D38007E0D48005E0D58003E0302100E018
:106CA0004021D180D188084480B2D08070BD10B519
:106CB000FFF7A1FF0C49C888CA68824216D100209C
:106CC00010BD00000020014000080140000C014000
:106CD000001001400018014000140140001C014058
:106CE000000430000002300000010020C8600028CD
:106CF000E6D0FDF71CF99620FEF70FFFFDF700F92F
:106D00000120DDE710B5FFF776FF3548C088002881
:106D1000D6D00120D4E73EB5314C0025257031484E
:106D20000EF0EEF800F4F870208120894FF6FF7124
:106D300001EA4000208122892BA168460EF01CFC4C
:106D400021890120B1F5787F08D06070617841B168
:106D500021896289914203D1257002E06570F5E7CF
:106D60002070208960813EBD1D48002141708170E6
:106D70000181418103218180704710B5FFF7CBFF6E
:106D800017484178C9B10178B9B10189B1F5387FA7
:106D900015D00189B1F5687F13D00189B1F5F07F75
:106DA00011D00189B1F5587F0FD00189B1F5707FFD
:106DB0000DD00189E0290CD00DE0002080E70121F1
:106DC00008E0022106E0052104E0032102E004219D
:106DD00000E0062101810A20FDF7AEF801206FE7EF
:106DE000000100200018014020255800C0F30721B1
:106DF000C2B2A0F53040A13841F65D0398420FD8E9
:106E0000B039C1EB011000EB411002EB4000FF4A2A
:106E1000A13812F8101002EB4000407840EA01203F
:106E200070472DE9F041FA4D0F4604464FF40076C5
:106E3000314628460EF078F8394628460EF078F8A4
:106E4000EF147F2C3946284626D00EF06FF84FF409
:106E50008064214628460EF067F80120FEF752FEB6
:106E6000314628460EF062F80120FEF74BFE31460F
:106E700028460EF059F80120FEF744FE2146284628
:106E80000EF054F8394628460EF04EF831462846A2
:106E9000BDE8F0410EF04AB80EF046F8D7E764209E
:106EA000FEF730BEDB4910B501200870D84CC10296
:106EB00020460EF039F80320FEF724FEA1142046E8
:106EC000BDE810400EF032B8D24910B5002008706D
:106ED000CF4C4FF4805120460EF026F80320FEF7E9
:106EE00011FEE1142046BDE810400EF01FB870B549
:106EF0004FF6FF7101EA4001C64E01F4C07400F084
:106F00003F000443307810B3FFF7CCFFC04D4FF47F
:106F1000004128460EF008F84FF4804128460EF054
:106F200003F83078B0B144F4805128460EF000F8F0
:106F30004FF40054214628460DF0F8FF0120FEF7DB
:106F4000E1FD21462846BDE870400DF0EDBFFFF79A
:106F5000BBFFDBE744F40061E7E7AF4910B5087019
:106F60000878B830FFF7C3FFBDE810406420FEF793
:106F7000C9BD00F01F01A94810B501700278A549EC
:106F80000B2A08D200220A700078402100EB400052
:106F900001EB400005E001220A70007800EB4000A0
:106FA0004000FFF7A4FFBDE810406420FEF7AABD33
:106FB00010B50C46FFF7DDFF2046BDE81040CCE7DA
:106FC00070B54FF6FF7101EA4001924E01F4C074B2
:106FD00000F03F000443307810B3FFF763FF8C4D9F
:106FE0004FF4004128460DF0A1FF4FF480412846A0
:106FF0000DF09AFF3078B0B144F4104128460DF0FE
:1070000097FF4FF40054214628460DF08FFF0120D2
:10701000FEF778FD21462846BDE870400DF084BF9C
:10702000FFF752FFDBE744F40841E7E72DE9F047BB
:107030000025784F2E464FF001083E70FFF744FFC1
:107040004020FFF754FF05F1B8008146FFF74FFFDE
:1070500000240020FFF7B4FF0320FEF753FD641C5B
:10706000E4B2402CF5D387F80080FFF71BFF4020E7
:10707000FFF73DFF4846FFF73AFF00240020FFF7E7
:107080009FFF0320FEF73EFD641CE4B2402CF5D3C5
:107090006D1CEDB2082DD0D33E70604806705E497D
:1070A0000E7009780078FFF783FF5D4806805D4821
:1070B00006805D4806805D4806805D4806805D4824
:1070C00006805D4806805D4806805D4806805D4814
:1070D00006805D4806805D480680BDE8F0870F2188
:1070E0007F209EE60C217F209BE670B50D000446B4
:1070F00006D0012D07D0022D10D0032D09D110E0AC
:1071000004F1800001E004F1C000C1B27F20FFF76C
:1071100088FE4F4804604F48056070BD04F194003C
:10712000F3E704F1D400F0E710B50A20FEF7EAFC1B
:1071300010BD49490020087070474749FF2008707A
:107140007047354910B508700878B830FFF7CFFEA2
:10715000BDE810406420FEF7D5BC10B52F4C207060
:107160002078402804D2FFF7AFFE2078403002E0BC
:10717000FFF798FE2078FFF7BAFEBDE810406420C4
:10718000FEF7C0BC10B50C46FFF7E7FF2046BDE890
:107190001040D6E71F4910B5012008701E4800783E
:1071A000FFF7DBFE4020FFF7A2FEBDE810406420A1
:1071B000FEF7A8BC70B51546FFF7FAFE0024284676
:1071C000FFF7FEFE641CE4B2062CF8D370BD70B568
:1071D0000D460446402802D2FFF776FE03E0FFF793
:1071E00061FE403CE4B2B82000EBD500C6B23046A8
:1071F000FFF77DFE04F140000446FFF778FE3046BD
:10720000FFF775FE2046FFF772FE27E0485F010892
:10721000002001401A3700201937002018370020BD
:10722000F6360020F8360020FA360020FC36002022
:10723000FE360020003700200237002004370020EF
:1072400006370020083700200A3700200C370020BE
:107250001037002014370020F436002005F0070115
:107260000120BDE870408840384380B2A8E670B580
:107270000D460446402802D2FFF726FE03E0FFF742
:1072800011FE403CE4B2B82000EBD500C6B2304657
:10729000FFF72DFE04F140000446FFF728FE3046BC
:1072A000FFF725FE2046FFF722FE05F00701BDE8A7
:1072B00070400120884027EA000081E62DE9F04176
:1072C000FF49FD4FFD4DDFF8FC83002401EB001664
:1072D0003888C1B22888C0B2FFF754FF305D98F8F3
:1072E00000104840FFF76CFE3888401CC1B2288867
:1072F000C0B2FFF747FF301998F80010007A4840F5
:10730000FFF75EFE2888401C2880641CE4B2082C2D
:10731000DED3ED490888401C0880BDE8F0812DE9E6
:10732000F047DFF8A4930646B9F80000E34D4FF6A6
:10733000FF7101EAC0002880E4480088DE4F3880F1
:10734000DFF8808300243888C1B22888C0B2FFF7F4
:1073500019FF305D98F800104840FFF731FE38887B
:10736000401CC1B22888C0B2FFF70CFF301998F852
:107370000010007C4840FFF723FE2888401C28802E
:10738000641C102CDFDBB9F80010491CA9F80010B0
:10739000B9F80010491CA9F800109EE6F0B5CC49D8
:1073A000C0F3842200258B5C1531C0F3441200F039
:1073B0001F00895CC64A89B03332175C8FB302F173
:1073C00034000126405C012B38D0102B36D003222C
:1073D000BF4C7D34655C00EB800003EB8004DFF87C
:1073E000F4E200206B460EEB441C1CF800401C54D9
:1073F000401CC0B21F28F8D902EB420000EBC200CB
:1074000001EB4001A03100200EEB41111A5C0C5C35
:1074100022431A54401CC0B21F28F7D9012E0FD0A6
:107420001EE0FFE7AA4800265130012B405C03D044
:10743000102B01D00122CEE70022CCE70222C7E7C1
:10744000C5EBC50007EB8001F83100200EEB4112BF
:10745000195C145C21431954401CC0B21F28F7D991
:107460001846FFF75CFF09B0F0BD70B505460C4645
:1074700008460CF0B9FFC0B2401E00EBD0700721E7
:10748000A1EB60009049C0B2088090490D808B4903
:10749000C0000880884805800DE0641C802802D266
:1074A000FFF70CFF07E014F8011B01EB0020FFF7CA
:1074B0009DFCFFF773FF20780028EED170BD10B55A
:1074C0001446814A1080814A11807C4AC000108095
:1074D000794801800DE0641C802802D2FFF7EEFE9F
:1074E00007E014F8011B01EB0020FFF77FFCFFF71A
:1074F00055FF20780028EED110BD0020401C022846
:10750000FCD370473F20F2E470B5734D4FF48074A4
:10751000214628460DF00AFD0A20FEF7FEFA214614
:1075200028460DF001FD0A20FEF7F7FA214628460D
:107530000DF0FCFC634800240470684D2C70FFF7CC
:10754000C3FCC020FFF7D3FC1420FEF7E6FAB820F6
:10755000FFF7CDFC1420FEF7E0FA4020FFF7C7FC50
:1075600001262E70FFF79EFCC020FFF7C0FC142000
:10757000FEF7D3FAB820FFF7BAFC1420FEF7CDFAD5
:107580004020FFF7B4FCFFF751FD2E70FFF78AFC97
:107590003F20FFF7ACFC2C70FFF796FC3F20FFF775
:1075A000A6FC2C704E4804704E490C700978007887
:1075B000FFF7E8FD44480480444804804A480480BA
:1075C0004A4804803D4804803B4804804848048081
:1075D000484804804848048048480480484804805B
:1075E0004848048070BD70B50C46154606217F20C2
:1075F000FFF717FC0120FEF790FA9CB1012C1FD079
:10760000022C2BD0032C0CD1D4217F20FFF709FCB6
:1076100000240020295DFFF704FC641CE4B2142C54
:10762000F7D370BD80217F20FFF7FBFB00240020F3
:10763000295DFFF7F6FB641CE4B2142CF7D370BD90
:10764000C0217F20FFF7EDFB00240020295DFFF71C
:10765000E8FB641CE4B2142CF7D370BD94217F20A6
:10766000FFF7DFFB00240020295DFFF7DAFB641C35
:10767000E4B2142CF7D370BD70B50C461546062144
:107680007F20FFF7CEFB0120FEF747FA9CB1012CCB
:1076900048D0022C54D0032C0CD1D4217F20FFF7EA
:1076A000C0FB00240020295DFFF7BBFB641CE4B293
:1076B000142CF7D370BD27E000370020FE360020E1
:1076C00056010020F4360020F6360020F83600205F
:1076D000A471010856090020000801401A37002053
:1076E0001837002019370020FA360020FC36002019
:1076F000023700200437002006370020083700201A
:107700000A3700200C37002080217F20FFF789FBFB
:1077100000240020295DFFF784FB641CE4B2142CD4
:10772000F7D3C7E7C0217F20FFF77BFB00240020B1
:10773000295DFFF776FB641CE4B2142CF7D3B9E79C
:1077400094217F20FFF76DFB00240020295DFFF7C7
:1077500068FB641CE4B2142CF7D3ABE770B50446A5
:10776000FFF764FC224DFF21297022A20221002094
:10777000FFF7A5FE3CB122A204210020FFF79FFEE7
:107780000020287096E721A2F6E72DE9F0410025B8
:1077900007462E46FFF786FB4020FFF7A8FB06F1C1
:1077A000B800FFF7A4FB0024785D6D1CFFF708FC10
:1077B000641CE4B2402CF7D3761CF6B2082EE9D351
:1077C000ABE510B5002114A20846FFF778FE12A21F
:1077D00002210020FFF773FE0FA204210020FFF713
:1077E0006EFE0621BDE810400BA2002067E60000F7
:1077F000F4360020BCF6B0C5C5EBC0CC00000000DC
:10780000C3A1BDC0B4CFB4D900000000BEF8BDC054
:10781000B4CFB4D900000000202020202020202058
:10782000202020202020202000000000002804D15B
:107830004948818800680DF079BB7047002804D161
:107840004548818800680DF06FBB704710B500286F
:1078500011D1414C20680DF05DFBB4F904100142D8
:10786000A188206803D0BDE810400DF05DBBBDE8E5
:1078700010400DF05BBB10BD032808D2364A083219
:1078800002EBC00152F8300089880DF04FBB704701
:10789000032808D2304A083202EBC00152F8300007
:1078A00089880DF041BB704770B50446032817D294
:1078B000294D083555F834000DF02CFB014605EB39
:1078C000C400B0F904200A42818855F8340003D07E
:1078D000BDE870400DF028BBBDE870400DF026BB40
:1078E00070BD80211D480DF01FBB4FF400711B4877
:1078F0000DF01ABB4FF4807118480DF015BB4FF412
:10790000806116480DF010BB10B5FFF7EAFFFFF7D6
:10791000ECFFFFF7EFFFBDE81040F0E74FF48061A8
:107920000E480DF003BB4FF480710C480DF0FEBA09
:107930004FF4007109480DF0F9BA802107480DF0A5
:10794000F5BA10B5FFF7F9FFFFF7F2FFFFF7EBFF0E
:10795000BDE81040E2E7000038720108001C014059
:10796000FCA00CF060B92DE9F04FFF488FB0007813
:1079700001287DD1FD4F0A26FD4D39684FF0000BDF
:1079800091FBF6F02A78303A904272D106FB101142
:107990006878303881426CD11021F6480DF0C6FA73
:1079A0003220FEF7BAF8A878E978000400EB01204D
:1079B0002979F14A0844811ADFF8C083F04CDFF8D6
:1079C000C493DFF8C4A390427ED013DCA2F103027B
:1079D000A0EB0201904278D007DCEC49401818D0A7
:1079E000A0F55540DC385BD17DE001296ED002293D
:1079F00056D140E103296AD004DC012968D002296C
:107A00004ED1FAE1B1F5A15F7DD0E148081847D128
:107A1000B9E0E0A00CF018F802200CF0BCF83868CF
:107A200090FBF6F030300CF0B6F8386890FBF6F1C9
:107A300006FB110030300CF0AEF8A8780CF0ABF873
:107A4000E8780CF0A8F828790CF0A5F8D8F8001020
:107A5000D148012912D09AF81530D04A0BB1C2F89A
:107A600000B09AF8141009B1C0F800B0006801E045
:107A700036E01CE011684218C9A105E09AF814101C
:107A800002680029F8D0C8A101A80DF075FD01A871
:107A90000CF0A3F803200CF07EF800200CF07BF82B
:107AA0003220FEF73AF81021B2480DF03DFAFF20DF
:107AB00028706870A870E870BD49287168710870F6
:107AC00048708870C87004E0FCE085E0ABE0BBE182
:107AD0001FE1087148718871C871A34981F800B02D
:107AE0000FB0BDE8F08FB3A00BF0AEFF02200CF09A
:107AF00052F8386890FBF6F030300CF04CF83868EB
:107B000090FBF6F100E019E006FB110030300CF0BC
:107B100042F8A8780CF03FF8E8780CF03CF82879A7
:107B20000CF039F8D8F80010A348012904D0A34973
:107B3000006809684218ADE10268ABE1A0A00BF053
:107B400083FF02200CF027F8386890FBF6F0303005
:107B50000CF021F8386890FBF6F106FB110030308C
:107B60000CF019F8A8780CF016F8E8780CF013F877
:107B700028790CF010F80AF121004178009103787F
:107B80009AF8202023E08FA00BF05EFF02200CF07B
:107B900002F8386890FBF6F030300BF0FCFF3868E4
:107BA00090FBF6F106FB110030300BF0F4FFA878E3
:107BB0000BF0F1FFE8780BF0EEFF28790BF0EBFF0C
:107BC0000AF124004178009103789AF823207EA1DD
:107BD00001A80DF0D1FC5AE77FA00BF035FF022081
:107BE0000BF0D9FF386890FBF6F030300BF0D3FF84
:107BF000386890FBF6F106FB110030300BF0CBFF3C
:107C0000A8780BF0C8FFE8780BF0C5FF28790BF0D7
:107C1000C2FFD8F80000012803D02168D9F800007D
:107C200025E0226836E16DA00BF00EFF02200BF07C
:107C3000B2FF386890FBF6F030300BF0ACFF3868DC
:107C400090FBF6F106FB110030300BF0A4FFA87892
:107C50000BF0A1FFE8780BF09EFF28790BF09BFF5B
:107C6000D8F80000012804D06168D9F804000A1887
:107C700010E162680EE15AA00BF0E6FE02200BF064
:107C80008AFF386890FBF6F030300BF084FF3868DC
:107C900090FBF6F106FB110030300BF07CFFA8786A
:107CA0000BF079FFE8780BF076FF28790BF073FF83
:107CB000D8F80000012803D0A168D9F80800D6E759
:107CC000A268E7E047A00BF0BFFE02200BF063FFC5
:107CD000386890FBF6F030300BF05DFF386890FBB1
:107CE000F6F106FB110030300BF055FFA8780BF0D1
:107CF00052FFE8780BF04FFF28790BF04CFFD8F8D3
:107D00000000012803D0E168D9F80C00AFE7E26871
:107D1000C0E035A00BF098FE02200BF03CFF386865
:107D200090FBF6F030300BF036FF386890FBF6F140
:107D300006FB110030300BF02EFFA8780BF02BFF64
:107D4000E8780BF028FF28790BF025FFD8F8000021
:107D500001284BE043646D615F506F7765725F4F40
:107D60006E28293B00000000223800203039002016
:107D7000D294002000080140342D4400BC000020B3
:107D800048AE002064AE002058360020ACA8BCFFEE
:107D9000E7E3EFFF43575400DC380020E4380020CD
:107DA0002025376C750000002D25376C750000000C
:107DB000C8940020442D30001439002020390020C0
:107DC0004441540054494D002532582E2530325834
:107DD0002E25303258000000442D3100442D320051
:107DE000442D3300442D3400442D350003D0216947
:107DF000D9F810003BE722694CE0FDA00BF024FE0F
:107E000002200BF0C8FE386890FBF6F030300BF023
:107E1000C2FE386890FBF6F106FB110030300BF023
:107E2000BAFEA8780BF0B7FEE8780BF0B4FE28791C
:107E30000BF0B1FED8F80000012803D06169D9F831
:107E4000140014E7626925E0EAA00BF0FDFD0220B2
:107E50000BF0A1FE386890FBF6F030300BF09BFE83
:107E6000386890FBF6F106FB110030300BF093FE02
:107E7000A8780BF090FEE8780BF08DFE28790BF0D7
:107E80008AFED8F80000012803D0A169D9F81800AB
:107E9000EDE6A269D8A1F7E5D94810B50268DA483D
:107EA000D849DA4C807D012A04D0B8B1D8A0FFF7B8
:107EB00006FB1DE018B1DBA0FFF701FB09E00A6833
:107EC000DBA1DF480DF058FB0021DD4A0846FFF733
:107ED000F6FAFFF732F9DBA122680DE00A68DDA1AE
:107EE000D7480DF049FB0021D54A0846FFF7E7FACD
:107EF000FFF723F92268DBA1D1480DF03DFBD04A02
:107F000002210020FFF7DBFABDE81040FFF711B9AE
:107F10002DE9F043D74DD84E99B000242B68D7A156
:107F2000684632680DF028FBFFF74BFCDFF8D09273
:107F3000D9F80000012819D0D6A202210020FFF7AD
:107F4000BEFAD6A204210020FFF7B9FA4FF4FA6076
:107F5000FDF7E3FDD54FFEF710FF88B138880628FE
:107F60000ED2DFE800F00D0A0A0A0A0FD0A20221A1
:107F70000020FFF7A4FAD1A2E4E7FBF7E7FF53E004
:107F8000002CE8D0FFF71DFCDFF84083002798F8AD
:107F90000000012850D0FBF7A0FA7F1CFFB2044676
:107FA000052FF4D30CF0FBFBC94909680CF0A0FACB
:107FB0000CF014FCC74FC8A138602B6868463268C3
:107FC0000DF0DAFACA4ECB4D4FF0000834600422AF
:107FD0002146B020C5F80080FDF7DAFF30600A20A6
:107FE000FDF79BFD0422B4203968FDF7D1FF38600E
:107FF0000A20FDF792FD042280202968FDF7C8FFC2
:1080000028600A20FDF789FD2B68B3A16846326815
:108010000DF0B2FAB8A204210020FFF750FA7A4816
:1080200080F8148080F81580FFF7CBFBB74D774CB4
:108030002868012803D016E0FBF7F3F8ADE7FFF757
:108040002BFFFFF77AF8D9F80000226801284AD000
:10805000AFA17B480DF090FA794A06210020FFF786
:108060002EFAFFF766F82868022839D1D9F80000FF
:10807000AB4E644FAB4D012837D0FFF75EF8336845
:108080003A68A9A16E480DF077FA00216C4A0846BB
:10809000FFF715FAFFF74DF8A7A1694822680DF020
:1080A0006BFA674A02210020FFF709FAA6A164488B
:1080B0002A680DF061FA624A04210020FFF7FFF9F7
:1080C000FFF73BF8206829684218A3A15C480DF02F
:1080D00053FA5B4A06210020FFF7F1F9FFF729F870
:1080E00019B0BDE8F083A0A1B3E7FFF726F8336825
:1080F0003A68A1A152480DF03FFA0021504A0846C3
:10810000FFF7DDF9FFF715F89FA14D4822680DF044
:1081100033FA4B4A02210020FFF7D1F99EA14848CB
:108120002A680DF029FA464A04210020FFF7C7F912
:10813000FFF703F82068296842189BA1C6E72DE9DC
:10814000F0474C4EDFF830819AB0002433684BA1E1
:108150006846D8F800200DF00FFAFFF732FBDFF881
:10816000A0A06A4DDAF800000128286802D0022891
:1081700009D00DE0022804D18FA202210020FFF7D0
:108180009EF990A205E093A202210020FFF797F943
:1081900092A204210020FFF792F94FF4FA60FDF754
:1081A000BCFC424FFEF7E9FD50B13888062807D2E3
:1081B000DFE800F0060303030308FBF7C7FE5BE1FB
:1081C000002CEFD0FFF7FDFADFF80091002799F8B7
:1081D000000001280BD0FBF780F97F1CFFB204469A
:1081E000052FF4D30CF0DBFA8049096800E14AE17D
:1081F000442D3600442D370025386C7500000000F2
:10820000CC000020DC380020583600201439002033
:108210004C4F41445F43454C4C204552524F5221F4
:1082200000000000B7CEB5E5BCBF20BFA1B7AF00CE
:10823000B9AB20B0D43A2025356C64206B672000A0
:108240002A880020B1DE20C0CC3A2025356C64207D
:108250006B67200053494C4F203A2025356C642031
:108260006B67200046454544203A2025356C642044
:108270006B6720000439002018000020765F7A65C3
:10828000726F313D25366C752020636F6D703D2512
:10829000366C750053494C4F20320000204D414B45
:1082A00045205A45524F202020203F000801002041
:1082B00020BDCEC0CCB7CE203200000020BFB5C15B
:1082C000A120BDC7C7E0202020203F0000000020E3
:1082D0004C00002040000020765F7A65726F323DCE
:1082E00025366C752020636F6D703D25366C7500EA
:1082F0001C00002008390020205A45524F204649D2
:108300004E49534845442E2E00000000BC0000207A
:10831000544F4441593A2025356C64206B67200046
:10832000E43800202039002053494C4F3A25356C61
:10833000642D25356C64000046454544313A2535A9
:108340006C64206B6700000046454544323A253591
:108350006C64206B67000000544F4441593A20255B
:10836000356C64206B670000BFC020B4C33A202581
:10837000356C64206B672000B9ABB0D43A25356CFE
:10838000642D25356C640000B1DEC0CCB7AE313A47
:1083900025356C64206B6700B1DEC0CCB7AE323AD5
:1083A00025356C64206B6700BFC020B4C33A20251C
:1083B000356C64206B67000020BDCEC0CCB7CE20EA
:1083C00031B9F80020BFB5C1A120BDC7C7E0203F2B
:1083D000000000002053494C4F203100204D414BFC
:1083E00045205A45524F203F000000004800002021
:1083F0000CF07EF80CF0F2F9DFF838944746C9F833
:1084000000003368AFF230116846D8F800200DF054
:10841000B3F84FF000083C60042221468420C6F8DF
:108420000080FDF7B5FD38600A20FDF776FB0422D9
:108430000820D9F80010FDF7ABFDC9F800000A20AC
:10844000FDF76BFB04227C203168FDF7A1FD306055
:108450000A20FDF762FB3368F7A168463A680DF021
:108460008BF8AFF26C1204210020FFF728F8F848CF
:1084700080F8148080F81580FFF7A3F92868F54C80
:10848000012803D017E0FAF7CCFEA6E6FFF704FDBB
:10849000FEF753FEDAF80000226801284ED0AFF252
:1084A0009011ED480DF068F8EB4A06210020FFF727
:1084B00006F8FEF73EFE286802283CD1DAF80000F4
:1084C000E64FE74EE74D01283BD0FEF736FE3B680E
:1084D0003268AFF2AC11E0480DF04EF80021DE4AF0
:1084E0000846FEF7ECFFFEF724FEAFF2B411DA48BF
:1084F00022680DF041F8D84A02210020FEF7DFFF84
:10850000AFF2BC11D4482A680DF036F8D24A0421E3
:108510000020FEF7D4FFFEF710FE206829684218FD
:10852000D1A1CD480DF028F8CB4A06210020FEF756
:10853000C6FFFEF7FEFD1AB0BDE8F087AFF2D81116
:10854000AFE7FEF7FAFD3B683268AFF2D411C248DC
:108550000DF012F80021C04A0846FEF7B0FFFEF702
:10856000E8FDAFF2DC11BC4822680DF005F8BA4A0C
:1085700002210020FEF7A3FFAFF2E411B6482A68FB
:108580000CF0FAFFB44A04210020FEF798FFFEF732
:10859000D4FD206829684218B7A1C2E710B5BA4CCB
:1085A0002068642801D9FFF7A0F92068C82803D9FA
:1085B000FFF7BEF90020206010BD10B5B34C206855
:1085C000322801D9FFF79BF92068642803D9FFF707
:1085D000A5F90020206010BD10B5AD4C20683228F0
:1085E00001D9FFF787F92068642803D9FFF79BF9C1
:1085F0000020206010BD10B5A64C2068642801D969
:10860000FFF76FF92068C82803D9FFF796F9002013
:10861000206010BD2DE9F0479F48A04C007801284C
:108620000AD0FAF77DFF9E49206001270025884C7B
:10863000884204DDE77503E0FAF746FEF3E7E575E7
:108640000CF0ADF8974909680BF052FF0CF0C6F832
:108650009549974E086095490968401A95493060D8
:108660000968A1F51C52103A17D00CF0A6F8804604
:108670009148894600680CF0A0F800228F4B0CF05E
:108680001FF842464B460BF0A9FF0CF0E7F8704983
:10869000803148610CF0A2F83060011E884A894B95
:1086A00089480CDB126801EB520101600168B1FBE3
:1086B000F2F1016001681A685143016010E06775CA
:1086C00049423160126801EB520101600168B1FB5F
:1086D000F2F1016001681A6851430160016801B953
:1086E00065757A495D4A096849B1637D006843B19F
:1086F000081A10601068002805DB65751CE7006823
:1087000004E00844F5E7677510684042106013E71D
:108710002DE9F0476048614C007801280AD0FAF74B
:10872000DCFE5F49206001270025494C884204DDBA
:10873000A77503E0FAF775FDF3E7A5750CF02FF8C0
:10874000634909680BF0D4FE0CF048F85649584EBE
:10875000086038490968401A57493060D1F800A0CC
:10876000AAF51C52103A16D00CF027F8804689461C
:1087700050460CF022F80022504B0BF0A1FF42466D
:108780004B460BF02BFF0CF069F831498031486102
:108790000CF024F83060011E494A4E4B4E480CDB69
:1087A000126801EB520101600168B1FBF2F1016056
:1087B00001681A685143016010E027754942316031
:1087C000126801EB520101600168B1FBF2F1016036
:1087D00001681A6851430160016801B925753F4974
:1087E0001F4A096849B1237D00684BB1081A10601F
:1087F0001068002806DB25759EE6006810609BE681
:108800000844F4E7106840421060277594E610B5FC
:108810000B2133A008F021F94FF47A742046FDF7BC
:108820007CF9FBF7CAFB2046FDF777F9BDE810405D
:10883000FBF7BFBB3C000020765F7A65726F333D6B
:1088400025366C752020636F6D703D25366C750084
:1088500058360020143900202A880020E4380020EF
:10886000DC38002020390020544F444159203A255B
:10887000356C64206B670000BFC020B4C3203A256C
:10888000356C64206B670000F8370020FC3700204F
:10889000F4370020F0370020000000204439002089
:1088A000801A06004C0000204039002040000020C3
:1088B0004C390020B8000020B40000200088C340DC
:1088C0001400002010000020E838002008390020A3
:1088D000480000200C000020E0380020043900206F
:1088E0004154244C47545245534554000BF0D1B9E0
:1088F00010B50446F3489AB041680091F248F34934
:1089000003680A68F2A101A80CF036FE01A920460E
:1089100008F06AF84FF47A70FDF7FFF81AB010BD4E
:108920002DE9F041F6A00BF08FF842F2CD01F7A04F
:1089300009F086FD012850D10021F8480CF007FD10
:1089400000214FF080400CF002FD0021F4480CF0B3
:10895000FEFCF44D40F225540022214628460CF03E
:1089600097FDF14E0022214630460CF091FDEF4F6D
:108970000022214638460CF08BFD2146EC4C0022AB
:1089800020460CF085FD002128460CF01AFD002140
:1089900030460CF016FD002138460CF012FD002187
:1089A00020460CF00EFD002101200CF079FC4FF068
:1089B0000065002128460CF00FFBDA4943F239002C
:1089C000083108806968DB4C2161E16028680BF0A0
:1089D000BBFCE068BDE8F0410047BDE8F08170B540
:1089E00004468EB00522D4A1401C0BF00DFD0025DD
:1089F00028B30822D2A1601C0BF006FD04F1090681
:108A000000283AD00622D1A1601C0BF0FDFC002802
:108A100056D00822CFA1601C0BF0F6FC002852D0E3
:108A20000822CFA1601C0BF0EFFC002856D00522D5
:108A3000CEA1601C0BF0E8FC00285DD062E0E5727E
:108A4000A01D0BF0F0FC014604228C20FDF7A0FADB
:108A5000C84902460860C8A168460CF08DFD6A4608
:108A600004210020FEF72BFD40F6B830FDF755F845
:108A7000C5A1022008F0E7FF44E0A57330460BF0E3
:108A8000D2FC05F0C1FBC14D0146042228607C20C8
:108A9000FDF77EFA286030460BF0C5FC0346BCA10A
:108AA00068462A680CF068FD4FF4FA60FDF735F867
:108AB000B5A1022008F0C7FF68460AF0C5FF21E013
:108AC000FFF73DFB1EE030460BF0ADFCB64D2968CC
:108AD000481E3B2816D80422A42009E030460BF09B
