:020000040800F2
:1030000038B400208D3F0108E53D0108E73D010887
:10301000E93D0108EB3D0108ED3D0108000000001D
:10302000000000000000000000000000EF3D01086B
:10303000F13D010800000000F33D0108F53D0108E5
:10304000A33F0108A33F0108A33F0108B5D9000829
:10305000A33F0108A33F0108A33F0108A33F0108C4
:10306000A33F0108A33F0108A33F0108A33F0108B4
:10307000A33F0108A33F0108A33F0108A33F0108A4
:10308000A33F0108A33F0108A33F0108A33F010894
:10309000133E0108A33F0108A33F0108A33F010815
:1030A000A33F0108A33F0108A33F0108A33F010874
:1030B000592F0108A33F0108A33F0108A33F0108BE
:1030C000A33F0108A33F0108A33F0108A33F010854
:1030D000A33F01081F31010877310108F7310108CA
:1030E000A33F0108A33F0108153E0108A33F0108C3
:1030F000A33F0108A33F0108A33F0108A33F010824
:10310000A33F0108A33F0108A33F0108A33F010813
:10311000BD320108A33F0108A33F0108A33F0108F6
:10312000A33F0108A33F0108A33F0108A33F0108F3
:10313000DFF80CD011F0F2FB00480047E5B60008BC
:1031400038B40020002100E0491C8142FCDB7047BC
:1031500010B56420FFF7F6FF4FF48041FA4811F0F4
:1031600035FD4FF40071F94811F030FDBDE8104015
:103170004FF47A7002F0D1BC70B5F34D4FF4804437
:103180002146284611F024FD0120FFF7DBFF2146F0
:10319000284611F01BFDBDE870400120D2E770B554
:1031A000EA4D4FF400742146284611F011FD01202C
:1031B000FFF7C8FF2146284611F008FDBDE8704022
:1031C0000120BFE72DE9F041DF4F4FF400563146B3
:1031D000384611F0EAFC0028F9D04FF48041384617
:1031E00011F0F4FC00253146384611F0DEFC0028D1
:1031F000F9D100246D00FFF7BFFF3146384611F0CA
:10320000D4FC3146384611F0D0FC012800D16D1CA9
:10321000641CE4B2182CEDD3FFF7AEFF2846BDE8DE
:10322000F08110B5CA4C05202060FFF7CBFF236862
:10323000B3B1C84A632102EB810454F8044C42F84C
:103240002140491E0029F6DC591E106003E052F8A7
:103250002140491E20440029F9DCB0FBF3F001E0D5
:10326000012121601921B0FBF1F010BD2DE9F041E1
:10327000B64F4FF480763146384611F096FC002860
:10328000F9D04FF48041B04811F0A0FC0025314640
:10329000384611F08AFC0028F9D100246D00FFF7B0
:1032A0007EFF3146384611F080FC3146384611F039
:1032B0007CFC012800D16D1C641CE4B2182CEDD3F9
:1032C000FFF76DFF2846AAE710B5A14C0520206046
:1032D000FFF7CCFF2368B3B19F4A632102EB81045F
:1032E00054F8044C42F82140491E0029F6DC591ECE
:1032F000106003E052F82140491E20440029F9DC07
:10330000B0FBF3F001E0012121601921B0FBF1F0E5
:1033100010BD10B500208F4A014642F82010401C15
:10332000C828FAD38C4A002042F82010401CC82834
:10333000FAD30121894811F049FCBDE8104002216F
:10334000874811F043BC2DE9F047864F0025834E96
:103350002C463D700121304611F038FC4FF0010938
:10336000DFF8048202E0641C44450DD80421304695
:1033700011F01BFC0028F6D0387801282CD000244E
:1033800005E0641C444502D987F8009024E004213C
:10339000304611F00AFC0028F3D1387801281BD000
:1033A00000240121304611F013FC502002F0AAFB4A
:1033B0006D000421304611F0F8FB05440A2002F0AC
:1033C000A1FB0121304611F001FC502002F09AFBD4
:1033D000641CE4B2182CE4D32846BDE8F08770B52D
:1033E0005E4E00250121304611F0F0FB04213046ED
:1033F00011F0DBFB0028F9D00421304611F0D5FB99
:103400000028F9D10421304611F0CFFB0028F9D073
:103410000421304611F0C9FB0028F9D10024012114
:10342000304611F0D5FB962002F06CFB6D000421B4
:10343000304611F0BAFB05440121304611F0C6FBBD
:10344000322002F05FFB641CE4B2182CE7D328465C
:1034500070BD2DE9F047DFF80881002502214046C4
:1034600011F0B4FB3D4F4FF400542146384611F0A3
:103470009CFB0028F9D02146384611F096FB002825
:10348000F9D12146384611F090FB0028F9D02646A4
:103490002146384611F089FB0028F8D10024B146B6
:1034A00002214646404611F093FB962002F02AFB8B
:1034B0006D004946384611F078FB0544022130463C
:1034C00011F084FB322002F01DFB641CE4B2182CC6
:1034D000E6D3284681E782E7BBE710B5FFF77FFF19
:1034E0001B490B68B3B11B4AC72102EB810454F896
:1034F000044C42F82140491E0029F6DC591E106098
:1035000003E052F82140491E20440029F9DCB0FBB9
:10351000F3F001E001220A601421B0FBF1F010BDCC
:1035200010B5FFF796FF0A490B6843B30A4AC72153
:1035300002EB810454F8044C42F82140491E002952
:10354000F6DC591E106015E000180140001401401F
:10355000F838002094390020B43C002000100140CD
:10356000000C014000000020A086010052F821401C
:10357000491E20440029F9DCB0FBF3F001E00122F0
:103580000A601421B0FBF1F010BD2DE9F04F99B0A5
:1035900000254FF0FF38FE4BDFF8F8B3DFF8F89363
:1035A0001A78DFF8F8A3012A0ED1FD49002008702F
:1035B0008BF8000089F800008AF80000F9490870CB
:1035C000F9490870F94908703032F9A10CA811F0D6
:1035D00025FE0CA810F0CDF80027F74C012601209D
:1035E00002F097FA2078E8B3012002F092FA2078EE
:1035F000C8B3F248002727700760F1485021F14A0C
:1036000001803C4602206FF02F03115CA1F1300CC9
:10361000BCF1090F04D9A1F1410CBCF1050F07D889
:1036200004EB840403EB4404401C0C440728ECDD49
:10363000082841DB0222E4A1E24810F037FD18B36C
:103640000222E2A1DF4810F031FD18B30222E0A10E
:10365000DC4810F02BFD18B30222DEA1D94810F08F
:1036600025FD01E002E004E000B325E07F1C642FAB
:10367000B5DBD349B1F9000008B1401E0880C44849
:103680000278042A1BD047E0D34804608BF800601E
:10369000D24810E0D248046089F80060D1480AE0BE
:1036A000D14804608AF80060D04804E0D048046043
:1036B000BC480670CF48077010F0D9F9DFE7C6485C
:1036C000C949CD4F0468C64809683F680068231897
:1036D0005D18C74B1B6805EB03080125E7B109AF6F
:1036E00008940BC7B1480378AF480178AD48047817
:1036F0009AF80000CDE90404CDE9061399F800100A
:103700009BF80030A648CDE90231CDE90085037869
:10371000BAA10CA811F082FD9D490878401CC0B2E6
:103720000870042800D90E702DB19D4806704046DF
:1037300019B0BDE8F08FC0480068F9E72DE9F04FF7
:10374000934B00256C1E1A78934E944FDFF85482E9
:10375000B5B0AA46012A11D1914981F800A08D493E
:1037600081F800A086F800A087F800A088F800A0E3
:103770008D4981F800A08D4981F800A030328CA1DC
:103780000EA811F04BFD0EA80FF0F3FFDFF828B2E2
:103790004FF00009012002F0BCF99BF8000018B1BD
:1037A000012002F0B6F904E009F10109B9F1640F52
:1037B000F0DB77484B46A1A102780EA811F02EFD50
:1037C0000EA80FF02DFF58469BF800207C49DFF82B
:1037D00020B2002A44D080F800A07848794B4FF0FE
:1037E0000009C0F800A05020088002206FF02F0CC4
:1037F000195CA1F13002092A02D9113A052A08D828
:1038000009EB89020CEB4202401C01EB020907287C
:10381000EEDD082858DB02226BA16A4810F046FC56
:1038200020B3022269A1674810F040FC30B30222A5
:1038300067A1644810F03AFC38B3022265A16148E0
:1038400010F034FC40B302227FA15E4810F02EFC41
:1038500048B302227DA15B4810F028FC58B333E046
:10386000B1F9000090B3401E08802FE05A490120B2
:10387000C1F8009047490870584923E05849012091
:10388000C1F80090307057491CE05748C0F80090CC
:1038900001203870554915E00120CBF8009088F8D8
:1038A000000054490EE06A490120C1F800903E49E9
:1038B0000870684906E068490120C1F800903B495A
:1038C0000870664981F800A010F0D1F8DFF8C090C8
:1038D000634899F800200068824255D16149062862
:1038E00008681AD068B12B48017800294ED0317889
:1038F0000029FBD039780029F8D098F80010002969
:10390000F4D03548016836480068014436480068FC
:103910000144DBF800000C180AE278B11D48017878
:10392000E9B13178D9B13978C9B198F80010B1B19D
:103930001D49097899B11D49097881B12648016866
:10394000274800680144284800680144DBF800006B
:1039500001443F48006801443F480068DBE70178C4
:1039600099B9317889B1397879B198F8001061B195
:103970000D49097849B10D49097831B118480068F5
:103980004100194800686FE02DE27AE022E1000072
:103990005538002058390020593900205A39002064
:1039A000643900205B3900205C3900205D3900203B
:1039B000402D2563520000002A3800205038002096
:1039C00044390020029500202D3100002D320000E6
:1039D0002D3300002D34000084380020563800209C
:1039E00088380020573800208C38002058380020B4
:1039F00090380020593800203039002020282575C3
:103A00003A25752920256C642C2025642E2E2564EA
:103A10002C25642C25642C25642C25642C25642CF1
:103A200020256C642C20256C642C20256C642C20B3
:103A3000256C64202000000060390020206C256483
:103A40003D25642E000000002D3500002D360000BD
:103A5000943800205A380020983800205B38002025
:103A600004010020183900200144DBF80000014463
:103A7000EB4800680144EB480068BCE081F800A016
:103A800056E1017811B3317801BB3978F1B198F87A
:103A90000010D9B1E4490978C1B1E4490978A9B164
:103AA000E34800684100E34800680144DBF8000097
:103AB0000144DB4800680144DA480068AEE0087859
:103AC000401CC0B208700228D8D231E10178E1B1BF
:103AD0003178D1B13978C1B998F80010A9B1D2497B
:103AE000097891B1D149097879B1D1480168D248B2
:103AF00000680144DBF8000001440144C848006844
:103B00000144C84800680C1810E10178E1B131782F
:103B1000D1B13978C1B198F80010A9B9C249097872
:103B200091B1C249097879B1C1480168C2480068B9
:103B30000144C048006801440144B9480068014498
:103B4000B84800680C1893E00178E9B13178D9B130
:103B50003978C9B198F80010B1B1B349097899B969
:103B6000B249097881B1B2480168B348006801449C
:103B7000B04800680144DBF800000144A94800682F
:103B800001440C18AD499AE70078002872D03078CB
:103B90000028FBD038780028F8D098F800000028DA
:103BA00068D0A1480078002864D0A0480078002898
:103BB00060D19F480168A048006801449D480068A2
:103BC0000144DBF8000001449548006801440C18EA
:103BD0009B4974E7017881B9317871B1397861B165
:103BE00098F8001049B1934801689348006801EBC8
:103BF0004001DBF800000C1868E0017881B13178F1
:103C000071B9397861B198F8001049B189480168F3
:103C10008748006801EB4001DBF800000C1877E0F2
:103C2000017881B1317871B1397861B998F80010B3
:103C300049B17F480168804800680144DBF8000012
:103C400001EB400472E0017831B1317821B139786B
:103C500011B198F8001011B1017861B114E0744805
:103C600001687548006801447248006801EB40042F
:103C7000744924E789E0317831B9397821B198F86D
:103C8000001009B16B4809E0017859B9317849B1A0
:103C9000397839B998F8001021B167480168DBF824
:103CA000000011E0017831B9317821B1397811B1D2
:103CB00098F8001021B10178A1B1317841B111E03B
:103CC0005D4801685B480068084444005E49F6E6C8
:103CD000397839B998F8001021B155480168DBF8F6
:103CE000000013E0017831B1317821B9397811B190
:103CF00098F8001031B1017879B1317869B139782B
:103D000041B10AE04A4801684A4800680844440052
:103D10004E49D4E698F8001011B1017851B113E082
:103D20004348016844480068084444004849C6E6DE
:103D300001252AE0317839B9397829B998F8001085
:103D400011B1DBF8000066E0017831B9317821B1BA
:103D5000397811B998F8001011B1017811B108E063
:103D6000354857E0317821B9397811B198F8001009
:103D700021B1007848B1307810B106E02D4849E013
:103D8000387810B998F80000F0B33248006850B3A2
:103D90002448DBF800C00368214801682548006812
:103DA000CDE90A0C2448CDE90C13036820480168CA
:103DB0001E4890F800C01C480078CDE9060CCDE9FB
:103DC000081398F800103B7836782348007803965B
:103DD0000094CDE901502148CDE904310378204910
:103DE0000EA811F01BFA99F800001E4A401CC0B240
:103DF00089F800001268904202DD012089F8000075
:103E00005DB10120154900E003E00870204635B09F
:103E10008FE40748006884008AE713480068F6E7E3
:103E200094380020983800205C3900205D3900204B
:103E3000843800208C380020883800205A38002030
:103E40005B380020593800205638002057380020B1
:103E500058380020303900205839002064390020BB
:103E6000505B010804010020603900204FF400611C
:103E7000664810F0ADBE4FF48051644810F0A8BE03
:103E80004FF40051614810F0A3BE1021604810F0BB
:103E90009FBE4FF400615D4810F098BE4FF4805112
:103EA0005A4810F093BE4FF40051584810F08EBE9F
:103EB0001021574810F08ABE10B5FFF7EAFFFFF750
:103EC000EDFFFFF7F0FFBDE81040F1E7012806D055
:103ED000022805D0032804D0042803D1D5E7C5E77C
:103EE000C9E7CDE77047012806D0022805D003288E
:103EF00004D0042803D1DBE7CBE7CFE7D3E7704753
:103F00004FF48051434810F061BE08B54FF4805023
:103F1000ADF8000003208DF8020010208DF803009A
:103F200069463C4810F0CAFDFFF7EAFF08BD4FF4B0
:103F30008051384810F04CBE10B50446FFF7F7FF2B
:103F4000204601F0EAFDBDE81040D9E710B5002495
:103F50001420FFF7F1FF052001F0DFFD641C072CA2
:103F6000F6DB10BD20212A4810F032BEFAE702210C
:103F7000264810F02DBE0221244810F027BE202133
:103F8000234810F023BE10B52021214810F01EFE5A
:103F9000BDE81040F3E74FF400711D4810F018BE63
:103FA000F9E74FF400711A4810F010BEF9E77047B6
:103FB00070470421154810F009BE0421134810F081
:103FC00007BE0821114810F001BE08210F4810F06B
:103FD000FFBDE6E7DFE74FF480710D4810F0F8BD54
:103FE0004FF480710A4810F0F1BD0421074810F029
:103FF000EDBD0421054810F0EBBD0821034810F089
:10400000E5BD0821014810F0E3BD000000140140A7
:10401000000C0140001001402DE9F04F002489B050
:10402000A04603F0D6FBDFF8FC93D9F80000012886
:1040300015D00021FCA2084603F049FA03F085F8E8
:10404000FDA20621002003F042FA03F07AF8FD4FAA
:10405000FD4E4FF000053878012809D014E000210A
:10406000FAA2084603F033FA03F06FF8FBA2E8E780
:10407000FFF7D7F810F0EEF910F002FA6D1CEDB270
:1040800030600A2DF4D30AE0FFF727FA10F0E2F9C6
:1040900010F0F6F96D1CEDB23060642DF4D3F24DE2
:1040A0006869286410F0D6F9696C10F073F810F0A4
:1040B000E7F9A863EDA16846326811F0AFF86846E9
:1040C0000FF09EFAEDA168462A6C11F0A7F8684639
:1040D0000FF096FAEDA16846AA6B11F09FF86846BA
:1040E0000FF08EFA686C10F0F8F902460B46EBA15F
:1040F000684611F093F868460FF082FADFF8ACB327
:10410000BA4602F042FE08B3BBF800005F46012841
:1041100008D1286C10F09EF9696C10F03BF810F093
:10412000AFF9A8633888022803D0388805280AD058
:104130000CE0686910F08EF9696C10F02BF810F043
:104140009FF9A86302E001246FF064089AF8000068
:10415000012827D0FFF7C1F9306010F072F9696CBF
:1041600010F018F810F08CF9D1490860A96B401ACA
:10417000296900EB5100B0FBF1F2A8684243D9F87D
:104180000000012811D0CBA1684611F047F86A461B
:104190000221002003F09BF9002CB2D009B0404668
:1041A000BDE8F08FFFF73DF8D6E7C6A1ECE72DE9B3
:1041B000F04788B003F00DFBAB4C206B10F04AF9D0
:1041C0000546E06A10F046F9294610F019F88046D5
:1041D0006169E069401A2062BEA00FF011FAC0A127
:1041E0006846626911F01AF868460FF009FABFA133
:1041F0006846E26911F012F868460FF001FABEA1B4
:104200006846226A11F00AF868460FF0F9F940464C
:1042100010F063F98946064632464B46B9A1684616
:1042200010F0FCFF68460FF0EBF9A06A10F012F9ED
:1042300041460FF0E5FF10F03CF905460246B4A1F7
:10424000684610F0EBFF68460FF0DAF9606910F08D
:1042500001F90746206A10F0FDF841460FF09AFF79
:1042600039460FF03FFF10F024F90246ACA1684632
:1042700010F0D4FF68460FF0C3F94146AC480FF088
:10428000BFFF824610F029F902460B46A9A16846F5
:1042900010F0C4FF68460FF0B3F9A94AA9A1684617
:1042A00010F0BCFF68460FF0ABF9206A6FF0C10751
:1042B000A84209D2A7A20121002003F008F940F684
:1042C000B83001F02AFC0BE010F0C4F8014650466B
:1042D00010F032F908D2A3A20221002003F0F7F86F
:1042E000384608B0BDE8F08783A16846226A10F01E
:1042F00095FF68460FF084F9A0A16846A26A10F005
:104300008DFF68460FF07CF932464B467DA168462A
:1043100010F084FF68460FF073F9206A10F09AF8E5
:1043200041460FF037FF0546A06A10F093F8294682
:104330000FF066FF606410F0D0F802460B4657A1FC
:10434000684610F06BFF68460FF05AF9606910F08C
:1043500081F8616C0FF01EFF10F092F8A0633148F5
:104360000068022802D0012802D006E088A200E0FE
:104370008BA20221002003F0AAF84FF4FA64204631
:1043800001F0CBFB204601F0C8FB6FF06400A8E70A
:104390002DE9F04F0446874899B00026D0F80090E8
:1043A00003F017FADFF810821E4F2F4DD8F80000E7
:1043B000012818D002F0C5FE386801282ED068798F
:1043C000002C2CD001282BD07CA20021084603F021
:1043D0007EF802F0B6FE7DA168462A6B10F01EFF43
:1043E0006A46022146E13868012803D0002C18D023
:1043F0007AA2EAE78CB102F0A8FE00217AA2084670
:1044000003F065F802F09DFE7AA168462A6B10F071
:1044100005FF02216A460020F4E0FBE006E125E109
:104420003DE101E1CC00002043555252454E54205D
:104430005745494748540000454E5445523A4E4569
:1044400058540000000000204C390020C7F6C0E797
:10445000B9ABB0D4C8AEC0CE00000000C8AEC0CE6C
:10446000C5B03AB4D9C0BD00040000207261775FC6
:1044700064617461203A202566000000765F616403
:1044800063315F6F7267203A20256400765F616454
:10449000635F6F7267203A2025640000676E66468E
:1044A0006163746F72203A202566000010010020BD
:1044B000483900205745494748543A25366C64200E
:1044C0006B670000B9ABB0D43A25366C64206B67DB
:1044D00000000000313233343536373839300000CF
:1044E000565F5A45524F3D256C640000565F465555
:1044F0004C4C3D256C640000565F5350414E3D25A9
:104500006C640000726174696F3D256600000000F4
:104510006C6F775F6C696D6974203A2025640000C8
:10452000686967685F6C696D6974203A202564006A
:104530000024744B6572723235203A2025660000E3
:104540000024F40046554C4C5F4C494D4954203AE8
:10455000202564004552524F52203234202121211F
:10456000000000004552524F52203235203A20536D
:1045700050414E204849474800000000765F695F7F
:104580007265736F6C7574696F6E203A20256400D4
:104590002020535543434553532021212000000040
:1045A00020B9ABB0D4C1B6C1A420BCBAB0F82121A7
:1045B00000000000F8380020BC00002020535041CB
:1045C0004E2043414C283229000000002055504C19
:1045D0004F41442025356C64206B670020535041C7
:1045E0004E2043414C0000002020BDBAC6C7C1B6D2
:1045F000C1A4000025356C64206B67BFC3B8AEBC96
:10460000BCBFE40002F063FF02F09FFD02F09DFDDD
:10461000F5A235E002F099FD0021F6A2084602F06D
:1046200056FF02F08EFDF1E7F5A2CEE668798CB177
:10463000012819D0F5A20021084602F048FF02F037
:1046400080FDAFF2500168462A6B10F0E7FD6A4624
:10465000022103E0012805D0EFA20021002002F092
:1046600036FFD3E7F0A2F8E7F3A2E4E7012814D07D
:10467000F4A20021002002F02AFF02F066FDF5A25C
:104680000621002002F023FF02F05BFDD8F80000B5
:10469000DFF8D0A3012804D016E0F3A2E9E7F6A2E0
:1046A00093E69AF800004FF00004012806D1FEF7C7
:1046B000B8FD641CE4B2142CF9D305E0FEF70DFF3D
:1046C000641CE4B2142CF9D3B846AB4657469BF8A9
:1046D00005005D460128387823D0012832D0FEF746
:1046E0001FFF0446D8F80000224601282DD0E6A17D
:1046F000684610F093FD6A460421002002F0E7FEB0
:1047000002F043FB28B1E348008805281FD0FFF7DB
:104710001DFC002EDBD0E0492046C1F8009019B006
:104720003EE5012809D0FEF7D8FE0446D8F800007F
:104730002246012804D0D9A1DAE7FEF772FDF4E79A
:10474000D9A1D5E7FEF7C0FDCBE7DBA1D0E76879BB
:10475000012600240128387803D00128254612D0EC
:1047600018E001284FF0000506D1FEF75AFD6D1C38
:104770000444322DF9DB13E0FEF7AFFE6D1C044458
:10478000322DF9DB0CE0FEF79FFD6D1C0444322D49
:10479000F9DB05E0FEF7C4FE6D1C0444322DF9DBA5
:1047A000322094FBF0F4B4E72DE9F04F4FF000090C
:1047B0008BB04D464C4602F041FC03F00AF8DFF89E
:1047C000088398F8050001287ED0D8F83460BF48E7
:1047D0004FF00A0A96FBF0F100FB116142F21070F3
:1047E00091FBF0F1ADF8201096FBF0F100FB1161A8
:1047F0004FF47A7091FBF0F1ADF8221096FBF0F1D6
:1048000000FB1161642091FBF0F1ADF8241096FBE0
:10481000F0F100FB1161504691FBF0F1ADF826106C
:1048200096FBFAF10AFB1160ADF8280002F08DFC4E
:10483000A748A84F00680128386856D0012898F882
:1048400005005ED0012872D0A3A20021084602F024
:104850003EFE3246A4A1684610F0E0FC6A46042100
:10486000002002F034FEAFF230420621002002F0B8
:104870002EFE02F066FC40F6C41B08AEBDF9201007
:1048800042F210704143BDF922006D1C00EB400262
:10489000C2EBC01001EBC001BDF924005D4500EB87
:1048A000C00202EB001001EB8001BDF9260000EB15
:1048B000800001EB4000BDF9281000EB01083AD15F
:1048C00038684246012800E00CE032D086A16846F4
:1048D00010F0A4FC6A460421002002F0F8FD02F06A
:1048E00034FC3CE0D8F82C6071E7012801D083A2A9
:1048F000ABE7002185A2084602F0E9FD324687A118
:1049000008E0012811D08AA20021084602F0DFFD4C
:1049100032468BA1684610F081FC6A4604210020D3
:1049200002F0D5FD8BA2A0E701E08EA2ECE791A2F8
:104930008BE77AA1CBE741F2883085421DDD002567
:1049400002F0FFFB38684246012824D066A1684681
:1049500010F064FC6A460421002002F0B8FDC4F1A6
:10496000040088A136F91020684610F057FCC4F105
:104970000C006A46042102F0AAFD02F006FA18B300
:1049800044480088012808D0022813D004281CD0ED
:10499000052821D124E061A1D9E7C4F1040036F84B
:1049A0001010491C09B291FBFAF326F810100AFB0B
:1049B000131107E0C4F1040036F9101009B1491EC3
:1049C00000E0092126F8101006E0641CA0B20521C1
:1049D000B0FBF1F201FB1204B9F1000F3FF44EAF4E
:1049E0000BB04046BDE8F08F20C8AEC0CE203ABD27
:1049F000C3C0DB002020BFB5C1A1C1B6C1A4000067
:104A0000205A45524F2043414C000000BDBAC6C752
:104A1000C1B6C1A42832290020BFB5C1A1C1B6C109
:104A2000A42832290000000020BFB5C1A1C1B6C131
:104A3000A428312900000000BDBAC6C7C1B6C1A470
:104A400028312900205A45524F2043414C28322911
:104A50000000000020454E5445523A5354415254F0
:104A60000000000000000020205A45524F20434122
:104A70004C28312900000000205350414E20434172
:104A80004C283129000000004144432832293A25AE
:104A9000376C640010010020F83800204144433A8C
:104AA00025376C640000000020C3E2B7C2B0AA3A08
:104AB00025376C6400000000C3E2B7C22832293AEF
:104AC00025376C640000000004000020A08601006F
:104AD000BC000020CC000020204C4F414420574512
:104AE0004947485428322900574549474854203AF5
:104AF0002530356C64206B6700000000204C4F416E
:104B000044205745494748540000000020BFC3B81F
:104B1000B1B9ABB0D420BCB3C1A4000020B9ABB0D4
:104B2000D4B0AA3A2530356C64206B6700000000D1
:104B300020BFC3B8B1B9ABB0D428322900000000FF
:104B400020B9ABB0D4B0AA203A2530356C64206BC4
:104B50006700000020C8AEC0CEC5B03AB4D9C0BD11
:104B60000000000020BFC3B8B1B9ABB0D4283129D0
:104B700000000000204C4F4144205745494748540D
:104B800028312900253164002DE9F047002792B033
:104B900006463C4602F01DFE02F0D7FAF9480068CE
:104BA000012867D0F8A20021084602F090FC02F02C
:104BB000C8FAFA484FF00A0896FBF0F100FB1161C1
:104BC00042F2107091FBF0F1ADF8341096FBF0F169
:104BD00000FB11614FF47A7091FBF0F1ADF83610E3
:104BE00096FBF0F100FB1161642091FBF0F1ADF850
:104BF000381096FBF0F100FB1161404691FBF0F19B
:104C0000ADF83A1096FBF8F108FB1160ADF83C00E6
:104C100040F6B83A0DAEBDF9341042F2107041437F
:104C2000BDF936006D1C00EB4002C2EBC01001EB79
:104C3000C001BDF93800554500EBC00202EB001081
:104C400001EB8001BDF93A0000EB800001EB400070
:104C5000BDF93C1000EB01090ED14A46D0A16846CF
:104C600010F0DCFA6A460421002002F030FC02F069
:104C70006CFA12E0CFA296E741F2707085421BDD1C
:104C8000002502F05EFA4A46C5A1684610F0C6FA51
:104C90006A460421002002F01AFCC4F1040036F92F
:104CA0001020AFF22011684610F0B8FAC4F10C00E1
:104CB0006A46042102F00BFC02F067F808B3C24810
:104CC0000088012806D0022811D004281AD005280F
:104CD0001FD121E0C4F1040036F81010491C09B2BC
:104CE00091FBF8F326F8101008FB131107E0C4F14C
:104CF000040036F9101009B1491E00E0092126F818
:104D0000101006E0641CA0B20521B0FBF1F201FB1B
:104D10001204002F3FF47FAF12B04846BDE8F08781
:104D20002DE9F041A0B000261822A84919A80FF0DB
:104D30007DF9002702F009FADFF84882A448A54C63
:104D4000D8F800100068012904D001280CD00228EE
:104D500009D00EE0012802D0022802D009E09EA26C
:104D600003E06079FBE760799FA20021084602F02A
:104D7000AEFB02F0E6F9607919AD01284FF00000B2
:104D800005D0E16855F820208A420AD00DE0A168DC
:104D900055F820208A4204D0401CC0B20628F7D320
:104DA00007E0062805D244B204E0401CC0B2062841
:104DB000E8D30024D8F8000055F82420012822D098
:104DC0008DA1684610F02AFA6A460221002002F0FE
:104DD0007EFB8CA20421002002F079FB02F0B5F9E1
:104DE0008CA20621002002F072FB02F0AAF901F069
:104DF000CCFFE0B374480088012816D002281CD0EC
:104E0000052825D121E087A1684610F007FA6A46F7
:104E10000221002002F05BFB85A20421002002F0A9
:104E200056FB02F092F986A2DBE7641C64B2052C03
:104E30000EDD0524FFF78AF80AE0641E64B2002C38
:104E400006DAFFF783F8002402E055F82470012603
:104E5000D8F8000055F8242001280ED066A1684635
:104E600010F0DCF96A460221002002F030FB002E2F
:104E7000BDD020B03846BDE8F0816AA1EFE710B59B
:104E80008EB002F0DBF802F0A4FC3E480068012876
:104E900046D06FA20021084602F019FB4FF47A7049
:104EA00000F03BFEFFF73CFF4A4CA060E06AFFF7D2
:104EB0006BFE0A222261E06269A1684610F0AEF939
:104EC00068460EF09DFBA168E06AB0FBF1F26BA1B1
:104ED0006846626210F0A2F968460EF091FB626AC1
:104EE00020694243AFF66C116846A26210F096F951
:104EF00068460EF085FB0020FFF74AFA6061FFF775
:104F000053FC206302F01DF90120FFF741FAE06134
:104F1000FFF74DF9FFF780F801F030FB0EB010BD40
:104F20005BA2B7E72DE9F04F002489B0A04602F05C
:104F300050FC14480068012817D0AFF61432002145
:104F4000084602F0C4FA02F000F9AFF61432062166
:104F5000002002F0BCFA02F0F4F8514F514E4FF02D
:104F60000005387801280BD0AAE0AFF620320021E6
:104F7000084602F0ACFA02F0E8F8AFF62032E6E7B5
:104F800092E00000CC0000202020434150414349E2
:104F9000545920202020202000000000A08601007D
:104FA00056414C5545203A202530356C6420202050
:104FB0000000000020C3D6B4EBB9ABB0D420BCB322
:104FC000C1A420200000000010010020945B010813
:104FD000BC0000200400002020C7D1B4ABC0C7B083
:104FE000AA20BCB3C1A40000202044495649494F1F
:104FF0004E20534554200000204449563A2532643F
:10500000206B67002055502D444F574E3A53454C66
:105010004543540020454E5445523A204E4558547D
:105020000000000020B0AA3A253264206B6700001F
:10503000C0A72CBEC6B7A1C5B03A20BCB1C5C3003D
:1050400020C8AEC0CEC5B03A2020B4D9C0BD000043
:1050500020202043414C20204D4F4445202000007B
:10506000765F65695F6D756C7469706C795F666198
:1050700063746F72203A202564000000765F655FDC
:105080007265736F6C7574696F6E203A20256400C9
:105090002020B9ABB0D4C1B6C1A4202000000000CC
:1050A000000000204C390020FEF70EF90FF0D2F975
:1050B0000FF0E6F96D1CEDB23060642DF4D30AE018
:1050C000FEF72EFA0FF0C6F90FF0DAF96D1CEDB20B
:1050D0003060642DF4D3FB4DA86928640FF0BAF951
:1050E000A96C0FF057F80FF0CBF9A863AFF6844125
:1050F0006846326810F092F868460EF081FAAFF612
:10510000844168462A6C10F089F868460EF078FAF7
:10511000AFF688416846AA6B10F080F868460EF03A
:105120006FFAA86C0FF0D9F902460B46E6A1684663
:1051300010F074F868460EF063FADFF8A0A3B946E1
:10514000DFF89CB301F021FE08B3BAF8000057461F
:10515000012808D1286C0FF07DF9A96C0FF01AF81E
:105160000FF08EF9A8633888022803D03888052804
:105170000AD00CE0A8690FF06DF9A96C0FF00AF8DD
:105180000FF07EF9A86302E001246FF0640899F83B
:105190000000012822D0FEF7C3F930600FF051F96A
:1051A000A96C0EF0F7FF0FF06BF9CBF80000A96BBC
:1051B000401A296900EB5100B0FBF1F2E868C9A17F
:1051C0004243684610F02AF86A460221002002F0A5
:1051D0007EF9002CB6D0404609B003E4FEF774F81F
:1051E000DBE72DE9F04788B002F0F3FAB54C206B0D
:1051F0000FF030F90546606B0FF02CF929460EF0E0
:10520000FFFF8046D4E90610401A2062AFF63C50FA
:105210000EF0F6F9AFF638516846A2690FF0FEFFBE
:1052200068460EF0EDF9AFF63C516846E2690FF0C2
:10523000F5FF68460EF0E4F9AFF644516846226A7D
:105240000FF0ECFF68460EF0DBF940460FF045F931
:105250008946064632464B46AFF6585168460FF02F
:10526000DDFF68460EF0CCF9A06A0FF0F3F8414676
:105270000EF0C6FF0FF01DF905460246AFF670515D
:1052800068460FF0CBFF68460EF0BAF9A0690FF040
:10529000E1F80746206A0FF0DDF841460EF07AFF8C
:1052A00039460EF01FFF0FF004F90246AFF6905199
:1052B00068460FF0B3FF68460EF0A2F941468C48ED
:1052C0000EF09EFF82460FF008F902460B46AFF63D
:1052D0009C5168460FF0A2FF68460EF091F9854A8E
:1052E000AFF6A05168460FF099FF68460EF088F9B6
:1052F000206A6FF0C107A84202D27FA2012109E013
:105300000FF0A8F8014650460FF016F908D2AFF694
:10531000AC520221002002F0DAF8384608B0FDE471
:10532000AFF62C616846226A0FF078FF68460EF0EF
:1053300067F9AFF6B8516846A26A0FF06FFF68468A
:105340000EF05EF932464B46AFF6486168460FF004
:1053500065FF68460EF054F9206A0FF07BF841466D
:105360000EF018FF0546A06A0FF074F829460EF0FB
:1053700047FFA0640FF0B1F802460B4652A1684601
:105380000FF04CFF68460EF03BF9A0690FF062F891
:10539000A16C0EF0FFFE0FF073F8E0635CA2022137
:1053A000002002F094F84FF4FA64204600F0B5FBB8
:1053B000204600F0B2FB6FF06400AFE710B58EB08E
:1053C00002F007FA002156A2084602F080F84FF4D6
:1053D0007A7000F0A2FB574909200860FFF7A0FC93
:1053E000384CE060E06AFFF7CFFB0A22AFF2903161
:1053F0002261606368460FF011FF68460EF000F905
:10540000E168606BB0FBF1F2AFF290316846626226
:105410000FF004FF68460EF0F3F8626A2069424319
:10542000AFF6A8616846A2620FF0F8FE68460EF07B
:10543000E7F80020FEF7ACFFA061FFF7B5F92063A5
:105440000120FEF7A5FFE061FFF7CBFEFFF76AFD45
:1054500001F094F862E52DE9F041AAB0002640225F
:10546000354919A80EF0E2FD002701F0E7FD02F032
:10547000B0F901F06AFEDFF8C480D8F80000012816
:1054800013D02FA20021084602F021F801F059FEA6
:105490000C4919AD487901284FF0000007D0496B3D
:1054A00055F820208A425BD05EE029A2EAE7C96A6B
:1054B00055F820208A4253D0401CC0B20E28F7D3A2
:1054C00056E0000004000020676E66466163746F5A
:1054D000725F32203A202566000000001001002093
:1054E0004839002053494C4F5F323A25376C6400ED
:1054F0000024744B0024F4004552524F52203234A1
:10550000203A205350414E204C4F572000000000BD
:105510002020535543434553532020202020200072
:105520002020202043414C20204D4F444520202066
:1055300000000000F8380020AC5B0108CC0000201F
:105540005345542043415041434954590000000001
:10555000C3D6B4EBB9ABB0D420BCB3C1A400000037
:105560000E2805D244B204E0401CC0B20E2897D3E6
:105570000024D8F8000055F82420012825D0D2A115
:1055800068460FF04BFE6A460221002001F09FFFA3
:1055900001F0DBFDAFF294520421002001F097FFEF
:1055A000AFF290520621002001F091FF01F0C9FDF9
:1055B00001F0EBFB00283ED0C6480088012818D037
:1055C00002281ED0052827D123E0C3A168460FF08A
:1055D00025FE6A460221002001F079FFAFF2B052A9
:1055E0000421002001F073FF01F0AFFDAFF2B052D3
:1055F000D8E7641C64B20F2C0EDD0F24FEF7A6FC66
:105600000AE0641E64B2002C06DAFEF79FFC002458
:1056100002E055F824700126D8F8000055F824203F
:1056200001280DD0A8A168460FF0F8FD6A460221B6
:10563000002001F04CFF002EBAD038462AB01AE400
:10564000A5A1F0E72DE9FE4FDFF898B2DFF89892B8
:10565000A64EA74C804601254FF0000AA54F4021D9
:1056600038460DF0B9FF2D2138460DF0B5FF2179F0
:10567000384630310DF0B0FF522138460DF0ACFF06
:105680000D2138460DF0A8FF0A2138460DF0A4FF81
:105690002079401CC0B22071042800D92571C8208F
:1056A00000F03BFA9BF8001000297DD092488BF85F
:1056B00000A05746C0F800A099F8010049463128DB
:1056C00006D0322828D033284AD0342823D16CE0A1
:1056D00088788A4A30385043CA7840F271235A4356
:1056E00000EB0212087900EB4003C3EBC01002EBA1
:1056F000C002487900EBC00303EB001002EB80020C
:10570000887999F8071000EB800002EB400008440C
:105710003044E06425706BE08878784A3038504334
:10572000CA7840F271235A4300EB0212087900EB69
:105730004003C3EBC01002EBC002487900EBC0038A
:1057400003EB001002EB8002887999F8071000EB58
:10575000800002EB4000084430442065657047E05B
:105760008878664A30385043CA7840F271235A43E9
:1057700000EB0212087900EB4003C3EBC01002EB10
:10578000C002487900EBC00303EB001002EB80027B
:10579000887999F8071000EB800002EB400008447C
:1057A00030446065A57023E04EE08878534A303875
:1057B0005043CA7840F271235A4300EB0212087931
:1057C00000EB4003C3EBC01002EBC002487900EBD2
:1057D000C00303EB001002EB8002887999F80710F0
:1057E00000EB800002EB400008443044A065E57007
:1057F000D4E9132C636D02EB0C00C118A06DB8F155
:10580000000F0144E16512D0CDF800C0CDE90130B0
:1058100013460A463AA146480FF000FDD4E91501A7
:10582000CDE90001D4E9132342A1414804E0CDE9C8
:10583000003063463FA13E480FF0F0FC27706770D0
:10584000A770E7700EF013F901F039FA00283FF461
:1058500005AF3E48008814287FF400AFE06DBDE836
:10586000FE8F2DE9F041224C00252E4638A130480C
:10587000226B0FF0D3FC246B3C4FDFF8D08001F09B
:105880001EFAD0B1B8F80000385C0C2810D2DFE85E
:1058900000F0060606060606060606060C0E04EBD3
:1058A0008401012600EB410402E0002400E0012510
:1058B00022462FA11E480FF0B1FC002DDFD0002E94
:1058C00000D02046BDE8F081204341503A253564A0
:1058D000206B67001001002020B0AA3A2535642013
:1058E0006B6700002A38002002950020B0DCF7FF2B
:1058F000040000200044004050380020A086010031
:105900005350414E2053554D3D25366C752C20315A
:105910003D25366C752C20323D25366C752C203398
:105920003D25366C752C20343D25366C7500000005
:10593000D43F00202825366C752C25366C752C2517
:10594000366C752C25366C75290000000E01002080
:1059500034202D2053657474696E675F57656967DD
:105960006874203D2025366C752000001801002049
:1059700034202D2053657474696E745F57656967B0
:105980006874203D2025366C7520000010B54FF45A
:10599000803420460FF032FA0FF08CFA6349012868
:1059A00008701CD100200FF01FFA00200FF050FAF1
:1059B000A0110FF043FA4FF4E01120460FF058FA0F
:1059C00001200FF04FFA39200FF0EEF90028FAD03D
:1059D00002200FF065FA0FF0FFF90828FBD1012132
:1059E00004200FF07FF9012108200FF07BF901213D
:1059F00010200FF077F9012120200FF073F9012119
:105A000040200FF06FF9012180200FF06BF9012188
:105A100008020FF067F9012108460FF063F9012130
:105A200008460FF047F9012102200FF043F9012148
:105A300048030FF057F9012188030FF053F90121B2
:105A400048040FF037F9012188040FF033F90121E0
:105A5000C8040FF02FF9012103200FF01FF90121D5
:105A60004FF402400FF03EF9012148050FF022F9F2
:105A70000121BDE8104048070FF01CB908B5C0204F
:105A8000ADF8000003208DF802001C208DF8030003
:105A9000694627480FF012F808BD38B54FF4405159
:105AA0004FF000600FF0EAF84FF4C0600FF0DCF840
:105AB00014208DF8000000248DF801408DF802407C
:105AC00001258DF8035068460FF094F803208DF8F7
:105AD00000008DF801408DF802408DF803506846B3
:105AE0000FF088F838BD41061248826942F0010281
:105AF00082611148426822F0E062426042680A43D3
:105B00004260704702E00A21491EFDD2401EFAD2CF
:105B100070474FF47A714843F4E742F2107302E0A1
:105B20001946491EFDD2401EFAD27047AC00002033
:105B3000000C01400010024000000140024611B973
:105B4000012070475043491E11F0FF01FAD1704700
:105B50001FB50020ADF804004BF6FF70ADF806004D
:105B6000A020ADF808004FF48060ADF80A000001F5
:105B7000ADF80C00FD48FE4C0090694620460DF043
:105B8000A9FF012120460EF00BF81FBD10B5FFF74D
:105B9000DFFFF849A220088010BD38B50020ADF81D
:105BA0000000F34CF34D012120460EF017F81421AC
:105BB00020460EF062F8ADF8000029780022204659
:105BC0000EF053F8142120460EF057F88007EAD55E
:105BD000E94920460EF0C8F82046BDE838400121CA
:105BE0000EF006B82DE9F041E14E88460546144610
:105BF000012130460DF0F2FFE04F304639460EF0FD
:105C00009BF80028F9D0DB480022017830460EF0DE
:105C10002CF8DB4F304639460EF08EF80028F9D0CC
:105C2000414630460EF01CF8D54FBF1C3946304671
:105C30000EF082F80028F9D00AE0297830460EF0FC
:105C40000FF86D1C394630460EF076F80028F9D072
:105C50002000A4F10104E4B2EFD13046BDE8F041E8
:105C600001210DF0C5BF2DE9F041054611F00F00EF
:105C70000C4602F00F01C0F11007C2F30716884668
:105C800011D08EB1D01BC0F3071600F00F088FB3F0
:105C90003A4621462846FFF7A5FFFFF77EFFE019A9
:105CA000C4B23D4426E05EB90A4612E01022214605
:105CB0002846FFF797FFFFF770FF1034E4B2103566
:105CC0003000A6F10106F6B2F0D15FEA080017D065
:105CD000024621462846FFF785FFBDE8F0415CE714
:105CE000102221462846FFF77DFFFFF756FF1034AC
:105CF000E4B210353000A6F10106F6B2F0D1E4E7C7
:105D0000BDE8F0812DE9F041994E0F460546144655
:105D1000012130460DF062FFDFF8608230464146D7
:105D20000EF00AF80028F9D0924800220178304697
:105D30000DF09BFFDFF84882304641460DF0FCFF36
:105D40000028F9D0F9B230460DF08AFF8C4FBF1C05
:105D5000394630460DF0F0FF0028F9D00AE02978E6
:105D600030460DF07DFFAD1C394630460DF0E4FFA6
:105D70000028F9D02000A4F10104A4B2EFD13046EC
:105D8000BDE8F04101210DF033BF2DE9F04105469A
:105D900011F00F000C4602F00F01C0F11007C2F322
:105DA0000716884612D096B1D01BC0F3071600F034
:105DB0000F0897B33A4621462846FFF7A3FFFFF79F
:105DC000ECFEE01984B205EB470526E05EB90A4611
:105DD00012E0102221462846FFF794FFFFF7DDFE70
:105DE0001034A4B220353000A6F10106F6B2F0D18D
:105DF0005FEA080084D0024621462846FFF782FF6A
:105E0000BDE8F041C9E6102221462846FFF77AFF97
:105E1000FFF7C3FE1034A4B220353000A6F101060E
:105E2000F6B2F0D1E4E76BE72DE9F041504C0F46B4
:105E30000546012120460DF0D1FE504E2046314648
:105E40000DF07AFF0028F9D04A4800220178204658
:105E50000DF00BFF4A4E204631460DF06DFF002835
:105E6000F9D0394620460DF0FBFE2646444CA41CD2
:105E7000214630460DF060FF0028F9D029783046E1
:105E80000DF0EEFE214630460DF056FF0028F9D009
:105E90003046BDE8F04101210DF0AABE2DE9F047E2
:105EA000334F8A4605461446012138460DF096FECA
:105EB000324E384631460DF03FFF0028F9D0DFF86A
:105EC000B4800022384698F800100DF0CEFEDFF8BE
:105ED000B090384649460DF02FFF0028F9D0012137
:105EE00038460DF05DFE514638460DF0B9FEDFF83C
:105EF000909009F10209494638460DF01DFF00282F
:105F0000F9D0012138460DF069FE314638460DF0D2
:105F100013FF0028F9D098F8001001223E463846B9
:105F20000DF0A3FE154F7F1C394630460DF004FFDF
:105F30000028F9D0114F3F37BCB1012C07D1002107
:105F400030460DF05FFE012130460DF051FE39461E
:105F500030460DF0F1FE0028EED030460DF082FE06
:105F6000641E05F8010BA4B2E6E70BE0A086010071
:105F700000540040B00000200004001001000300A5
:105F8000820007003046BDE8F04701210DF03ABE1F
:105F9000F8B50C4606464FF48075002128460EF0F1
:105FA0007DFE0120FFF7B9FDF1B204226846FFF73C
:105FB00075FF012C0BD0022C0CD0009C0120FFF7A8
:105FC000ACFD012128460EF069FE2046F8BD9DF883
:105FD0000040F3E7BDF80040F0E7F8B50C4607468F
:105FE0004FF480761546002130460EF057FE012D05
:105FF00010D0022D11D00094F9B204226846FFF7A8
:1060000032FE0120FFF789FD012130460EF046FEE9
:106010002046F8BD8DF80040EEE7ADF80040EBE714
:106020002DE9F04704218420FFF7B2FFFE49086004
:1060300004211820FFF7ACFFFC4908600421102060
:10604000FFF7A6FFFA4FFB4C43F698253860A042B5
:1060500000D33D6004210C20FFF79AFFF649086049
:1060600004218820FFF794FF804609210A20FFF7CA
:1060700065FD0EF0E6F9064640460EF0EBF93146B6
:106080000EF0BEF8ED4908600421B020FFF780FF54
:10609000EB4908600421C020FFF77AFFE949086056
:1060A0000421BC20FFF774FFE749A042086000D339
:1060B0000D600421B820FFF76BFFE449086004215C
:1060C000AC20FFF765FF054609210A20FFF736FDE2
:1060D0000EF0B7F9044628460EF0BCF921460EF042
:1060E0008FF8DB49086004211C20FFF751FFD949D4
:1060F00001260228086000D30E6004212020FFF74B
:1061000047FFD5490860401E322801D3142008609B
:1061100004212C20FFF73CFFD049B0F5FA7F08603E
:1061200001D9322008600421F020FFF731FFCC4C68
:10613000E060401E022800D3E66004217C20FFF7C7
:1061400027FFC84900250028086002DB3A68824220
:1061500000D20D6004218020FFF71AFFC2490028F9
:10616000086002DB3A68824200D20D6004218C2074
:10617000FFF70EFF6060A0F5D850583841F27171FA
:1061800042F21077884200D3676004217420FFF741
:10619000FFFE41F65831A060884204DB606843F29C
:1061A000C821884200DDA7600421A420FFF7F0FE8B
:1061B000AE490860401E3C2801D33C200860042101
:1061C000F820FFF7E5FE20610A38B0F5F57F00D929
:1061D00025610421FC20FFF7DBFE6061643842F298
:1061E000AD61884200D3656104218801FFF7D0FECC
:1061F000A061401E4FF00A08322801D3C4F818806D
:1062000004217820FFF7C4FEE061022800D3E66194
:106210000421EC20FFF7BCFE2062022800D3266296
:1062200004213820FFF7B4FE91496428086001D3A7
:10623000C1F8008004213C20FFF7AAFE8D494FF4ED
:106240007A794845086000D90D6004214020FFF7A5
:106250009FFE8949894A0860904200D90D60042157
:106260009020FFF795FE86490228086000D30E6053
:1062700004219420FFF78CFE824E834930608842CF
:1062800000D3356004219820FFF782FE7F494845FE
:10629000086000D30D600421A020FFF779FE7C493F
:1062A0000228086000D30D6004212820FFF770FE4B
:1062B00060620B2801D3C4F8248004219420FFF7E6
:1062C00067FE30600A20FFF728FC724930680844F6
:1062D0007149884201D37148306004214420FFF79E
:1062E00057FE6F4908600A20FFF717FC0421482079
:1062F000FFF74EFE6B4E30600A20FFF70EFC0421C4
:106300004C20FFF745FE70600A20FFF706FC0421D1
:106310005020FFF73DFEB0600A20FFF7FEFB04218E
:106320005420FFF735FEF0600A20FFF7F6FB04214A
:106330005820FFF72DFE30610A20FFF7EEFB042105
:106340005C20FFF725FE70610A20FFF7E6FB0421C1
:106350006020FFF71DFEB0610A20FFF7DEFB04217D
:106360006420FFF715FE504908600A20FFF7D5FBAF
:106370000421E820FFF70CFE4C4908600A20FFF7D3
:10638000CCFB0421C820FFF703FE494E30600A20F1
:10639000FFF7C3FB0421CC20FFF7FAFD70600A2051
:1063A000FFF7BBFB0421D020FFF7F2FDB0600A200D
:1063B000FFF7B3FB0421D420FFF7EAFDF0600A20C9
:1063C000FFF7ABFB0421D820FFF7E2FD30610A2084
:1063D000FFF7A3FB0421DC20FFF7DAFD70610A2040
:1063E000FFF79BFB0421E020FFF7D2FDB0610A20FC
:1063F000FFF793FB0421E420FFF7CAFD2D49086055
:106400000A20FFF78AFB04210020FFF7C1FD2A497B
:10641000A062884200D3A56204210846FFF7B8FDB8
:106420000421E062142049E018000020240000202C
:106430003000002040420F000C00002048000020E7
:106440001C00002064000020380000201000002004
:106450004C000020F4380020F8380020FC380020E0
:10646000B00000200C390020103900201439002021
:10647000003900200439002008390020803801004C
:1064800030390020343900208096980038390020B7
:1064900040390020600FE6FF21D6130068881E00F7
:1064A0001C39002078AE0020203900202839002037
:1064B00094AE00202C39002001E1F505FFF768FDBE
:1064C000206304216820FFF763FD606304216C20D2
:1064D000FFF75EFDA06304217020FFF759FDE06324
:1064E000E06A64389C2836D37021D920C4E90B10A7
:1064F000D4206063FA20A06342F2C7000422E06364
:106500001046FFF76AFDE0621E20FFF706FB04223B
:106510001420216BFFF761FD20631E20FFF7FDFAB9
:1065200004226820616BFFF758FD60631E20FFF7AF
:10653000F4FA04226C20A16BFFF74FFDA0631E202C
:10654000FFF7EBFA04227020E16BFFF746FDE063F2
:106550001E20FFF7E2FA04219C20FFF719FD2064BA
:10656000B84200D325640421C420FFF711FD606404
:10657000B84200D36564BDE8F087704738B50021A4
:106580004FF480700EF08AFBC0480422842100681A
:1065900000906846FFF767FB0A20FFF7BEFABC4889
:1065A00004220C21006800906846FFF75CFB0A207B
:1065B000FFF7B3FAB748042210210068009068463C
:1065C000FFF751FB0A20FFF7A8FA09210A20FFF77D
:1065D000B5FA0DF036FFB04909680DF0DBFD0DF09E
:1065E00068FF0090042288216846FFF73CFB0A20E0
:1065F000FFF793FAA9480422182100680090684622
:10660000FFF731FB0A20FFF788FAA5480422B021E2
:10661000006800906846FFF726FB0A20FFF77DFA26
:10662000A0480422B821006800906846FFF71BFBD1
:106630000A20FFF772FA9C480422BC2100680090EF
:106640006846FFF710FB0A20FFF767FA09210A20C6
:10665000FFF774FA0DF0F5FE944909680DF09AFD04
:106660000DF027FF00900422AC216846FFF7FBFAEB
:106670000A20FFF752FA8E480422C02100680090D9
:106680006846FFF7F0FA0A20FFF747FA8948002129
:106690000078012807D0884C042280202160FFF771
:1066A0009CFC206038BD854C04227C202160F6E7EC
:1066B0007B4808B5006800900422B0216846FFF7C7
:1066C000D2FA0A20FFF729FA76480422B821006896
:1066D00000906846FFF7C7FA0A20FFF71EFA7248D3
:1066E0000422BC21006800906846FFF7BCFA0A202B
:1066F000FFF713FA09210A20FFF720FA0DF0A1FE97
:106700006A4909680DF046FD0DF0D3FE00900422A1
:10671000AC216846FFF7A7FA0A20FFF7FEF96448A4
:106720000422C021006800906846FFF79CFA0A2006
:10673000FFF7F3F908BD10B5614C0422642021680D
:10674000FFF74BFC20600A20FFF7E7F95D4C0422BD
:1067500044202168FFF741FC20600A20FFF7DDF9A3
:10676000594C216804224820FFF737FC20601E2086
:10677000FFF7D3F9616804224C20FFF72EFC60601C
:106780001E20FFF7CAF9A16804225020FFF725FC5C
:10679000A0601E20FFF7C1F9E16804225420FFF732
:1067A0001CFCE0601E20FFF7B8F921690422582084
:1067B000FFF713FC20611E20FFF7AFF96169042287
:1067C0005C20FFF70AFC60611E20FFF7A6F9A169B3
:1067D00004226020FFF701FCA0611E20FFF79DF955
:1067E0003A4C0422E4202168FFF7F7FB20600A20DE
:1067F000FFF793F9364C0422E8202168FFF7EDFB00
:1068000020600A20FFF789F9324C21680422C82051
:10681000FFF7E3FB20601E20FFF77FF96168042289
:10682000CC20FFF7DAFB60601E20FFF776F9A16845
:106830000422D020FFF7D1FBA0601E20FFF76DF9E6
:10684000E1680422D420FFF7C8FBE0601E20FFF7B8
:1068500064F921690422D820FFF7BFFB20611E20C4
:10686000FFF75BF961690422DC20FFF7B6FB60618A
:106870001E20FFF752F9A1690422E020FFF7ADFBCB
:10688000A061BDE810401E20FFF747B918000020A6
:106890000C000020300000204800002024000020D0
:1068A0001C00002010000020380000204C000020B8
:1068B0006400002009000020103900200C3900205D
:1068C000203900201C39002078AE00202C3900200F
:1068D0002839002094AE00202DE9F84F4FF6BF1064
:1068E000ADF8000010258DF8035003248DF8024008
:1068F0006946F8480EF0E2F82F01ADF800708DF807
:1069000003508DF802406946F3480EF0D7F8C020D6
:10691000ADF800008DF802401C208DF80300694698
:10692000EE480EF0CBF842F20400ADF80000042669
:106930008DF803606946EA480EF0C0F8ADF80040F3
:106940008DF803508DF802406946E5480EF0B6F820
:106950004FF00209ADF800908DF803508DF8024019
:106960006946DE480EF0AAF86802ADF80000DFF8CC
:1069700074A38DF802408DF80360694650460EF00E
:106980009DF8A802ADF800008DF802404FF0140801
:106990008DF80380694650460EF090F8ADF800700F
:1069A000DFF844B38DF802408DF80360694658461D
:1069B0000EF084F86801ADF800008DF802408DF803
:1069C0000380694658460EF079F84FF4F060ADF850
:1069D00000008DF803508DF802406946C3480EF060
:1069E0006DF84FF47870ADF8000048208DF8030082
:1069F000694650460EF062F82802ADF800008DF8A6
:106A000003508DF802406946B5480EF057F8082744
:106A1000ADF800708DF803508DF802406946584675
:106A20000EF04CF8ADF800608DF803508DF8024080
:106A3000694658460EF042F8ADF800908DF80350C4
:106A40008DF80240694658460EF038F80120ADF83E
:106A500000008DF80360694658460EF02FF84FF499
:106A60006070ADF800008DF8036069469C480EF038
:106A700025F8ADF800708DF80360694697480EF070
:106A80001DF84FF46050ADF800008DF803508DF8FC
:106A90000240694658460EF011F8ADF800508DF8E6
:106AA00003508DF8024069468C480EF007F801212A
:106AB0008F480EF053F801218E480EF04FF8BDE8D4
:106AC000F88F08B54FF48070ADF8000010208DF8F5
:106AD000030003208DF80200694680480DF0EEFFA8
:106AE00008BD08B54FF48070ADF8000048208DF85F
:106AF000030003208DF80200694678480DF0DEFFA0
:106B000008BD10B5734C4FF4806120460EF05EF85E
:106B1000E11420460EF05AF8A11420460EF056F863
:106B2000611420460EF052F82046BDE810404FF4A4
:106B300080410EF04DB810B5664C4FF48061204690
:106B40000EF044F8E11420460EF040F8A11420465F
:106B50000EF03CF8611420460EF03AF82046BDE8ED
:106B600010404FF480410EF031B810B5594C4FF43D
:106B7000806120460EF02AF8E11420460EF026F837
:106B8000A11420460EF024F8611420460EF01EF8E1
:106B90002046BDE810404FF480410EF017B810B504
:106BA0004C4C4FF4806120460EF010F8E114204662
:106BB0000EF00EF8A11420460EF008F861142046DD
:106BC0000EF004F82046BDE810404FF480410DF06F
:106BD000FDBF10B53F4C4FF4806120460DF0F8FF2B
:106BE000E11420460DF0F2FFA11420460DF0EEFF57
:106BF000611420460DF0EAFF2046BDE810404FF436
:106C000080410DF0E3BF70B5FFF7E3FF374D284635
:106C10000DF0C8FF1F2414EA901101D0012028E0D4
:106C2000FFF7BDFF28460DF0BDFF14EA901101D01B
:106C300002201EE0FFF799FF28460DF0B3FF14EA8B
:106C4000901101D0032014E0FFF775FF28460DF0E6
:106C5000A9FF14EA901101D004200AE0FFF751FFC8
:106C600028460DF09FFF14EA901101D0102000E09B
:106C700000200023102420251F4A102918D008DCEA
:106C800001290DD002290DD004290DD0082910D1D9
:106C90000CE0202904D0402904D0802909D103E048
:106CA000D38007E0D48005E0D58003E0302100E008
:106CB0004021D180D188084480B2D08070BD10B509
:106CC000FFF7A1FF0C49C888CA68824216D100208C
:106CD00010BD00000020014000080140000C0140F0
:106CE000001001400018014000140140001C014048
:106CF000000430000002300008010020C8600028B5
:106D0000E6D0FDF714F99620FEF707FFFDF7F8F837
:106D10000120DDE710B5FFF776FF3548C088002871
:106D2000D6D00120D4E73EB5314C0025257031483E
:106D30000DF038FF00F4F870208120894FF6FF71C4
:106D400001EA4000208122892BA168460EF066FAF4
:106D500021890120B1F5787F08D06070617841B158
:106D600021896289914203D1257002E06570F5E7BF
:106D70002070208960813EBD1D48002141708170D6
:106D80000181418103218180704710B5FFF7CBFF5E
:106D900017484178C9B10178B9B10189B1F5387F97
:106DA00015D00189B1F5687F13D00189B1F5F07F65
:106DB00011D00189B1F5587F0FD00189B1F5707FED
:106DC0000DD00189E0290CD00DE0002080E70121E1
:106DD00008E0022106E0052104E0032102E004218D
:106DE00000E0062101810A20FDF7A6F801206FE7E7
:106DF000080100200018014020255800C0F3072199
:106E0000C2B2A0F53040A13841F65D0398420FD8D8
:106E1000B039C1EB011000EB411002EB4000FF4A1A
:106E2000A13812F8101002EB4000407840EA01202F
:106E300070472DE9F041FA4D0F4604464FF40076B5
:106E4000314628460DF0C2FE394628460DF0C2FEF6
:106E5000EF147F2C3946284626D00DF0B9FE4FF4AA
:106E60008064214628460DF0B1FE0120FEF74AFE5F
:106E7000314628460DF0ACFE0120FEF743FE3146B8
:106E800028460DF0A3FE0120FEF73CFE21462846D1
:106E90000DF09EFE394628460DF098FE31462846F4
:106EA000BDE8F0410DF094BE0DF090FED7E76420F0
:106EB000FEF728BEDB4910B501200870D84CC1028E
:106EC00020460DF083FE0320FEF71CFEA114204691
:106ED000BDE810400DF07CBED24910B5002008700E
:106EE000CF4C4FF4805120460DF070FE0320FEF78A
:106EF00009FEE1142046BDE810400DF069BE70B5F2
:106F00004FF6FF7101EA4001C64E01F4C07400F073
:106F10003F000443307810B3FFF7CCFFC04D4FF46F
:106F2000004128460DF052FE4FF4804128460DF0F6
:106F30004DFE3078B0B144F4805128460DF04AFE41
:106F40004FF40054214628460DF042FE0120FEF782
:106F5000D9FD21462846BDE870400DF037BEFFF749
:106F6000BBFFDBE744F40061E7E7AF4910B5087009
:106F70000878B830FFF7C3FFBDE810406420FEF783
:106F8000C1BD00F01F01A94810B501700278A549E4
:106F90000B2A08D200220A700078402100EB400042
:106FA00001EB400005E001220A70007800EB400090
:106FB0004000FFF7A4FFBDE810406420FEF7A2BD2B
:106FC00010B50C46FFF7DDFF2046BDE81040CCE7CA
:106FD00070B54FF6FF7101EA4001924E01F4C074A2
:106FE00000F03F000443307810B3FFF763FF8C4D8F
:106FF0004FF4004128460DF0EBFD4FF48041284648
:107000000DF0E4FD3078B0B144F4104128460DF0A5
:10701000E1FD4FF40054214628460DF0D9FD012032
:10702000FEF770FD21462846BDE870400DF0CEBD4C
:10703000FFF752FFDBE744F40841E7E72DE9F047AB
:107040000025784F2E464FF001083E70FFF744FFB1
:107050004020FFF754FF05F1B8008146FFF74FFFCE
:1070600000240020FFF7B4FF0320FEF74BFD641C53
:10707000E4B2402CF5D387F80080FFF71BFF4020D7
:10708000FFF73DFF4846FFF73AFF00240020FFF7D7
:107090009FFF0320FEF736FD641CE4B2402CF5D3BD
:1070A0006D1CEDB2082DD0D33E70604806705E496D
:1070B0000E7009780078FFF783FF5D4806805D4811
:1070C00006805D4806805D4806805D4806805D4814
:1070D00006805D4806805D4806805D4806805D4804
:1070E00006805D4806805D480680BDE8F0870F2178
:1070F0007F209EE60C217F209BE670B50D000446A4
:1071000006D0012D07D0022D10D0032D09D110E09B
:1071100004F1800001E004F1C000C1B27F20FFF75C
:1071200088FE4F4804604F48056070BD04F194002C
:10713000F3E704F1D400F0E710B50A20FEF7E2FC13
:1071400010BD49490020087070474749FF2008706A
:107150007047354910B508700878B830FFF7CFFE92
:10716000BDE810406420FEF7CDBC10B52F4C207058
:107170002078402804D2FFF7AFFE2078403002E0AC
:10718000FFF798FE2078FFF7BAFEBDE810406420B4
:10719000FEF7B8BC10B50C46FFF7E7FF2046BDE888
:1071A0001040D6E71F4910B5012008701E4800782E
:1071B000FFF7DBFE4020FFF7A2FEBDE81040642091
:1071C000FEF7A0BC70B51546FFF7FAFE002428466E
:1071D000FFF7FEFE641CE4B2062CF8D370BD70B558
:1071E0000D460446402802D2FFF776FE03E0FFF783
:1071F00061FE403CE4B2B82000EBD500C6B2304698
:10720000FFF77DFE04F140000446FFF778FE3046AC
:10721000FFF775FE2046FFF772FE27E0EC5B0108E2
:107220000020014022370020213700202037002095
:10723000FE360020003700200237002004370020EF
:1072400006370020083700200A3700200C370020BE
:107250000E3700201037002012370020143700208E
:10726000183700201C370020FC36002005F00701ED
:107270000120BDE870408840384380B2A8E670B570
:107280000D460446402802D2FFF726FE03E0FFF732
:1072900011FE403CE4B2B82000EBD500C6B2304647
:1072A000FFF72DFE04F140000446FFF728FE3046AC
:1072B000FFF725FE2046FFF722FE05F00701BDE897
:1072C00070400120884027EA000081E62DE9F04166
:1072D000FF49FD4FFD4DDFF8FC83002401EB001654
:1072E0003888C1B22888C0B2FFF754FF305D98F8E3
:1072F00000104840FFF76CFE3888401CC1B2288857
:10730000C0B2FFF747FF301998F80010007A4840E4
:10731000FFF75EFE2888401C2880641CE4B2082C1D
:10732000DED3ED490888401C0880BDE8F0812DE9D6
:10733000F047DFF8A4930646B9F80000E34D4FF696
:10734000FF7101EAC0002880E4480088DE4F3880E1
:10735000DFF8808300243888C1B22888C0B2FFF7E4
:1073600019FF305D98F800104840FFF731FE38886B
:10737000401CC1B22888C0B2FFF70CFF301998F842
:107380000010007C4840FFF723FE2888401C28801E
:10739000641C102CDFDBB9F80010491CA9F80010A0
:1073A000B9F80010491CA9F800109EE6F0B5CC49C8
:1073B000C0F3842200258B5C1531C0F3441200F029
:1073C0001F00895CC64A89B03332175C8FB302F163
:1073D00034000126405C012B38D0102B36D003221C
:1073E000BF4C7D34655C00EB800003EB8004DFF86C
:1073F000F4E200206B460EEB441C1CF800401C54C9
:10740000401CC0B21F28F8D902EB420000EBC200BA
:1074100001EB4001A03100200EEB41111A5C0C5C25
:1074200022431A54401CC0B21F28F7D9012E0FD096
:107430001EE0FFE7AA4800265130012B405C03D034
:10744000102B01D00122CEE70022CCE70222C7E7B1
:10745000C5EBC50007EB8001F83100200EEB4112AF
:10746000195C145C21431954401CC0B21F28F7D981
:107470001846FFF75CFF09B0F0BD70B505460C4635
:1074800008460CF003FEC0B2401E00EBD07007218E
:10749000A1EB60009049C0B2088090490D808B49F3
:1074A000C0000880884805800DE0641C802802D256
:1074B000FFF70CFF07E014F8011B01EB0020FFF7BA
:1074C0009DFCFFF773FF20780028EED170BD10B54A
:1074D0001446814A1080814A11807C4AC000108085
:1074E000794801800DE0641C802802D2FFF7EEFE8F
:1074F00007E014F8011B01EB0020FFF77FFCFFF70A
:1075000055FF20780028EED110BD0020401C022835
:10751000FCD370473F20F2E470B5734D4FF4807494
:10752000214628460DF054FB0A20FEF7F6FA2146C4
:1075300028460DF04BFB0A20FEF7EFFA21462846BD
:107540000DF046FB634800240470684D2C70FFF773
:10755000C3FCC020FFF7D3FC1420FEF7DEFAB820EE
:10756000FFF7CDFC1420FEF7D8FA4020FFF7C7FC48
:1075700001262E70FFF79EFCC020FFF7C0FC1420F0
:10758000FEF7CBFAB820FFF7BAFC1420FEF7C5FAD5
:107590004020FFF7B4FCFFF751FD2E70FFF78AFC87
:1075A0003F20FFF7ACFC2C70FFF796FC3F20FFF765
:1075B000A6FC2C704E4804704E490C700978007877
:1075C000FFF7E8FD44480480444804804A480480AA
:1075D0004A4804803D4804803B4804804848048071
:1075E000484804804848048048480480484804804B
:1075F0004848048070BD70B50C46154606217F20B2
:10760000FFF717FC0120FEF788FA9CB1012C1FD070
:10761000022C2BD0032C0CD1D4217F20FFF709FCA6
:1076200000240020295DFFF704FC641CE4B2142C44
:10763000F7D370BD80217F20FFF7FBFB00240020E3
:10764000295DFFF7F6FB641CE4B2142CF7D370BD80
:10765000C0217F20FFF7EDFB00240020295DFFF70C
:10766000E8FB641CE4B2142CF7D370BD94217F2096
:10767000FFF7DFFB00240020295DFFF7DAFB641C25
:10768000E4B2142CF7D370BD70B50C461546062134
:107690007F20FFF7CEFB0120FEF73FFA9CB1012CC3
:1076A00048D0022C54D0032C0CD1D4217F20FFF7DA
:1076B000C0FB00240020295DFFF7BBFB641CE4B283
:1076C000142CF7D370BD27E00837002006370020C0
:1076D0005E010020FC360020FE360020003700202E
:1076E000486E01085E090020000801402237002092
:1076F00020370020213700200237002004370020E7
:107700000A3700200C3700200E37002010370020E9
:10771000123700201437002080217F20FFF789FBDB
:1077200000240020295DFFF784FB641CE4B2142CC4
:10773000F7D3C7E7C0217F20FFF77BFB00240020A1
:10774000295DFFF776FB641CE4B2142CF7D3B9E78C
:1077500094217F20FFF76DFB00240020295DFFF7B7
:1077600068FB641CE4B2142CF7D3ABE770B5044695
:10777000FFF764FC224DFF21297022A20221002084
:10778000FFF7A5FE3CB122A204210020FFF79FFED7
:107790000020287096E721A2F6E72DE9F0410025A8
:1077A00007462E46FFF786FB4020FFF7A8FB06F1B1
:1077B000B800FFF7A4FB0024785D6D1CFFF708FC00
:1077C000641CE4B2402CF7D3761CF6B2082EE9D341
:1077D000ABE510B5002114A20846FFF778FE12A20F
:1077E00002210020FFF773FE0FA204210020FFF703
:1077F0006EFE0621BDE810400BA2002067E60000E7
:10780000FC360020BCF6B0C5C5EBC0CC00000000C3
:10781000C3A1BDC0B4CFB4D900000000BEF8BDC044
:10782000B4CFB4D900000000202020202020202048
:10783000202020202020202000000000002804D14B
:107840004948818800680DF0C3B97047002804D109
:107850004548818800680DF0B9B9704710B5002817
:1078600011D1414C20680DF0A7F9B4F90410014280
:10787000A188206803D0BDE810400DF0A7B9BDE88D
:1078800010400DF0A5B910BD032808D2364A0832C1
:1078900002EBC00152F8300089880DF099B97047A9
:1078A000032808D2304A083202EBC00152F83000F7
:1078B00089880DF08BB9704770B50446032817D23C
:1078C000294D083555F834000DF076F9014605EBE1
:1078D000C400B0F904200A42818855F8340003D06E
:1078E000BDE870400DF072B9BDE870400DF070B9A0
:1078F00070BD80211D480DF069B94FF400711B481F
:107900000DF064B94FF4807118480DF05FB94FF471
:10791000806116480DF05AB910B5FFF7EAFFFFF77E
:10792000ECFFFFF7EFFFBDE81040F0E74FF4806198
:107930000E480DF04DB94FF480710C480DF048B968
:107940004FF4007109480DF043B9802107480DF04C
:107950003FB910B5FFF7F9FFFFF7F2FFFFF7EBFFB5
:10796000BDE81040E2E70000DC6E0108001C0140A9
:107970002DE9F047FB4C0025FB4FA07AFB4EDFF8CA
:10798000F0834FF00109002879D0FA480570FFF71D
:10799000DCFFA57225713068A067F7480068206792
:1079A000E16E081AE065002807DD39680422014409
:1079B00000203960FEF711FB3860F04D04229C2056
:1079C0002968FEF70AFB28606420FEF7A6F8EC4D54
:1079D0000422C4202968FEF700FB28606420FEF71B
:1079E0009CF8A06F43F6982188423DDAE5A00BF0A1
:1079F00007FE04224420A16FFEF7EFFA30606420F6
:107A0000FEF78BF8EC480068012802D0022817D056
:107A100027E0EA483268006801280FD0E8A1EC4866
:107A20000DF0FCFBFFF791FBE94A06210020FFF770
:107A30004EFD40F6B830FEF770F810E0E5A1EEE735
:107A4000FFF783FB3168D8F800000A18E5A1E04889
:107A50000DF0E4FBDE4A06210020FFF738FDFFF7BA
:107A600070FBE4A00BF0CCFD84F80590EEA1D848A3
:107A7000A26F0DF0D3FBD6480BF0C2FD00E02AE068
:107A8000EEA1D348226F0DF0C9FBD1480BF0B8FD31
:107A9000EFA1CF48E26E0DF0C1FBCD480BF0B0FD79
:107AA000F0480268F0A1CA480DF0B8FBC8480BF0D6
:107AB000A7FDF2A1C648626F0DF0B0FBC4480BF001
:107AC0009FFDF3A1C24832680DF0A8FBBDE8F04766
:107AD000BF480BF095BD607B002862D0F14805706F
:107AE000FFF72EFFF0486573A57100689D4D803546
:107AF0002860E16F081A2066002807DD3968042233
:107B0000014400203960FEF768FA3860D8F80010A8
:107B100042F228304746A960814217D20422E82069
:107B2000FEF75BFA3860C820FDF7F7FFFFF70DFBA3
:107B3000306839684218ABA1A5480DF06FFBA44A24
:107B400006210020FFF7C3FCFFF7FBFAB6A1A0480F
:107B5000AA680DF063FB9E480BF052FD84F8079075
:107B6000D2A19B482A680DF059FB99480BF048FDBB
:107B7000CEA197483A680DF051FB95480BF040FDB7
:107B80006420FDF7CAFFFFF7DBFEC820FDF7C5FF45
:107B9000FFF7B3FEC820FDF7C0FFBDE8F047FFF7D1
:107BA000CFBEBDE8F087854810B502686D487249C0
:107BB000724C807C012A04D0B8B1BDA0FFF787FCCD
:107BC0001DE018B1BFA0FFF782FC09E00A68C0A160
:107BD0007F480DF023FB00217D4A0846FFF777FC24
:107BE000FFF7B3FABEA122680DE00A68C0A1784889
:107BF0000DF014FB0021764A0846FFF768FCFFF7FA
:107C0000A4FA2268BEA172480DF008FB704A022156
:107C10000020FFF75CFCBDE81040FFF792BA2DE9A9
:107C2000F043BB4DBB4E99B000242B68BAA1684607
:107C300032680DF0F3FAFFF7CCFDDFF88091D9F848
:107C40000000012819D0BAA202210020FFF73FFC52
:107C5000B9A204210020FFF73AFC4FF4FA60FDF7C7
:107C60005CFFB94FFFF791F888B1388806280ED22B
:107C7000DFE800F00D0A0A0A0A0FB4A20221002070
:107C8000FFF725FCB4A2E4E7FCF760F953E0002C11
:107C9000E8D0FFF79EFDDFF8D082002798F80000BB
:107CA000012850D0FBF73CFC7F1CFFB20446052F97
:107CB000F4D30CF0C6FBAD4909680CF06BFA0CF07C
:107CC000DFFBAB4FABA138602B68684632680DF024
:107CD000A5FAAE4EAE4D4FF00008346004222146A6
:107CE000B020C5F80080FEF778F930600A20FDF773
:107CF00014FF0422B4203968FEF76FF938600A20B7
:107D0000FDF70BFF042280202968FEF766F9286042
:107D10000A20FDF702FF2B6896A1684632680DF035
:107D20007DFA9CA204210020FFF7D1FB0D4880F8CA
:107D3000108080F81180FFF74CFD1F4D0B4C286818
:107D4000012803D03BE1FBF7BFFAADE7FFF72BFFBC
:107D5000FFF7FBF9D9F800002268012800D023E1E1
:107D60006EE1000060360020D80000201C390020A1
:107D70002839002080380020E4380020F00000205E
:107D8000F400002073696C6F312063757272656E48
:107D9000742066656564696E67207175616E7469CB
:107DA000747920656570726F6D20736176652073DC
:107DB0007461727420210000BC000020CC000020FF
:107DC000544F4441593A2025356C64206B670000BC
:107DD00034880020BFC020B4C33A2025356C64200D
:107DE0006B672000BFC020B4C33A2025356C6420E7
:107DF0006B67000073696C6F312063757272656E1A
:107E0000742066656564696E67207175616E74695A
:107E1000747920656570726F6D2073617665206579
:107E20006E64202100000000546F646179546F7407
:107E3000616C7265663D25366C75200053746F70F9
:107E40005F576569676874203A2025640000000068
:107E500053746172745F576569676874203A2025AE
:107E600064000000E838002067786C47726F737315
:107E7000576569676874203A20256400546F64610F
:107E800079546F74616C726566203A202564000035
:107E9000676E6C4461696C79546F74616C203A2030
:107EA0002564000081380020EC380020256C640037
:107EB0004C4F41445F43454C4C204552524F522158
:107EC00000000000B7CEB5E5BCBF20BFA1B7AF0032
:107ED000B9AB20B0D43A2025356C64206B67200004
:107EE000B1DE20C0CC3A2025356C64206B672000C1
:107EF00053494C4F203A2025356C64206B67200095
:107F000046454544203A2025356C64206B672000A7
:107F10000C39002018000020765F7A65726F313DC1
:107F200025366C752020636F6D703D25366C7500AD
:107F300053494C4F20320000204D414B45205A45BB
:107F4000524F202020203F001001002020BDCEC035
:107F5000CCB7CE203200000020BFB5C1A120BDC7E4
:107F6000C7E0202020203F00000000204C0000201F
:107F700040000020765F7A65726F323D25366C7561
:107F80002020636F6D703D25366C75001C0000204D
:107F900010390020205A45524F2046494E49534837
:107FA00045442E2E00000000F7A1FB480DF036F9E5
:107FB000F94A06210020FFF78AFAFFF7C2F828687D
:107FC00002283AD1D9F80000F44EF54FF54D0128BA
:107FD00039D0FFF7BAF833683A68F3A1EE480DF0EC
:107FE0001DF90021EC4A0846FFF771FAFFF7A9F8DE
:107FF000F1A1E94822680DF011F9E74A02210020B9
:10800000FFF765FAF0A1E4482A680DF007F9E24AA3
:1080100004210020FFF75BFAFFF797F82068296832
:108020004218AFF26421DC480DF0F8F8DA4A062174
:108030000020FFF74CFAFFF784F819B0BDE8F08391
:10804000AFF27021B1E7FFF780F833683A68E2A138
:10805000D1480DF0E3F80021CF4A0846FFF737FA80
:10806000FFF76FF8E0A1CC4822680DF0D7F8CA4AB4
:1080700002210020FFF72BFADFA1C7482A680DF084
:10808000CDF8C54A04210020FFF721FAFFF75DF87B
:10809000206829684218AFF2B421C4E72DE9F047FF
:1080A000D94EDFF868839AB033680024AFF2981194
:1080B0006846D8F800200DF0B1F8FFF78AFBDFF82A
:1080C00050A3D44DDAF800000128286802D0022815
:1080D00009D00DE0022804D1CFA202210020FFF731
:1080E000F6F9D0A205E0D3A202210020FFF7EFF9B4
:1080F000D2A204210020FFF7EAF94FF4FA60FDF75D
:108100000CFDD24FFEF741FE50B13888062807D249
:10811000DFE800F0060303030308FBF717FF59E04D
:10812000002CEFD0FFF755FBDFF82493002799F8D8
:108130000000012855D0FBF7D0F97F1CFFB20446A0
:10814000052FF4D30CF07DF9C24909680CF022F830
:108150000CF096F9DFF800934746C9F80000336841
:10816000AFF2F0116846D8F800200DF057F84FF044
:1081700000083C60042221468420C6F80080FDF7F8
:108180002CFF38600A20FDF7C8FC04220820D9F82B
:108190000010FDF722FFC9F800000A20FDF7BDFC22
:1081A00004227C203168FDF718FF30600A20FDF7BB
:1081B000B4FC3368A9A168463A680DF02FF8AFF215
:1081C0002C2204210020FFF782F9AA4880F81080B1
:1081D00080F81180FFF7FDFA2868A74C012803D02A
:1081E00016E0FBF71EF8A8E7FFF7DDFCFEF7ADFF92
:1081F000DAF800002268012849D063A166480DF032
:108200000DF8654A06210020FFF761F9FEF799FF96
:108210002868022839D1DAF80000604E604F614DBD
:10822000012837D0FEF791FF33683A685EA15A48BB
:108230000CF0F4FF0021584A0846FFF748F9FEF712
:1082400080FF5DA1544822680CF0E8FF524A0221E9
:108250000020FFF73CF95CA14F482A680CF0DEFFD4
:108260004D4A04210020FFF732F9FEF76EFF206827
:108270002968421881A148480CF0D0FF464A0621DF
:108280000020FFF724F9FEF75CFF1AB089E4AFF293
:10829000BC41B3E7FEF759FF33683A684EA13E4848
:1082A0000CF0BCFF00213C4A0846FFF710F9FEF72E
:1082B00048FF76484CA1026837480CF0AFFF364AB9
:1082C00002210020FFF703F971484BA102683248F0
:1082D0000CF0A4FF304A04210020FFF7F8F8FEF765
:1082E00034FF2068296842186AA1C4E72DE9F04FDD
:1082F0008FB010216B480CF069FC6B4800780128A6
:108300003AD16A4F0A266A4D39684FF0000B91FB4B
:10831000F6F02A78303A90422FD106FB1011687897
:108320003038814229D110215E480CF051FC3220B6
:10833000FDF7F3FBA878E978000400EB0120297928
:108340005C4A0844811ADFF8CC805B4CDFF86C9102
:10835000DFF820A1904211D011DCA2F10302A0EBC2
:10836000020190420CD00CDC554940180AD0A0F50F
:108370005540DC3807D11EE116E102E108E2A6E033
:1083800090E19FE0B2E0F5E0544F4441593A202596
:10839000356C64206B67200034880020EC380020A6
:1083A000E43800202839002053494C4F3A25356CD9
:1083B000642D25356C64000046454544313A253529
:1083C0006C64206B6700000046454544323A253511
:1083D0006C64206B67000000B9ABB0D43A25356CF3
:1083E000642D25356C640000B1DEC0CCB7AE313AE7
:1083F00025356C64206B6700B1DEC0CCB7AE323A75
:1084000025356C64206B67000C39002018000020B3
:10841000CC000020BC00002020BDCEC0CCB7CE20B8
:1084200031B9F80020BFB5C1A120BDC7C7E0203FCA
:10843000000000002053494C4F203100204D414B9B
:1084400045205A45524F203F0000000010010020F7
:1084500000000020480000203C000020765F7A6584
:10846000726F333D25366C752020636F6D703D252E
:10847000366C7500603600201C390020544F444192
:1084800059203A25356C64206B670000F00000200D
:10849000F4000020BFC020B4C3203A25356C64200E
:1084A0006B670000000801402A380020383900209E
:1084B00002950020342D440078AE002094AE0020B8
:1084C000ACA8BCFF012972D0022953D139E103299C
:1084D0006ED004DC01296CD002294BD1A6E1B1F5A4
:1084E000A15F67D0F748081844D1B2E0F6A00BF0BE
:1084F00087F802200BF02BF9386890FBF6F030304B
:108500000BF025F9386890FBF6F106FB11003030CE
:108510000BF01DF9A8780BF01AF9E8780BF017F9B1
:1085200028790BF014F9D8F80010E84801290FD089
:108530009AF81130E64A0BB1C2F800B09AF8101060
:1085400009B1C0F800B0006811684218E1A105E067
:108550009AF8101002680029F8D0E0A101A80CF0E8
:108560005DFE01A80BF015F903200BF0F0F80020D8
:108570000BF0EDF83220FDF7D0FA1021D9480CF0BD
:1085800025FBFF2028706870A870E870D649287114
:108590006871087048708870C87008714871887177
:1085A000C871D24981F800B00FB0BDE8F08FA0E0EB
:1085B00063E114E128E0CEA00BF022F802200BF0DA
:1085C000C6F8386890FBF6F030300BF0C0F8386829
:1085D00090FBF6F106FB110030300BF0B8F8A878EC
:1085E0000BF0B5F8E8780BF0B2F828790BF0AFF89B
:1085F000D8F80010BF48012904D0BF4900680968B5
:10860000421896E1026894E1BCA00AF0F9FF02204A
:108610000BF09DF8386890FBF6F030300BF097F8CF
:10862000386890FBF6F106FB110030300BF08FF844
:10863000A8780BF08CF8E8780BF089F828790BF023
:1086400086F89AF8201000919AF81F309AF81E20A8
:1086500023E0ABA00AF0D4FF02200BF078F83868D2
:1086600090FBF6F030300BF072F8386890FBF6F1C2
:1086700006FB110030300BF06AF8A8780BF067F8B1
:10868000E8780BF064F828790BF061F80AF1220021
:108690004178009103789AF821209AA101A80CF062
:1086A000BDFD5EE79BA00AF0ABFF02200BF04FF888
:1086B000386890FBF6F030300BF049F8386890FBE2
:1086C000F6F106FB110030300BF041F8A8780BF002
:1086D0003EF8E8780BF03BF828790BF038F8D8F83A
:1086E0000000012803D02168D9F8000025E02268A5
:1086F0001FE189A00AF084FF02200BF028F83868F7
:1087000090FBF6F030300BF022F8386890FBF6F171
:1087100006FB110030300BF01AF8A8780BF017F8B0
:10872000E8780BF014F828790BF011F8D8F800006D
:10873000012804D06168D9F804000A18F9E06268D9
:10874000F7E076A00AF05CFF02200BF000F8386832
:1087500090FBF6F030300AF0FAFF386890FBF6F143
:1087600006FB110030300AF0F2FFA8780AF0EFFFA4
:10877000E8780AF0ECFF28790AF0E9FFD8F8000061
:10878000012803D0A168D9F80800D6E7A268D0E094
:1087900063A00AF035FF02200AF0D9FF386890FB89
:1087A000F6F030300AF0D3FF386890FBF6F106FBA4
:1087B000110030300AF0CBFFA8780AF0C8FFE87843
:1087C0000AF0C5FF28790AF0C2FFD8F80000012896
:1087D00003D0E168D9F80C00AFE7E268A9E051A046
:1087E0000AF00EFF02200AF0B2FF386890FBF6F0A4
:1087F00030300AF0ACFF386890FBF6F106FB110050
:1088000030300AF0A4FFA8780AF0A1FFE8780AF057
:108810009EFF28790AF09BFFD8F80000012803D0BA
:108820002169D9F8100088E7226982E03EA00AF0A9
:10883000E7FE02200AF08BFF386890FBF6F030303C
:108840000AF085FF386890FBF6F106FB1100303026
:108850000AF07DFFA8780AF07AFFE8780AF077FF3F
:1088600028790AF074FFD8F80000012803D0616964
:10887000D9F8140061E762695BE02CA00AF0C0FE41
:1088800002200AF064FF386890FBF6F030300AF0FE
:108890005EFF386890FBF6F106FB110030300AF0FD
:1088A00056FFA8780AF053FFE8780AF050FF2879BD
:1088B0000AF04DFFD8F80000012839D0A169D9F895
:1088C00018003AE7E7E3EFFF43575400E43800208D
:1088D000EC3800202025376C750000002D25376C02
:1088E0007500000000080140F89400202A3800209C
:1088F000442D30001C390020283900204441540008
:1089000054494D002532582E253032582E2530320C
:1089100058000000442D3100442D3200442D330016
:10892000442D3400442D3500442D3600442D3700AD
:10893000A269FAA112E62DE9FF41FA4D2868002844
:1089400044D00AF0F4FAF848F84CF94E81792170D5
:1089500001796170C378A3708178E17041782171E9
:10896000007860711E3CF3A1FB4832680CF056FCA5
:10897000F9480AF045FEF9480027006840B3F84975
:1089800001202F600860F7490860F7480068A8B127
:10899000F6480568F6480368F6480268F648416DEF
:1089A0008DE82E00D0E91323F4A1FE480CF036FC2C
:1089B000FC480AF04AFFFB480AF022FEA06E00289D
:1089C00004D0401EA06694F820003060BDE8FF810E
:1089D000FFF78CFCF4A02F600AF012FEA06E0028B6
:1089E000F4D0401EA06694F82020F4A11346DA4883
:1089F00032600CF013FC04B0D748BDE8F0410AF037
:108A0000FFBD10B5FB4C2068642801D9FEF775FF47
:108A10002068C82803D9FEF793FF0020206010BD0E
:108A200010B5F54C2068322801D9FEF770FF206898
:108A3000642803D9FEF77AFF0020206010BD10B52E
:108A4000EE4C2068322801D9FEF75CFF20686428CC
:108A500003D9FEF770FF0020206010BD10B5E84C70
:108A60002068642801D9FEF744FF2068C82803D98C
:108A7000FEF76BFF0020206010BD2DE9F05FDFF8EE
:108A80008493AA4EDFF880A399F8000000241E3ECC
:108A9000DE4D4FF0010800283CD0FFF727FCFFF720
:108AA000DDFFDB480168FA2934D90460D9A00AF057
:108AB000A7FDB473307C002879D1D94B1968706A4E
:108AC000814274DA1968401A642870DCD54FDFF8E7
:108AD00058B3396801443960DBF800200244CBF810
