:020000040800F2
:10000000F02F002001010008D70500087104000846
:10001000D50500083D020008291300080000000073
:10002000000000000000000000000000310B00088C
:100030005102000800000000C3060008DD0F0008A0
:100040002B130008C1060008F70F00085309000829
:10005000ED020008C10800087502000879020008D6
:100060007B0200087D0200087F02000843020008AE
:100070004502000847020008490200084B02000838
:100080004D0200084F0200083B020008F71100086B
:10009000F91100083F02000841020008810200082F
:1000A000F90F0008FF0F0008FD0F0008FB0F000804
:1000B000011000080310000805100008750400086E
:1000C0007304000879040008770400082D0B000869
:1000D0002F0B0008091000083910000871100008E3
:1000E0007702000851090008F5110008DFF80CD06C
:1000F00000F072F800480047151D0008F02F00209E
:1001000000480047ED00000830BF704720BF70472F
:1001100040BF7047BFF36F8F7047BFF34F8F70477B
:10012000BFF35F8F704701DF7047EFF314807047B4
:1001300080F31488BFF36F8F7047EFF30980704727
:1001400080F309887047EFF30880704780F30888D0
:10015000704772B6704762B6704771B6704761B645
:10016000704780F311887047EFF31280704740BAF0
:10017000704700BA70472DE9F05F054600209246AF
:100180009B4688460646814640241BE02846414659
:100190004746224600F041F853465A46C01A91415C
:1001A00010D311461846224600F028F82D1A67EBA6
:1001B00001084F4622460120002100F01FF817EBEE
:1001C00000094E41201EA4F10104DFDC48463146FF
:1001D0002A464346BDE8F09F064C074D06E0E0681E
:1001E00040F0010394E8070098471034AC42F6D37E
:1001F000FFF780FF7420000894200008202A04DB09
:10020000203A00FA02F1002070479140C2F1200329
:1002100020FA03F3194390407047202A04DB203A68
:1002200021FA02F00021704721FA02F3D040C2F116
:10023000200291400843194670477047FEE7704717
:1002400070477047704770477047704770477047F6
:100250007047002043F2C821401C8842FCD37047FD
:1002600000B50346002202E0FFF7F3FF521C9A425A
:10027000FAD300BD704770477047704770477047AA
:100280007047000070B5054640F6FF76304600F036
:100290008BF8042813D10A4C206940F00200206139
:1002A0006561206940F040002061304600F07CF834
:1002B000012804D0216941F6FD721140216170BD11
:1002C0000020024008490420CA68D20701D001205A
:1002D0007047CA68520701D502207047C968C9062D
:1002E000FBD503207047000000200240704700004B
:1002F0000248016941F0800101617047002002401D
:1003000001B5054800990288B1FBF2F002FB10111B
:10031000002900D0401C08BD1200002004490A68D2
:1003200022F010020A600A6802430A607047000067
:1003300000200240F0B506460D460F2000F034F8CC
:10034000042816D10B4C206940F001002061358053
:100350000F2000F029F841F6FE77042804D1280C7C
:1003600070800F2000F020F8012802D02169394068
:100370002161F0BD0020024004490A6802F0380201
:100380000A600A6802430A607047000000200240C9
:1003900003480249416003494160704723016745B2
:1003A00000200240AB89EFCD18B50346FFF78AFF66
:1003B000FF2407E000940098401E0090FBD1FFF757
:1003C00081FF5B1E012803D0002B00D1052018BD42
:1003D000002BEFD1FAE7F0B5CC78002204F00F0340
:1003E000E40601D58C7823430C784FF00F0C4FF0C6
:1003F000010ED4B105680E880EFA02F42640A6421A
:100400000FD196000CFA06F725EA070703FA06F55E
:10041000CE783D43282E00D14461CE78482E00D1BD
:100420000461521C082AE6D305600A88FF2A1CD9F9
:100430004468002202F108060EFA06F50E882E40E6
:10044000AE420ED196000CFA06F7BC4303FA06F74B
:10045000CE783C43282E00D14561CE78482E00D17D
:100460000561521C082AE5D34460F0BD0161704764
:10047000FEE7704770477047704700002DE9F04174
:1004800088B0012144F2540000F028F90121480409
:1004900000F018F90121084600F020F90424ADF815
:1004A000184003258DF81A5018278DF81B7006A9DF
:1004B0003448FFF790FF8DF81B70E601DFF8C88025
:1004C000ADF818608DF81A5006A94046FFF783FF73
:1004D0008DF81B402002ADF8180006A94046FFF732
:1004E0007AFF0820ADF818008DF81B4006A9404699
:1004F000FFF771FFADF818408DF81A508DF81B709A
:1005000006A94046FFF767FF0024ADF81040ADF89C
:1005100012604FF4E1370C251C4E0097ADF80440F3
:10052000ADF80840ADF80C50ADF80640ADF80A4003
:10053000ADF80E40ADF814406946304600F004FEB8
:10054000ADF80440ADF80840ADF80640ADF80A40FB
:100550000F4C0097ADF80C506946204600F0F4FDB2
:100560000121304600F0A7FD0121204600F0A3FD47
:10057000012240F22551204600F0CDFD08B0BDE833
:10058000F0810000001801400008014000380140DF
:1005900000440040F0B500220D4B144615464FF0C4
:1005A0000A0CB1FBF3F603FB161106F13007875472
:1005B000521CB3FBFCF3861816F8016C302E00D1E8
:1005C00024B1641C6D1C0A2DEBD3F0BD0022F9E7A9
:1005D00000CA9A3BFEE7704738B500214FF0006033
:1005E00000F064F827208DF8000000248DF8024008
:1005F00001258DF80350684600F01EF826208DF87E
:1006000000008DF802408DF80350684600F014F8A1
:1006100025208DF800008DF802408DF803506846C3
:1006200000F00AF838BD0000024901480860704730
:100630000400FA050CED00E0F0B50F23C278017854
:100640004FF0E024012742B3D4F80C2D467802F491
:10065000E062C2F5E062120AC2F10405D34082787A
:10066000AE401A40324315018A07D20E954021F060
:1006700003010B19D3F80064FF2191408E430D4014
:100680002E43C3F800640078410900F01F0004EB1A
:1006900081018740C1F80071F0BD01F01F00874063
:1006A000480904EB8000C0F88071F0BD024A114097
:1006B000014302480160704780FFFF1F08ED00E022
:1006C00070477047044A0029D16901D0014300E016
:1006D0008143D1617047000000100240044A0029A4
:1006E000916901D0014300E08143916170470000AE
:1006F0000010024010B500F031F84FF4803420466D
:1007000000F0C4F800F00CF913490128087022D158
:100710001020FFF703FE0220FFF72EFE002000F05E
:10072000ABF8002000F0D8F8A01100F0CBF84FF49F
:10073000E011204600F0E0F8012000F0D7F8392061
:1007400000F07AF80028FAD0022000F0DFF800F07C
:100750008BF80828FBD110BD080000200E480021AE
:10076000C1600161142242618161C161026842F08D
:10077000010202604268094B1A4042600268084B5D
:100780001A400260026822F480220260426822F469
:10079000FE02426081607047001002400000FFF8D6
:1007A000FFFFF6FE30B5204A5168204B11F00C01D6
:1007B00003D0042901D0082901D0036011E0516859
:1007C000022301F4701103EB9141536813F4803F4D
:1007D00002D053689B0301D5154B00E0134B5943DE
:1007E000016051680F2303EA1111124B5C5C016830
:1007F000E14041605468072505EA14241C5D21FA94
:1008000004F48460546805EAD4241B5DD940C160B7
:100810005268032303EA9232064B1B1F9A5CB1FB1A
:10082000F2F1016130BD00000010024000127A00B8
:1008300000093D0062200008034600205909094ACA
:1008400001290AD002290AD0516A03F01F020123AC
:1008500093400B4200D0012070471168F5E7116A00
:10086000F3E70000001002400248406800F00C006E
:100870007047000000100240034A516821F0F00167
:100880000143516070470000001002400B490A68A4
:1008900022F480320A600A6822F480220A60B0F5ED
:1008A000803F07D0B0F5802F03D1086840F4A02026
:1008B00008607047086840F48030F9E70010024093
:1008C00070470000034A516821F4E0610143516020
:1008D0007047000000100240034A516821F4605143
:1008E00041EAC000506070470010024001490866AC
:1008F0007047000000004242034B5A68084322F44C
:100900007C1210435860704700100240034A51683F
:1009100021F00301014351607047000000100240C4
:1009200010B50A4C3120FFF787FF20706068401C2B
:100930006060207810B96068FF28F3D13120FFF79C
:100940007BFF002800D0012010BD00007C000020AB
:1009500070477047054A0029B2F8001801D00143DA
:1009600000E08143A2F8001870470000002000401A
:1009700070B50C46054604E0284600F05BFA0128F5
:1009800004D0641EF8D24FF0FF3070BD002070BD5F
:100990002DE9F74F8EB04FF0000889460446C1F8A4
:1009A00000800DA81099FFF7E3FF4FF0FF3B0028F0
:1009B0006FD19DF8343052A11A46684600F0E4FE2B
:1009C000684600F0A9FA9DF83400574F062824D055
:1009D0000CDC4FF001014FF480624FF0020301285C
:1009E00009D002280AD0042867D113E0412822D078
:1009F000612862D11FE0F980802601E0FB80164665
:100A000020709DF8340001281BD0FA80012506F1E2
:100A1000050847E00420F8806FE00620F8800DA864
:100A20001099FFF7A5FFA0BB9DF83400062844D11C
:100A3000C9F800B061E04120F880012011B0BDE8A4
:100A4000F08FC246F980012506F1050814E07D818A
:100A500060191099FFF78CFF10B1B888C8B10DE08C
:100A6000012D07D1607828B1B98819B9A07084F830
:100A700001A002256D1CADB24545E8D3B8882544D8
:100A8000401CB88028461099FFF772FF0028F9D063
:100A90000DE012E07D8160191099FFF769FF60B9E0
:100AA0006D1CADB24545F5D3B888401CB880A1781F
:100AB000607881F0FF01884201D05846BEE7314698
:100AC000E01C01F00BF90146A0190279C07802EB95
:100AD000002080B281420ED03889401C38814E20DF
:100AE00000F0B4F9387A3030C0B200F0AFF9062027
:100AF00000F01FF8E1E7C9F8006000209EE7000061
:100B000072656365697665642020726573706F6EC7
:100B1000736520312063686172202825783A256347
:100B200029200D0A000000001000002070477047C7
:100B3000704710B5044600F07FFB204600F096F9A0
:100B4000204600F083F9002010BD00002DE9FE4F83
:100B500043A04FF40069D0E9001280680091CDE90C
:100B600001200327FFF714FC40A000F0D5F94E4800
:100B700000F0DCFB061E5FDD4C4800F0CDF94C4870
:100B800000F0CAF931466846FFF704FD49A000F0BD
:100B9000C3F9684600F0C0F949A000F0BDF94BA0C8
:100BA00000F0BAF9DFF84CB15348FFF76BFB05468C
:100BB000524801685048001DFFF7BCFB3046FFF764
:100BC0009FFB82464EA000F0A7F90024D84605E01E
:100BD00009FB0480FFF756FB0546641C544501D20F
:100BE000042DF5D04BA000F097F94E4D0024C246DD
:100BF0000CE004EB0A0080462968FFF79BFBD8F85D
:100C000000002968884203D12D1D241DB442F0D371
:100C1000A6420AD844A000F07FF948480168364847
:100C2000FFF788FB37B146A00DE04DA000F074F946
:100C30007F1EB9D152A006E0701C0AD0B01C0AD0A9
:100C4000F61C0AD056A000F067F9FFF751FBBDE88B
:100C5000FE8F5BA0F7E76AA0F5E770A0F3E700005E
:100C600020202020202020202020000057616974AF
:100C7000696E6720666F72207468652066696C65AE
:100C800020746F2062652073656E74202E2E2E20D6
:100C90002870726573732027612720746F2061624A
:100CA0006F7274290A0D00008400002000200008E3
:100CB000840400200A0D2053697A653A2000000060
:100CC0002042797465730D0A000000002D2D2D2D32
:100CD0002D2D2D2D2D2D2D2D2D2D2D2D2D2D2D2D44
:100CE0002D2D2D2D2D2D2D2D2D2D2D2D2D2D2D2D34
:100CF0002D0D0A0000300008002800082222020002
:100D000020626C6F636B20312065726173650D0A20
:100D10000000000020626C6F636B203120636F70F5
:100D2000790D0A000000020820626C6F636B2031AD
:100D30002073656C6563740D0A00000011110100D9
:100D400020656E64207375636365737320202E2E97
:100D50002E2E2E2E2E2E2E2E2E2E2E2E2E0D0A0026
:100D600020626C6F636B203220746F20626C6F6343
:100D70006B203120636F7079206661696C0D0A0009
:100D800020656E64206661696C20202E2E2E2E2E2A
:100D90002E2E2E2E2E2E2E2E2E2E2E2E0D0A000014
:100DA0000A0D4661696C656420746F207265636525
:100DB000697665207468652066696C65210A0D0096
:100DC0000A0A0D54686520696D6167652073697A48
:100DD0006520697320686967686572207468616E50
:100DE0002074686520616C6C6F7765642073706136
:100DF0006365206D656D6F7279210A0D000000003A
:100E00000A0A0D566572696669636174696F6E20BE
:100E10006661696C6564210A0D0000000D0A0A41D3
:100E2000626F7274656420627920757365722E0A30
:100E30000D00000010B5044600F006FA08B10020CD
:100E400010BD00F0DBF92070012010BD10B5064C7C
:100E50000146204600F0CAF98021204600F035F90D
:100E60000028F9D010BD00000038014010B504463C
:100E70001D480470412000F03BF8542000F038F881
:100E8000242000F035F84C2000F032F8472000F024
:100E90002FF8542000F02CF8542000F029F84320BB
:100EA00000F026F8502000F023F8572000F020F83A
:100EB000522000F01DF83D2000F01AF8312000F01B
:100EC00017F82C2000F014F8204600F011F80D203F
:100ED00000F00EF80A2000F00BF804F13001BDE834
:100EE0001040024800F082B978000020003801402C
:100EF00070B5084D01464FF41674284600F076F997
:100F00004021284600F0E1F8002801D1641EF7D105
:100F100070BD00000048004010B5044602E0FFF735
:100F200095FF641C20780028F9D110BD70B500230E
:100F300002781C46302A04D14278782A0AD0582AEE
:100F400008D06FF02F05C25CAAB16B2A2AD04B2AB9
:100F500028D02CE0827802B30223C25C5AB1A2F1FD
:100F60004105052D09D9A2F16106052E05D91135D6
:100F7000092D06D930E00C6017E0A2F13006092EE9
:100F800001D8303A04E0052D01D8373A00E0573A4D
:100F90005B1C02EB04140B2BDFD301E00B2B00D303
:100FA000002070BD1BB1A00207E00120F6E76D2A0A
:100FB00001D04D2A03D113B120050860F5E7A2F155
:100FC0003006092E08D804EB840405EB44045B1CAE
:100FD00014440B2BB7D3E3E70020DFE770474FF053
:100FE000E0210028086902D040F0020001E020F072
:100FF000020008617047704770477047704770473C
:10100000704770477047000070B5094D40F2255495
:101010002146284600F060F818B12146284600F025
:1010200043F8BDE8704040F22771024800F054B820
:10103000003801400044004070B50C4C40F225558A
:101040002946204600F048F840B12946204600F0E5
:101050002BF8204600F0C6F800F0E2F82046BDE884
:10106000704040F2277100F037B8000000440040A3
:1010700070B50C4C40F225552946204600F02CF85E
:1010800040B12946204600F00FF8204600F0AAF8AB
:1010900000F0C6F82046BDE8704040F2277100F02D
:1010A0001BB8000000480040090A01228A4001885C
:1010B0009143018070470029818902D041F4005199
:1010C00001E021F40051818170470246002012881E
:1010D0000A4200D00120704770B501F01F050126BB
:1010E0000024C1F3421306FA05F2012B0FD0022BA4
:1010F0000FD0838A4FEA11210088134206FA01F6C5
:1011000000EA060001D000B10124204670BD8389A9
:10111000F0E7038AEEE710B5C1F3421301F01F04B4
:101120000121A140012B07D0022B07D01430002A47
:10113000026805D00A4304E00C30F8E71030F6E707
:101140008A43026010BD000030B50C46018A85B0AC
:1011500005464CF2FF000140E088E289638A1043B3
:10116000228A1A431043A28A104308432882A9897D
:101170004EF6F3100140A08822891043A2890A4349
:101180001043A881A88A4FF6FF41084061890143B6
:10119000A9826846FFF706FB1148854201D10398F2
:1011A00000E00298642200EBC00101EB001021680E
:1011B0006FF018048900B0FBF1F0B0FBF2F1090107
:1011C0000B09634300EB8300322303EB0010B0FBF9
:1011D000F2F000F00F000843288105B030BD000098
:1011E000003801408088C0F308007047C1F308014F
:1011F000818070477047704770470000074B10B5FB
:101200000548D96A445C03F12C0000F0EFFE9868B1
:10121000401E9860204610BD1E17002028000020A8
:10122000044A0349926A88540248283000F0DEBE1E
:101230001E1700202800002000B500F065F85DF8BA
:1012400004EB00F069B80000F0B52D4C0120D4E9A2
:101250000A12914244D02B4D6168002369B10129E3
:1012600041D002293DD1A85C04F12C0000F0BEFE63
:10127000E068B8B32360636032E0AD5C20482C3096
:1012800000F0B4FE21680A2907DA1D484530405CA9
:10129000A8420DD1491C216022E0194E40362C2D68
:1012A00008D07018491C00F80A5C21600E2917DD6F
:1012B000236015E00A206FF02F05A3600AE03218C2
:1012C000401C12F80A7CA26802EB820205EB420283
:1012D0003A44A2608842F2DB6068401CC4E90030F6
:1012E0000120F0BD08E0A168002903DCE360236071
:1012F0006360F6E70020F4E70120E060F0E700001B
:10130000280000201E17002002490020C8628862C1
:10131000704700002800002002490020486208624F
:101320007047000028000020FEE770472DE9F04FCD
:101330000020ADF6D45DDFF8D8B3CDF8C80D064671
:10134000ABF8040082460446CDF8D00D4FF00008FB
:10135000C1464FF480020DF6CC5105A8FFF718FBEB
:1013600040B1012873D0062E72D2DFE806F0F9F8FA
:10137000F7F6F5F4DDF8CC0D0024B0F1FF3F0AD00C
:1013800080B19DF8152008F0FF00824234D006207D
:10139000FFF7CFFBAFE14120FFF758FD3120FFF70A
:1013A00055FD96E1BBF80600042818D1032E02D0A3
:1013B000042E08D013E04520FFF748FD3420FFF746
:1013C00045FD042608E005264520FFF73FFD3520B2
:1013D000FFF73CFD4FF001090620FFF7AAFB412073
:1013E000FFF734FD3220FFF731FD4520FFF72EFDDA
:1013F0002020FFF72BFD7EE1B8F1000F1FD0BBF8D6
:101400000610584601291AD0032642703346C1A15E
:101410000DF61C0000F0B8F90DF61C00FFF77CFD7E
:10142000002005A90DF61C124FF480630D18ED780D
:101430001554401C9842F9DB15460027C9E09DF879
:10144000170000B12AB10620FFF773FB5CE1D2E080
:101450002AE1012600200DF11701B24B02E01A54D7
:10146000491C401C0A780AB1FF28F8DD00251D54EC
:101470002846491C0DF61C0302E01A54491C401C66
:101480000A78202A01D01028F7DB1D540DF6C85128
:101490001846FFF74BFDA4A0FFF73EFDA148FFF75C
:1014A0003BFDA4A0FFF738FD0DF61C00FFF734FD4F
:1014B000A2A0FFF731FDA2A10DF61C00DDF8C82D9A
:1014C00000F062F90DF61C00FFF726FDDDF8C80DEF
:1014D000B0F5002F0DD39D490020401C8842FCD35D
:1014E0000620FFF726FB4FF0FF300DF6D45DBDE878
:1014F000F08FFEF705FFCBF814005F4694A0FFF7CE
:101500000BFD8FA10DF61C007A6900F03DF90DF678
:101510001C00FFF701FD28463D6109E07A88F96863
:1015200002FB0010FEF7AEFE38703869401C3861CF
:101530007969884202D239780429EFD00620FFF772
:10154000F8FA4FF4FA752846FEF78AFE2846FEF7A9
:1015500087FE43204AE0C1E08FE089E074E06BE061
:1015600060E02968FEF7E6FEDBF80C302A681968AF
:10157000914227D0CDE900350292CDE903103B46D8
:1015800077A10DF55360DDF8CC2D00F0FDF80DF5D9
:101590005360FFF7C1FCDBF80C0029680068884243
:1015A00010D00620FFF7C5FA4FF4FA742046FEF774
:1015B00057FE2046FEF754FE0620FFF7BAFA6FF0FA
:1015C000010092E7DBF80C102D1D091D3F1DCBF823
:1015D0000C10DDF8CC0D874207DA6A4BDDF8C81D28
:1015E000DBF80C0019448842BBD30620FFF7A1FAB0
:1015F00008F101087FE04120FFF728FC3920FFF7C0
:1016000025FC0620FFF795FA4FF4FA742046FEF702
:1016100027FE2046FEF724FE0620FFF78AFA6FF029
:10162000020062E75120FFF711FC3020FFF70EFCAB
:101630000AF1010A432059E05120FFF707FC31204D
:1016400006E0FEF70DFE2FE05120FFF7FFFB3220F2
:10165000FFF7FCFB641C0620FFF76BFA4FF4FA75EA
:101660002846FEF7FDFD4320FFF763FA2846E8E72A
:101670005120FFF7EBFB332034E05120FFF7E6FB6E
:101680003420FFF7E3FB641C0620FFF752FA6420C6
:10169000FEF7E6FD0620FFF74CFA6420FEF7E0FDBA
:1016A0004FF00109CDF8D09D052C02DCBAF10A0FEC
:1016B00021DD7820FFF7CAFB042E25DA0620FFF78C
:1016C00038FA4FF4FA742046FEF7CAFD2046FEF7BA
:1016D000C7FD0620FFF72DFA002006E75120FFF78F
:1016E000B5FB3520FFF7B2FB641C0620FFF721FA9B
:1016F0004FF4FA70A5E7B9F1000F3FF42AAEDDF818
:10170000D00D00283FF422AEDDF8C80DEDE6000054
:10171000100000202020423D253033642C28256411
:1017200029000000840400200A0D204E616D653AF6
:10173000000000002C2053697A653A002C0000005C
:1017400073697A653A25642E00000000809698003F
:101750000A0D204E62724F665061676500000000FE
:101760000A0D0A0D2045523A3A25643A256420258F
:10177000782C257828723D25783A663D2578292CE5
:1017800025580000000002080FB4084B10B504A94A
:1017900002AA039800F01CF8044602A9002000F0F9
:1017A00046FA204610BC5DF814FB00002F1C000810
:1017B00002E008C8121F08C1002AFAD1704770471A
:1017C000002001E001C1121F002AFBD17047000078
:1017D0002DE9FF4F8DB00F4605460026DEE1252896
:1017E00074D100246D1CF149A246A14601222B7838
:1017F000203B02FA03F0084202D004436D1CF6E7D6
:1018000028782A2810D06FF02F022878A0F1300114
:10181000092915D80AEB8A0102EB410144F00204C0
:1018200000EB010A6D1CF0E757F804ABBAF1000FAA
:1018300003DA44F40054CAF1000A44F002046D1CB7
:1018400028782E2817D115F8010F44F004042A280F
:101850000ED06FF02F022878A0F1300109290AD8A4
:1018600009EB890102EB410100EB01096D1CF2E774
:1018700057F8049B6D1C28786C280FD006DC4C2888
:1018800017D068280DD06A2814D104E0742810D02D
:101890007A280FD10DE044F400140AE044F48014D7
:1018A00001E044F440146978814202D16D1C04F5D2
:1018B00080146D1C2A786E2A20D00DDC632A33D068
:1018C00005DC002A6FD0582A12D1A2E011E0642A68
:1018D0006AD0692A0CD167E0732A2FD004DC6F2A02
:1018E0006FD0702A04D199E0752A6BD0782A6AD01B
:1018F0001046DDE90F129047761C4EE1C4F302500A
:10190000022806D003280AD0042801CF0AD0066096
:1019100043E101CF4FEAE671C0E900613DE101CF4B
:1019200006803AE1067038E117F8040B8DF80000E4
:1019300000208DF80100EB46012003E057F804BBBE
:101940004FF0FF3061074FF0000102D40DE008F1C5
:101950000101884649450FDA8045F8DB1BF808107D
:101960000029F4D108E008F1010188468142FADB40
:101970001BF808100029F6D1DDE90F23AAEB0800B7
:101980008146214600F03BF9304400EB080604E0B4
:10199000DDE90F121BF8010B9047B8F10108F7D2EF
:1019A00021464846F4E0FDE00A21C4F302534FF01B
:1019B000000B0891022B07D001CFC117032B09D0D0
:1019C0000AE034E023E024E0FF1D27F00707F7E8F2
:1019D000020105E000B2C117042B01D140B2C117CA
:1019E000002907DA4FF0000CD0EB0C006CEB010182
:1019F0002D2302E0230504D52B238DF82430012369
:101A000003E0E30701D02023F7E7984650E00A21DE
:101A10000EE010204FF0000B08900CE010214FF06A
:101A2000000B44F004044FF00809089103E008217A
:101A30004FF0000B0891C4F30253022B04D001CFE6
:101A40000021032B06D006E0FF1D27F00707F7E86B
:101A5000020103E080B2042B00D1C0B24FF00008B5
:101A6000230725D5702A2AD0DDF820C08CF0100C71
:101A70005CEA0B0C09D150EA010306D030238DF843
:101A800024308DF8252002239846DDF820C08CF004
:101A9000080C5CEA0B0C0BD150EA010301D163077F
:101AA00006D530238DF824304FF00108A9F1010943
:101AB000582A09D03EA20B9208AA0A9211E04023AC
:101AC0008DF824300123DFE73EA2F4E75B46089A55
:101AD000FEF751FB0B9B9B5C0A9AA2F101020A9252
:101AE000137050EA0102F1D10A98ADEB000000F149
:101AF000200B600702D524F4803401E04FF0010987
:101B0000D94502DDA9EB0B0000E0002000EB0B0142
:101B100041440890AAEB010AE00306D4DDE90F2353
:101B20002146504600F06BF80644002008E009A961
:101B300011F80900DDE90F129047761C09F1010048
:101B400081464045F3DBE0030CD5DDE90F23214658
:101B5000504600F054F8064404E0DDE90F1230204E
:101B60009047761C0899481E08900029F5DC08E08B
:101B70000A980A990078491C0A91DDE90F129047EA
:101B8000761CBBF10001ABF1010BF1DC21465046A4
:101B9000DDE90F2300F020F806446D1C28780028AA
:101BA0007FF41DAE11B03046BDE8F08F092801006A
:101BB00030313233343536373839616263646566C3
:101BC0000000000030313233343536373839414285
:101BD00043444546000000002DE9F041044600253D
:101BE0001E461746880405D406E039462020B04733
:101BF00005F10105641EF8D52846BDE8F0812DE900
:101C0000F041044600251E469046C80301D5302702
:101C100000E02027880405D506E041463846B04755
:101C200005F10105641EF8D52846BDE8F0810A6873
:101C3000531C0B601070704710B501244120FFF752
:101C400057F92046FEF70CFB5420FFF751F92046C8
:101C5000FEF706FB2420FFF74BF92046FEF700FBBA
:101C60004C20FFF745F92046FEF7FAFA4720FFF728
:101C70003FF92046FEF7F4FA5420FFF739F92046E1
:101C8000FEF7EEFA5220FFF733F92046FEF7E8FAA6
:101C90004520FFF72DF92046FEF7E2FA5320FFF723
:101CA00027F92046FEF7DCFA4520FFF721F9204608
:101CB000FEF7D6FA5420FFF71BF92046FEF7D0FABC
:101CC0000D20FFF715F92046FEF7CAFA0A20FFF7A4
:101CD0000FF92046BDE81040FEF7C2BA70B50346C2
:101CE000002041F221044FF6FF750FE013F8012B9D
:101CF00080EA02200022060403D584EA400080B274
:101D000001E005EA4000521C082AF4DB491EEDD22E
:101D100070BD0000744F86B003264FF4006972B6A0
:101D200072480488FEF758FCA4F54050393852D167
:101D3000FFF755F900210120FEF70CFE4FF4E130CA
:101D400000900020ADF80400ADF80800ADF80600E2
:101D5000ADF80A00654C0C20ADF80C00083C694653
:101D60002046FFF7F1F901212046FFF7A4F940F2E0
:101D70002555012229462046FFF7CDF9002240F2E1
:101D800027712046FFF7C7F9594C01212046FFF77C
:101D900092F9012229462046FFF7BDF9554C012151
:101DA0002046FFF788F9012229462046FFF7B3F9BC
:101DB00062B6FEF7CBFEFFF73FFF4FF4FA74204602
:101DC000FEF74EFA04214C48FEF750FB2046FEF782
:101DD00047FAFEF729FCFEF78DFCFEF7FDFBFEF748
:101DE0004DFB464C4648DFF81CB1216881425BD070
:101DF000201D454D0168A94256D162B6FEF7C8FACA
:101E00003E48FEF73FFA05463C483F49001DFEF7B5
:101E100091FA3846FEF774FA82463CA0FFF77CF848
:101E20000024D84605E009FB0480FEF72BFA05469E
:101E3000641C544501D2042DF5D039A0FFF76CF88D
:101E40003B4D0024C2460CE004EB0A0080462968A2
:101E5000FEF770FAD8F800002968884203D12D1DDA
:101E6000241DBC42F0D3A74207D832A0FFF754F894
:101E700023492248FEF75EFA04E033A0FFF74CF84E
:101E8000761EBDD1FEF734FA0EB337A0FFF744F843
:101E9000DBF804003B4A10603B4A1060DBF80000AE
:101EA000FEF754F9FEF7C0FBFEF722FA72B637A030
:101EB000FFF732F8DBF80400324A334C1060206040
:101EC000DBF80000FEF742F920688047FCE736A007
:101ED000FFF722F840F6B8343BA0FFF71DF8204684
:101EE000FEF7BEF9F8E70000FFCF01000838014017
:101EF000004400400048004000180140002800084D
:101F000011110100003000082222020020626C6FD3
:101F1000636B20312065726173650D0A000000005B
:101F200020626C6F636B203120636F70790D0A0043
:101F30000000020820626C6F636B20312073656CB7
:101F40006563740D0A00000020626C6F636B2032C1
:101F500020746F20626C6F636B203120636F707927
:101F6000206661696C0D0A0020656E64202E2E2E9D
:101F70002E2E2E2E2E2E2E2E2E2E2E2E2E2E0D0AC6
:101F800000000000040000200000002020626C6FB0
:101F9000636B2031206578656320323031372F3014
:101FA000372F30360D0A000020656E6420666169A7
:101FB0006C2E2E2E2E2E2E2E2E2E2E2E2E2E2E2E03
:101FC0002E2E0D0A00000000206669726D77617286
:101FD0006520757064617465206661696C202E2EC1
:101FE0002E2E2E2E2E2E2E0D0A0000000168491CCA
:101FF000A1F5805201600A3A01D1002101607047C9
:102000000A0A0D204669726D7761726520446F7708
:102010006E6C6F616420436F6D706C6574656420D5
:102020005375636365737366756C6C79210A0D2D46
:102030002D2D2D2D2D2D2D2D2D2D2D2D2D2D2D2DD0
:102040002D2D2D2D2D2D2D2D2D2D2D2D2D2D2D2DC0
:102050002D2D2D2D0D0A204E616D653A20000204B4
:102060000608000000000102030401020304060741
:1020700008090000942000080000002084000000EF
:10208000B017000818210008840000206C2F000001
:10209000C017000800000000000000000000000061
:1020A0000000000004000008000000000000000024
:1020B0000000020800000000000000000000000016
:1020C0000000000000000000000000000000000010
:1020D0000000000000000000000000000000000000
:1020E00000000000000000000000000000000000F0
:1020F00000000000000000000000000000000000E0
:1021000000244C475454435052443A00000000000D
:082110000000000000000000C7
:04000005080000ED02
:00000001FF
:020000040800F2
:10300000E877002081C4000869C400086BC4000888
:103010006DC400086FC4000871C4000800000000FF
:1030200000000000000000000000000073C4000861
:1030300075C400080000000077C4000879C40008C7
:1030400097C4000897C4000897C400087189000855
:1030500097C4000897C4000897C4000897C40008E4
:1030600097C4000897C4000897C4000897C40008D4
:1030700097C4000897C4000897C4000897C40008C4
:1030800097C4000897C4000897C4000897C40008B4
:103090007BC4000897C4000897C4000897C40008C0
:1030A00097C4000897C4000897C4000897C4000894
:1030B0002BB6000897C4000897C4000897C40008FE
:1030C00097C4000897C4000897C4000897C4000874
:1030D00097C40008A7B70008FFB7000893B8000816
:1030E00097C4000897C400087DC4000897C400086E
:1030F00097C4000897C4000897C4000897C4000844
:1031000097C4000897C4000897C4000897C4000833
:1031100057B9000897C4000897C4000897C400086E
:1031200097C4000897C4000897C4000897C4000813
:10313000DFF80CD009F0E2FD0048004727750008D1
:10314000E87700202DE9F04FFF490025DFF8FCB3B8
:103150000A78DFF8FCA399B04FF0FF382F46012A18
:103160000DD1FC4807708BF80070FB480770FB48D6
:1031700007708AF80070FA480770FA480770303212
:10318000F9A10CA80AF0B4FA0CA808F03EFE00243D
:10319000DFF8DC930126012001F0D1FA99F8000054
:1031A000F0B3012001F0CBFA99F80010C9B3F1484F
:1031B00089F8007050210760EF480024EF4A018031
:1031C00002206FF02F03115CA1F1300CBCF1090F4C
:1031D00004D9A1F1410CBCF1050F07D804EB84041C
:1031E00003EB4404401C0C440728ECDD082843DBB7
:1031F0000222E3A1E14809F0D3F928B30222E1A1B8
:10320000DE4809F0CDF928B30222DFA1DB4809F03E
:10321000C7F928B30222DDA1D84809F0C1F901E0BD
:1032200002E004E010B327E0641C642CB3DBD24955
:10323000B1F9000008B1401E0880DFF80C9399F83E
:103240000020042A1BD054E0D14804608BF80060B1
:10325000D04810E0D0480460BF480670CF480AE06C
:10326000CF480460BD480670CE4804E0CE480460F4
:103270008AF80060CD48077008F03BFFDDE7C448DE
:10328000C749DFF82CC30368C3480C68C649006807
:10329000DCF800C01D180968254405EB010801256C
:1032A000BCF1000F25D0CDE90830AE48CDE90A4188
:1032B0000378AB4801789AF80040A8480078CDE937
:1032C0000404A548CDE9061301789BF80030A14815
:1032D000CDE90231CDE900850378B6A10CA80AF04A
:1032E00007FA14230CAA4FF4C8710A20009702F0C1
:1032F000B0FA99F80000401CC0B289F80000042818
:1033000001D989F800602DB192480670404619B085
:10331000BDE8F08FB6480068F9E72DE9F04F8A4B19
:1033200000256C1E1A788C4E8C4FDFF82482B5B0C5
:10333000AA46012A11D1874981F800A0834981F862
:1033400000A086F800A087F800A088F800A08449B3
:1033500081F800A0834981F800A0303282A10EA834
:103360000AF0C6F90EA808F050FDDFF804B24FF0DD
:103370000009012001F0E3F99BF8000018B10120D9
:1033800001F0DDF904E009F10109B9F1640FF0DBA6
:103390006D484B4697A102780EA80AF0A9F90EA82D
:1033A00008F08AFC5A469BF800007349DFF8F8B130
:1033B000002844D082F800A06E4A50206F4BC2F81B
:1033C00000A008804FF0000902206FF02F0C195C5C
:1033D000A1F13002092A02D9113A052A08D809EBCD
:1033E00089020CEB4202401C01EB02090728EEDDCA
:1033F00008285ADB022262A1604809F0D1F820B304
:10340000022260A15D4809F0CBF830B302225EA130
:103410005A4809F0C5F838B302225CA1574809F0B0
:10342000BFF840B3022276A1544809F0B9F848B376
:10343000022274A1514809F0B3F868B335E0B1F93C
:103440000000A0B3401E088031E051490120C1F8BE
:1034500000903E4908704F4925E04F48C0F8009061
:10346000012030704D491EE04D48C0F80090012009
:1034700038704C4917E00120CBF8009088F8000024
:103480004A4910E060493648C1F8009001210170B6
:103490005E4880F800A008E05D483249C0F800901E
:1034A000012008705B4981F800A008F022FEDFF8D7
:1034B0009890594899F800200068824241D15749B4
:1034C000062808681AD068B120480178002939D048
:1034D00031780029FBD039780029F8D098F800100D
:1034E0000029F4D02A4801682B48006801442C4880
:1034F00000680144DBF800000C1809E278B11349B8
:103500000878E8B13078D8B13878C8B198F80000B8
:10351000B0B11348007898B11248007880B11C48C7
:1035200001681D48006801441D4800680144DBF83B
:103530000000014434480068014435480068DBE776
:103540006EE049E236E10000610200204C030020F9
:103550004F030020580300204D0300204E0300209D
:103560005003002051030020402D2563520000002D
:10357000360200205C02002040030020A6580020F4
:103580002D3100002D3200002D3300002D340000BD
:1035900090020020620200209402002063020020BA
:1035A00098020020640200209C0200206502002096
:1035B0002C030020202825753A25752920256C64C8
:1035C0002C2025642E2E25642C25642C25642C2586
:1035D000642C25642C25642C20256C642C20256CFF
:1035E000642C20256C642C20256C642020000000B5
:1035F00054030020206C25643D25642E000000004B
:103600002D3500002D360000A002002066020020AB
:10361000A402002067020020B00000201003002058
:103620000878F0B93078E0B13878D0B198F8000077
:10363000B8B1F8480078A0B1F748007888B1F748E9
:1036400000684100F64800680144DBF800000144CE
:10365000F44800680144F4480068BCE081F800A028
:1036600056E1087810B3307800BB3878F0B198F89C
:103670000000D8B1E7480078C0B1E7480078A8B1A9
:10368000EA4800684100E64800680144DBF80000B1
:103690000144E44800680144E3480068AEE008786B
:1036A000401CC0B208700228D8D231E10878E0B1DD
:1036B0003078D0B13878C0B998F80000A8B1D548B2
:1036C000007890B1D448007878B1D8480168D348E0
:1036D00000680144DBF8000001440144D14800685F
:1036E0000144D14800680C1810E10878E0B1307846
:1036F000D0B13878C0B198F80000A8B9C5480078B2
:1037000090B1C548007878B1C8480168C3480068DE
:103710000144C348006801440144C24800680144B0
:10372000C14800680C1893E00878E8B13078D8B147
:103730003878C8B198F80000B0B1B648007898B9A8
:10374000B548007880B1B9480168B44800680144C0
:10375000B34800680144DBF800000144B248006847
:1037600001440C18B2499AE70878002872D03078E2
:103770000028FBD038780028F8D098F800000028FE
:1037800068D0A4480078002864D0A34800780028B6
:1037900060D1A6480168A14800680144A0480068BB
:1037A0000144DBF8000001449E48006801440C1805
:1037B000A04974E7017881B9317871B1397861B184
:1037C00098F8001049B1964801689448006801EBE8
:1037D0004001DBF800000C1868E0017881B1317815
:1037E00071B9397861B198F8001049B18C48016815
:1037F0008E48006801EB4001DBF800000C1877E010
:10380000017881B1317871B1397861B998F80010D7
:1038100049B186480168814800680144DBF800002E
:1038200001EB400472E0017831B1317821B139788F
:1038300011B198F8001011B1017861B114E07B4822
:1038400001687648006801447548006801EB40044F
:10385000794924E789E0317831B9397821B198F88C
:10386000001009B16E4809E0017859B9317849B1C1
:10387000397839B998F8001021B168480168DBF847
:10388000000011E0017831B9317821B1397811B1F6
:1038900098F8001021B10178A1B1317841B111E05F
:1038A0005E4801685E480068084444006349F6E6E3
:1038B000397839B998F8001021B15C480168DBF813
:1038C000000013E0017831B1317821B9397811B1B4
:1038D00098F8001031B1017879B1317869B139784F
:1038E00041B10AE0514801684D480068084444006D
:1038F0005349D4E698F8001011B1017851B113E0A2
:103900004A48016845480068084444004D49C6E6F5
:1039100001252AE0317839B9397829B998F80010A9
:1039200011B1DBF800006FE0017831B9317821B1D5
:10393000397811B998F8001011B1017811B108E087
:10394000364860E0317821B9397811B198F8001023
:1039500021B1007848B1307810B106E0304852E02B
:10396000387810B998F80000F0B33748006898B379
:103970002D48DBF800C003682A4801682848006821
:10398000CDE90A0C2548CDE90C13036827480168E6
:10399000214890F800C01F480078CDE9060CCDE919
:1039A000081398F800103B7836782848007803967A
:1039B0000094CDE901502648CDE90431037825492A
:1039C0000EA809F095FE14230EAA4FF4C8710A2020
:1039D000CDF800A001F03DFF99F800001E4A401C00
:1039E000C0B289F8000000E00CE01268904202DDED
:1039F000012089F800004DB11549012008702046CA
:103A000035B085E409480068840081E71348006800
:103A1000F6E700005003002051030020940200202C
:103A200098020020A0020020A402002090020020A2
:103A3000660200206702002065020020620200206A
:103A400063020020640200202C0300204C030020AD
:103A5000580300208CE40008B0000020540300202C
:103A60000121364809F006BB08B50120ADF8000079
:103A700003208DF8020010208DF8030069462F48BE
:103A800009F07AFAFFF7ECFF08BD01212B4809F095
:103A9000F3BA10B50446FFF7F8FF204600F053FED6
:103AA000BDE81040DCE710B500241420FFF7F1FF5B
:103AB000052000F048FE641C072CF6DB10BD202119
:103AC0001F4809F0D9BAFAE720211D4809F0D2BAF7
:103AD00010B520211A4809F0CDFABDE81040F3E7EF
:103AE0004FF40071164809F0C7BAF9E74FF40071B6
:103AF000134809F0BFBAF9E770477047042111482D
:103B000009F0B8BAFAE704210E4809F0B5BAFAE7A5
:103B100008210C4809F0AEBAFAE70821094809F073
:103B2000ABBAFAE7E2E7DBE74FF48071044809F04B
:103B3000A3BA4FF48071024809F09CBA001001400A
:103B4000000C0140001401402DE9F05FDFF8F8B3EC
:103B5000DFF8F8A3DFF8F893FE4EFF4C01254FF095
:103B6000000840215F46584608F082F82D2138466B
:103B700008F07EF821793846303108F079F8522182
:103B8000384608F075F80D21384608F071F80A211A
:103B9000384608F06DF82079401CC0B22071042826
:103BA00000D92571C82000F0CAFD9AF8000000284D
:103BB0007CD0EA498AF80080C1F8008099F80100B9
:103BC0004946312806D0322828D033284AD0342814
:103BD00047D16CE08878E24A30385043CA7840F2E6
:103BE00071235A4300EB0212087900EB4003C3EB48
:103BF000C01002EBC002487900EBC00303EB0010D9
:103C000002EB8002887900EB800002EB400299F819
:103C1000070010443044606325706DE08878D04A16
:103C200030385043CA7840F271235A4300EB0212F5
:103C3000087900EB4003C3EBC01002EBC0024879E7
:103C400000EBC00303EB001002EB8002887900EB6D
:103C5000800002EB400299F8070010443044A06352
:103C6000657047E08878BE4A30385043CA7840F2E1
:103C700071235A4300EB0212087900EB4003C3EBB7
:103C8000C01002EBC002487900EBC00303EB001048
:103C900002EB8002887900EB800002EB400299F889
:103CA000070010443044E063A57023E059E08878B1
:103CB000AB4A30385043CA7840F271235A4300EB84
:103CC0000212087900EB4003C3EBC01002EBC00204
:103CD000487900EBC00303EB001002EB8002887907
:103CE00000EB800002EB400299F8070010443044DA
:103CF0002064E570207890B3607880B3A07870B3CA
:103D0000E07860B3D4E90D100144E06B0144206C0D
:103D1000084408F0B8FD216B08F05EFC08F0D2FD05
:103D2000E16A471A3A468FA1924809F0E1FCE0683F
:103D300091A1B7FBF0F7A06847433A468D4809F0D8
:103D4000D7FC3A4640F24511462002F05EF884F86E
:103D5000008084F8018084F8028084F8038008F0F1
:103D6000C8F901F084FA00283FF4FBAE86480088C9
:103D700014287FF4F6AEBDE8F09F2DE9FE4FDFF882
:103D8000D091744F744C804601264FF4967A4FF0D0
:103D9000000B6D4D4021284607F06AFF2D21284673
:103DA00007F066FF21792846303107F061FF522184
:103DB000284607F05DFF0D21284607F059FF0A212C
:103DC000284607F055FF2079401CC0B22071042816
:103DD00000D92671C82000F0B6FC5C4801780029A3
:103DE0007DD080F800B05D485D464946C0F800B01F
:103DF00099F80100312806D0322828D033284AD03B
:103E0000342823D16CE08878554A30385043CA783A
:103E100040F271235A4300EB0212087900EB400391
:103E2000C3EBC01002EBC002487900EBC00303EB08
:103E3000001002EB8002887999F8071000EB8000EF
:103E400002EB400008443844606326706BE08878D9
:103E5000434A30385043CA7840F271235A4300EB4A
:103E60000212087900EB4003C3EBC01002EBC00262
:103E7000487900EBC00303EB001002EB8002887965
:103E800099F8071000EB800002EB4000084438442A
:103E9000A063667047E08878314A30385043CA786A
:103EA00040F271235A4300EB0212087900EB400301
:103EB000C3EBC01002EBC002487900EBC00303EB78
:103EC000001002EB8002887999F8071000EB80005F
:103ED00002EB400008443844E063A67023E088E029
:103EE00088781F4A30385043CA7840F271235A43C9
:103EF00000EB0212087900EB4003C3EBC01002EBA9
:103F0000C002487900EBC00303EB001002EB800213
:103F1000887999F8071000EB800002EB4000084414
:103F200038442064E670D4E90D23E16BD01800EB2F
:103F3000010C206CB8F1000F8444C4F844C040D098
:103F4000CDE90031029021E000440040360200201B
:103F5000A6580020B0DCF7FF000000205C02002023
:103F6000A086010041445F434F554E543D25366CB9
:103F700075200000880300205765696768743D2537
:103F8000366C7520206B67000401002013466246E2
:103F9000F2A1FE4809F0ACFBD4E90F01CDE9000124
:103FA000D4E90D23FAA1F94809F0A2FB1023F74A3E
:103FB00050465146009502F044F84FF48771626C08
:103FC0000EE0CDE90010F2A1F04809F091FB1023BA
:103FD000EE4AC8215046009502F033F8626CA021E9
:103FE000462001F012FF25706570A570E57008F09D
:103FF00080F801F03CF900283FF4CBAEEA48008895
:1040000014287FF4C6AE606CBDE8FE8F2DE9F04148
:10401000E64C00252E46E6A1DC48A26A09F068FBC2
:10402000D7214620A26A01F0F0FEA46AE74FDFF82C
:10403000788301F01CF9F8B1B8F80000385C0C285E
:1040400010D2DFE800F0060606060606060606069B
:104050000C0E04EB8401012600EB410402E0002475
:1040600000E001252246DAA1C84809F041FB2246BA
:10407000D721462001F0C9FE002DDAD0002E00D055
:104080002046BDE8F081F0B585B01422D7496846D6
:1040900008F046FAC54801240026406A052812D0D7
:1040A0000A2812D00F2812D0142812D0192812D0A2
:1040B0001E2812D0232812D0282812D02D2812D042
:1040C000322812D012E0002410E001240EE0022475
:1040D0000CE003240AE0042408E0052406E006249A
:1040E00004E0072402E0082400E009246F463DF8BC
:1040F00014206921462001F088FEAB4D01F0B7F88D
:1041000080B1288842280AD1641CE4B2092C00D965
:104110000024692137F81420462001F076FE288813
:10412000142801D0002EE9D037F8140005B0F0BDF6
:10413000FEB5AE4804240C380026D0E90012806891
:104140000091CDE901209948806801280AD0022811
:104150000AD005280AD00A280AD014280AD0322802
:104160000AD00AE0002408E0012406E0022404E06A
:10417000032402E0042400E005246F463DF81420E7
:104180003221462001F041FE874D01F070F880B1E8
:10419000288842280AD1641CE4B2052C00D90024E6
:1041A000322137F81420462001F02FFE28881428E9
:1041B00001D0002EE9D037F81400FEBDF8B57B4CD5
:1041C0000A20E0604FF6FF7001F02DFA0025102361
:1041D00087A214212846009501F033FF4FF47A702E
:1041E00000F0B1FA012232210A2001F097F83A22B8
:1041F0003221282001F092F84FF49676102381A204
:1042000050213046009501F01CFFFFF791FFA060A0
:10421000022269210A2001F081F83A22692128202E
:1042200001F07CF810237DA28C213046009501F02E
:1042300008FFFFF728FF6062A168B0FBF1F27DA1E3
:104240005248E26109F054FAE269E06881A1424310
:104250004E48226209F04CFA0322A0210A2001F004
:104260005DF83A22A021282001F058F80020FFF73D
:1042700084FD2061606AA0620422D7210A2001F037
:104280004DF83A22D721282001F048F8102379A2CE
:10429000FA213046009501F0D4FEFFF7B7FE4FF447
:1042A0008777A062052239460A2001F037F83A22C2
:1042B0003946282001F032F80120FFF75EFD6061E9
:1042C0002169421A74A13148A26109F011FAA06A69
:1042D00008F0E2FA0746606A08F0DEFA394608F0AC
:1042E000B1F90746A06908F0D7FA394608F074F921
:1042F0000746206A08F0D0FA394608F0A3F90746C5
:104300002063206908F0C8FA394608F065F908F01A
:10431000D9FA40F24517E062062239460A2000F039
:10432000FDFF3A223946282000F0F8FF102365A24D
:104330004FF4B4713046009501F083FEFFF704FCA2
:1043400004221046216900F099FD20610422182002
:10435000A16900F093FD0422A061BDE05350414EDD
:104360002053554D3D25366C752C20313D25366C3E
:10437000752C20323D25366C752C20333D25366C4E
:10438000752C20343D25366C750000008803002014
:104390002825366C752C25366C752C25366C752CBD
:1043A00025366C7529000000040100200000002063
:1043B00034202D2053657474696E675F5765696793
:1043C0006874203D2025366C75200000B800002060
:1043D00034202D2053657474696E745F5765696766
:1043E0006874203D2025366C75200000DCE4000850
:1043F00043414C494252415449494F4E204D4F444C
:1044000045000000284449564953494F4E2D50520B
:10441000455353204B45595F3129000028434150F3
:1044200041434954592D5052455353204B45595FF0
:104430003129000033202D2045787465726E616C3F
:104440005F5265736F6C7574696F6E203D20253601
:104450006C75200020202020496E7465726E616C9E
:104460005F5265736F6C7574696F6E203D202536E1
:104470006C752000284C4F4144494E472057454910
:104480004748542D5052455353204E554D424552A6
:10449000204B45592900000035202D20765F737090
:1044A000616E203D2025366C7520202020202020A4
:1044B00020202020202020202020202020202020FC
:1044C000202020002843555252454E54205745493C
:1044D00047485429000000001020616A00F0CEFC1B
:1044E000606204220C20A16800F0C8FCA0600921D1
:1044F0000A2000F03DF908F0C6F9216B08F06CF8CD
:1045000008F0E0F901460422002000F0B7FC102377
:104510000DA24FF4D7710020009501F092FD1023F9
:104520000FA24FF4E1710020009501F08AFD40F6E2
:10453000B83000F008F90D4C00F099FE0028FBD0CF
:1045400020881428F8D1F8BD434C414C49425241CF
:1045500054494F4E2046494E495348454421210075
:104560005245504F574552202121000004010020A0
:1045700010B54FF48034204608F09EFE08F0F8FE97
:104580007549012808701CD1002008F08BFE00201E
:1045900008F0BCFEA01108F0AFFE4FF4E011204679
:1045A00008F0C4FE012008F0BBFE392008F05AFED6
:1045B0000028FAD0022008F0D1FE08F06BFE08288F
:1045C000FBD10121042008F0EBFD0121082008F0B7
:1045D000E7FD0121102008F0E3FD0121202008F073
:1045E000DFFD0121402008F0DBFD0121802008F0E3
:1045F000D7FD0121080208F0D3FD0121084608F08B
:10460000CFFD0121084608F0B3FD0121022008F08A
:10461000AFFD0121480308F0C3FD0121880308F024
:10462000BFFD0121480408F0A3FD0121880408F022
:104630009FFD0121C80408F09BFD0121032008F023
:104640008BFD01214FF4024008F0AAFD012148052D
:1046500008F08EFD0121BDE81040480708F088BD34
:1046600008B5C020ADF8000003208DF802001C2022
:104670008DF803006946394808F07EFC08BD38B55E
:104680004FF440514FF0006008F056FD4FF4C06009
:1046900008F048FD14208DF8000000248DF801403A
:1046A0008DF8024001258DF80350684608F000FDA2
:1046B00003208DF800008DF801408DF802408DF840
:1046C0000350684608F0F4FC38BD4106244882696E
:1046D00042F0010282612348426822F0E0624260B7
:1046E00042680A434260704710B5044686B0042011
:1046F00008F0CCFE684608F06BFD1B4A01994FF0AC
:10470000E020B1FBF2F16143B1F1807F0ED221F0E4
:104710007F41A1F101014161144A4FF0F001117094
:104720004FF0000181614FF007010161016921F043
:10473000020101610169C903FCD506B010BD4FF447
:104740007A714843D0E742F2107302E01946491EDD
:10475000FDD2401EFAD270478C000020000C0140B0
:10476000001002400000014040420F0023ED00E035
:10477000024611B9012070475043491E11F0FF0154
:10478000FAD170471FB50020ADF804004BF6FF705A
:10479000ADF80600A020ADF808004FF48060ADF839
:1047A0000A000001ADF80C00FD48FE4C009069467F
:1047B000204607F0D1FC0121204607F033FD1FBD44
:1047C00010B5FFF7DFFFF849A220088010BD38B50B
:1047D0000020ADF80000F34CF34D0121204607F016
:1047E0003FFD1421204607F08AFDADF8000029782E
:1047F0000022204607F07BFD1421204607F07FFDB4
:104800008007EAD5E949204607F0F0FD2046BDE8DB
:104810003840012107F02EBD2DE9F041E14E8846D8
:10482000054614460121304607F01AFDE04F304698
:10483000394607F0C3FD0028F9D0DB480022017893
:10484000304607F054FDDB4F3046394607F0B6FDE1
:104850000028F9D04146304607F044FDD54FBF1C33
:104860003946304607F0AAFD0028F9D00AE0297839
:10487000304607F037FD6D1C3946304607F09EFD87
:104880000028F9D02000A4F10104E4B2EFD13046B1
:10489000BDE8F041012107F0EDBC2DE9F0410546EE
:1048A00011F00F000C4602F00F01C0F11007C2F327
:1048B0000716884611D08EB1D01BC0F3071600F042
:1048C0000F088FB33A4621462846FFF7A5FFFFF7AA
:1048D0007EFFE019C4B23D4426E05EB90A4612E00C
:1048E000102221462846FFF797FFFFF770FF10348C
:1048F000E4B210353000A6F10106F6B2F0D15FEA5D
:10490000080017D0024621462846FFF785FFBDE87C
:10491000F0415CE7102221462846FFF77DFFFFF7B4
:1049200056FF1034E4B210353000A6F10106F6B29D
:10493000F0D1E4E7BDE8F0812DE9F041994E0F4652
:10494000054614460121304607F08AFCDFF86082F4
:104950003046414607F032FD0028F9D09248002247
:104960000178304607F0C3FCDFF848823046414604
:1049700007F024FD0028F9D0F9B2304607F0B2FC68
:104980008C4FBF1C3946304607F018FD0028F9D07F
:104990000AE02978304607F0A5FCAD1C39463046C0
:1049A00007F00CFD0028F9D02000A4F10104A4B206
:1049B000EFD13046BDE8F041012107F05BBC2DE9A5
:1049C000F041054611F00F000C4602F00F01C0F156
:1049D0001007C2F30716884612D096B1D01BC0F359
:1049E000071600F00F0897B33A4621462846FFF70E
:1049F000A3FFFFF7ECFEE01984B205EB470526E0C4
:104A00005EB90A4612E0102221462846FFF794FFBD
:104A1000FFF7DDFE1034A4B220353000A6F1010608
:104A2000F6B2F0D15FEA080084D00246214628465B
:104A3000FFF782FFBDE8F041C9E610222146284673
:104A4000FFF77AFFFFF7C3FE1034A4B22035300021
:104A5000A6F10106F6B2F0D1E4E76BE72DE9F041EB
:104A6000504C0F4605460121204607F0F9FB504EF9
:104A70002046314607F0A2FC0028F9D04A4800221F
:104A80000178204607F033FC4A4E2046314607F0B5
:104A900095FC0028F9D03946204607F023FC26462D
:104AA000444CA41C2146304607F088FC0028F9D06D
:104AB0002978304607F016FC2146304607F07EFC88
:104AC0000028F9D03046BDE8F041012107F0D2BB03
:104AD0002DE9F047334F8A460546144601213846F2
:104AE00007F0BEFB324E3846314607F067FC00281F
:104AF000F9D0DFF8B4800022384698F8001007F0AB
:104B0000F6FBDFF8B0903846494607F057FC00281E
:104B1000F9D00121384607F085FB5146384607F0A9
:104B2000E1FBDFF8909009F102094946384607F0A9
:104B300045FC0028F9D00121384607F091FB3146A9
:104B4000384607F03BFC0028F9D098F80010012205
:104B50003E46384607F0CBFB154F7F1C39463046A2
:104B600007F02CFC0028F9D0114F3F37BCB1012CC5
:104B700007D10021304607F087FB0121304607F0BE
:104B800079FB3946304607F019FC0028EED0304654
:104B900007F0AAFB641E05F8010BA4B2E6E70BE0E0
:104BA000A086010000540040900000200004001086
:104BB00001000300820007003046BDE8F0470121F4
:104BC00007F062BBF8B50C4606464FF4807500212D
:104BD000284608F0C1FA0120FFF7B5FDF1B2042222
:104BE0006846FFF775FF012C0BD0022C0CD0009CFF
:104BF0000120FFF7A8FD0121284608F0ADFA204664
:104C0000F8BD9DF80040F3E7BDF80040F0E72DE95E
:104C1000F04104210846FFF7D5FFC7490860042189
:104C20001820FFF7CFFFC549086004211020FFF7C7
:104C3000C9FFC34C042120600C20FFF7C3FFC1490A
:104C4000086004210020FFF7BDFF064609210A2065
:104C5000FFF78EFD07F017FE0546304607F01CFEF5
:104C6000294607F0EFFCB849086004211C20FFF733
:104C7000A9FFB64901270228086000D30F6004216C
:104C80002C20FFF79FFFB249B0F5FA7F086001D9E9
:104C90003220086004214420FFF794FFAD4900262C
:104CA0000028086002DB2268824200D20E600421E4
:104CB000A420FFF787FFA8490860401E3C2801D3C5
:104CC0003C2008600421A820FFF77CFFA3490228AC
:104CD000086000D30E6004214820FFF773FFA0494D
:104CE000086004215020FFF76DFF9E4C20600421D6
:104CF0005420FFF767FF606004215820FFF762FF30
:104D0000A06004215C20FFF75DFFE06004216020CB
:104D1000FFF758FF206104216420FFF753FF606113
:104D200004216820FFF74EFFA06104216C20FFF7EB
:104D300049FF8D49086004216C20FFF743FF8B4D2C
:104D40008B4C010A686020706170000CA070042117
:104D50007020FFF737FFA860E070010A2171010C95
:104D60006171000EA07104217420FFF72BFFE86031
:104D7000E071010A2172010C6172000EA072E672EC
:104D800004217820FFF71EFF7A492861020A087083
:104D90004A70020C8A70000EC87004217C20FFF754
:104DA00011FF75496861020A08704A70020C8A7026
:104DB000000EC87004218020FFF704FF6F49A8612E
:104DC000020A08704A70020C8A70000EC870042132
:104DD0008420FFF7F7FE6A49E861020A08704A700A
:104DE000020C8A70000EC87004218820FFF7EAFECA
:104DF0002862001F032801D30420286204218C208C
:104E0000FFF7E0FE6862A0F5D850583841F27171A2
:104E1000884202D342F21070686204219020FFF7AA
:104E2000D1FE58490228086000D30F600421942065
:104E3000FFF7C8FE5449554A0860904200D30E60FF
:104E400004219820FFF7BEFE5149B0F57A7F086033
:104E500000D30E6004219C20FFF7B4FE4D49642866
:104E6000086000D30E600421A020FFF7ABFE4A4982
:104E70000228086000D30E605CE57047F8B50C4668
:104E800007464FF4807615460021304608F064F955
:104E9000012D10D0022D11D00094F9B204226846E1
:104EA000FFF7FBFC0120FFF74EFC0121304608F024
:104EB00053F92046F8BD8DF80040EEE7ADF800400C
:104EC000EBE710B5284C04226C202168FFF7D6FFD1
:104ED0002060234C042248202168FFF7CFFF206088
:104EE000204C216804225020FFF7C8FF2060616831
:104EF00004225420FFF7C2FF6060A16804225820FA
:104F0000FFF7BCFFA060E16804225C20FFF7B6FF5A
:104F1000E060216904226020FFF7B0FF2061616931
:104F200004226420FFF7AAFF6061A16904226820BF
:104F3000FFF7A4FFA06110BD1000002018000020A2
:104F40002400002008000020300000200003002082
:104F500004030020080300200C030020100300209D
:104F60001403002044720020180300209000002049
:104F700060720020747200202003002024030020AF
:104F8000280300202C030020300300208096980086
:104F900034030020380300203C0300202DE9F843AF
:104FA0004FF4F840ADF8000010258DF803500324AD
:104FB0008DF802406946D04807F0DEFF4FF4F860F4
:104FC000ADF8000028208DF803006946CB4807F0B3
:104FD000D3FF4FF44870ADF80000DFF824838DF85C
:104FE00003508DF802406946404607F0C5FF04268D
:104FF000ADF80060C34F8DF803508DF8024069464C
:10500000384607F0B9FF0820ADF800008DF80350CE
:105010008DF802406946384607F0AEFF4FF4704005
:10502000ADF800008DF803508DF802406946404607
:1050300007F0A2FF41F20100ADF800008DF8035027
:105040008DF802406946B04807F096FF4020ADF861
:105050000000AE4F8DF803508DF802406946384687
:1050600007F08AFF2801ADF800008DF803508DF895
:1050700002406946A64807F07FFFC020ADF8000057
:105080008DF802401C208DF803006946404607F069
:1050900073FF4FF48C50ADF800008DF80360694643
:1050A000384607F069FF01219A4807F0B5FFBDE8CF
:1050B000F88310B5904C4FF48061204607F0DAFF7A
:1050C000E114204607F0D6FFA114204607F0D2FFD6
:1050D0006114204607F0CEFF2046BDE810404FF493
:1050E000804107F0C9BF10B5834C4FF48061204662
:1050F00007F0C0FFE114204607F0BCFFA1142046D2
:1051000007F0B8FF6114204607F0B6FF2046BDE85F
:1051100010404FF4804107F0ADBF10B5764C4FF40E
:105120008061204607F0A6FFE114204607F0A2FFA9
:10513000A114204607F0A0FF6114204607F09AFF53
:105140002046BDE810404FF4804107F093BF10B5F2
:10515000694C4FF48061204607F08CFFE114204633
:1051600007F08AFFA114204607F084FF611420464F
:1051700007F080FF2046BDE810404FF4804107F063
:1051800079BF10B55C4C4FF48061204607F074FF86
:10519000E114204607F06EFFA114204607F06AFFD5
:1051A0006114204607F066FF2046BDE810404FF42A
:1051B000804107F05FBF70B5FFF7E3FF4F4D284612
:1051C00007F04EFF1F2414EA901101D0012028E0BF
:1051D000FFF7BDFF284607F043FF14EA901101D006
:1051E00002201EE0FFF799FF284607F039FF14EA76
:1051F000901101D0032014E0FFF775FF284607F057
:105200002FFF14EA901101D004200AE0FFF751FFAC
:10521000284607F025FF14EA901101D0102000E085
:1052200000200023102420253B4A102918D008DC38
:1052300001290DD002290DD004290DD0082910D143
:105240000CE0202904D0402904D0802909D103E0B2
:10525000938007E0948005E0958003E0302100E032
:10526000402191809188084480B2908070BD10B533
:10527000FFF7A1FF284988888A68824201D100206F
:1052800010BD88600028FBD0FEF7FFFB9620FFF7DB
:105290005AFAFEF7E5FB012010BD10B5FFF78BFFB2
:1052A0001D488088002800D0012010BD70B5134E25
:1052B000304607F0D5FE1F2505EA90140A20FFF7B7
:1052C00042FA304607F0CCFE05EA9010844201D045
:1052D000002070BD01221048002134B18378012BD9
:1052E00007D041700170204670BD8270027041701D
:1052F000F9E781704270F5E700200140001C014091
:10530000000C014000140140001801400010014051
:105310000008014000040080000100202DE9F05F3A
:10532000064614460D462A2000F091FF300A00F090
:105330009FFFF0B200F09CFF1D36300A00F098FF8E
:10534000F0B200F095FF2B2000F081FF280A00F05A
:105350008FFFE8B200F08CFF3B35280A00F088FF91
:10536000E8B200F085FF2C2000F071FF3A2C0CD041
:105370002E2C0CD02D2C0CD0432C0CD0C4EB0417AD
:1053800007F10F0B4FF6FF7A25E09627F8E7A527E0
:10539000F6E7B427F4E7C327F2E7FE48002500EB61
:1053A00007194FF0000419F805606FEA0508300688
:1053B00001D5002000E0504600F05AFF76005FEA79
:1053C000887001D1052C02D0641C082CEFD36D1C11
:1053D000102DE6D37F1C5F45DFD3BDE8F09F70B58D
:1053E00000F0C6FEEC4D8021284607F045FE4CF249
:1053F0000301284607F040FEE84C4FF4F0612046D8
:1054000007F03AFE0221204607F034FE102128461C
:1054100007F032FE2021284607F02EFE0A20FFF773
:105420008EF900F06FFE0A20FFF789F900F0F4FE14
:10543000E22000F00CFF232000F01AFF022000F011
:1054400017FF542000F014FFE02000F000FF0120BF
:1054500000F00EFF0A20FFF772F9E02000F0F7FEDF
:10546000032000F005FF012000F0F1FE1420FFF7FB
:1054700066F9E62000F0EBFE042000F0F9FE932030
:1054800000F0F6FEE02000F0F3FEB02000F0DFFEBA
:10549000102000F0EDFE802000F0EAFEC04C2089D4
:1054A000401EC0F3072000F0E3FE207A401EC0B289
:1054B00000F0DEFEA089401EC0F3072000F0D8FEF9
:1054C000207B401EC0B200F0D3FE002000F0D0FED2
:1054D000B42000F0BCFE208921780844FE30C0F3DF
:1054E000072000F0C5FE207A21780844801EC0B253
:1054F00000F0BEFE2078D130000A00F0B9FE20781E
:10550000D130C0B200F0B4FE2078401E00F0B0FEF2
:10551000002000F0ADFE002000F0AAFE002000F008
:10552000A7FEB62000F093FE6078A18908442B30D6
:10553000C0F3072000F09CFE6078217B08442B30EC
:10554000C0B200F095FE60782130000A00F090FEB5
:1055500060782130C0B200F08BFE6078401E00F011
:1055600087FE002000F084FE002000F081FEF02085
:1055700000F06DFE032000F07BFE212000F067FEAE
:10558000BC2000F064FEA07800F072FEE07800F02D
:105590006FFE207900F06CFE012000F069FE2920EA
:1055A00000F055FE69142846BDE8704007F064BD60
:1055B0002DE9F04104461D4616460F462A2000F00C
:1055C00046FE200A00F054FE204600F051FE300A4C
:1055D00000F04EFE304600F04BFE2B2000F037FE70
:1055E000380A00F045FE384600F042FE280A00F076
:1055F0003FFE2846BDE8F04100F03ABE70B50546D2
:105600000021C72340F22B120846FFF7D1FF2C20C0
:1056100000F01DFE4EF6602402E0284600F028FE51
:10562000641EFAD270BD70B50546002140F2DF134A
:1056300040F21F320846FFF7BBFF2C2000F007FEA8
:10564000584C02E0284600F013FE641EFAD270BDEA
:1056500010B514460B460246FFF7AAFF2C2000F0B7
:10566000F6FD2046BDE8104000F002BE2DE9F05FD7
:1056700010279B4616460C460546B0F5437F4AD890
:10568000B4F5E67F47D82A2000F0E1FD280A00F0B3
:10569000EFFDE8B200F0ECFDED1D281200F0E8FD92
:1056A000E8B200F0E5FD2B2000F0D1FD200A00F06B
:1056B000DFFDE0B200F0DCFD0F34201200F0D8FD79
:1056C000E0B200F0D5FD2C2000F0C1FD203EF0B28C
:1056D000354A00EB400102EB81093449002501EB1A
:1056E00000184FF6FF7A0C2F03D018F8054000265B
:1056F0000BE019F80540FAE7E00701D0584600E052
:10570000504600F0B5FD6408761CB6EB570FF3D396
:105710006D1CBD42E7D360E62DE9F05F1E46DDF863
:105720002880154689460746B0F5437F69D8B9F504
:10573000E67F66D82A2000F08AFD380A00F098FD3E
:10574000F8B200F095FD07EB5604641E200A00F045
:105750008FFDE0B200F08CFD2B2000F078FD4FEAC9
:10576000192000F085FD09F0FF0000F081FD09EB34
:105770000604641E200A00F07BFDE0B200F078FD14
:105780002C2000F064FDA5F1200AB8F1000F0FD025
:1057900000255BE054EF00080014014000180140B0
:1057A0000C01002000DC0500F0E4000864E90008BA
:1057B000002424E00C2E06D0F84800EB0A10002547
:1057C00010F8048017E0F6480AEB4A0100EB81006C
:1057D000F5E75FEAC87001D0F24800E0F2480088BF
:1057E00082B209EB040081B2781980B2FFF730FF72
:1057F0004FEA58086D1CB5EB560FEAD3641CB4424F
:10580000D8D3EAE50C2E08D0E44800EB0A100024B7
:1058100010F8058009EB050B14E0E1480AEB4A019A
:1058200000EB8100F3E75FEAC87008D0DD481FFA9B
:105830008BF1008882B2381980B2FFF709FF4FEA76
:105840005808641CB4EB560FEDD36D1CB542D9D388
:10585000C3E52DE9F84F1F00DDF8288016460D46F8
:10586000044600D110274FF443794FF4E67A4FF6FF
:10587000FF7B3078002816D04C4501D900243D44E8
:10588000554504D9002425465846FFF7CCFECDF8EF
:10589000008032783B4629462046FFF73DFF04EB67
:1058A0005704761CE5E7BDE8F88F2DE9F0411D4669
:1058B00014460E4607469BB292B2DDF81880FFF7F9
:1058C00077FE2C2000F0C3FCE41BA81B444302E03D
:1058D000404600F0CDFC641EFAD2BDE8F0812DE90F
:1058E000F05F9B4616460D46044610274FF443785A
:1058F0004FF4E6794FF6FF7A15E0444502D90024CB
:10590000E81985B24D4504D9002425465046FFF7D5
:105910008AFE32785B4629462046FFF7A7FE04EB55
:10592000570084B2761C30780028E6D155E52DE981
:10593000F04117460E460546FFF78AFE6C1CA0B2E2
:105940003A463146FFF784FE761CB1B23A46284605
:10595000FFF77EFEB1B2A0B23A46BDE8F04177E66D
:105960002DE9F05F00249A4616468B4680461500C6
:105970004FF00A0707D13022FFF778FE03E0B5FBAE
:10598000F7F5641CE4B2002DF9D12546B94616E0BE
:10599000671EF9B20A2000F071FCB6FBF0F1B1FB12
:1059A000F9F209FB1212281B00EB400108EB410041
:1059B000303280B253465946FFF758FEFCB2002CF5
:1059C000E6D1032D08D108F1120053465946BDE82F
:1059D000F05F80B2202249E6FFE42DE9FE4F002669
:1059E000A2EB000882465F1A701E35468946B8F160
:1059F000000F02DD4FF0010102E003D14FF0000182
:105A0000019102E0C8F100080190002F02DD4FF083
:105A1000010002E003D14FF00000009002E0C7F166
:105A2000000700904046B84501DD044600E03C46D2
:105A3000601C4FF0000B029016E01FFA89F11FFA6C
:105A40008AF00C9AFFF704FE46443D44A64202DD6C
:105A50000199361B8A44A54202DD00992D1B894419
:105A60000BF101001FFA80FB02998B45E5DDBDE8D3
:105A7000FE8F2DE9F8431D46089C16460F468046CA
:105A80000B460094FFF7A9FF42462B4639461046C5
:105A90000094FFF7A2FF32462B4639461046009489
:105AA000FFF79BFF2B463246194640460094FFF70E
:105AB00094FFBDE8F8832DE9FF4F8046002415468A
:105AC000032083B00F46A0EB450661E0A7EB040975
:105AD000A8EB050A1FFA89F11FFA8AF0069AFFF768
:105AE000B7FD08EB050001901FFA89F180B2069A14
:105AF000FFF7AEFD781981B2A8EB040B00901FFAF6
:105B00008BF0069AFFF7A4FD1FFA89F11FFA8AF0BD
:105B1000069AFFF79DFDA7EB05091FFA89F11FFA09
:105B20008BF0069AFFF794FD019807EB040B1FFA20
:105B30008BF180B2069AFFF78BFD1FFA89F108EB13
:105B400004091FFA89F0069AFFF782FD0098069A69
:105B500081B21FFA89F0FFF77BFD1FFA8BF11FFA64
:105B60008AF0069AFFF774FD641C002E03DA06EB38
:105B70008406B61D04E0601B06EB80060A366D1E27
:105B8000781981B208EB040080B2069AFFF760FD35
:105B9000AC429BDD07B0BDE8F08F000064E900086F
:105BA000F0E40008AC020020B002002070B5054609
:105BB0000E462A2000F04BFB2C0A204600F058FB32
:105BC000284600F055FB204600F052FB284600F026
:105BD0004FFB2B2000F03BFB340A204600F048FB33
:105BE000304600F045FB204600F042FB3046BDE861
:105BF000704000F03DBB2C2000F029BB2DE9F047A0
:105C00000546984616460F462A20DDF8209000F0FB
:105C10001EFB380A00F02CFBF8B200F029FBA8F1BB
:105C20000104200A00F024FBE0B200F021FB2B204D
:105C300000F00DFB300A00F01BFBF0B200F018FB87
:105C4000A9F10104200A00F013FBE0B200F010FB00
:105C50002C2000F0FCFAA8EB0700A9EB06010024B9
:105C60004843460007E02919285D497800EB0120E8
:105C700000F0FEFAA41CB442F5D3BDE8F0872DE98C
:105C8000F04107461D4614460E462A2000F0DFFA72
:105C9000380A00F0EDFAF8B200F0EAFA641E200AC1
:105CA00000F0E6FAE0B200F0E3FA2B2000F0CFFAC1
:105CB000300A00F0DDFAF0B200F0DAFA6D1E280AC0
:105CC00000F0D6FAE8B200F0D3FABDE8F0412C209B
:105CD00000F0BDBA2DE9F84F804693460C460A25E0
:105CE000282000F0B4FADFF8B893DFF8B8A3002654
:105CF0004FF6FF77B8F1000F56D1052C01D34FF0C6
:105D00009905BBF1000F05D01F21C9F80070CAF832
:105D1000001003E0C9F80060CAF800700520B4FB69
:105D2000F0F100FB114000EBC00101EB00100A2173
:105D300001EB80000D3084B1012C12D0022C14D064
:105D4000032C16D0042C18D0052C1AD0062C1CD0ED
:105D5000072C1ED0082C20D026E01023D2A20096BB
:105D60001EE01023D2A200961AE01023D2A20096C1
:105D700016E01023D2A2009612E01023D2A20096C1
:105D80000EE01023D2A200960AE01023D2A20096C1
:105D900006E01023D2A2009602E01023D2A20096C1
:105DA00005F14A01FFF755FD292000F050FAC9F826
:105DB0000060CAF8007076E5F8B54FF6FF70FFF79F
:105DC00032FC0A2500242E460527B4FBF7F007FB1A
:105DD000104000EBC00101EB001006EB8000052C29
:105DE00001D34FF0990505F13C0300F13B02294630
:105DF0000094FFF744FF002221461046FFF76AFF98
:105E0000641CE4B2092CE0D3F8BD2DE9FF410F4634
:105E10000546B6A1684607F06BFC00246E46325D6D
:105E20001046303A092A04D8C4EB041005EB4000B0
:105E300006E02D28C4EB041005EB400008D04322F7
:105E40003946FFF76BFA641C062CE8DBBDE8FF81DE
:105E50002D22F5E72DE9FF5F98460E9F1646044672
:105E6000B0F5437F7DD80198B0F5E67F79D82A2038
:105E700000F0EDF9200A00F0FBF9E0B200F0F8F9CB
:105E800004EB58056D1E280A00F0F2F9E8B200F0A4
:105E9000EFF92B2000F0DBF90198000A00F0E8F997
:105EA0000198C0B200F0E4F9019800EB08056D1EFE
:105EB000280A00F0DDF9E8B200F0DAF92C2000F051
:105EC000C6F9203E02960FB10026B7E0002088E018
:105ED000B8F1100F03D0B8F1180F33D07FE002985B
:105EE0004FF000064FEA401101EB490081490D5C7B
:105EF0000844019990F801A001EB0907280601D593
:105F0000674800E06748B9B2008882B2A01980B241
:105F1000FFF79EFB6D00761C072EEFD307255FEA87
:105F20000A6001D55E4800E05E48B9B2008882B2DE
:105F3000601980B2FFF78CFB6D1C4FEA4A0A0E2DE8
:105F4000EDD34CE0029809EB490100EBC0006A4A2E
:105F500001EBC000115C104490F801A090F802B071
:105F600000E042E04FEAC10501994FF0000701EB64
:105F70000906280601D54A4800E04A48B1B200881F
:105F800082B2E01980B2FFF763FB6D007F1C052F22
:105F9000EFD305255FEA0A6001D5414800E041489A
:105FA000B1B2008882B2601980B2FFF751FB6D1C5C
:105FB0004FEA4A0A0D2DEDD30D255FEA0B6001D59E
:105FC000374800E03748B1B2008882B2601980B229
:105FD000FFF73EFB6D1C4FEA4B0B122DEDD309F181
:105FE000010081464045FFF473AFBDE8FF9FB8F163
:105FF0000C0F0BD04149029801EB00100025875D82
:106000000198DFF89CA000EB060913E002983C49D8
:1060100000EB400001EB8000F0E7F80708D0BAF889
:1060200000001FFA89F182B2601980B2FFF710FBFD
:106030007F086D1CB5EB580FEFD3761C4645D6D3C1
:10604000D3E72DE9F8431D00DDF8208017460E4602
:1060500004461DD110251BE0B4F5437F01D900246F
:106060002E44B6F5E67F05D9002426464FF6FF708C
:10607000FFF7D9FACDF800803A782B463146204612
:10608000FFF7E8FE102D07D0182D07D02C447F1CF9
:1060900038780028E0D10CE50E34F8E71234F6E742
:1060A000AC020020B0020020506963747572650074
:1060B0005468696C7300000047616D650000000062
:1060C00045617274680000004D75736963000000DB
:1060D000436C6F636B0000004170706C65000000E2
:1060E000526164696F000000534D530025366C64A3
:1060F0000000000074FC0008340F010864E9000887
:10610000F0E4000800B597B00220109000200521AF
:10611000CDE9110113904FF080511490CDE9150194
:106120000821CDE902011021CDE90410019007906A
:1061300009020890CDE909010B900C900D9010A870
:106140000E900F9001A806F0B7FE6420FEF7F7FA54
:106150000121002006F0A0FE6420FEF7F0FA0121E4
:10616000080206F0F9FF6420FEF7E9FA17B000BD57
:10617000F8B54FF40050ADF8000010248DF803403E
:106180000320814D8DF802006946284606F0F4FE92
:1061900002207E4EADF800006946304606F0ECFE67
:1061A0000120ADF800006946304606F0E5FEADF886
:1061B000004018248DF803406946284606F0DCFEAE
:1061C0002020ADF800008DF803406946284606F00F
:1061D000D3FE4CF20370ADF800008DF80340694621
:1061E000284606F0C9FE4FF68070ADF800008DF825
:1061F00003406946304606F0BFFE8020ADF800003F
:106200006946284606F0B8FEE814ADF80000694675
:10621000284606F0B1FEF8BD10B55C4C02212046C0
:1062200006F028FF0A20FEF78AFA0A20FEF787FA0E
:106230000A20FEF784FA0A20FEF781FA0A20FEF708
:106240007EFA2046BDE81040022106F015BF4FF04F
:10625000C041088070474FF0C041088070474FF040
:10626000C04210804A480180704749480088704702
:106270004749088070474649088070470346012017
:1062800000E058430A00A1F10101C9B2F9D17047F9
:106290000346012000E058430A00A1F10101C9B200
:1062A000F9D1704700F0F800000201F0FC0140EA6B
:1062B000C10040EAD20070472DE9F843FFF78FF89C
:1062C0004FF6FF773846FFF7AEF94FF0C044282568
:1062D00025801E20FEF737FA292626804FF4FA6023
:1062E000FEF731FA25803846FFF79DF929484FF42B
:1062F000C872416801F5C8710091036840F2262117
:1063000003F226230C30FFF779FC1F25E6234FF418
:106310002F7282214FF4E1700095FFF7AAFB00274E
:106320004FF4FA7810231CA2872140460097FFF70C
:1063300090FAEB2340F2C1227D2140F2BD1000957E
:10634000FFF797FB1848962102684046FFF75DFD6E
:10635000E6234FF4AF7282215F200095FFF789FB9F
:10636000E8020090EB2340F263127D215A20FFF7F0
:1063700080FB10230DA2872196200097FFF769FA72
:106380002680BDE8F8830000001401400018014099
:10639000000002608C500108544F444159204F5571
:1063A000545055540000000014030020435552522D
:1063B000454E54205745494748540000F6A005F083
:1063C000F3BC10B5FB4C2088002809D1FDF7AAFBCF
:1063D0004FF47A70FEF7B7F9FDF7A5FB5020208047
:1063E00010BD2DE9F84F4FF0000AFCF796FF064666
:1063F000F148017800297DD0002101704FF0FF3A6B
:10640000304606F040FAED49096806F0E5F806F076
:1064100059FA0546EA480068A5EB0008E948006813
:1064200008EB5001B1FBF0F4E7480768E7487C430C
:106430000068204406F035FA8146E5488B4600683E
:1064400006F02FFA0022E34B06F0AEF94A465B460F
:1064500006F038F906F04FFA06F034FA002805DAAB
:106460004142B1FBF7F207FB121103E0B0FBF7F179
:1064700007FB1101471AD848006800282ED0D748DA
:10648000D7A10268D94807F033F94FF0000910236B
:10649000D64A4FF4A5710A20CDF80090FFF7D9F93C
:1064A000C748D3A10268D14807F022F91023CF4A88
:1064B0004FF4AF710A20CDF80090FFF7CAF93B46C0
:1064C0002246CFA1C94807F013F91023C74A4FF459
:1064D000B9710A20CDF80090FFF7BBF9D14901202E
:1064E0000860D14806600068D0490968401AD04960
:1064F000086000E042E0CF480168CF4A11600560C3
:10650000CE49C1F80080CE480460CE480460CE4831
:106510000760CE490E600068CD490860CD48CE497D
:1065200000680860CD48CE4900680860CD48CE4973
:1065300000680860CD48CE4900680860CD48CE4963
:1065400000680860CD48CE4900680860CD480078F2
:10655000CD490870CD480078CD490870CD48007805
:10656000CD490870CD480078CD490870CD480078F5
:10657000CD490870CD480078CD4908705046BDE837
:10658000F88FCC4910B501200870FFF72AFF0028CA
:10659000FBD04FF0FF3010BDF0B58C4CA34DC1B017
:1065A0002368C5A101A82A6807F0A2F800261423D1
:1065B00001AA1E21C8200096FFF74BF9FFF7E1FF63
:1065C000FFF7DFFFFFF7DDFFFFF7DBFF002832D02B
:1065D0002368BFA101A82A6807F08AF8142301AA3A
:1065E0001E21C8200096FFF734F98F4801689148B2
:1065F00029600068724F0422386010462660FEF75A
:106600003DFC2860042208203968FEF737FC38601A
:10661000042244202168FEF731FC20600346B2A129
:1066200001A82A6807F064F8142301AA1E21C820D3
:106630000096FFF70EF941B0F0BD10B50B21B0A0E8
:1066400003F03BF84FF47A742046FEF77CF8FDF730
:106650005EFA2046FEF777F8BDE81040FDF752BA23
:1066600010B50446A9489AB041680091A8487649F7
:1066700003680A68A7A101A807F03AF801A9204613
:1066800002F0E2FF4FF47A70FEF75DF81AB010BD29
:1066900005F01DBCF8B5ABA005F0FEFA42F2CD0145
:1066A000ABA004F08AFB012865D10021AC4806F0BC
:1066B0000AFF00214FF0804006F005FF0021A948A5
:1066C00006F001FFA84D40F225540022214628463D
:1066D00006F09AFFA54E00222146304606F094FFB0
:1066E000A34F00222146384606F08EFF2146A14CDA
:1066F0000022204606F088FF0021284606F01DFFF4
:106700000021304606F019FF0021384606F015FF3B
:106710000021204606F011FF0021012006F070FE46
:106720004FF6FF70FEF77FFF0024102392A2962100
:106730004FF4AF700094FFF784FC102392A2FA216B
:10674000C8200094FFF77DFC4FF00065002128462B
:1067500006F0F2FC844943F2390008310880696888
:10676000934CA1636163286805F0BAFE606B01B0C9
:10677000BDE8F0400047F8BD2DE9F04104468EB079
:1067800005228CA1401C05F00BFF00254FF49676E6
:1067900008B1082212E136E148656C6C6F2C205775
:1067A0006F726C6421204750492D383331300D0A07
:1067B00000000000400300205803002030000020AB
:1067C0002C0000200C0000200800002008030020FE
:1067D000B40000200088C3402C03002048030020A0
:1067E00064696666313D25366C642000E64B002006
:1067F000765F6164635F6F72673D25366C6420006D
:1068000067786C5765696768743D25366C642C2021
:1068100067786C47726F73735765696768743D2555
:106820006C642000DC020020E00200201000002048
:10683000E4020020E8020020F0020020EC02002028
:10684000F4020020F8020020FC0200205403002083
:1068500070020020900200207402002094020020A8
:1068600078020020980200207C0200209C02002078
:1068700080020020A002002084020020A402002048
:10688000880200204C030020680200204D030020F5
:10689000690200204E0300206A0200204F030020FE
:1068A0006B020020500300206C02002051030020E6
:1068B0006D02002061020020765F7A65726F313DC3
:1068C00025366C752020636F6D703D25366C750024
:1068D000765F7A65726F323D25366C752020636F66
:1068E0006D703D25366C7500765F7A65726F333D4D
:1068F00025366C752020636F6D703D25366C7500F4
:106900004154244C4754524553455400447200208E
:106910001403002030372D312DB9ABB0D43A2535D2
:106920006C75206B6720BFC0B4C33A25356C7520E9
:106930006B6720BEEEC1A63A25356C75206B6720CB
:106940000000000020494E20494150200000000076
:106950003131322E3231372E3231322E3235300053
:10696000002C014000040040003801400044004079
:1069700000480040004C0040557067726164696EC9
:10698000672E2E2E2E200000576169742061206D25
:10699000696E7574652C20616E642049276C6C20CB
:1069A0006265206261636B20736F6F6E2E00000062
