:020000040800F2
:10300000C8B20020CD2501081125010813250108AB
:1030100015250108172501081925010800000000E1
:103020000000000000000000000000001B25010857
:103030001D250108000000001F25010821250108A9
:10304000E3250108E3250108E3250108B1C20008D2
:10305000E3250108E3250108E3250108E32501082C
:10306000E3250108E3250108E3250108E32501081C
:10307000E3250108E3250108E3250108E32501080C
:10308000E3250108E3250108E3250108E3250108FC
:103090003F250108E3250108E3250108E325010890
:1030A000E3250108E3250108E3250108E3250108DC
:1030B00095160108E3250108E3250108E325010829
:1030C000E3250108E3250108E3250108E3250108BC
:1030D000E32501084F180108A7180108271901085E
:1030E000E3250108E325010841250108E32501083E
:1030F000E3250108E3250108E3250108E32501088C
:10310000E3250108E3250108E3250108E32501087B
:10311000E9190108E3250108E3250108E325010871
:10312000E3250108E3250108E3250108E32501085B
:10313000DFF80CD00FF012FF00480047BF8A0008EC
:10314000C8B2002010B50020FE4A014642F8201007
:10315000401CC828FAD3FC4A002042F82010401C2A
:10316000C828FAD30121F94810F050F8BDE8104002
:103170000221F74810F04AB870B5F44E002501213D
:10318000304610F043F80421304610F02EF80028A5
:10319000F9D00421304610F028F80028F9D1042194
:1031A000304610F022F80028F9D00421304610F003
:1031B0001CF80028F9D100240121304610F028F82D
:1031C000962002F0F5F96D000421304610F00DF85C
:1031D00005440121304610F019F8322002F0E8F9D8
:1031E000641CE4B2182CE7D3284670BD2DE9F047E3
:1031F000DFF85C8300250221404610F007F8D34F2A
:103200004FF40054214638460FF0EFFF0028F9D064
:10321000214638460FF0E9FF0028F9D1214638460B
:103220000FF0E3FF0028F9D02646214638460FF07C
:10323000DCFF0028F8D10024B14602214646404672
:103240000FF0E6FF962002F0B3F96D0049463846CC
:103250000FF0CBFF0544022130460FF0D7FF32209C
:1032600002F0A6F9641CE4B2182CE6D32846BDE8A7
:10327000F08781E7BAE710B5FFF77EFFB5490B6825
:10328000B3B1B04AC72102EB810454F8044C42F8B0
:103290002140491E0029F6DC591E106003E052F857
:1032A0002140491E20440029F9DCB0FBF3F001E085
:1032B00001220A600A21B0FBF1F010BD10B5FFF742
:1032C00095FFA4490B68B3B19F4AC72102EB810463
:1032D00054F8044C42F82140491E0029F6DC591EDE
:1032E000106003E052F82140491E20440029F9DC17
:1032F000B0FBF3F001E001220A601421B0FBF1F011
:1033000010BD2DE9F04F944B0025DFF850B21A782C
:10331000DFF84C92DFF84CA299B04FF0FF38012A49
:103320000ED19149002008708BF8000089F8000048
:103330008AF800008D4908708D4908708D49087021
:1033400030328DA10CA810F089FA0CA80EF0A7FD60
:1033500000278B4C0126012002F031F92078E8B3D8
:10336000012002F02CF92078C8B386480027277086
:10337000076085485021854A01803C4602206FF055
:103380002F03115CA1F1300CBCF1090F04D9A1F19C
:10339000410CBCF1050F07D804EB840403EB440493
:1033A000401C0C440728ECDD082841DB022278A1F0
:1033B00076480FF09BF918B3022276A173480FF0FC
:1033C00095F918B3022274A170480FF08FF918B361
:1033D000022272A16D480FF089F901E002E004E0D9
:1033E00000B325E07F1C642FB5DB6749B1F900000D
:1033F00008B1401E088058480278042A1BD047E0D4
:10340000674804608BF80060664810E06648046016
:1034100089F8006065480AE0654804608AF8006041
:10342000644804E0644804605048067063480770CC
:103430000EF0B3FEDFE75A485D49614F04685A4811
:1034400009683F68006823185D185B4B1B6805EB33
:1034500003080125E7B109AF08940BC74548037875
:1034600043480178414804789AF80000CDE9040403
:10347000CDE9061399F800109BF800303A48CDE9E1
:103480000231CDE9008503784EA10CA810F0E6F9D1
:1034900031490878401CC0B20870042800D90E7069
:1034A0002DB131480670404619B0BDE8F08F544840
:1034B0000068F9E72DE9F04F274B00256C1E1A78BC
:1034C000274E284FDFF8A480B5B0AA46012A11D1B3
:1034D000254981F800A0214981F800A086F800A0C4
:1034E00087F800A088F800A0214981F800A02149B0
:1034F00081F800A0303220A10EA810F0AFF90EA87C
:103500000EF0CDFCDFF878B04FF00009012002F09A
:1035100056F89BF8000018B1012002F050F804E0C2
:1035200009F10109B9F1640FF0DB0B484B4635A1F5
:1035300002780EA810F092F90EA80EF007FC58467B
:1035400066E000005C3900207C3C00200010014057
:10355000000C0140C03800201D3800202039002018
:1035600021390020223900202C3900202339002065
:103570002439002025390020402D25635200000009
:10358000F2370020183800200C39002092930020D8
:103590002D3100002D3200002D3300002D340000AD
:1035A0004C3800201E380020503800201F380020E2
:1035B00054380020203800205838002021380020BE
:1035C000F8380020202825753A25752920256C64B7
:1035D0002C2025642E2E25642C25642C25642C2576
:1035E000642C25642C25642C20256C642C20256CEF
:1035F000642C20256C642C20256C642020000000A5
:1036000028390020206C25643D25642E0000000030
:103610009BF80020F549DFF8D8B3002A48D080F89D
:1036200000A0F448F44B4FF00009C0F800A050206F
:10363000088002206FF02F0C195CA1F13002092ADA
:1036400002D9113A052A08D809EB89020CEB42028B
:10365000401C01EB02090728EEDD08285CDB022292
:10366000AFF2D401E4480FF041F838B30222AFF2D0
:10367000DC01E1480FF03AF840B30222AFF2E80172
:10368000DD480FF033F840B30222AFF2F001DA4820
:103690000FF02CF840B30222D8A1D7480FF026F83B
:1036A00048B30222D6A1D4480FF020F858B333E033
:1036B000B1F9000090B3401E08802FE0D1490120ED
:1036C000C1F80090D0490870D04923E0D0490120CA
:1036D000C1F800903070CF491CE0CF48C0F800908E
:1036E00001203870CD4915E00120CBF8009088F812
:1036F0000000CB490EE0CB490120C1F80090CA4937
:103700000870CA4906E0CA490120C1F80090C949B9
:103710000870C94981F800A00EF03FFDDFF81C9346
:10372000C74899F80020006882427DD1C549062823
:1037300008681AD068B1B4480178002975D031788A
:103740000029FBD039780029F8D098F8001000291A
:10375000F4D0AC480168AE4800680144AE48006847
:103760000144DBF800000C18CBE178B1A6480178E1
:10377000E9B13178D9B13978C9B198F80010B1B14F
:10378000A949097899B1AB49097881B19D48016887
:103790009F4800680144A04800680144DBF800002D
:1037A0000144A04800680144A1480068DBE70178B3
:1037B000F1B93178E1B13978D1B198F80010B9B1E7
:1037C00099490978A1B19B49097889B19048006865
:1037D0004100914800680144DBF800000144914831
:1037E0000068014492480068BFE081F800A088E1C9
:1037F000017829B3317819BB397809B398F80010EA
:10380000F1B189490978D9B18A490978C1B17D48AE
:1038100000684100804800680144DBF80000014472
:1038200080480068014401E0C6E18DE080480068FE
:10383000AEE00878401CC0B208700228D5D260E122
:103840000178E1B13178D1B13978C1B998F8001077
:10385000A9B17549097891B17649097879B1694872
:1038600001686B4800680144DBF800000144014432
:103870006C48006801446E4800680C183FE101780C
:10388000E1B13178D1B13978C1B198F80010A9B956
:103890006549097891B16749097879B15948016852
:1038A0005B48006801445C480068014401445D488D
:1038B000006801445E4800680C1893E00178E9B1A3
:1038C0003178D9B13978C9B198F80010B1B15649F9
:1038D000097899B95749097881B14A4801684C4833
:1038E000006801444C4800680144DBF800000144D2
:1038F0004F48006801440C184C499AE700780028AA
:1039000072D030780028FBD038780028F8D098F8AA
:103910000000002868D044480078002864D045485A
:103920000078002860D137480168394800680144B0
:10393000394800680144DBF8000001443948006858
:1039400001440C183C4974E7017881B9317871B1B0
:10395000397861B198F8001049B12F4801682C48B6
:10396000006801EB4001DBF800000C1897E00178DB
:1039700081B1317871B9397861B198F8001049B1E5
:10398000254801681F48006801EB4001DBF8000092
:103990000C18A6E0017881B1317871B1397861B93C
:1039A00098F8001049B117480168194800680144A7
:1039B000DBF8000001EB4004A1E0017831B131787F
:1039C00021B1397811B198F8001011B1017861B1C5
:1039D00043E00C4801680E48006801440E48006846
:1039E00001EB40040E4924E7B8E02DE00C3900203B
:1039F0005838002018380020929300202D35000000
:103A00002D3600004C380020203900201E380020C0
:103A1000503800201F380020543800202038002063
:103A2000213800205C380020243900202238002072
:103A30006038002025390020233800201D38002060
:103A4000E0000020E0380020317831B9397821B128
:103A500098F8001009B1674809E0017859B9317840
:103A600049B1397839B998F8001021B16248016834
:103A7000DBF8000011E0017831B9317821B13978F3
:103A800011B198F8001021B10178A1B1317841B19C
:103A900011E05948016857480068084444005749F4
:103AA000C7E6397839B998F8001021B1544801684F
:103AB000DBF8000013E0017831B1317821B93978B1
:103AC00011B198F8001031B1017879B1317869B14C
:103AD000397841B10AE04A4801684648006808441C
:103AE00044004849A5E698F8001011B1017851B199
:103AF00013E04348016840480068084444004249D4
:103B000097E601252AE0317839B9397829B998F84A
:103B1000001011B1DBF8000066E0017831B93178AE
:103B200021B1397811B998F8001011B1017811B1AB
:103B300008E0314857E0317821B9397811B198F867
:103B4000001021B1007848B1307810B106E0294862
:103B500049E0387810B998F80000E8B32B480068BD
:103B600050B32B48DBF800C003682A48016821489D
:103B70000068CDE90A0C2048CDE90C130368204801
:103B80000168254890F800C024480078CDE9060C6B
:103B9000CDE9081398F800103B7836782048007873
:103BA00003960094CDE901501E48CDE90431037815
:103BB0001D490EA80FF052FE99F800001B4A401C48
:103BC000C0B289F800001268904202DD012089F835
:103BD00000005DB1012000E004E0124908702046B9
:103BE00035B062E40648006884008AE7104800683F
:103BF000F6E7000054380020503800201E3800201E
:103C00004C3800201F38002020380020F8380020D1
:103C1000603800205C38002025390020243900203D
:103C2000203900202C39002090410108E0000020BC
:103C3000283900204FF4006166480FF0E9BA4FF4CC
:103C4000805164480FF0E4BA4FF4005161480FF01E
:103C5000DFBA102160480FF0DBBA4FF400615D4815
:103C60000FF0D4BA4FF480515A480FF0CFBA4FF446
:103C7000005158480FF0CABA102157480FF0C6BA81
:103C800010B5FFF7EAFFFFF7EDFFFFF7F0FFBDE824
:103C90001040F1E7012806D0022805D0032804D0FF
:103CA000042803D1D5E7C5E7C9E7CDE77047012868
:103CB00006D0022805D0032804D0042803D1DBE76E
:103CC000CBE7CFE7D3E770474FF4805143480FF07D
:103CD0009DBA08B54FF48050ADF8000003208DF870
:103CE000020010208DF8030069463C480FF006FAE8
:103CF000FFF7EAFF08BD4FF4805138480FF088BA4B
:103D000010B50446FFF7F7FF204601F05CFCBDE864
:103D10001040D9E710B500241420FFF7F1FF05206B
:103D200001F051FC641C072CF6DB10BD20212A4851
:103D30000FF06EBAFAE7022126480FF069BA0221A5
:103D400024480FF063BA202123480FF05FBA10B562
:103D5000202121480FF05AFABDE81040F3E74FF454
:103D600000711D480FF054BAF9E74FF400711A487A
:103D70000FF04CBAF9E770477047042115480FF06F
:103D800045BA042113480FF043BA082111480FF037
:103D90003DBA08210F480FF03BBAE6E7DFE74FF4E2
:103DA00080710D480FF034BA4FF480710A480FF05B
:103DB0002DBA042107480FF029BA042105480FF055
:103DC00027BA082103480FF021BA082101480FF053
:103DD0001FBA000000140140000C01400010014017
:103DE0002DE9F04F002489B0264603F0A8F9DFF84A
:103DF000F883D8F80000012857D00021FBA208461C
:103E000003F01BF802F057FEFCA20621002003F08D
:103E100014F802F04CFE0025FB4FFFF72CFA0EF0D1
:103E200039FE0EF04DFE6D1CEDB23860642DF4D3FA
:103E3000F64D686928640EF02DFE696C0EF0CAFC20
:103E40000EF03EFEA863F2A168463A680FF006FD48
:103E500068460DF06BFFF2A168462A6C0FF0FEFC7D
:103E600068460DF063FFF2A16846AA6B0FF0F6FCFE
:103E700068460DF05BFF686C0EF04FFE02460B4685
:103E8000EFA168460FF0EAFC68460DF04FFFDFF83F
:103E9000C0A3B946DFF8BCB302F035FC38B3BAF8BA
:103EA00000005746012809D011E00021EAA2084687
:103EB00002F0C3FF02F0FFFDEBA2A6E7286C0EF0B4
:103EC000E9FD696C0EF086FC0EF0FAFDA8633888F7
:103ED000022803D0388805280AD00CE068690EF063
:103EE000D9FD696C0EF076FC0EF0EAFDA86302E0E5
:103EF00001246FF06406FFF7BEF9C9F800000EF068
:103F0000C0FD696C0EF066FC0EF0DAFDCBF8000027
:103F1000A96B401A296900EB5100B0FBF1F2A868C7
:103F20004243D8F8000001280ED0D2A168460FF015
:103F300095FC6A460221002002F07FFF002CABD0E6
:103F400009B03046BDE8F08FCEA1EFE72DE9F0478C
:103F500088B003F0F4F8AD4C206B0EF09BFD0546E5
:103F6000E06A0EF097FD29460EF06AFC8046616912
:103F7000E069401A2062C7A00DF0D8FEC8A16846CB
:103F800062690FF06BFC68460DF0D0FEC7A1684671
:103F9000E2690FF063FC68460DF0C8FEC6A16846F2
:103FA000226A0FF05BFC68460DF0C0FE40460EF042
:103FB000B4FD8946064632464B46C2A168460FF01C
:103FC0004DFC68460DF0B2FEA06A0EF063FD41465E
:103FD0000EF036FC0EF08DFD05460246BCA168468B
:103FE0000FF03CFC68460DF0A1FE60690EF052FD3A
:103FF0000746206A0EF04EFD41460EF0EBFB3946B7
:104000000EF090FB0EF075FD0246B5A168460FF06C
:1040100025FC68460DF08AFE4146B5480EF010FCBE
:1040200082460EF07AFD02460B46B2A168460FF0BA
:1040300015FC68460DF07AFEB14AB2A168460FF051
:104040000DFC68460DF072FE206A6FF0C107A842B1
:1040500009D2B0A20121002002F0EFFE40F6B830F4
:1040600001F0B1FA0BE00EF015FD014650460EF0DE
:1040700083FD08D2ADA20221002002F0DEFE384608
:1040800008B0BDE8F0878CA16846226A0FF0E6FB15
:1040900068460DF04BFEABA16846A26A0FF0DEFB4E
:1040A00068460DF043FE32464B4686A168460FF047
:1040B000D5FB68460DF03AFE206A0EF0EBFC414657
:1040C0000EF088FB0546A06A0EF0E4FC29460EF0CF
:1040D000B7FB60640EF021FD02460B4658A168460E
:1040E0000FF0BCFB68460DF021FE60690EF0D2FCBB
:1040F000616C0EF06FFB0EF0E3FCA0633A480068C1
:10410000022802D0012802D006E093A200E096A285
:104110000221002002F091FE4FF4FA64204601F0E3
:1041200052FA204601F04FFA6FF06400A8E72DE93B
:10413000F047DFF848A29AB004460026DAF800807B
:1041400002F0FDFF8E48284F304D0068012844D012
:1041500002F0ADFC3868012840D06879002C3ED0D0
:1041600001283DD087A20021084602F066FE02F039
:10417000A2FC88A20621002002F05FFE02F097FC5C
:104180000024FFF778F8641CE4B2142CF9D3A94694
:104190004D4699F80500012823D0FFF78FF8044613
:1041A0003868224601281DD07EA168460FF056FBD4
:1041B0006A460421002002F040FE02F0A4FA28B171
:1041C0002348008805280ED0FFF7A4FD002EDFD07D
:1041D000CAF8008020461AB053E7E9E009E11CE183
:1041E00021E122E12CE12DE1C8000020435552528B
:1041F000454E54205745494748540000454E5445C4
:10420000523A4E4558540000143900200000002056
:104210007261775F64617461203A20256600000056
:10422000765F616463315F6F7267203A20256400B6
:10423000765F6164635F6F7267203A2025640000D7
:10424000676E66466163746F72203A2025660000CF
:10425000EC00002010390020C7F6C0E7B9ABB0D49D
:10426000C8AEC0CE00000000C8AEC0CEC5B03AB4E3
:10427000D9C0BD005745494748543A25366C64209B
:104280006B670000B9ABB0D43A25366C64206B671D
:104290000000000031323334353637383930000011
:1042A000565F5A45524F3D256C640000565F465597
:1042B0004C4C3D256C640000565F5350414E3D25EB
:1042C0006C640000726174696F3D25660000000037
:1042D0006C6F775F6C696D6974203A20256400000B
:1042E000686967685F6C696D6974203A20256400AD
:1042F0000024744B6572723235203A202566000026
:104300000024F40046554C4C5F4C494D4954203A2A
:10431000202564004552524F52203234203A205317
:1043200050414E204C4F5720000000004552524F44
:1043300052203235203A205350414E2048494748B8
:1043400000000000765F695F7265736F6C75746959
:104350006F6E203A20256400202053554343455377
:10436000532021212000000020B9ABB0D4C1B6C138
:10437000A420BCBAB0F8212100000000C038002001
:10438000B8000020205350414E2043414C28322990
:104390000000000020454E5445523A5354415254B7
:1043A000000000004144432832293A25376C64005C
:1043B00002F081FB3868012802D0C4B1E5A2D2E640
:1043C00074B10021E6A2084602F037FD02F06FFB4F
:1043D000E6A168462A6B0FF041FA6A4602210EE018
:1043E0000021E6A2084602F028FDE7A2C2E6E9A203
:1043F000B9E668794CB101280DD0E9A2002100206E
:1044000002F01BFD02F057FBEFE7012801D0E8A204
:10441000F4E7EBA2F2E7EEA2F0E7012801D0F0A268
:10442000A1E6F3A29FE6F6A29DE6FEF724FF04466E
:1044300038682246012801D0F5A1B6E6F7A1B4E616
:10444000FAA1B2E60024687901260128254606D1A2
:10445000FEF711FF6D1C0444322DF9DB05E0FEF779
:104460002DFF6D1C0444322DF9DB322094FBF0F457
:10447000ACE62DE9F04F4FF000098BB04D464C46AD
:1044800002F092FA02F05BFEDFF8B08398F80500C4
:1044900001287DD0D8F83460E9484FF00A0A96FB2D
:1044A000F0F100FB116142F2107091FBF0F1ADF8F8
:1044B000201096FBF0F100FB11614FF47A7091FB34
:1044C000F0F1ADF8221096FBF0F100FB11616420D1
:1044D00091FBF0F1ADF8241096FBF0F100FB1161B7
:1044E000504691FBF0F1ADF8261096FBFAF10AFB6D
:1044F0001160ADF8280002F0DEFAD248D24F006811
:104500000128386856D0012898F805005ED00128A7
:1045100072D0CEA20021084602F08FFC3246CFA115
:1045200068460FF09BF96A460421002002F085FCE2
:10453000AFF238320621002002F07FFC02F0B7FA19
:1045400040F6C41B08AEBDF9201042F21070414382
:10455000BDF922006D1C00EB4002C2EBC01001EB64
:10456000C001BDF924005D4500EBC00202EB001064
:1045700001EB8001BDF9260000EB800001EB40005B
:10458000BDF9281000EB01083AD13868012800E095
:104590000DE0424632D0B1A168460FF05FF96A469D
:1045A0000421002002F049FC02F085FA3CE0D8F832
:1045B0002C6071E7012801D0ADA2ABE70021B0A2C9
:1045C000084602F03AFC3246B1A108E0012811D0B9
:1045D000B4A20021084602F030FC3246B5A168467C
:1045E0000FF03CF96A460421002002F026FCB6A236
:1045F000A0E701E0B8A2ECE7BBA28BE7A4A1CBE760
:1046000041F2883085421DDD002502F050FA3868FD
:104610004246012824D091A168460FF01FF96A464E
:104620000421002002F009FCC4F10400B2A136F913
:10463000102068460FF012F9C4F10C006A460421FC
:1046400002F0FBFB02F05FF818B3AC4800880128C9
:1046500008D0022813D004281CD0052821D124E03A
:104660008BA1D9E7C4F1040036F81010491C09B237
:1046700091FBFAF326F810100AFB131107E0C4F1BE
:10468000040036F9101009B1491E00E0092126F88E
:10469000101006E0641CA0B20521B0FBF1F201FB92
:1046A0001204B9F1000F3FF44EAF40460BB049E49D
:1046B0002DE9F041AAB000264022914919A80DF039
:1046C000D5FF002702F070F902F039FD02F0F3F98E
:1046D000DFF87481D8F80000012813D089A20021E6
:1046E000084602F0AAFB02F0E2F9544919AD4879F4
:1046F00001284FF0000007D0496B55F820208A426E
:104700000CD00FE083A2EAE7C96A55F820208A425C
:1047100004D0401CC0B20E28F7D307E00E2805D203
:1047200044B204E0401CC0B20E28E6D30024D8F8FE
:10473000000055F8242001280BD07AA168460FF01C
:104740008DF86A460221002002F077FB02F0B3F9EF
:10475000EEE006E1205350414E2043414C00000062
:104760002020BDBAC6C7C1B6C1A4000025356C64FF
:10477000206B67BFC3B8AEBCBCBFE4002020BFB590
:10478000C1A1C1B6C1A4000020C8AEC0CE203ABDB0
:10479000C3C0DB00205A45524F2043414C0000006B
:1047A00020BDBAC6C7C1B6C1A42832290000000086
:1047B00020BFB5C1A1C1B6C1A428322900000000A4
:1047C00020BFB5C1A1C1B6C1A42831290000000095
:1047D00020BDBAC6C7C1B6C1A42831290000000057
:1047E000205A45524F2043414C28322900000000F6
:1047F000205A45524F2043414C28312900000000E7
:10480000205350414E2043414C28312900000000E4
:104810004144433A25376C640000000020C3E2B7EE
:10482000C2B0AA3A25376C6400000000C3E2B7C2E8
:104830002832293A25376C6400000000000000206F
:10484000A0860100B8000020C8000020204C4F4185
:10485000442057454947485428322900574549477D
:104860004854203A2530356C64206B670000000006
:10487000204C4F4144205745494748540000000010
:1048800020BFC3B8B1B9ABB0D420BCB3C1A4000041
:1048900020B9ABB0D4B0AA3A2530356C64206B6730
:1048A0000000000020BFC3B8B1B9ABB0D428322992
:1048B0000000000020B9ABB0D4B0AA203A253035B2
:1048C0006C64206B6700000020C8AEC0CEC5B03A53
:1048D000B4D9C0BD0000000020BFC3B8B1B9ABB0AF
:1048E000D428312900000000204C4F414420574576
:1048F000494748542831290025316400EC00002044
:10490000EC41010853455420434150414349545917
:1049100000000000C3D6B4EBB9ABB0D420BCB3C127
:10492000A4000000204341503A253564206B670005
:10493000FCA20421002002F080FAFEA20621002041
:1049400002F07BFA02F0B3F801F0DDFE00283DD062
:10495000FC480088012816D002281CD0052825D143
:1049600021E0F9A168460EF079FF6A460221002095
:1049700002F063FAF7A20421002002F05EFA02F0CE
:104980009AF8F8A2DAE7641C64B20F2C0EDD0F244B
:10499000FFF7C0F90AE0641E64B2002C06DAFFF7E4
:1049A000B9F9002402E055F824700126D8F8000077
:1049B00055F8242001280FD0AFF2980168460EF078
:1049C0004DFF6A460221002002F037FA002EBBD0CC
:1049D0002AB03846BDE8F081DBA1EFE72DE9F041D0
:1049E000A0B000261822E34919A80DF03FFE0027C9
:1049F00002F061F8DFF88083E048E14CD8F800105D
:104A00000068012904D001280CD0022809D00EE04A
:104A1000012802D0022802D009E0DAA203E060797E
:104A2000FBE76079DBA20021084602F006FA02F0FB
:104A30003EF8607919AD01284FF0000005D0E1681B
:104A400055F820208A420AD00DE0A16855F82020B0
:104A50008A4204D0401CC0B20628F7D307E00628DB
:104A600005D244B204E0401CC0B20628E8D30024BA
:104A7000D8F8000055F82420012822D0C9A16846A2
:104A80000EF0ECFE6A460221002002F0D6F9A5A243
:104A90000421002002F0D1F902F00DF8A5A20621B0
:104AA000002002F0CAF902F002F801F02CFEE0B397
:104AB000A4480088012816D002281CD0052825D13A
:104AC00021E0BBA168460EF0C9FE6A460221002023
:104AD00002F0B3F99FA20421002002F0AEF901F028
:104AE000EAFFA0A2DBE7641C64B2052C0EDD0524FE
:104AF000FFF710F90AE0641E64B2002C06DAFFF733
:104B000009F9002402E055F824700126D8F80000C5
:104B100055F8242001280DD0A2A168460EF09EFE73
:104B20006A460221002002F088F9002EBDD03846E6
:104B300020B04FE79EA1F0E710B58EB001F034FF32
:104B400002F0FDFA8C480068012845D09BA20021A4
:104B5000084602F072F94FF47A7000F034FDFFF766
:104B60003DFF874CA060FFF7A3FD0A222261E062AF
:104B700096A168460EF072FE68460DF0D7F8A1685F
:104B8000E06AB0FBF1F298A1684662620EF066FE40
:104B900068460DF0CBF8626A20694243AFF65C01CB
:104BA0006846A2620EF05AFE68460DF0BFF800207B
:104BB000FFF7BDFA6061FFF75CFC206301F077FF4F
:104BC0000120FFF7B4FAE061FFF7C0F9FFF708F939
:104BD00001F0BCF90EB010BD88A2B8E72DE9F0478E
:104BE000002488B0264602F0AAFA6348006801282B
:104BF0005CD0AFF608220021084602F01EF901F051
:104C00005AFFAFF608220621002002F016F901F043
:104C10004EFF00257D4FFEF751FB0DF03BFF0DF0E1
:104C20004FFF6D1CEDB23860642DF4D3544DA8696C
:104C300028640DF02FFFA96C0DF0CCFD0DF040FFA6
:104C4000A863AFF6342168463A680EF007FE68465E
:104C50000DF06CF8AFF6382168462A6C0EF0FEFDB8
:104C600068460DF063F8AFF638216846AA6B0EF07F
:104C7000F5FD68460DF05AF8A86C0DF04EFF02469F
:104C80000B4663A168460EF0E9FD68460DF04EF84C
:104C9000DFF8B090B846DFF88CA101F034FDF8B130
:104CA000B9F800004F4601280BD013E0AFF65822A8
:104CB0000021084602F0C1F801F0FDFEAFF65822CF
:104CC000A1E7286C0DF0E6FEA96C0DF083FD0DF058
:104CD000F7FEA8633888022803D0388805280AD050
:104CE0000CE0A8690DF0D6FEA96C0DF073FD0DF077
:104CF000E7FEA86302E001246FF06406FEF7DEFA27
:104D0000C8F800000DF0BDFEA96C0DF063FD0DF0BC
:104D1000D7FECAF80000A96B401A296900EB5100C0
:104D200082E000002055502D444F574E3A53454CD9
:104D30004543540020454E5445523A204E45585460
:104D400000000000EC00002020B0AA3A25356420C5
:104D50006B670000C0A72CBEC6B7A1C5B03A20BC87
:104D6000B1C5C30020C8AEC0CEC5B03A2020B4D96A
:104D7000C0BD0000D4410108C8000020B8000020D8
:104D80000000002020C7D1B4ABC0C7B0AA20BCB37C
:104D9000C1A40000202044495649494F4E205345A4
:104DA00054200000204449563A253264206B6700A5
:104DB00020B0AA3A253264206B67000020202043EF
:104DC000414C20204D4F444520200000765F65690E
:104DD0005F6D756C7469706C795F666163746F7216
:104DE000203A202564000000765F655F7265736F6E
:104DF0006C7574696F6E203A202564002020B9AB71
:104E0000B0D4C1B6C1A42020000000001439002095
:104E1000676E66466163746F725F32203A20256662
:104E20000000000010390020B0FBF1F2E868FFA19B
:104E3000424368460EF012FD6A460221002001F04E
:104E4000FCFF002C3FF429AF304608B0BDE8F087E6
:104E50002DE9F04788B002F072F9F74C206B0DF0A5
:104E600019FE0546606B0DF015FE29460DF0E8FCB5
:104E70008046D4E90610401A2062AFF6E8300CF004
:104E800055FFAFF6E4316846A2690EF0E7FC6846CC
:104E90000CF04CFFAFF6EC316846E2690EF0DEFC38
:104EA00068460CF043FFAFF6F0316846226A0EF018
:104EB000D5FC68460CF03AFF40460DF02EFE8946C0
:104EC000064632464B46AFF6044168460EF0C6FC35
:104ED00068460CF02BFFA06A0DF0DCFD41460DF09A
:104EE000AFFC0DF006FE05460246AFF61C416846D3
:104EF0000EF0B4FC68460CF019FFA0690DF0CAFD75
:104F00000746206A0DF0C6FD41460DF063FC3946A8
:104F10000DF008FC0DF0EDFD0246AFF63C41684691
:104F20000EF09CFC68460CF001FF4146C3480DF0B2
:104F300087FC82460DF0F1FD02460B46AFF64C4170
:104F400068460EF08BFC68460CF0F0FEBC4AAFF6EB
:104F50004C4168460EF082FC68460CF0E7FE206A81
:104F60006FF0C107A84203D2AFF65842012109E011
:104F70000DF090FD014650460DF0FEFD07D2AFF654
:104F800054420221002001F058FF38465DE7AFF699
:104F9000D8416846226A0EF061FC68460CF0C6FEF5
:104FA000AFF660416846A26A0EF058FC68460CF005
:104FB000BDFE32464B46AFF6F44168460EF04EFC5D
:104FC00068460CF0B3FE206A0DF064FD41460DF01A
:104FD00001FC0546A06A0DF05DFD29460DF030FC90
:104FE000A0640DF09AFD02460B46AFF2DC11684654
:104FF0000EF034FC68460CF099FEA0690DF04AFDF5
:10500000A16C0DF0E7FB0DF05BFDE0638DA20221CA
:10501000002001F012FF4FF4FA64204600F0D3FAAA
:10502000204600F0D0FA6FF064000EE710B58EB0A5
:1050300002F085F8002187A2084601F0FEFE4FF439
:105040007A7000F0C0FA884909200860FFF7C6FCB2
:10505000794CE060FFF72CFB0A22AFF2902122612D
:10506000606368460EF0FAFB68460CF05FFEE1688C
:10507000606BB0FBF1F2AFF29021684662620EF015
:10508000EDFB68460CF052FE626A20694243AFF6BF
:105090004C516846A2620EF0E1FB68460CF046FEF9
:1050A0000020FFF744F8A061FFF7E3F92063012037
:1050B000FFF73DF8E061FFF7CBFEFFF78FFD00F053
:1050C00045FF87E52DE9FE4FDFF8A0B1DFF8A0919D
:1050D000684E594C804601254FF0000A664F40212A
:1050E00038460CF00FFE2D2138460CF00BFE2179CE
:1050F000384630310CF006FE522138460CF002FEE4
:105100000D2138460CF0FEFD0A2138460CF0FAFD60
:105110002079401CC0B22071042800D92571C82014
:1051200000F051FA9BF8001000297DD053488BF80D
:1051300000A05746C0F800A099F801004946312860
:1051400006D0322828D033284AD0342823D199E0F9
:1051500088784B4A30385043CA7840F271235A431A
:1051600000EB0212087900EB4003C3EBC01002EB26
:10517000C002487900EBC00303EB001002EB800291
:10518000887999F8071000EB800002EB4000084492
:105190003044E064257098E08878394A30385043CC
:1051A000CA7840F271235A4300EB0212087900EBEF
:1051B0004003C3EBC01002EBC002487900EBC00310
:1051C00003EB001002EB8002887999F8071000EBDE
:1051D000800002EB4000084430442065657074E0B4
:1051E0008878274A30385043CA7840F271235A43AE
:1051F00000EB0212087900EB4003C3EBC01002EB96
:10520000C002487900EBC00303EB001002EB800200
:10521000887999F8071000EB800002EB4000084401
:1052200030446065A57050E07BE0000053494C4F6E
:105230005F323A25376C6400000000200024744B74
:105240000024F4002020535543434553532020208D
:10525000202020002020202043414C20204D4F447E
:105260004520202000000000C0380020F237002038
:1052700092930020B0DCF7FF004400401838002073
:10528000A08601008878474A30385043CA7840F2F7
:1052900071235A4300EB0212087900EB4003C3EB81
:1052A000C01002EBC002487900EBC00303EB001012
:1052B00002EB8002887999F8071000EB800002EB7E
:1052C000400008443044A065E570D4E9132C636DB8
:1052D00002EB0C00C118A06DB8F1000F0144E165AC
:1052E00012D0CDF800C0CDE9013013460A462EA1F8
:1052F00039480EF0B3FAD4E91501CDE90001D4E93B
:10530000132336A1344804E0CDE90030634633A1CD
:1053100031480EF0A3FA27706770A770E7700CF0A1
:105320003CFF01F089F900283FF4D8AE31480088ED
:1053300014287FF4D3AEE06DBDE8FE8F2DE9F04177
:105340002D4C00252E462DA12348226B0EF086FA07
:10535000246B314FDFF89C8001F06EF9D0B1B8F8C2
:105360000000385C0C2810D2DFE800F006060606C4
:105370000606060606060C0E04EB8401012600EB69
:10538000410402E0002400E00125224623A1124846
:105390000EF064FA002DDFD0002E00D02046BDE8CC
:1053A000F0810000A08601005350414E2053554D1E
:1053B0003D25366C752C20313D25366C752C203200
:1053C0003D25366C752C20333D25366C752C2034EC
:1053D0003D25366C750000009C3F00202825366C6A
:1053E000752C25366C752C25366C752C25366C7510
:1053F00029000000EA0000200000002034202D20B9
:1054000053657474696E675F576569676874203D9A
:105410002025366C75200000F400002034202D205B
:1054200053657474696E745F576569676874203D6D
:105430002025366C7520000010B54FF480342046CE
:105440000DF0FCFF0EF056F86349012808701CD1DE
:1054500000200DF0E9FF00200EF01AF8A0110EF068
:105460000DF84FF4E01120460EF022F801200EF066
:1054700019F839200DF0B8FF0028FAD002200EF0FC
:105480002FF80DF0C9FF0828FBD1012104200DF0F1
:1054900049FF012108200DF045FF012110200DF0EA
:1054A00041FF012120200DF03DFF012140200DF0A2
:1054B00039FF012180200DF035FF012108020DF098
:1054C00031FF012108460DF02DFF012108460DF0A6
:1054D00011FF012102200DF00DFF012148030DF005
:1054E00021FF012188030DF01DFF012148040DF06B
:1054F00001FF012188040DF0FDFE0121C8040DF01B
:10550000F9FE012103200DF0E9FE01214FF40240D4
:105510000DF008FF012148050DF0ECFE0121BDE86A
:10552000104048070DF0E6BE08B5C020ADF80000F9
:1055300003208DF802001C208DF8030069462748DF
:105540000DF0DCFD08BD38B54FF440514FF0006060
:105550000DF0B4FE4FF4C0600DF0A6FE14208DF8DF
:10556000000000248DF801408DF8024001258DF8DF
:10557000035068460DF05EFE03208DF800008DF8A4
:1055800001408DF802408DF8035068460DF052FE40
:1055900038BD41061248826942F001028261114819
:1055A000426822F0E062426042680A43426070470B
:1055B00002E00A21491EFDD2401EFAD270474FF484
:1055C0007A714843F4E742F2107302E01946491E2B
:1055D000FDD2401EFAD27047A8000020000C014006
:1055E0000010024000000140024611B9012070473E
:1055F0005043491E11F0FF01FAD170471FB500203A
:10560000ADF804004BF6FF70ADF80600A020ADF831
:1056100008004FF48060ADF80A000001ADF80C00FE
:10562000FD48FE4C0090694620460CF0E9FD012142
:1056300020460CF04BFE1FBD10B5FFF7DFFFF84909
:10564000A220088010BD38B50020ADF80000F34C52
:10565000F34D012120460CF057FE142120460CF09A
:10566000A2FEADF800002978002220460CF093FE3F
:10567000142120460CF097FE8007EAD5E949204620
:105680000CF008FF2046BDE8384001210CF046BE72
:105690002DE9F041E14E8846054614460121304689
:1056A0000CF032FEE04F304639460CF0DBFE0028AD
:1056B000F9D0DB480022017830460CF06CFEDB4F5D
:1056C000304639460CF0CEFE0028F9D0414630462F
:1056D0000CF05CFED54FBF1C394630460CF0C2FEC4
:1056E0000028F9D00AE0297830460CF04FFE6D1CF6
:1056F000394630460CF0B6FE0028F9D02000A4F15F
:105700000104E4B2EFD13046BDE8F04101210CF0D4
:1057100005BE2DE9F041054611F00F000C4602F0E0
:105720000F01C0F11007C2F30716884611D08EB1E1
:10573000D01BC0F3071600F00F088FB33A4621467E
:105740002846FFF7A5FFFFF77EFFE019C4B23D44EE
:1057500026E05EB90A4612E0102221462846FFF7ED
:1057600097FFFFF770FF1034E4B210353000A6F158
:105770000106F6B2F0D15FEA080017D002462146D2
:105780002846FFF785FFBDE8F0415CE7102221467F
:105790002846FFF77DFFFFF756FF1034E4B21035BF
:1057A0003000A6F10106F6B2F0D1E4E7BDE8F081E1
:1057B0002DE9F041994E0F46054614460121304629
:1057C0000CF0A2FDDFF86082304641460CF04AFE44
:1057D0000028F9D092480022017830460CF0DBFD19
:1057E000DFF84882304641460CF03CFE0028F9D0F4
:1057F000F9B230460CF0CAFD8C4FBF1C394630461A
:105800000CF030FE0028F9D00AE0297830460CF080
:10581000BDFDAD1C394630460CF024FE0028F9D001
:105820002000A4F10104A4B2EFD13046BDE8F0415C
:1058300001210CF073BD2DE9F041054611F00F0078
:105840000C4602F00F01C0F11007C2F3071688469C
:1058500012D096B1D01BC0F3071600F00F0897B313
:105860003A4621462846FFF7A3FFFFF7ECFEE01972
:1058700084B205EB470526E05EB90A4612E0102225
:1058800021462846FFF794FFFFF7DDFE1034A4B24F
:1058900020353000A6F10106F6B2F0D15FEA08002B
:1058A00084D0024621462846FFF782FFBDE8F0413A
:1058B000C9E6102221462846FFF77AFFFFF7C3FE0C
:1058C0001034A4B220353000A6F10106F6B2F0D1B2
:1058D000E4E76BE72DE9F041504C0F460546012106
:1058E00020460CF011FD504E204631460CF0BAFD1A
:1058F0000028F9D04A480022017820460CF04BFDE0
:105900004A4E204631460CF0ADFD0028F9D039460C
:1059100020460CF03BFD2646444CA41C2146304654
:105920000CF0A0FD0028F9D0297830460CF02EFDAF
:10593000214630460CF096FD0028F9D03046BDE8EF
:10594000F04101210CF0EABC2DE9F047334F8A46C3
:1059500005461446012138460CF0D6FC324E384636
:1059600031460CF07FFD0028F9D0DFF8B48000222A
:10597000384698F800100CF00EFDDFF8B09038466D
:1059800049460CF06FFD0028F9D0012138460CF093
:105990009DFC514638460CF0F9FCDFF8909009F177
:1059A0000209494638460CF05DFD0028F9D0012176
:1059B00038460CF0A9FC314638460CF053FD00285F
:1059C000F9D098F8001001223E4638460CF0E3FC6E
:1059D000154F7F1C394630460CF044FD0028F9D0A5
:1059E000114F3F37BCB1012C07D1002130460CF0DC
:1059F0009FFC012130460CF091FC394630460CF0FA
:105A000031FD0028EED030460CF0C2FC641E05F8D3
:105A1000010BA4B2E6E70BE0A086010000540040B1
:105A2000AC00002000040010010003008200070009
:105A30003046BDE8F04701210CF07ABCF8B50C46C1
:105A400006464FF48075002128460DF047FC0120E2
:105A5000FFF7B9FDF1B204226846FFF775FF012C8C
:105A60000BD0022C0CD0009C0120FFF7ACFD0121D3
:105A700028460DF033FC2046F8BD9DF80040F3E7C2
:105A8000BDF80040F0E72DE9F04104218420FFF744
:105A9000D5FFF849086004211820FFF7CFFFF64929
:105AA000086004211020FFF7C9FFF44F042138607B
:105AB0000C20FFF7C3FFF249086004218820FFF79C
:105AC000BDFF054609210A20FFF78EFD0CF0D9FF26
:105AD000044628460CF0DEFF21460CF0B1FEE949F1
:105AE00008600421B020FFF7A9FFE74908600421FE
:105AF000C020FFF7A3FFE54908600421BC20FFF7A1
:105B00009DFFE34908600421B820FFF797FFE149B2
:105B100008600421AC20FFF791FF054609210A2007
:105B2000FFF762FD0CF0ADFF044628460CF0B2FF13
:105B300021460CF085FED849086004211C20FFF79F
:105B40007DFFD64901250228086000D30D6004219D
:105B50002020FFF773FFD2494FF014080860401E61
:105B6000322801D3C1F8008004212C20FFF766FF02
:105B7000CC49B0F5FA7F086001D9322008600421D1
:105B8000F020FFF75BFFC84EF060401E022800D3F4
:105B9000F56004217C20FFF751FFC4490024002850
:105BA000086002DB3A68824200D20C600421802047
:105BB000FFF744FFBE490028086002DB3A688242D2
:105BC00000D20C6004218C20FFF738FF7060A0F534
:105BD000D850583841F2717142F21077884200D3A0
:105BE000776004217020FFF729FF41F65831B0603B
:105BF000884204DB706843F2C821884200DDB76048
:105C00000421A420FFF71AFFAA490860401E3C287F
:105C100001D33C2008600421F820FFF70FFF30611A
:105C20000A38B0F5F57F01D9C6F810800421FC20B0
:105C3000FFF704FF7061643842F2AD61884202D31D
:105C400041F28830706104218801FFF7F7FEB061EE
:105C5000401E0A27322800D3B76104214FF4827016
:105C6000FFF7ECFEF061022800D3F5610421EC207F
:105C7000FFF7E4FE3062022800D3356204213820A9
:105C8000FFF7DCFE8C496428086000D30F60042114
:105C90003C20FFF7D3FE89494FF47A7840450860ED
:105CA00000D90C6004214020FFF7C8FE8449854AD2
:105CB0000860904200D90C6004219020FFF7BEFEDE
:105CC00081490228086000D30D6004219420FFF769
:105CD000B5FE7E4D7E492860884200D32C600421A9
:105CE0009820FFF7ABFE7B494045086000D30C606D
:105CF00004219C20FFF7A2FE77496428086000D3A6
:105D00000C600421A020FFF799FE74490228086066
:105D100000D30C6004212820FFF790FE70620B284E
:105D200000D3776204219420FFF788FE28600A20C0
:105D3000FFF749FC6A49286808446A49884201D348
:105D40006948286004214420FFF778FE674908600D
:105D50000A20FFF738FC04214820FFF76FFE644C4F
:105D600020600A20FFF72FFC04214C20FFF766FE7D
:105D700060600A20FFF727FC04215020FFF75EFE39
:105D8000A0600A20FFF71FFC04215420FFF756FEF5
:105D9000E0600A20FFF717FC04215820FFF74EFEB1
:105DA00020610A20FFF70FFC04215C20FFF746FE6C
:105DB00060610A20FFF707FC04216020FFF73EFE28
:105DC000A0610A20FFF7FFFB04216420FFF736FEE5
:105DD000484908600A20FFF7F6FB0421E820FFF796
:105DE0002DFE454908600A20FFF7EDFB0421C8207D
:105DF000FFF724FE414C20600A20FFF7E4FB04215A
:105E0000CC20FFF71BFE60600A20FFF7DCFB0421BB
:105E1000D020FFF713FEA0600A20FFF7D4FB042177
:105E2000D420FFF70BFEE0600A20FFF7CCFB042133
:105E3000D820FFF703FE20610A20FFF7C4FB0421EE
:105E4000DC20FFF7FBFD60610A20FFF7BCFB0421AB
:105E5000E020FFF7F3FDA0610A20FFF7B4FB042167
:105E6000E420FFF7EBFD26490860BDE8F0410A2079
:105E7000FFF7A9BB14000020200000202C00002008
:105E800008000020440000201800002060000020CE
:105E9000340000200C00002048000020BC38002006
:105EA000C0380020C4380020AC000020D4380020C6
:105EB000D8380020DC380020C8380020CC3800203A
:105EC000D038002080380100F8380020FC3800204D
:105ED00080969800003900200439002008390020FD
:105EE000600FE6FF21D61300E0861B00E438002097
:105EF00008AD0020E8380020F038002024AD002054
:105F0000F43800207047F8B50C4607464FF4807609
:105F10001546002130460DF0E1F9012D10D0022D7B
:105F200011D00094F9B204226846FFF7F2FB012079
:105F3000FFF749FB012130460DF0D0F92046F8BDAE
:105F40008DF80040EEE7ADF80040EBE738B50021F2
:105F50004FF480700DF0C2F9C0480422842100681B
:105F600000906846FFF7D5FB0A20FFF72CFBBC48E2
:105F700004220C21006800906846FFF7CAFB0A2043
:105F8000FFF721FBB7480422102100680090684603
:105F9000FFF7BFFB0A20FFF716FB09210A20FFF7D6
:105FA00023FB0CF06EFDB04909680CF013FC0CF0FB
:105FB000A0FD0090042288216846FFF7AAFB0A2072
:105FC000FFF701FBA94804221821006800906846E9
:105FD000FFF79FFB0A20FFF7F6FAA5480422B0213D
:105FE000006800906846FFF794FB0A20FFF7EBFA81
:105FF000A0480422B821006800906846FFF789FB9A
:106000000A20FFF7E0FA9C480422BC2100680090B7
:106010006846FFF77EFB0A20FFF7D5FA09210A2020
:10602000FFF7E2FA0CF02DFD944909680CF0D2FB61
:106030000CF05FFD00900422AC216846FFF769FB7D
:106040000A20FFF7C0FA8E480422C02100680090A1
:106050006846FFF75EFB0A20FFF7B5FA8948002182
:106060000078012807D0884C042280202160FFF7A7
:106070004AFF206038BD854C04227C202160F6E771
:106080007B4808B5006800900422B0216846FFF7FD
:1060900040FB0A20FFF797FA76480422B8210068EF
:1060A00000906846FFF735FB0A20FFF78CFA72482C
:1060B0000422BC21006800906846FFF72AFB0A20F2
:1060C000FFF781FA09210A20FFF78EFA0CF0D9FCBC
:1060D0006A4909680CF07EFB0CF00BFD009004226D
:1060E000AC216846FFF715FB0A20FFF76CFA6448FD
:1060F0000422C021006800906846FFF70AFB0A20CE
:10610000FFF761FA08BD10B5614C042264202168D4
:10611000FFF7F9FE20600A20FFF755FA5D4C0422D4
:1061200044202168FFF7EFFE20600A20FFF74BFABA
:10613000594C216804224820FFF7E5FE20601E200C
:10614000FFF741FA616804224C20FFF7DCFE606033
:106150001E20FFF738FAA16804225020FFF7D3FE73
:10616000A0601E20FFF72FFAE16804225420FFF7F9
:10617000CAFEE0601E20FFF726FA2169042258209B
:10618000FFF7C1FE20611E20FFF71DFA616904229E
:106190005C20FFF7B8FE60611E20FFF714FAA169CA
:1061A00004226020FFF7AFFEA0611E20FFF70BFA6C
:1061B0003A4C0422E4202168FFF7A5FE20600A2063
:1061C000FFF701FA364C0422E8202168FFF79BFE16
:1061D00020600A20FFF7F7F9324C21680422C8201A
:1061E000FFF791FE20601E20FFF7EDF961680422A1
:1061F000CC20FFF788FE60601E20FFF7E4F9A1685D
:106200000422D020FFF77FFEA0601E20FFF7DBF9FD
:10621000E1680422D420FFF776FEE0601E20FFF73D
:10622000D2F921690422D820FFF76DFE20611E20DB
:10623000FFF7C9F961690422DC20FFF764FE6061A1
:106240001E20FFF7C0F9A1690422E020FFF75BFEE2
:10625000A061BDE810401E20FFF7B5B91400002072
:10626000080000202C000020440000202000002016
:10627000180000200C0000203400002048000020FE
:106280006000002005000020D8380020D43800200D
:10629000E8380020E438002008AD0020F438002061
:1062A000F038002024AD00202DE9F84F4FF6BF1044
:1062B000ADF8000010258DF8035003248DF802403E
:1062C0006946FE480CF01AFF2801ADF800008DF871
:1062D00003508DF802406946F9480CF00FFFC020CA
:1062E000ADF800008DF802401C20DFF8D8B38DF81F
:1062F0000300694658460CF001FF42F20400ADF875
:106300000000DFF8C4A304268DF8036069465046F8
:106310000CF0F4FEADF800408DF803508DF802400B
:10632000694650460CF0EAFE0227ADF800708DF881
:1063300003508DF80240694658460CF0DFFE4FF4DA
:10634000F060ADF800008DF803508DF8024069460A
:10635000DE480CF0D3FE4FF47870ADF80000482012
:106360008DF803006946DA480CF0C8FE2802ADF843
:1063700000008DF803508DF80240694650460CF03D
:10638000BDFE4FF00808ADF80080DFF848938DF8A7
:1063900003508DF80240694648460CF0AFFEADF858
:1063A00000608DF803508DF80240694648460CF0B5
:1063B000A5FEADF800708DF803508DF802406946D7
:1063C00048460CF09BFE0120ADF800008DF80360FC
:1063D000694648460CF092FE4FF46070ADF800003C
:1063E0008DF80360694650460CF088FEADF80080D9
:1063F0008DF80360694658460CF080FE4FF46050FB
:10640000ADF800008DF803508DF80240694648460B
:106410000CF074FEADF800508DF803508DF802407A
:10642000694658460CF06AFE0121AB480CF0B6FEF6
:106430000121AA480CF0B2FEBDE8F88F08B54FF470
:106440008070ADF8000010208DF8030003208DF857
:10645000020069469B480CF051FE08BD08B54FF498
:106460008070ADF8000048208DF8030003208DF8FF
:106470000200694693480CF041FE08BD10B58F4CF0
:106480004FF4806120460CF0C1FEE11420460CF070
:10649000BDFEA11420460CF0B9FE611420460CF09C
:1064A000B5FE2046BDE810404FF480410CF0B0BE70
:1064B00010B5824C4FF4806120460CF0A7FEE11429
:1064C00020460CF0A3FEA11420460CF09FFE6114A0
:1064D00020460CF09DFE2046BDE810404FF4804160
:1064E0000CF094BE10B5754C4FF4806120460CF052
:1064F0008DFEE11420460CF089FEA11420460CF01C
:1065000087FE611420460CF081FE2046BDE8104055
:106510004FF480410CF07ABE10B5684C4FF48061A6
:1065200020460CF073FEE11420460CF071FEA1141D
:1065300020460CF06BFE611420460CF067FE2046EE
:10654000BDE810404FF480410CF060BE10B55B4CCC
:106550004FF4806120460CF05BFEE11420460CF005
:1065600055FEA11420460CF051FE611420460CF09B
:106570004DFE2046BDE810404FF480410CF046BE71
:1065800070B5FFF7E3FF514D28460CF02BFE1F249A
:1065900014EA901101D0012028E0FFF7BDFF284642
:1065A0000CF020FE14EA901101D002201EE0FFF74B
:1065B00099FF28460CF016FE14EA901101D0032032
:1065C00014E0FFF775FF28460CF00CFE14EA90115A
:1065D00001D004200AE0FFF751FF28460CF002FE2C
:1065E00014EA901101D0102000E0002000231024B4
:1065F00020253B4A102918D008DC01290DD002299A
:106600000DD004290DD0082910D10CE0202904D088
:10661000402904D0802909D103E0D38007E0D48049
:1066200005E0D58003E0302100E04021D180D18811
:10663000084480B2D08070BD10B5FFF7A1FF284993
:10664000C888CA68824201D1002010BDC8600028F5
:10665000FBD0FDF750FB9620FEF7B5FFFDF734FBAE
:10666000012010BD10B5FFF78BFF1D48C088002822
:1066700000D0012010BD3EB5194C002525701448EE
:106680000CF0B0FD00F4F870208120894FF6FF7106
:1066900001EA40002081228912A168460DF0DEF84F
:1066A00021890120B1F5787F1ED060706178F1B149
:1066B00021896289914219D1257018E0002001409A
:1066C00000080140000C014000100140001C014086
:1066D00000180140001401400004300000023000A6
:1066E000E4000020202558006570DFE72070208935
:1066F00060813EBD1B480021417081700181418154
:1067000003218180704710B5FFF7B5FF1548417828
:10671000B1B10178A1B10189B1F5387F12D00189F9
:10672000B1F5687F10D00189B1F5F07F0ED00189F5
:10673000B1F5587F0CD00189B1F5707F0AD00BE01C
:10674000002010BD012106E0022104E0052102E045
:10675000032100E0042101810A20FDF7D1FA012084
:1067600010BD0000E4000020C0F30721C2B2A0F574
:106770003040A13841F65D0398420FD8B039C1EBE3
:10678000011000EB411002EB4000FF4AA13812F863
:10679000101002EB4000407840EA012070472DE9DC
:1067A000F041FA4D0F4604464FF400763146284634
:1067B0000CF02CFD394628460CF02CFDEF147F2CF4
:1067C0003946284626D00CF023FD4FF4806421463C
:1067D00028460CF01BFD0120FEF7EAFE3146284654
:1067E0000CF016FD0120FEF7E3FE314628460CF0C2
:1067F0000DFD0120FEF7DCFE214628460CF008FDC9
:10680000394628460CF002FD31462846BDE8F041E5
:106810000CF0FEBC0CF0FAFCD7E76420FEF7C8BE13
:10682000DB4910B501200870D84CC10220460CF09D
:10683000EDFC0320FEF7BCFEA1142046BDE810408D
:106840000CF0E6BCD24910B500200870CF4C4FF4D4
:10685000805120460CF0DAFC0320FEF7A9FEE1147B
:106860002046BDE810400CF0D3BC70B54FF6FF7168
:1068700001EA4001C64E01F4C07400F03F00044339
:10688000307810B3FFF7CCFFC04D4FF400412846DD
:106890000CF0BCFC4FF4804128460CF0B7FC30787B
:1068A000B0B144F4805128460CF0B4FC4FF40054CD
:1068B000214628460CF0ACFC0120FEF779FE21466B
:1068C0002846BDE870400CF0A1BCFFF7BBFFDBE73A
:1068D00044F40061E7E7AF4910B508700878B830B4
:1068E000FFF7C3FFBDE810406420FEF761BE00F073
:1068F0001F01A94810B501700278A5490B2A08D2DA
:1069000000220A700078402100EB400001EB4000BB
:1069100005E001220A70007800EB40004000FFF71C
:10692000A4FFBDE810406420FEF742BE10B50C463F
:10693000FFF7DDFF2046BDE81040CCE770B54FF60D
:10694000FF7101EA4001924E01F4C07400F03F0073
:106950000443307810B3FFF763FF8C4D4FF40041D0
:1069600028460CF055FC4FF4804128460CF04EFCB4
:106970003078B0B144F4104128460CF04BFC4FF491
:106980000054214628460CF043FC0120FEF710FE7F
:1069900021462846BDE870400CF038BCFFF752FF96
:1069A000DBE744F40841E7E72DE9F0470025784F9D
:1069B0002E464FF001083E70FFF744FF4020FFF7DE
:1069C00054FF05F1B8008146FFF74FFF0024002077
:1069D000FFF7B4FF0320FEF7EBFD641CE4B2402C8C
:1069E000F5D387F80080FFF71BFF4020FFF73DFF3E
:1069F0004846FFF73AFF00240020FFF79FFF0320DF
:106A0000FEF7D6FD641CE4B2402CF5D36D1CEDB24C
:106A1000082DD0D33E70604806705E490E7009782C
:106A20000078FFF783FF5D4806805D4806805D487B
:106A300006805D4806805D4806805D4806805D48AA
:106A400006805D4806805D4806805D4806805D489A
:106A500006805D480680BDE8F0870F217F209EE616
:106A60000C217F209BE670B50D00044606D0012D59
:106A700007D0022D10D0032D09D110E004F18000C1
:106A800001E004F1C000C1B27F20FFF788FE4F484B
:106A900004604F48056070BD04F19400F3E704F111
:106AA000D400F0E710B50A20FEF782FD10BD494979
:106AB0000020087070474749FF200870704735492B
:106AC00010B508700878B830FFF7CFFEBDE8104069
:106AD0006420FEF76DBD10B52F4C20702078402843
:106AE00004D2FFF7AFFE2078403002E0FFF798FEB7
:106AF0002078FFF7BAFEBDE810406420FEF758BDCD
:106B000010B50C46FFF7E7FF2046BDE81040D6E77A
:106B10001F4910B5012008701E480078FFF7DBFE02
:106B20004020FFF7A2FEBDE810406420FEF740BD04
:106B300070B51546FFF7FAFE00242846FFF7FEFE63
:106B4000641CE4B2062CF8D370BD70B50D46044643
:106B5000402802D2FFF776FE03E0FFF761FE403CDB
:106B6000E4B2B82000EBD500C6B23046FFF77DFE98
:106B700004F140000446FFF778FE3046FFF775FE4B
:106B80002046FFF772FE27E02C420108002001405A
:106B9000F2360020F1360020F0360020CE360020FC
:106BA000D0360020D2360020D4360020D636002041
:106BB000D8360020DA360020DC360020DE36002011
:106BC000E0360020E2360020E4360020E8360020DF
:106BD000EC360020CC36002005F007010120BDE88E
:106BE00070408840384380B2A8E670B50D46044630
:106BF000402802D2FFF726FE03E0FFF711FE403CDB
:106C0000E4B2B82000EBD500C6B23046FFF72DFE47
:106C100004F140000446FFF728FE3046FFF725FE4A
:106C20002046FFF722FE05F00701BDE87040012075
:106C3000884027EA000081E62DE9F041FF49FD4F39
:106C4000FD4DDFF8FC83002401EB00163888C1B24B
:106C50002888C0B2FFF754FF305D98F80010484014
:106C6000FFF76CFE3888401CC1B22888C0B2FFF71D
:106C700047FF301998F80010007A4840FFF75EFE91
:106C80002888401C2880641CE4B2082CDED3ED491F
:106C90000888401C0880BDE8F0812DE9F047DFF846
:106CA000A4930646B9F80000E34D4FF6FF7101EAE0
:106CB000C0002880E4480088DE4F3880DFF88083F9
:106CC00000243888C1B22888C0B2FFF719FF305DB0
:106CD00098F800104840FFF731FE3888401CC1B2D8
:106CE0002888C0B2FFF70CFF301998F80010007C1C
:106CF0004840FFF723FE2888401C2880641C102C85
:106D0000DFDBB9F80010491CA9F80010B9F8001031
:106D1000491CA9F800109EE6F0B5CC49C0F38422C6
:106D200000258B5C1531C0F3441200F01F00895C14
:106D3000C64A89B03332175C8FB302F134000126A2
:106D4000405C012B38D0102B36D00322BF4C7D3451
:106D5000655C00EB800003EB8004DFF8F4E20020C8
:106D60006B460EEB441C1CF800401C54401CC0B287
:106D70001F28F8D902EB420000EBC20001EB4001F2
:106D8000A03100200EEB41111A5C0C5C22431A5416
:106D9000401CC0B21F28F7D9012E0FD01EE0FFE71C
:106DA000AA4800265130012B405C03D0102B01D0A3
:106DB0000122CEE70022CCE70222C7E7C5EBC500DF
:106DC00007EB8001F83100200EEB4112195C145CD6
:106DD00021431954401CC0B21F28F7D91846FFF7A9
:106DE0005CFF09B0F0BD70B505460C4608460BF0D7
:106DF0006DFCC0B2401E00EBD0700721A1EB60001B
:106E00009049C0B2088090490D808B49C00008802D
:106E1000884805800DE0641C802802D2FFF70CFF33
:106E200007E014F8011B01EB0020FFF79DFCFFF7C2
:106E300073FF20780028EED170BD10B51446814A4A
:106E40001080814A11807C4AC000108079480180FE
:106E50000DE0641C802802D2FFF7EEFE07E014F874
:106E6000011B01EB0020FFF77FFCFFF755FF2078A7
:106E70000028EED110BD0020401C0228FCD3704732
:106E80003F20F2E470B5734D4FF4807421462846DC
:106E90000CF0BEF90A20FEF796FB214628460CF0BE
:106EA000B5F90A20FEF78FFB214628460CF0B0F911
:106EB000634800240470684D2C70FFF7C3FCC020A9
:106EC000FFF7D3FC1420FEF77EFBB820FFF7CDFCC4
:106ED0001420FEF778FB4020FFF7C7FC01262E7038
:106EE000FFF79EFCC020FFF7C0FC1420FEF76BFBF1
:106EF000B820FFF7BAFC1420FEF765FB4020FFF72F
:106F0000B4FCFFF751FD2E70FFF78AFC3F20FFF71E
:106F1000ACFC2C70FFF796FC3F20FFF7A6FC2C7012
:106F20004E4804704E490C7009780078FFF7E8FD70
:106F300044480480444804804A4804804A48048005
:106F40003D4804803B480480484804804848048009
:106F500048480480484804804848048048480480E1
:106F600070BD70B50C46154606217F20FFF717FC53
:106F70000120FEF728FB9CB1012C1FD0022C2BD046
:106F8000032C0CD1D4217F20FFF709FC0024002022
:106F9000295DFFF704FC641CE4B2142CF7D370BD28
:106FA00080217F20FFF7FBFB00240020295DFFF7F5
:106FB000F6FB641CE4B2142CF7D370BDC0217F2013
:106FC000FFF7EDFB00240020295DFFF7E8FB641CC0
:106FD000E4B2142CF7D370BD94217F20FFF7DFFBC0
:106FE00000240020295DFFF7DAFB641CE4B2142CB6
:106FF000F7D370BD70B50C46154606217F20FFF70C
:10700000CEFB0120FEF7DFFA9CB1012C48D0022C08
:1070100054D0032C0CD1D4217F20FFF7C0FB0024D7
:107020000020295DFFF7BBFB641CE4B2142CF7D3EE
:1070300070BD27E0D8360020D63600203A01002067
:10704000CC360020CE360020D036002088540108EF
:107050003A09002000080140F2360020F0360020F6
:10706000F1360020D2360020D4360020DA36002057
:10707000DC360020DE360020E0360020E23600203C
:10708000E436002080217F20FFF789FB00240020C8
:10709000295DFFF784FB641CE4B2142CF7D3C7E727
:1070A000C0217F20FFF77BFB00240020295DFFF734
:1070B00076FB641CE4B2142CF7D3B9E794217F204B
:1070C000FFF76DFB00240020295DFFF768FB641CBF
:1070D000E4B2142CF7D3ABE770B50446FFF764FCB9
:1070E000224DFF21297022A202210020FFF7A5FED8
:1070F0003CB122A204210020FFF79FFE002028704F
:1071000096E721A2F6E72DE9F041002507462E4635
:10711000FFF786FB4020FFF7A8FB06F1B800FFF75A
:10712000A4FB0024785D6D1CFFF708FC641CE4B22E
:10713000402CF7D3761CF6B2082EE9D3ABE510B598
:10714000002114A20846FFF778FE12A202210020B7
:10715000FFF773FE0FA204210020FFF76EFE062149
:10716000BDE810400BA2002067E60000CC360020EE
:10717000BCF6B0C5C5EBC0CC00000000C3A1BDC0CB
:10718000B4CFB4D900000000BEF8BDC0B4CFB4D9AC
:10719000000000002020202020202020202020206F
:1071A0002020202000000000002804D149488188C8
:1071B00000680CF02DB87047002804D1454881883C
:1071C00000680CF023B8704710B5002811D1414C6D
:1071D00020680CF011F8B4F904100142A18820686D
:1071E00003D0BDE810400CF011B8BDE810400CF021
:1071F0000FB810BD032808D2364A083202EBC0018E
:1072000052F8300089880CF003B87047032808D280
:10721000304A083202EBC00152F8300089880BF086
:10722000F5BF704770B50446032817D2294D0835BD
:1072300055F834000BF0E0FF014605EBC400B0F94F
:1072400004200A42818855F8340003D0BDE870401C
:107250000BF0DCBFBDE870400BF0DABF70BD8021E1
:107260001D480BF0D3BF4FF400711B480BF0CEBF8D
:107270004FF4807118480BF0C9BF4FF48061164875
:107280000BF0C4BF10B5FFF7EAFFFFF7ECFFFFF705
:10729000EFFFBDE81040F0E74FF480610E480BF0BF
:1072A000B7BF4FF480710C480BF0B2BF4FF40071C0
:1072B00009480BF0ADBF802107480BF0A9BF10B5FE
:1072C000FFF7F9FFFFF7F2FFFFF7EBFFBDE8104014
:1072D000E2E700001C550108001C0140FCA00AF078
:1072E00014BE2DE9F04FFF488FB0007801287DD102
:1072F000FD4F0A26FD4D39684FF0000B91FBF6F06B
:107300002A78303A904272D106FB101168783038F2
:1073100081426CD11021F6480BF07AFF3220FEF743
:1073200052F9A878E978000400EB01202979F14AA4
:107330000844811ADFF8C083F04CDFF8C493DFF80B
:10734000C4A390427ED013DCA2F10302A0EB0201A1
:10735000904278D007DCEC49401818D0A0F5554091
:10736000DC385BD17DE001296ED0022956D140E1A5
:1073700003296AD004DC012968D002294ED1FAE140
:10738000B1F5A15F7DD0E148081847D1B9E0E0A090
:107390000AF0CCFC02200AF070FD386890FBF6F091
:1073A00030300AF06AFD386890FBF6F106FB1100F8
:1073B00030300AF062FDA8780AF05FFDE8780AF044
:1073C0005CFD28790AF059FDD8F80010D148012950
:1073D00012D09AF81530D04A0BB1C2F800B09AF822
:1073E000141009B1C0F800B0006801E036E01CE0FC
:1073F00011684218C9A105E09AF814100268002922
:10740000F8D0C8A101A80CF029FA01A80AF057FD8C
:1074100003200AF032FD00200AF02FFD3220FEF793
:10742000D2F81021B2480BF0F1FEFF2028706870EE
:10743000A870E870BD49287168710870487088703C
:10744000C87004E0FCE085E0ABE0BBE11FE108713F
:1074500048718871C871A34981F800B00FB0BDE8C8
:10746000F08FB3A00AF062FC02200AF006FD386833
:1074700090FBF6F030300AF000FD386890FBF6F132
:1074800000E019E006FB110030300AF0F6FCA878A5
:107490000AF0F3FCE8780AF0F0FC28790AF0EDFC39
:1074A000D8F80010A348012904D0A349006809684E
:1074B0004218ADE10268ABE1A0A00AF037FC02205F
:1074C0000AF0DBFC386890FBF6F030300AF0D5FCAF
:1074D000386890FBF6F106FB110030300AF0CDFC65
:1074E000A8780AF0CAFCE8780AF0C7FC28790AF004
:1074F000C4FC0AF121004178009103789AF8202019
:1075000023E08FA00AF012FC02200AF0B6FC3868D3
:1075100090FBF6F030300AF0B0FC386890FBF6F1E2
:1075200006FB110030300AF0A8FCA8780AF0A5FC90
:10753000E8780AF0A2FC28790AF09FFC0AF12400FE
:107540004178009103789AF823207EA101A80CF0DD
:1075500085F95AE77FA00AF0E9FB02200AF08DFCCA
:10756000386890FBF6F030300AF087FC386890FB02
:10757000F6F106FB110030300AF07FFCA8780AF023
:107580007CFCE8780AF079FC28790AF076FCD8F8D7
:107590000000012803D02168D9F8000025E0226806
:1075A00036E16DA00AF0C2FB02200AF066FC3868E2
:1075B00090FBF6F030300AF060FC386890FBF6F192
:1075C00006FB110030300AF058FCA8780AF055FC90
:1075D000E8780AF052FC28790AF04FFCD8F800004D
:1075E000012804D06168D9F804000A1810E1626823
:1075F0000EE15AA00AF09AFB02200AF03EFC38681D
:1076000090FBF6F030300AF038FC386890FBF6F169
:1076100006FB110030300AF030FCA8780AF02DFC8F
:10762000E8780AF02AFC28790AF027FCD8F800004C
:10763000012803D0A168D9F80800D6E7A268E7E0DE
:1076400047A00AF073FB02200AF017FC386890FB91
:10765000F6F030300AF011FC386890FBF6F106FBCA
:10766000110030300AF009FCA8780AF006FCE8782E
:107670000AF003FC28790AF000FCD8F80000012881
:1076800003D0E168D9F80C00AFE7E268C0E035A0AC
:107690000AF04CFB02200AF0F0FB386890FBF6F091
:1076A00030300AF0EAFB386890FBF6F106FB110077
:1076B00030300AF0E2FBA8780AF0DFFBE8780AF045
:1076C000DCFB28790AF0D9FBD8F8000001284BE050
:1076D00043646D615F506F7765725F4F6E28293B21
:1076E00000000000F23700200039002092930020B3
:1076F00000080140342D4400B800002008AD0020EF
:1077000024AD00203C360020ACA8BCFFE7E3EFFF2F
:1077100043575400AC380020B43800202025376C83
:10772000750000002D25376C75000000889300203F
:10773000442D3000E4380020F0380020444154004B
:1077400054494D002532582E253032582E253032DE
:1077500058000000442D3100442D3200442D3300E8
:10776000442D3400442D350003D02169D9F8100090
:107770003BE722694CE0FDA00AF0D8FA02200AF0AB
:107780007CFB386890FBF6F030300AF076FB386806
:1077900090FBF6F106FB110030300AF06EFBA87882
:1077A0000AF06BFBE8780AF068FB28790AF065FBC1
:1077B000D8F80000012803D06169D9F8140014E753
:1077C000626925E0EAA00AF0B1FA02200AF055FB4E
:1077D000386890FBF6F030300AF04FFB386890FBC9
:1077E000F6F106FB110030300AF047FBA8780AF0EA
:1077F00044FBE8780AF041FB28790AF03EFBD8F810
:107800000000012803D0A169D9F81800EDE6A269AB
:10781000D8A1F7E5F0B5D94DD94E99B000242B6821
:10782000D8A1684632680CF019F8FFF788FCDB48ED
:107830000068012819D0DAA202210020FFF7FDFA22
:10784000D9A204210020FFF7F8FA4FF4FA60FDF7FF
:10785000BAFED94FFEF757FF88B1388806280ED2F6
:10786000DFE800F00D0A0A0A0A0FD4A20221002064
:10787000FFF7E3FAD4A2E4E7FCF74CFA49E0002C66
:10788000E8D0FFF75CFC0027FBF718FD7F1CFFB278
:107890000446052FF8D30BF0F4F8CF4909680AF035
:1078A00099FF0BF00DF9CD4FCDA138602B686846DC
:1078B00032680BF0D3FFD04ED04D21463460002407
:1078C0000422B0202C60FEF71EFB30600A20FDF77A
:1078D0007AFE0422B4203968FEF715FB38600A20CE
:1078E000FDF771FE042280202968FEF70CFB28605A
:1078F0000A20FDF768FE2B68B9A1684632680BF0D4
:10790000ADFFBFA204210020FFF797FAC14804751C
:107910004475FFF714FCC04DC04C286801280DD1F8
:10792000FFF7C9F8BEA1C24822680BF097FFC04A12
:1079300006210020FFF781FAFFF7B9F8286802282E
:1079400035D1FFF7B8F8BB480368BB480268BBA154
:10795000B7480BF083FF0021B54A0846FFF76DFAE0
:10796000FFF7A5F8B9A1B24822680BF077FFB04A3B
:1079700002210020FFF761FAB84DB9A1AC482A688E
:107980000BF06CFFAA4A04210020FFF756FAFFF71C
:1079900092F8206829684218B5A1A5480BF05EFF4F
:1079A000A34A06210020FFF748FAFFF780F819B034
:1079B000F0BD7A4810B5026896489F49974C807D83
:1079C000012A04D0B8B1AEA0FFF737FA1DE018B114
:1079D000B0A0FFF732FA09E00A68B1A194480BF0B1
:1079E0003DFF0021924A0846FFF727FAFFF763F8A8
:1079F000AFA122680DE00A68B1A18D480BF02EFFFF
:107A000000218B4A0846FFF718FAFFF754F822685E
:107A1000AFA187480BF022FF854A02210020FFF723
:107A20000CFABDE81040FFF742B8F0B5534D544E84
:107A300099B000242B6853A1684632680BF00EFF02
:107A4000FFF77DFB55480068012819D0A4A2042146
:107A50000020FFF7F2F9A4A204210020FFF7EDF9BE
:107A60004FF4FA60FDF7AFFD534FFEF74CFE88B1BF
:107A7000388806280ED2DFE800F00D0A0A0A0A0F3D
:107A80009DA202210020FFF7D8F99EA2E4E7FCF7AF
:107A900041F947E0002CE8D0FFF751FB0027FBF746
:107AA000EAFB7F1CFFB20446052FF8D30AF0E9FF7A
:107AB000984909680AF08EFE0BF002F8964F48A12B
:107AC00038602B68684632680BF0C8FE2146346087
:107AD0000024042284202C60FEF715FA30600A206E
:107AE000FDF771FD042208203968FEF70CFA3860B2
:107AF0000A20FDF768FD04227C202968FEF703FABE
:107B000028600A20FDF75FFD2B6884A16846326873
:107B10000BF0A4FE3AA204210020FFF78EF93D48A5
:107B200004754475FFF70BFB3B4D3C4C286801285E
:107B30000FD1FFF73EFFFEF7BEFF7EA13C48226853
:107B40000BF08CFE3A4A06210020FFF776F9FEF78B
:107B5000AEFF2868022808D1FEF7ADFF354803685C
:107B60003548026835A13248ECE01BE1442D36006F
:107B7000442D370025386C7500000000D4380020F3
:107B800014000020765F7A65726F313D25366C7582
:107B90002020636F6D703D25366C7500C800002095
:107BA00053494C4F20320000204D414B45205A454F
:107BB000524F283229203F00EC00002020BDCEC0CB
:107BC000CCB7CE203200000020BFB5C1A120BDC778
:107BD000C7E0283229203F00480000203C00002058
:107BE000765F7A65726F323D25366C752020636F43
:107BF0006D703D25366C750018000020D8380020C7
:107C0000205A45524F2046494E49534845442E2E4E
:107C1000000000003C360020B8000020E4380020BE
:107C20004441592D303A2025356C64206B67200083
:107C3000FA870020B4380020AC380020B9ABB0D4AB
:107C40003A25356C642D25356C640000B1DEC0CC5E
:107C5000B7AE313A25356C64206B6700F0380020F0
:107C6000B1DEC0CCB7AE323A25356C64206B67000C
:107C7000BFC020B4C33A2025356C64206B67000078
:107C80004C4F41445F43454C4C204552524F52218A
:107C900000000000B7CEB5E5BCBF20BFA1B7AF0064
:107CA000B9AB20B0D43A2025356C64206B67200036
:107CB000B1DE20C0CC3A2025356C64206B672000F3
:107CC00053494C4F313A2025356C64206B672000B6
:107CD00046454544313A2025356C64206B672000C9
:107CE0002053494C4F203100204D414B45205A45EF
:107CF000524F203F0000000020BDCEC0CCB7CE20A8
:107D000031B9F80020BFB5C1A120BDC7C7E0203FF1
:107D1000000000004400002038000020765F7A65F3
:107D2000726F333D25366C752020636F6D703D2575
:107D3000366C7500BFC020B4C33A2025356C642072
:107D40006B6720000BF08AFD0021FE4A0846FFF712
:107D500074F8FEF7ACFEAFF20C11FA4822680BF093
:107D60007DFDF84A02210020FFF767F8F64DAFF2DB
:107D70001011F4482A680BF071FDF24A042100202A
:107D8000FFF75BF8FEF797FE206829684218EFA11D
:107D9000EC480BF063FDEB4A06210020FFF74DF89D
:107DA000FEF785FE03E610B5EC4C2068642801D987
:107DB000FFF759FA2068C82803D9FFF777FA00209F
:107DC000206010BD10B5E64C2068322801D9FFF7BD
:107DD00054FA2068642803D9FFF75EFA0020206077
:107DE00010BD10B5DF4C2068322801D9FFF740FAEA
:107DF0002068642803D9FFF754FA0020206010BDE2
:107E000010B5D94C2068642801D9FFF728FA2068FA
:107E1000C82803D9FFF74FFA0020206010BD2DE9D4
:107E2000F047FBF74BFAD149012700250860D049FC
:107E3000D04C884201DDE77500E0E5750AF021FECF
:107E4000CD4909680AF0C6FC0AF03AFECB49CD4E8E
:107E50000860CB490968401ACB4930600968A1F530
:107E60001C52103A17D00AF01AFE8046C7488946BD
:107E700000680AF014FE0022C54B0AF093FD42464A
:107E80004B460AF01DFD0AF05BFEBA49803188605E
:107E90000AF016FE3060011EBE4ABF4BBF480CDB25
:107EA000126801EB520101600168B1FBF2F101605F
:107EB00001681A685143016010E0677549423160FA
:107EC000126801EB520101600168B1FBF2F101603F
:107ED00001681A6851430160016801B96575B049CC
:107EE000B04A096851B1637D00684BB1081A10604F
:107EF0001068002806DB6575BDE8F087006804E0BF
:107F00000844F4E76775106840421060F4E72DE913
:107F1000F047FBF7B0F9954901270025086094491F
:107F2000944C884201DDA77500E0A5750AF0A9FD13
:107F30009D4909680AF04EFC0AF0C2FD8F49914E36
:107F400008609A490968401A90493060D1F800A049
:107F5000AAF51C52103A16D00AF0A1FD80468946B7
:107F600050460AF09CFD0022894B0AF01BFD424658
:107F70004B460AF0A5FC0AF0E3FD7E49803188609B
:107F80000AF09EFD3060011E824B894A89480CDB55
:107F90001B6801EB530101600168B1FBF3F1016063
:107FA000016812685143016010E027754942316051
:107FB0001B6801EB530101600168B1FBF3F1016043
:107FC0000168126851430160016801B925757A4959
:107FD0007A4A096849B1237D00684BB1081A1060DC
:107FE0001068002806DB257586E70068106083E7C7
:107FF0000844F4E710684042106027757CE710B52C
:108000000B216FA006F0BFFE4FF47A742046FDF7F7
:10801000DAFAFBF7B6FE2046FDF7D5FABDE81040C8
:10802000FBF7ABBE09F0A7BF10B5044667489AB08E
:108030004168009166485F4903680A6865A101A824
:108040000BF00CFC01A9204606F064FE4FF47A7098
:10805000FDF7B9FA1AB010BD2DE9F04169A009F099
:1080600065FE42F2CD016AA008F099FB012851D1CA
:1080700000216B480BF0DDFA00214FF080400BF03F
:10808000D8FA002167480BF0D4FA674D40F2255426
:108090000022214628460BF06DFB644E002221464B
:1080A00030460BF067FB624F0022214638460BF04A
:1080B00061FB21465F4C002220460BF05BFB002158
:1080C00028460BF0F0FA002130460BF0ECFA0021C4
:1080D00038460BF0E8FA002120460BF0E4FA0021C4
:1080E00001200BF04FFA4FF00065002128460BF0FD
:1080F000E5F84D4943F239000831088069681D4CA4
:1081000080346160216028680AF090FA2068BDE838
:10811000F0410047BDE8F08170B504468EB00522FD
:1081200045A1401C0AF0E2FA002548B1082244A10A
:10813000601C0AF0DBFA04F10906002801D085E092
:10814000A1E0BEE0FA870020F0380020BFC020B4D4
:10815000C3203A25356C64206B670000C8370020C7
:10816000CC370020C4370020C0370020143900204D
:10817000801A06003C3600204800002010390020FC
:108180003C0000201C390020B4000020B00000207A
:108190000088C340100000200C000020B8380020E8
:1081A000D8380020B43800204400002038000020D7
:1081B00008000020B0380020D4380020AC3800205F
:1081C0004154244C475452455345540008AD0020B7
:1081D000E438002030372D312DB9ABB0D43A2535F5
:1081E0006C75206B6720BFC0B4C33A25356C752011
:1081F0006B6720BEEEC1A63A25356C75206B6720F3
:108200000000000020494E2049415020000000009D
:108210003131322E3231372E3231322E323530007A
:10822000002C0140000400400038014000440040A0
:1082300000480040004C0040524641433D000000D1
:10824000525745494748543D000000000622FDA111
:10825000601C0AF04BFA002856D00822FBA1601CD3
:108260000AF044FA002852D00822FBA1601C0AF050
:108270003DFA002856D00522FAA1601C0AF036FA11
:1082800000285DD062E0E572A01D0AF03EFA0146CA
:1082900004228C20FDF737FEF44902460860F4A161
:1082A00068460BF0DBFA6A4604210020FEF7C5FDA4
:1082B00040F6B830FDF787F9F1A1022007F040FD44
:1082C00044E0A57330460AF020FA04F0EFF9ED4DD2
:1082D0000146042228607C20FDF715FE2860304608
:1082E0000AF013FA0346E8A168462A680BF0B6FACA
:1082F0004FF4FA60FDF767F9E1A1022007F020FDD5
:10830000684609F013FD21E0FFF78FFB1EE03046C1
:108310000AF0FBF9E24D2968481E3B2816D80422D2
:10832000A42009E030460AF0F0F901280ED8DD4D0E
:10833000014604222860A820FDF7E5FD286005E03D
:10834000207D402802D1A01D04F099F8204609F0B4
:10835000EDFC0EB070BD70B5A2B0D3A009F0E6FC84
:10836000D54809F0E3FCD44CD44E0025607852285F
:1083700007D1A078452804D1E07853280AD04728AF
:108380000CD03068204410F81C1C44290CD0412922
:1083900013D01AE00B21AFF2D81094E0C84AC9A15B
:1083A00004A80BF05BFA9AE010F81B1C45290CD1CD
:1083B00010F81A0C4C28F6D007E010F81B1C5529B1
:1083C00003D110F81A0C54282CD00622BFA1BA48A9
:1083D0000AF08CF9002833D00822BEA1B6480AF072
:1083E00085F900282CD00622BDA1B3480AF07EF9F9
:1083F00030B30822BCA1B0480AF078F900B30822D3
:10840000BCA1AD480AF072F9D0B10422BCA1AA48BF
:108410000AF06CF9C0B13068204410F81C1C4D29DA
:1084200019D020E0B848C3788278417800788DE888
:108430000F003A46B44BB5A104A80BF00FFA4EE07A
:108440009D48FFF769FE4AE042F2CD01AFF24020BD
:10845000FFF702FE43E010F81B1C412903D110F87E
:108460001A1C4E2906D00822AFA193480AF03EF903
:1084700060B334E010F80F1D8DF8741041788DF85A
:10848000751081788DF87610C1788DF877100179A4
:108490008DF8781041798DF8791081798DF87A10FE
:1084A000C1798DF87B10017A8DF87C10417A8DF8B6
:1084B0007D10807A8DF87E008DF87F501DA8FFF723
:1084C000B3FD09219BA006F05EFC08E07A4A9CA15E
:1084D000083204A80BF0C2F904A809F04CFD0020F2
:1084E0002554401CFF28FBDD984C99A104A8227854
:1084F0000BF0B4F925704FF47A703560FDF763F82E
:10850000227893A104A80BF0A9F922B070BD984875
:10851000984A01681068814202D14FF0FF307047DD
:10852000401C0A2190FBF1F301FB1300106070471F
:108530001FB59448904B914A914900681B68126896
:1085400009688DE80F00904891A103688F48026880
:108550009B480BF083F904B010BD70B58EB00024B9
:108560003422984968460AF081F897480168B9B3FF
:108570000021641E01600AF0EFFF944D40F26D117E
:10858000B0FBF5F2B2FBF1F1804B1E2619606FF4DF
:10859000B67303FB0123B3FBF6F37B4E336040F26B
:1085A0006D164E4306EB91015DF82330511AC91A3E
:1085B000744B491E196005FB12014FF46162B1FB57
:1085C000F2F06F4B02FB101218603C20B2FBF0F28D
:1085D0006A4B1A60B1FBF0F200FB121066490860AA
:1085E0002046B6E62DE9F0410026FEF7A8FD784DBD
:1085F000784C2868012824D0FEF75DFA002176A285
:108600000846FEF71AFCFEF752FA76A16C4822687B
:108610000BF024F96A4A02210020FEF70EFC75A235
:1086200004210020FEF709FC75A206210020FEF7B8
:1086300004FC764FFEF767F810B138880528E7E0AC
:10864000E7E02BE1525A45524F3D0000525354543B
:10865000494D453D00000000524C43434F4D503DB5
:1086600000000000444154453D000000B0000020DF
:10867000464143544F523D256C64202000000000C9
:1086800073657400D43800205245414C5F5745490A
:108690004748543D256C642C20256C642E20000036
:1086A000DC380020E0380020534D5320524543452C
:1086B0004956454400000000C8AD0020483900205C
:1086C00040AD002054454C3D2573000023524641E7
:1086D000433D000023525745494748543D000000A0
:1086E00023525A45524F3D002352535454494D454D
:1086F0003D00000023524C43434F4D503D000000CD
:10870000234941503D00000054AD0020534D5320FB
:1087100054494D453D256C752E256C752E256325D8
:108720006325632563000000235A49474245453DC0
:10873000000000004154244C475441434B000000CA
:1087400041542B55433D2573000000008C38002018
:108750005573617274335F736D735F7265636569BE
:108760007665645F666C61673D25642C20000000BF
:10877000800000208400002044390020403900207F
:108780003C390020383900203439002030390020AD
:10879000446174653A32302530326C752D253032A3
:1087A0006C752D2530326C752C2054696D653A2519
:1087B0003032643A253032643A253032642E00007B
:1087C000FA8700203C550108F43600208051010052
:1087D000C8000020E83800204441544120434C4563
:1087E00041520000444159434F554E543D25356C8C
:1087F00075000000505245535320454E54455200D9
:10880000414C4C204441544120212100EC000020E7
:1088100002D0002E3FF40EAFFEF791FCFE4900207F
:1088200020600860FD49086048608860C860086191
:1088300048618861FA490860FA490860FA490860A5
:1088400048608860C860086148618861FDF75BFC2A
:10885000C820FCF7B8FE012108020AF03FFD286895
:10886000012838D0FEF727F9AFF29402002108461C
:10887000FEF7E3FAFEF71BF9AFF29801EB48226826
:108880000AF0ECFFE94A02210020FEF7D6FABDE823
:10889000F0410621E6A20020FEF7CFBAFEF70BF961
:1088A0000021E5A20846FEF7C8FAFEF700F9E6A1A6
:1088B000DE4822680AF0D2FFDC4A02210020FEF7DF
:1088C000BCFAFEF7F8F8E4A206210020FEF7B5FA9C
:1088D000FEF7EDF8ADE6FEF7EEF80021D6A2084669
:1088E000FEF7ABFAFEF7E3F8D7A1D04822680AF00A
:1088F000B5FFCE4A02210020FEF79FFAFEF7DBF813
:10890000D9A206210020FEF798FABDE8F041FEF753
:10891000CEB82DE9F0410024FEF711FC0021D5A2CC
:108920000846FEF78AFAFEF7C6F8D5A20221002013
:10893000FEF783FAFEF7BBF8D4A204210020FEF76D
:108940007CFAD5A206210020FEF777FAD54D012644
:10895000DFF854832E700227FDF7D5FE00282DD0B6
:10896000B8F80000012805D0022818D0052825D124
:10897000BDE8F08100212E70BEA20846FEF75DFA28
:10898000FEF799F8BEA202210020FEF756FAFEF784
:108990008EF8BEA204210020FEF74FFA0EE02F70E1
:1089A000B7A202210020FEF748FAFEF784F8B7A22A
:1089B00004210020FEF741FAFEF779F8002CCBD015
:1089C000D6E710B5FDF79FFE002831D0B6480088E5
:1089D00001280DD0B54902280ED0042825D005283D
:1089E00026D1086801281CD0BDE8104004F0F1BF72
:1089F000BDE8104008F01BB90868AA4C022803D053
:108A0000012815D1207008E0FFF783FF20780128A6
:108A100003D0BDE81040FCF709BBBDE81040FCF7EF
:108A20008BB8BDE8104005F064BEBDE81040D9E544
:108A300010BD1FB508F019FE9D4CE07823786278D0
:108A4000A1788DE80F002379A2799AA177480AF0DE
:108A500005FF764809F06AF90021A1A20846FEF751
:108A6000ECF9E07800902379A279A0A16F480AF090
:108A7000F5FEFEF720F86D4A02210020FEF7DDF931
:108A8000FEF715F89FA204210020FEF7D6F9FEF7A5
:108A900012F8207800906378A2789DA163480AF0CC
:108AA000DDFE624A06210020FEF7C7F9FDF7FFFF51
:108AB00004B04FF47A70BDE81040FCF784BD2DE996
:108AC000F04FDDB002200025589072B6FCF7B4FCE0
:108AD000FCF739FD62B6FDF7E7FB09F0E2F89148D3
