:020000040800F2
:1030000010B40020DD4401082144010823440108D4
:103010002544010827440108294401080000000054
:103020000000000000000000000000002B44010828
:103030002D440108000000002F440108314401081C
:10304000F3440108F3440108F3440108F1DF0008E8
:10305000F3440108F3440108F3440108F344010870
:10306000F3440108F3440108F3440108F344010860
:10307000F3440108F3440108F3440108F344010850
:10308000F3440108F3440108F3440108F344010840
:103090004F440108F3440108F3440108F3440108D4
:1030A000F3440108F3440108F3440108F344010820
:1030B00095350108F3440108F3440108F34401087D
:1030C000F3440108F3440108F3440108F344010800
:1030D000F34401085B370108B337010833380108AE
:1030E000F3440108F344010851440108F344010882
:1030F000F3440108F3440108F3440108F3440108D0
:10310000F3440108F3440108F3440108F3440108BF
:10311000F9380108F3440108F3440108F3440108B5
:10312000F3440108F3440108F3440108F34401089F
:10313000DFF80CD011F09AFE00480047BDA000084F
:1031400010B40020002100E0491C8142FCDB7047E4
:1031500010B56420FFF7F6FF4FF48041FA4811F0F4
:10316000DDFF4FF40071F94811F0D8FFBDE81040C1
:103170004FF47A7002F0D1BC70B5F34D4FF4804437
:103180002146284611F0CCFF0120FFF7DBFF214646
:10319000284611F0C3FFBDE870400120D2E770B5AA
:1031A000EA4D4FF400742146284611F0B9FF012082
:1031B000FFF7C8FF2146284611F0B0FFBDE8704078
:1031C0000120BFE72DE9F041DF4F4FF400563146B3
:1031D000384611F092FF0028F9D04FF4804138466C
:1031E00011F09CFF00253146384611F086FF00287B
:1031F000F9D100246D00FFF7BFFF3146384611F0CA
:103200007CFF3146384611F078FF012800D16D1C53
:10321000641CE4B2182CEDD3FFF7AEFF2846BDE8DE
:10322000F08110B5CA4C05202060FFF7CBFF236862
:10323000B3B1C84A632102EB810454F8044C42F84C
:103240002140491E0029F6DC591E106003E052F8A7
:103250002140491E20440029F9DCB0FBF3F001E0D5
:10326000012121601921B0FBF1F010BD2DE9F041E1
:10327000B64F4FF480763146384611F03EFF0028B5
:10328000F9D04FF48041B04811F048FF0025314695
:10329000384611F032FF0028F9D100246D00FFF705
:1032A0007EFF3146384611F028FF3146384611F08E
:1032B00024FF012800D16D1C641CE4B2182CEDD34E
:1032C000FFF76DFF2846AAE710B5A14C0520206046
:1032D000FFF7CCFF2368B3B19F4A632102EB81045F
:1032E00054F8044C42F82140491E0029F6DC591ECE
:1032F000106003E052F82140491E20440029F9DC07
:10330000B0FBF3F001E0012121601921B0FBF1F0E5
:1033100010BD10B500208F4A014642F82010401C15
:10332000C828FAD38C4A002042F82010401CC82834
:10333000FAD30121894811F0F1FEBDE810400221C5
:10334000874811F0EBBE2DE9F047864F0025834EEC
:103350002C463D700121304611F0E0FE4FF001098E
:10336000DFF8048202E0641C44450DD80421304695
:1033700011F0C3FE0028F6D0387801282CD00024A4
:1033800005E0641C444502D987F8009024E004213C
:10339000304611F0B2FE0028F3D1387801281BD056
:1033A00000240121304611F0BBFE502002F0AAFBA0
:1033B0006D000421304611F0A0FE05440A2002F001
:1033C000A1FB0121304611F0A9FE502002F09AFB2A
:1033D000641CE4B2182CE4D32846BDE8F08770B52D
:1033E0005E4E00250121304611F098FE0421304642
:1033F00011F083FE0028F9D00421304611F07DFE43
:103400000028F9D10421304611F077FE0028F9D0C8
:103410000421304611F071FE0028F9D10024012169
:10342000304611F07DFE962002F06CFB6D00042109
:10343000304611F062FE05440121304611F06EFE67
:10344000322002F05FFB641CE4B2182CE7D328465C
:1034500070BD2DE9F047DFF80881002502214046C4
:1034600011F05CFE3D4F4FF400542146384611F0F8
:1034700044FE0028F9D02146384611F03EFE0028CF
:10348000F9D12146384611F038FE0028F9D02646F9
:103490002146384611F031FE0028F8D10024B1460B
:1034A00002214646404611F03BFE962002F02AFBE0
:1034B0006D004946384611F020FE05440221304691
:1034C00011F02CFE322002F01DFB641CE4B2182C1B
:1034D000E6D3284681E782E7BBE710B5FFF77FFF19
:1034E0001B490B68B3B11B4AC72102EB810454F896
:1034F000044C42F82140491E0029F6DC591E106098
:1035000003E052F82140491E20440029F9DCB0FBB9
:10351000F3F001E001220A601421B0FBF1F010BDCC
:1035200010B5FFF796FF0A490B6843B30A4AC72153
:1035300002EB810454F8044C42F82140491E002952
:10354000F6DC591E106015E000180140001401401F
:10355000F838002094390020B43C002000100140CD
:10356000000C014000000020A086010052F821401C
:10357000491E20440029F9DCB0FBF3F001E00122F0
:103580000A601421B0FBF1F010BD2DE9F04F99B0A5
:1035900000254FF0FF38FE4BDFF8F8B3DFF8F89363
:1035A0001A78DFF8F8A3012A0ED1FD49002008702F
:1035B0008BF8000089F800008AF80000F9490870CB
:1035C000F9490870F94908703032F9A10CA812F0D5
:1035D000CDF80CA810F0EBFB0027F74C01260120DA
:1035E00002F097FA2078E8B3012002F092FA2078EE
:1035F000C8B3F248002727700760F1485021F14A0C
:1036000001803C4602206FF02F03115CA1F1300CC9
:10361000BCF1090F04D9A1F1410CBCF1050F07D889
:1036200004EB840403EB4404401C0C440728ECDD49
:10363000082841DB0222E4A1E24810F0DFFF18B3C2
:103640000222E2A1DF4810F0D9FF18B30222E0A164
:10365000DC4810F0D3FF18B30222DEA1D94810F0E5
:10366000CDFF01E002E004E000B325E07F1C642F01
:10367000B5DBD349B1F9000008B1401E0880C44849
:103680000278042A1BD047E0D34804608BF800601E
:10369000D24810E0D248046089F80060D1480AE0BE
:1036A000D14804608AF80060D04804E0D048046043
:1036B000BC480670CF48077010F0F7FCDFE7C6483B
:1036C000C949CD4F0468C64809683F680068231897
:1036D0005D18C74B1B6805EB03080125E7B109AF6F
:1036E00008940BC7B1480378AF480178AD48047817
:1036F0009AF80000CDE90404CDE9061399F800100A
:103700009BF80030A648CDE90231CDE90085037869
:10371000BAA10CA812F02AF89D490878401CC0B242
:103720000870042800D90E702DB19D4806704046DF
:1037300019B0BDE8F08FC0480068F9E72DE9F04FF7
:10374000934B00256C1E1A78934E944FDFF85482E9
:10375000B5B0AA46012A11D1914981F800A08D493E
:1037600081F800A086F800A087F800A088F800A0E3
:103770008D4981F800A08D4981F800A030328CA1DC
:103780000EA811F0F3FF0EA810F011FBDFF828B21D
:103790004FF00009012002F0BCF99BF8000018B1BD
:1037A000012002F0B6F904E009F10109B9F1640F52
:1037B000F0DB77484B46A1A102780EA811F0D6FFA6
:1037C0000EA810F04BFA58469BF800207C49DFF811
:1037D00020B2002A44D080F800A07848794B4FF0FE
:1037E0000009C0F800A05020088002206FF02F0CC4
:1037F000195CA1F13002092A02D9113A052A08D828
:1038000009EB89020CEB4202401C01EB020907287C
:10381000EEDD082858DB02226BA16A4810F0EEFEAC
:1038200020B3022269A1674810F0E8FE30B30222FB
:1038300067A1644810F0E2FE38B3022265A1614836
:1038400010F0DCFE40B302227FA15E4810F0D6FEED
:1038500048B302227DA15B4810F0D0FE58B333E09C
:10386000B1F9000090B3401E08802FE05A490120B2
:10387000C1F8009047490870584923E05849012091
:10388000C1F80090307057491CE05748C0F80090CC
:1038900001203870554915E00120CBF8009088F8D8
:1038A000000054490EE06A490120C1F800903E49E9
:1038B0000870684906E068490120C1F800903B495A
:1038C0000870664981F800A010F0EFFBDFF8C090A7
:1038D000634899F800200068824255D16149062862
:1038E00008681AD068B12B48017800294ED0317889
:1038F0000029FBD039780029F8D098F80010002969
:10390000F4D03548016836480068014436480068FC
:103910000144DBF800000C180AE278B11D48017878
:10392000E9B13178D9B13978C9B198F80010B1B19D
:103930001D49097899B11D49097881B12648016866
:10394000274800680144284800680144DBF800006B
:1039500001443F48006801443F480068DBE70178C4
:1039600099B9317889B1397879B198F8001061B195
:103970000D49097849B10D49097831B118480068F5
:103980004100194800686FE02DE27AE022E1000072
:103990005538002058390020593900205A39002064
:1039A000643900205B3900205C3900205D3900203B
:1039B000402D2563520000002A3800205038002096
:1039C00044390020DA9400202D3100002D3200000F
:1039D0002D3300002D34000084380020563800209C
:1039E00088380020573800208C38002058380020B4
:1039F00090380020593800203039002020282575C3
:103A00003A25752920256C642C2025642E2E2564EA
:103A10002C25642C25642C25642C25642C25642CF1
:103A200020256C642C20256C642C20256C642C20B3
:103A3000256C64202000000060390020206C256483
:103A40003D25642E000000002D3500002D360000BD
:103A5000943800205A380020983800205B38002025
:103A600004010020183900200144DBF80000014463
:103A7000EB4800680144EB480068BCE081F800A016
:103A800056E1017811B3317801BB3978F1B198F87A
:103A90000010D9B1E4490978C1B1E4490978A9B164
:103AA000E34800684100E34800680144DBF8000097
:103AB0000144DB4800680144DA480068AEE0087859
:103AC000401CC0B208700228D8D231E10178E1B1BF
:103AD0003178D1B13978C1B998F80010A9B1D2497B
:103AE000097891B1D149097879B1D1480168D248B2
:103AF00000680144DBF8000001440144C848006844
:103B00000144C84800680C1810E10178E1B131782F
:103B1000D1B13978C1B198F80010A9B9C249097872
:103B200091B1C249097879B1C1480168C2480068B9
:103B30000144C048006801440144B9480068014498
:103B4000B84800680C1893E00178E9B13178D9B130
:103B50003978C9B198F80010B1B1B349097899B969
:103B6000B249097881B1B2480168B348006801449C
:103B7000B04800680144DBF800000144A94800682F
:103B800001440C18AD499AE70078002872D03078CB
:103B90000028FBD038780028F8D098F800000028DA
:103BA00068D0A1480078002864D0A0480078002898
:103BB00060D19F480168A048006801449D480068A2
:103BC0000144DBF8000001449548006801440C18EA
:103BD0009B4974E7017881B9317871B1397861B165
:103BE00098F8001049B1934801689348006801EBC8
:103BF0004001DBF800000C1868E0017881B13178F1
:103C000071B9397861B198F8001049B189480168F3
:103C10008748006801EB4001DBF800000C1877E0F2
:103C2000017881B1317871B1397861B998F80010B3
:103C300049B17F480168804800680144DBF8000012
:103C400001EB400472E0017831B1317821B139786B
:103C500011B198F8001011B1017861B114E0744805
:103C600001687548006801447248006801EB40042F
:103C7000744924E789E0317831B9397821B198F86D
:103C8000001009B16B4809E0017859B9317849B1A0
:103C9000397839B998F8001021B167480168DBF824
:103CA000000011E0017831B9317821B1397811B1D2
:103CB00098F8001021B10178A1B1317841B111E03B
:103CC0005D4801685B480068084444005E49F6E6C8
:103CD000397839B998F8001021B155480168DBF8F6
:103CE000000013E0017831B1317821B9397811B190
:103CF00098F8001031B1017879B1317869B139782B
:103D000041B10AE04A4801684A4800680844440052
:103D10004E49D4E698F8001011B1017851B113E082
:103D20004348016844480068084444004849C6E6DE
:103D300001252AE0317839B9397829B998F8001085
:103D400011B1DBF8000066E0017831B9317821B1BA
:103D5000397811B998F8001011B1017811B108E063
:103D6000354857E0317821B9397811B198F8001009
:103D700021B1007848B1307810B106E02D4849E013
:103D8000387810B998F80000F0B33248006850B3A2
:103D90002448DBF800C00368214801682548006812
:103DA000CDE90A0C2448CDE90C13036820480168CA
:103DB0001E4890F800C01C480078CDE9060CCDE9FB
:103DC000081398F800103B7836782348007803965B
:103DD0000094CDE901502148CDE904310378204910
:103DE0000EA811F0C3FC99F800001E4A401CC0B296
:103DF00089F800001268904202DD012089F8000075
:103E00005DB10120154900E003E00870204635B09F
:103E10008FE40748006884008AE713480068F6E7E3
:103E200094380020983800205C3900205D3900204B
:103E3000843800208C380020883800205A38002030
:103E40005B380020593800205638002057380020B1
:103E500058380020303900205839002064390020BB
:103E6000A060010804010020603900204FF40061C7
:103E7000664811F055B94FF48051644811F050B9BB
:103E80004FF40051614811F04BB91021604811F016
:103E900047B94FF400615D4811F040B94FF48051CB
:103EA0005A4811F03BB94FF40051584811F036B957
:103EB0001021574811F032B910B5FFF7EAFFFFF7AC
:103EC000EDFFFFF7F0FFBDE81040F1E7012806D055
:103ED000022805D0032804D0042803D1D5E7C5E77C
:103EE000C9E7CDE77047012806D0022805D003288E
:103EF00004D0042803D1DBE7CBE7CFE7D3E7704753
:103F00004FF48051434811F009B908B54FF480507F
:103F1000ADF8000003208DF8020010208DF803009A
:103F200069463C4811F072F8FFF7EAFF08BD4FF40C
:103F30008051384811F0F4B810B50446FFF7F7FF88
:103F4000204601F0EAFDBDE81040D9E710B5002495
:103F50001420FFF7F1FF052001F0DFFD641C072CA2
:103F6000F6DB10BD20212A4811F0DAB8FAE7022169
:103F7000264811F0D5B80221244811F0CFB82021ED
:103F8000234811F0CBB810B52021214811F0C6F814
:103F9000BDE81040F3E74FF400711D4811F0C0B8C0
:103FA000F9E74FF400711A4811F0B8B8F9E7704713
:103FB00070470421154811F0B1B80421134811F0DD
:103FC000AFB80821114811F0A9B808210F4811F025
:103FD000A7B8E6E7DFE74FF480710D4811F0A0B80D
:103FE0004FF480710A4811F099B80421074811F084
:103FF00095B80421054811F093B80821034811F041
:104000008DB80821014811F08BB800000014014060
:10401000000C0140001001402DE9F04F002489B050
:10402000A04603F0D6FBDFF8FC93D9F80000012886
:1040300015D00021FCA2084603F049FA03F085F8E8
:10404000FDA20621002003F042FA03F07AF8FD4FAA
:10405000FD4E4FF000053878012809D014E000210A
:10406000FAA2084603F033FA03F06FF8FBA2E8E780
:10407000FFF7D7F810F096FC10F0AAFC6D1CEDB21B
:1040800030600A2DF4D30AE0FFF727FA10F08AFC1B
:1040900010F09EFC6D1CEDB23060642DF4D3F24D37
:1040A0006869286410F07EFC696C10F01BFB10F04E
:1040B0008FFCA863EDA16846326811F057FB684693
:1040C0000FF0BCFDEDA168462A6C11F04FFB68466D
:1040D0000FF0B4FDEDA16846AA6B11F047FB6846EE
:1040E0000FF0ACFD686C10F0A0FC02460B46EBA193
:1040F000684611F03BFB68460FF0A0FDDFF8ACB35B
:10410000BA4602F042FE08B3BBF800005F46012841
:1041100008D1286C10F046FC696C10F0E3FA10F03E
:1041200057FCA8633888022803D0388805280AD0AD
:104130000CE0686910F036FC696C10F0D3FA10F0EE
:1041400047FCA86302E001246FF064089AF80000BD
:10415000012827D0FFF7C1F9306010F01AFC696C14
:1041600010F0C0FA10F034FCD1490860A96B401A75
:10417000296900EB5100B0FBF1F2A8684243D9F87D
:104180000000012811D0CBA1684611F0EFFA6A4671
:104190000221002003F09BF9002CB2D009B0404668
:1041A000BDE8F08FFFF73DF8D6E7C6A1ECE72DE9B3
:1041B000F04788B003F00DFBAB4C206B10F0F2FB26
:1041C0000546E06A10F0EEFB294610F0C1FA804681
:1041D0006169E069401A2062BEA00FF02FFDC0A106
:1041E0006846626911F0C2FA68460FF027FDBFA168
:1041F0006846E26911F0BAFA68460FF01FFDBEA1E9
:104200006846226A11F0B2FA68460FF017FD404680
:1042100010F00BFC8946064632464B46B9A168466B
:1042200011F0A4FA68460FF009FDA06A10F0BAFB7D
:10423000414610F08DFA10F0E4FB05460246B4A1A9
:10424000684611F093FA68460FF0F8FC606910F0C8
:10425000A9FB0746206A10F0A5FB414610F042FA80
:10426000394610F0E7F910F0CCFB0246ACA16846E5
:1042700011F07CFA68460FF0E1FC4146AC4810F0C2
:1042800067FA824610F0D1FB02460B46A9A16846A8
:1042900011F06CFA68460FF0D1FCA94AA9A1684652
:1042A00011F064FA68460FF0C9FC206A6FF0C1078C
:1042B000A84209D2A7A20121002003F008F940F684
:1042C000B83001F02AFC0BE010F06CFB01465046C0
:1042D00010F0DAFB08D2A3A20221002003F0F7F8C5
:1042E000384608B0BDE8F08783A16846226A11F01D
:1042F0003DFA68460FF0A2FCA0A16846A26A11F040
:1043000035FA68460FF09AFC32464B467DA1684666
:1043100011F02CFA68460FF091FC206A10F042FB75
:10432000414610F0DFF90546A06A10F03BFB294634
:1043300010F00EFA606410F078FB02460B4657A1AD
:10434000684611F013FA68460FF078FC606910F0C7
:1043500029FB616C10F0C6F910F03AFBA0633148FC
:104360000068022802D0012802D006E088A200E0FE
:104370008BA20221002003F0AAF84FF4FA64204631
:1043800001F0CBFB204601F0C8FB6FF06400A8E70A
:104390002DE9F04F0446874899B00026D0F80090E8
:1043A00003F017FADFF810821E4F2F4DD8F80000E7
:1043B000012818D002F0C5FE386801282ED068798F
:1043C000002C2CD001282BD07CA20021084603F021
:1043D0007EF802F0B6FE7DA168462A6B11F0C6F9A0
:1043E0006A46022146E13868012803D0002C18D023
:1043F0007AA2EAE78CB102F0A8FE00217AA2084670
:1044000003F065F802F09DFE7AA168462A6B11F070
:10441000ADF902216A460020F4E0FBE006E125E167
:104420003DE101E1CC00002043555252454E54205D
:104430005745494748540000454E5445523A4E4569
:1044400058540000000000204C390020C7F6C0E797
:10445000B9ABB0D4C8AEC0CE00000000C8AEC0CE6C
:10446000C5B03AB4D9C0BD00040000207261775FC6
:1044700064617461203A202566000000765F616403
:1044800063315F6F7267203A20256400765F616454
:10449000635F6F7267203A2025640000676E66468E
:1044A0006163746F72203A202566000010010020BD
:1044B000483900205745494748543A25366C64200E
:1044C0006B670000B9ABB0D43A25366C64206B67DB
:1044D00000000000313233343536373839300000CF
:1044E000565F5A45524F3D256C640000565F465555
:1044F0004C4C3D256C640000565F5350414E3D25A9
:104500006C640000726174696F3D256600000000F4
:104510006C6F775F6C696D6974203A2025640000C8
:10452000686967685F6C696D6974203A202564006A
:104530000024744B6572723235203A2025660000E3
:104540000024F40046554C4C5F4C494D4954203AE8
:10455000202564004552524F52203234202121211F
:10456000000000004552524F52203235203A20536D
:1045700050414E204849474800000000765F695F7F
:104580007265736F6C7574696F6E203A20256400D4
:104590002020535543434553532021212000000040
:1045A00020B9ABB0D4C1B6C1A420BCBAB0F82121A7
:1045B00000000000F8380020BC00002020535041CB
:1045C0004E2043414C283229000000002055504C19
:1045D0004F41442025356C64206B670020535041C7
:1045E0004E2043414C0000002020BDBAC6C7C1B6D2
:1045F000C1A4000025356C64206B67BFC3B8AEBC96
:10460000BCBFE40002F063FF02F09FFD02F09DFDDD
:10461000F5A235E002F099FD0021F6A2084602F06D
:1046200056FF02F08EFDF1E7F5A2CEE668798CB177
:10463000012819D0F5A20021084602F048FF02F037
:1046400080FDAFF2500168462A6B11F08FF86A4680
:10465000022103E0012805D0EFA20021002002F092
:1046600036FFD3E7F0A2F8E7F3A2E4E7012814D07D
:10467000F4A20021002002F02AFF02F066FDF5A25C
:104680000621002002F023FF02F05BFDD8F80000B5
:10469000DFF8D0A3012804D016E0F3A2E9E7F6A2E0
:1046A00093E69AF800004FF00004012806D1FEF7C7
:1046B000B8FD641CE4B2142CF9D305E0FEF70DFF3D
:1046C000641CE4B2142CF9D3B846AB4657469BF8A9
:1046D00005005D460128387823D0012832D0FEF746
:1046E0001FFF0446D8F80000224601282DD0E6A17D
:1046F000684611F03BF86A460421002002F0E7FE0C
:1047000002F043FB28B1E348008805281FD0FFF7DB
:104710001DFC002EDBD0E0492046C1F8009019B006
:104720003EE5012809D0FEF7D8FE0446D8F800007F
:104730002246012804D0D9A1DAE7FEF772FDF4E79A
:10474000D9A1D5E7FEF7C0FDCBE7DBA1D0E76879BB
:10475000012600240128387803D00128254612D0EC
:1047600018E001284FF0000506D1FEF75AFD6D1C38
:104770000444322DF9DB13E0FEF7AFFE6D1C044458
:10478000322DF9DB0CE0FEF79FFD6D1C0444322D49
:10479000F9DB05E0FEF7C4FE6D1C0444322DF9DBA5
:1047A000322094FBF0F4B4E72DE9F04F4FF000090C
:1047B0008BB04D464C4602F041FC03F00AF8DFF89E
:1047C000088398F8050001287ED0D8F83460BF48E7
:1047D0004FF00A0A96FBF0F100FB116142F21070F3
:1047E00091FBF0F1ADF8201096FBF0F100FB1161A8
:1047F0004FF47A7091FBF0F1ADF8221096FBF0F1D6
:1048000000FB1161642091FBF0F1ADF8241096FBE0
:10481000F0F100FB1161504691FBF0F1ADF826106C
:1048200096FBFAF10AFB1160ADF8280002F08DFC4E
:10483000A748A84F00680128386856D0012898F882
:1048400005005ED0012872D0A3A20021084602F024
:104850003EFE3246A4A1684610F088FF6A46042155
:10486000002002F034FEAFF230420621002002F0B8
:104870002EFE02F066FC40F6C41B08AEBDF9201007
:1048800042F210704143BDF922006D1C00EB400262
:10489000C2EBC01001EBC001BDF924005D4500EB87
:1048A000C00202EB001001EB8001BDF9260000EB15
:1048B000800001EB4000BDF9281000EB01083AD15F
:1048C00038684246012800E00CE032D086A16846F4
:1048D00010F04CFF6A460421002002F0F8FD02F0BF
:1048E00034FC3CE0D8F82C6071E7012801D083A2A9
:1048F000ABE7002185A2084602F0E9FD324687A118
:1049000008E0012811D08AA20021084602F0DFFD4C
:1049100032468BA1684610F029FF6A460421002028
:1049200002F0D5FD8BA2A0E701E08EA2ECE791A2F8
:104930008BE77AA1CBE741F2883085421DDD002567
:1049400002F0FFFB38684246012824D066A1684681
:1049500010F00CFF6A460421002002F0B8FDC4F1FB
:10496000040088A136F91020684610F0FFFEC4F15B
:104970000C006A46042102F0AAFD02F006FA18B300
:1049800044480088012808D0022813D004281CD0ED
:10499000052821D124E061A1D9E7C4F1040036F84B
:1049A0001010491C09B291FBFAF326F810100AFB0B
:1049B000131107E0C4F1040036F9101009B1491EC3
:1049C00000E0092126F8101006E0641CA0B20521C1
:1049D000B0FBF1F201FB1204B9F1000F3FF44EAF4E
:1049E0000BB04046BDE8F08F20C8AEC0CE203ABD27
:1049F000C3C0DB002020BFB5C1A1C1B6C1A4000067
:104A0000205A45524F2043414C000000BDBAC6C752
:104A1000C1B6C1A42832290020BFB5C1A1C1B6C109
:104A2000A42832290000000020BFB5C1A1C1B6C131
:104A3000A428312900000000BDBAC6C7C1B6C1A470
:104A400028312900205A45524F2043414C28322911
:104A50000000000020454E5445523A5354415254F0
:104A60000000000000000020205A45524F20434122
:104A70004C28312900000000205350414E20434172
:104A80004C283129000000004144432832293A25AE
:104A9000376C640010010020F83800204144433A8C
:104AA00025376C640000000020C3E2B7C2B0AA3A08
:104AB00025376C6400000000C3E2B7C22832293AEF
:104AC00025376C640000000004000020A08601006F
:104AD000BC000020CC000020204C4F414420574512
:104AE0004947485428322900574549474854203AF5
:104AF0002530356C64206B6700000000204C4F416E
:104B000044205745494748540000000020BFC3B81F
:104B1000B1B9ABB0D420BCB3C1A4000020B9ABB0D4
:104B2000D4B0AA3A2530356C64206B6700000000D1
:104B300020BFC3B8B1B9ABB0D428322900000000FF
:104B400020B9ABB0D4B0AA203A2530356C64206BC4
:104B50006700000020C8AEC0CEC5B03AB4D9C0BD11
:104B60000000000020BFC3B8B1B9ABB0D4283129D0
:104B700000000000204C4F4144205745494748540D
:104B800028312900253164002DE9F047002792B033
:104B900006463C4602F01DFE02F0D7FAF9480068CE
:104BA000012867D0F8A20021084602F090FC02F02C
:104BB000C8FAFA484FF00A0896FBF0F100FB1161C1
:104BC00042F2107091FBF0F1ADF8341096FBF0F169
:104BD00000FB11614FF47A7091FBF0F1ADF83610E3
:104BE00096FBF0F100FB1161642091FBF0F1ADF850
:104BF000381096FBF0F100FB1161404691FBF0F19B
:104C0000ADF83A1096FBF8F108FB1160ADF83C00E6
:104C100040F6B83A0DAEBDF9341042F2107041437F
:104C2000BDF936006D1C00EB4002C2EBC01001EB79
:104C3000C001BDF93800554500EBC00202EB001081
:104C400001EB8001BDF93A0000EB800001EB400070
:104C5000BDF93C1000EB01090ED14A46D0A16846CF
:104C600010F084FD6A460421002002F030FC02F0BE
:104C70006CFA12E0CFA296E741F2707085421BDD1C
:104C8000002502F05EFA4A46C5A1684610F06EFDA6
:104C90006A460421002002F01AFCC4F1040036F92F
:104CA0001020AFF22011684610F060FDC4F10C0036
:104CB0006A46042102F00BFC02F067F808B3C24810
:104CC0000088012806D0022811D004281AD005280F
:104CD0001FD121E0C4F1040036F81010491C09B2BC
:104CE00091FBF8F326F8101008FB131107E0C4F14C
:104CF000040036F9101009B1491E00E0092126F818
:104D0000101006E0641CA0B20521B0FBF1F201FB1B
:104D10001204002F3FF47FAF12B04846BDE8F08781
:104D20002DE9F041A0B000261822A84919A80FF0DB
:104D300025FC002702F009FADFF84882A448A54CB8
:104D4000D8F800100068012904D001280CD00228EE
:104D500009D00EE0012802D0022802D009E09EA26C
:104D600003E06079FBE760799FA20021084602F02A
:104D7000AEFB02F0E6F9607919AD01284FF00000B2
:104D800005D0E16855F820208A420AD00DE0A168DC
:104D900055F820208A4204D0401CC0B20628F7D320
:104DA00007E0062805D244B204E0401CC0B2062841
:104DB000E8D30024D8F8000055F82420012822D098
:104DC0008DA1684610F0D2FC6A460221002002F054
:104DD0007EFB8CA20421002002F079FB02F0B5F9E1
:104DE0008CA20621002002F072FB02F0AAF901F069
:104DF000CCFFE0B374480088012816D002281CD0EC
:104E0000052825D121E087A1684610F0AFFC6A464D
:104E10000221002002F05BFB85A20421002002F0A9
:104E200056FB02F092F986A2DBE7641C64B2052C03
:104E30000EDD0524FFF78AF80AE0641E64B2002C38
:104E400006DAFFF783F8002402E055F82470012603
:104E5000D8F8000055F8242001280ED066A1684635
:104E600010F084FC6A460221002002F030FB002E84
:104E7000BDD020B03846BDE8F0816AA1EFE710B59B
:104E80008EB002F0DBF802F0A4FC3E480068012876
:104E900046D06FA20021084602F019FB4FF47A7049
:104EA00000F03BFEFFF73CFF4A4CA060E06AFFF7D2
:104EB0006BFE0A222261E06269A1684610F056FC8E
:104EC00068460EF0BBFEA168E06AB0FBF1F26BA190
:104ED0006846626210F04AFC68460EF0AFFE626AF5
:104EE00020694243AFF66C116846A26210F03EFCA6
:104EF00068460EF0A3FE0020FFF74AFA6061FFF754
:104F000053FC206302F01DF90120FFF741FAE06134
:104F1000FFF74DF9FFF780F801F030FB0EB010BD40
:104F20005BA2B7E72DE9F04F002489B0A04602F05C
:104F300050FC14480068012817D0AFF61432002145
:104F4000084602F0C4FA02F000F9AFF61432062166
:104F5000002002F0BCFA02F0F4F8514F514E4FF02D
:104F60000005387801280BD0AAE0AFF620320021E6
:104F7000084602F0ACFA02F0E8F8AFF62032E6E7B5
:104F800092E00000CC0000202020434150414349E2
:104F9000545920202020202000000000A08601007D
:104FA00056414C5545203A202530356C6420202050
:104FB0000000000020C3D6B4EBB9ABB0D420BCB322
:104FC000C1A420200000000010010020E4600108BE
:104FD000BC0000200400002020C7D1B4ABC0C7B083
:104FE000AA20BCB3C1A40000202044495649494F1F
:104FF0004E20534554200000204449563A2532643F
:10500000206B67002055502D444F574E3A53454C66
:105010004543540020454E5445523A204E4558547D
:105020000000000020B0AA3A253264206B6700001F
:10503000C0A72CBEC6B7A1C5B03A20BCB1C5C3003D
:1050400020C8AEC0CEC5B03A2020B4D9C0BD000043
:1050500020202043414C20204D4F4445202000007B
:10506000765F65695F6D756C7469706C795F666198
:1050700063746F72203A202564000000765F655FDC
:105080007265736F6C7574696F6E203A20256400C9
:105090002020B9ABB0D4C1B6C1A4202000000000CC
:1050A000000000204C390020FEF70EF90FF07AFCCA
:1050B0000FF08EFC6D1CEDB23060642DF4D30AE06D
:1050C000FEF72EFA0FF06EFC0FF082FC6D1CEDB2B5
:1050D0003060642DF4D3FB4DA86928640FF062FCA6
:1050E000A96C0FF0FFFA0FF073FCA863AFF68441D0
:1050F0006846326810F03AFB68460EF09FFDAFF646
:10510000844168462A6C10F031FB68460EF096FD2B
:10511000AFF688416846AA6B10F028FB68460EF08F
:105120008DFDA86C0FF081FC02460B46E6A1684697
:1051300010F01CFB68460EF081FDDFF8A0A3B94615
:10514000DFF89CB301F021FE08B3BAF8000057461F
:10515000012808D1286C0FF025FCA96C0FF0C2FAC9
:105160000FF036FCA8633888022803D03888052859
:105170000AD00CE0A8690FF015FCA96C0FF0B2FA88
:105180000FF026FCA86302E001246FF0640899F890
:105190000000012822D0FEF7C3F930600FF0F9FBC0
:1051A000A96C0FF09FFA0FF013FCCBF80000A96B6D
:1051B000401A296900EB5100B0FBF1F2E868C9A17F
:1051C0004243684610F0D2FA6A460221002002F0FB
:1051D0007EF9002CB6D0404609B003E4FEF774F81F
:1051E000DBE72DE9F04788B002F0F3FAB54C206B0D
:1051F0000FF0D8FB0546606B0FF0D4FB29460FF08B
:10520000A7FA8046D4E90610401A2062AFF63C5057
:105210000EF014FDAFF638516846A26910F0A6FAF8
:1052200068460EF00BFDAFF63C516846E26910F09F
:105230009DFA68460EF002FDAFF644516846226AB8
:1052400010F094FA68460EF0F9FC40460FF0EDFBC2
:105250008946064632464B46AFF65851684610F02E
:1052600085FA68460EF0EAFCA06A0FF09BFB414607
:105270000FF06EFA0FF0C5FB05460246AFF670510F
:10528000684610F073FA68460EF0D8FCA0690FF07B
:1052900089FB0746206A0FF085FB41460FF022FA92
:1052A00039460FF0C7F90FF0ACFB0246AFF690514C
:1052B000684610F05BFA68460EF0C0FC41468C4828
:1052C0000FF046FA82460FF0B0FB02460B46AFF6EF
:1052D0009C51684610F04AFA68460EF0AFFC854AC9
:1052E000AFF6A051684610F041FA68460EF0A6FCF1
:1052F000206A6FF0C107A84202D27FA2012109E013
:105300000FF050FB014650460FF0BEFB08D2AFF63F
:10531000AC520221002002F0DAF8384608B0FDE471
:10532000AFF62C616846226A10F020FA68460EF04B
:1053300085FCAFF6B8516846A26A10F017FA6846C5
:105340000EF07CFC32464B46AFF64861684610F0E2
:105350000DFA68460EF072FC206A0FF023FB4146FE
:105360000FF0C0F90546A06A0FF01CFB29460FF0AC
:10537000EFF9A0640FF059FB02460B4652A16846B4
:1053800010F0F4F968460EF059FCA0690FF00AFB22
:10539000A16C0FF0A7F90FF01BFBE0635CA20221E8
:1053A000002002F094F84FF4FA64204600F0B5FBB8
:1053B000204600F0B2FB6FF06400AFE710B58EB08E
:1053C00002F007FA002156A2084602F080F84FF4D6
:1053D0007A7000F0A2FB574909200860FFF7A0FC93
:1053E000384CE060E06AFFF7CFFB0A22AFF2903161
:1053F00022616063684610F0B9F968460EF01EFC41
:10540000E168606BB0FBF1F2AFF290316846626226
:1054100010F0ACF968460EF011FC626A2069424354
:10542000AFF6A8616846A26210F0A0F968460EF0D7
:1054300005FC0020FEF7ACFFA061FFF7B5F9206383
:105440000120FEF7A5FFE061FFF7CBFEFFF76AFD45
:1054500001F094F862E52DE9F041AAB0002640225F
:10546000354919A80FF08AF8002701F0E7FD02F08E
:10547000B0F901F06AFEDFF8C480D8F80000012816
:1054800013D02FA20021084602F021F801F059FEA6
:105490000C4919AD487901284FF0000007D0496B3D
:1054A00055F820208A425BD05EE029A2EAE7C96A6B
:1054B00055F820208A4253D0401CC0B20E28F7D3A2
:1054C00056E0000004000020676E66466163746F5A
:1054D000725F32203A202566000000001001002093
:1054E0004839002053494C4F5F323A25376C6400ED
:1054F0000024744B0024F4004552524F52203234A1
:10550000203A205350414E204C4F572000000000BD
:105510002020535543434553532020202020200072
:105520002020202043414C20204D4F444520202066
:1055300000000000F8380020FC600108CC000020CA
:105540005345542043415041434954590000000001
:10555000C3D6B4EBB9ABB0D420BCB3C1A400000037
:105560000E2805D244B204E0401CC0B20E2897D3E6
:105570000024D8F8000055F82420012825D0D2A115
:10558000684610F0F3F86A460221002001F09FFF00
:1055900001F0DBFDAFF294520421002001F097FFEF
:1055A000AFF290520621002001F091FF01F0C9FDF9
:1055B00001F0EBFB00283ED0C6480088012818D037
:1055C00002281ED0052827D123E0C3A1684610F089
:1055D000CDF86A460221002001F079FFAFF2B05207
:1055E0000421002001F073FF01F0AFFDAFF2B052D3
:1055F000D8E7641C64B20F2C0EDD0F24FEF7A6FC66
:105600000AE0641E64B2002C06DAFEF79FFC002458
:1056100002E055F824700126D8F8000055F824203F
:1056200001280DD0A8A1684610F0A0F86A46022112
:10563000002001F04CFF002EBAD038462AB01AE400
:10564000A5A1F0E72DE9FE4FDFF898B2DFF89892B8
:10565000A64EA74C804601254FF0000AA54F4021D9
:1056600038460EF0D7FA2D2138460EF0D3FA2179BC
:10567000384630310EF0CEFA522138460EF0CAFAD2
:105680000D2138460EF0C6FA0A2138460EF0C2FA4D
:105690002079401CC0B22071042800D92571C8208F
:1056A00000F03BFA9BF8001000297DD092488BF85F
:1056B00000A05746C0F800A099F8010049463128DB
:1056C00006D0322828D033284AD0342823D16CE0A1
:1056D00088788A4A30385043CA7840F271235A4356
:1056E00000EB0212087900EB4003C3EBC01002EBA1
:1056F000C002487900EBC00303EB001002EB80020C
:10570000887999F8071000EB800002EB400008440C
:105710003044E06425706BE08878784A3038504334
:10572000CA7840F271235A4300EB0212087900EB69
:105730004003C3EBC01002EBC002487900EBC0038A
:1057400003EB001002EB8002887999F8071000EB58
:10575000800002EB4000084430442065657047E05B
:105760008878664A30385043CA7840F271235A43E9
:1057700000EB0212087900EB4003C3EBC01002EB10
:10578000C002487900EBC00303EB001002EB80027B
:10579000887999F8071000EB800002EB400008447C
:1057A00030446065A57023E04EE08878534A303875
:1057B0005043CA7840F271235A4300EB0212087931
:1057C00000EB4003C3EBC01002EBC002487900EBD2
:1057D000C00303EB001002EB8002887999F80710F0
:1057E00000EB800002EB400008443044A065E57007
:1057F000D4E9132C636D02EB0C00C118A06DB8F155
:10580000000F0144E16512D0CDF800C0CDE90130B0
:1058100013460A463AA146480FF0A8FFD4E91501FD
:10582000CDE90001D4E9132342A1414804E0CDE9C8
:10583000003063463FA13E480FF098FF2770677025
:10584000A770E7700EF031FC01F039FA00283FF440
:1058500005AF3E48008814287FF400AFE06DBDE836
:10586000FE8F2DE9F041224C00252E4638A130480C
:10587000226B0FF07BFF246B3C4FDFF8D08001F0F0
:105880001EFAD0B1B8F80000385C0C2810D2DFE85E
:1058900000F0060606060606060606060C0E04EBD3
:1058A0008401012600EB410402E0002400E0012510
:1058B00022462FA11E480FF059FF002DDFD0002EE9
:1058C00000D02046BDE8F081204341503A253564A0
:1058D000206B67001001002020B0AA3A2535642013
:1058E0006B6700002A380020DA940020B0DCF7FF54
:1058F000040000200044004050380020A086010031
:105900005350414E2053554D3D25366C752C20315A
:105910003D25366C752C20323D25366C752C203398
:105920003D25366C752C20343D25366C7500000005
:10593000D43F00202825366C752C25366C752C2517
:10594000366C752C25366C75290000000E01002080
:1059500034202D2053657474696E675F57656967DD
:105960006874203D2025366C752000001801002049
:1059700034202D2053657474696E745F57656967B0
:105980006874203D2025366C7520000010B54FF45A
:10599000803420460FF0DAFC0FF034FD6349012813
:1059A00008701CD100200FF0C7FC00200FF0F8FC9D
:1059B000A0110FF0EBFC4FF4E01120460FF000FDBA
:1059C00001200FF0F7FC39200FF096FC0028FAD0E8
:1059D00002200FF00DFD0FF0A7FC0828FBD10121DC
:1059E00004200FF027FC012108200FF023FC0121E7
:1059F00010200FF01FFC012120200FF01BFC0121C3
:105A000040200FF017FC012180200FF013FC012132
:105A100008020FF00FFC012108460FF00BFC0121DA
:105A200008460FF0EFFB012102200FF0EBFB0121F4
:105A300048030FF0FFFB012188030FF0FBFB01215E
:105A400048040FF0DFFB012188040FF0DBFB01218C
:105A5000C8040FF0D7FB012103200FF0C7FB012181
:105A60004FF402400FF0E6FB012148050FF0CAFB9E
:105A70000121BDE8104048070FF0C4BB08B5C020A5
:105A8000ADF8000003208DF802001C208DF8030003
:105A9000694627480FF0BAFA08BD38B54FF44051AF
:105AA0004FF000600FF092FB4FF4C0600FF084FBEA
:105AB00014208DF8000000248DF801408DF802407C
:105AC00001258DF8035068460FF03CFB03208DF84C
:105AD00000008DF801408DF802408DF803506846B3
:105AE0000FF030FB38BD41061248826942F00102D6
:105AF00082611148426822F0E062426042680A43D3
:105B00004260704702E00A21491EFDD2401EFAD2CF
:105B100070474FF47A714843F4E742F2107302E0A1
:105B20001946491EFDD2401EFAD27047AC00002033
:105B3000000C01400010024000000140024611B973
:105B4000012070475043491E11F0FF01FAD1704700
:105B50001FB50020ADF804004BF6FF70ADF806004D
:105B6000A020ADF808004FF48060ADF80A000001F5
:105B7000ADF80C00FD48FE4C0090694620460EF042
:105B8000C7FA012120460EF029FB1FBD10B5FFF713
:105B9000DFFFF849A220088010BD38B50020ADF81D
:105BA0000000F34CF34D012120460EF035FB14218B
:105BB00020460EF080FBADF8000029780022204638
:105BC0000EF071FB142120460EF075FB8007EAD51C
:105BD000E94920460EF0E6FB2046BDE838400121A9
:105BE0000EF024BB2DE9F041E14E884605461446EF
:105BF000012130460EF010FBE04F304639460EF0E2
:105C0000B9FB0028F9D0DB480022017830460EF0BD
:105C10004AFBDB4F304639460EF0ACFB0028F9D08A
:105C2000414630460EF03AFBD54FBF1C3946304650
:105C30000EF0A0FB0028F9D00AE0297830460EF0DB
:105C40002DFB6D1C394630460EF094FB0028F9D030
:105C50002000A4F10104E4B2EFD13046BDE8F041E8
:105C600001210EF0E3BA2DE9F041054611F00F00D5
:105C70000C4602F00F01C0F11007C2F30716884668
:105C800011D08EB1D01BC0F3071600F00F088FB3F0
:105C90003A4621462846FFF7A5FFFFF77EFFE019A9
:105CA000C4B23D4426E05EB90A4612E01022214605
:105CB0002846FFF797FFFFF770FF1034E4B2103566
:105CC0003000A6F10106F6B2F0D15FEA080017D065
:105CD000024621462846FFF785FFBDE8F0415CE714
:105CE000102221462846FFF77DFFFFF756FF1034AC
:105CF000E4B210353000A6F10106F6B2F0D1E4E7C7
:105D0000BDE8F0812DE9F041994E0F460546144655
:105D1000012130460EF080FADFF8608230464146BD
:105D20000EF028FB0028F9D0924800220178304676
:105D30000EF0B9FADFF84882304641460EF01AFB01
:105D40000028F9D0F9B230460EF0A8FA8C4FBF1CEB
:105D5000394630460EF00EFB0028F9D00AE02978CB
:105D600030460EF09BFAAD1C394630460EF002FB71
:105D70000028F9D02000A4F10104A4B2EFD13046EC
:105D8000BDE8F04101210EF051BA2DE9F041054680
:105D900011F00F000C4602F00F01C0F11007C2F322
:105DA0000716884612D096B1D01BC0F3071600F034
:105DB0000F0897B33A4621462846FFF7A3FFFFF79F
:105DC000ECFEE01984B205EB470526E05EB90A4611
:105DD00012E0102221462846FFF794FFFFF7DDFE70
:105DE0001034A4B220353000A6F10106F6B2F0D18D
:105DF0005FEA080084D0024621462846FFF782FF6A
:105E0000BDE8F041C9E6102221462846FFF77AFF97
:105E1000FFF7C3FE1034A4B220353000A6F101060E
:105E2000F6B2F0D1E4E76BE72DE9F041504C0F46B4
:105E30000546012120460EF0EFF9504E204631462E
:105E40000EF098FA0028F9D04A480022017820463E
:105E50000EF029FA4A4E204631460EF08BFA002801
:105E6000F9D0394620460EF019FA2646444CA41CB7
:105E7000214630460EF07EFA0028F9D029783046C7
:105E80000EF00CFA214630460EF074FA0028F9D0D4
:105E90003046BDE8F04101210EF0C8B92DE9F047C8
:105EA000334F8A4605461446012138460EF0B4F9B0
:105EB000324E384631460EF05DFA0028F9D0DFF850
:105EC000B4800022384698F800100EF0ECF9DFF8A4
:105ED000B090384649460EF04DFA0028F9D001211D
:105EE00038460EF07BF9514638460EF0D7F9DFF808
:105EF000909009F10209494638460EF03BFA002815
:105F0000F9D0012138460EF087F9314638460EF0B7
:105F100031FA0028F9D098F8001001223E463846A0
:105F20000EF0C1F9154F7F1C394630460EF022FAAB
:105F30000028F9D0114F3F37BCB1012C07D1002107
:105F400030460EF07DF9012130460EF06FF93946EA
:105F500030460EF00FFA0028EED030460EF0A0F9D1
:105F6000641E05F8010BA4B2E6E70BE0A086010071
:105F700000540040B00000200004001001000300A5
:105F8000820007003046BDE8F04701210EF058B905
:105F9000F8B50C4606464FF48075002128460FF0F0
:105FA00025F90120FFF7B9FDF1B204226846FFF799
:105FB00075FF012C0BD0022C0CD0009C0120FFF7A8
:105FC000ACFD012128460FF011F92046F8BD9DF8DF
:105FD0000040F3E7BDF80040F0E7F8B50C4607468F
:105FE0004FF480761546002130460FF0FFF8012D62
:105FF00010D0022D11D00094F9B204226846FFF7A8
:1060000032FE0120FFF789FD012130460FF0EEF846
:106010002046F8BD8DF80040EEE7ADF80040EBE714
:106020002DE9F04704218420FFF7B2FFFE49086004
:1060300004211820FFF7ACFFFC4908600421102060
:10604000FFF7A6FFFA4FFB4C43F698253860A042B5
:1060500000D33D6004210C20FFF79AFFF649086049
:1060600004218820FFF794FF804609210A20FFF7CA
:1060700065FD0EF08EFC064640460EF093FC314660
:106080000EF066FBED4908600421B020FFF780FFA9
:10609000EB4908600421C020FFF77AFFE949086056
:1060A0000421BC20FFF774FFE749A042086000D339
:1060B0000D600421B820FFF76BFFE449086004215C
:1060C000AC20FFF765FF054609210A20FFF736FDE2
:1060D0000EF05FFC044628460EF064FC21460EF0EC
:1060E00037FBDB49086004211C20FFF751FFD94929
:1060F00001260228086000D30E6004212020FFF74B
:1061000047FFD5490860401E322801D3142008609B
:1061100004212C20FFF73CFFD049B0F5FA7F08603E
:1061200001D9322008600421F020FFF731FFCC4C68
:10613000E060401E022800D3E66004217C20FFF7C7
:1061400027FFC84900250028086002DB3A68824220
:1061500000D20D6004218020FFF71AFFC2490028F9
:10616000086002DB3A68824200D20D6004218C2074
:10617000FFF70EFF6060A0F5D850583841F27171FA
:1061800042F21077884200D3676004217420FFF741
:10619000FFFE41F65831A060884204DB606843F29C
:1061A000C821884200DDA7600421A420FFF7F0FE8B
:1061B000AE490860401E3C2801D33C200860042101
:1061C000F820FFF7E5FE20610A38B0F5F57F00D929
:1061D00025610421FC20FFF7DBFE6061643842F298
:1061E000AD61884200D3656104218801FFF7D0FECC
:1061F000A061401E4FF00A08322801D3C4F818806D
:1062000004217820FFF7C4FEE061022800D3E66194
:106210000421EC20FFF7BCFE2062022800D3266296
:1062200004213820FFF7B4FE91496428086001D3A7
:10623000C1F8008004213C20FFF7AAFE8D494FF4ED
:106240007A794845086000D90D6004214020FFF7A5
:106250009FFE8949894A0860904200D90D60042157
:106260009020FFF795FE86490228086000D30E6053
:1062700004219420FFF78CFE824E834930608842CF
:1062800000D3356004219820FFF782FE7F494845FE
:10629000086000D30D600421A020FFF779FE7C493F
:1062A0000228086000D30D6004212820FFF770FE4B
:1062B00060620B2801D3C4F8248004219420FFF7E6
:1062C00067FE30600A20FFF728FC724930680844F6
:1062D0007149884201D37148306004214420FFF79E
:1062E00057FE6F4908600A20FFF717FC0421482079
:1062F000FFF74EFE6B4E30600A20FFF70EFC0421C4
:106300004C20FFF745FE70600A20FFF706FC0421D1
:106310005020FFF73DFEB0600A20FFF7FEFB04218E
:106320005420FFF735FEF0600A20FFF7F6FB04214A
:106330005820FFF72DFE30610A20FFF7EEFB042105
:106340005C20FFF725FE70610A20FFF7E6FB0421C1
:106350006020FFF71DFEB0610A20FFF7DEFB04217D
:106360006420FFF715FE504908600A20FFF7D5FBAF
:106370000421E820FFF70CFE4C4908600A20FFF7D3
:10638000CCFB0421C820FFF703FE494E30600A20F1
:10639000FFF7C3FB0421CC20FFF7FAFD70600A2051
:1063A000FFF7BBFB0421D020FFF7F2FDB0600A200D
:1063B000FFF7B3FB0421D420FFF7EAFDF0600A20C9
:1063C000FFF7ABFB0421D820FFF7E2FD30610A2084
:1063D000FFF7A3FB0421DC20FFF7DAFD70610A2040
:1063E000FFF79BFB0421E020FFF7D2FDB0610A20FC
:1063F000FFF793FB0421E420FFF7CAFD2D49086055
:106400000A20FFF78AFB04210020FFF7C1FD2A497B
:10641000A062884200D3A56204210846FFF7B8FDB8
:106420000421E062142049E018000020240000202C
:106430003000002040420F000C00002048000020E7
:106440001C00002064000020380000201000002004
:106450004C000020F4380020F8380020FC380020E0
:10646000B00000200C390020103900201439002021
:10647000003900200439002008390020803801004C
:1064800030390020343900208096980038390020B7
:1064900040390020600FE6FF21D6130068881E00F7
:1064A0001C39002050AE002020390020283900205F
:1064B0006CAE00202C39002001E1F505FFF768FDE6
:1064C000206304216820FFF763FD606304216C20D2
:1064D000FFF75EFDA06304217020FFF759FDE06324
:1064E000E06A64389C2836D37021D920C4E90B10A7
:1064F000D4206063FA20A06342F2C7000422E06364
:106500001046FFF76AFDE0621E20FFF706FB04223B
:106510001420216BFFF761FD20631E20FFF7FDFAB9
:1065200004226820616BFFF758FD60631E20FFF7AF
:10653000F4FA04226C20A16BFFF74FFDA0631E202C
:10654000FFF7EBFA04227020E16BFFF746FDE063F2
:106550001E20FFF7E2FA04219C20FFF719FD2064BA
:10656000B84200D325640421C420FFF711FD606404
:10657000B84200D36564BDE8F087704738B50021A4
:106580004FF480700EF032FEC0480422842100686F
:1065900000906846FFF767FB0A20FFF7BEFABC4889
:1065A00004220C21006800906846FFF75CFB0A207B
:1065B000FFF7B3FAB748042210210068009068463C
:1065C000FFF751FB0A20FFF7A8FA09210A20FFF77D
:1065D000B5FA0EF0DEF9B04909680EF083F80EF056
:1065E00010FA0090042288216846FFF73CFB0A203D
:1065F000FFF793FAA9480422182100680090684622
:10660000FFF731FB0A20FFF788FAA5480422B021E2
:10661000006800906846FFF726FB0A20FFF77DFA26
:10662000A0480422B821006800906846FFF71BFBD1
:106630000A20FFF772FA9C480422BC2100680090EF
:106640006846FFF710FB0A20FFF767FA09210A20C6
:10665000FFF774FA0EF09DF9944909680EF042F8BC
:106660000EF0CFF900900422AC216846FFF7FBFA48
:106670000A20FFF752FA8E480422C02100680090D9
:106680006846FFF7F0FA0A20FFF747FA8948002129
:106690000078012807D0884C042280202160FFF771
:1066A0009CFC206038BD854C04227C202160F6E7EC
:1066B0007B4808B5006800900422B0216846FFF7C7
:1066C000D2FA0A20FFF729FA76480422B821006896
:1066D00000906846FFF7C7FA0A20FFF71EFA7248D3
:1066E0000422BC21006800906846FFF7BCFA0A202B
:1066F000FFF713FA09210A20FFF720FA0EF049F9F3
:106700006A4909680DF0EEFF0EF07BF90090042253
:10671000AC216846FFF7A7FA0A20FFF7FEF96448A4
:106720000422C021006800906846FFF79CFA0A2006
:10673000FFF7F3F908BD10B5614C0422642021680D
:10674000FFF74BFC20600A20FFF7E7F95D4C0422BD
:1067500044202168FFF741FC20600A20FFF7DDF9A3
:10676000594C216804224820FFF737FC20601E2086
:10677000FFF7D3F9616804224C20FFF72EFC60601C
:106780001E20FFF7CAF9A16804225020FFF725FC5C
:10679000A0601E20FFF7C1F9E16804225420FFF732
:1067A0001CFCE0601E20FFF7B8F921690422582084
:1067B000FFF713FC20611E20FFF7AFF96169042287
:1067C0005C20FFF70AFC60611E20FFF7A6F9A169B3
:1067D00004226020FFF701FCA0611E20FFF79DF955
:1067E0003A4C0422E4202168FFF7F7FB20600A20DE
:1067F000FFF793F9364C0422E8202168FFF7EDFB00
:1068000020600A20FFF789F9324C21680422C82051
:10681000FFF7E3FB20601E20FFF77FF96168042289
:10682000CC20FFF7DAFB60601E20FFF776F9A16845
:106830000422D020FFF7D1FBA0601E20FFF76DF9E6
:10684000E1680422D420FFF7C8FBE0601E20FFF7B8
:1068500064F921690422D820FFF7BFFB20611E20C4
:10686000FFF75BF961690422DC20FFF7B6FB60618A
:106870001E20FFF752F9A1690422E020FFF7ADFBCB
:10688000A061BDE810401E20FFF747B918000020A6
:106890000C000020300000204800002024000020D0
:1068A0001C00002010000020380000204C000020B8
:1068B0006400002009000020103900200C3900205D
:1068C000203900201C39002050AE00202C39002037
:1068D000283900206CAE00202DE9F84F4FF6BF108C
:1068E000ADF8000010258DF8035003248DF8024008
:1068F0006946F8480EF08AFB2F01ADF800708DF85C
:1069000003508DF802406946F3480EF07FFBC0202B
:10691000ADF800008DF802401C208DF80300694698
:10692000EE480EF073FB42F20400ADF800000426BE
:106930008DF803606946EA480EF068FBADF8004048
:106940008DF803508DF802406946E5480EF05EFB75
:106950004FF00209ADF800908DF803508DF8024019
:106960006946DE480EF052FB6802ADF80000DFF821
:1069700074A38DF802408DF80360694650460EF00E
:1069800045FBA802ADF800008DF802404FF0140856
:106990008DF80380694650460EF038FBADF8007064
:1069A000DFF844B38DF802408DF80360694658461D
:1069B0000EF02CFB6801ADF800008DF802408DF858
:1069C0000380694658460EF021FB4FF4F060ADF8A5
:1069D00000008DF803508DF802406946C3480EF060
:1069E00015FB4FF47870ADF8000048208DF80300D7
:1069F000694650460EF00AFB2802ADF800008DF8FB
:106A000003508DF802406946B5480EF0FFFA08279A
:106A1000ADF800708DF803508DF802406946584675
:106A20000EF0F4FAADF800608DF803508DF80240D6
:106A3000694658460EF0EAFAADF800908DF803501A
:106A40008DF80240694658460EF0E0FA0120ADF894
:106A500000008DF80360694658460EF0D7FA4FF4EF
:106A60006070ADF800008DF8036069469C480EF038
:106A7000CDFAADF800708DF80360694697480EF0C6
:106A8000C5FA4FF46050ADF800008DF803508DF852
:106A90000240694658460EF0B9FAADF800508DF83C
:106AA00003508DF8024069468C480EF0AFFA012180
:106AB0008F480EF0FBFA01218E480EF0F7FABDE880
:106AC000F88F08B54FF48070ADF8000010208DF8F5
:106AD000030003208DF80200694680480EF096FA04
:106AE00008BD08B54FF48070ADF8000048208DF85F
:106AF000030003208DF80200694678480EF086FAFC
:106B000008BD10B5734C4FF4806120460EF006FBB3
:106B1000E11420460EF002FBA11420460EF0FEFA0E
:106B2000611420460EF0FAFA2046BDE810404FF4FA
:106B300080410EF0F5BA10B5664C4FF480612046E6
:106B40000EF0ECFAE11420460EF0E8FAA11420460B
:106B50000EF0E4FA611420460EF0E2FA2046BDE899
:106B600010404FF480410EF0D9BA10B5594C4FF493
:106B7000806120460EF0D2FAE11420460EF0CEFAE3
:106B8000A11420460EF0CCFA611420460EF0C6FA8D
:106B90002046BDE810404FF480410EF0BFBA10B55A
:106BA0004C4C4FF4806120460EF0B8FAE1142046B8
:106BB0000EF0B6FAA11420460EF0B0FA6114204689
:106BC0000EF0ACFA2046BDE810404FF480410EF0C4
:106BD000A5BA10B53F4C4FF4806120460EF0A0FAE4
:106BE000E11420460EF09AFAA11420460EF096FA0F
:106BF000611420460EF092FA2046BDE810404FF492
:106C000080410EF08BBA70B5FFF7E3FF374D284691
:106C10000EF070FA1F2414EA901101D0012028E030
:106C2000FFF7BDFF28460EF065FA14EA901101D077
:106C300002201EE0FFF799FF28460EF05BFA14EAE7
:106C4000901101D0032014E0FFF775FF28460EF0E5
:106C500051FA14EA901101D004200AE0FFF751FF25
:106C600028460EF047FA14EA901101D0102000E0F7
:106C700000200023102420251F4A102918D008DCEA
:106C800001290DD002290DD004290DD0082910D1D9
:106C90000CE0202904D0402904D0802909D103E048
:106CA000D38007E0D48005E0D58003E0302100E008
:106CB0004021D180D188084480B2D08070BD10B509
:106CC000FFF7A1FF0C49C888CA68824216D100208C
:106CD00010BD00000020014000080140000C0140F0
:106CE000001001400018014000140140001C014048
:106CF000000430000002300008010020C8600028B5
:106D0000E6D0FDF714F99620FEF707FFFDF7F8F837
:106D10000120DDE710B5FFF776FF3548C088002871
:106D2000D6D00120D4E73EB5314C0025257031483E
:106D30000EF0E0F900F4F870208120894FF6FF7121
:106D400001EA4000208122892BA168460EF00EFD49
:106D500021890120B1F5787F08D06070617841B158
:106D600021896289914203D1257002E06570F5E7BF
:106D70002070208960813EBD1D48002141708170D6
:106D80000181418103218180704710B5FFF7CBFF5E
:106D900017484178C9B10178B9B10189B1F5387F97
:106DA00015D00189B1F5687F13D00189B1F5F07F65
:106DB00011D00189B1F5587F0FD00189B1F5707FED
:106DC0000DD00189E0290CD00DE0002080E70121E1
:106DD00008E0022106E0052104E0032102E004218D
:106DE00000E0062101810A20FDF7A6F801206FE7E7
:106DF000080100200018014020255800C0F3072199
:106E0000C2B2A0F53040A13841F65D0398420FD8D8
:106E1000B039C1EB011000EB411002EB4000FF4A1A
:106E2000A13812F8101002EB4000407840EA01202F
:106E300070472DE9F041FA4D0F4604464FF40076B5
:106E4000314628460EF06AF9394628460EF06AF9AE
:106E5000EF147F2C3946284626D00EF061F94FF406
:106E60008064214628460EF059F90120FEF74AFEBB
:106E7000314628460EF054F90120FEF743FE314614
:106E800028460EF04BF90120FEF73CFE214628462D
:106E90000EF046F9394628460EF040F931462846AC
:106EA000BDE8F0410EF03CB90EF038F9D7E76420A8
:106EB000FEF728BEDB4910B501200870D84CC1028E
:106EC00020460EF02BF90320FEF71CFEA1142046ED
:106ED000BDE810400EF024B9D24910B5002008706A
:106EE000CF4C4FF4805120460EF018F90320FEF7E6
:106EF00009FEE1142046BDE810400EF011B970B54E
:106F00004FF6FF7101EA4001C64E01F4C07400F073
:106F10003F000443307810B3FFF7CCFFC04D4FF46F
:106F2000004128460EF0FAF84FF4804128460EF052
:106F3000F5F83078B0B144F4805128460EF0F2F8FC
:106F40004FF40054214628460EF0EAF80120FEF7DF
:106F5000D9FD21462846BDE870400EF0DFB8FFF7A6
:106F6000BBFFDBE744F40061E7E7AF4910B5087009
:106F70000878B830FFF7C3FFBDE810406420FEF783
:106F8000C1BD00F01F01A94810B501700278A549E4
:106F90000B2A08D200220A700078402100EB400042
:106FA00001EB400005E001220A70007800EB400090
:106FB0004000FFF7A4FFBDE810406420FEF7A2BD2B
:106FC00010B50C46FFF7DDFF2046BDE81040CCE7CA
:106FD00070B54FF6FF7101EA4001924E01F4C074A2
:106FE00000F03F000443307810B3FFF763FF8C4D8F
:106FF0004FF4004128460EF093F84FF480412846A4
:107000000EF08CF83078B0B144F4104128460EF000
:1070100089F84FF40054214628460EF081F80120EB
:10702000FEF770FD21462846BDE870400EF076B8A8
:10703000FFF752FFDBE744F40841E7E72DE9F047AB
:107040000025784F2E464FF001083E70FFF744FFB1
:107050004020FFF754FF05F1B8008146FFF74FFFCE
:1070600000240020FFF7B4FF0320FEF74BFD641C53
:10707000E4B2402CF5D387F80080FFF71BFF4020D7
:10708000FFF73DFF4846FFF73AFF00240020FFF7D7
:107090009FFF0320FEF736FD641CE4B2402CF5D3BD
:1070A0006D1CEDB2082DD0D33E70604806705E496D
:1070B0000E7009780078FFF783FF5D4806805D4811
:1070C00006805D4806805D4806805D4806805D4814
:1070D00006805D4806805D4806805D4806805D4804
:1070E00006805D4806805D480680BDE8F0870F2178
:1070F0007F209EE60C217F209BE670B50D000446A4
:1071000006D0012D07D0022D10D0032D09D110E09B
:1071100004F1800001E004F1C000C1B27F20FFF75C
:1071200088FE4F4804604F48056070BD04F194002C
:10713000F3E704F1D400F0E710B50A20FEF7E2FC13
:1071400010BD49490020087070474749FF2008706A
:107150007047354910B508700878B830FFF7CFFE92
:10716000BDE810406420FEF7CDBC10B52F4C207058
:107170002078402804D2FFF7AFFE2078403002E0AC
:10718000FFF798FE2078FFF7BAFEBDE810406420B4
:10719000FEF7B8BC10B50C46FFF7E7FF2046BDE888
:1071A0001040D6E71F4910B5012008701E4800782E
:1071B000FFF7DBFE4020FFF7A2FEBDE81040642091
:1071C000FEF7A0BC70B51546FFF7FAFE002428466E
:1071D000FFF7FEFE641CE4B2062CF8D370BD70B558
:1071E0000D460446402802D2FFF776FE03E0FFF783
:1071F00061FE403CE4B2B82000EBD500C6B2304698
:10720000FFF77DFE04F140000446FFF778FE3046AC
:10721000FFF775FE2046FFF772FE27E03C6101088C
:107220000020014022370020213700202037002095
:10723000FE360020003700200237002004370020EF
:1072400006370020083700200A3700200C370020BE
:107250000E3700201037002012370020143700208E
:10726000183700201C370020FC36002005F00701ED
:107270000120BDE870408840384380B2A8E670B570
:107280000D460446402802D2FFF726FE03E0FFF732
:1072900011FE403CE4B2B82000EBD500C6B2304647
:1072A000FFF72DFE04F140000446FFF728FE3046AC
:1072B000FFF725FE2046FFF722FE05F00701BDE897
:1072C00070400120884027EA000081E62DE9F04166
:1072D000FF49FD4FFD4DDFF8FC83002401EB001654
:1072E0003888C1B22888C0B2FFF754FF305D98F8E3
:1072F00000104840FFF76CFE3888401CC1B2288857
:10730000C0B2FFF747FF301998F80010007A4840E4
:10731000FFF75EFE2888401C2880641CE4B2082C1D
:10732000DED3ED490888401C0880BDE8F0812DE9D6
:10733000F047DFF8A4930646B9F80000E34D4FF696
:10734000FF7101EAC0002880E4480088DE4F3880E1
:10735000DFF8808300243888C1B22888C0B2FFF7E4
:1073600019FF305D98F800104840FFF731FE38886B
:10737000401CC1B22888C0B2FFF70CFF301998F842
:107380000010007C4840FFF723FE2888401C28801E
:10739000641C102CDFDBB9F80010491CA9F80010A0
:1073A000B9F80010491CA9F800109EE6F0B5CC49C8
:1073B000C0F3842200258B5C1531C0F3441200F029
:1073C0001F00895CC64A89B03332175C8FB302F163
:1073D00034000126405C012B38D0102B36D003221C
:1073E000BF4C7D34655C00EB800003EB8004DFF86C
:1073F000F4E200206B460EEB441C1CF800401C54C9
:10740000401CC0B21F28F8D902EB420000EBC200BA
:1074100001EB4001A03100200EEB41111A5C0C5C25
:1074200022431A54401CC0B21F28F7D9012E0FD096
:107430001EE0FFE7AA4800265130012B405C03D034
:10744000102B01D00122CEE70022CCE70222C7E7B1
:10745000C5EBC50007EB8001F83100200EEB4112AF
:10746000195C145C21431954401CC0B21F28F7D981
:107470001846FFF75CFF09B0F0BD70B505460C4635
:1074800008460DF0ABF8C0B2401E00EBD0700721EB
:10749000A1EB60009049C0B2088090490D808B49F3
:1074A000C0000880884805800DE0641C802802D256
:1074B000FFF70CFF07E014F8011B01EB0020FFF7BA
:1074C0009DFCFFF773FF20780028EED170BD10B54A
:1074D0001446814A1080814A11807C4AC000108085
:1074E000794801800DE0641C802802D2FFF7EEFE8F
:1074F00007E014F8011B01EB0020FFF77FFCFFF70A
:1075000055FF20780028EED110BD0020401C022835
:10751000FCD370473F20F2E470B5734D4FF4807494
:10752000214628460DF0FCFD0A20FEF7F6FA21461A
:1075300028460DF0F3FD0A20FEF7EFFA2146284613
:107540000DF0EEFD634800240470684D2C70FFF7C9
:10755000C3FCC020FFF7D3FC1420FEF7DEFAB820EE
:10756000FFF7CDFC1420FEF7D8FA4020FFF7C7FC48
:1075700001262E70FFF79EFCC020FFF7C0FC1420F0
:10758000FEF7CBFAB820FFF7BAFC1420FEF7C5FAD5
:107590004020FFF7B4FCFFF751FD2E70FFF78AFC87
:1075A0003F20FFF7ACFC2C70FFF796FC3F20FFF765
:1075B000A6FC2C704E4804704E490C700978007877
:1075C000FFF7E8FD44480480444804804A480480AA
:1075D0004A4804803D4804803B4804804848048071
:1075E000484804804848048048480480484804804B
:1075F0004848048070BD70B50C46154606217F20B2
:10760000FFF717FC0120FEF788FA9CB1012C1FD070
:10761000022C2BD0032C0CD1D4217F20FFF709FCA6
:1076200000240020295DFFF704FC641CE4B2142C44
:10763000F7D370BD80217F20FFF7FBFB00240020E3
:10764000295DFFF7F6FB641CE4B2142CF7D370BD80
:10765000C0217F20FFF7EDFB00240020295DFFF70C
:10766000E8FB641CE4B2142CF7D370BD94217F2096
:10767000FFF7DFFB00240020295DFFF7DAFB641C25
:10768000E4B2142CF7D370BD70B50C461546062134
:107690007F20FFF7CEFB0120FEF73FFA9CB1012CC3
:1076A00048D0022C54D0032C0CD1D4217F20FFF7DA
:1076B000C0FB00240020295DFFF7BBFB641CE4B283
:1076C000142CF7D370BD27E00837002006370020C0
:1076D0005E010020FC360020FE360020003700202E
:1076E000987301085E09002000080140223700203D
:1076F00020370020213700200237002004370020E7
:107700000A3700200C3700200E37002010370020E9
:10771000123700201437002080217F20FFF789FBDB
:1077200000240020295DFFF784FB641CE4B2142CC4
:10773000F7D3C7E7C0217F20FFF77BFB00240020A1
:10774000295DFFF776FB641CE4B2142CF7D3B9E78C
:1077500094217F20FFF76DFB00240020295DFFF7B7
:1077600068FB641CE4B2142CF7D3ABE770B5044695
:10777000FFF764FC224DFF21297022A20221002084
:10778000FFF7A5FE3CB122A204210020FFF79FFED7
:107790000020287096E721A2F6E72DE9F0410025A8
:1077A00007462E46FFF786FB4020FFF7A8FB06F1B1
:1077B000B800FFF7A4FB0024785D6D1CFFF708FC00
:1077C000641CE4B2402CF7D3761CF6B2082EE9D341
:1077D000ABE510B5002114A20846FFF778FE12A20F
:1077E00002210020FFF773FE0FA204210020FFF703
:1077F0006EFE0621BDE810400BA2002067E60000E7
:10780000FC360020BCF6B0C5C5EBC0CC00000000C3
:10781000C3A1BDC0B4CFB4D900000000BEF8BDC044
:10782000B4CFB4D900000000202020202020202048
:10783000202020202020202000000000002804D14B
:107840004948818800680DF06BBC7047002804D15E
:107850004548818800680DF061BC704710B500286C
:1078600011D1414C20680DF04FFCB4F904100142D5
:10787000A188206803D0BDE810400DF04FBCBDE8E2
:1078800010400DF04DBC10BD032808D2364A083216
:1078900002EBC00152F8300089880DF041BC7047FE
:1078A000032808D2304A083202EBC00152F83000F7
:1078B00089880DF033BC704770B50446032817D291
:1078C000294D083555F834000DF01EFC014605EB36
:1078D000C400B0F904200A42818855F8340003D06E
:1078E000BDE870400DF01ABCBDE870400DF018BC4A
:1078F00070BD80211D480DF011BC4FF400711B4874
:107900000DF00CBC4FF4807118480DF007BC4FF41B
:10791000806116480DF002BC10B5FFF7EAFFFFF7D3
:10792000ECFFFFF7EFFFBDE81040F0E74FF4806198
:107930000E480DF0F5BB4FF480710C480DF0F0BB14
:107940004FF4007109480DF0EBBB802107480DF0A2
:10795000E7BB10B5FFF7F9FFFFF7F2FFFFF7EBFF0B
:10796000BDE81040E2E700002C740108001C014053
:10797000FCA00CF052BA2DE9F04F8FB01021FE4858
:107980000DF0CCFBFD48007801287DD1FC4F0A2684
:10799000FC4D39684FF0000B91FBF6F02A78303A35
:1079A000904272D106FB10116878303881426CD158
:1079B0001021F1480DF0B4FB3220FEF7AEF8A878A4
:1079C000E978000400EB01202979EF4A0844811A84
:1079D000DFF8B883EE4CDFF8BC93DFF8BCA390422D
:1079E0007ED013DCA2F10302A0EB0201904278D01A
:1079F00007DCEA49401818D0A0F55540DC385BD1C7
:107A00007DE001296ED0022956D140E103296AD0D8
:107A100004DC012968D002294ED1FBE1B1F5A15F58
:107A20007DD0DF48081847D1B9E0DEA00CF006F998
:107A300002200CF0AAF9386890FBF6F030300CF018
:107A4000A4F9386890FBF6F106FB110030300CF019
:107A50009CF9A8780CF099F9E8780CF096F9287957
:107A60000CF093F9D8F80010CF48012912D09AF8F9
:107A70001530CE4A0BB1C2F800B09AF8141009B113
:107A8000C0F800B0006801E036E01CE01168421860
:107A9000C7A105E09AF8141002680029F8D0C6A121
:107AA00001A80DF063FE01A80CF091F903200CF081
:107AB0006CF900200CF069F93220FEF72EF8102145
:107AC000AD480DF02BFBFF2028706870A870E8709F
:107AD000BB4928716871087048708870C87004E0EC
:107AE000FCE085E0ABE0BCE11FE108714871887102
:107AF000C871A24981F800B00FB0BDE8F08FB1A005
:107B00000CF09CF802200CF040F9386890FBF6F07D
:107B100030300CF03AF9386890FBF6F100E019E0EB
:107B200006FB110030300CF030F9A8780CF02DF97C
:107B3000E8780CF02AF928790CF027F9D8F8001029
:107B4000A148012904D0A149006809684218AEE1A2
:107B50000268ACE19EA00CF071F802200CF015F95F
:107B6000386890FBF6F030300CF00FF9386890FB75
:107B7000F6F106FB110030300CF007F9A8780CF094
:107B800004F9E8780CF001F928790CF0FEF80AF114
:107B900021004178009103789AF8202023E08DA0FD
:107BA0000CF04CF802200CF0F0F8386890FBF6F07E
:107BB00030300CF0EAF8386890FBF6F106FB110063
:107BC00030300CF0E2F8A8780CF0DFF8E8780CF030
:107BD000DCF828790CF0D9F80AF1240041780091FA
:107BE00003789AF823207CA101A80DF0BFFD5AE785
:107BF0007DA00CF023F802200CF0C7F8386890FB49
:107C0000F6F030300CF0C1F8386890FBF6F106FB66
:107C1000110030300CF0B9F8A8780CF0B6F8E8781C
:107C20000CF0B3F828790CF0B0F8D8F8000001286F
:107C300003D02168D9F8000025E0226837E16BA065
:107C40000BF0FCFF02200CF0A0F8386890FBF6F077
:107C500030300CF09AF8386890FBF6F106FB110012
:107C600030300CF092F8A8780CF08FF8E8780CF02F
:107C70008CF828790CF089F8D8F80000012804D095
:107C80006168D9F804000A1811E162680FE158A090
:107C90000BF0D4FF02200CF078F8386890FBF6F077
:107CA00030300CF072F8386890FBF6F106FB1100EA
:107CB00030300CF06AF8A8780CF067F8E8780CF02F
:107CC00064F828790CF061F8D8F80000012803D096
:107CD000A168D9F80800D6E7A268E8E045A00BF053
:107CE000ADFF02200CF051F8386890FBF6F0303010
:107CF0000CF04BF8386890FBF6F106FB11003030C1
:107D00000CF043F8A8780CF040F8E8780CF03DF857
:107D100028790CF03AF8D8F80000012803D0E1687F
:107D2000D9F80C00AFE7E268C1E033A00BF086FFA2
:107D300002200CF02AF8386890FBF6F030300CF096
:107D400024F8386890FBF6F106FB110030300CF097
:107D50001CF8A8780CF019F8E8780CF016F82879D7
:107D60004CE0000043646D615F506F7765725F4F58
:107D70006E28293B00000000000801402A3800203E
:107D800038390020DA940020342D4400BC00002053
:107D900050AE00206CAE002060360020ACA8BCFFC6
:107DA000E7E3EFFF43575400E4380020EC380020AD
:107DB0002025376C750000002D25376C75000000FC
:107DC000D0940020442D30001C3900202839002098
:107DD0004441540054494D002532582E2530325824
:107DE0002E25303258000000442D3100442D320041
:107DF000442D3300442D3400442D35000BF0C5FFD5
:107E0000D8F80000012803D02169D9F810003AE71A
:107E100022694CE0FEA00BF011FF02200BF0B5FF31
:107E2000386890FBF6F030300BF0AFFF386890FB0D
:107E3000F6F106FB110030300BF0A7FFA8780BF02D
:107E4000A4FFE8780BF0A1FF28790BF09EFFD8F88B
:107E50000000012803D06169D9F8140013E76269B2
:107E600025E0ECA00BF0EAFE02200BF08EFF386854
:107E700090FBF6F030300BF088FF386890FBF6F19D
:107E800006FB110030300BF080FFA8780BF07DFF6F
:107E9000E8780BF07AFF28790BF077FFD8F800002C
:107EA000012803D0A169D9F81800ECE6A269DAA18B
:107EB000F6E5DB4810B50268DB48DA49DB4C807D2B
:107EC000012A04D0B8B1DAA0FFF701FB1DE018B118
:107ED000DCA0FFF7FCFA09E00A68DDA1E0480DF03C
:107EE00045FC0021DE4A0846FFF7F1FAFFF72DF9BD
:107EF000DCA122680DE00A68DEA1D9480DF036FC4D
:107F00000021D74A0846FFF7E2FAFFF71EF9226878
:107F1000DCA1D3480DF02AFCD14A02210020FFF752
:107F2000D6FABDE81040FFF70CB92DE9F043D94D62
:107F3000D94E99B000242B68D8A1684632680DF05C
:107F400015FCFFF746FCDFF8D892D9F800000128AD
:107F500019D0D8A202210020FFF7B9FAD7A2042134
:107F60000020FFF7B4FA4FF4FA60FDF7D6FDD74FC3
:107F7000FEF70BFF88B1388806280ED2DFE800F044
:107F80000D0A0A0A0A0FD2A202210020FFF79FFA67
:107F9000D2A2E4E7FBF7DAFF53E0002CE8D0FFF7CA
:107FA00018FCDFF84883002798F80000012850D01B
:107FB000FBF7B6FA7F1CFFB20446052FF4D30CF092
:107FC000E8FCCB4909680CF08DFB0CF001FDC94FB2
:107FD000C9A138602B68684632680DF0C7FBCC4EEB
:107FE000CC4D4FF00008346004222146B020C5F883
:107FF0000080FDF7F2FF30600A20FDF78EFD0422BD
:10800000B4203968FDF7E9FF38600A20FDF785FDE7
:10801000042280202968FDF7E0FF28600A20FDF790
:108020007CFD2B68B4A1684632680DF09FFBBAA2B4
:1080300004210020FFF74BFA7B4880F8148080F879
:108040001580FFF7C6FBB94DB94C2868012803D04D
:1080500016E0FBF739F9ADE7FFF72BFFFFF775F8EF
:10806000D9F80000226801284AD0B2A17C480DF05E
:108070007DFB7B4A06210020FFF729FAFFF761F814
:108080002868022839D1D9F80000AE4E654FAE4DB0
:10809000012837D0FFF759F833683A68ABA1704828
:1080A0000DF064FB00216E4A0846FFF710FAFFF757
:1080B00048F8AAA16A4822680DF058FB684A0221D4
:1080C0000020FFF704FAA9A165482A680DF04EFBCD
:1080D000634A04210020FFF7FAF9FFF736F8206819
:1080E00029684218A5A15E480DF040FB5C4A0621B4
:1080F0000020FFF7ECF9FFF724F819B0BDE8F08392
:10810000A2A1B3E7FFF721F833683A68A3A1544866
:108110000DF02CFB0021524A0846FFF7D8F9FFF773
:1081200010F8A2A14E4822680DF020FB4C4A022113
:108130000020FFF7CCF9A1A149482A680DF016FBF1
:10814000474A04210020FFF7C2F9FEF7FEFF20682E
:10815000296842189DA1C6E72DE9F0474D4EDFF88A
:1081600038819AB0002433684CA16846D8F80020C2
:108170000DF0FCFAFFF72DFBDFF8A4A06B4DDAF849
:1081800000000128286802D0022809D00DE002284A
:1081900004D192A202210020FFF799F992A205E0F2
:1081A00095A202210020FFF792F995A20421002058
:1081B000FFF78DF94FF4FA60FDF7AFFC434FFEF780
:1081C000E4FD50B13888062807D2DFE800F0060346
:1081D00003030308FBF7BAFE5EE1002CEFD0FFF7C4
:1081E000F8FADFF80891002799F8000001280DD06F
:1081F000FBF773F97F1CFFB20446052FF4D30CF094
:10820000C8FB834909680CF06DFA03E14BE10000FB
:10821000442D3600442D370025386C7500000000D1
:10822000CC000020E438002060360020F000002060
:108230004C4F41445F43454C4C204552524F5221D4
:1082400000000000B7CEB5E5BCBF20BFA1B7AF00AE
:10825000B9AB20B0D43A2025356C64206B67200080
:1082600032880020B1DE20C0CC3A2025356C642055
:108270006B67200053494C4F203A2025356C642011
:108280006B67200046454544203A2025356C642024
:108290006B6720000C39002018000020765F7A659B
:1082A000726F313D25366C752020636F6D703D25F2
:1082B000366C750053494C4F20320000204D414B25
:1082C00045205A45524F202020203F001001002019
:1082D00020BDCEC0CCB7CE203200000020BFB5C13B
:1082E000A120BDC7C7E0202020203F0000000020C3
:1082F0004C00002040000020765F7A65726F323DAE
:1083000025366C752020636F6D703D25366C7500C9
:108310001C00002010390020205A45524F204649A9
:108320004E49534845442E2E00000000BC0000205A
:108330001C390020544F4441593A2025356C6420A3
:108340006B672000EC3800202839002053494C4F3F
:108350003A25356C642D25356C640000464545444E
:10836000313A25356C64206B670000004645454472
:10837000323A25356C64206B67000000544F44414D
:10838000593A2025356C64206B670000BFC020B4CB
:10839000C33A2025356C64206B672000B9ABB0D49C
:1083A0003A25356C642D25356C640000B1DEC0CCF7
:1083B000B7AE313A25356C64206B6700B1DEC0CCB6
:1083C000B7AE323A25356C64206B6700BFC020B46D
:1083D000C33A2025356C64206B67000020BDCEC0F9
:1083E000CCB7CE2031B9F80020BFB5C1A120BDC7A0
:1083F000C7E0203F000000002053494C4F203100CF
:10840000204D414B45205A45524F203F000000006F
:10841000480000200CF0DCFADFF83C944746C9F82D
:1084200000003368AFF230116846D8F800200DF034
:108430009DF94FF000083C60042221468420C6F8D4
:108440000080FDF7CAFD38600A20FDF766FB0422B4
:108450000820D9F80010FDF7C0FDC9F800000A2077
:10846000FDF75BFB04227C203168FDF7B6FD306030
:108470000A20FDF752FB3368F8A168463A680DF010
:1084800075F9AFF26C1204210020FFF720F8F948CB
:1084900080F8148080F81580FFF79BF92868F64C67
:1084A000012803D017E0FAF7BCFEA3E6FFF701FDB1
:1084B000FEF74BFEDAF80000226801284ED0AFF23A
:1084C0008C11EE480DF052F9EC4A06210020FEF71F
:1084D000FEFFFEF736FE286802283CD1DAF80000DD
:1084E000E74EE84FE84D01283BD0FEF72EFE3368FB
:1084F0003A68AFF2A811E1480DF038F90021DF4ADF
:108500000846FEF7E4FFFEF71CFEAFF2B011DB48B1
:1085100022680DF02BF9D94A02210020FEF7D7FF7F
:10852000AFF2B811D5482A680DF020F9D34A0421DA
:108530000020FEF7CCFFFEF708FE206829684218ED
:10854000D2A1CE480DF012F9CC4A06210020FEF748
:10855000BEFFFEF7F6FD1AB0BDE8F087AFF2D4110A
:10856000AFE7FEF7F2FD33683A68AFF2D011C348C7
:108570000DF0FCF80021C14A0846FEF7A8FFFEF7FF
:10858000E0FDC648AFF2DC110268BC480DF0EEF821
:10859000BA4A02210020FEF79AFFC148AFF2E41167
:1085A0000268B6480DF0E2F8B44A04210020FEF754
:1085B0008EFFFEF7CAFD206829684218B9A1C0E7FE
:1085C00010B5BC4C2068642801D9FFF796F92068E3
:1085D000C82803D9FFF7B4F90020206010BD10B5FA
:1085E000B54C2068322801D9FFF791F9206864283A
:1085F00003D9FFF79BF90020206010BD10B5AF4CE8
:108600002068322801D9FFF77DF92068642803D952
:10861000FFF791F90020206010BD10B5A84C20682C
:10862000642801D9FFF765F92068C82803D9FFF746
:108630008CF90020206010BD2DE9F047A148A24C24
:10864000007801280AD0FAF76BFFA04920600127C3
:108650000025884C884204DDE77503E0FAF734FE14
:10866000F3E7E5750CF095F9994909680CF03AF8CB
:108670000CF0AEF99749994E086097490968401A7D
:10868000974930600968A1F51C52103A17D00CF0D8
:108690008EF980469348894600680CF088F90022DC
:1086A000914B0CF007F942464B460CF091F80CF058
:1086B000CFF97049803148610CF08AF93060011EB1
:1086C0008A4A8B4B8B480CDB126801EB520101602C
:1086D0000168B1FBF2F1016001681A685143016061
:1086E00010E0677549423160126801EB5201016088
:1086F0000168B1FBF2F1016001681A685143016041
:10870000016801B965757C495D4A096849B1637DB5
:10871000006843B1081A10601068002805DB657511
:108720001AE7006804E00844F5E7677510684042FE
:10873000106011E72DE9F0476248634C007801288A
:108740000AD0FAF7CAFE6149206001270025494C8A
:10875000884204DDA77503E0FAF763FDF3E7A5752A
:108760000CF017F9654909680BF0BCFF0CF030F903
:1087700058495A4E086038490968401A59493060CA
:10878000D1F800A0AAF51C52103A16D00CF00FF93F
:108790008046894650460CF00AF90022524B0CF0F4
:1087A00089F842464B460CF013F80CF051F9314968
:1087B000803148610CF00CF93060011E4B4A504B7F
:1087C00050480CDB126801EB520101600168B1FBFB
:1087D000F2F1016001681A685143016010E02775E9
:1087E00049423160126801EB520101600168B1FB3E
:1087F000F2F1016001681A6851430160016801B932
:10880000257541491F4A096849B1237D00684BB16C
:10881000081A10601068002806DB25759CE60068C1
:10882000106099E60844F4E710684042106027752C
:1088300092E610B50B2135A008F009FA4FF47A74CE
:108840002046FDF76AF9FBF7B8FB2046FDF765F90E
:10885000BDE81040FBF7ADBB3C000020765F7A65B9
:10886000726F333D25366C752020636F6D703D252A
:10887000366C7500603600201C39002032880020DC
:10888000EC380020E438002028390020544F4441BF
:1088900059203A25356C64206B670000F0000020F9
:1088A000F4000020BFC020B4C3203A25356C6420FA
:1088B0006B6700000038002004380020FC370020DF
:1088C000F8370020000000204C390020801A0600F4
:1088D0004C0000204839002040000020543900207E
:1088E000B8000020B40000200088C340140000201D
:1088F00010000020F038002010390020480000202F
:108900000C000020E83800200C3900204154244C91
:1089100047545245534554000BF0B5BA10B50446C0
:10892000F3489AB041680091F248F34903680A6835
:10893000F2A101A80CF01AFF01A9204608F04EF997
:108940004FF47A70FDF7E9F81AB010BD2DE9F04147
:10895000F6A00BF073F942F2CD01F7A009F06AFE20
:10896000012850D10021F8480CF0EBFD00214FF018
:1089700080400CF0E6FD0021F4480CF0E2FDF44DDF
:1089800040F225540022214628460CF07BFEF14E91
:108990000022214630460CF075FEEF4F00222146A2
:1089A00038460CF06FFE2146EC4C002220460CF0BD
:1089B00069FE002128460CF0FEFD002130460CF037
:1089C000FAFD002138460CF0F6FD002120460CF09F
:1089D000F2FD002101200CF05DFD4FF0006500214B
:1089E00028460CF0F3FBDA4943F2390008310880DD
:1089F0006968DB4C2161E16028680BF09FFDE0684D
:108A0000BDE8F0410047BDE8F08170B504468EB086
:108A10000522D4A1401C0BF0F1FD002528B308224B
:108A2000D2A1601C0BF0EAFD04F1090600283AD03F
:108A30000622D1A1601C0BF0E1FD002856D00822CF
:108A4000CFA1601C0BF0DAFD002852D00822CFA184
:108A5000601C0BF0D3FD002856D00522CEA1601C6F
:108A60000BF0CCFD00285DD062E0E572A01D0BF09C
:108A7000D4FD014604228C20FDF7AFFAC849024616
:108A80000860C8A168460CF071FE6A460421002007
:108A9000FEF71DFD40F6B830FDF73FF8C5A10220F6
:108AA00009F0CBF844E0A57330460BF0B6FD05F0B5
:108AB0009DFCC14D0146042228607C20FDF78DFA03
:108AC000286030460BF0A9FD0346BCA168462A6821
:108AD0000CF04CFE4FF4FA60FDF71FF8B5A1022030
