:020000040800F2
:1030000008B40020393E01087D3D01087F3D0108DC
:10301000813D0108833D0108853D01080000000055
:10302000000000000000000000000000873D0108D3
:10303000893D0108000000008B3D01088D3D01081D
:103040004F3E01084F3E01084F3E0108B5D9000828
:103050004F3E01084F3E01084F3E01084F3E010818
:103060004F3E01084F3E01084F3E01084F3E010808
:103070004F3E01084F3E01084F3E01084F3E0108F8
:103080004F3E01084F3E01084F3E01084F3E0108E8
:10309000AB3D01084F3E01084F3E01084F3E01087D
:1030A0004F3E01084F3E01084F3E01084F3E0108C8
:1030B000F12E01084F3E01084F3E01084F3E010826
:1030C0004F3E01084F3E01084F3E01084F3E0108A8
:1030D0004F3E0108B73001080F3101088F31010858
:1030E0004F3E01084F3E0108AD3D01084F3E01082B
:1030F0004F3E01084F3E01084F3E01084F3E010878
:103100004F3E01084F3E01084F3E01084F3E010867
:10311000553201084F3E01084F3E01084F3E01085D
:103120004F3E01084F3E01084F3E01084F3E010847
:10313000DFF80CD011F048FB00480047A99C0008BC
:1031400008B4002010B50020FE4A014642F82010C5
:10315000401CC828FAD3FC4A002042F82010401C2A
:10316000C828FAD30121F94811F086FCBDE81040C7
:103170000221F74811F080BC70B5F44E0025012102
:10318000304611F079FC0421304611F064FC00282F
:10319000F9D00421304611F05EFC0028F9D1042159
:1031A000304611F058FC0028F9D00421304611F0C7
:1031B00052FC0028F9D100240121304611F05EFCB8
:1031C000962002F00FFB6D000421304611F043FC05
:1031D00005440121304611F04FFC322002F002FB81
:1031E000641CE4B2182CE7D3284670BD2DE9F047E3
:1031F000DFF85C8300250221404611F03DFCD34FEF
:103200004FF400542146384611F025FC0028F9D02F
:103210002146384611F01FFC0028F9D121463846D6
:1032200011F019FC0028F9D026462146384611F045
:1032300012FC0028F8D10024B1460221464640463F
:1032400011F01CFC962002F0CDFA6D00494638467C
:1032500011F001FC05440221304611F00DFC322032
:1032600002F0C0FA641CE4B2182CE6D32846BDE88C
:10327000F08781E7BAE710B5FFF77EFFB5490B6825
:10328000B3B1B04AC72102EB810454F8044C42F8B0
:103290002140491E0029F6DC591E106003E052F857
:1032A0002140491E20440029F9DCB0FBF3F001E085
:1032B00001220A601421B0FBF1F010BD10B5FFF738
:1032C00095FFA4490B68B3B19F4AC72102EB810463
:1032D00054F8044C42F82140491E0029F6DC591EDE
:1032E000106003E052F82140491E20440029F9DC17
:1032F000B0FBF3F001E001220A601421B0FBF1F011
:1033000010BD2DE9F04F944B0025DFF850B21A782C
:10331000DFF84C92DFF84CA299B04FF0FF38012A49
:103320000ED19149002008708BF8000089F8000048
:103330008AF800008D4908708D4908708D49087021
:1033400030328DA10CA811F0BFFE0CA810F0DDF9F1
:1033500000278B4C0126012002F04BFA2078E8B3BD
:10336000012002F046FA2078C8B38648002727706B
:10337000076085485021854A01803C4602206FF055
:103380002F03115CA1F1300CBCF1090F04D9A1F19C
:10339000410CBCF1050F07D804EB840403EB440493
:1033A000401C0C440728ECDD082841DB022278A1F0
:1033B000764810F0D1FD18B3022276A1734810F0C0
:1033C000CBFD18B3022274A1704810F0C5FD18B3EC
:1033D000022272A16D4810F0BFFD01E002E004E09E
:1033E00000B325E07F1C642FB5DB6749B1F900000D
:1033F00008B1401E088058480278042A1BD047E0D4
:10340000674804608BF80060664810E06648046016
:1034100089F8006065480AE0654804608AF8006041
:10342000644804E0644804605048067063480770CC
:1034300010F0E9FADFE75A485D49614F04685A48DD
:1034400009683F68006823185D185B4B1B6805EB33
:1034500003080125E7B109AF08940BC74548037875
:1034600043480178414804789AF80000CDE9040403
:10347000CDE9061399F800109BF800303A48CDE9E1
:103480000231CDE9008503784EA10CA811F01CFE95
:1034900031490878401CC0B20870042800D90E7069
:1034A0002DB131480670404619B0BDE8F08F544840
:1034B0000068F9E72DE9F04F274B00256C1E1A78BC
:1034C000274E284FDFF8A480B5B0AA46012A11D1B3
:1034D000254981F800A0214981F800A086F800A0C4
:1034E00087F800A088F800A0214981F800A02149B0
:1034F00081F800A0303220A10EA811F0E5FD0EA841
:1035000010F003F9DFF878B04FF00009012002F065
:1035100070F99BF8000018B1012002F06AF904E08C
:1035200009F10109B9F1640FF0DB0B484B4635A1F5
:1035300002780EA811F0C8FD0EA810F03DF858460C
:1035400066E0000088390020A83C002000100140FF
:10355000000C0140EC380020493800204C39002094
:103560004D3900204E390020583900204F390020B5
:103570005039002051390020402D256352000000B1
:103580001E3800204438002038390020CE94002016
:103590002D3100002D3200002D3300002D340000AD
:1035A000783800204A3800207C3800204B38002032
:1035B000803800204C380020843800204D3800200E
:1035C00024390020202825753A25752920256C648A
:1035D0002C2025642E2E25642C25642C25642C2576
:1035E000642C25642C25642C20256C642C20256CEF
:1035F000642C20256C642C20256C642020000000A5
:1036000054390020206C25643D25642E0000000004
:103610009BF80020F549DFF8D8B3002A48D080F89D
:1036200000A0F448F44B4FF00009C0F800A050206F
:10363000088002206FF02F0C195CA1F13002092ADA
:1036400002D9113A052A08D809EB89020CEB42028B
:10365000401C01EB02090728EEDD08285CDB022292
:10366000AFF2D401E44810F077FC38B30222AFF295
:10367000DC01E14810F070FC40B30222AFF2E80137
:10368000DD4810F069FC40B30222AFF2F001DA48E5
:1036900010F062FC40B30222D8A1D74810F05CFCC5
:1036A00048B30222D6A1D44810F056FC58B333E0F8
:1036B000B1F9000090B3401E08802FE0D1490120ED
:1036C000C1F80090D0490870D04923E0D0490120CA
:1036D000C1F800903070CF491CE0CF48C0F800908E
:1036E00001203870CD4915E00120CBF8009088F812
:1036F0000000CB490EE0CB490120C1F80090CA4937
:103700000870CA4906E0CA490120C1F80090C949B9
:103710000870C94981F800A010F075F9DFF81C9312
:10372000C74899F80020006882427DD1C549062823
:1037300008681AD068B1B4480178002975D031788A
:103740000029FBD039780029F8D098F8001000291A
:10375000F4D0AC480168AE4800680144AE48006847
:103760000144DBF800000C18CBE178B1A6480178E1
:10377000E9B13178D9B13978C9B198F80010B1B14F
:10378000A949097899B1AB49097881B19D48016887
:103790009F4800680144A04800680144DBF800002D
:1037A0000144A04800680144A1480068DBE70178B3
:1037B000F1B93178E1B13978D1B198F80010B9B1E7
:1037C00099490978A1B19B49097889B19048006865
:1037D0004100914800680144DBF800000144914831
:1037E0000068014492480068BFE081F800A088E1C9
:1037F000017829B3317819BB397809B398F80010EA
:10380000F1B189490978D9B18A490978C1B17D48AE
:1038100000684100804800680144DBF80000014472
:1038200080480068014401E0C6E18DE080480068FE
:10383000AEE00878401CC0B208700228D5D260E122
:103840000178E1B13178D1B13978C1B998F8001077
:10385000A9B17549097891B17649097879B1694872
:1038600001686B4800680144DBF800000144014432
:103870006C48006801446E4800680C183FE101780C
:10388000E1B13178D1B13978C1B198F80010A9B956
:103890006549097891B16749097879B15948016852
:1038A0005B48006801445C480068014401445D488D
:1038B000006801445E4800680C1893E00178E9B1A3
:1038C0003178D9B13978C9B198F80010B1B15649F9
:1038D000097899B95749097881B14A4801684C4833
:1038E000006801444C4800680144DBF800000144D2
:1038F0004F48006801440C184C499AE700780028AA
:1039000072D030780028FBD038780028F8D098F8AA
:103910000000002868D044480078002864D045485A
:103920000078002860D137480168394800680144B0
:10393000394800680144DBF8000001443948006858
:1039400001440C183C4974E7017881B9317871B1B0
:10395000397861B198F8001049B12F4801682C48B6
:10396000006801EB4001DBF800000C1897E00178DB
:1039700081B1317871B9397861B198F8001049B1E5
:10398000254801681F48006801EB4001DBF8000092
:103990000C18A6E0017881B1317871B1397861B93C
:1039A00098F8001049B117480168194800680144A7
:1039B000DBF8000001EB4004A1E0017831B131787F
:1039C00021B1397811B198F8001011B1017861B1C5
:1039D00043E00C4801680E48006801440E48006846
:1039E00001EB40040E4924E7B8E02DE0383900200F
:1039F0008438002044380020CE9400202D3500006B
:103A00002D360000783800204C3900204A3800203C
:103A10007C3800204B380020803800204C380020B3
:103A20004D38002088380020503900204E380020C2
:103A30008C380020513900204F38002049380020B0
:103A4000F80000200C390020317831B9397821B1E3
:103A500098F8001009B1674809E0017859B9317840
:103A600049B1397839B998F8001021B16248016834
:103A7000DBF8000011E0017831B9317821B13978F3
:103A800011B198F8001021B10178A1B1317841B19C
:103A900011E05948016857480068084444005749F4
:103AA000C7E6397839B998F8001021B1544801684F
:103AB000DBF8000013E0017831B1317821B93978B1
:103AC00011B198F8001031B1017879B1317869B14C
:103AD000397841B10AE04A4801684648006808441C
:103AE00044004849A5E698F8001011B1017851B199
:103AF00013E04348016840480068084444004249D4
:103B000097E601252AE0317839B9397829B998F84A
:103B1000001011B1DBF8000066E0017831B93178AE
:103B200021B1397811B998F8001011B1017811B1AB
:103B300008E0314857E0317821B9397811B198F867
:103B4000001021B1007848B1307810B106E0294862
:103B500049E0387810B998F80000E8B32B480068BD
:103B600050B32B48DBF800C003682A48016821489D
:103B70000068CDE90A0C2048CDE90C130368204801
:103B80000168254890F800C024480078CDE9060C6B
:103B9000CDE9081398F800103B7836782048007873
:103BA00003960094CDE901501E48CDE90431037815
:103BB0001D490EA811F088FA99F800001B4A401C14
:103BC000C0B289F800001268904202DD012089F835
:103BD00000005DB1012000E004E0124908702046B9
:103BE00035B062E40648006884008AE7104800683F
:103BF000F6E70000803800207C3800204A3800209A
:103C0000783800204B3800204C3800202439002020
:103C10008C3800208838002051390020503900208D
:103C20004C39002058390020FC590108F8000020C8
:103C3000543900204FF40061664810F01FBF4FF464
:103C40008051644810F01ABF4FF40051614810F0E1
:103C500015BF1021604810F011BF4FF400615D489E
:103C600010F00ABF4FF480515A4810F005BF4FF4CE
:103C70000051584810F000BF1021574810F0FCBE0A
:103C800010B5FFF7EAFFFFF7EDFFFFF7F0FFBDE824
:103C90001040F1E7012806D0022805D0032804D0FF
:103CA000042803D1D5E7C5E7C9E7CDE77047012868
:103CB00006D0022805D0032804D0042803D1DBE76E
:103CC000CBE7CFE7D3E770474FF48051434810F07C
:103CD000D3BE08B54FF48050ADF8000003208DF836
:103CE000020010208DF8030069463C4810F03CFEAD
:103CF000FFF7EAFF08BD4FF48051384810F0BEBE10
:103D000010B50446FFF7F7FF204601F076FDBDE849
:103D10001040D9E710B500241420FFF7F1FF05206B
:103D200001F06BFD641C072CF6DB10BD20212A4836
:103D300010F0A4BEFAE70221264810F09FBE02212F
:103D4000244810F099BE2021234810F095BE10B5EC
:103D50002021214810F090FEBDE81040F3E74FF419
:103D600000711D4810F08ABEF9E74FF400711A483F
:103D700010F082BEF9E7704770470421154810F033
:103D80007BBE0421134810F079BE0821114810F0C1
:103D900073BE08210F4810F071BEE6E7DFE74FF46D
:103DA00080710D4810F06ABE4FF480710A4810F01F
:103DB00063BE0421074810F05FBE0421054810F0DF
:103DC0005DBE0821034810F057BE0821014810F0DD
:103DD00055BE000000140140000C014000100140DD
:103DE0002DE9F04F002489B0264603F022FBDFF8CE
:103DF000F883D8F80000012857D00021FBA208461C
:103E000003F095F902F0D1FFFCA20621002003F097
:103E10008EF902F0C6FF0025FB4FFFF72CFA10F0D9
:103E20006FFA10F083FA6D1CEDB23860642DF4D394
:103E3000F64D6869286410F063FA696C10F000F9B7
:103E400010F074FAA863F2A168463A6811F03CF9E0
:103E500068460FF0A1FBF2A168462A6C11F034F914
:103E600068460FF099FBF2A16846AA6B11F02CF995
:103E700068460FF091FB686C10F085FA02460B461D
:103E8000EFA1684611F020F968460FF085FBDFF8D6
:103E9000C0A3B946DFF8BCB302F0ABFD38B3BAF843
:103EA00000005746012809D011E00021EAA2084687
:103EB00003F03DF902F079FFEBA2A6E7286C10F0C1
:103EC0001FFA696C10F0BCF810F030FAA86338885B
:103ED000022803D0388805280AD00CE0686910F061
:103EE0000FFA696C10F0ACF810F020FAA86302E049
:103EF00001246FF06406FFF7BEF9C9F8000010F066
:103F0000F6F9696C10F09CF810F010FACBF800008C
:103F1000A96B401A296900EB5100B0FBF1F2A868C7
:103F20004243D8F8000001280ED0D2A1684611F013
:103F3000CBF86A460221002003F0F9F8002CABD040
:103F400009B03046BDE8F08FCEA1EFE72DE9F0478C
:103F500088B003F06EFAAD4C206B10F0D1F9054635
:103F6000E06A10F0CDF9294610F0A0F880466169AA
:103F7000E069401A2062C7A00FF00EFBC8A1684696
:103F8000626911F0A1F868460FF006FBC7A1684608
:103F9000E26911F099F868460FF0FEFAC6A168468A
:103FA000226A11F091F868460FF0F6FA404610F0D8
:103FB000EAF98946064632464B46C2A1684611F0E8
:103FC00083F868460FF0E8FAA06A10F099F94146C4
:103FD00010F06CF810F0C3F905460246BCA1684623
:103FE00011F072F868460FF0D7FA606910F088F99E
:103FF0000746206A10F084F9414610F021F839464E
:104000000FF0C6FF10F0ABF90246B5A1684611F0FB
:104010005BF868460FF0C0FA4146B54810F046F824
:10402000824610F0B0F902460B46B2A1684611F084
:104030004BF868460FF0B0FAB14AB2A1684611F0E9
:1040400043F868460FF0A8FA206A6FF0C107A8424B
:1040500009D2B0A20121002003F069F840F6B8307F
:1040600001F0CBFB0BE010F04BF90146504610F08D
:10407000B9F908D2ABA20221002003F058F8384663
:1040800008B0BDE8F0878CA16846226A11F01CF8E0
:1040900068460FF081FAA9A16846A26A11F014F8E7
:1040A00068460FF079FA32464B4686A1684611F011
:1040B0000BF868460FF070FA206A10F021F94146BB
:1040C0000FF0BEFF0546A06A10F01AF929460FF05E
:1040D000EDFF606410F057F902460B4658A16846A0
:1040E00010F0F2FF68460FF057FA606910F008F917
:1040F000616C0FF0A5FF10F019F9A0633A48006851
:10410000022802D0012802D006E091A200E094A289
:104110000221002003F00BF84FF4FA64204601F06E
:104120006CFB204601F069FB6FF06400A8E72DE905
:10413000F047DFF840A29AB004460026DAF8008083
:1041400003F077F98C48284F304D0068012818D0CB
:1041500002F027FE386801282FD06879002C40D063
:1041600001283FD085A20021084602F0E0FF02F0BE
:1041700018FE86A168462A6B10F0A6FF6A46022147
:1041800056E102F012FE3868012802D09CB183A2E9
:10419000E9E74CB1002184A2084602F0C8FF02F012
:1041A00000FE84A12A6B15E0002186A2084602F0D9
:1041B000BEFF87A242E189A2D5E7687984B10128D0
:1041C00011D089A20021084602F0B1FF02F0E9FDFA
:1041D0002A6B89A1684610F077FF6A46022119E12F
:1041E00014E121E15FE11DE1C80000204355525276
:1041F000454E54205745494748540000454E5445C4
:10420000523A4E455854000040390020000000202A
:104210007261775F64617461203A20256600000056
:10422000765F616463315F6F7267203A20256400B6
:10423000765F6164635F6F7267203A2025640000D7
:10424000676E66466163746F72203A2025660000CF
:10425000040100203C390020C7F6C0E7B9ABB0D458
:10426000C8AEC0CE00000000C8AEC0CEC5B03AB4E3
:10427000D9C0BD005745494748543A25366C64209B
:104280006B670000B9ABB0D43A25366C64206B671D
:104290000000000031323334353637383930000011
:1042A000565F5A45524F3D256C640000565F465597
:1042B0004C4C3D256C640000565F5350414E3D25EB
:1042C0006C640000726174696F3D25660000000037
:1042D0006C6F775F6C696D6974203A20256400000B
:1042E000686967685F6C696D6974203A20256400AD
:1042F0000024744B6572723235203A202566000026
:104300000024F40046554C4C5F4C494D4954203A2A
:10431000202564004552524F522032342021212161
:10432000000000004552524F52203235203A2053AF
:1043300050414E204849474800000000765F695FC1
:104340007265736F6C7574696F6E203A2025640016
:104350002020535543434553532021212000000082
:1043600020B9ABB0D4C1B6C1A420BCBAB0F82121E9
:1043700000000000EC380020B8000020205350411D
:104380004E2043414C283229000000002055504C5B
:104390004F41442025356C64206B67002053504109
:1043A0004E2043414C0000002020BDBAC6C7C1B614
:1043B000C1A4000025356C64206B67BFC3B8AEBCD8
:1043C000BCBFE4002020BFB5C1A1C1B6C1A400009C
:1043D00020C8AEC0CE203ABDC3C0DB00205A455233
:1043E0004F2043414C00000020BDBAC6C7C1B6C132
:1043F000A4283229000000002025356C64206B675A
:1044000020BFC3B8AEBCBCBFE4000000012807D089
:10441000F7A20021002002F08AFE02F0C6FCC8E6E6
:10442000F7A2F6E7FAA2CDE601283AD0FCA20021D5
:10443000002002F07CFE02F0B8FCFDA20621002064
:1044400002F075FE02F0ADFC0024FEF714FF641CC0
:10445000E4B2142CF9D3A9464D4699F80500012879
:1044600023D0FEF72BFF044638682246012827D0C8
:10447000F3A1684610F028FE6A460421002002F0ED
:1044800056FE02F0B6FA28B1F0480088052819D087
:10449000FFF740FC002EDFD0CAF8008020461AB09B
:1044A000EFE5EBA2C3E7EEA25DE6FEF7E4FE04460D
:1044B00038682246012801D0EDA1DAE7EFA1D8E75C
:1044C000F2A1D6E70024687901260128254606D105
:1044D000FEF7D1FE6D1C0444322DF9DB05E0FEF73A
:1044E000EDFE6D1C0444322DF9DB322094FBF0F418
:1044F000D0E72DE9F04F4FF000098BB04D464C4608
:1045000002F0CCFB02F095FFDFF8908398F80500ED
:1045100001287DD0D8F83460E1484FF00A0A96FBB4
:10452000F0F100FB116142F2107091FBF0F1ADF877
:10453000201096FBF0F100FB11614FF47A7091FBB3
:10454000F0F1ADF8221096FBF0F100FB1161642050
:1045500091FBF0F1ADF8241096FBF0F100FB116136
:10456000504691FBF0F1ADF8261096FBFAF10AFBEC
:104570001160ADF8280002F018FCCA48CA4F006864
:104580000128386856D0012898F805005ED0012827
:1045900072D0C6A20021084602F0C9FD3246C7A16A
:1045A000684610F091FD6A460421002002F0BFFD2C
:1045B000AFF2B8320621002002F0B9FD02F0F1FBA3
:1045C00040F6C41B08AEBDF9201042F21070414302
:1045D000BDF922006D1C00EB4002C2EBC01001EBE4
:1045E000C001BDF924005D4500EBC00202EB0010E4
:1045F00001EB8001BDF9260000EB800001EB4000DB
:10460000BDF9281000EB01083AD13868012800E014
:104610000DE0424632D0A9A1684610F055FD6A4629
:104620000421002002F083FD02F0BFFB3CE0D8F83B
:104630002C6071E7012801D0A5A2ABE70021A8A258
:10464000084602F074FD3246A9A108E0012811D005
:10465000ACA20021084602F06AFD3246ADA16846D0
:1046600010F032FD6A460421002002F060FDAEA287
:10467000A0E701E0B0A2ECE7B3A28BE79CA1CBE7F7
:1046800041F2883085421DDD002502F08AFB386842
:104690004246012824D089A1684610F015FD6A46DB
:1046A0000421002002F043FDC4F10400AAA136F960
:1046B0001020684610F008FDC4F10C006A46042181
:1046C00002F035FD02F095F918B360480088012822
:1046D00008D0022813D004281CD0052821D124E0BA
:1046E00083A1D9E7C4F1040036F81010491C09B2BF
:1046F00091FBFAF326F810100AFB131107E0C4F13E
:10470000040036F9101009B1491E00E0092126F80D
:10471000101006E0641CA0B20521B0FBF1F201FB11
:104720001204B9F1000F3FF44EAF40460BB009E45C
:104730002DE9F047002792B006463C4602F079FE8C
:1047400002F033FB58480068012850D083A20021B2
:10475000084602F0ECFC02F024FB51484FF00A0836
:1047600096FBF0F100FB116142F2107091FBF0F149
:10477000ADF8341096FBF0F100FB11614FF47A7044
:1047800091FBF0F1ADF8361096FBF0F100FB1161F2
:10479000642091FBF0F1ADF8381096FBF0F100FBCE
:1047A0001161404691FBF0F1ADF83A1096FBF8F13B
:1047B00008FB1160ADF83C0040F6B83A0DAEBDF90B
:1047C000341042F210704143BDF9360000EB400254
:1047D000C2EBC01001EBC001BDF9380000EBC00214
:1047E00002EB001001EB8001BDF93A00C0E0D7E018
:1047F00020BFB5C1A1C1B6C1A42832290000000064
:1048000020BFB5C1A1C1B6C1A42831290000000054
:1048100020BDBAC6C7C1B6C1A42831290000000016
:10482000205A45524F2043414C28322900000000B5
:1048300020454E5445523A53544152540000000012
:104840004144432832293A25376C64000401002092
:10485000205A45524F2043414C2831290000000086
:10486000205350414E2043414C2831290000000084
:104870004144433A25376C640000000020C3E2B78E
:10488000C2B0AA3A25376C6400000000C3E2B7C288
:104890002832293A25376C6400000000000000200F
:1048A000A0860100B8000020C8000020204C4F4125
:1048B000442057454947485428322900574549471D
:1048C0004854203A2530356C64206B6700000000A6
:1048D000204C4F41442057454947485400000000B0
:1048E00020BFC3B8B1B9ABB0D420BCB3C1A40000E1
:1048F00020B9ABB0D4B0AA3A2530356C64206B67D0
:104900000000000020BFC3B8B1B9ABB0D428322931
:104910000000000020B9ABB0D4B0AA203A25303551
:104920006C64206B6700000020C8AEC0CEC5B03AF2
:10493000B4D9C0BD0000000020BFC3B8B1B9ABB04E
:10494000D428312900000000204C4F414420574515
:10495000494748542831290025316400202043412B
:1049600050414349545920202020202000000000BD
:1049700000EB800001EB4000BDF93C106D1C00EB2A
:10498000010955450ED14A46F8A1684610F09CFB36
:104990006A460421002002F0CAFB02F006FA12E087
:1049A000F7A2D4E641F2707085421BDD002502F0CB
:1049B000F8F94A46EDA1684610F086FB6A460421E4
:1049C000002002F0B4FBC4F1040036F91020AFF26D
:1049D0007801684610F078FBC4F10C006A460421A7
:1049E00002F0A5FB02F005F808B3EA4800880128A8
:1049F00006D0022811D004281AD005281FD121E0A2
:104A0000C4F1040036F81010491C09B291FBF8F308
:104A100026F8101008FB131107E0C4F1040036F962
:104A2000101009B1491E00E0092126F8101006E017
:104A3000641CA0B20521B0FBF1F201FB1204002FAF
:104A40003FF4BDAE12B04846BDE8F0872DE9F04115
:104A5000A0B000261822D04919A80FF03DFA00276F
:104A600002F0A3F9DFF83483CD48CE4CD8F800101B
:104A70000068012904D001280CD0022809D00EE0DA
:104A8000012802D0022802D009E0C7A203E0607921
:104A9000FBE76079C8A20021084602F048FB02F05B
:104AA00080F9607919AD01284FF0000005D0E16868
:104AB00055F820208A420AD00DE0A16855F8202040
:104AC0008A4204D0401CC0B20628F7D307E006286B
:104AD00005D244B204E0401CC0B20628E8D300244A
:104AE000D8F8000055F82420012822D0B6A1684645
:104AF00010F0EAFA6A460221002002F018FBB5A283
:104B00000421002002F013FB02F04FF9B5A20621A8
:104B1000002002F00CFB02F044F901F06AFFE0B360
:104B20009C480088012816D002281CD0052825D1D1
:104B300021E0B0A1684610F0C7FA6A4602210020C1
:104B400002F0F5FAAEA20421002002F0F0FA02F021
:104B50002CF9AFA2DBE7641C64B2052C0EDD052442
:104B6000FFF7D8F80AE0641E64B2002C06DAFFF7FB
:104B7000D1F8002402E055F824700126D8F800008E
:104B800055F8242001280ED08FA1684610F09CFA19
:104B90006A460221002002F0CAFA002EBDD020B0E1
:104BA0003846BDE8F08193A1EFE710B58EB002F072
:104BB00075F802F03EFC79480068012846D098A2BA
:104BC0000021084602F0B3FA4FF47A7000F015FEA7
:104BD000FFF73CFF734CA060E06AFFF7A9FD0A22D3
:104BE0002261E06292A1684610F06EFA68460EF00B
:104BF000D3FCA168E06AB0FBF1F294A1684662625E
:104C000010F062FA68460EF0C7FC626A20694243FF
:104C1000AFF6D8016846A26210F056FA68460EF068
:104C2000BBFC0020FFF783FA6061FFF762FC2063A2
:104C300002F0B7F80120FFF77AFAE061FFF786F992
:104C4000FFF7CEF801F0F7FA0EB010BD84A2B7E777
:104C50002DE9F047002488B0264602F0EAFB4F48D1
:104C6000006801285CD0AFF67C220021084602F0E3
:104C70005EFA02F09AF8AFF67C220621002002F0DC
:104C800056FA02F08EF80025794FFEF717FB0FF069
:104C900037FB0FF04BFB6D1CEDB23860642DF4D385
:104CA000404DA86928640FF02BFBA96C0FF0C8F9E0
:104CB0000FF03CFBA863AFF6A82168463A6810F0F5
:104CC00003FA68460EF068FCAFF6AC2168462A6C21
:104CD00010F0FAF968460EF05FFCAFF6AC216846BA
:104CE000AA6B10F0F1F968460EF056FCA86C0FF0B4
:104CF0004AFB02460B465FA1684610F0E5F968469C
:104D00000EF04AFCDFF88C90B846DFF87CA101F089
:104D100070FEF8B1B9F800004F4601280BD013E03F
:104D2000AFF6CC220021084602F001FA02F03DF86D
:104D3000AFF6CC22A1E7286C0FF0E2FAA96C0FF0D5
:104D40007FF90FF0F3FAA8633888022803D0388877
:104D500005280AD09DE0A8690FF0D2FAA96C0FF0DF
:104D60006FF90FF0E3FAA86393E08FE056414C55DA
:104D700045203A202530356C6420202000000000BA
:104D800020C3D6B4EBB9ABB0D420BCB3C1A42020AF
:104D90000000000004010020405A0108C800002063
:104DA000B80000200000002020C7D1B4ABC0C7B0BD
:104DB000AA20BCB3C1A40000202044495649494F51
:104DC0004E20534554200000204449563A25326471
:104DD000206B67002055502D444F574E3A53454C99
:104DE0004543540020454E5445523A204E455854B0
:104DF0000000000020B0AA3A253264206B67000052
:104E0000C0A72CBEC6B7A1C5B03A20BCB1C5C3006F
:104E100020C8AEC0CEC5B03A2020B4D9C0BD000075
:104E200020202043414C20204D4F444520200000AD
:104E3000765F65695F6D756C7469706C795F6661CA
:104E400063746F72203A202564000000765F655F0E
:104E50007265736F6C7574696F6E203A20256400FB
:104E60002020B9ABB0D4C1B6C1A4202000000000FE
:104E700040390020676E66466163746F725F32204E
:104E80003A202566000000003C39002001246FF024
:104E90006406FEF713FAC8F800000FF028FAA96CB0
:104EA0000FF0CEF80FF042FACAF80000A96B401AD2
:104EB000296900EB5100B0FBF1F2E868F7A1424329
:104EC000684610F001F96A460221002002F02FF92D
:104ED000002C3FF41CAF304608B0B5E52DE9F04793
:104EE00088B002F0A6FAF04C206B0FF009FA0546E4
:104EF000606B0FF005FA29460FF0D8F88046D4E928
:104F00000610401A2062AFF674400EF045FBAFF673
:104F100070416846A26910F0D7F868460EF03CFB75
:104F2000AFF678416846E26910F0CEF868460EF0B8
:104F300033FBAFF67C416846226A10F0C5F868463C
:104F40000EF02AFB40460FF01EFA8946064632460E
:104F50004B46AFF69041684610F0B6F868460EF042
:104F60001BFBA06A0FF0CCF941460FF09FF80FF041
:104F7000F6F905460246AFF6A841684610F0A4F8D7
:104F800068460EF009FBA0690FF0BAF90746206ADF
:104F90000FF0B6F941460FF053F839460EF0F8FF1E
:104FA0000FF0DDF90246AFF6C841684610F08CF804
:104FB00068460EF0F1FA4146BC480FF077F8824699
:104FC0000FF0E1F902460B46AFF6D841684610F003
:104FD0007BF868460EF0E0FAB54AAFF6D84168466D
:104FE00010F072F868460EF0D7FA206A6FF0C10729
:104FF000A84202D2AFA2012109E00FF081F90146D7
:1050000050460FF0EFF907D2AFF6E8420221002038
:1050100002F08DF838465FE7AFF664516846226AC1
:1050200010F052F868460EF0B7FAAFF6F041684655
:10503000A26A10F049F868460EF0AEFA32464B46C6
:10504000AFF68051684610F03FF868460EF0A4FABB
:10505000206A0FF055F941460EF0F2FF0546A06AAE
:105060000FF04EF929460FF021F8A0640FF08BF9EC
:1050700002460B46AFF20421684610F025F8684658
:105080000EF08AFAA0690FF03BF9A16C0EF0D8FF80
:105090000FF04CF9E0638DA20221002002F047F8E6
:1050A0004FF4FA64204600F0A8FB204600F0A5FB70
:1050B0006FF0640010E710B58EB002F0BAF900216D
:1050C00086A2084602F033F84FF47A7000F095FBA0
:1050D000874909200860FFF7B9FC734CE060E06A7B
:1050E000FFF726FB0A22AFF2B8212261606368460F
:1050F0000FF0EAFF68460EF04FFAE168606BB0FB14
:10510000F1F2AFF2B821684662620FF0DDFF684647
:105110000EF042FA626A20694243AFF6E0516846F7
:10512000A2620FF0D1FF68460EF036FA0020FEF7BB
:10513000FEFFA061FFF7DDF920630120FEF7F7FF16
:10514000E061FFF7CBFEFFF783FD01F074F87BE52C
:105150002DE9F041AAB000264022664919A80EF0B8
:10516000BBFE002701F09AFD02F063F901F01DFE7D
:10517000DFF88481D8F80000012813D05FA2002155
:10518000084601F0D4FF01F00CFE474919AD4879FB
:1051900001284FF0000007D0496B55F820208A42C3
:1051A0000CD00FE059A2EAE7C96A55F820208A42DC
:1051B00004D0401CC0B20E28F7D307E00E2805D259
:1051C00044B204E0401CC0B20E28E6D30024D8F854
:1051D000000055F82420012825D050A168460FF082
:1051E00073FF6A460221002001F0A1FF01F0DDFDFE
:1051F000AFF220420421002001F099FFAFF21C42DF
:105200000621002001F093FF01F0CBFD01F0F1FB3E
:1052100000283ED044480088012818D002281ED01B
:10522000052827D123E041A168460FF04DFF6A46CB
:105230000221002001F07BFFAFF23C42042100205C
:1052400001F075FF01F0B1FDAFF23C42D8E7641CFC
:1052500064B20F2C0EDD0F24FEF75CFD0AE0641E25
:1052600064B2002C06DAFEF755FD002402E055F882
:1052700024700126D8F8000055F8242001285BD0BE
:1052800026A168460FF020FF6A460221002001F0A7
:105290004EFF002EBAD038462AB082E453494C4F14
:1052A0005F323A25376C6400000000200024744B04
:1052B0000024F4004552524F52203234203A2053F9
:1052C00050414E204C4F57200000000020205355E5
:1052D000434345535320202020202000202020201D
:1052E00043414C20204D4F44452020200000000029
:1052F000EC380020585A0108C800002053455420BB
:10530000434150414349545900000000C3D6B4EB17
:10531000B9ABB0D420BCB3C1A400000020434150BD
:105320003A253564206B67000401002020B0AA3ABA
:10533000253564206B670000AFF21001A1E72DE96D
:10534000FE4FDFF880B2DFF88092A04EA04C80467E
:1053500001254FF0000A9F4F402138460EF008F912
:105360002D2138460EF004F92179384630310EF0FF
:10537000FFF8522138460EF0FBF80D2138460EF0AA
:10538000F7F80A2138460EF0F3F82079401CC0B235
:105390002071042800D92571C82000F02EFA9BF84E
:1053A000001000297DD08C488BF800A05746C0F82B
:1053B00000A099F801004946312806D0322828D0AB
:1053C00033284AD0342823D16CE08878834A303897
:1053D0005043CA7840F271235A4300EB0212087915
:1053E00000EB4003C3EBC01002EBC002487900EBB6
:1053F000C00303EB001002EB8002887999F80710D4
:1054000000EB800002EB400008443044E06425706B
:105410006BE08878714A30385043CA7840F2712383
:105420005A4300EB0212087900EB4003C3EBC010B3
:1054300002EBC002487900EBC00303EB001002EB63
:105440008002887999F8071000EB800002EB400099
:10545000084430442065657047E088785F4A3038FA
:105460005043CA7840F271235A4300EB0212087984
:1054700000EB4003C3EBC01002EBC002487900EB25
:10548000C00303EB001002EB8002887999F8071043
:1054900000EB800002EB4000084430446065A570DA
:1054A00023E04EE088784D4A30385043CA7840F2C5
:1054B00071235A4300EB0212087900EB4003C3EB5F
:1054C000C01002EBC002487900EBC00303EB0010F0
:1054D00002EB8002887999F8071000EB800002EB5C
:1054E000400008443044A065E570D4E9132C636D96
:1054F00002EB0C00C118A06DB8F1000F0144E1658A
:1055000012D0CDF800C0CDE9013013460A4634A1CF
:105510003F480FF0D9FDD4E91501CDE90001D4E9E8
:1055200013233CA13A4804E0CDE90030634639A199
:1055300037480FF0C9FD27706770A770E7700EF04D
:1055400062FA01F0EFF900283FF405AF3748008810
:1055500014287FF400AFE06DBDE8FE8F2DE9F04127
:105560001B4C00252E4632A12948226B0FF0ACFDC2
:10557000246B364FDFF8B48001F0D4F9D0B1B8F81D
:105580000000385C0C2810D2DFE800F006060606A2
:105590000606060606060C0E04EB8401012600EB47
:1055A000410402E0002400E00125224628A1184819
:1055B0000FF08AFD002DDFD0002E00D02046BDE880
:1055C000F08100001E380020CE940020B0DCF7FFF0
:1055D000000000200044004044380020A086010064
:1055E0005350414E2053554D3D25366C752C20317E
:1055F0003D25366C752C20323D25366C752C2033BC
:105600003D25366C752C20343D25366C7500000028
:10561000C83F00202825366C752C25366C752C2546
:10562000366C752C25366C752900000002010020AF
:1056300034202D2053657474696E675F5765696700
:105640006874203D2025366C752000000C01002078
:1056500034202D2053657474696E745F57656967D3
:105660006874203D2025366C7520000010B54FF47D
:10567000803420460FF018FB0FF072FB63490128BD
:1056800008701CD100200FF005FB00200FF036FB46
:10569000A0110FF029FB4FF4E01120460FF03EFB64
:1056A00001200FF035FB39200FF0D4FA0028FAD092
:1056B00002200FF04BFB0FF0E5FA0828FBD1012187
:1056C00004200FF065FA012108200FF061FA012192
:1056D00010200FF05DFA012120200FF059FA01216E
:1056E00040200FF055FA012180200FF051FA0121DE
:1056F00008020FF04DFA012108460FF049FA012186
:1057000008460FF02DFA012102200FF029FA01219D
:1057100048030FF03DFA012188030FF039FA012107
:1057200048040FF01DFA012188040FF019FA012135
:10573000C8040FF015FA012103200FF005FA01212A
:105740004FF402400FF024FA012148050FF008FA47
:105750000121BDE8104048070FF002BA08B5C0208B
:10576000ADF8000003208DF802001C208DF8030026
:10577000694627480FF0F8F808BD38B54FF4405196
:105780004FF000600FF0D0F94FF4C0600FF0C2F995
:1057900014208DF8000000248DF801408DF802409F
:1057A00001258DF8035068460FF07AF903208DF833
:1057B00000008DF801408DF802408DF803506846D6
:1057C0000FF06EF938BD41061248826942F00102BD
:1057D00082611148426822F0E062426042680A43F6
:1057E0004260704702E00A21491EFDD2401EFAD2F3
:1057F00070474FF47A714843F4E742F2107302E0C5
:105800001946491EFDD2401EFAD27047A80000205A
:10581000000C01400010024000000140024611B996
:10582000012070475043491E11F0FF01FAD1704723
:105830001FB50020ADF804004BF6FF70ADF8060070
:10584000A020ADF808004FF48060ADF80A00000118
:10585000ADF80C00FD48FE4C0090694620460EF065
:1058600005F9012120460EF067F91FBD10B5FFF7BD
:10587000DFFFF849A220088010BD38B50020ADF840
:105880000000F34CF34D012120460EF073F9142172
:1058900020460EF0BEF9ADF800002978002220461F
:1058A0000EF0AFF9142120460EF0B3F98007EAD5C7
:1058B000E94920460EF024FA2046BDE8384001218F
:1058C0000EF062B92DE9F041E14E884605461446D6
:1058D000012130460EF04EF9E04F304639460EF0C9
:1058E000F7F90028F9D0DB480022017830460EF0A5
:1058F00088F9DB4F304639460EF0EAF90028F9D036
:10590000414630460EF078F9D54FBF1C3946304637
:105910000EF0DEF90028F9D00AE0297830460EF0C2
:105920006BF96D1C394630460EF0D2F90028F9D0DB
:105930002000A4F10104E4B2EFD13046BDE8F0410B
:1059400001210EF021B92DE9F041054611F00F00BB
:105950000C4602F00F01C0F11007C2F3071688468B
:1059600011D08EB1D01BC0F3071600F00F088FB313
:105970003A4621462846FFF7A5FFFFF77EFFE019CC
:10598000C4B23D4426E05EB90A4612E01022214628
:105990002846FFF797FFFFF770FF1034E4B2103589
:1059A0003000A6F10106F6B2F0D15FEA080017D088
:1059B000024621462846FFF785FFBDE8F0415CE737
:1059C000102221462846FFF77DFFFFF756FF1034CF
:1059D000E4B210353000A6F10106F6B2F0D1E4E7EA
:1059E000BDE8F0812DE9F041994E0F460546144679
:1059F000012130460EF0BEF8DFF8608230464146A5
:105A00000EF066F90028F9D092480022017830465D
:105A10000EF0F7F8DFF84882304641460EF058F9AC
:105A20000028F9D0F9B230460EF0E6F88C4FBF1CD2
:105A3000394630460EF04CF90028F9D00AE02978B2
:105A400030460EF0D9F8AD1C394630460EF040F91C
:105A50000028F9D02000A4F10104A4B2EFD130460F
:105A6000BDE8F04101210EF08FB82DE9F041054667
:105A700011F00F000C4602F00F01C0F11007C2F345
:105A80000716884612D096B1D01BC0F3071600F057
:105A90000F0897B33A4621462846FFF7A3FFFFF7C2
:105AA000ECFEE01984B205EB470526E05EB90A4634
:105AB00012E0102221462846FFF794FFFFF7DDFE93
:105AC0001034A4B220353000A6F10106F6B2F0D1B0
:105AD0005FEA080084D0024621462846FFF782FF8D
:105AE000BDE8F041C9E6102221462846FFF77AFFBB
:105AF000FFF7C3FE1034A4B220353000A6F1010632
:105B0000F6B2F0D1E4E76BE72DE9F041504C0F46D7
:105B10000546012120460EF02DF8504E2046314614
:105B20000EF0D6F80028F9D04A4800220178204625
:105B30000EF067F84A4E204631460EF0C9F80028AC
:105B4000F9D0394620460EF057F82646444CA41C9E
:105B5000214630460EF0BCF80028F9D029783046AE
:105B60000EF04AF8214630460EF0B2F80028F9D07F
:105B70003046BDE8F04101210EF006B82DE9F047AE
:105B8000334F8A4605461446012138460DF0F2FF90
:105B9000324E384631460EF09BF80028F9D0DFF837
:105BA000B4800022384698F800100EF02AF8DFF88A
:105BB000B090384649460EF08BF80028F9D0012104
:105BC00038460DF0B9FF514638460EF015F8DFF8AB
:105BD000909009F10209494638460EF079F80028FC
:105BE000F9D0012138460DF0C5FF314638460EF098
:105BF0006FF80028F9D098F8001001223E46384688
:105C00000DF0FFFF154F7F1C394630460EF060F84F
:105C10000028F9D0114F3F37BCB1012C07D100212A
:105C200030460DF0BBFF012130460DF0ADFF394687
:105C300030460EF04DF80028EED030460DF0DEFF75
:105C4000641E05F8010BA4B2E6E70BE0A086010094
:105C500000540040AC0000200004001001000300CC
:105C6000820007003046BDE8F04701210DF096BFE5
:105C7000F8B50C4607464FF48076154600213046AD
:105C80000EF062FF012D10D0022D11D00094F9B258
:105C900004226846FFF757FE0120FFF7AEFD012101
:105CA00030460EF051FF2046F8BD8DF80040EEE77B
:105CB000ADF80040EBE7F8B50C4606464FF48075AA
:105CC000002128460EF040FF0120FFF796FDF1B2BB
:105CD00004226846FFF752FF012C0BD0022C0CD097
:105CE000009C0120FFF789FD012128460EF02CFFC2
:105CF0002046F8BD9DF80040F3E7BDF80040F0E70E
:105D00002DE9F04104218420FFF7D5FFFE4908600A
:105D100004211820FFF7CFFFFC4908600421102060
:105D2000FFF7C9FFFA4F042138600C20FFF7C3FFCB
:105D3000F849086004218820FFF7BDFF05460921C6
:105D40000A20FFF76BFD0EF0D2FA044628460EF04B
:105D5000D7FA21460EF0AAF9EF4908600421B020D5
:105D6000FFF7A9FFED4908600421C020FFF7A3FF5A
:105D7000EB4908600421BC20FFF79DFFE94908605A
:105D80000421B820FFF797FFE74908600421AC2001
:105D9000FFF791FF054609210A20FFF73FFD0EF0AE
:105DA000A6FA044628460EF0ABFA21460EF07EF91C
:105DB000DE49086004211C20FFF77DFFDC49012635
:105DC0000228086000D30E6004212020FFF773FF33
:105DD000D8490860401E322801D3142008600421ED
:105DE0002C20FFF768FFD449B0F5FA7F086001D98D
:105DF000322008600421F020FFF75DFFCF4CE06007
:105E0000401E022800D3E66004217C20FFF753FFE8
:105E1000CB4900250028086002DB3A68824200D2A4
:105E20000D6004218020FFF746FFC6490028086066
:105E300002DB3A68824200D20D6004218C20FFF719
:105E40003AFF6060A0F5D850583841F2717142F2C3
:105E50001077884200D3676004217420FFF72BFF7E
:105E600041F65831A060884204DB606843F2C821E3
:105E7000884200DDA7600421A420FFF71CFFB2497F
:105E80000860401E3C2801D33C2008600421F82013
:105E9000FFF711FF20610A38B0F5F57F00D92561C1
:105EA0000421FC20FFF707FF6061643842F2AD6116
:105EB000884200D3656104218801FFF7FCFEA061E0
:105EC000401E0A27322800D3A76104217820FFF75B
:105ED000F2FEE061022800D3E6610421EC20FFF726
:105EE000EAFE2062022800D3266204213820FFF750
:105EF000E2FE96496428086000D30F6004213C202C
:105F0000FFF7D9FE92494FF47A784045086000D9EE
:105F10000D6004214020FFF7CEFE8E498E4A0860B6
:105F2000904200D90D6004219020FFF7C4FE8B49F8
:105F30000228086000D30E6004219420FFF7BBFE06
:105F4000874E88493060884200D33560042198200C
:105F5000FFF7B1FE84494045086000D30D6004217D
:105F60009C20FFF7A8FE81496428086000D30D60DB
:105F70000421A020FFF79FFE7D490228086000D37E
:105F80000D6004212820FFF796FE60620B2800D3E5
:105F9000676204219420FFF78EFE30600A20FFF72D
:105FA0002CFC7449306808447349884201D3734813
:105FB000306004214420FFF77EFE714908600A200A
:105FC000FFF71BFC04214820FFF775FE6D4E306083
:105FD0000A20FFF712FC04214C20FFF76CFE7060D2
:105FE0000A20FFF70AFC04215020FFF764FEB0608E
:105FF0000A20FFF702FC04215420FFF75CFEF0604A
:106000000A20FFF7FAFB04215820FFF754FE306105
:106010000A20FFF7F2FB04215C20FFF74CFE7061C1
:106020000A20FFF7EAFB04216020FFF744FEB0617D
:106030000A20FFF7E2FB04216420FFF73CFE5249EF
:1060400008600A20FFF7D9FB0421E820FFF733FEA0
:106050004E4908600A20FFF7D0FB0421C820FFF753
:106060002AFE4B4E30600A20FFF7C7FB0421CC20EC
:10607000FFF721FE70600A20FFF7BFFB0421D0204C
:10608000FFF719FEB0600A20FFF7B7FB0421D42008
:10609000FFF711FEF0600A20FFF7AFFB0421D820C4
:1060A000FFF709FE30610A20FFF7A7FB0421DC207F
:1060B000FFF701FE70610A20FFF79FFB0421E0203B
:1060C000FFF7F9FDB0610A20FFF797FB0421E420F8
:1060D000FFF7F1FD2F4908600A20FFF78EFB04212E
:1060E0000020FFF7E8FD2C49A062884200D3A5629A
:1060F00004210846FFF7DFFDE06204211420FFF7CA
:10610000DAFD0421206349E0140000202000002073
:106110002C0000200800002044000020180000206F
:1061200060000020340000200C0000204800002007
:10613000E8380020EC380020F0380020AC000020C7
:10614000003900200439002008390020F4380020EC
:10615000F8380020FC380020803801002439002065
:1061600028390020809698002C39002030390020F2
:1061700034390020600FE6FF21D6130068881E0026
:106180001039002044AE0020143900201C390020B2
:1061900060AE00202039002001E1F5056820FFF7FE
:1061A0008AFD606304216C20FFF785FDA063042154
:1061B0007020FFF780FDE063E06A64389C2838D3E4
:1061C0007021D920C4E90B10D4206063FA20A063A9
:1061D00042F2C7000422E0631046FFF749FDE06287
:1061E0001E20FFF70AFB04221420216BFFF740FD5D
:1061F00020631E20FFF701FB04226820616BFFF77C
:1062000037FD60631E20FFF7F8FA04226C20A16BB3
:10621000FFF72EFDA0631E20FFF7EFFA0422702087
:10622000E16BFFF725FDE063BDE8F0411E20FFF7BD
:10623000E4BA68E4704738B500214FF480700EF07E
:1062400083FCC14804228421006800906846FFF75F
:106250007AFB0A20FFF7D1FABC4804220C2100681F
:1062600000906846FFF76FFB0A20FFF7C6FAB848B0
:1062700004221021006800906846FFF764FB0A20A2
:10628000FFF7BBFA09210A20FFF7C8FA0EF02FF832
:10629000B04909680DF0D4FE0EF061F800900422B8
:1062A00088216846FFF74FFB0A20FFF7A6FAAA48A5
:1062B00004221821006800906846FFF744FB0A207A
:1062C000FFF79BFAA5480422B021006800906846B9
:1062D000FFF739FB0A20FFF790FAA1480422B82102
:1062E000006800906846FFF72EFB0A20FFF785FA4A
:1062F0009C480422BC21006800906846FFF723FBFD
:106300000A20FFF77AFA09210A20FFF787FA0DF031
:10631000EEFF954909680DF093FE0EF020F800900D
:106320000422AC216846FFF70EFB0A20FFF765FA4E
:106330008E480422C021006800906846FFF703FBE6
:106340000A20FFF75AFA8A4800210078012807D06E
:10635000884C042280202160FFF78AFC206038BD31
:10636000854C04227C202160F6E77C4808B5006853
:1063700000900422B0216846FFF7E5FA0A20FFF7F3
:106380003CFA77480422B821006800906846FFF77D
:10639000DAFA0A20FFF731FA72480422BC210068B9
:1063A00000906846FFF7CFFA0A20FFF726FA092186
:1063B0000A20FFF733FA0DF09AFF6B4909680DF0D8
:1063C0003FFE0DF0CCFF00900422AC216846FFF7A1
:1063D000BAFA0A20FFF711FA64480422C0210068C3
:1063E00000906846FFF7AFFA0A20FFF706FA08BDEB
:1063F00010B5624C042264202168FFF739FC20604C
:106400000A20FFF7FAF95E4C042244202168FFF7C6
:106410002FFC20600A20FFF7F0F95A4C2168042273
:106420004820FFF725FC20601E20FFF7E6F9616891
:1064300004224C20FFF71CFC60601E20FFF7DDF9F2
:10644000A16804225020FFF713FCA0601E20FFF774
:10645000D4F9E16804225420FFF70AFCE0601E2012
:10646000FFF7CBF9216904225820FFF701FC2061D6
:106470001E20FFF7C2F9616904225C20FFF7F8FBD8
:1064800060611E20FFF7B9F9A16904226020FFF7BF
:10649000EFFBA0611E20FFF7B0F93B4C0422E42083
:1064A0002168FFF7E5FB20600A20FFF7A6F9374CCB
:1064B0000422E8202168FFF7DBFB20600A20FFF7B9
:1064C0009CF9334C21680422C820FFF7D1FB2060DF
:1064D0001E20FFF792F961680422CC20FFF7C8FB69
:1064E00060601E20FFF789F9A1680422D020FFF721
:1064F000BFFBA0601E20FFF780F9E1680422D420D2
:10650000FFF7B6FBE0601E20FFF777F92169042250
:10651000D820FFF7ADFB20611E20FFF76EF96169FF
:106520000422DC20FFF7A4FB60611E20FFF765F961
:10653000A1690422E020FFF79BFBA061BDE81040A9
:106540001E20FFF75AB900001400002008000020A8
:106550002C00002044000020200000201800002013
:106560000C000020340000204800002060000020C3
:1065700005000020043900200039002014390020D3
:106580001039002044AE0020203900201C390020A2
:1065900060AE00202DE9F84F4FF6BF10ADF80000B7
:1065A00010258DF8035003248DF802406946FE48FB
:1065B0000EF0DAF92801ADF800008DF803508DF8DF
:1065C00002406946F9480EF0CFF9C020ADF800004E
:1065D0008DF802401C20DFF8D8B38DF8030069461F
:1065E00058460EF0C1F942F20400ADF80000DFF8A1
:1065F000C4A304268DF80360694650460EF0B4F932
:10660000ADF800408DF803508DF8024069465046C1
:106610000EF0AAF90227ADF800708DF803508DF83E
:106620000240694658460EF09FF94FF4F060ADF80D
:1066300000008DF803508DF802406946DE480EF0E8
:1066400093F94FF47870ADF8000048208DF80300FE
:106650006946DA480EF088F92802ADF800008DF896
:1066600003508DF80240694650460EF07DF94FF018
:106670000808ADF80080DFF848938DF803508DF8D6
:106680000240694648460EF06FF9ADF800608DF89B
:1066900003508DF80240694648460EF065F9ADF8A2
:1066A00000708DF803508DF80240694648460EF0A0
:1066B0005BF90120ADF800008DF80360694648469B
:1066C0000EF052F94FF46070ADF800008DF80360E1
:1066D000694650460EF048F9ADF800808DF8036029
:1066E000694658460EF040F94FF46050ADF800008E
:1066F0008DF803508DF80240694648460EF034F993
:10670000ADF800508DF803508DF8024069465846A8
:106710000EF02AF90121AB480EF076F90121AA48C2
:106720000EF072F9BDE8F88F08B54FF48070ADF83F
:10673000000010208DF8030003208DF80200694648
:106740009B480EF011F908BD08B54FF48070ADF804
:10675000000048208DF8030003208DF802006946F0
:1067600093480EF001F908BD10B58F4C4FF48061CD
:1067700020460EF081F9E11420460EF07DF9A114B7
:1067800020460EF079F9611420460EF075F9204686
:10679000BDE810404FF480410EF070B910B5824C46
:1067A0004FF4806120460EF067F9E11420460EF0A8
:1067B00063F9A11420460EF05FF9611420460EF033
:1067C0005DF92046BDE810404FF480410EF054B909
:1067D00010B5754C4FF4806120460EF04DF9E11470
:1067E00020460EF049F9A11420460EF047F9611435
:1067F00020460EF041F92046BDE810404FF480419C
:106800000EF03AB910B5684C4FF4806120460EF096
:1068100033F9E11420460EF031F9A11420460EF0B0
:106820002BF9611420460EF027F92046BDE81040F0
:106830004FF480410EF020B910B55B4C4FF48061ED
:1068400020460EF01BF9E11420460EF015F9A114B4
:1068500020460EF011F9611420460EF00DF9204685
:10686000BDE810404FF480410EF006B970B5FFF757
:10687000E3FF514D28460EF0EBF81F2414EA901167
:1068800001D0012028E0FFF7BDFF28460EF0E0F818
:1068900014EA901101D002201EE0FFF799FF28466C
:1068A0000EF0D6F814EA901101D0032014E0FFF79F
:1068B00075FF28460EF0CCF814EA901101D00420A0
:1068C0000AE0FFF751FF28460EF0C2F814EA9011D3
:1068D00001D0102000E000200023102420253B4A96
:1068E000102918D008DC01290DD002290DD0042967
:1068F0000DD0082910D10CE0202904D0402904D063
:10690000802909D103E0D38007E0D48005E0D58059
:1069100003E0302100E04021D180D188084480B2DA
:10692000D08070BD10B5FFF7A1FF2849C888CA689C
:10693000824201D1002010BDC8600028FBD0FDF7C5
:10694000DAF99620FEF759FFFDF7BEF9012010BDD8
:1069500010B5FFF78BFF1D48C088002800D001202C
:1069600010BD3EB5194C0025257014480EF070F886
:1069700000F4F870208120894FF6FF7101EA400091
:106980002081228912A168460EF09EFB21890120F8
:10699000B1F5787F1ED060706178F1B1218962898C
:1069A000914219D1257018E00020014000080140F3
:1069B000000C014000100140001C01400018014083
:1069C000001401400004300000023000FC000020F0
:1069D000202558006570DFE72070208960813EBD6A
:1069E0001D48002141708170018141810321818016
:1069F000704710B5FFF7B5FF17484178C9B1017866
:106A0000B9B10189B1F5387F15D00189B1F5687F39
:106A100013D00189B1F5F07F11D00189B1F5587F0C
:106A20000FD00189B1F5707F0DD00189E0290CD01C
:106A30000DE0002010BD012108E0022106E0052143
:106A400004E0032102E0042100E0062101810A2084
:106A5000FDF756F9012010BDFC000020C0F307210E
:106A6000C2B2A0F53040A13841F65D0398420FD87C
:106A7000B039C1EB011000EB411002EB4000FF4ABE
:106A8000A13812F8101002EB4000407840EA0120D3
:106A900070472DE9F041FA4D0F4604464FF4007659
:106AA000314628460DF0E8FF394628460DF0E8FF4C
:106AB000EF147F2C3946284626D00DF0DFFF4FF427
:106AC0008064214628460DF0D7FF0120FEF78AFE9C
:106AD000314628460DF0D2FF0120FEF783FE3146F5
:106AE00028460DF0C9FF0120FEF77CFE214628460E
:106AF0000DF0C4FF394628460DF0BEFF314628464A
:106B0000BDE8F0410DF0BABF0DF0B6FFD7E7642045
:106B1000FEF768BEDB4910B501200870D84CC102F1
:106B200020460DF0A9FF0320FEF75CFEA1142046CD
:106B3000BDE810400DF0A2BFD24910B5002008708A
:106B4000CF4C4FF4805120460DF096FF0320FEF706
:106B500049FEE1142046BDE810400DF08FBF70B52E
:106B60004FF6FF7101EA4001C64E01F4C07400F017
:106B70003F000443307810B3FFF7CCFFC04D4FF413
:106B8000004128460DF078FF4FF4804128460DF073
:106B900073FF3078B0B144F4805128460DF070FF97
:106BA0004FF40054214628460DF068FF0120FEF7FF
:106BB00019FE21462846BDE870400DF05DBFFFF785
:106BC000BBFFDBE744F40061E7E7AF4910B50870AD
:106BD0000878B830FFF7C3FFBDE810406420FEF727
:106BE00001BE00F01F01A94810B501700278A54947
:106BF0000B2A08D200220A700078402100EB4000E6
:106C000001EB400005E001220A70007800EB400033
:106C10004000FFF7A4FFBDE810406420FEF7E2BD8E
:106C200010B50C46FFF7DDFF2046BDE81040CCE76D
:106C300070B54FF6FF7101EA4001924E01F4C07445
:106C400000F03F000443307810B3FFF763FF8C4D32
:106C50004FF4004128460DF011FF4FF480412846C3
:106C60000DF00AFF3078B0B144F4104128460DF021
:106C700007FF4FF40054214628460DF0FFFE012087
:106C8000FEF7B0FD21462846BDE870400DF0F4BE89
:106C9000FFF752FFDBE744F40841E7E72DE9F0474F
:106CA0000025784F2E464FF001083E70FFF744FF55
:106CB0004020FFF754FF05F1B8008146FFF74FFF72
:106CC00000240020FFF7B4FF0320FEF78BFD641CB7
:106CD000E4B2402CF5D387F80080FFF71BFF40207B
:106CE000FFF73DFF4846FFF73AFF00240020FFF77B
:106CF0009FFF0320FEF776FD641CE4B2402CF5D321
:106D00006D1CEDB2082DD0D33E70604806705E4910
:106D10000E7009780078FFF783FF5D4806805D48B4
:106D200006805D4806805D4806805D4806805D48B7
:106D300006805D4806805D4806805D4806805D48A7
:106D400006805D4806805D480680BDE8F0870F211B
:106D50007F209EE60C217F209BE670B50D00044647
:106D600006D0012D07D0022D10D0032D09D110E03F
:106D700004F1800001E004F1C000C1B27F20FFF700
:106D800088FE4F4804604F48056070BD04F19400D0
:106D9000F3E704F1D400F0E710B50A20FEF722FD76
:106DA00010BD49490020087070474749FF2008700E
:106DB0007047354910B508700878B830FFF7CFFE36
:106DC000BDE810406420FEF70DBD10B52F4C2070BB
:106DD0002078402804D2FFF7AFFE2078403002E050
:106DE000FFF798FE2078FFF7BAFEBDE81040642058
:106DF000FEF7F8BC10B50C46FFF7E7FF2046BDE8EC
:106E00001040D6E71F4910B5012008701E480078D1
:106E1000FFF7DBFE4020FFF7A2FEBDE81040642034
:106E2000FEF7E0BC70B51546FFF7FAFE00242846D1
:106E3000FFF7FEFE641CE4B2062CF8D370BD70B5FB
:106E40000D460446402802D2FFF776FE03E0FFF726
:106E500061FE403CE4B2B82000EBD500C6B230463B
:106E6000FFF77DFE04F140000446FFF778FE304650
:106E7000FFF775FE2046FFF772FE27E0985A0108DB
:106E8000002001401637002015370020143700205D
:106E9000F2360020F4360020F6360020F8360020C6
:106EA000FA360020FC360020FE3600200037002095
:106EB0000237002004370020063700200837002062
:106EC0000C37002010370020F036002005F00701B5
:106ED0000120BDE870408840384380B2A8E670B514
:106EE0000D460446402802D2FFF726FE03E0FFF7D6
:106EF00011FE403CE4B2B82000EBD500C6B23046EB
:106F0000FFF72DFE04F140000446FFF728FE30464F
:106F1000FFF725FE2046FFF722FE05F00701BDE83A
:106F200070400120884027EA000081E62DE9F04109
:106F3000FF49FD4FFD4DDFF8FC83002401EB0016F7
:106F40003888C1B22888C0B2FFF754FF305D98F886
:106F500000104840FFF76CFE3888401CC1B22888FA
:106F6000C0B2FFF747FF301998F80010007A484088
:106F7000FFF75EFE2888401C2880641CE4B2082CC1
:106F8000DED3ED490888401C0880BDE8F0812DE97A
:106F9000F047DFF8A4930646B9F80000E34D4FF63A
:106FA000FF7101EAC0002880E4480088DE4F388085
:106FB000DFF8808300243888C1B22888C0B2FFF788
:106FC00019FF305D98F800104840FFF731FE38880F
:106FD000401CC1B22888C0B2FFF70CFF301998F8E6
:106FE0000010007C4840FFF723FE2888401C2880C2
:106FF000641C102CDFDBB9F80010491CA9F8001044
:10700000B9F80010491CA9F800109EE6F0B5CC496B
:10701000C0F3842200258B5C1531C0F3441200F0CC
:107020001F00895CC64A89B03332175C8FB302F106
:1070300034000126405C012B38D0102B36D00322BF
:10704000BF4C7D34655C00EB800003EB8004DFF80F
:10705000F4E200206B460EEB441C1CF800401C546C
:10706000401CC0B21F28F8D902EB420000EBC2005E
:1070700001EB4001A03100200EEB41111A5C0C5CC9
:1070800022431A54401CC0B21F28F7D9012E0FD03A
:107090001EE0FFE7AA4800265130012B405C03D0D8
:1070A000102B01D00122CEE70022CCE70222C7E755
:1070B000C5EBC50007EB8001F83100200EEB411253
:1070C000195C145C21431954401CC0B21F28F7D925
:1070D0001846FFF75CFF09B0F0BD70B505460C46D9
:1070E00008460CF029FFC0B2401E00EBD07007210B
:1070F000A1EB60009049C0B2088090490D808B4997
:10710000C0000880884805800DE0641C802802D2F9
:10711000FFF70CFF07E014F8011B01EB0020FFF75D
:107120009DFCFFF773FF20780028EED170BD10B5ED
:107130001446814A1080814A11807C4AC000108028
:10714000794801800DE0641C802802D2FFF7EEFE32
:1071500007E014F8011B01EB0020FFF77FFCFFF7AD
:1071600055FF20780028EED110BD0020401C0228D9
:10717000FCD370473F20F2E470B5734D4FF4807438
:10718000214628460DF07AFC0A20FEF736FB214600
:1071900028460DF071FC0A20FEF72FFB21462846F9
:1071A0000DF06CFC634800240470684D2C70FFF7F0
:1071B000C3FCC020FFF7D3FC1420FEF71EFBB82051
:1071C000FFF7CDFC1420FEF718FB4020FFF7C7FCAB
:1071D00001262E70FFF79EFCC020FFF7C0FC142094
:1071E000FEF70BFBB820FFF7BAFC1420FEF705FBF7
:1071F0004020FFF7B4FCFFF751FD2E70FFF78AFC2B
:107200003F20FFF7ACFC2C70FFF796FC3F20FFF708
:10721000A6FC2C704E4804704E490C70097800781A
:10722000FFF7E8FD44480480444804804A4804804D
:107230004A4804803D4804803B4804804848048014
:1072400048480480484804804848048048480480EE
:107250004848048070BD70B50C46154606217F2055
:10726000FFF717FC0120FEF7C8FA9CB1012C1FD0D4
:10727000022C2BD0032C0CD1D4217F20FFF709FC4A
:1072800000240020295DFFF704FC641CE4B2142CE8
:10729000F7D370BD80217F20FFF7FBFB0024002087
:1072A000295DFFF7F6FB641CE4B2142CF7D370BD24
:1072B000C0217F20FFF7EDFB00240020295DFFF7B0
:1072C000E8FB641CE4B2142CF7D370BD94217F203A
:1072D000FFF7DFFB00240020295DFFF7DAFB641CC9
:1072E000E4B2142CF7D370BD70B50C4615460621D8
:1072F0007F20FFF7CEFB0120FEF77FFA9CB1012C27
:1073000048D0022C54D0032C0CD1D4217F20FFF77D
:10731000C0FB00240020295DFFF7BBFB641CE4B226
:10732000142CF7D370BD27E0FC360020FA3600207D
:1073300052010020F0360020F2360020F436002002
:10734000F46C0108520900200008014016370020A3
:107350001437002015370020F6360020F8360020BC
:10736000FE360020003700200237002004370020BE
:10737000063700200837002080217F20FFF789FB97
:1073800000240020295DFFF784FB641CE4B2142C68
:10739000F7D3C7E7C0217F20FFF77BFB0024002045
:1073A000295DFFF776FB641CE4B2142CF7D3B9E730
:1073B00094217F20FFF76DFB00240020295DFFF75B
:1073C00068FB641CE4B2142CF7D3ABE770B5044639
:1073D000FFF764FC224DFF21297022A20221002028
:1073E000FFF7A5FE3CB122A204210020FFF79FFE7B
:1073F0000020287096E721A2F6E72DE9F04100254C
:1074000007462E46FFF786FB4020FFF7A8FB06F154
:10741000B800FFF7A4FB0024785D6D1CFFF708FCA3
:10742000641CE4B2402CF7D3761CF6B2082EE9D3E4
:10743000ABE510B5002114A20846FFF778FE12A2B2
:1074400002210020FFF773FE0FA204210020FFF7A6
:107450006EFE0621BDE810400BA2002067E600008A
:10746000F0360020BCF6B0C5C5EBC0CC0000000073
:10747000C3A1BDC0B4CFB4D900000000BEF8BDC0E8
:10748000B4CFB4D9000000002020202020202020EC
:10749000202020202020202000000000002804D1EF
:1074A0004948818800680DF0E9BA7047002804D186
:1074B0004548818800680DF0DFBA704710B5002894
:1074C00011D1414C20680DF0CDFAB4F904100142FD
:1074D000A188206803D0BDE810400DF0CDBABDE80A
:1074E00010400DF0CBBA10BD032808D2364A08323E
:1074F00002EBC00152F8300089880DF0BFBA704726
:10750000032808D2304A083202EBC00152F830009A
:1075100089880DF0B1BA704770B50446032817D2B8
:10752000294D083555F834000DF09CFA014605EB5D
:10753000C400B0F904200A42818855F8340003D011
:10754000BDE870400DF098BABDE870400DF096BAF5
:1075500070BD80211D480DF08FBA4FF400711B489B
:107560000DF08ABA4FF4807118480DF085BA4FF4C7
:10757000806116480DF080BA10B5FFF7EAFFFFF7FB
:10758000ECFFFFF7EFFFBDE81040F0E74FF480613C
:107590000E480DF073BA4FF480710C480DF06EBABE
:1075A0004FF4007109480DF069BA802107480DF0C9
:1075B00065BA10B5FFF7F9FFFFF7F2FFFFF7EBFF32
:1075C000BDE81040E2E70000886D0108001C0140A2
:1075D000FCA00CF0D0B82DE9F04FFF488FB0007838
:1075E00001287DD1FD4F0A26FD4D39684FF0000B73
:1075F00091FBF6F02A78303A904272D106FB1011D6
:107600006878303881426CD11021F6480DF036FA96
:107610003220FEF7F2F8A878E978000400EB0120A8
:107620002979F14A0844811ADFF8C083F04CDFF869
:10763000C493DFF8C4A390427ED013DCA2F103020E
:10764000A0EB0201904278D007DCEC49401818D03A
:10765000A0F55540DC385BD17DE001296ED00229D0
:1076600056D140E103296AD004DC012968D00229FF
:107670004ED1FAE1B1F5A15F7DD0E148081847D1BC
:10768000B9E0E0A00BF088FF02200CF02CF838687D
:1076900090FBF6F030300CF026F8386890FBF6F1ED
:1076A00006FB110030300CF01EF8A8780CF01BF827
:1076B000E8780CF018F828790CF015F8D8F80010D4
:1076C000D148012912D09AF81530D04A0BB1C2F82E
:1076D00000B09AF8141009B1C0F800B0006801E0D9
:1076E00036E01CE011684218C9A105E09AF81410B0
:1076F00002680029F8D0C8A101A80DF0E5FC01A896
:107700000CF013F803200BF0EEFF00200BF0EBFF62
:107710003220FEF772F81021B2480DF0ADF9FF20CB
:1077200028706870A870E870BD4928716871087089
:1077300048708870C87004E0FCE085E0ABE0BBE115
:107740001FE1087148718871C871A34981F800B0C0
:107750000FB0BDE8F08FB3A00BF01EFF02200BF0BE
:10776000C2FF386890FBF6F030300BF0BCFF386891
:1077700090FBF6F100E019E006FB110030300BF051
:10778000B2FFA8780BF0AFFFE8780BF0ACFF2879D8
:107790000BF0A9FFD8F80010A348012904D0A34991
:1077A000006809684218ADE10268ABE1A0A00BF0E7
:1077B000F3FE02200BF097FF386890FBF6F03030B4
:1077C0000BF091FF386890FBF6F106FB11003030AA
:1077D0000BF089FFA8780BF086FFE8780BF083FFA9
:1077E00028790BF080FF0AF121004178009103789D
:1077F0009AF8202023E08FA00BF0CEFE02200BF0A1
:1078000072FF386890FBF6F030300BF06CFF386890
:1078100090FBF6F106FB110030300BF064FFA87806
:107820000BF061FFE8780BF05EFF28790BF05BFF4F
:107830000AF124004178009103789AF823207EA170
:1078400001A80DF041FC5AE77FA00BF0A5FE022035
:107850000BF049FF386890FBF6F030300BF043FF37
:10786000386890FBF6F106FB110030300BF03BFF5F
:10787000A8780BF038FFE8780BF035FF28790BF08B
:1078800032FFD8F80000012803D02168D9F80000A1
:1078900025E0226836E16DA00BF07EFE02200BF0A1
:1078A00022FF386890FBF6F030300BF01CFF386890
:1078B00090FBF6F106FB110030300BF014FFA878B6
:1078C0000BF011FFE8780BF00EFF28790BF00BFF9F
:1078D000D8F80000012804D06168D9F804000A181B
:1078E00010E162680EE15AA00BF056FE02200BF088
:1078F000FAFE386890FBF6F030300BF0F4FE386892
:1079000090FBF6F106FB110030300BF0ECFEA8788E
:107910000BF0E9FEE8780BF0E6FE28790BF0E3FEC9
:10792000D8F80000012803D0A168D9F80800D6E7EC
:10793000A268E7E047A00BF02FFE02200BF0D3FE79
:10794000386890FBF6F030300BF0CDFE386890FBD5
:10795000F6F106FB110030300BF0C5FEA8780BF0F5
:10796000C2FEE8780BF0BFFE28790BF0BCFED8F819
:107970000000012803D0E168D9F80C00AFE7E26805
:10798000C0E035A00BF008FE02200BF0ACFE38681A
:1079900090FBF6F030300BF0A6FE386890FBF6F165
:1079A00006FB110030300BF09EFEA8780BF09BFE1A
:1079B000E8780BF098FE28790BF095FED8F80000D7
:1079C00001284BE043646D615F506F7765725F4FD4
:1079D0006E28293B000000001E3800202C390020B2
:1079E000CE94002000080140342D4400B80000204F
:1079F00044AE002060AE002054360020ACA8BCFF8E
:107A0000E7E3EFFF43575400D8380020E038002068
:107A10002025376C750000002D25376C750000009F
:107A2000C4940020442D3000103900201C3900205F
:107A30004441540054494D002532582E25303258C7
:107A40002E25303258000000442D3100442D3200E4
:107A5000442D3300442D3400442D350003D02169DA
:107A6000D9F810003BE722694CE0FEA00BF094FD32
:107A700002200BF038FE386890FBF6F030300BF047
:107A800032FE386890FBF6F106FB110030300BF047
:107A90002AFEA8780BF027FEE8780BF024FE287960
:107AA0000BF021FED8F80000012803D06169D9F855
:107AB000140014E7626925E0EBA00BF06DFD0220D5
:107AC0000BF011FE386890FBF6F030300BF00BFE37
:107AD000386890FBF6F106FB110030300BF003FE26
:107AE000A8780BF000FEE8780BF0FDFD28790BF08C
:107AF000FAFDD8F80000012803D0A169D9F81800D0
:107B0000EDE6A269D9A1F7E5DA4810B50268DB48CD
:107B1000D949DB4C807D012A04D0B8B1D9A0FFF748
:107B200006FB1DE018B1DCA0FFF701FB09E00A68C5
:107B3000DCA1E0480DF0C8FA0021DE4A0846FFF754
:107B4000F6FAFFF732F9DCA122680DE00A68DEA13F
:107B5000D8480DF0B9FA0021D64A0846FFF7E7FAEF
:107B6000FFF723F92268DCA1D2480DF0ADFAD14A23
:107B700002210020FFF7DBFABDE81040FFF711B942
:107B80002DE9F043D84DD94E99B000242B68D8A1E7
:107B9000684632680DF098FAFFF74BFCDFF8D49294
:107BA000D9F80000012819D0D7A202210020FFF740
:107BB000BEFAD7A204210020FFF7B9FA4FF4FA6009
:107BC000FDF71BFED64FFEF714FF88B13888062854
:107BD0000ED2DFE800F00D0A0A0A0A0FD1A2022134
:107BE0000020FFF7A4FAD2A2E4E7FCF793F84DE0F7
:107BF000002CE8D0FFF71DFC0027FBF75FFB7F1C84
:107C0000FFB20446052FF8D30CF071FBCC4909688C
:107C10000CF016FA0CF08AFBCA4FCBA138602B6827
:107C2000684632680DF050FACD4ECE4D4FF0000848
:107C3000346004222146B020C5F80080FEF718F811
:107C400030600A20FDF7D9FD0422B4203968FEF720
:107C50000FF838600A20FDF7D0FD04228020296843
:107C6000FEF706F828600A20FDF7C7FD2B68B6A1CD
:107C7000684632680DF028FABBA204210020FFF705
:107C800056FA7E4880F8148080F81580FFF7D1FB03
:107C9000BA4D7B4C2868012813D1FFF735FFFFF759
:107CA00084F8D9F80000226801284AD0B4A181489C
:107CB0000DF00AFA7F4A06210020FFF738FAFFF795
:107CC00070F82868022839D1D9F80000B04E6A4F00
:107CD000B04D012837D0FFF768F833683A68AEA195
:107CE00074480DF0F1F90021724A0846FFF71FFAB7
:107CF000FFF757F8ACA16F4822680DF0E5F96D4A1F
:107D000002210020FFF713FAABA16A482A680DF0A0
:107D1000DBF9684A04210020FFF709FAFFF745F86C
:107D2000206829684218A8A162480DF0CDF9614A7F
:107D300006210020FFF7FBF9FFF733F819B0BDE883
:107D4000F083A5A1B3E7FFF730F833683A68A6A13E
:107D500058480DF0B9F90021564A0846FFF7E7F9EF
:107D6000FFF71FF8A4A1534822680DF0ADF9514A5E
:107D700002210020FFF7DBF9A3A14E482A680DF08D
:107D8000A3F94C4A04210020FFF7D1F9FFF70DF8C1
:107D9000206829684218A0A1C6E72DE9F047524E95
:107DA000DFF848819AB00024336851A16846D8F8BA
:107DB00000200DF089F9FFF73CFBDFF8B8A06F4D0C
:107DC000DAF800000128286802D0022809D00DE066
:107DD000022804D194A202210020FFF7A8F995A25D
:107DE00005E098A202210020FFF7A1F997A2042143
:107DF0000020FFF79CF94FF4FA60FDF7FEFC484FB6
:107E0000FEF7F7FD50B13888062807D2DFE800F00A
:107E1000060303030308FBF77DFF53E1002CEFD0BB
:107E2000FFF707FB0027FBF726FA7F1CFFB204468B
:107E3000052FF8D30CF05BFA884909680CF000F9BB
:107E40000CF074FADFF8189247463FA1C9F8000019
:107E500033686846D8F800200DF036F94FF0000876
:107E60003C60FFE0442D3600442D370025386C750A
:107E700000000000C8000020D83800205436002040
:107E8000103900204C4F41445F43454C4C20455233
:107E9000524F522100000000B7CEB5E5BCBF20BF55
:107EA000A1B7AF00B9AB20B0D43A2025356C64201F
:107EB0006B67200026880020B1DE20C0CC3A202548
:107EC000356C64206B67200053494C4F203A2025C5
:107ED000356C64206B67200046454544203A2025D8
:107EE000356C64206B6720000039002014000020EE
:107EF000765F7A65726F313D25366C752020636F31
:107F00006D703D25366C750053494C4F2032000092
:107F1000204D414B45205A45524F202020203F0004
:107F20000401002020BDCEC0CCB7CE20320000001E
:107F300020BFB5C1A120BDC7C7E0202020203F0041
:107F4000480000203C000020765F7A65726F323D69
:107F500025366C752020636F6D703D25366C75007D
:107F60001800002004390020205A45524F2046496D
:107F70004E49534845442E2E00000000B800002012
:107F8000544F4441593A2025356C64206B672000DA
:107F9000E03800201C39002053494C4F3A25356CFD
:107FA000642D25356C64000046454544313A25353D
:107FB0006C64206B6700000046454544323A253525
:107FC0006C64206B67000000544F4441593A2025EF
:107FD000356C64206B670000BFC020B4C33A202515
:107FE000356C64206B672000B9ABB0D43A25356C92
:107FF000642D25356C640000B1DEC0CCB7AE313ADB
:1080000025356C64206B6700B1DEC0CCB7AE323A68
:1080100025356C64206B6700BFC020B4C33A2025AF
:10802000356C64206B67000020BDCEC0CCB7CE207D
:1080300031B9F80020BFB5C1A120BDC7C7E0203FBE
:10804000000000002053494C4F203100204D414B8F
:1080500045205A45524F203F0000000044000020B8
:1080600038000020042221468420C6F80080FDF755
:10807000FFFD38600A20FDF7C0FB04220820D9F874
:108080000010FDF7F5FDC9F800000A20FDF7B5FB6B
:1080900004227C203168FDF7EBFD30600A20FDF7FB
:1080A000ACFB3368F4A168463A680DF00DF8AFF206
:1080B000481204210020FFF73AF8F54880F81480B0
:1080C00080F81580FFF7B5F92868F24C012814D123
:1080D000FFF71AFDFEF769FEDAF8000022680128B2
:1080E0004ED0AFF26411EC480CF0EEFFEA4A0621E4
:1080F0000020FFF71CF8FEF754FE286802283CD148
:10810000DAF80000E54EE64FE64D01283BD0FEF7D9
:108110004CFE33683A68AFF28011DF480CF0D4FFB0
:108120000021DD4A0846FFF702F8FEF73AFEAFF2FB
:108130008811D94822680CF0C7FFD74A02210020D5
:10814000FEF7F5FFAFF29011D3482A680CF0BCFFA0
:10815000D14A04210020FEF7EAFFFEF726FE206840
:1081600029684218D0A1CC480CF0AEFFCA4A0621BB
:108170000020FEF7DCFFFEF714FE1AB0BDE8F08722
:10818000AFF2AC11AFE7FEF710FE33683A68AFF21A
:10819000A811C1480CF098FF0021BF4A0846FEF71D
:1081A000C6FFFEF7FEFDAFF2B011BB4822680CF02F
:1081B0008BFFB94A02210020FEF7B9FFAFF2B811D8
:1081C000B5482A680CF080FFB34A04210020FEF76E
:1081D000AEFFFEF7EAFD206829684218B6A1C2E7A3
:1081E00010B5B94C2068642801D9FFF7B6F92068AA
:1081F000C82803D9FFF7D4F90020206010BD10B5BE
:10820000B24C2068322801D9FFF7B1F92068642800
:1082100003D9FFF7BBF90020206010BD10B5AC4CAE
:108220002068322801D9FFF79DF92068642803D916
:10823000FFF7B1F90020206010BD10B5A54C2068F3
:10824000642801D9FFF785F92068C82803D9FFF70A
:10825000ACF90020206010BD2DE9F047FBF72EF8A7
:108260009D490127002508609C49894C884201DD11
:10827000E77500E0E5750CF03AF8994909680BF0EC
:10828000DFFE0CF053F89749984E0860964909684C
:10829000401A974930600968A1F51C52103A17D06E
:1082A0000CF033F880469348894600680CF02DF8AE
:1082B0000022914B0BF0ACFF42464B460BF036FFD1
:1082C0000CF074F87249803148610CF02FF830607E
:1082D000011E8A4A8A4B8B480CDB126801EB520163
:1082E00001600168B1FBF2F1016001681A68514355
:1082F000016010E0677549423160126801EB52017C
:1083000001600168B1FBF2F1016001681A68514334
:108310000160016801B965757B49604A096849B126
:10832000637D006843B1081A10601068002805DBFF
:10833000657523E7006804E00844F5E76775106891
:10834000404210601AE72DE9F047FAF794FF6249BE
:1083500001270025086061494D4C884201DDA77561
:1083600000E0A5750BF0C3FF684909680BF068FED3
:108370000BF0DCFF5B495D4E086065490968401AF7
:108380005C493060D1F800A0AAF51C52103A16D012
:108390000BF0BBFF8046894650460BF0B6FF00222B
:1083A000554B0BF035FF42464B460BF0BFFE0BF032
:1083B000FDFF3749803148610BF0B8FF3060011E86
:1083C0004E4B544A54480CDB1B6801EB53010160CF
:1083D0000168B1FBF3F1016001681268514301606B
:1083E00010E02775494231601B6801EB53010160C1
:1083F0000168B1FBF3F1016001681268514301604B
:10840000016801B925754549254A096849B1237DA7
:1084100000684BB1081A10601068002806DB25754B
:10842000ACE600681060A9E60844F4E71068404232
:1084300010602775A2E610B50B2139A008F0D9F815
:108440004FF47A742046FDF7D8F9FBF79AFC2046E2
:10845000FDF7D3F9BDE81040FBF78FBC0BF0C1B9B5
:1084600010B5044631489AB04168009109482A493C
:1084700003680A685CE00000765F7A65726F333DDE
:1084800025366C752020636F6D703D25366C750048
:10849000543600201039002026880020E0380020C3
:1084A000D83800201C390020544F444159203A2527
:1084B000356C64206B670000BFC020B4C3203A2530
:1084C000356C64206B670000F4370020F83700201B
:1084D000F0370020EC37002040390020801A0600D9
:1084E000480000203C3900203C0000204839002092
:1084F000B4000020B00000200088C340100000201D
:108500000C000020E4380020043900204400002042
:108510003800002008000020DC380020003900204E
:108520004154244C475452455345540044AE002016
:10853000F4A101A80CF0C8FD01A9204608F020F81C
:108540004FF47A70FDF759F91AB010BD2DE9F041DA
:10855000F8A00BF021F842F2CD01F9A009F03CFDA2
:10856000012850D10021FA480CF099FC00214FF06D
:1085700080400CF094FC0021F6480CF090FCF64D85
:1085800040F225540022214628460CF029FDF34EE6
:108590000022214630460CF023FDF14F00222146F7
:1085A00038460CF01DFD2146EE4C002220460CF012
:1085B00017FD002128460CF0ACFC002130460CF0E1
:1085C000A8FC002138460CF0A4FC002120460CF049
:1085D000A0FC002101200CF00BFC4FF000650021F5
:1085E00028460CF0A1FADC4943F239000831088032
:1085F0006968DD4C2161E16028680BF04DFCE068A2
:10860000BDE8F0410047BDE8F08170B504468EB08A
:108610000522D6A1401C0BF09FFC002528B30822A0
:10862000D4A1601C0BF098FC04F1090600283AD094
:108630000622D3A1601C0BF08FFC002856D0082224
:10864000D1A1601C0BF088FC002852D00822D1A1D7
:10865000601C0BF081FC002856D00522D0A1601CC4
:108660000BF07AFC00285DD062E0E572A01D0BF0F3
:1086700082FC014604228C20FDF7FAFACA49024620
:108680000860CAA168460CF01FFD6A46042100205C
:10869000FEF74DFD40F6B830FDF7AFF8C7A1022058
:1086A00008F09DFF44E0A57330460BF064FC05F034
:1086B0007FFBC34D0146042228607C20FDF7D8FAD9
:1086C000286030460BF057FC0346BEA168462A6876
:1086D0000CF0FAFC4FF4FA60FDF78FF8B7A1022016
:1086E00008F07DFF68460AF057FF21E0FFF755FBD1
:1086F0001EE030460BF03FFCB84D2968481E3B2871
:1087000016D80422A42009E030460BF034FC0128DE
:108710000ED8B34D014604222860A820FDF7A8FA20
:10872000286005E0207D402802D1A01D05F029FA2F
:1087300020460AF031FF0EB070BD70B5A2B0A9A0FE
:108740000AF02AFFAB480AF027FFAA4CAA4E0025E0
:108750006078522807D1A078452804D1E0785328C2
:108760000AD047280CD03068204410F81C1C44293B
:108770000CD0412913D01AE00B21AFF25C2093E01A
:108780009E4A9FA104A80CF09FFC99E010F81B1CC6
:1087900045290CD110F81A0C4C28F6D007E010F837
:1087A0001B1C552903D110F81A0C54282CD0062272
:1087B00095A190480BF0D0FB002833D0082294A15B
:1087C0008C480BF0C9FB00282CD0062293A18948C5
:1087D0000BF0C2FB30B3082292A186480BF0BCFB21
:1087E00000B3082292A183480BF0B6FBD0B104225B
:1087F00092A180480BF0B0FBC0B13068204410F863
:108800001C1C4D2918D01FE08E48C378827841780F
:1088100000788DE80F003A468A4B8BA104A80CF033
:1088200053FC4DE07348FFF7F0FE49E042F2CD0102
:1088300043A0FFF78BFE43E010F81B1C412903D136
:1088400010F81A1C4E2906D0082286A169480BF0A0
:1088500083FB60B334E010F80F1D8DF8741041787D
:108860008DF8751081788DF87610C1788DF87710B5
:1088700001798DF8781041798DF8791081798DF82A
:108880007A10C1798DF87B10017A8DF87C10417ACD
:108890008DF87D10807A8DF87E008DF87F501DA8B0
:1088A000FFF7DEFD092172A007F0A3FE08E0514AA0
:1088B00072A1083204A80CF007FC04A80AF091FF8A
:1088C00000202554401CFF28FBDD6F4C6FA104A83D
:1088D00022780CF0F9FB25704FF47A703560FCF7C4
:1088E0008CFF227869A104A80CF0EEFB22B070BDC9
:1088F0006E486F4A01681068814202D14FF0FF3024
:108900007047D7E030372D312DB9ABB0D43A25358B
:108910006C75206B6720BFC0B4C33A25356C7520D9
:108920006B6720BEEEC1A63A25356C75206B6720BB
:108930000000000020494E20494150200000000066
:108940003131322E3231372E3231322E3235300043
:10895000002C014000040040003801400044004069
:1089600000480040004C0040D436002052464143AD
:108970003D000000525745494748543D0000000063
:10898000525A45524F3D000052535454494D453DB3
:1089900000000000524C43434F4D503D000000008A
:1089A000444154453D000000B0000020464143547E
:1089B0004F523D256C642020000000007365740058
:1089C000003900205245414C5F5745494748543DC6
:1089D000256C642C20256C642E20000008390020B2
:1089E0000C390020534D53205245434549564544C8
:1089F0000000000004AF0020743900207CAE00208D
:108A000054454C3D2573000023524641433D000030
:108A100023525745494748543D00000023525A45C8
:108A2000524F3D002352535454494D453D000000E0
:108A300023524C43434F4D503D00000023494150C9
:108A40003D00000090AE0020534D532054494D4549
:108A50003D256C752E256C752E25632563256325B4
:108A600063000000235A49474245453D000000008D
:108A70004154244C475441434B00000041542B5572
:108A8000433D257300000000B83800205573617223
:108A900074335F736D735F72656365697665645F78
:108AA000666C61673D25642C20000000800000207A
:108AB00084000020401C0A2190FBF1F301FB13000D
:108AC00010601DE71FB5F748F34BF44AF4490068FE
:108AD0001B68126809688DE80F00F348F4A1036869
